{
	"contracts/SampleFallback.sol": {
		"SampleFallback": {
			"abi": [
				{
					"stateMutability": "payable",
					"type": "fallback"
				},
				{
					"inputs": [],
					"name": "lastFunctionCalled",
					"outputs": [
						{
							"internalType": "string",
							"name": "",
							"type": "string"
						}
					],
					"stateMutability": "view",
					"type": "function"
				},
				{
					"inputs": [],
					"name": "lastUserCalled",
					"outputs": [
						{
							"internalType": "address",
							"name": "",
							"type": "address"
						}
					],
					"stateMutability": "view",
					"type": "function"
				},
				{
					"inputs": [],
					"name": "lastValueSent",
					"outputs": [
						{
							"internalType": "uint256",
							"name": "",
							"type": "uint256"
						}
					],
					"stateMutability": "view",
					"type": "function"
				},
				{
					"inputs": [],
					"name": "myUint",
					"outputs": [
						{
							"internalType": "uint256",
							"name": "",
							"type": "uint256"
						}
					],
					"stateMutability": "view",
					"type": "function"
				},
				{
					"inputs": [
						{
							"internalType": "uint256",
							"name": "_myUint",
							"type": "uint256"
						}
					],
					"name": "setMyUint",
					"outputs": [],
					"stateMutability": "nonpayable",
					"type": "function"
				},
				{
					"stateMutability": "payable",
					"type": "receive"
				}
			],
			"devdoc": {
				"kind": "dev",
				"methods": {},
				"version": 1
			},
			"evm": {
				"assembly": "    /* \"contracts/SampleFallback.sol\":61:632  contract SampleFallback {... */\n  mstore(0x40, 0x80)\n  callvalue\n  dup1\n  iszero\n  tag_1\n  jumpi\n  0x00\n  dup1\n  revert\ntag_1:\n  pop\n  dataSize(sub_0)\n  dup1\n  dataOffset(sub_0)\n  0x00\n  codecopy\n  0x00\n  return\nstop\n\nsub_0: assembly {\n        /* \"contracts/SampleFallback.sol\":61:632  contract SampleFallback {... */\n      mstore(0x40, 0x80)\n      jumpi(tag_1, lt(calldatasize, 0x04))\n      shr(0xe0, calldataload(0x00))\n      dup1\n      0x06540f7e\n      eq\n      tag_3\n      jumpi\n      dup1\n      0x3e8f7cad\n      eq\n      tag_4\n      jumpi\n      dup1\n      0x5f947586\n      eq\n      tag_5\n      jumpi\n      dup1\n      0xe36a6655\n      eq\n      tag_6\n      jumpi\n      dup1\n      0xe492fd84\n      eq\n      tag_7\n      jumpi\n      jump(tag_2)\n    tag_1:\n      jumpi(tag_2, calldatasize)\n        /* \"contracts/SampleFallback.sol\":371:380  msg.value */\n      callvalue\n        /* \"contracts/SampleFallback.sol\":355:368  lastValueSent */\n      0x00\n        /* \"contracts/SampleFallback.sol\":355:380  lastValueSent = msg.value */\n      dup2\n      swap1\n      sstore\n      pop\n        /* \"contracts/SampleFallback.sol\":391:421  lastFunctionCalled = \"receive\" */\n      mload(0x40)\n      dup1\n      0x40\n      add\n      0x40\n      mstore\n      dup1\n      0x07\n      dup2\n      mstore\n      0x20\n      add\n      0x7265636569766500000000000000000000000000000000000000000000000000\n      dup2\n      mstore\n      pop\n        /* \"contracts/SampleFallback.sol\":391:409  lastFunctionCalled */\n      0x01\n        /* \"contracts/SampleFallback.sol\":391:421  lastFunctionCalled = \"receive\" */\n      swap1\n      dup2\n      tag_10\n      swap2\n      swap1\n      tag_11\n      jump\t// in\n    tag_10:\n      pop\n        /* \"contracts/SampleFallback.sol\":449:459  msg.sender */\n      caller\n        /* \"contracts/SampleFallback.sol\":432:446  lastUserCalled */\n      0x02\n      0x00\n        /* \"contracts/SampleFallback.sol\":432:459  lastUserCalled = msg.sender */\n      0x0100\n      exp\n      dup2\n      sload\n      dup2\n      0xffffffffffffffffffffffffffffffffffffffff\n      mul\n      not\n      and\n      swap1\n      dup4\n      0xffffffffffffffffffffffffffffffffffffffff\n      and\n      mul\n      or\n      swap1\n      sstore\n      stop\n        /* \"contracts/SampleFallback.sol\":61:632  contract SampleFallback {... */\n    tag_2:\n        /* \"contracts/SampleFallback.sol\":530:539  msg.value */\n      callvalue\n        /* \"contracts/SampleFallback.sol\":514:527  lastValueSent */\n      0x00\n        /* \"contracts/SampleFallback.sol\":514:539  lastValueSent = msg.value */\n      dup2\n      swap1\n      sstore\n      pop\n        /* \"contracts/SampleFallback.sol\":550:581  lastFunctionCalled = \"fallback\" */\n      mload(0x40)\n      dup1\n      0x40\n      add\n      0x40\n      mstore\n      dup1\n      0x08\n      dup2\n      mstore\n      0x20\n      add\n      0x66616c6c6261636b000000000000000000000000000000000000000000000000\n      dup2\n      mstore\n      pop\n        /* \"contracts/SampleFallback.sol\":550:568  lastFunctionCalled */\n      0x01\n        /* \"contracts/SampleFallback.sol\":550:581  lastFunctionCalled = \"fallback\" */\n      swap1\n      dup2\n      tag_14\n      swap2\n      swap1\n      tag_11\n      jump\t// in\n    tag_14:\n      pop\n        /* \"contracts/SampleFallback.sol\":609:619  msg.sender */\n      caller\n        /* \"contracts/SampleFallback.sol\":592:606  lastUserCalled */\n      0x02\n      0x00\n        /* \"contracts/SampleFallback.sol\":592:619  lastUserCalled = msg.sender */\n      0x0100\n      exp\n      dup2\n      sload\n      dup2\n      0xffffffffffffffffffffffffffffffffffffffff\n      mul\n      not\n      and\n      swap1\n      dup4\n      0xffffffffffffffffffffffffffffffffffffffff\n      and\n      mul\n      or\n      swap1\n      sstore\n      stop\n        /* \"contracts/SampleFallback.sol\":207:225  uint public myUint */\n    tag_3:\n      callvalue\n      dup1\n      iszero\n      tag_15\n      jumpi\n      0x00\n      dup1\n      revert\n    tag_15:\n      pop\n      tag_16\n      tag_17\n      jump\t// in\n    tag_16:\n      mload(0x40)\n      tag_18\n      swap2\n      swap1\n      tag_19\n      jump\t// in\n    tag_18:\n      mload(0x40)\n      dup1\n      swap2\n      sub\n      swap1\n      return\n        /* \"contracts/SampleFallback.sol\":169:198  address public lastUserCalled */\n    tag_4:\n      callvalue\n      dup1\n      iszero\n      tag_20\n      jumpi\n      0x00\n      dup1\n      revert\n    tag_20:\n      pop\n      tag_21\n      tag_22\n      jump\t// in\n    tag_21:\n      mload(0x40)\n      tag_23\n      swap2\n      swap1\n      tag_24\n      jump\t// in\n    tag_23:\n      mload(0x40)\n      dup1\n      swap2\n      sub\n      swap1\n      return\n        /* \"contracts/SampleFallback.sol\":128:160  string public lastFunctionCalled */\n    tag_5:\n      callvalue\n      dup1\n      iszero\n      tag_25\n      jumpi\n      0x00\n      dup1\n      revert\n    tag_25:\n      pop\n      tag_26\n      tag_27\n      jump\t// in\n    tag_26:\n      mload(0x40)\n      tag_28\n      swap2\n      swap1\n      tag_29\n      jump\t// in\n    tag_28:\n      mload(0x40)\n      dup1\n      swap2\n      sub\n      swap1\n      return\n        /* \"contracts/SampleFallback.sol\":94:119  uint public lastValueSent */\n    tag_6:\n      callvalue\n      dup1\n      iszero\n      tag_30\n      jumpi\n      0x00\n      dup1\n      revert\n    tag_30:\n      pop\n      tag_31\n      tag_32\n      jump\t// in\n    tag_31:\n      mload(0x40)\n      tag_33\n      swap2\n      swap1\n      tag_19\n      jump\t// in\n    tag_33:\n      mload(0x40)\n      dup1\n      swap2\n      sub\n      swap1\n      return\n        /* \"contracts/SampleFallback.sol\":234:309  function setMyUint(uint _myUint) public {... */\n    tag_7:\n      callvalue\n      dup1\n      iszero\n      tag_34\n      jumpi\n      0x00\n      dup1\n      revert\n    tag_34:\n      pop\n      tag_35\n      0x04\n      dup1\n      calldatasize\n      sub\n      dup2\n      add\n      swap1\n      tag_36\n      swap2\n      swap1\n      tag_37\n      jump\t// in\n    tag_36:\n      tag_38\n      jump\t// in\n    tag_35:\n      stop\n        /* \"contracts/SampleFallback.sol\":207:225  uint public myUint */\n    tag_17:\n      sload(0x03)\n      dup2\n      jump\t// out\n        /* \"contracts/SampleFallback.sol\":169:198  address public lastUserCalled */\n    tag_22:\n      0x02\n      0x00\n      swap1\n      sload\n      swap1\n      0x0100\n      exp\n      swap1\n      div\n      0xffffffffffffffffffffffffffffffffffffffff\n      and\n      dup2\n      jump\t// out\n        /* \"contracts/SampleFallback.sol\":128:160  string public lastFunctionCalled */\n    tag_27:\n      0x01\n      dup1\n      sload\n      tag_39\n      swap1\n      tag_40\n      jump\t// in\n    tag_39:\n      dup1\n      0x1f\n      add\n      0x20\n      dup1\n      swap2\n      div\n      mul\n      0x20\n      add\n      mload(0x40)\n      swap1\n      dup2\n      add\n      0x40\n      mstore\n      dup1\n      swap3\n      swap2\n      swap1\n      dup2\n      dup2\n      mstore\n      0x20\n      add\n      dup3\n      dup1\n      sload\n      tag_41\n      swap1\n      tag_40\n      jump\t// in\n    tag_41:\n      dup1\n      iszero\n      tag_42\n      jumpi\n      dup1\n      0x1f\n      lt\n      tag_43\n      jumpi\n      0x0100\n      dup1\n      dup4\n      sload\n      div\n      mul\n      dup4\n      mstore\n      swap2\n      0x20\n      add\n      swap2\n      jump(tag_42)\n    tag_43:\n      dup3\n      add\n      swap2\n      swap1\n      0x00\n      mstore\n      keccak256(0x00, 0x20)\n      swap1\n    tag_44:\n      dup2\n      sload\n      dup2\n      mstore\n      swap1\n      0x01\n      add\n      swap1\n      0x20\n      add\n      dup1\n      dup4\n      gt\n      tag_44\n      jumpi\n      dup3\n      swap1\n      sub\n      0x1f\n      and\n      dup3\n      add\n      swap2\n    tag_42:\n      pop\n      pop\n      pop\n      pop\n      pop\n      dup2\n      jump\t// out\n        /* \"contracts/SampleFallback.sol\":94:119  uint public lastValueSent */\n    tag_32:\n      sload(0x00)\n      dup2\n      jump\t// out\n        /* \"contracts/SampleFallback.sol\":234:309  function setMyUint(uint _myUint) public {... */\n    tag_38:\n        /* \"contracts/SampleFallback.sol\":294:301  _myUint */\n      dup1\n        /* \"contracts/SampleFallback.sol\":285:291  myUint */\n      0x03\n        /* \"contracts/SampleFallback.sol\":285:301  myUint = _myUint */\n      dup2\n      swap1\n      sstore\n      pop\n        /* \"contracts/SampleFallback.sol\":234:309  function setMyUint(uint _myUint) public {... */\n      pop\n      jump\t// out\n        /* \"#utility.yul\":7:106   */\n    tag_46:\n        /* \"#utility.yul\":59:65   */\n      0x00\n        /* \"#utility.yul\":93:98   */\n      dup2\n        /* \"#utility.yul\":87:99   */\n      mload\n        /* \"#utility.yul\":77:99   */\n      swap1\n      pop\n        /* \"#utility.yul\":7:106   */\n      swap2\n      swap1\n      pop\n      jump\t// out\n        /* \"#utility.yul\":112:292   */\n    tag_47:\n        /* \"#utility.yul\":160:237   */\n      0x4e487b7100000000000000000000000000000000000000000000000000000000\n        /* \"#utility.yul\":157:158   */\n      0x00\n        /* \"#utility.yul\":150:238   */\n      mstore\n        /* \"#utility.yul\":257:261   */\n      0x41\n        /* \"#utility.yul\":254:255   */\n      0x04\n        /* \"#utility.yul\":247:262   */\n      mstore\n        /* \"#utility.yul\":281:285   */\n      0x24\n        /* \"#utility.yul\":278:279   */\n      0x00\n        /* \"#utility.yul\":271:286   */\n      revert\n        /* \"#utility.yul\":298:478   */\n    tag_48:\n        /* \"#utility.yul\":346:423   */\n      0x4e487b7100000000000000000000000000000000000000000000000000000000\n        /* \"#utility.yul\":343:344   */\n      0x00\n        /* \"#utility.yul\":336:424   */\n      mstore\n        /* \"#utility.yul\":443:447   */\n      0x22\n        /* \"#utility.yul\":440:441   */\n      0x04\n        /* \"#utility.yul\":433:448   */\n      mstore\n        /* \"#utility.yul\":467:471   */\n      0x24\n        /* \"#utility.yul\":464:465   */\n      0x00\n        /* \"#utility.yul\":457:472   */\n      revert\n        /* \"#utility.yul\":484:804   */\n    tag_40:\n        /* \"#utility.yul\":528:534   */\n      0x00\n        /* \"#utility.yul\":565:566   */\n      0x02\n        /* \"#utility.yul\":559:563   */\n      dup3\n        /* \"#utility.yul\":555:567   */\n      div\n        /* \"#utility.yul\":545:567   */\n      swap1\n      pop\n        /* \"#utility.yul\":612:613   */\n      0x01\n        /* \"#utility.yul\":606:610   */\n      dup3\n        /* \"#utility.yul\":602:614   */\n      and\n        /* \"#utility.yul\":633:651   */\n      dup1\n        /* \"#utility.yul\":623:704   */\n      tag_83\n      jumpi\n        /* \"#utility.yul\":689:693   */\n      0x7f\n        /* \"#utility.yul\":681:687   */\n      dup3\n        /* \"#utility.yul\":677:694   */\n      and\n        /* \"#utility.yul\":667:694   */\n      swap2\n      pop\n        /* \"#utility.yul\":623:704   */\n    tag_83:\n        /* \"#utility.yul\":751:753   */\n      0x20\n        /* \"#utility.yul\":743:749   */\n      dup3\n        /* \"#utility.yul\":740:754   */\n      lt\n        /* \"#utility.yul\":720:738   */\n      dup2\n        /* \"#utility.yul\":717:755   */\n      sub\n        /* \"#utility.yul\":714:798   */\n      tag_84\n      jumpi\n        /* \"#utility.yul\":770:788   */\n      tag_85\n      tag_48\n      jump\t// in\n    tag_85:\n        /* \"#utility.yul\":714:798   */\n    tag_84:\n        /* \"#utility.yul\":535:804   */\n      pop\n        /* \"#utility.yul\":484:804   */\n      swap2\n      swap1\n      pop\n      jump\t// out\n        /* \"#utility.yul\":810:951   */\n    tag_49:\n        /* \"#utility.yul\":859:863   */\n      0x00\n        /* \"#utility.yul\":882:885   */\n      dup2\n        /* \"#utility.yul\":874:885   */\n      swap1\n      pop\n        /* \"#utility.yul\":905:908   */\n      dup2\n        /* \"#utility.yul\":902:903   */\n      0x00\n        /* \"#utility.yul\":895:909   */\n      mstore\n        /* \"#utility.yul\":939:943   */\n      0x20\n        /* \"#utility.yul\":936:937   */\n      0x00\n        /* \"#utility.yul\":926:944   */\n      keccak256\n        /* \"#utility.yul\":918:944   */\n      swap1\n      pop\n        /* \"#utility.yul\":810:951   */\n      swap2\n      swap1\n      pop\n      jump\t// out\n        /* \"#utility.yul\":957:1050   */\n    tag_50:\n        /* \"#utility.yul\":994:1000   */\n      0x00\n        /* \"#utility.yul\":1041:1043   */\n      0x20\n        /* \"#utility.yul\":1036:1038   */\n      0x1f\n        /* \"#utility.yul\":1029:1034   */\n      dup4\n        /* \"#utility.yul\":1025:1039   */\n      add\n        /* \"#utility.yul\":1021:1044   */\n      div\n        /* \"#utility.yul\":1011:1044   */\n      swap1\n      pop\n        /* \"#utility.yul\":957:1050   */\n      swap2\n      swap1\n      pop\n      jump\t// out\n        /* \"#utility.yul\":1056:1163   */\n    tag_51:\n        /* \"#utility.yul\":1100:1108   */\n      0x00\n        /* \"#utility.yul\":1150:1155   */\n      dup3\n        /* \"#utility.yul\":1144:1148   */\n      dup3\n        /* \"#utility.yul\":1140:1156   */\n      shl\n        /* \"#utility.yul\":1119:1156   */\n      swap1\n      pop\n        /* \"#utility.yul\":1056:1163   */\n      swap3\n      swap2\n      pop\n      pop\n      jump\t// out\n        /* \"#utility.yul\":1169:1562   */\n    tag_52:\n        /* \"#utility.yul\":1238:1244   */\n      0x00\n        /* \"#utility.yul\":1288:1289   */\n      0x08\n        /* \"#utility.yul\":1276:1286   */\n      dup4\n        /* \"#utility.yul\":1272:1290   */\n      mul\n        /* \"#utility.yul\":1311:1408   */\n      tag_90\n        /* \"#utility.yul\":1341:1407   */\n      0xffffffffffffffffffffffffffffffffffffffffffffffffffffffffffffffff\n        /* \"#utility.yul\":1330:1339   */\n      dup3\n        /* \"#utility.yul\":1311:1408   */\n      tag_51\n      jump\t// in\n    tag_90:\n        /* \"#utility.yul\":1429:1468   */\n      tag_91\n        /* \"#utility.yul\":1459:1467   */\n      dup7\n        /* \"#utility.yul\":1448:1457   */\n      dup4\n        /* \"#utility.yul\":1429:1468   */\n      tag_51\n      jump\t// in\n    tag_91:\n        /* \"#utility.yul\":1417:1468   */\n      swap6\n      pop\n        /* \"#utility.yul\":1501:1505   */\n      dup1\n        /* \"#utility.yul\":1497:1506   */\n      not\n        /* \"#utility.yul\":1490:1495   */\n      dup5\n        /* \"#utility.yul\":1486:1507   */\n      and\n        /* \"#utility.yul\":1477:1507   */\n      swap4\n      pop\n        /* \"#utility.yul\":1550:1554   */\n      dup1\n        /* \"#utility.yul\":1540:1548   */\n      dup7\n        /* \"#utility.yul\":1536:1555   */\n      and\n        /* \"#utility.yul\":1529:1534   */\n      dup5\n        /* \"#utility.yul\":1526:1556   */\n      or\n        /* \"#utility.yul\":1516:1556   */\n      swap3\n      pop\n        /* \"#utility.yul\":1245:1562   */\n      pop\n      pop\n        /* \"#utility.yul\":1169:1562   */\n      swap4\n      swap3\n      pop\n      pop\n      pop\n      jump\t// out\n        /* \"#utility.yul\":1568:1645   */\n    tag_53:\n        /* \"#utility.yul\":1605:1612   */\n      0x00\n        /* \"#utility.yul\":1634:1639   */\n      dup2\n        /* \"#utility.yul\":1623:1639   */\n      swap1\n      pop\n        /* \"#utility.yul\":1568:1645   */\n      swap2\n      swap1\n      pop\n      jump\t// out\n        /* \"#utility.yul\":1651:1711   */\n    tag_54:\n        /* \"#utility.yul\":1679:1682   */\n      0x00\n        /* \"#utility.yul\":1700:1705   */\n      dup2\n        /* \"#utility.yul\":1693:1705   */\n      swap1\n      pop\n        /* \"#utility.yul\":1651:1711   */\n      swap2\n      swap1\n      pop\n      jump\t// out\n        /* \"#utility.yul\":1717:1859   */\n    tag_55:\n        /* \"#utility.yul\":1767:1776   */\n      0x00\n        /* \"#utility.yul\":1800:1853   */\n      tag_95\n        /* \"#utility.yul\":1818:1852   */\n      tag_96\n        /* \"#utility.yul\":1827:1851   */\n      tag_97\n        /* \"#utility.yul\":1845:1850   */\n      dup5\n        /* \"#utility.yul\":1827:1851   */\n      tag_53\n      jump\t// in\n    tag_97:\n        /* \"#utility.yul\":1818:1852   */\n      tag_54\n      jump\t// in\n    tag_96:\n        /* \"#utility.yul\":1800:1853   */\n      tag_53\n      jump\t// in\n    tag_95:\n        /* \"#utility.yul\":1787:1853   */\n      swap1\n      pop\n        /* \"#utility.yul\":1717:1859   */\n      swap2\n      swap1\n      pop\n      jump\t// out\n        /* \"#utility.yul\":1865:1940   */\n    tag_56:\n        /* \"#utility.yul\":1908:1911   */\n      0x00\n        /* \"#utility.yul\":1929:1934   */\n      dup2\n        /* \"#utility.yul\":1922:1934   */\n      swap1\n      pop\n        /* \"#utility.yul\":1865:1940   */\n      swap2\n      swap1\n      pop\n      jump\t// out\n        /* \"#utility.yul\":1946:2215   */\n    tag_57:\n        /* \"#utility.yul\":2056:2095   */\n      tag_100\n        /* \"#utility.yul\":2087:2094   */\n      dup4\n        /* \"#utility.yul\":2056:2095   */\n      tag_55\n      jump\t// in\n    tag_100:\n        /* \"#utility.yul\":2117:2208   */\n      tag_101\n        /* \"#utility.yul\":2166:2207   */\n      tag_102\n        /* \"#utility.yul\":2190:2206   */\n      dup3\n        /* \"#utility.yul\":2166:2207   */\n      tag_56\n      jump\t// in\n    tag_102:\n        /* \"#utility.yul\":2158:2164   */\n      dup5\n        /* \"#utility.yul\":2151:2155   */\n      dup5\n        /* \"#utility.yul\":2145:2156   */\n      sload\n        /* \"#utility.yul\":2117:2208   */\n      tag_52\n      jump\t// in\n    tag_101:\n        /* \"#utility.yul\":2111:2115   */\n      dup3\n        /* \"#utility.yul\":2104:2209   */\n      sstore\n        /* \"#utility.yul\":2022:2215   */\n      pop\n        /* \"#utility.yul\":1946:2215   */\n      pop\n      pop\n      pop\n      jump\t// out\n        /* \"#utility.yul\":2221:2294   */\n    tag_58:\n        /* \"#utility.yul\":2266:2269   */\n      0x00\n        /* \"#utility.yul\":2221:2294   */\n      swap1\n      jump\t// out\n        /* \"#utility.yul\":2300:2489   */\n    tag_59:\n        /* \"#utility.yul\":2377:2409   */\n      tag_105\n      tag_58\n      jump\t// in\n    tag_105:\n        /* \"#utility.yul\":2418:2483   */\n      tag_106\n        /* \"#utility.yul\":2476:2482   */\n      dup2\n        /* \"#utility.yul\":2468:2474   */\n      dup5\n        /* \"#utility.yul\":2462:2466   */\n      dup5\n        /* \"#utility.yul\":2418:2483   */\n      tag_57\n      jump\t// in\n    tag_106:\n        /* \"#utility.yul\":2353:2489   */\n      pop\n        /* \"#utility.yul\":2300:2489   */\n      pop\n      pop\n      jump\t// out\n        /* \"#utility.yul\":2495:2681   */\n    tag_60:\n        /* \"#utility.yul\":2555:2675   */\n    tag_108:\n        /* \"#utility.yul\":2572:2575   */\n      dup2\n        /* \"#utility.yul\":2565:2570   */\n      dup2\n        /* \"#utility.yul\":2562:2576   */\n      lt\n        /* \"#utility.yul\":2555:2675   */\n      iszero\n      tag_110\n      jumpi\n        /* \"#utility.yul\":2626:2665   */\n      tag_111\n        /* \"#utility.yul\":2663:2664   */\n      0x00\n        /* \"#utility.yul\":2656:2661   */\n      dup3\n        /* \"#utility.yul\":2626:2665   */\n      tag_59\n      jump\t// in\n    tag_111:\n        /* \"#utility.yul\":2599:2600   */\n      0x01\n        /* \"#utility.yul\":2592:2597   */\n      dup2\n        /* \"#utility.yul\":2588:2601   */\n      add\n        /* \"#utility.yul\":2579:2601   */\n      swap1\n      pop\n        /* \"#utility.yul\":2555:2675   */\n      jump(tag_108)\n    tag_110:\n        /* \"#utility.yul\":2495:2681   */\n      pop\n      pop\n      jump\t// out\n        /* \"#utility.yul\":2687:3230   */\n    tag_61:\n        /* \"#utility.yul\":2788:2790   */\n      0x1f\n        /* \"#utility.yul\":2783:2786   */\n      dup3\n        /* \"#utility.yul\":2780:2791   */\n      gt\n        /* \"#utility.yul\":2777:3223   */\n      iszero\n      tag_113\n      jumpi\n        /* \"#utility.yul\":2822:2860   */\n      tag_114\n        /* \"#utility.yul\":2854:2859   */\n      dup2\n        /* \"#utility.yul\":2822:2860   */\n      tag_49\n      jump\t// in\n    tag_114:\n        /* \"#utility.yul\":2906:2935   */\n      tag_115\n        /* \"#utility.yul\":2924:2934   */\n      dup5\n        /* \"#utility.yul\":2906:2935   */\n      tag_50\n      jump\t// in\n    tag_115:\n        /* \"#utility.yul\":2896:2904   */\n      dup2\n        /* \"#utility.yul\":2892:2936   */\n      add\n        /* \"#utility.yul\":3089:3091   */\n      0x20\n        /* \"#utility.yul\":3077:3087   */\n      dup6\n        /* \"#utility.yul\":3074:3092   */\n      lt\n        /* \"#utility.yul\":3071:3120   */\n      iszero\n      tag_116\n      jumpi\n        /* \"#utility.yul\":3110:3118   */\n      dup2\n        /* \"#utility.yul\":3095:3118   */\n      swap1\n      pop\n        /* \"#utility.yul\":3071:3120   */\n    tag_116:\n        /* \"#utility.yul\":3133:3213   */\n      tag_117\n        /* \"#utility.yul\":3189:3211   */\n      tag_118\n        /* \"#utility.yul\":3207:3210   */\n      dup6\n        /* \"#utility.yul\":3189:3211   */\n      tag_50\n      jump\t// in\n    tag_118:\n        /* \"#utility.yul\":3179:3187   */\n      dup4\n        /* \"#utility.yul\":3175:3212   */\n      add\n        /* \"#utility.yul\":3162:3173   */\n      dup3\n        /* \"#utility.yul\":3133:3213   */\n      tag_60\n      jump\t// in\n    tag_117:\n        /* \"#utility.yul\":2792:3223   */\n      pop\n      pop\n        /* \"#utility.yul\":2777:3223   */\n    tag_113:\n        /* \"#utility.yul\":2687:3230   */\n      pop\n      pop\n      pop\n      jump\t// out\n        /* \"#utility.yul\":3236:3353   */\n    tag_62:\n        /* \"#utility.yul\":3290:3298   */\n      0x00\n        /* \"#utility.yul\":3340:3345   */\n      dup3\n        /* \"#utility.yul\":3334:3338   */\n      dup3\n        /* \"#utility.yul\":3330:3346   */\n      shr\n        /* \"#utility.yul\":3309:3346   */\n      swap1\n      pop\n        /* \"#utility.yul\":3236:3353   */\n      swap3\n      swap2\n      pop\n      pop\n      jump\t// out\n        /* \"#utility.yul\":3359:3528   */\n    tag_63:\n        /* \"#utility.yul\":3403:3409   */\n      0x00\n        /* \"#utility.yul\":3436:3487   */\n      tag_121\n        /* \"#utility.yul\":3484:3485   */\n      0x00\n        /* \"#utility.yul\":3480:3486   */\n      not\n        /* \"#utility.yul\":3472:3477   */\n      dup5\n        /* \"#utility.yul\":3469:3470   */\n      0x08\n        /* \"#utility.yul\":3465:3478   */\n      mul\n        /* \"#utility.yul\":3436:3487   */\n      tag_62\n      jump\t// in\n    tag_121:\n        /* \"#utility.yul\":3432:3488   */\n      not\n        /* \"#utility.yul\":3517:3521   */\n      dup1\n        /* \"#utility.yul\":3511:3515   */\n      dup4\n        /* \"#utility.yul\":3507:3522   */\n      and\n        /* \"#utility.yul\":3497:3522   */\n      swap2\n      pop\n        /* \"#utility.yul\":3410:3528   */\n      pop\n        /* \"#utility.yul\":3359:3528   */\n      swap3\n      swap2\n      pop\n      pop\n      jump\t// out\n        /* \"#utility.yul\":3533:3828   */\n    tag_64:\n        /* \"#utility.yul\":3609:3613   */\n      0x00\n        /* \"#utility.yul\":3755:3784   */\n      tag_123\n        /* \"#utility.yul\":3780:3783   */\n      dup4\n        /* \"#utility.yul\":3774:3778   */\n      dup4\n        /* \"#utility.yul\":3755:3784   */\n      tag_63\n      jump\t// in\n    tag_123:\n        /* \"#utility.yul\":3747:3784   */\n      swap2\n      pop\n        /* \"#utility.yul\":3817:3820   */\n      dup3\n        /* \"#utility.yul\":3814:3815   */\n      0x02\n        /* \"#utility.yul\":3810:3821   */\n      mul\n        /* \"#utility.yul\":3804:3808   */\n      dup3\n        /* \"#utility.yul\":3801:3822   */\n      or\n        /* \"#utility.yul\":3793:3822   */\n      swap1\n      pop\n        /* \"#utility.yul\":3533:3828   */\n      swap3\n      swap2\n      pop\n      pop\n      jump\t// out\n        /* \"#utility.yul\":3833:5228   */\n    tag_11:\n        /* \"#utility.yul\":3950:3987   */\n      tag_125\n        /* \"#utility.yul\":3983:3986   */\n      dup3\n        /* \"#utility.yul\":3950:3987   */\n      tag_46\n      jump\t// in\n    tag_125:\n        /* \"#utility.yul\":4052:4070   */\n      0xffffffffffffffff\n        /* \"#utility.yul\":4044:4050   */\n      dup2\n        /* \"#utility.yul\":4041:4071   */\n      gt\n        /* \"#utility.yul\":4038:4094   */\n      iszero\n      tag_126\n      jumpi\n        /* \"#utility.yul\":4074:4092   */\n      tag_127\n      tag_47\n      jump\t// in\n    tag_127:\n        /* \"#utility.yul\":4038:4094   */\n    tag_126:\n        /* \"#utility.yul\":4118:4156   */\n      tag_128\n        /* \"#utility.yul\":4150:4154   */\n      dup3\n        /* \"#utility.yul\":4144:4155   */\n      sload\n        /* \"#utility.yul\":4118:4156   */\n      tag_40\n      jump\t// in\n    tag_128:\n        /* \"#utility.yul\":4203:4270   */\n      tag_129\n        /* \"#utility.yul\":4263:4269   */\n      dup3\n        /* \"#utility.yul\":4255:4261   */\n      dup3\n        /* \"#utility.yul\":4249:4253   */\n      dup6\n        /* \"#utility.yul\":4203:4270   */\n      tag_61\n      jump\t// in\n    tag_129:\n        /* \"#utility.yul\":4297:4298   */\n      0x00\n        /* \"#utility.yul\":4321:4325   */\n      0x20\n        /* \"#utility.yul\":4308:4325   */\n      swap1\n      pop\n        /* \"#utility.yul\":4353:4355   */\n      0x1f\n        /* \"#utility.yul\":4345:4351   */\n      dup4\n        /* \"#utility.yul\":4342:4356   */\n      gt\n        /* \"#utility.yul\":4370:4371   */\n      0x01\n        /* \"#utility.yul\":4365:4983   */\n      dup2\n      eq\n      tag_131\n      jumpi\n        /* \"#utility.yul\":5027:5028   */\n      0x00\n        /* \"#utility.yul\":5044:5050   */\n      dup5\n        /* \"#utility.yul\":5041:5118   */\n      iszero\n      tag_132\n      jumpi\n        /* \"#utility.yul\":5093:5102   */\n      dup3\n        /* \"#utility.yul\":5088:5091   */\n      dup8\n        /* \"#utility.yul\":5084:5103   */\n      add\n        /* \"#utility.yul\":5078:5104   */\n      mload\n        /* \"#utility.yul\":5069:5104   */\n      swap1\n      pop\n        /* \"#utility.yul\":5041:5118   */\n    tag_132:\n        /* \"#utility.yul\":5144:5211   */\n      tag_133\n        /* \"#utility.yul\":5204:5210   */\n      dup6\n        /* \"#utility.yul\":5197:5202   */\n      dup3\n        /* \"#utility.yul\":5144:5211   */\n      tag_64\n      jump\t// in\n    tag_133:\n        /* \"#utility.yul\":5138:5142   */\n      dup7\n        /* \"#utility.yul\":5131:5212   */\n      sstore\n        /* \"#utility.yul\":5000:5222   */\n      pop\n        /* \"#utility.yul\":4335:5222   */\n      jump(tag_130)\n        /* \"#utility.yul\":4365:4983   */\n    tag_131:\n        /* \"#utility.yul\":4417:4421   */\n      0x1f\n        /* \"#utility.yul\":4413:4422   */\n      not\n        /* \"#utility.yul\":4405:4411   */\n      dup5\n        /* \"#utility.yul\":4401:4423   */\n      and\n        /* \"#utility.yul\":4451:4488   */\n      tag_134\n        /* \"#utility.yul\":4483:4487   */\n      dup7\n        /* \"#utility.yul\":4451:4488   */\n      tag_49\n      jump\t// in\n    tag_134:\n        /* \"#utility.yul\":4510:4511   */\n      0x00\n        /* \"#utility.yul\":4524:4732   */\n    tag_135:\n        /* \"#utility.yul\":4538:4545   */\n      dup3\n        /* \"#utility.yul\":4535:4536   */\n      dup2\n        /* \"#utility.yul\":4532:4546   */\n      lt\n        /* \"#utility.yul\":4524:4732   */\n      iszero\n      tag_137\n      jumpi\n        /* \"#utility.yul\":4617:4626   */\n      dup5\n        /* \"#utility.yul\":4612:4615   */\n      dup10\n        /* \"#utility.yul\":4608:4627   */\n      add\n        /* \"#utility.yul\":4602:4628   */\n      mload\n        /* \"#utility.yul\":4594:4600   */\n      dup3\n        /* \"#utility.yul\":4587:4629   */\n      sstore\n        /* \"#utility.yul\":4668:4669   */\n      0x01\n        /* \"#utility.yul\":4660:4666   */\n      dup3\n        /* \"#utility.yul\":4656:4670   */\n      add\n        /* \"#utility.yul\":4646:4670   */\n      swap2\n      pop\n        /* \"#utility.yul\":4715:4717   */\n      0x20\n        /* \"#utility.yul\":4704:4713   */\n      dup6\n        /* \"#utility.yul\":4700:4718   */\n      add\n        /* \"#utility.yul\":4687:4718   */\n      swap5\n      pop\n        /* \"#utility.yul\":4561:4565   */\n      0x20\n        /* \"#utility.yul\":4558:4559   */\n      dup2\n        /* \"#utility.yul\":4554:4566   */\n      add\n        /* \"#utility.yul\":4549:4566   */\n      swap1\n      pop\n        /* \"#utility.yul\":4524:4732   */\n      jump(tag_135)\n    tag_137:\n        /* \"#utility.yul\":4760:4766   */\n      dup7\n        /* \"#utility.yul\":4751:4758   */\n      dup4\n        /* \"#utility.yul\":4748:4767   */\n      lt\n        /* \"#utility.yul\":4745:4924   */\n      iszero\n      tag_138\n      jumpi\n        /* \"#utility.yul\":4818:4827   */\n      dup5\n        /* \"#utility.yul\":4813:4816   */\n      dup10\n        /* \"#utility.yul\":4809:4828   */\n      add\n        /* \"#utility.yul\":4803:4829   */\n      mload\n        /* \"#utility.yul\":4861:4909   */\n      tag_139\n        /* \"#utility.yul\":4903:4907   */\n      0x1f\n        /* \"#utility.yul\":4895:4901   */\n      dup10\n        /* \"#utility.yul\":4891:4908   */\n      and\n        /* \"#utility.yul\":4880:4889   */\n      dup3\n        /* \"#utility.yul\":4861:4909   */\n      tag_63\n      jump\t// in\n    tag_139:\n        /* \"#utility.yul\":4853:4859   */\n      dup4\n        /* \"#utility.yul\":4846:4910   */\n      sstore\n        /* \"#utility.yul\":4768:4924   */\n      pop\n        /* \"#utility.yul\":4745:4924   */\n    tag_138:\n        /* \"#utility.yul\":4970:4971   */\n      0x01\n        /* \"#utility.yul\":4966:4967   */\n      0x02\n        /* \"#utility.yul\":4958:4964   */\n      dup9\n        /* \"#utility.yul\":4954:4968   */\n      mul\n        /* \"#utility.yul\":4950:4972   */\n      add\n        /* \"#utility.yul\":4944:4948   */\n      dup9\n        /* \"#utility.yul\":4937:4973   */\n      sstore\n        /* \"#utility.yul\":4372:4983   */\n      pop\n      pop\n      pop\n        /* \"#utility.yul\":4335:5222   */\n    tag_130:\n      pop\n        /* \"#utility.yul\":3925:5228   */\n      pop\n      pop\n      pop\n        /* \"#utility.yul\":3833:5228   */\n      pop\n      pop\n      jump\t// out\n        /* \"#utility.yul\":5234:5352   */\n    tag_65:\n        /* \"#utility.yul\":5321:5345   */\n      tag_141\n        /* \"#utility.yul\":5339:5344   */\n      dup2\n        /* \"#utility.yul\":5321:5345   */\n      tag_53\n      jump\t// in\n    tag_141:\n        /* \"#utility.yul\":5316:5319   */\n      dup3\n        /* \"#utility.yul\":5309:5346   */\n      mstore\n        /* \"#utility.yul\":5234:5352   */\n      pop\n      pop\n      jump\t// out\n        /* \"#utility.yul\":5358:5580   */\n    tag_19:\n        /* \"#utility.yul\":5451:5455   */\n      0x00\n        /* \"#utility.yul\":5489:5491   */\n      0x20\n        /* \"#utility.yul\":5478:5487   */\n      dup3\n        /* \"#utility.yul\":5474:5492   */\n      add\n        /* \"#utility.yul\":5466:5492   */\n      swap1\n      pop\n        /* \"#utility.yul\":5502:5573   */\n      tag_143\n        /* \"#utility.yul\":5570:5571   */\n      0x00\n        /* \"#utility.yul\":5559:5568   */\n      dup4\n        /* \"#utility.yul\":5555:5572   */\n      add\n        /* \"#utility.yul\":5546:5552   */\n      dup5\n        /* \"#utility.yul\":5502:5573   */\n      tag_65\n      jump\t// in\n    tag_143:\n        /* \"#utility.yul\":5358:5580   */\n      swap3\n      swap2\n      pop\n      pop\n      jump\t// out\n        /* \"#utility.yul\":5586:5712   */\n    tag_66:\n        /* \"#utility.yul\":5623:5630   */\n      0x00\n        /* \"#utility.yul\":5663:5705   */\n      0xffffffffffffffffffffffffffffffffffffffff\n        /* \"#utility.yul\":5656:5661   */\n      dup3\n        /* \"#utility.yul\":5652:5706   */\n      and\n        /* \"#utility.yul\":5641:5706   */\n      swap1\n      pop\n        /* \"#utility.yul\":5586:5712   */\n      swap2\n      swap1\n      pop\n      jump\t// out\n        /* \"#utility.yul\":5718:5814   */\n    tag_67:\n        /* \"#utility.yul\":5755:5762   */\n      0x00\n        /* \"#utility.yul\":5784:5808   */\n      tag_146\n        /* \"#utility.yul\":5802:5807   */\n      dup3\n        /* \"#utility.yul\":5784:5808   */\n      tag_66\n      jump\t// in\n    tag_146:\n        /* \"#utility.yul\":5773:5808   */\n      swap1\n      pop\n        /* \"#utility.yul\":5718:5814   */\n      swap2\n      swap1\n      pop\n      jump\t// out\n        /* \"#utility.yul\":5820:5938   */\n    tag_68:\n        /* \"#utility.yul\":5907:5931   */\n      tag_148\n        /* \"#utility.yul\":5925:5930   */\n      dup2\n        /* \"#utility.yul\":5907:5931   */\n      tag_67\n      jump\t// in\n    tag_148:\n        /* \"#utility.yul\":5902:5905   */\n      dup3\n        /* \"#utility.yul\":5895:5932   */\n      mstore\n        /* \"#utility.yul\":5820:5938   */\n      pop\n      pop\n      jump\t// out\n        /* \"#utility.yul\":5944:6166   */\n    tag_24:\n        /* \"#utility.yul\":6037:6041   */\n      0x00\n        /* \"#utility.yul\":6075:6077   */\n      0x20\n        /* \"#utility.yul\":6064:6073   */\n      dup3\n        /* \"#utility.yul\":6060:6078   */\n      add\n        /* \"#utility.yul\":6052:6078   */\n      swap1\n      pop\n        /* \"#utility.yul\":6088:6159   */\n      tag_150\n        /* \"#utility.yul\":6156:6157   */\n      0x00\n        /* \"#utility.yul\":6145:6154   */\n      dup4\n        /* \"#utility.yul\":6141:6158   */\n      add\n        /* \"#utility.yul\":6132:6138   */\n      dup5\n        /* \"#utility.yul\":6088:6159   */\n      tag_68\n      jump\t// in\n    tag_150:\n        /* \"#utility.yul\":5944:6166   */\n      swap3\n      swap2\n      pop\n      pop\n      jump\t// out\n        /* \"#utility.yul\":6172:6341   */\n    tag_69:\n        /* \"#utility.yul\":6256:6267   */\n      0x00\n        /* \"#utility.yul\":6290:6296   */\n      dup3\n        /* \"#utility.yul\":6285:6288   */\n      dup3\n        /* \"#utility.yul\":6278:6297   */\n      mstore\n        /* \"#utility.yul\":6330:6334   */\n      0x20\n        /* \"#utility.yul\":6325:6328   */\n      dup3\n        /* \"#utility.yul\":6321:6335   */\n      add\n        /* \"#utility.yul\":6306:6335   */\n      swap1\n      pop\n        /* \"#utility.yul\":6172:6341   */\n      swap3\n      swap2\n      pop\n      pop\n      jump\t// out\n        /* \"#utility.yul\":6347:6593   */\n    tag_70:\n        /* \"#utility.yul\":6428:6429   */\n      0x00\n        /* \"#utility.yul\":6438:6551   */\n    tag_153:\n        /* \"#utility.yul\":6452:6458   */\n      dup4\n        /* \"#utility.yul\":6449:6450   */\n      dup2\n        /* \"#utility.yul\":6446:6459   */\n      lt\n        /* \"#utility.yul\":6438:6551   */\n      iszero\n      tag_155\n      jumpi\n        /* \"#utility.yul\":6537:6538   */\n      dup1\n        /* \"#utility.yul\":6532:6535   */\n      dup3\n        /* \"#utility.yul\":6528:6539   */\n      add\n        /* \"#utility.yul\":6522:6540   */\n      mload\n        /* \"#utility.yul\":6518:6519   */\n      dup2\n        /* \"#utility.yul\":6513:6516   */\n      dup5\n        /* \"#utility.yul\":6509:6520   */\n      add\n        /* \"#utility.yul\":6502:6541   */\n      mstore\n        /* \"#utility.yul\":6474:6476   */\n      0x20\n        /* \"#utility.yul\":6471:6472   */\n      dup2\n        /* \"#utility.yul\":6467:6477   */\n      add\n        /* \"#utility.yul\":6462:6477   */\n      swap1\n      pop\n        /* \"#utility.yul\":6438:6551   */\n      jump(tag_153)\n    tag_155:\n        /* \"#utility.yul\":6585:6586   */\n      0x00\n        /* \"#utility.yul\":6576:6582   */\n      dup5\n        /* \"#utility.yul\":6571:6574   */\n      dup5\n        /* \"#utility.yul\":6567:6583   */\n      add\n        /* \"#utility.yul\":6560:6587   */\n      mstore\n        /* \"#utility.yul\":6409:6593   */\n      pop\n        /* \"#utility.yul\":6347:6593   */\n      pop\n      pop\n      pop\n      jump\t// out\n        /* \"#utility.yul\":6599:6701   */\n    tag_71:\n        /* \"#utility.yul\":6640:6646   */\n      0x00\n        /* \"#utility.yul\":6691:6693   */\n      0x1f\n        /* \"#utility.yul\":6687:6694   */\n      not\n        /* \"#utility.yul\":6682:6684   */\n      0x1f\n        /* \"#utility.yul\":6675:6680   */\n      dup4\n        /* \"#utility.yul\":6671:6685   */\n      add\n        /* \"#utility.yul\":6667:6695   */\n      and\n        /* \"#utility.yul\":6657:6695   */\n      swap1\n      pop\n        /* \"#utility.yul\":6599:6701   */\n      swap2\n      swap1\n      pop\n      jump\t// out\n        /* \"#utility.yul\":6707:7084   */\n    tag_72:\n        /* \"#utility.yul\":6795:6798   */\n      0x00\n        /* \"#utility.yul\":6823:6862   */\n      tag_158\n        /* \"#utility.yul\":6856:6861   */\n      dup3\n        /* \"#utility.yul\":6823:6862   */\n      tag_46\n      jump\t// in\n    tag_158:\n        /* \"#utility.yul\":6878:6949   */\n      tag_159\n        /* \"#utility.yul\":6942:6948   */\n      dup2\n        /* \"#utility.yul\":6937:6940   */\n      dup6\n        /* \"#utility.yul\":6878:6949   */\n      tag_69\n      jump\t// in\n    tag_159:\n        /* \"#utility.yul\":6871:6949   */\n      swap4\n      pop\n        /* \"#utility.yul\":6958:7023   */\n      tag_160\n        /* \"#utility.yul\":7016:7022   */\n      dup2\n        /* \"#utility.yul\":7011:7014   */\n      dup6\n        /* \"#utility.yul\":7004:7008   */\n      0x20\n        /* \"#utility.yul\":6997:7002   */\n      dup7\n        /* \"#utility.yul\":6993:7009   */\n      add\n        /* \"#utility.yul\":6958:7023   */\n      tag_70\n      jump\t// in\n    tag_160:\n        /* \"#utility.yul\":7048:7077   */\n      tag_161\n        /* \"#utility.yul\":7070:7076   */\n      dup2\n        /* \"#utility.yul\":7048:7077   */\n      tag_71\n      jump\t// in\n    tag_161:\n        /* \"#utility.yul\":7043:7046   */\n      dup5\n        /* \"#utility.yul\":7039:7078   */\n      add\n        /* \"#utility.yul\":7032:7078   */\n      swap2\n      pop\n        /* \"#utility.yul\":6799:7084   */\n      pop\n        /* \"#utility.yul\":6707:7084   */\n      swap3\n      swap2\n      pop\n      pop\n      jump\t// out\n        /* \"#utility.yul\":7090:7403   */\n    tag_29:\n        /* \"#utility.yul\":7203:7207   */\n      0x00\n        /* \"#utility.yul\":7241:7243   */\n      0x20\n        /* \"#utility.yul\":7230:7239   */\n      dup3\n        /* \"#utility.yul\":7226:7244   */\n      add\n        /* \"#utility.yul\":7218:7244   */\n      swap1\n      pop\n        /* \"#utility.yul\":7290:7299   */\n      dup2\n        /* \"#utility.yul\":7284:7288   */\n      dup2\n        /* \"#utility.yul\":7280:7300   */\n      sub\n        /* \"#utility.yul\":7276:7277   */\n      0x00\n        /* \"#utility.yul\":7265:7274   */\n      dup4\n        /* \"#utility.yul\":7261:7278   */\n      add\n        /* \"#utility.yul\":7254:7301   */\n      mstore\n        /* \"#utility.yul\":7318:7396   */\n      tag_163\n        /* \"#utility.yul\":7391:7395   */\n      dup2\n        /* \"#utility.yul\":7382:7388   */\n      dup5\n        /* \"#utility.yul\":7318:7396   */\n      tag_72\n      jump\t// in\n    tag_163:\n        /* \"#utility.yul\":7310:7396   */\n      swap1\n      pop\n        /* \"#utility.yul\":7090:7403   */\n      swap3\n      swap2\n      pop\n      pop\n      jump\t// out\n        /* \"#utility.yul\":7490:7607   */\n    tag_74:\n        /* \"#utility.yul\":7599:7600   */\n      0x00\n        /* \"#utility.yul\":7596:7597   */\n      dup1\n        /* \"#utility.yul\":7589:7601   */\n      revert\n        /* \"#utility.yul\":7736:7858   */\n    tag_76:\n        /* \"#utility.yul\":7809:7833   */\n      tag_168\n        /* \"#utility.yul\":7827:7832   */\n      dup2\n        /* \"#utility.yul\":7809:7833   */\n      tag_53\n      jump\t// in\n    tag_168:\n        /* \"#utility.yul\":7802:7807   */\n      dup2\n        /* \"#utility.yul\":7799:7834   */\n      eq\n        /* \"#utility.yul\":7789:7852   */\n      tag_169\n      jumpi\n        /* \"#utility.yul\":7848:7849   */\n      0x00\n        /* \"#utility.yul\":7845:7846   */\n      dup1\n        /* \"#utility.yul\":7838:7850   */\n      revert\n        /* \"#utility.yul\":7789:7852   */\n    tag_169:\n        /* \"#utility.yul\":7736:7858   */\n      pop\n      jump\t// out\n        /* \"#utility.yul\":7864:8003   */\n    tag_77:\n        /* \"#utility.yul\":7910:7915   */\n      0x00\n        /* \"#utility.yul\":7948:7954   */\n      dup2\n        /* \"#utility.yul\":7935:7955   */\n      calldataload\n        /* \"#utility.yul\":7926:7955   */\n      swap1\n      pop\n        /* \"#utility.yul\":7964:7997   */\n      tag_171\n        /* \"#utility.yul\":7991:7996   */\n      dup2\n        /* \"#utility.yul\":7964:7997   */\n      tag_76\n      jump\t// in\n    tag_171:\n        /* \"#utility.yul\":7864:8003   */\n      swap3\n      swap2\n      pop\n      pop\n      jump\t// out\n        /* \"#utility.yul\":8009:8338   */\n    tag_37:\n        /* \"#utility.yul\":8068:8074   */\n      0x00\n        /* \"#utility.yul\":8117:8119   */\n      0x20\n        /* \"#utility.yul\":8105:8114   */\n      dup3\n        /* \"#utility.yul\":8096:8103   */\n      dup5\n        /* \"#utility.yul\":8092:8115   */\n      sub\n        /* \"#utility.yul\":8088:8120   */\n      slt\n        /* \"#utility.yul\":8085:8204   */\n      iszero\n      tag_173\n      jumpi\n        /* \"#utility.yul\":8123:8202   */\n      tag_174\n      tag_74\n      jump\t// in\n    tag_174:\n        /* \"#utility.yul\":8085:8204   */\n    tag_173:\n        /* \"#utility.yul\":8243:8244   */\n      0x00\n        /* \"#utility.yul\":8268:8321   */\n      tag_175\n        /* \"#utility.yul\":8313:8320   */\n      dup5\n        /* \"#utility.yul\":8304:8310   */\n      dup3\n        /* \"#utility.yul\":8293:8302   */\n      dup6\n        /* \"#utility.yul\":8289:8311   */\n      add\n        /* \"#utility.yul\":8268:8321   */\n      tag_77\n      jump\t// in\n    tag_175:\n        /* \"#utility.yul\":8258:8321   */\n      swap2\n      pop\n        /* \"#utility.yul\":8214:8331   */\n      pop\n        /* \"#utility.yul\":8009:8338   */\n      swap3\n      swap2\n      pop\n      pop\n      jump\t// out\n\n    auxdata: 0xa2646970667358221220ad0d4ea3d865e9ca0e6543f77e7bc6172ae670843639d8912c1a377e41bc09eb64736f6c63430008160033\n}\n",
				"bytecode": {
					"linkReferences": {},
					"object": "608060405234801561000f575f80fd5b506107b88061001d5f395ff3fe60806040526004361061004d575f3560e01c806306540f7e1461016a5780633e8f7cad146101945780635f947586146101be578063e36a6655146101e8578063e492fd8414610212576100de565b366100de57345f819055506040518060400160405280600781526020017f72656365697665000000000000000000000000000000000000000000000000008152506001908161009c919061053a565b503360025f6101000a81548173ffffffffffffffffffffffffffffffffffffffff021916908373ffffffffffffffffffffffffffffffffffffffff1602179055005b345f819055506040518060400160405280600881526020017f66616c6c6261636b00000000000000000000000000000000000000000000000081525060019081610128919061053a565b503360025f6101000a81548173ffffffffffffffffffffffffffffffffffffffff021916908373ffffffffffffffffffffffffffffffffffffffff1602179055005b348015610175575f80fd5b5061017e61023a565b60405161018b9190610618565b60405180910390f35b34801561019f575f80fd5b506101a8610240565b6040516101b59190610670565b60405180910390f35b3480156101c9575f80fd5b506101d2610265565b6040516101df9190610709565b60405180910390f35b3480156101f3575f80fd5b506101fc6102f1565b6040516102099190610618565b60405180910390f35b34801561021d575f80fd5b5061023860048036038101906102339190610757565b6102f6565b005b60035481565b60025f9054906101000a900473ffffffffffffffffffffffffffffffffffffffff1681565b6001805461027290610364565b80601f016020809104026020016040519081016040528092919081815260200182805461029e90610364565b80156102e95780601f106102c0576101008083540402835291602001916102e9565b820191905f5260205f20905b8154815290600101906020018083116102cc57829003601f168201915b505050505081565b5f5481565b8060038190555050565b5f81519050919050565b7f4e487b71000000000000000000000000000000000000000000000000000000005f52604160045260245ffd5b7f4e487b71000000000000000000000000000000000000000000000000000000005f52602260045260245ffd5b5f600282049050600182168061037b57607f821691505b60208210810361038e5761038d610337565b5b50919050565b5f819050815f5260205f209050919050565b5f6020601f8301049050919050565b5f82821b905092915050565b5f600883026103f07fffffffffffffffffffffffffffffffffffffffffffffffffffffffffffffffff826103b5565b6103fa86836103b5565b95508019841693508086168417925050509392505050565b5f819050919050565b5f819050919050565b5f61043e61043961043484610412565b61041b565b610412565b9050919050565b5f819050919050565b61045783610424565b61046b61046382610445565b8484546103c1565b825550505050565b5f90565b61047f610473565b61048a81848461044e565b505050565b5b818110156104ad576104a25f82610477565b600181019050610490565b5050565b601f8211156104f2576104c381610394565b6104cc846103a6565b810160208510156104db578190505b6104ef6104e7856103a6565b83018261048f565b50505b505050565b5f82821c905092915050565b5f6105125f19846008026104f7565b1980831691505092915050565b5f61052a8383610503565b9150826002028217905092915050565b61054382610300565b67ffffffffffffffff81111561055c5761055b61030a565b5b6105668254610364565b6105718282856104b1565b5f60209050601f8311600181146105a2575f8415610590578287015190505b61059a858261051f565b865550610601565b601f1984166105b086610394565b5f5b828110156105d7578489015182556001820191506020850194506020810190506105b2565b868310156105f457848901516105f0601f891682610503565b8355505b6001600288020188555050505b505050505050565b61061281610412565b82525050565b5f60208201905061062b5f830184610609565b92915050565b5f73ffffffffffffffffffffffffffffffffffffffff82169050919050565b5f61065a82610631565b9050919050565b61066a81610650565b82525050565b5f6020820190506106835f830184610661565b92915050565b5f82825260208201905092915050565b5f5b838110156106b657808201518184015260208101905061069b565b5f8484015250505050565b5f601f19601f8301169050919050565b5f6106db82610300565b6106e58185610689565b93506106f5818560208601610699565b6106fe816106c1565b840191505092915050565b5f6020820190508181035f83015261072181846106d1565b905092915050565b5f80fd5b61073681610412565b8114610740575f80fd5b50565b5f813590506107518161072d565b92915050565b5f6020828403121561076c5761076b610729565b5b5f61077984828501610743565b9150509291505056fea2646970667358221220ad0d4ea3d865e9ca0e6543f77e7bc6172ae670843639d8912c1a377e41bc09eb64736f6c63430008160033",
					"opcodes": "PUSH1 0x80 PUSH1 0x40 MSTORE CALLVALUE DUP1 ISZERO PUSH2 0xF JUMPI PUSH0 DUP1 REVERT JUMPDEST POP PUSH2 0x7B8 DUP1 PUSH2 0x1D PUSH0 CODECOPY PUSH0 RETURN INVALID PUSH1 0x80 PUSH1 0x40 MSTORE PUSH1 0x4 CALLDATASIZE LT PUSH2 0x4D JUMPI PUSH0 CALLDATALOAD PUSH1 0xE0 SHR DUP1 PUSH4 0x6540F7E EQ PUSH2 0x16A JUMPI DUP1 PUSH4 0x3E8F7CAD EQ PUSH2 0x194 JUMPI DUP1 PUSH4 0x5F947586 EQ PUSH2 0x1BE JUMPI DUP1 PUSH4 0xE36A6655 EQ PUSH2 0x1E8 JUMPI DUP1 PUSH4 0xE492FD84 EQ PUSH2 0x212 JUMPI PUSH2 0xDE JUMP JUMPDEST CALLDATASIZE PUSH2 0xDE JUMPI CALLVALUE PUSH0 DUP2 SWAP1 SSTORE POP PUSH1 0x40 MLOAD DUP1 PUSH1 0x40 ADD PUSH1 0x40 MSTORE DUP1 PUSH1 0x7 DUP2 MSTORE PUSH1 0x20 ADD PUSH32 0x7265636569766500000000000000000000000000000000000000000000000000 DUP2 MSTORE POP PUSH1 0x1 SWAP1 DUP2 PUSH2 0x9C SWAP2 SWAP1 PUSH2 0x53A JUMP JUMPDEST POP CALLER PUSH1 0x2 PUSH0 PUSH2 0x100 EXP DUP2 SLOAD DUP2 PUSH20 0xFFFFFFFFFFFFFFFFFFFFFFFFFFFFFFFFFFFFFFFF MUL NOT AND SWAP1 DUP4 PUSH20 0xFFFFFFFFFFFFFFFFFFFFFFFFFFFFFFFFFFFFFFFF AND MUL OR SWAP1 SSTORE STOP JUMPDEST CALLVALUE PUSH0 DUP2 SWAP1 SSTORE POP PUSH1 0x40 MLOAD DUP1 PUSH1 0x40 ADD PUSH1 0x40 MSTORE DUP1 PUSH1 0x8 DUP2 MSTORE PUSH1 0x20 ADD PUSH32 0x66616C6C6261636B000000000000000000000000000000000000000000000000 DUP2 MSTORE POP PUSH1 0x1 SWAP1 DUP2 PUSH2 0x128 SWAP2 SWAP1 PUSH2 0x53A JUMP JUMPDEST POP CALLER PUSH1 0x2 PUSH0 PUSH2 0x100 EXP DUP2 SLOAD DUP2 PUSH20 0xFFFFFFFFFFFFFFFFFFFFFFFFFFFFFFFFFFFFFFFF MUL NOT AND SWAP1 DUP4 PUSH20 0xFFFFFFFFFFFFFFFFFFFFFFFFFFFFFFFFFFFFFFFF AND MUL OR SWAP1 SSTORE STOP JUMPDEST CALLVALUE DUP1 ISZERO PUSH2 0x175 JUMPI PUSH0 DUP1 REVERT JUMPDEST POP PUSH2 0x17E PUSH2 0x23A JUMP JUMPDEST PUSH1 0x40 MLOAD PUSH2 0x18B SWAP2 SWAP1 PUSH2 0x618 JUMP JUMPDEST PUSH1 0x40 MLOAD DUP1 SWAP2 SUB SWAP1 RETURN JUMPDEST CALLVALUE DUP1 ISZERO PUSH2 0x19F JUMPI PUSH0 DUP1 REVERT JUMPDEST POP PUSH2 0x1A8 PUSH2 0x240 JUMP JUMPDEST PUSH1 0x40 MLOAD PUSH2 0x1B5 SWAP2 SWAP1 PUSH2 0x670 JUMP JUMPDEST PUSH1 0x40 MLOAD DUP1 SWAP2 SUB SWAP1 RETURN JUMPDEST CALLVALUE DUP1 ISZERO PUSH2 0x1C9 JUMPI PUSH0 DUP1 REVERT JUMPDEST POP PUSH2 0x1D2 PUSH2 0x265 JUMP JUMPDEST PUSH1 0x40 MLOAD PUSH2 0x1DF SWAP2 SWAP1 PUSH2 0x709 JUMP JUMPDEST PUSH1 0x40 MLOAD DUP1 SWAP2 SUB SWAP1 RETURN JUMPDEST CALLVALUE DUP1 ISZERO PUSH2 0x1F3 JUMPI PUSH0 DUP1 REVERT JUMPDEST POP PUSH2 0x1FC PUSH2 0x2F1 JUMP JUMPDEST PUSH1 0x40 MLOAD PUSH2 0x209 SWAP2 SWAP1 PUSH2 0x618 JUMP JUMPDEST PUSH1 0x40 MLOAD DUP1 SWAP2 SUB SWAP1 RETURN JUMPDEST CALLVALUE DUP1 ISZERO PUSH2 0x21D JUMPI PUSH0 DUP1 REVERT JUMPDEST POP PUSH2 0x238 PUSH1 0x4 DUP1 CALLDATASIZE SUB DUP2 ADD SWAP1 PUSH2 0x233 SWAP2 SWAP1 PUSH2 0x757 JUMP JUMPDEST PUSH2 0x2F6 JUMP JUMPDEST STOP JUMPDEST PUSH1 0x3 SLOAD DUP2 JUMP JUMPDEST PUSH1 0x2 PUSH0 SWAP1 SLOAD SWAP1 PUSH2 0x100 EXP SWAP1 DIV PUSH20 0xFFFFFFFFFFFFFFFFFFFFFFFFFFFFFFFFFFFFFFFF AND DUP2 JUMP JUMPDEST PUSH1 0x1 DUP1 SLOAD PUSH2 0x272 SWAP1 PUSH2 0x364 JUMP JUMPDEST DUP1 PUSH1 0x1F ADD PUSH1 0x20 DUP1 SWAP2 DIV MUL PUSH1 0x20 ADD PUSH1 0x40 MLOAD SWAP1 DUP2 ADD PUSH1 0x40 MSTORE DUP1 SWAP3 SWAP2 SWAP1 DUP2 DUP2 MSTORE PUSH1 0x20 ADD DUP3 DUP1 SLOAD PUSH2 0x29E SWAP1 PUSH2 0x364 JUMP JUMPDEST DUP1 ISZERO PUSH2 0x2E9 JUMPI DUP1 PUSH1 0x1F LT PUSH2 0x2C0 JUMPI PUSH2 0x100 DUP1 DUP4 SLOAD DIV MUL DUP4 MSTORE SWAP2 PUSH1 0x20 ADD SWAP2 PUSH2 0x2E9 JUMP JUMPDEST DUP3 ADD SWAP2 SWAP1 PUSH0 MSTORE PUSH1 0x20 PUSH0 KECCAK256 SWAP1 JUMPDEST DUP2 SLOAD DUP2 MSTORE SWAP1 PUSH1 0x1 ADD SWAP1 PUSH1 0x20 ADD DUP1 DUP4 GT PUSH2 0x2CC JUMPI DUP3 SWAP1 SUB PUSH1 0x1F AND DUP3 ADD SWAP2 JUMPDEST POP POP POP POP POP DUP2 JUMP JUMPDEST PUSH0 SLOAD DUP2 JUMP JUMPDEST DUP1 PUSH1 0x3 DUP2 SWAP1 SSTORE POP POP JUMP JUMPDEST PUSH0 DUP2 MLOAD SWAP1 POP SWAP2 SWAP1 POP JUMP JUMPDEST PUSH32 0x4E487B7100000000000000000000000000000000000000000000000000000000 PUSH0 MSTORE PUSH1 0x41 PUSH1 0x4 MSTORE PUSH1 0x24 PUSH0 REVERT JUMPDEST PUSH32 0x4E487B7100000000000000000000000000000000000000000000000000000000 PUSH0 MSTORE PUSH1 0x22 PUSH1 0x4 MSTORE PUSH1 0x24 PUSH0 REVERT JUMPDEST PUSH0 PUSH1 0x2 DUP3 DIV SWAP1 POP PUSH1 0x1 DUP3 AND DUP1 PUSH2 0x37B JUMPI PUSH1 0x7F DUP3 AND SWAP2 POP JUMPDEST PUSH1 0x20 DUP3 LT DUP2 SUB PUSH2 0x38E JUMPI PUSH2 0x38D PUSH2 0x337 JUMP JUMPDEST JUMPDEST POP SWAP2 SWAP1 POP JUMP JUMPDEST PUSH0 DUP2 SWAP1 POP DUP2 PUSH0 MSTORE PUSH1 0x20 PUSH0 KECCAK256 SWAP1 POP SWAP2 SWAP1 POP JUMP JUMPDEST PUSH0 PUSH1 0x20 PUSH1 0x1F DUP4 ADD DIV SWAP1 POP SWAP2 SWAP1 POP JUMP JUMPDEST PUSH0 DUP3 DUP3 SHL SWAP1 POP SWAP3 SWAP2 POP POP JUMP JUMPDEST PUSH0 PUSH1 0x8 DUP4 MUL PUSH2 0x3F0 PUSH32 0xFFFFFFFFFFFFFFFFFFFFFFFFFFFFFFFFFFFFFFFFFFFFFFFFFFFFFFFFFFFFFFFF DUP3 PUSH2 0x3B5 JUMP JUMPDEST PUSH2 0x3FA DUP7 DUP4 PUSH2 0x3B5 JUMP JUMPDEST SWAP6 POP DUP1 NOT DUP5 AND SWAP4 POP DUP1 DUP7 AND DUP5 OR SWAP3 POP POP POP SWAP4 SWAP3 POP POP POP JUMP JUMPDEST PUSH0 DUP2 SWAP1 POP SWAP2 SWAP1 POP JUMP JUMPDEST PUSH0 DUP2 SWAP1 POP SWAP2 SWAP1 POP JUMP JUMPDEST PUSH0 PUSH2 0x43E PUSH2 0x439 PUSH2 0x434 DUP5 PUSH2 0x412 JUMP JUMPDEST PUSH2 0x41B JUMP JUMPDEST PUSH2 0x412 JUMP JUMPDEST SWAP1 POP SWAP2 SWAP1 POP JUMP JUMPDEST PUSH0 DUP2 SWAP1 POP SWAP2 SWAP1 POP JUMP JUMPDEST PUSH2 0x457 DUP4 PUSH2 0x424 JUMP JUMPDEST PUSH2 0x46B PUSH2 0x463 DUP3 PUSH2 0x445 JUMP JUMPDEST DUP5 DUP5 SLOAD PUSH2 0x3C1 JUMP JUMPDEST DUP3 SSTORE POP POP POP POP JUMP JUMPDEST PUSH0 SWAP1 JUMP JUMPDEST PUSH2 0x47F PUSH2 0x473 JUMP JUMPDEST PUSH2 0x48A DUP2 DUP5 DUP5 PUSH2 0x44E JUMP JUMPDEST POP POP POP JUMP JUMPDEST JUMPDEST DUP2 DUP2 LT ISZERO PUSH2 0x4AD JUMPI PUSH2 0x4A2 PUSH0 DUP3 PUSH2 0x477 JUMP JUMPDEST PUSH1 0x1 DUP2 ADD SWAP1 POP PUSH2 0x490 JUMP JUMPDEST POP POP JUMP JUMPDEST PUSH1 0x1F DUP3 GT ISZERO PUSH2 0x4F2 JUMPI PUSH2 0x4C3 DUP2 PUSH2 0x394 JUMP JUMPDEST PUSH2 0x4CC DUP5 PUSH2 0x3A6 JUMP JUMPDEST DUP2 ADD PUSH1 0x20 DUP6 LT ISZERO PUSH2 0x4DB JUMPI DUP2 SWAP1 POP JUMPDEST PUSH2 0x4EF PUSH2 0x4E7 DUP6 PUSH2 0x3A6 JUMP JUMPDEST DUP4 ADD DUP3 PUSH2 0x48F JUMP JUMPDEST POP POP JUMPDEST POP POP POP JUMP JUMPDEST PUSH0 DUP3 DUP3 SHR SWAP1 POP SWAP3 SWAP2 POP POP JUMP JUMPDEST PUSH0 PUSH2 0x512 PUSH0 NOT DUP5 PUSH1 0x8 MUL PUSH2 0x4F7 JUMP JUMPDEST NOT DUP1 DUP4 AND SWAP2 POP POP SWAP3 SWAP2 POP POP JUMP JUMPDEST PUSH0 PUSH2 0x52A DUP4 DUP4 PUSH2 0x503 JUMP JUMPDEST SWAP2 POP DUP3 PUSH1 0x2 MUL DUP3 OR SWAP1 POP SWAP3 SWAP2 POP POP JUMP JUMPDEST PUSH2 0x543 DUP3 PUSH2 0x300 JUMP JUMPDEST PUSH8 0xFFFFFFFFFFFFFFFF DUP2 GT ISZERO PUSH2 0x55C JUMPI PUSH2 0x55B PUSH2 0x30A JUMP JUMPDEST JUMPDEST PUSH2 0x566 DUP3 SLOAD PUSH2 0x364 JUMP JUMPDEST PUSH2 0x571 DUP3 DUP3 DUP6 PUSH2 0x4B1 JUMP JUMPDEST PUSH0 PUSH1 0x20 SWAP1 POP PUSH1 0x1F DUP4 GT PUSH1 0x1 DUP2 EQ PUSH2 0x5A2 JUMPI PUSH0 DUP5 ISZERO PUSH2 0x590 JUMPI DUP3 DUP8 ADD MLOAD SWAP1 POP JUMPDEST PUSH2 0x59A DUP6 DUP3 PUSH2 0x51F JUMP JUMPDEST DUP7 SSTORE POP PUSH2 0x601 JUMP JUMPDEST PUSH1 0x1F NOT DUP5 AND PUSH2 0x5B0 DUP7 PUSH2 0x394 JUMP JUMPDEST PUSH0 JUMPDEST DUP3 DUP2 LT ISZERO PUSH2 0x5D7 JUMPI DUP5 DUP10 ADD MLOAD DUP3 SSTORE PUSH1 0x1 DUP3 ADD SWAP2 POP PUSH1 0x20 DUP6 ADD SWAP5 POP PUSH1 0x20 DUP2 ADD SWAP1 POP PUSH2 0x5B2 JUMP JUMPDEST DUP7 DUP4 LT ISZERO PUSH2 0x5F4 JUMPI DUP5 DUP10 ADD MLOAD PUSH2 0x5F0 PUSH1 0x1F DUP10 AND DUP3 PUSH2 0x503 JUMP JUMPDEST DUP4 SSTORE POP JUMPDEST PUSH1 0x1 PUSH1 0x2 DUP9 MUL ADD DUP9 SSTORE POP POP POP JUMPDEST POP POP POP POP POP POP JUMP JUMPDEST PUSH2 0x612 DUP2 PUSH2 0x412 JUMP JUMPDEST DUP3 MSTORE POP POP JUMP JUMPDEST PUSH0 PUSH1 0x20 DUP3 ADD SWAP1 POP PUSH2 0x62B PUSH0 DUP4 ADD DUP5 PUSH2 0x609 JUMP JUMPDEST SWAP3 SWAP2 POP POP JUMP JUMPDEST PUSH0 PUSH20 0xFFFFFFFFFFFFFFFFFFFFFFFFFFFFFFFFFFFFFFFF DUP3 AND SWAP1 POP SWAP2 SWAP1 POP JUMP JUMPDEST PUSH0 PUSH2 0x65A DUP3 PUSH2 0x631 JUMP JUMPDEST SWAP1 POP SWAP2 SWAP1 POP JUMP JUMPDEST PUSH2 0x66A DUP2 PUSH2 0x650 JUMP JUMPDEST DUP3 MSTORE POP POP JUMP JUMPDEST PUSH0 PUSH1 0x20 DUP3 ADD SWAP1 POP PUSH2 0x683 PUSH0 DUP4 ADD DUP5 PUSH2 0x661 JUMP JUMPDEST SWAP3 SWAP2 POP POP JUMP JUMPDEST PUSH0 DUP3 DUP3 MSTORE PUSH1 0x20 DUP3 ADD SWAP1 POP SWAP3 SWAP2 POP POP JUMP JUMPDEST PUSH0 JUMPDEST DUP4 DUP2 LT ISZERO PUSH2 0x6B6 JUMPI DUP1 DUP3 ADD MLOAD DUP2 DUP5 ADD MSTORE PUSH1 0x20 DUP2 ADD SWAP1 POP PUSH2 0x69B JUMP JUMPDEST PUSH0 DUP5 DUP5 ADD MSTORE POP POP POP POP JUMP JUMPDEST PUSH0 PUSH1 0x1F NOT PUSH1 0x1F DUP4 ADD AND SWAP1 POP SWAP2 SWAP1 POP JUMP JUMPDEST PUSH0 PUSH2 0x6DB DUP3 PUSH2 0x300 JUMP JUMPDEST PUSH2 0x6E5 DUP2 DUP6 PUSH2 0x689 JUMP JUMPDEST SWAP4 POP PUSH2 0x6F5 DUP2 DUP6 PUSH1 0x20 DUP7 ADD PUSH2 0x699 JUMP JUMPDEST PUSH2 0x6FE DUP2 PUSH2 0x6C1 JUMP JUMPDEST DUP5 ADD SWAP2 POP POP SWAP3 SWAP2 POP POP JUMP JUMPDEST PUSH0 PUSH1 0x20 DUP3 ADD SWAP1 POP DUP2 DUP2 SUB PUSH0 DUP4 ADD MSTORE PUSH2 0x721 DUP2 DUP5 PUSH2 0x6D1 JUMP JUMPDEST SWAP1 POP SWAP3 SWAP2 POP POP JUMP JUMPDEST PUSH0 DUP1 REVERT JUMPDEST PUSH2 0x736 DUP2 PUSH2 0x412 JUMP JUMPDEST DUP2 EQ PUSH2 0x740 JUMPI PUSH0 DUP1 REVERT JUMPDEST POP JUMP JUMPDEST PUSH0 DUP2 CALLDATALOAD SWAP1 POP PUSH2 0x751 DUP2 PUSH2 0x72D JUMP JUMPDEST SWAP3 SWAP2 POP POP JUMP JUMPDEST PUSH0 PUSH1 0x20 DUP3 DUP5 SUB SLT ISZERO PUSH2 0x76C JUMPI PUSH2 0x76B PUSH2 0x729 JUMP JUMPDEST JUMPDEST PUSH0 PUSH2 0x779 DUP5 DUP3 DUP6 ADD PUSH2 0x743 JUMP JUMPDEST SWAP2 POP POP SWAP3 SWAP2 POP POP JUMP INVALID LOG2 PUSH5 0x6970667358 0x22 SLT KECCAK256 0xAD 0xD 0x4E LOG3 0xD8 PUSH6 0xE9CA0E6543F7 PUSH31 0x7BC6172AE670843639D8912C1A377E41BC09EB64736F6C6343000816003300 "
				},
				"gasEstimates": {
					"creation": {
						"codeDepositCost": "395200",
						"executionCost": "428",
						"totalCost": "395628"
					},
					"external": {
						"": "infinite",
						"lastFunctionCalled()": "infinite",
						"lastUserCalled()": "2508",
						"lastValueSent()": "2468",
						"myUint()": "2403",
						"setMyUint(uint256)": "22581"
					}
				},
				"methodIdentifiers": {
					"lastFunctionCalled()": "5f947586",
					"lastUserCalled()": "3e8f7cad",
					"lastValueSent()": "e36a6655",
					"myUint()": "06540f7e",
					"setMyUint(uint256)": "e492fd84"
				}
			},
			"storageLayout": {
				"storage": [
					{
						"astId": 3,
						"contract": "contracts/SampleFallback.sol:SampleFallback",
						"label": "lastValueSent",
						"offset": 0,
						"slot": "0",
						"type": "t_uint256"
					},
					{
						"astId": 5,
						"contract": "contracts/SampleFallback.sol:SampleFallback",
						"label": "lastFunctionCalled",
						"offset": 0,
						"slot": "1",
						"type": "t_string_storage"
					},
					{
						"astId": 7,
						"contract": "contracts/SampleFallback.sol:SampleFallback",
						"label": "lastUserCalled",
						"offset": 0,
						"slot": "2",
						"type": "t_address"
					},
					{
						"astId": 9,
						"contract": "contracts/SampleFallback.sol:SampleFallback",
						"label": "myUint",
						"offset": 0,
						"slot": "3",
						"type": "t_uint256"
					}
				],
				"types": {
					"t_address": {
						"encoding": "inplace",
						"label": "address",
						"numberOfBytes": "20"
					},
					"t_string_storage": {
						"encoding": "bytes",
						"label": "string",
						"numberOfBytes": "32"
					},
					"t_uint256": {
						"encoding": "inplace",
						"label": "uint256",
						"numberOfBytes": "32"
					}
				}
			},
			"userdoc": {
				"kind": "user",
				"methods": {},
				"version": 1
			}
		}
	}
}