{
	"contracts/Wallet.sol": {
		"Wallet": {
			"abi": [
				{
					"inputs": [],
					"stateMutability": "nonpayable",
					"type": "constructor"
				},
				{
					"anonymous": false,
					"inputs": [
						{
							"indexed": true,
							"internalType": "uint256",
							"name": "amount",
							"type": "uint256"
						}
					],
					"name": "EDeposit",
					"type": "event"
				},
				{
					"anonymous": false,
					"inputs": [
						{
							"indexed": true,
							"internalType": "uint256",
							"name": "amount",
							"type": "uint256"
						}
					],
					"name": "EWithdraw",
					"type": "event"
				},
				{
					"anonymous": false,
					"inputs": [
						{
							"indexed": true,
							"internalType": "bool",
							"name": "sure",
							"type": "bool"
						}
					],
					"name": "EWithdrawAll",
					"type": "event"
				},
				{
					"stateMutability": "payable",
					"type": "fallback"
				},
				{
					"inputs": [
						{
							"internalType": "uint256",
							"name": "amount",
							"type": "uint256"
						}
					],
					"name": "Deposit",
					"outputs": [],
					"stateMutability": "payable",
					"type": "function"
				},
				{
					"inputs": [
						{
							"internalType": "bool",
							"name": "sure",
							"type": "bool"
						}
					],
					"name": "WidhtrawAll",
					"outputs": [],
					"stateMutability": "payable",
					"type": "function"
				},
				{
					"inputs": [
						{
							"internalType": "uint256",
							"name": "amount",
							"type": "uint256"
						}
					],
					"name": "Withdraw",
					"outputs": [],
					"stateMutability": "payable",
					"type": "function"
				},
				{
					"inputs": [],
					"name": "owner",
					"outputs": [
						{
							"internalType": "address",
							"name": "",
							"type": "address"
						}
					],
					"stateMutability": "view",
					"type": "function"
				},
				{
					"inputs": [
						{
							"internalType": "address",
							"name": "",
							"type": "address"
						}
					],
					"name": "transactionCount",
					"outputs": [
						{
							"internalType": "uint256",
							"name": "idOfTransaction",
							"type": "uint256"
						}
					],
					"stateMutability": "view",
					"type": "function"
				},
				{
					"inputs": [
						{
							"internalType": "address",
							"name": "",
							"type": "address"
						},
						{
							"internalType": "uint256",
							"name": "idOfTransaction",
							"type": "uint256"
						}
					],
					"name": "transactions",
					"outputs": [
						{
							"internalType": "uint256",
							"name": "depositedAmount",
							"type": "uint256"
						},
						{
							"internalType": "uint256",
							"name": "withdrawedAmount",
							"type": "uint256"
						},
						{
							"internalType": "address",
							"name": "from",
							"type": "address"
						},
						{
							"internalType": "address",
							"name": "to",
							"type": "address"
						}
					],
					"stateMutability": "view",
					"type": "function"
				},
				{
					"stateMutability": "payable",
					"type": "receive"
				}
			],
			"devdoc": {
				"kind": "dev",
				"methods": {},
				"version": 1
			},
			"evm": {
				"assembly": "    /* \"contracts/Wallet.sol\":183:3345  contract Wallet {... */\n  mstore(0x40, 0x80)\n    /* \"contracts/Wallet.sol\":235:286  constructor() {... */\n  callvalue\n  dup1\n  iszero\n  tag_1\n  jumpi\n  0x00\n  dup1\n  revert\ntag_1:\n  pop\n    /* \"contracts/Wallet.sol\":260:265  owner */\n  0x00\n    /* \"contracts/Wallet.sol\":260:278  owner = msg.sender */\n  dup1\n  sload\n  not(sub(shl(0xa0, 0x01), 0x01))\n  and\n    /* \"contracts/Wallet.sol\":268:278  msg.sender */\n  caller\n    /* \"contracts/Wallet.sol\":260:278  owner = msg.sender */\n  or\n  swap1\n  sstore\n    /* \"contracts/Wallet.sol\":183:3345  contract Wallet {... */\n  dataSize(sub_0)\n  dup1\n  dataOffset(sub_0)\n  0x00\n  codecopy\n  0x00\n  return\nstop\n\nsub_0: assembly {\n        /* \"contracts/Wallet.sol\":183:3345  contract Wallet {... */\n      mstore(0x40, 0x80)\n      jumpi(tag_1, lt(calldatasize, 0x04))\n      shr(0xe0, calldataload(0x00))\n      dup1\n      0x14538128\n      eq\n      tag_3\n      jumpi\n      dup1\n      0x4d6ce1e5\n      eq\n      tag_4\n      jumpi\n      dup1\n      0x5b6b431d\n      eq\n      tag_5\n      jumpi\n      dup1\n      0x82dec480\n      eq\n      tag_6\n      jumpi\n      dup1\n      0x8da5cb5b\n      eq\n      tag_7\n      jumpi\n      dup1\n      0x99be3375\n      eq\n      tag_8\n      jumpi\n      stop\n    tag_1:\n      jumpi(tag_2, calldatasize)\n      stop\n    tag_2:\n      stop\n        /* \"contracts/Wallet.sol\":436:521  mapping (address => mapping(uint idOfTransaction => Transaction)) public transactions */\n    tag_3:\n      callvalue\n      dup1\n      iszero\n      tag_13\n      jumpi\n      0x00\n      dup1\n      revert\n    tag_13:\n      pop\n      tag_14\n      tag_15\n      calldatasize\n      0x04\n      tag_16\n      jump\t// in\n    tag_15:\n      0x01\n      0x20\n      dup2\n      dup2\n      mstore\n      0x00\n      swap4\n      dup5\n      mstore\n      0x40\n      dup1\n      dup6\n      keccak256\n      swap1\n      swap2\n      mstore\n      swap2\n      dup4\n      mstore\n      swap2\n      keccak256\n      dup1\n      sload\n      swap2\n      dup2\n      add\n      sload\n      0x02\n      dup3\n      add\n      sload\n      0x03\n      swap1\n      swap3\n      add\n      sload\n      swap1\n      swap2\n      sub(shl(0xa0, 0x01), 0x01)\n      swap1\n      dup2\n      and\n      swap2\n      and\n      dup5\n      jump\n    tag_14:\n      0x40\n      dup1\n      mload\n        /* \"#utility.yul\":682:707   */\n      swap5\n      dup6\n      mstore\n        /* \"#utility.yul\":738:740   */\n      0x20\n        /* \"#utility.yul\":723:741   */\n      dup6\n      add\n        /* \"#utility.yul\":716:750   */\n      swap4\n      swap1\n      swap4\n      mstore\n      sub(shl(0xa0, 0x01), 0x01)\n        /* \"#utility.yul\":824:839   */\n      swap2\n      dup3\n      and\n        /* \"#utility.yul\":804:822   */\n      swap3\n      dup5\n      add\n        /* \"#utility.yul\":797:840   */\n      swap3\n      swap1\n      swap3\n      mstore\n        /* \"#utility.yul\":876:891   */\n      and\n        /* \"#utility.yul\":871:873   */\n      0x60\n        /* \"#utility.yul\":856:874   */\n      dup3\n      add\n        /* \"#utility.yul\":849:892   */\n      mstore\n        /* \"#utility.yul\":669:672   */\n      0x80\n        /* \"#utility.yul\":654:673   */\n      add\n        /* \"contracts/Wallet.sol\":436:521  mapping (address => mapping(uint idOfTransaction => Transaction)) public transactions */\n    tag_18:\n      mload(0x40)\n      dup1\n      swap2\n      sub\n      swap1\n      return\n        /* \"contracts/Wallet.sol\":793:1443  function Deposit(uint amount) public payable Checker(amount) {... */\n    tag_4:\n      tag_2\n      tag_21\n      calldatasize\n      0x04\n      tag_22\n      jump\t// in\n    tag_21:\n      tag_23\n      jump\t// in\n        /* \"contracts/Wallet.sol\":1453:2392  function Withdraw(uint amount) public payable Checker(amount) {... */\n    tag_5:\n      tag_2\n      tag_25\n      calldatasize\n      0x04\n      tag_22\n      jump\t// in\n    tag_25:\n      tag_26\n      jump\t// in\n        /* \"contracts/Wallet.sol\":2400:3267  function WidhtrawAll(bool sure) public payable {... */\n    tag_6:\n      tag_2\n      tag_28\n      calldatasize\n      0x04\n      tag_29\n      jump\t// in\n    tag_28:\n      tag_30\n      jump\t// in\n        /* \"contracts/Wallet.sol\":206:226  address public owner */\n    tag_7:\n      callvalue\n      dup1\n      iszero\n      tag_31\n      jumpi\n      0x00\n      dup1\n      revert\n    tag_31:\n      pop\n      sload(0x00)\n      tag_32\n      swap1\n      sub(shl(0xa0, 0x01), 0x01)\n      and\n      dup2\n      jump\n    tag_32:\n      mload(0x40)\n      sub(shl(0xa0, 0x01), 0x01)\n        /* \"#utility.yul\":1530:1562   */\n      swap1\n      swap2\n      and\n        /* \"#utility.yul\":1512:1563   */\n      dup2\n      mstore\n        /* \"#utility.yul\":1500:1502   */\n      0x20\n        /* \"#utility.yul\":1485:1503   */\n      add\n        /* \"contracts/Wallet.sol\":206:226  address public owner */\n      tag_18\n        /* \"#utility.yul\":1366:1569   */\n      jump\n        /* \"contracts/Wallet.sol\":528:593  mapping (address => uint idOfTransaction) public transactionCount */\n    tag_8:\n      callvalue\n      dup1\n      iszero\n      tag_36\n      jumpi\n      0x00\n      dup1\n      revert\n    tag_36:\n      pop\n      tag_37\n      tag_38\n      calldatasize\n      0x04\n      tag_39\n      jump\t// in\n    tag_38:\n      mstore(0x20, 0x02)\n      0x00\n      swap1\n      dup2\n      mstore\n      0x40\n      swap1\n      keccak256\n      sload\n      dup2\n      jump\n    tag_37:\n      mload(0x40)\n        /* \"#utility.yul\":1911:1936   */\n      swap1\n      dup2\n      mstore\n        /* \"#utility.yul\":1899:1901   */\n      0x20\n        /* \"#utility.yul\":1884:1902   */\n      add\n        /* \"contracts/Wallet.sol\":528:593  mapping (address => uint idOfTransaction) public transactionCount */\n      tag_18\n        /* \"#utility.yul\":1765:1942   */\n      jump\n        /* \"contracts/Wallet.sol\":793:1443  function Deposit(uint amount) public payable Checker(amount) {... */\n    tag_23:\n        /* \"contracts/Wallet.sol\":846:852  amount */\n      dup1\n        /* \"contracts/Wallet.sol\":664:670  amount */\n      dup1\n        /* \"contracts/Wallet.sol\":651:660  msg.value */\n      callvalue\n        /* \"contracts/Wallet.sol\":651:670  msg.value == amount */\n      eq\n        /* \"contracts/Wallet.sol\":643:701  require(msg.value == amount, \"The values should be equal\") */\n      tag_44\n      jumpi\n      mload(0x40)\n      shl(0xe5, 0x461bcd)\n      dup2\n      mstore\n        /* \"#utility.yul\":2149:2151   */\n      0x20\n        /* \"contracts/Wallet.sol\":643:701  require(msg.value == amount, \"The values should be equal\") */\n      0x04\n      dup3\n      add\n        /* \"#utility.yul\":2131:2152   */\n      mstore\n        /* \"#utility.yul\":2188:2190   */\n      0x1a\n        /* \"#utility.yul\":2168:2186   */\n      0x24\n      dup3\n      add\n        /* \"#utility.yul\":2161:2191   */\n      mstore\n        /* \"#utility.yul\":2227:2255   */\n      0x5468652076616c7565732073686f756c6420626520657175616c000000000000\n        /* \"#utility.yul\":2207:2225   */\n      0x44\n      dup3\n      add\n        /* \"#utility.yul\":2200:2256   */\n      mstore\n        /* \"#utility.yul\":2273:2291   */\n      0x64\n      add\n        /* \"contracts/Wallet.sol\":643:701  require(msg.value == amount, \"The values should be equal\") */\n    tag_45:\n      mload(0x40)\n      dup1\n      swap2\n      sub\n      swap1\n      revert\n    tag_44:\n        /* \"contracts/Wallet.sol\":720:725  owner */\n      and(sub(shl(0xa0, 0x01), 0x01), sload(0x00))\n        /* \"contracts/Wallet.sol\":729:739  msg.sender */\n      caller\n        /* \"contracts/Wallet.sol\":720:739  owner == msg.sender */\n      eq\n        /* \"contracts/Wallet.sol\":712:765  require(owner == msg.sender, \"You are not the owner\") */\n      tag_47\n      jumpi\n      mload(0x40)\n      shl(0xe5, 0x461bcd)\n      dup2\n      mstore\n      0x04\n      add\n      tag_45\n      swap1\n      tag_49\n      jump\t// in\n    tag_47:\n        /* \"contracts/Wallet.sol\":895:904  msg.value */\n      callvalue\n        /* \"contracts/Wallet.sol\":873:883  msg.sender */\n      caller\n        /* \"contracts/Wallet.sol\":873:891  msg.sender.balance */\n      balance\n        /* \"contracts/Wallet.sol\":873:904  msg.sender.balance >= msg.value */\n      lt\n      iszero\n        /* \"contracts/Wallet.sol\":865:952  require(msg.sender.balance >= msg.value, \"You cannot deposit more than what you have!\") */\n      tag_51\n      jumpi\n      mload(0x40)\n      shl(0xe5, 0x461bcd)\n      dup2\n      mstore\n        /* \"#utility.yul\":2854:2856   */\n      0x20\n        /* \"contracts/Wallet.sol\":865:952  require(msg.sender.balance >= msg.value, \"You cannot deposit more than what you have!\") */\n      0x04\n      dup3\n      add\n        /* \"#utility.yul\":2836:2857   */\n      mstore\n        /* \"#utility.yul\":2893:2895   */\n      0x2b\n        /* \"#utility.yul\":2873:2891   */\n      0x24\n      dup3\n      add\n        /* \"#utility.yul\":2866:2896   */\n      mstore\n        /* \"#utility.yul\":2932:2966   */\n      0x596f752063616e6e6f74206465706f736974206d6f7265207468616e20776861\n        /* \"#utility.yul\":2912:2930   */\n      0x44\n      dup3\n      add\n        /* \"#utility.yul\":2905:2967   */\n      mstore\n      shl(0xa8, 0x7420796f75206861766521)\n        /* \"#utility.yul\":2983:3001   */\n      0x64\n      dup3\n      add\n        /* \"#utility.yul\":2976:3017   */\n      mstore\n        /* \"#utility.yul\":3034:3053   */\n      0x84\n      add\n        /* \"contracts/Wallet.sol\":865:952  require(msg.sender.balance >= msg.value, \"You cannot deposit more than what you have!\") */\n      tag_45\n        /* \"#utility.yul\":2652:3059   */\n      jump\n        /* \"contracts/Wallet.sol\":865:952  require(msg.sender.balance >= msg.value, \"You cannot deposit more than what you have!\") */\n    tag_51:\n        /* \"contracts/Wallet.sol\":982:992  msg.sender */\n      caller\n        /* \"contracts/Wallet.sol\":965:993  transactionCount[msg.sender] */\n      0x00\n      swap1\n      dup2\n      mstore\n        /* \"contracts/Wallet.sol\":965:981  transactionCount */\n      0x02\n        /* \"contracts/Wallet.sol\":965:993  transactionCount[msg.sender] */\n      0x20\n      mstore\n      0x40\n      dup2\n      keccak256\n        /* \"contracts/Wallet.sol\":965:995  transactionCount[msg.sender]++ */\n      dup1\n      sload\n      swap2\n      tag_54\n      dup4\n      tag_55\n      jump\t// in\n    tag_54:\n      swap1\n      swap2\n      sstore\n      pop\n      pop\n        /* \"contracts/Wallet.sol\":1021:1031  msg.sender */\n      caller\n        /* \"contracts/Wallet.sol\":1008:1032  transactions[msg.sender] */\n      0x00\n      dup2\n      dup2\n      mstore\n        /* \"contracts/Wallet.sol\":1008:1020  transactions */\n      0x01\n        /* \"contracts/Wallet.sol\":1008:1032  transactions[msg.sender] */\n      0x20\n      dup2\n      dup2\n      mstore\n      0x40\n      dup1\n      dup5\n      keccak256\n        /* \"contracts/Wallet.sol\":1033:1049  transactionCount */\n      0x02\n        /* \"contracts/Wallet.sol\":1033:1061  transactionCount[msg.sender] */\n      dup1\n      dup5\n      mstore\n      dup3\n      dup7\n      keccak256\n      dup1\n      sload\n        /* \"contracts/Wallet.sol\":1008:1062  transactions[msg.sender][transactionCount[msg.sender]] */\n      dup8\n      mstore\n      swap2\n      swap1\n      swap4\n      mstore\n      dup2\n      dup6\n      keccak256\n        /* \"contracts/Wallet.sol\":1081:1090  msg.value */\n      callvalue\n        /* \"contracts/Wallet.sol\":1008:1090  transactions[msg.sender][transactionCount[msg.sender]].depositedAmount = msg.value */\n      swap1\n      dup2\n      swap1\n      sstore\n        /* \"contracts/Wallet.sol\":1126:1154  transactionCount[msg.sender] */\n      dup2\n      sload\n        /* \"contracts/Wallet.sol\":1101:1155  transactions[msg.sender][transactionCount[msg.sender]] */\n      dup7\n      mstore\n      dup3\n      dup7\n      keccak256\n        /* \"contracts/Wallet.sol\":1101:1172  transactions[msg.sender][transactionCount[msg.sender]].withdrawedAmount */\n      swap1\n      swap5\n      add\n        /* \"contracts/Wallet.sol\":1101:1176  transactions[msg.sender][transactionCount[msg.sender]].withdrawedAmount = 0 */\n      dup6\n      swap1\n      sstore\n        /* \"contracts/Wallet.sol\":1212:1240  transactionCount[msg.sender] */\n      dup1\n      sload\n        /* \"contracts/Wallet.sol\":1187:1241  transactions[msg.sender][transactionCount[msg.sender]] */\n      dup6\n      mstore\n      dup2\n      dup6\n      keccak256\n        /* \"contracts/Wallet.sol\":1187:1246  transactions[msg.sender][transactionCount[msg.sender]].from */\n      swap1\n      swap3\n      add\n        /* \"contracts/Wallet.sol\":1187:1259  transactions[msg.sender][transactionCount[msg.sender]].from = msg.sender */\n      dup1\n      sload\n      not(sub(shl(0xa0, 0x01), 0x01))\n      swap1\n      dup2\n      and\n      swap1\n      swap7\n      or\n      swap1\n      sstore\n        /* \"contracts/Wallet.sol\":1295:1323  transactionCount[msg.sender] */\n      swap1\n      sload\n        /* \"contracts/Wallet.sol\":1270:1324  transactions[msg.sender][transactionCount[msg.sender]] */\n      dup4\n      mstore\n      dup1\n      dup4\n      keccak256\n        /* \"contracts/Wallet.sol\":1270:1327  transactions[msg.sender][transactionCount[msg.sender]].to */\n      0x03\n      add\n        /* \"contracts/Wallet.sol\":1270:1343  transactions[msg.sender][transactionCount[msg.sender]].to = address(this) */\n      dup1\n      sload\n        /* \"contracts/Wallet.sol\":1338:1342  this */\n      address\n        /* \"contracts/Wallet.sol\":1270:1343  transactions[msg.sender][transactionCount[msg.sender]].to = address(this) */\n      swap6\n      and\n      dup6\n      or\n      swap1\n      sstore\n        /* \"contracts/Wallet.sol\":1356:1398  payable(address(this)).transfer(msg.value) */\n      mload\n      0x08fc\n      dup3\n      iszero\n      mul\n      swap3\n      dup2\n        /* \"contracts/Wallet.sol\":1008:1032  transactions[msg.sender] */\n      dup2\n        /* \"contracts/Wallet.sol\":1356:1398  payable(address(this)).transfer(msg.value) */\n      dup2\n        /* \"contracts/Wallet.sol\":1081:1090  msg.value */\n      dup6\n        /* \"contracts/Wallet.sol\":1338:1342  this */\n      dup9\n        /* \"contracts/Wallet.sol\":1356:1398  payable(address(this)).transfer(msg.value) */\n      dup9\n      call\n      swap4\n      pop\n      pop\n      pop\n      pop\n      iszero\n      dup1\n      iszero\n      tag_57\n      jumpi\n      returndatasize\n      0x00\n      dup1\n      returndatacopy\n      revert(0x00, returndatasize)\n    tag_57:\n      pop\n        /* \"contracts/Wallet.sol\":1416:1435  EDeposit(msg.value) */\n      mload(0x40)\n        /* \"contracts/Wallet.sol\":1425:1434  msg.value */\n      callvalue\n      swap1\n        /* \"contracts/Wallet.sol\":1416:1435  EDeposit(msg.value) */\n      0x6eab5bc43b55aaa4f54e4bd34037f8073f18af157c86b0a2646874a7b4dd4203\n      swap1\n      0x00\n      swap1\n      log2\n        /* \"contracts/Wallet.sol\":793:1443  function Deposit(uint amount) public payable Checker(amount) {... */\n      pop\n      pop\n      jump\t// out\n        /* \"contracts/Wallet.sol\":1453:2392  function Withdraw(uint amount) public payable Checker(amount) {... */\n    tag_26:\n        /* \"contracts/Wallet.sol\":1507:1513  amount */\n      dup1\n        /* \"contracts/Wallet.sol\":664:670  amount */\n      dup1\n        /* \"contracts/Wallet.sol\":651:660  msg.value */\n      callvalue\n        /* \"contracts/Wallet.sol\":651:670  msg.value == amount */\n      eq\n        /* \"contracts/Wallet.sol\":643:701  require(msg.value == amount, \"The values should be equal\") */\n      tag_59\n      jumpi\n      mload(0x40)\n      shl(0xe5, 0x461bcd)\n      dup2\n      mstore\n        /* \"#utility.yul\":2149:2151   */\n      0x20\n        /* \"contracts/Wallet.sol\":643:701  require(msg.value == amount, \"The values should be equal\") */\n      0x04\n      dup3\n      add\n        /* \"#utility.yul\":2131:2152   */\n      mstore\n        /* \"#utility.yul\":2188:2190   */\n      0x1a\n        /* \"#utility.yul\":2168:2186   */\n      0x24\n      dup3\n      add\n        /* \"#utility.yul\":2161:2191   */\n      mstore\n        /* \"#utility.yul\":2227:2255   */\n      0x5468652076616c7565732073686f756c6420626520657175616c000000000000\n        /* \"#utility.yul\":2207:2225   */\n      0x44\n      dup3\n      add\n        /* \"#utility.yul\":2200:2256   */\n      mstore\n        /* \"#utility.yul\":2273:2291   */\n      0x64\n      add\n        /* \"contracts/Wallet.sol\":643:701  require(msg.value == amount, \"The values should be equal\") */\n      tag_45\n        /* \"#utility.yul\":1947:2297   */\n      jump\n        /* \"contracts/Wallet.sol\":643:701  require(msg.value == amount, \"The values should be equal\") */\n    tag_59:\n        /* \"contracts/Wallet.sol\":720:725  owner */\n      and(sub(shl(0xa0, 0x01), 0x01), sload(0x00))\n        /* \"contracts/Wallet.sol\":729:739  msg.sender */\n      caller\n        /* \"contracts/Wallet.sol\":720:739  owner == msg.sender */\n      eq\n        /* \"contracts/Wallet.sol\":712:765  require(owner == msg.sender, \"You are not the owner\") */\n      tag_61\n      jumpi\n      mload(0x40)\n      shl(0xe5, 0x461bcd)\n      dup2\n      mstore\n      0x04\n      add\n      tag_45\n      swap1\n      tag_49\n      jump\t// in\n    tag_61:\n        /* \"contracts/Wallet.sol\":1559:1565  amount */\n      dup2\n        /* \"contracts/Wallet.sol\":1534:1555  address(this).balance */\n      selfbalance\n        /* \"contracts/Wallet.sol\":1534:1565  address(this).balance >= amount */\n      lt\n      iszero\n        /* \"contracts/Wallet.sol\":1526:1621  require(address(this).balance >= amount, \"There is no such amount of money in smart contract!\") */\n      tag_64\n      jumpi\n      mload(0x40)\n      shl(0xe5, 0x461bcd)\n      dup2\n      mstore\n        /* \"#utility.yul\":3538:3540   */\n      0x20\n        /* \"contracts/Wallet.sol\":1526:1621  require(address(this).balance >= amount, \"There is no such amount of money in smart contract!\") */\n      0x04\n      dup3\n      add\n        /* \"#utility.yul\":3520:3541   */\n      mstore\n        /* \"#utility.yul\":3577:3579   */\n      0x33\n        /* \"#utility.yul\":3557:3575   */\n      0x24\n      dup3\n      add\n        /* \"#utility.yul\":3550:3580   */\n      mstore\n        /* \"#utility.yul\":3616:3650   */\n      0x5468657265206973206e6f207375636820616d6f756e74206f66206d6f6e6579\n        /* \"#utility.yul\":3596:3614   */\n      0x44\n      dup3\n      add\n        /* \"#utility.yul\":3589:3651   */\n      mstore\n      shl(0x68, 0x20696e20736d61727420636f6e747261637421)\n        /* \"#utility.yul\":3667:3685   */\n      0x64\n      dup3\n      add\n        /* \"#utility.yul\":3660:3709   */\n      mstore\n        /* \"#utility.yul\":3726:3745   */\n      0x84\n      add\n        /* \"contracts/Wallet.sol\":1526:1621  require(address(this).balance >= amount, \"There is no such amount of money in smart contract!\") */\n      tag_45\n        /* \"#utility.yul\":3336:3751   */\n      jump\n        /* \"contracts/Wallet.sol\":1526:1621  require(address(this).balance >= amount, \"There is no such amount of money in smart contract!\") */\n    tag_64:\n        /* \"contracts/Wallet.sol\":1632:1657  uint totalDepositedAmount */\n      0x00\n        /* \"contracts/Wallet.sol\":1682:1683  1 */\n      0x01\n        /* \"contracts/Wallet.sol\":1668:1818  for (uint i = 1; i < transactionCount[msg.sender]; i++) {... */\n    tag_67:\n        /* \"contracts/Wallet.sol\":1706:1716  msg.sender */\n      caller\n        /* \"contracts/Wallet.sol\":1689:1717  transactionCount[msg.sender] */\n      0x00\n      swap1\n      dup2\n      mstore\n        /* \"contracts/Wallet.sol\":1689:1705  transactionCount */\n      0x02\n        /* \"contracts/Wallet.sol\":1689:1717  transactionCount[msg.sender] */\n      0x20\n      mstore\n      0x40\n      swap1\n      keccak256\n      sload\n        /* \"contracts/Wallet.sol\":1685:1717  i < transactionCount[msg.sender] */\n      dup2\n      lt\n        /* \"contracts/Wallet.sol\":1668:1818  for (uint i = 1; i < transactionCount[msg.sender]; i++) {... */\n      iszero\n      tag_68\n      jumpi\n        /* \"contracts/Wallet.sol\":1776:1786  msg.sender */\n      caller\n        /* \"contracts/Wallet.sol\":1763:1787  transactions[msg.sender] */\n      0x00\n      swap1\n      dup2\n      mstore\n        /* \"contracts/Wallet.sol\":1763:1775  transactions */\n      0x01\n        /* \"contracts/Wallet.sol\":1763:1787  transactions[msg.sender] */\n      0x20\n      swap1\n      dup2\n      mstore\n      0x40\n      dup1\n      dup4\n      keccak256\n        /* \"contracts/Wallet.sol\":1763:1790  transactions[msg.sender][i] */\n      dup5\n      dup5\n      mstore\n      swap1\n      swap2\n      mstore\n      swap1\n      keccak256\n        /* \"contracts/Wallet.sol\":1763:1806  transactions[msg.sender][i].depositedAmount */\n      sload\n        /* \"contracts/Wallet.sol\":1739:1806  totalDepositedAmount += transactions[msg.sender][i].depositedAmount */\n      tag_70\n      swap1\n      dup4\n      tag_71\n      jump\t// in\n    tag_70:\n      swap2\n      pop\n        /* \"contracts/Wallet.sol\":1719:1722  i++ */\n      0x01\n      add\n        /* \"contracts/Wallet.sol\":1668:1818  for (uint i = 1; i < transactionCount[msg.sender]; i++) {... */\n      jump(tag_67)\n    tag_68:\n      pop\n        /* \"contracts/Wallet.sol\":1846:1866  totalDepositedAmount */\n      dup1\n        /* \"contracts/Wallet.sol\":1836:1842  amount */\n      dup4\n        /* \"contracts/Wallet.sol\":1836:1866  amount <= totalDepositedAmount */\n      gt\n      iszero\n        /* \"contracts/Wallet.sol\":1828:1920  require(amount <= totalDepositedAmount, \"You cannot withdraw more than what you deposited!\") */\n      tag_72\n      jumpi\n      mload(0x40)\n      shl(0xe5, 0x461bcd)\n      dup2\n      mstore\n        /* \"#utility.yul\":4088:4090   */\n      0x20\n        /* \"contracts/Wallet.sol\":1828:1920  require(amount <= totalDepositedAmount, \"You cannot withdraw more than what you deposited!\") */\n      0x04\n      dup3\n      add\n        /* \"#utility.yul\":4070:4091   */\n      mstore\n        /* \"#utility.yul\":4127:4129   */\n      0x31\n        /* \"#utility.yul\":4107:4125   */\n      0x24\n      dup3\n      add\n        /* \"#utility.yul\":4100:4130   */\n      mstore\n        /* \"#utility.yul\":4166:4200   */\n      0x596f752063616e6e6f74207769746864726177206d6f7265207468616e207768\n        /* \"#utility.yul\":4146:4164   */\n      0x44\n      dup3\n      add\n        /* \"#utility.yul\":4139:4201   */\n      mstore\n      shl(0x78, 0x617420796f75206465706f736974656421)\n        /* \"#utility.yul\":4217:4235   */\n      0x64\n      dup3\n      add\n        /* \"#utility.yul\":4210:4257   */\n      mstore\n        /* \"#utility.yul\":4274:4293   */\n      0x84\n      add\n        /* \"contracts/Wallet.sol\":1828:1920  require(amount <= totalDepositedAmount, \"You cannot withdraw more than what you deposited!\") */\n      tag_45\n        /* \"#utility.yul\":3886:4299   */\n      jump\n        /* \"contracts/Wallet.sol\":1828:1920  require(amount <= totalDepositedAmount, \"You cannot withdraw more than what you deposited!\") */\n    tag_72:\n        /* \"contracts/Wallet.sol\":1948:1958  msg.sender */\n      caller\n        /* \"contracts/Wallet.sol\":1931:1959  transactionCount[msg.sender] */\n      0x00\n      swap1\n      dup2\n      mstore\n        /* \"contracts/Wallet.sol\":1931:1947  transactionCount */\n      0x02\n        /* \"contracts/Wallet.sol\":1931:1959  transactionCount[msg.sender] */\n      0x20\n      mstore\n      0x40\n      dup2\n      keccak256\n        /* \"contracts/Wallet.sol\":1931:1961  transactionCount[msg.sender]++ */\n      dup1\n      sload\n      swap2\n      tag_75\n      dup4\n      tag_55\n      jump\t// in\n    tag_75:\n      swap1\n      swap2\n      sstore\n      pop\n      pop\n        /* \"contracts/Wallet.sol\":1985:1995  msg.sender */\n      caller\n        /* \"contracts/Wallet.sol\":2045:2046  0 */\n      0x00\n        /* \"contracts/Wallet.sol\":1972:1996  transactions[msg.sender] */\n      dup2\n      dup2\n      mstore\n        /* \"contracts/Wallet.sol\":1972:1984  transactions */\n      0x01\n        /* \"contracts/Wallet.sol\":1972:1996  transactions[msg.sender] */\n      0x20\n      dup2\n      dup2\n      mstore\n      0x40\n      dup1\n      dup5\n      keccak256\n        /* \"contracts/Wallet.sol\":1997:2013  transactionCount */\n      0x02\n        /* \"contracts/Wallet.sol\":1997:2025  transactionCount[msg.sender] */\n      dup1\n      dup5\n      mstore\n      dup3\n      dup7\n      keccak256\n      dup1\n      sload\n        /* \"contracts/Wallet.sol\":1972:2026  transactions[msg.sender][transactionCount[msg.sender]] */\n      dup8\n      mstore\n      swap2\n      swap1\n      swap4\n      mstore\n      dup2\n      dup6\n      keccak256\n        /* \"contracts/Wallet.sol\":1972:2046  transactions[msg.sender][transactionCount[msg.sender]].depositedAmount = 0 */\n      dup6\n      swap1\n      sstore\n        /* \"contracts/Wallet.sol\":2082:2110  transactionCount[msg.sender] */\n      dup1\n      sload\n        /* \"contracts/Wallet.sol\":2057:2111  transactions[msg.sender][transactionCount[msg.sender]] */\n      dup6\n      mstore\n      dup2\n      dup6\n      keccak256\n        /* \"contracts/Wallet.sol\":2057:2128  transactions[msg.sender][transactionCount[msg.sender]].withdrawedAmount */\n      swap1\n      swap4\n      add\n        /* \"contracts/Wallet.sol\":2057:2137  transactions[msg.sender][transactionCount[msg.sender]].withdrawedAmount = amount */\n      dup9\n      swap1\n      sstore\n        /* \"contracts/Wallet.sol\":2173:2201  transactionCount[msg.sender] */\n      dup3\n      sload\n        /* \"contracts/Wallet.sol\":2148:2202  transactions[msg.sender][transactionCount[msg.sender]] */\n      dup5\n      mstore\n      dup1\n      dup5\n      keccak256\n        /* \"contracts/Wallet.sol\":2148:2207  transactions[msg.sender][transactionCount[msg.sender]].from */\n      swap1\n      swap2\n      add\n        /* \"contracts/Wallet.sol\":2148:2223  transactions[msg.sender][transactionCount[msg.sender]].from = address(this) */\n      dup1\n      sload\n        /* \"contracts/Wallet.sol\":2218:2222  this */\n      address\n      not(sub(shl(0xa0, 0x01), 0x01))\n        /* \"contracts/Wallet.sol\":2148:2223  transactions[msg.sender][transactionCount[msg.sender]].from = address(this) */\n      swap2\n      dup3\n      and\n      or\n      swap1\n      swap2\n      sstore\n        /* \"contracts/Wallet.sol\":2259:2287  transactionCount[msg.sender] */\n      swap2\n      sload\n        /* \"contracts/Wallet.sol\":2234:2288  transactions[msg.sender][transactionCount[msg.sender]] */\n      dup4\n      mstore\n      dup1\n      dup4\n      keccak256\n        /* \"contracts/Wallet.sol\":2234:2291  transactions[msg.sender][transactionCount[msg.sender]].to */\n      0x03\n      add\n        /* \"contracts/Wallet.sol\":2234:2304  transactions[msg.sender][transactionCount[msg.sender]].to = msg.sender */\n      dup1\n      sload\n      swap1\n      swap3\n      and\n      dup5\n      or\n      swap1\n      swap2\n      sstore\n        /* \"contracts/Wallet.sol\":2315:2351  payable(msg.sender).transfer(amount) */\n      mload\n      0x08fc\n      dup7\n      iszero\n      mul\n      swap2\n        /* \"contracts/Wallet.sol\":2057:2137  transactions[msg.sender][transactionCount[msg.sender]].withdrawedAmount = amount */\n      dup7\n      swap2\n        /* \"contracts/Wallet.sol\":2315:2351  payable(msg.sender).transfer(amount) */\n      swap1\n      dup2\n        /* \"contracts/Wallet.sol\":2045:2046  0 */\n      dup2\n        /* \"contracts/Wallet.sol\":2315:2351  payable(msg.sender).transfer(amount) */\n      dup2\n        /* \"contracts/Wallet.sol\":2057:2137  transactions[msg.sender][transactionCount[msg.sender]].withdrawedAmount = amount */\n      dup6\n        /* \"contracts/Wallet.sol\":1985:1995  msg.sender */\n      dup9\n        /* \"contracts/Wallet.sol\":2315:2351  payable(msg.sender).transfer(amount) */\n      dup9\n      call\n      swap4\n      pop\n      pop\n      pop\n      pop\n      iszero\n      dup1\n      iszero\n      tag_77\n      jumpi\n      returndatasize\n      0x00\n      dup1\n      returndatacopy\n      revert(0x00, returndatasize)\n    tag_77:\n      pop\n        /* \"contracts/Wallet.sol\":2367:2384  EWithdraw(amount) */\n      mload(0x40)\n        /* \"contracts/Wallet.sol\":2377:2383  amount */\n      dup4\n      swap1\n        /* \"contracts/Wallet.sol\":2367:2384  EWithdraw(amount) */\n      0xc883f0a337643c38737954ca97943dc4b675f45ecde5a2f450f55371875641e3\n      swap1\n      0x00\n      swap1\n      log2\n        /* \"contracts/Wallet.sol\":1515:2392  {... */\n      pop\n        /* \"contracts/Wallet.sol\":1453:2392  function Withdraw(uint amount) public payable Checker(amount) {... */\n      pop\n      pop\n      jump\t// out\n        /* \"contracts/Wallet.sol\":2400:3267  function WidhtrawAll(bool sure) public payable {... */\n    tag_30:\n        /* \"contracts/Wallet.sol\":2466:2471  owner */\n      and(sub(shl(0xa0, 0x01), 0x01), sload(0x00))\n        /* \"contracts/Wallet.sol\":2475:2485  msg.sender */\n      caller\n        /* \"contracts/Wallet.sol\":2466:2485  owner == msg.sender */\n      eq\n        /* \"contracts/Wallet.sol\":2458:2511  require(owner == msg.sender, \"You are not the owner\") */\n      tag_79\n      jumpi\n      mload(0x40)\n      shl(0xe5, 0x461bcd)\n      dup2\n      mstore\n      0x04\n      add\n      tag_45\n      swap1\n      tag_49\n      jump\t// in\n    tag_79:\n        /* \"contracts/Wallet.sol\":2530:2534  sure */\n      dup1\n        /* \"contracts/Wallet.sol\":2522:2569  require(sure, \"You should be sure about this!\") */\n      tag_81\n      jumpi\n      mload(0x40)\n      shl(0xe5, 0x461bcd)\n      dup2\n      mstore\n        /* \"#utility.yul\":4506:4508   */\n      0x20\n        /* \"contracts/Wallet.sol\":2522:2569  require(sure, \"You should be sure about this!\") */\n      0x04\n      dup3\n      add\n        /* \"#utility.yul\":4488:4509   */\n      mstore\n        /* \"#utility.yul\":4545:4547   */\n      0x1e\n        /* \"#utility.yul\":4525:4543   */\n      0x24\n      dup3\n      add\n        /* \"#utility.yul\":4518:4548   */\n      mstore\n        /* \"#utility.yul\":4584:4616   */\n      0x596f752073686f756c6420626520737572652061626f75742074686973210000\n        /* \"#utility.yul\":4564:4582   */\n      0x44\n      dup3\n      add\n        /* \"#utility.yul\":4557:4617   */\n      mstore\n        /* \"#utility.yul\":4634:4652   */\n      0x64\n      add\n        /* \"contracts/Wallet.sol\":2522:2569  require(sure, \"You should be sure about this!\") */\n      tag_45\n        /* \"#utility.yul\":4304:4658   */\n      jump\n        /* \"contracts/Wallet.sol\":2522:2569  require(sure, \"You should be sure about this!\") */\n    tag_81:\n        /* \"contracts/Wallet.sol\":2580:2605  uint totalDepositedAmount */\n      0x00\n        /* \"contracts/Wallet.sol\":2630:2631  1 */\n      0x01\n        /* \"contracts/Wallet.sol\":2616:2766  for (uint i = 1; i < transactionCount[msg.sender]; i++) {... */\n    tag_84:\n        /* \"contracts/Wallet.sol\":2654:2664  msg.sender */\n      caller\n        /* \"contracts/Wallet.sol\":2637:2665  transactionCount[msg.sender] */\n      0x00\n      swap1\n      dup2\n      mstore\n        /* \"contracts/Wallet.sol\":2637:2653  transactionCount */\n      0x02\n        /* \"contracts/Wallet.sol\":2637:2665  transactionCount[msg.sender] */\n      0x20\n      mstore\n      0x40\n      swap1\n      keccak256\n      sload\n        /* \"contracts/Wallet.sol\":2633:2665  i < transactionCount[msg.sender] */\n      dup2\n      lt\n        /* \"contracts/Wallet.sol\":2616:2766  for (uint i = 1; i < transactionCount[msg.sender]; i++) {... */\n      iszero\n      tag_85\n      jumpi\n        /* \"contracts/Wallet.sol\":2724:2734  msg.sender */\n      caller\n        /* \"contracts/Wallet.sol\":2711:2735  transactions[msg.sender] */\n      0x00\n      swap1\n      dup2\n      mstore\n        /* \"contracts/Wallet.sol\":2711:2723  transactions */\n      0x01\n        /* \"contracts/Wallet.sol\":2711:2735  transactions[msg.sender] */\n      0x20\n      swap1\n      dup2\n      mstore\n      0x40\n      dup1\n      dup4\n      keccak256\n        /* \"contracts/Wallet.sol\":2711:2738  transactions[msg.sender][i] */\n      dup5\n      dup5\n      mstore\n      swap1\n      swap2\n      mstore\n      swap1\n      keccak256\n        /* \"contracts/Wallet.sol\":2711:2754  transactions[msg.sender][i].depositedAmount */\n      sload\n        /* \"contracts/Wallet.sol\":2687:2754  totalDepositedAmount += transactions[msg.sender][i].depositedAmount */\n      tag_87\n      swap1\n      dup4\n      tag_71\n      jump\t// in\n    tag_87:\n      swap2\n      pop\n        /* \"contracts/Wallet.sol\":2667:2670  i++ */\n      0x01\n      add\n        /* \"contracts/Wallet.sol\":2616:2766  for (uint i = 1; i < transactionCount[msg.sender]; i++) {... */\n      jump(tag_84)\n    tag_85:\n      pop\n        /* \"contracts/Wallet.sol\":2793:2803  msg.sender */\n      caller\n        /* \"contracts/Wallet.sol\":2776:2804  transactionCount[msg.sender] */\n      0x00\n      swap1\n      dup2\n      mstore\n        /* \"contracts/Wallet.sol\":2776:2792  transactionCount */\n      0x02\n        /* \"contracts/Wallet.sol\":2776:2804  transactionCount[msg.sender] */\n      0x20\n      mstore\n      0x40\n      dup2\n      keccak256\n        /* \"contracts/Wallet.sol\":2776:2806  transactionCount[msg.sender]++ */\n      dup1\n      sload\n      swap2\n      tag_88\n      dup4\n      tag_55\n      jump\t// in\n    tag_88:\n      swap1\n      swap2\n      sstore\n      pop\n      pop\n        /* \"contracts/Wallet.sol\":2830:2840  msg.sender */\n      caller\n        /* \"contracts/Wallet.sol\":2890:2891  0 */\n      0x00\n        /* \"contracts/Wallet.sol\":2817:2841  transactions[msg.sender] */\n      dup2\n      dup2\n      mstore\n        /* \"contracts/Wallet.sol\":2817:2829  transactions */\n      0x01\n        /* \"contracts/Wallet.sol\":2817:2841  transactions[msg.sender] */\n      0x20\n      dup2\n      dup2\n      mstore\n      0x40\n      dup1\n      dup5\n      keccak256\n        /* \"contracts/Wallet.sol\":2842:2858  transactionCount */\n      0x02\n        /* \"contracts/Wallet.sol\":2842:2870  transactionCount[msg.sender] */\n      dup1\n      dup5\n      mstore\n      dup3\n      dup7\n      keccak256\n      dup1\n      sload\n        /* \"contracts/Wallet.sol\":2817:2871  transactions[msg.sender][transactionCount[msg.sender]] */\n      dup8\n      mstore\n      swap2\n      swap1\n      swap4\n      mstore\n      dup2\n      dup6\n      keccak256\n        /* \"contracts/Wallet.sol\":2817:2891  transactions[msg.sender][transactionCount[msg.sender]].depositedAmount = 0 */\n      dup6\n      swap1\n      sstore\n        /* \"contracts/Wallet.sol\":2927:2955  transactionCount[msg.sender] */\n      dup1\n      sload\n        /* \"contracts/Wallet.sol\":2902:2956  transactions[msg.sender][transactionCount[msg.sender]] */\n      dup6\n      mstore\n      dup2\n      dup6\n      keccak256\n        /* \"contracts/Wallet.sol\":2902:2973  transactions[msg.sender][transactionCount[msg.sender]].withdrawedAmount */\n      swap1\n      swap4\n      add\n        /* \"contracts/Wallet.sol\":2902:2996  transactions[msg.sender][transactionCount[msg.sender]].withdrawedAmount = totalDepositedAmount */\n      dup7\n      swap1\n      sstore\n        /* \"contracts/Wallet.sol\":3032:3060  transactionCount[msg.sender] */\n      dup3\n      sload\n        /* \"contracts/Wallet.sol\":3007:3061  transactions[msg.sender][transactionCount[msg.sender]] */\n      dup5\n      mstore\n      dup1\n      dup5\n      keccak256\n        /* \"contracts/Wallet.sol\":3007:3066  transactions[msg.sender][transactionCount[msg.sender]].from */\n      swap1\n      swap2\n      add\n        /* \"contracts/Wallet.sol\":3007:3082  transactions[msg.sender][transactionCount[msg.sender]].from = address(this) */\n      dup1\n      sload\n      not(sub(shl(0xa0, 0x01), 0x01))\n      swap1\n      dup2\n      and\n        /* \"contracts/Wallet.sol\":3077:3081  this */\n      address\n        /* \"contracts/Wallet.sol\":3007:3082  transactions[msg.sender][transactionCount[msg.sender]].from = address(this) */\n      or\n      swap1\n      swap2\n      sstore\n        /* \"contracts/Wallet.sol\":3118:3146  transactionCount[msg.sender] */\n      swap2\n      sload\n        /* \"contracts/Wallet.sol\":3093:3147  transactions[msg.sender][transactionCount[msg.sender]] */\n      dup4\n      mstore\n      dup1\n      dup4\n      keccak256\n        /* \"contracts/Wallet.sol\":3093:3150  transactions[msg.sender][transactionCount[msg.sender]].to */\n      0x03\n      add\n        /* \"contracts/Wallet.sol\":3093:3163  transactions[msg.sender][transactionCount[msg.sender]].to = msg.sender */\n      dup1\n      sload\n      swap1\n      swap3\n      and\n      dup5\n      or\n      swap1\n      swap2\n      sstore\n        /* \"contracts/Wallet.sol\":3174:3225  payable(msg.sender).transfer(address(this).balance) */\n      mload\n        /* \"contracts/Wallet.sol\":3203:3224  address(this).balance */\n      selfbalance\n        /* \"contracts/Wallet.sol\":3174:3225  payable(msg.sender).transfer(address(this).balance) */\n      dup1\n      iszero\n      0x08fc\n      mul\n      swap3\n        /* \"contracts/Wallet.sol\":3203:3224  address(this).balance */\n      swap1\n      swap2\n        /* \"contracts/Wallet.sol\":3174:3225  payable(msg.sender).transfer(address(this).balance) */\n      swap1\n      dup2\n        /* \"contracts/Wallet.sol\":2890:2891  0 */\n      dup2\n        /* \"contracts/Wallet.sol\":3174:3225  payable(msg.sender).transfer(address(this).balance) */\n      dup2\n        /* \"contracts/Wallet.sol\":3203:3224  address(this).balance */\n      dup6\n        /* \"contracts/Wallet.sol\":2830:2840  msg.sender */\n      dup9\n        /* \"contracts/Wallet.sol\":3174:3225  payable(msg.sender).transfer(address(this).balance) */\n      dup9\n      call\n      swap4\n      pop\n      pop\n      pop\n      pop\n      iszero\n      dup1\n      iszero\n      tag_90\n      jumpi\n      returndatasize\n      0x00\n      dup1\n      returndatacopy\n      revert(0x00, returndatasize)\n    tag_90:\n      pop\n        /* \"contracts/Wallet.sol\":3241:3259  EWithdrawAll(sure) */\n      mload(0x40)\n      dup3\n      iszero\n      iszero\n      swap1\n      0x1423ca3ba940e845379011b2f84bcd1f727e6fd3cf5af7ad9d6390975b9898bf\n      swap1\n      0x00\n      swap1\n      log2\n        /* \"contracts/Wallet.sol\":2447:3267  {... */\n      pop\n        /* \"contracts/Wallet.sol\":2400:3267  function WidhtrawAll(bool sure) public payable {... */\n      pop\n      jump\t// out\n        /* \"#utility.yul\":14:187   */\n    tag_91:\n        /* \"#utility.yul\":82:102   */\n      dup1\n      calldataload\n      sub(shl(0xa0, 0x01), 0x01)\n        /* \"#utility.yul\":131:162   */\n      dup2\n      and\n        /* \"#utility.yul\":121:163   */\n      dup2\n      eq\n        /* \"#utility.yul\":111:181   */\n      tag_95\n      jumpi\n        /* \"#utility.yul\":177:178   */\n      0x00\n        /* \"#utility.yul\":174:175   */\n      dup1\n        /* \"#utility.yul\":167:179   */\n      revert\n        /* \"#utility.yul\":111:181   */\n    tag_95:\n        /* \"#utility.yul\":14:187   */\n      swap2\n      swap1\n      pop\n      jump\t// out\n        /* \"#utility.yul\":192:446   */\n    tag_16:\n        /* \"#utility.yul\":260:266   */\n      0x00\n        /* \"#utility.yul\":268:274   */\n      dup1\n        /* \"#utility.yul\":321:323   */\n      0x40\n        /* \"#utility.yul\":309:318   */\n      dup4\n        /* \"#utility.yul\":300:307   */\n      dup6\n        /* \"#utility.yul\":296:319   */\n      sub\n        /* \"#utility.yul\":292:324   */\n      slt\n        /* \"#utility.yul\":289:341   */\n      iszero\n      tag_97\n      jumpi\n        /* \"#utility.yul\":337:338   */\n      0x00\n        /* \"#utility.yul\":334:335   */\n      dup1\n        /* \"#utility.yul\":327:339   */\n      revert\n        /* \"#utility.yul\":289:341   */\n    tag_97:\n        /* \"#utility.yul\":360:389   */\n      tag_98\n        /* \"#utility.yul\":379:388   */\n      dup4\n        /* \"#utility.yul\":360:389   */\n      tag_91\n      jump\t// in\n    tag_98:\n        /* \"#utility.yul\":350:389   */\n      swap5\n        /* \"#utility.yul\":436:438   */\n      0x20\n        /* \"#utility.yul\":421:439   */\n      swap4\n      swap1\n      swap4\n      add\n        /* \"#utility.yul\":408:440   */\n      calldataload\n      swap4\n      pop\n      pop\n      pop\n        /* \"#utility.yul\":192:446   */\n      jump\t// out\n        /* \"#utility.yul\":903:1083   */\n    tag_22:\n        /* \"#utility.yul\":962:968   */\n      0x00\n        /* \"#utility.yul\":1015:1017   */\n      0x20\n        /* \"#utility.yul\":1003:1012   */\n      dup3\n        /* \"#utility.yul\":994:1001   */\n      dup5\n        /* \"#utility.yul\":990:1013   */\n      sub\n        /* \"#utility.yul\":986:1018   */\n      slt\n        /* \"#utility.yul\":983:1035   */\n      iszero\n      tag_101\n      jumpi\n        /* \"#utility.yul\":1031:1032   */\n      0x00\n        /* \"#utility.yul\":1028:1029   */\n      dup1\n        /* \"#utility.yul\":1021:1033   */\n      revert\n        /* \"#utility.yul\":983:1035   */\n    tag_101:\n      pop\n        /* \"#utility.yul\":1054:1077   */\n      calldataload\n      swap2\n        /* \"#utility.yul\":903:1083   */\n      swap1\n      pop\n      jump\t// out\n        /* \"#utility.yul\":1088:1361   */\n    tag_29:\n        /* \"#utility.yul\":1144:1150   */\n      0x00\n        /* \"#utility.yul\":1197:1199   */\n      0x20\n        /* \"#utility.yul\":1185:1194   */\n      dup3\n        /* \"#utility.yul\":1176:1183   */\n      dup5\n        /* \"#utility.yul\":1172:1195   */\n      sub\n        /* \"#utility.yul\":1168:1200   */\n      slt\n        /* \"#utility.yul\":1165:1217   */\n      iszero\n      tag_103\n      jumpi\n        /* \"#utility.yul\":1213:1214   */\n      0x00\n        /* \"#utility.yul\":1210:1211   */\n      dup1\n        /* \"#utility.yul\":1203:1215   */\n      revert\n        /* \"#utility.yul\":1165:1217   */\n    tag_103:\n        /* \"#utility.yul\":1252:1261   */\n      dup2\n        /* \"#utility.yul\":1239:1262   */\n      calldataload\n        /* \"#utility.yul\":1305:1310   */\n      dup1\n        /* \"#utility.yul\":1298:1311   */\n      iszero\n        /* \"#utility.yul\":1291:1312   */\n      iszero\n        /* \"#utility.yul\":1284:1289   */\n      dup2\n        /* \"#utility.yul\":1281:1313   */\n      eq\n        /* \"#utility.yul\":1271:1331   */\n      tag_104\n      jumpi\n        /* \"#utility.yul\":1327:1328   */\n      0x00\n        /* \"#utility.yul\":1324:1325   */\n      dup1\n        /* \"#utility.yul\":1317:1329   */\n      revert\n        /* \"#utility.yul\":1271:1331   */\n    tag_104:\n        /* \"#utility.yul\":1350:1355   */\n      swap4\n        /* \"#utility.yul\":1088:1361   */\n      swap3\n      pop\n      pop\n      pop\n      jump\t// out\n        /* \"#utility.yul\":1574:1760   */\n    tag_39:\n        /* \"#utility.yul\":1633:1639   */\n      0x00\n        /* \"#utility.yul\":1686:1688   */\n      0x20\n        /* \"#utility.yul\":1674:1683   */\n      dup3\n        /* \"#utility.yul\":1665:1672   */\n      dup5\n        /* \"#utility.yul\":1661:1684   */\n      sub\n        /* \"#utility.yul\":1657:1689   */\n      slt\n        /* \"#utility.yul\":1654:1706   */\n      iszero\n      tag_107\n      jumpi\n        /* \"#utility.yul\":1702:1703   */\n      0x00\n        /* \"#utility.yul\":1699:1700   */\n      dup1\n        /* \"#utility.yul\":1692:1704   */\n      revert\n        /* \"#utility.yul\":1654:1706   */\n    tag_107:\n        /* \"#utility.yul\":1725:1754   */\n      tag_104\n        /* \"#utility.yul\":1744:1753   */\n      dup3\n        /* \"#utility.yul\":1725:1754   */\n      tag_91\n      jump\t// in\n        /* \"#utility.yul\":2302:2647   */\n    tag_49:\n        /* \"#utility.yul\":2504:2506   */\n      0x20\n        /* \"#utility.yul\":2486:2507   */\n      dup1\n      dup3\n      mstore\n        /* \"#utility.yul\":2543:2545   */\n      0x15\n        /* \"#utility.yul\":2523:2541   */\n      swap1\n      dup3\n      add\n        /* \"#utility.yul\":2516:2546   */\n      mstore\n      shl(0x59, 0x2cb7ba9030b932903737ba103a34329037bbb732b9)\n        /* \"#utility.yul\":2577:2579   */\n      0x40\n        /* \"#utility.yul\":2562:2580   */\n      dup3\n      add\n        /* \"#utility.yul\":2555:2606   */\n      mstore\n        /* \"#utility.yul\":2638:2640   */\n      0x60\n        /* \"#utility.yul\":2623:2641   */\n      add\n      swap1\n        /* \"#utility.yul\":2302:2647   */\n      jump\t// out\n        /* \"#utility.yul\":3064:3191   */\n    tag_92:\n        /* \"#utility.yul\":3125:3135   */\n      0x4e487b71\n        /* \"#utility.yul\":3120:3123   */\n      0xe0\n        /* \"#utility.yul\":3116:3136   */\n      shl\n        /* \"#utility.yul\":3113:3114   */\n      0x00\n        /* \"#utility.yul\":3106:3137   */\n      mstore\n        /* \"#utility.yul\":3156:3160   */\n      0x11\n        /* \"#utility.yul\":3153:3154   */\n      0x04\n        /* \"#utility.yul\":3146:3161   */\n      mstore\n        /* \"#utility.yul\":3180:3184   */\n      0x24\n        /* \"#utility.yul\":3177:3178   */\n      0x00\n        /* \"#utility.yul\":3170:3185   */\n      revert\n        /* \"#utility.yul\":3196:3331   */\n    tag_55:\n        /* \"#utility.yul\":3235:3238   */\n      0x00\n        /* \"#utility.yul\":3256:3273   */\n      0x01\n      dup3\n      add\n        /* \"#utility.yul\":3253:3296   */\n      tag_116\n      jumpi\n        /* \"#utility.yul\":3276:3294   */\n      tag_116\n      tag_92\n      jump\t// in\n    tag_116:\n      pop\n        /* \"#utility.yul\":3323:3324   */\n      0x01\n        /* \"#utility.yul\":3312:3325   */\n      add\n      swap1\n        /* \"#utility.yul\":3196:3331   */\n      jump\t// out\n        /* \"#utility.yul\":3756:3881   */\n    tag_71:\n        /* \"#utility.yul\":3821:3830   */\n      dup1\n      dup3\n      add\n        /* \"#utility.yul\":3842:3852   */\n      dup1\n      dup3\n      gt\n        /* \"#utility.yul\":3839:3875   */\n      iszero\n      tag_120\n      jumpi\n        /* \"#utility.yul\":3855:3873   */\n      tag_120\n      tag_92\n      jump\t// in\n    tag_120:\n        /* \"#utility.yul\":3756:3881   */\n      swap3\n      swap2\n      pop\n      pop\n      jump\t// out\n\n    auxdata: 0xa2646970667358221220e7fb86668e2b138b7e961739c80e6f35f882fcc5746b1e43e633f1d87758bb9664736f6c63430008170033\n}\n",
				"bytecode": {
					"linkReferences": {},
					"object": "608060405234801561000f575f80fd5b505f80546001600160a01b031916331790556108998061002e5f395ff3fe608060405260043610610055575f3560e01c8063145381281461005e5780634d6ce1e5146100e75780635b6b431d146100fa57806382dec4801461010d5780638da5cb5b1461012057806399be33751461015657005b3661005c57005b005b348015610069575f80fd5b506100b3610078366004610771565b600160208181525f93845260408085209091529183529120805491810154600282015460039092015490916001600160a01b03908116911684565b6040805194855260208501939093526001600160a01b03918216928401929092521660608201526080015b60405180910390f35b61005c6100f5366004610799565b61018f565b61005c610108366004610799565b610349565b61005c61011b3660046107b0565b6105bb565b34801561012b575f80fd5b505f5461013e906001600160a01b031681565b6040516001600160a01b0390911681526020016100de565b348015610161575f80fd5b506101816101703660046107d6565b60026020525f908152604090205481565b6040519081526020016100de565b808034146101e45760405162461bcd60e51b815260206004820152601a60248201527f5468652076616c7565732073686f756c6420626520657175616c00000000000060448201526064015b60405180910390fd5b5f546001600160a01b0316331461020d5760405162461bcd60e51b81526004016101db906107ef565b34333110156102725760405162461bcd60e51b815260206004820152602b60248201527f596f752063616e6e6f74206465706f736974206d6f7265207468616e2077686160448201526a7420796f7520686176652160a81b60648201526084016101db565b335f90815260026020526040812080549161028c83610832565b9091555050335f818152600160208181526040808420600280845282862080548752919093528185203490819055815486528286209094018590558054855281852090920180546001600160a01b0319908116909617905590548352808320600301805430951685179055516108fc82150292818181858888f1935050505015801561031a573d5f803e3d5ffd5b5060405134907f6eab5bc43b55aaa4f54e4bd34037f8073f18af157c86b0a2646874a7b4dd4203905f90a25050565b808034146103995760405162461bcd60e51b815260206004820152601a60248201527f5468652076616c7565732073686f756c6420626520657175616c00000000000060448201526064016101db565b5f546001600160a01b031633146103c25760405162461bcd60e51b81526004016101db906107ef565b8147101561042e5760405162461bcd60e51b815260206004820152603360248201527f5468657265206973206e6f207375636820616d6f756e74206f66206d6f6e657960448201527220696e20736d61727420636f6e74726163742160681b60648201526084016101db565b5f60015b335f9081526002602052604090205481101561047657335f90815260016020908152604080832084845290915290205461046c908361084a565b9150600101610432565b50808311156104e15760405162461bcd60e51b815260206004820152603160248201527f596f752063616e6e6f74207769746864726177206d6f7265207468616e207768604482015270617420796f75206465706f73697465642160781b60648201526084016101db565b335f9081526002602052604081208054916104fb83610832565b9091555050335f8181526001602081815260408084206002808452828620805487529190935281852085905580548552818520909301889055825484528084209091018054306001600160a01b0319918216179091559154835280832060030180549092168417909155516108fc86150291869190818181858888f1935050505015801561058b573d5f803e3d5ffd5b5060405183907fc883f0a337643c38737954ca97943dc4b675f45ecde5a2f450f55371875641e3905f90a2505050565b5f546001600160a01b031633146105e45760405162461bcd60e51b81526004016101db906107ef565b806106315760405162461bcd60e51b815260206004820152601e60248201527f596f752073686f756c6420626520737572652061626f7574207468697321000060448201526064016101db565b5f60015b335f9081526002602052604090205481101561067957335f90815260016020908152604080832084845290915290205461066f908361084a565b9150600101610635565b50335f90815260026020526040812080549161069483610832565b9091555050335f81815260016020818152604080842060028084528286208054875291909352818520859055805485528185209093018690558254845280842090910180546001600160a01b031990811630179091559154835280832060030180549092168417909155514780156108fc0292909190818181858888f19350505050158015610725573d5f803e3d5ffd5b50604051821515907f1423ca3ba940e845379011b2f84bcd1f727e6fd3cf5af7ad9d6390975b9898bf905f90a25050565b80356001600160a01b038116811461076c575f80fd5b919050565b5f8060408385031215610782575f80fd5b61078b83610756565b946020939093013593505050565b5f602082840312156107a9575f80fd5b5035919050565b5f602082840312156107c0575f80fd5b813580151581146107cf575f80fd5b9392505050565b5f602082840312156107e6575f80fd5b6107cf82610756565b6020808252601590820152742cb7ba9030b932903737ba103a34329037bbb732b960591b604082015260600190565b634e487b7160e01b5f52601160045260245ffd5b5f600182016108435761084361081e565b5060010190565b8082018082111561085d5761085d61081e565b9291505056fea2646970667358221220e7fb86668e2b138b7e961739c80e6f35f882fcc5746b1e43e633f1d87758bb9664736f6c63430008170033",
					"opcodes": "PUSH1 0x80 PUSH1 0x40 MSTORE CALLVALUE DUP1 ISZERO PUSH2 0xF JUMPI PUSH0 DUP1 REVERT JUMPDEST POP PUSH0 DUP1 SLOAD PUSH1 0x1 PUSH1 0x1 PUSH1 0xA0 SHL SUB NOT AND CALLER OR SWAP1 SSTORE PUSH2 0x899 DUP1 PUSH2 0x2E PUSH0 CODECOPY PUSH0 RETURN INVALID PUSH1 0x80 PUSH1 0x40 MSTORE PUSH1 0x4 CALLDATASIZE LT PUSH2 0x55 JUMPI PUSH0 CALLDATALOAD PUSH1 0xE0 SHR DUP1 PUSH4 0x14538128 EQ PUSH2 0x5E JUMPI DUP1 PUSH4 0x4D6CE1E5 EQ PUSH2 0xE7 JUMPI DUP1 PUSH4 0x5B6B431D EQ PUSH2 0xFA JUMPI DUP1 PUSH4 0x82DEC480 EQ PUSH2 0x10D JUMPI DUP1 PUSH4 0x8DA5CB5B EQ PUSH2 0x120 JUMPI DUP1 PUSH4 0x99BE3375 EQ PUSH2 0x156 JUMPI STOP JUMPDEST CALLDATASIZE PUSH2 0x5C JUMPI STOP JUMPDEST STOP JUMPDEST CALLVALUE DUP1 ISZERO PUSH2 0x69 JUMPI PUSH0 DUP1 REVERT JUMPDEST POP PUSH2 0xB3 PUSH2 0x78 CALLDATASIZE PUSH1 0x4 PUSH2 0x771 JUMP JUMPDEST PUSH1 0x1 PUSH1 0x20 DUP2 DUP2 MSTORE PUSH0 SWAP4 DUP5 MSTORE PUSH1 0x40 DUP1 DUP6 KECCAK256 SWAP1 SWAP2 MSTORE SWAP2 DUP4 MSTORE SWAP2 KECCAK256 DUP1 SLOAD SWAP2 DUP2 ADD SLOAD PUSH1 0x2 DUP3 ADD SLOAD PUSH1 0x3 SWAP1 SWAP3 ADD SLOAD SWAP1 SWAP2 PUSH1 0x1 PUSH1 0x1 PUSH1 0xA0 SHL SUB SWAP1 DUP2 AND SWAP2 AND DUP5 JUMP JUMPDEST PUSH1 0x40 DUP1 MLOAD SWAP5 DUP6 MSTORE PUSH1 0x20 DUP6 ADD SWAP4 SWAP1 SWAP4 MSTORE PUSH1 0x1 PUSH1 0x1 PUSH1 0xA0 SHL SUB SWAP2 DUP3 AND SWAP3 DUP5 ADD SWAP3 SWAP1 SWAP3 MSTORE AND PUSH1 0x60 DUP3 ADD MSTORE PUSH1 0x80 ADD JUMPDEST PUSH1 0x40 MLOAD DUP1 SWAP2 SUB SWAP1 RETURN JUMPDEST PUSH2 0x5C PUSH2 0xF5 CALLDATASIZE PUSH1 0x4 PUSH2 0x799 JUMP JUMPDEST PUSH2 0x18F JUMP JUMPDEST PUSH2 0x5C PUSH2 0x108 CALLDATASIZE PUSH1 0x4 PUSH2 0x799 JUMP JUMPDEST PUSH2 0x349 JUMP JUMPDEST PUSH2 0x5C PUSH2 0x11B CALLDATASIZE PUSH1 0x4 PUSH2 0x7B0 JUMP JUMPDEST PUSH2 0x5BB JUMP JUMPDEST CALLVALUE DUP1 ISZERO PUSH2 0x12B JUMPI PUSH0 DUP1 REVERT JUMPDEST POP PUSH0 SLOAD PUSH2 0x13E SWAP1 PUSH1 0x1 PUSH1 0x1 PUSH1 0xA0 SHL SUB AND DUP2 JUMP JUMPDEST PUSH1 0x40 MLOAD PUSH1 0x1 PUSH1 0x1 PUSH1 0xA0 SHL SUB SWAP1 SWAP2 AND DUP2 MSTORE PUSH1 0x20 ADD PUSH2 0xDE JUMP JUMPDEST CALLVALUE DUP1 ISZERO PUSH2 0x161 JUMPI PUSH0 DUP1 REVERT JUMPDEST POP PUSH2 0x181 PUSH2 0x170 CALLDATASIZE PUSH1 0x4 PUSH2 0x7D6 JUMP JUMPDEST PUSH1 0x2 PUSH1 0x20 MSTORE PUSH0 SWAP1 DUP2 MSTORE PUSH1 0x40 SWAP1 KECCAK256 SLOAD DUP2 JUMP JUMPDEST PUSH1 0x40 MLOAD SWAP1 DUP2 MSTORE PUSH1 0x20 ADD PUSH2 0xDE JUMP JUMPDEST DUP1 DUP1 CALLVALUE EQ PUSH2 0x1E4 JUMPI PUSH1 0x40 MLOAD PUSH3 0x461BCD PUSH1 0xE5 SHL DUP2 MSTORE PUSH1 0x20 PUSH1 0x4 DUP3 ADD MSTORE PUSH1 0x1A PUSH1 0x24 DUP3 ADD MSTORE PUSH32 0x5468652076616C7565732073686F756C6420626520657175616C000000000000 PUSH1 0x44 DUP3 ADD MSTORE PUSH1 0x64 ADD JUMPDEST PUSH1 0x40 MLOAD DUP1 SWAP2 SUB SWAP1 REVERT JUMPDEST PUSH0 SLOAD PUSH1 0x1 PUSH1 0x1 PUSH1 0xA0 SHL SUB AND CALLER EQ PUSH2 0x20D JUMPI PUSH1 0x40 MLOAD PUSH3 0x461BCD PUSH1 0xE5 SHL DUP2 MSTORE PUSH1 0x4 ADD PUSH2 0x1DB SWAP1 PUSH2 0x7EF JUMP JUMPDEST CALLVALUE CALLER BALANCE LT ISZERO PUSH2 0x272 JUMPI PUSH1 0x40 MLOAD PUSH3 0x461BCD PUSH1 0xE5 SHL DUP2 MSTORE PUSH1 0x20 PUSH1 0x4 DUP3 ADD MSTORE PUSH1 0x2B PUSH1 0x24 DUP3 ADD MSTORE PUSH32 0x596F752063616E6E6F74206465706F736974206D6F7265207468616E20776861 PUSH1 0x44 DUP3 ADD MSTORE PUSH11 0x7420796F75206861766521 PUSH1 0xA8 SHL PUSH1 0x64 DUP3 ADD MSTORE PUSH1 0x84 ADD PUSH2 0x1DB JUMP JUMPDEST CALLER PUSH0 SWAP1 DUP2 MSTORE PUSH1 0x2 PUSH1 0x20 MSTORE PUSH1 0x40 DUP2 KECCAK256 DUP1 SLOAD SWAP2 PUSH2 0x28C DUP4 PUSH2 0x832 JUMP JUMPDEST SWAP1 SWAP2 SSTORE POP POP CALLER PUSH0 DUP2 DUP2 MSTORE PUSH1 0x1 PUSH1 0x20 DUP2 DUP2 MSTORE PUSH1 0x40 DUP1 DUP5 KECCAK256 PUSH1 0x2 DUP1 DUP5 MSTORE DUP3 DUP7 KECCAK256 DUP1 SLOAD DUP8 MSTORE SWAP2 SWAP1 SWAP4 MSTORE DUP2 DUP6 KECCAK256 CALLVALUE SWAP1 DUP2 SWAP1 SSTORE DUP2 SLOAD DUP7 MSTORE DUP3 DUP7 KECCAK256 SWAP1 SWAP5 ADD DUP6 SWAP1 SSTORE DUP1 SLOAD DUP6 MSTORE DUP2 DUP6 KECCAK256 SWAP1 SWAP3 ADD DUP1 SLOAD PUSH1 0x1 PUSH1 0x1 PUSH1 0xA0 SHL SUB NOT SWAP1 DUP2 AND SWAP1 SWAP7 OR SWAP1 SSTORE SWAP1 SLOAD DUP4 MSTORE DUP1 DUP4 KECCAK256 PUSH1 0x3 ADD DUP1 SLOAD ADDRESS SWAP6 AND DUP6 OR SWAP1 SSTORE MLOAD PUSH2 0x8FC DUP3 ISZERO MUL SWAP3 DUP2 DUP2 DUP2 DUP6 DUP9 DUP9 CALL SWAP4 POP POP POP POP ISZERO DUP1 ISZERO PUSH2 0x31A JUMPI RETURNDATASIZE PUSH0 DUP1 RETURNDATACOPY RETURNDATASIZE PUSH0 REVERT JUMPDEST POP PUSH1 0x40 MLOAD CALLVALUE SWAP1 PUSH32 0x6EAB5BC43B55AAA4F54E4BD34037F8073F18AF157C86B0A2646874A7B4DD4203 SWAP1 PUSH0 SWAP1 LOG2 POP POP JUMP JUMPDEST DUP1 DUP1 CALLVALUE EQ PUSH2 0x399 JUMPI PUSH1 0x40 MLOAD PUSH3 0x461BCD PUSH1 0xE5 SHL DUP2 MSTORE PUSH1 0x20 PUSH1 0x4 DUP3 ADD MSTORE PUSH1 0x1A PUSH1 0x24 DUP3 ADD MSTORE PUSH32 0x5468652076616C7565732073686F756C6420626520657175616C000000000000 PUSH1 0x44 DUP3 ADD MSTORE PUSH1 0x64 ADD PUSH2 0x1DB JUMP JUMPDEST PUSH0 SLOAD PUSH1 0x1 PUSH1 0x1 PUSH1 0xA0 SHL SUB AND CALLER EQ PUSH2 0x3C2 JUMPI PUSH1 0x40 MLOAD PUSH3 0x461BCD PUSH1 0xE5 SHL DUP2 MSTORE PUSH1 0x4 ADD PUSH2 0x1DB SWAP1 PUSH2 0x7EF JUMP JUMPDEST DUP2 SELFBALANCE LT ISZERO PUSH2 0x42E JUMPI PUSH1 0x40 MLOAD PUSH3 0x461BCD PUSH1 0xE5 SHL DUP2 MSTORE PUSH1 0x20 PUSH1 0x4 DUP3 ADD MSTORE PUSH1 0x33 PUSH1 0x24 DUP3 ADD MSTORE PUSH32 0x5468657265206973206E6F207375636820616D6F756E74206F66206D6F6E6579 PUSH1 0x44 DUP3 ADD MSTORE PUSH19 0x20696E20736D61727420636F6E747261637421 PUSH1 0x68 SHL PUSH1 0x64 DUP3 ADD MSTORE PUSH1 0x84 ADD PUSH2 0x1DB JUMP JUMPDEST PUSH0 PUSH1 0x1 JUMPDEST CALLER PUSH0 SWAP1 DUP2 MSTORE PUSH1 0x2 PUSH1 0x20 MSTORE PUSH1 0x40 SWAP1 KECCAK256 SLOAD DUP2 LT ISZERO PUSH2 0x476 JUMPI CALLER PUSH0 SWAP1 DUP2 MSTORE PUSH1 0x1 PUSH1 0x20 SWAP1 DUP2 MSTORE PUSH1 0x40 DUP1 DUP4 KECCAK256 DUP5 DUP5 MSTORE SWAP1 SWAP2 MSTORE SWAP1 KECCAK256 SLOAD PUSH2 0x46C SWAP1 DUP4 PUSH2 0x84A JUMP JUMPDEST SWAP2 POP PUSH1 0x1 ADD PUSH2 0x432 JUMP JUMPDEST POP DUP1 DUP4 GT ISZERO PUSH2 0x4E1 JUMPI PUSH1 0x40 MLOAD PUSH3 0x461BCD PUSH1 0xE5 SHL DUP2 MSTORE PUSH1 0x20 PUSH1 0x4 DUP3 ADD MSTORE PUSH1 0x31 PUSH1 0x24 DUP3 ADD MSTORE PUSH32 0x596F752063616E6E6F74207769746864726177206D6F7265207468616E207768 PUSH1 0x44 DUP3 ADD MSTORE PUSH17 0x617420796F75206465706F736974656421 PUSH1 0x78 SHL PUSH1 0x64 DUP3 ADD MSTORE PUSH1 0x84 ADD PUSH2 0x1DB JUMP JUMPDEST CALLER PUSH0 SWAP1 DUP2 MSTORE PUSH1 0x2 PUSH1 0x20 MSTORE PUSH1 0x40 DUP2 KECCAK256 DUP1 SLOAD SWAP2 PUSH2 0x4FB DUP4 PUSH2 0x832 JUMP JUMPDEST SWAP1 SWAP2 SSTORE POP POP CALLER PUSH0 DUP2 DUP2 MSTORE PUSH1 0x1 PUSH1 0x20 DUP2 DUP2 MSTORE PUSH1 0x40 DUP1 DUP5 KECCAK256 PUSH1 0x2 DUP1 DUP5 MSTORE DUP3 DUP7 KECCAK256 DUP1 SLOAD DUP8 MSTORE SWAP2 SWAP1 SWAP4 MSTORE DUP2 DUP6 KECCAK256 DUP6 SWAP1 SSTORE DUP1 SLOAD DUP6 MSTORE DUP2 DUP6 KECCAK256 SWAP1 SWAP4 ADD DUP9 SWAP1 SSTORE DUP3 SLOAD DUP5 MSTORE DUP1 DUP5 KECCAK256 SWAP1 SWAP2 ADD DUP1 SLOAD ADDRESS PUSH1 0x1 PUSH1 0x1 PUSH1 0xA0 SHL SUB NOT SWAP2 DUP3 AND OR SWAP1 SWAP2 SSTORE SWAP2 SLOAD DUP4 MSTORE DUP1 DUP4 KECCAK256 PUSH1 0x3 ADD DUP1 SLOAD SWAP1 SWAP3 AND DUP5 OR SWAP1 SWAP2 SSTORE MLOAD PUSH2 0x8FC DUP7 ISZERO MUL SWAP2 DUP7 SWAP2 SWAP1 DUP2 DUP2 DUP2 DUP6 DUP9 DUP9 CALL SWAP4 POP POP POP POP ISZERO DUP1 ISZERO PUSH2 0x58B JUMPI RETURNDATASIZE PUSH0 DUP1 RETURNDATACOPY RETURNDATASIZE PUSH0 REVERT JUMPDEST POP PUSH1 0x40 MLOAD DUP4 SWAP1 PUSH32 0xC883F0A337643C38737954CA97943DC4B675F45ECDE5A2F450F55371875641E3 SWAP1 PUSH0 SWAP1 LOG2 POP POP POP JUMP JUMPDEST PUSH0 SLOAD PUSH1 0x1 PUSH1 0x1 PUSH1 0xA0 SHL SUB AND CALLER EQ PUSH2 0x5E4 JUMPI PUSH1 0x40 MLOAD PUSH3 0x461BCD PUSH1 0xE5 SHL DUP2 MSTORE PUSH1 0x4 ADD PUSH2 0x1DB SWAP1 PUSH2 0x7EF JUMP JUMPDEST DUP1 PUSH2 0x631 JUMPI PUSH1 0x40 MLOAD PUSH3 0x461BCD PUSH1 0xE5 SHL DUP2 MSTORE PUSH1 0x20 PUSH1 0x4 DUP3 ADD MSTORE PUSH1 0x1E PUSH1 0x24 DUP3 ADD MSTORE PUSH32 0x596F752073686F756C6420626520737572652061626F75742074686973210000 PUSH1 0x44 DUP3 ADD MSTORE PUSH1 0x64 ADD PUSH2 0x1DB JUMP JUMPDEST PUSH0 PUSH1 0x1 JUMPDEST CALLER PUSH0 SWAP1 DUP2 MSTORE PUSH1 0x2 PUSH1 0x20 MSTORE PUSH1 0x40 SWAP1 KECCAK256 SLOAD DUP2 LT ISZERO PUSH2 0x679 JUMPI CALLER PUSH0 SWAP1 DUP2 MSTORE PUSH1 0x1 PUSH1 0x20 SWAP1 DUP2 MSTORE PUSH1 0x40 DUP1 DUP4 KECCAK256 DUP5 DUP5 MSTORE SWAP1 SWAP2 MSTORE SWAP1 KECCAK256 SLOAD PUSH2 0x66F SWAP1 DUP4 PUSH2 0x84A JUMP JUMPDEST SWAP2 POP PUSH1 0x1 ADD PUSH2 0x635 JUMP JUMPDEST POP CALLER PUSH0 SWAP1 DUP2 MSTORE PUSH1 0x2 PUSH1 0x20 MSTORE PUSH1 0x40 DUP2 KECCAK256 DUP1 SLOAD SWAP2 PUSH2 0x694 DUP4 PUSH2 0x832 JUMP JUMPDEST SWAP1 SWAP2 SSTORE POP POP CALLER PUSH0 DUP2 DUP2 MSTORE PUSH1 0x1 PUSH1 0x20 DUP2 DUP2 MSTORE PUSH1 0x40 DUP1 DUP5 KECCAK256 PUSH1 0x2 DUP1 DUP5 MSTORE DUP3 DUP7 KECCAK256 DUP1 SLOAD DUP8 MSTORE SWAP2 SWAP1 SWAP4 MSTORE DUP2 DUP6 KECCAK256 DUP6 SWAP1 SSTORE DUP1 SLOAD DUP6 MSTORE DUP2 DUP6 KECCAK256 SWAP1 SWAP4 ADD DUP7 SWAP1 SSTORE DUP3 SLOAD DUP5 MSTORE DUP1 DUP5 KECCAK256 SWAP1 SWAP2 ADD DUP1 SLOAD PUSH1 0x1 PUSH1 0x1 PUSH1 0xA0 SHL SUB NOT SWAP1 DUP2 AND ADDRESS OR SWAP1 SWAP2 SSTORE SWAP2 SLOAD DUP4 MSTORE DUP1 DUP4 KECCAK256 PUSH1 0x3 ADD DUP1 SLOAD SWAP1 SWAP3 AND DUP5 OR SWAP1 SWAP2 SSTORE MLOAD SELFBALANCE DUP1 ISZERO PUSH2 0x8FC MUL SWAP3 SWAP1 SWAP2 SWAP1 DUP2 DUP2 DUP2 DUP6 DUP9 DUP9 CALL SWAP4 POP POP POP POP ISZERO DUP1 ISZERO PUSH2 0x725 JUMPI RETURNDATASIZE PUSH0 DUP1 RETURNDATACOPY RETURNDATASIZE PUSH0 REVERT JUMPDEST POP PUSH1 0x40 MLOAD DUP3 ISZERO ISZERO SWAP1 PUSH32 0x1423CA3BA940E845379011B2F84BCD1F727E6FD3CF5AF7AD9D6390975B9898BF SWAP1 PUSH0 SWAP1 LOG2 POP POP JUMP JUMPDEST DUP1 CALLDATALOAD PUSH1 0x1 PUSH1 0x1 PUSH1 0xA0 SHL SUB DUP2 AND DUP2 EQ PUSH2 0x76C JUMPI PUSH0 DUP1 REVERT JUMPDEST SWAP2 SWAP1 POP JUMP JUMPDEST PUSH0 DUP1 PUSH1 0x40 DUP4 DUP6 SUB SLT ISZERO PUSH2 0x782 JUMPI PUSH0 DUP1 REVERT JUMPDEST PUSH2 0x78B DUP4 PUSH2 0x756 JUMP JUMPDEST SWAP5 PUSH1 0x20 SWAP4 SWAP1 SWAP4 ADD CALLDATALOAD SWAP4 POP POP POP JUMP JUMPDEST PUSH0 PUSH1 0x20 DUP3 DUP5 SUB SLT ISZERO PUSH2 0x7A9 JUMPI PUSH0 DUP1 REVERT JUMPDEST POP CALLDATALOAD SWAP2 SWAP1 POP JUMP JUMPDEST PUSH0 PUSH1 0x20 DUP3 DUP5 SUB SLT ISZERO PUSH2 0x7C0 JUMPI PUSH0 DUP1 REVERT JUMPDEST DUP2 CALLDATALOAD DUP1 ISZERO ISZERO DUP2 EQ PUSH2 0x7CF JUMPI PUSH0 DUP1 REVERT JUMPDEST SWAP4 SWAP3 POP POP POP JUMP JUMPDEST PUSH0 PUSH1 0x20 DUP3 DUP5 SUB SLT ISZERO PUSH2 0x7E6 JUMPI PUSH0 DUP1 REVERT JUMPDEST PUSH2 0x7CF DUP3 PUSH2 0x756 JUMP JUMPDEST PUSH1 0x20 DUP1 DUP3 MSTORE PUSH1 0x15 SWAP1 DUP3 ADD MSTORE PUSH21 0x2CB7BA9030B932903737BA103A34329037BBB732B9 PUSH1 0x59 SHL PUSH1 0x40 DUP3 ADD MSTORE PUSH1 0x60 ADD SWAP1 JUMP JUMPDEST PUSH4 0x4E487B71 PUSH1 0xE0 SHL PUSH0 MSTORE PUSH1 0x11 PUSH1 0x4 MSTORE PUSH1 0x24 PUSH0 REVERT JUMPDEST PUSH0 PUSH1 0x1 DUP3 ADD PUSH2 0x843 JUMPI PUSH2 0x843 PUSH2 0x81E JUMP JUMPDEST POP PUSH1 0x1 ADD SWAP1 JUMP JUMPDEST DUP1 DUP3 ADD DUP1 DUP3 GT ISZERO PUSH2 0x85D JUMPI PUSH2 0x85D PUSH2 0x81E JUMP JUMPDEST SWAP3 SWAP2 POP POP JUMP INVALID LOG2 PUSH5 0x6970667358 0x22 SLT KECCAK256 0xE7 0xFB DUP7 PUSH7 0x8E2B138B7E9617 CODECOPY 0xC8 0xE PUSH16 0x35F882FCC5746B1E43E633F1D87758BB SWAP7 PUSH5 0x736F6C6343 STOP ADDMOD OR STOP CALLER "
				},
				"gasEstimates": {
					"creation": {
						"codeDepositCost": "440200",
						"executionCost": "24706",
						"totalCost": "464906"
					},
					"external": {
						"": "182",
						"Deposit(uint256)": "infinite",
						"WidhtrawAll(bool)": "infinite",
						"Withdraw(uint256)": "infinite",
						"owner()": "2401",
						"transactionCount(address)": "2604",
						"transactions(address,uint256)": "9038"
					}
				},
				"methodIdentifiers": {
					"Deposit(uint256)": "4d6ce1e5",
					"WidhtrawAll(bool)": "82dec480",
					"Withdraw(uint256)": "5b6b431d",
					"owner()": "8da5cb5b",
					"transactionCount(address)": "99be3375",
					"transactions(address,uint256)": "14538128"
				}
			},
			"storageLayout": {
				"storage": [
					{
						"astId": 15,
						"contract": "contracts/Wallet.sol:Wallet",
						"label": "owner",
						"offset": 0,
						"slot": "0",
						"type": "t_address"
					},
					{
						"astId": 40,
						"contract": "contracts/Wallet.sol:Wallet",
						"label": "transactions",
						"offset": 0,
						"slot": "1",
						"type": "t_mapping(t_address,t_mapping(t_uint256,t_struct(Transaction)33_storage))"
					},
					{
						"astId": 44,
						"contract": "contracts/Wallet.sol:Wallet",
						"label": "transactionCount",
						"offset": 0,
						"slot": "2",
						"type": "t_mapping(t_address,t_uint256)"
					}
				],
				"types": {
					"t_address": {
						"encoding": "inplace",
						"label": "address",
						"numberOfBytes": "20"
					},
					"t_mapping(t_address,t_mapping(t_uint256,t_struct(Transaction)33_storage))": {
						"encoding": "mapping",
						"key": "t_address",
						"label": "mapping(address => mapping(uint256 => struct Wallet.Transaction))",
						"numberOfBytes": "32",
						"value": "t_mapping(t_uint256,t_struct(Transaction)33_storage)"
					},
					"t_mapping(t_address,t_uint256)": {
						"encoding": "mapping",
						"key": "t_address",
						"label": "mapping(address => uint256)",
						"numberOfBytes": "32",
						"value": "t_uint256"
					},
					"t_mapping(t_uint256,t_struct(Transaction)33_storage)": {
						"encoding": "mapping",
						"key": "t_uint256",
						"label": "mapping(uint256 => struct Wallet.Transaction)",
						"numberOfBytes": "32",
						"value": "t_struct(Transaction)33_storage"
					},
					"t_struct(Transaction)33_storage": {
						"encoding": "inplace",
						"label": "struct Wallet.Transaction",
						"members": [
							{
								"astId": 26,
								"contract": "contracts/Wallet.sol:Wallet",
								"label": "depositedAmount",
								"offset": 0,
								"slot": "0",
								"type": "t_uint256"
							},
							{
								"astId": 28,
								"contract": "contracts/Wallet.sol:Wallet",
								"label": "withdrawedAmount",
								"offset": 0,
								"slot": "1",
								"type": "t_uint256"
							},
							{
								"astId": 30,
								"contract": "contracts/Wallet.sol:Wallet",
								"label": "from",
								"offset": 0,
								"slot": "2",
								"type": "t_address"
							},
							{
								"astId": 32,
								"contract": "contracts/Wallet.sol:Wallet",
								"label": "to",
								"offset": 0,
								"slot": "3",
								"type": "t_address"
							}
						],
						"numberOfBytes": "128"
					},
					"t_uint256": {
						"encoding": "inplace",
						"label": "uint256",
						"numberOfBytes": "32"
					}
				}
			},
			"userdoc": {
				"kind": "user",
				"methods": {},
				"version": 1
			}
		}
	}
}