{
	"contracts/Start.sol": {
		"MyContract": {
			"abi": [
				{
					"inputs": [
						{
							"internalType": "string",
							"name": "secondString",
							"type": "string"
						}
					],
					"name": "compareString",
					"outputs": [
						{
							"internalType": "bool",
							"name": "",
							"type": "bool"
						}
					],
					"stateMutability": "view",
					"type": "function"
				},
				{
					"inputs": [],
					"name": "myAddress",
					"outputs": [
						{
							"internalType": "address",
							"name": "",
							"type": "address"
						}
					],
					"stateMutability": "view",
					"type": "function"
				},
				{
					"inputs": [],
					"name": "myBool",
					"outputs": [
						{
							"internalType": "bool",
							"name": "",
							"type": "bool"
						}
					],
					"stateMutability": "view",
					"type": "function"
				},
				{
					"inputs": [],
					"name": "myBytes",
					"outputs": [
						{
							"internalType": "bytes",
							"name": "",
							"type": "bytes"
						}
					],
					"stateMutability": "view",
					"type": "function"
				},
				{
					"inputs": [],
					"name": "myInt",
					"outputs": [
						{
							"internalType": "int256",
							"name": "",
							"type": "int256"
						}
					],
					"stateMutability": "view",
					"type": "function"
				},
				{
					"inputs": [],
					"name": "myString",
					"outputs": [
						{
							"internalType": "string",
							"name": "",
							"type": "string"
						}
					],
					"stateMutability": "view",
					"type": "function"
				},
				{
					"inputs": [],
					"name": "myUint",
					"outputs": [
						{
							"internalType": "uint256",
							"name": "",
							"type": "uint256"
						}
					],
					"stateMutability": "view",
					"type": "function"
				},
				{
					"inputs": [
						{
							"internalType": "address",
							"name": "_myAddress",
							"type": "address"
						}
					],
					"name": "setMyAddress",
					"outputs": [],
					"stateMutability": "nonpayable",
					"type": "function"
				},
				{
					"inputs": [
						{
							"internalType": "bool",
							"name": "_myBool",
							"type": "bool"
						}
					],
					"name": "setMyBool",
					"outputs": [],
					"stateMutability": "nonpayable",
					"type": "function"
				},
				{
					"inputs": [
						{
							"internalType": "bytes",
							"name": "_myBytes",
							"type": "bytes"
						}
					],
					"name": "setMyBytes",
					"outputs": [],
					"stateMutability": "nonpayable",
					"type": "function"
				},
				{
					"inputs": [
						{
							"internalType": "int256",
							"name": "_myInt",
							"type": "int256"
						}
					],
					"name": "setMyInt",
					"outputs": [],
					"stateMutability": "nonpayable",
					"type": "function"
				},
				{
					"inputs": [
						{
							"internalType": "string",
							"name": "_myString",
							"type": "string"
						}
					],
					"name": "setMyString",
					"outputs": [],
					"stateMutability": "nonpayable",
					"type": "function"
				},
				{
					"inputs": [
						{
							"internalType": "uint256",
							"name": "_myUint",
							"type": "uint256"
						}
					],
					"name": "setMyUint",
					"outputs": [],
					"stateMutability": "nonpayable",
					"type": "function"
				}
			],
			"devdoc": {
				"kind": "dev",
				"methods": {},
				"version": 1
			},
			"evm": {
				"assembly": "    /* \"contracts/Start.sol\":61:969  contract MyContract {... */\n  mstore(0x40, 0x80)\n  callvalue\n  dup1\n  iszero\n  tag_1\n  jumpi\n  0x00\n  dup1\n  revert\ntag_1:\n  pop\n  dataSize(sub_0)\n  dup1\n  dataOffset(sub_0)\n  0x00\n  codecopy\n  0x00\n  return\nstop\n\nsub_0: assembly {\n        /* \"contracts/Start.sol\":61:969  contract MyContract {... */\n      mstore(0x40, 0x80)\n      callvalue\n      dup1\n      iszero\n      tag_1\n      jumpi\n      0x00\n      dup1\n      revert\n    tag_1:\n      pop\n      jumpi(tag_2, lt(calldatasize, 0x04))\n      shr(0xe0, calldataload(0x00))\n      dup1\n      0x6deecdbe\n      gt\n      tag_16\n      jumpi\n      dup1\n      0x9cb61142\n      gt\n      tag_17\n      jumpi\n      dup1\n      0x9cb61142\n      eq\n      tag_12\n      jumpi\n      dup1\n      0xa8a7b895\n      eq\n      tag_13\n      jumpi\n      dup1\n      0xe492fd84\n      eq\n      tag_14\n      jumpi\n      dup1\n      0xeb1b30d9\n      eq\n      tag_15\n      jumpi\n      jump(tag_2)\n    tag_17:\n      dup1\n      0x6deecdbe\n      eq\n      tag_9\n      jumpi\n      dup1\n      0x712f4602\n      eq\n      tag_10\n      jumpi\n      dup1\n      0x82180568\n      eq\n      tag_11\n      jumpi\n      jump(tag_2)\n    tag_16:\n      dup1\n      0x06540f7e\n      eq\n      tag_3\n      jumpi\n      dup1\n      0x26b85ee1\n      eq\n      tag_4\n      jumpi\n      dup1\n      0x2cb777a6\n      eq\n      tag_5\n      jumpi\n      dup1\n      0x492bfa18\n      eq\n      tag_6\n      jumpi\n      dup1\n      0x5907432d\n      eq\n      tag_7\n      jumpi\n      dup1\n      0x5f6633bf\n      eq\n      tag_8\n      jumpi\n    tag_2:\n      0x00\n      dup1\n      revert\n        /* \"contracts/Start.sol\":114:132  uint public myUint */\n    tag_3:\n      tag_18\n      tag_19\n      jump\t// in\n    tag_18:\n      mload(0x40)\n      tag_20\n      swap2\n      swap1\n      tag_21\n      jump\t// in\n    tag_20:\n      mload(0x40)\n      dup1\n      swap2\n      sub\n      swap1\n      return\n        /* \"contracts/Start.sol\":218:242  address public myAddress */\n    tag_4:\n      tag_22\n      tag_23\n      jump\t// in\n    tag_22:\n      mload(0x40)\n      tag_24\n      swap2\n      swap1\n      tag_25\n      jump\t// in\n    tag_24:\n      mload(0x40)\n      dup1\n      swap2\n      sub\n      swap1\n      return\n        /* \"contracts/Start.sol\":139:155  int public myInt */\n    tag_5:\n      tag_26\n      tag_27\n      jump\t// in\n    tag_26:\n      mload(0x40)\n      tag_28\n      swap2\n      swap1\n      tag_29\n      jump\t// in\n    tag_28:\n      mload(0x40)\n      dup1\n      swap2\n      sub\n      swap1\n      return\n        /* \"contracts/Start.sol\":162:184  string public myString */\n    tag_6:\n      tag_30\n      tag_31\n      jump\t// in\n    tag_30:\n      mload(0x40)\n      tag_32\n      swap2\n      swap1\n      tag_33\n      jump\t// in\n    tag_32:\n      mload(0x40)\n      dup1\n      swap2\n      sub\n      swap1\n      return\n        /* \"contracts/Start.sol\":587:674  function setMyBytes(bytes memory _myBytes) public {... */\n    tag_7:\n      tag_34\n      0x04\n      dup1\n      calldatasize\n      sub\n      dup2\n      add\n      swap1\n      tag_35\n      swap2\n      swap1\n      tag_36\n      jump\t// in\n    tag_35:\n      tag_37\n      jump\t// in\n    tag_34:\n      stop\n        /* \"contracts/Start.sol\":413:483  function setMyInt(int _myInt) public {... */\n    tag_8:\n      tag_38\n      0x04\n      dup1\n      calldatasize\n      sub\n      dup2\n      add\n      swap1\n      tag_39\n      swap2\n      swap1\n      tag_40\n      jump\t// in\n    tag_39:\n      tag_41\n      jump\t// in\n    tag_38:\n      stop\n        /* \"contracts/Start.sol\":88:107  bool public  myBool */\n    tag_9:\n      tag_42\n      tag_43\n      jump\t// in\n    tag_42:\n      mload(0x40)\n      tag_44\n      swap2\n      swap1\n      tag_45\n      jump\t// in\n    tag_44:\n      mload(0x40)\n      dup1\n      swap2\n      sub\n      swap1\n      return\n        /* \"contracts/Start.sol\":191:211  bytes public myBytes */\n    tag_10:\n      tag_46\n      tag_47\n      jump\t// in\n    tag_46:\n      mload(0x40)\n      tag_48\n      swap2\n      swap1\n      tag_49\n      jump\t// in\n    tag_48:\n      mload(0x40)\n      dup1\n      swap2\n      sub\n      swap1\n      return\n        /* \"contracts/Start.sol\":489:581  function setMyString(string memory _myString) public {... */\n    tag_11:\n      tag_50\n      0x04\n      dup1\n      calldatasize\n      sub\n      dup2\n      add\n      swap1\n      tag_51\n      swap2\n      swap1\n      tag_52\n      jump\t// in\n    tag_51:\n      tag_53\n      jump\t// in\n    tag_50:\n      stop\n        /* \"contracts/Start.sol\":778:964  function compareString(string memory secondString) public view returns (bool) {... */\n    tag_12:\n      tag_54\n      0x04\n      dup1\n      calldatasize\n      sub\n      dup2\n      add\n      swap1\n      tag_55\n      swap2\n      swap1\n      tag_52\n      jump\t// in\n    tag_55:\n      tag_56\n      jump\t// in\n    tag_54:\n      mload(0x40)\n      tag_57\n      swap2\n      swap1\n      tag_45\n      jump\t// in\n    tag_57:\n      mload(0x40)\n      dup1\n      swap2\n      sub\n      swap1\n      return\n        /* \"contracts/Start.sol\":680:770  function setMyAddress(address _myAddress) public {... */\n    tag_13:\n      tag_58\n      0x04\n      dup1\n      calldatasize\n      sub\n      dup2\n      add\n      swap1\n      tag_59\n      swap2\n      swap1\n      tag_60\n      jump\t// in\n    tag_59:\n      tag_61\n      jump\t// in\n    tag_58:\n      stop\n        /* \"contracts/Start.sol\":332:407  function setMyUint(uint _myUint) public {... */\n    tag_14:\n      tag_62\n      0x04\n      dup1\n      calldatasize\n      sub\n      dup2\n      add\n      swap1\n      tag_63\n      swap2\n      swap1\n      tag_64\n      jump\t// in\n    tag_63:\n      tag_65\n      jump\t// in\n    tag_62:\n      stop\n        /* \"contracts/Start.sol\":251:326  function setMyBool(bool _myBool) public {... */\n    tag_15:\n      tag_66\n      0x04\n      dup1\n      calldatasize\n      sub\n      dup2\n      add\n      swap1\n      tag_67\n      swap2\n      swap1\n      tag_68\n      jump\t// in\n    tag_67:\n      tag_69\n      jump\t// in\n    tag_66:\n      stop\n        /* \"contracts/Start.sol\":114:132  uint public myUint */\n    tag_19:\n      sload(0x01)\n      dup2\n      jump\t// out\n        /* \"contracts/Start.sol\":218:242  address public myAddress */\n    tag_23:\n      0x05\n      0x00\n      swap1\n      sload\n      swap1\n      0x0100\n      exp\n      swap1\n      div\n      0xffffffffffffffffffffffffffffffffffffffff\n      and\n      dup2\n      jump\t// out\n        /* \"contracts/Start.sol\":139:155  int public myInt */\n    tag_27:\n      sload(0x02)\n      dup2\n      jump\t// out\n        /* \"contracts/Start.sol\":162:184  string public myString */\n    tag_31:\n      0x03\n      dup1\n      sload\n      tag_70\n      swap1\n      tag_71\n      jump\t// in\n    tag_70:\n      dup1\n      0x1f\n      add\n      0x20\n      dup1\n      swap2\n      div\n      mul\n      0x20\n      add\n      mload(0x40)\n      swap1\n      dup2\n      add\n      0x40\n      mstore\n      dup1\n      swap3\n      swap2\n      swap1\n      dup2\n      dup2\n      mstore\n      0x20\n      add\n      dup3\n      dup1\n      sload\n      tag_72\n      swap1\n      tag_71\n      jump\t// in\n    tag_72:\n      dup1\n      iszero\n      tag_73\n      jumpi\n      dup1\n      0x1f\n      lt\n      tag_74\n      jumpi\n      0x0100\n      dup1\n      dup4\n      sload\n      div\n      mul\n      dup4\n      mstore\n      swap2\n      0x20\n      add\n      swap2\n      jump(tag_73)\n    tag_74:\n      dup3\n      add\n      swap2\n      swap1\n      0x00\n      mstore\n      keccak256(0x00, 0x20)\n      swap1\n    tag_75:\n      dup2\n      sload\n      dup2\n      mstore\n      swap1\n      0x01\n      add\n      swap1\n      0x20\n      add\n      dup1\n      dup4\n      gt\n      tag_75\n      jumpi\n      dup3\n      swap1\n      sub\n      0x1f\n      and\n      dup3\n      add\n      swap2\n    tag_73:\n      pop\n      pop\n      pop\n      pop\n      pop\n      dup2\n      jump\t// out\n        /* \"contracts/Start.sol\":587:674  function setMyBytes(bytes memory _myBytes) public {... */\n    tag_37:\n        /* \"contracts/Start.sol\":658:666  _myBytes */\n      dup1\n        /* \"contracts/Start.sol\":648:655  myBytes */\n      0x04\n        /* \"contracts/Start.sol\":648:666  myBytes = _myBytes */\n      swap1\n      dup2\n      tag_77\n      swap2\n      swap1\n      tag_78\n      jump\t// in\n    tag_77:\n      pop\n        /* \"contracts/Start.sol\":587:674  function setMyBytes(bytes memory _myBytes) public {... */\n      pop\n      jump\t// out\n        /* \"contracts/Start.sol\":413:483  function setMyInt(int _myInt) public {... */\n    tag_41:\n        /* \"contracts/Start.sol\":469:475  _myInt */\n      dup1\n        /* \"contracts/Start.sol\":461:466  myInt */\n      0x02\n        /* \"contracts/Start.sol\":461:475  myInt = _myInt */\n      dup2\n      swap1\n      sstore\n      pop\n        /* \"contracts/Start.sol\":413:483  function setMyInt(int _myInt) public {... */\n      pop\n      jump\t// out\n        /* \"contracts/Start.sol\":88:107  bool public  myBool */\n    tag_43:\n      0x00\n      dup1\n      sload\n      swap1\n      0x0100\n      exp\n      swap1\n      div\n      0xff\n      and\n      dup2\n      jump\t// out\n        /* \"contracts/Start.sol\":191:211  bytes public myBytes */\n    tag_47:\n      0x04\n      dup1\n      sload\n      tag_80\n      swap1\n      tag_71\n      jump\t// in\n    tag_80:\n      dup1\n      0x1f\n      add\n      0x20\n      dup1\n      swap2\n      div\n      mul\n      0x20\n      add\n      mload(0x40)\n      swap1\n      dup2\n      add\n      0x40\n      mstore\n      dup1\n      swap3\n      swap2\n      swap1\n      dup2\n      dup2\n      mstore\n      0x20\n      add\n      dup3\n      dup1\n      sload\n      tag_81\n      swap1\n      tag_71\n      jump\t// in\n    tag_81:\n      dup1\n      iszero\n      tag_82\n      jumpi\n      dup1\n      0x1f\n      lt\n      tag_83\n      jumpi\n      0x0100\n      dup1\n      dup4\n      sload\n      div\n      mul\n      dup4\n      mstore\n      swap2\n      0x20\n      add\n      swap2\n      jump(tag_82)\n    tag_83:\n      dup3\n      add\n      swap2\n      swap1\n      0x00\n      mstore\n      keccak256(0x00, 0x20)\n      swap1\n    tag_84:\n      dup2\n      sload\n      dup2\n      mstore\n      swap1\n      0x01\n      add\n      swap1\n      0x20\n      add\n      dup1\n      dup4\n      gt\n      tag_84\n      jumpi\n      dup3\n      swap1\n      sub\n      0x1f\n      and\n      dup3\n      add\n      swap2\n    tag_82:\n      pop\n      pop\n      pop\n      pop\n      pop\n      dup2\n      jump\t// out\n        /* \"contracts/Start.sol\":489:581  function setMyString(string memory _myString) public {... */\n    tag_53:\n        /* \"contracts/Start.sol\":564:573  _myString */\n      dup1\n        /* \"contracts/Start.sol\":553:561  myString */\n      0x03\n        /* \"contracts/Start.sol\":553:573  myString = _myString */\n      swap1\n      dup2\n      tag_86\n      swap2\n      swap1\n      tag_87\n      jump\t// in\n    tag_86:\n      pop\n        /* \"contracts/Start.sol\":489:581  function setMyString(string memory _myString) public {... */\n      pop\n      jump\t// out\n        /* \"contracts/Start.sol\":778:964  function compareString(string memory secondString) public view returns (bool) {... */\n    tag_56:\n        /* \"contracts/Start.sol\":850:854  bool */\n      0x00\n        /* \"contracts/Start.sol\":942:954  secondString */\n      dup2\n        /* \"contracts/Start.sol\":925:955  abi.encodePacked(secondString) */\n      add(0x20, mload(0x40))\n      tag_89\n      swap2\n      swap1\n      tag_90\n      jump\t// in\n    tag_89:\n      mload(0x40)\n      0x20\n      dup2\n      dup4\n      sub\n      sub\n      dup2\n      mstore\n      swap1\n      0x40\n      mstore\n        /* \"contracts/Start.sol\":915:956  keccak256(abi.encodePacked(secondString)) */\n      dup1\n      mload\n      swap1\n      0x20\n      add\n      keccak256\n        /* \"contracts/Start.sol\":901:909  myString */\n      0x03\n        /* \"contracts/Start.sol\":884:910  abi.encodePacked(myString) */\n      add(0x20, mload(0x40))\n      tag_91\n      swap2\n      swap1\n      tag_92\n      jump\t// in\n    tag_91:\n      mload(0x40)\n      0x20\n      dup2\n      dup4\n      sub\n      sub\n      dup2\n      mstore\n      swap1\n      0x40\n      mstore\n        /* \"contracts/Start.sol\":874:911  keccak256(abi.encodePacked(myString)) */\n      dup1\n      mload\n      swap1\n      0x20\n      add\n      keccak256\n        /* \"contracts/Start.sol\":874:956  keccak256(abi.encodePacked(myString)) == keccak256(abi.encodePacked(secondString)) */\n      eq\n        /* \"contracts/Start.sol\":867:956  return keccak256(abi.encodePacked(myString)) == keccak256(abi.encodePacked(secondString)) */\n      swap1\n      pop\n        /* \"contracts/Start.sol\":778:964  function compareString(string memory secondString) public view returns (bool) {... */\n      swap2\n      swap1\n      pop\n      jump\t// out\n        /* \"contracts/Start.sol\":680:770  function setMyAddress(address _myAddress) public {... */\n    tag_61:\n        /* \"contracts/Start.sol\":752:762  _myAddress */\n      dup1\n        /* \"contracts/Start.sol\":740:749  myAddress */\n      0x05\n      0x00\n        /* \"contracts/Start.sol\":740:762  myAddress = _myAddress */\n      0x0100\n      exp\n      dup2\n      sload\n      dup2\n      0xffffffffffffffffffffffffffffffffffffffff\n      mul\n      not\n      and\n      swap1\n      dup4\n      0xffffffffffffffffffffffffffffffffffffffff\n      and\n      mul\n      or\n      swap1\n      sstore\n      pop\n        /* \"contracts/Start.sol\":680:770  function setMyAddress(address _myAddress) public {... */\n      pop\n      jump\t// out\n        /* \"contracts/Start.sol\":332:407  function setMyUint(uint _myUint) public {... */\n    tag_65:\n        /* \"contracts/Start.sol\":392:399  _myUint */\n      dup1\n        /* \"contracts/Start.sol\":383:389  myUint */\n      0x01\n        /* \"contracts/Start.sol\":383:399  myUint = _myUint */\n      dup2\n      swap1\n      sstore\n      pop\n        /* \"contracts/Start.sol\":332:407  function setMyUint(uint _myUint) public {... */\n      pop\n      jump\t// out\n        /* \"contracts/Start.sol\":251:326  function setMyBool(bool _myBool) public {... */\n    tag_69:\n        /* \"contracts/Start.sol\":311:318  _myBool */\n      dup1\n        /* \"contracts/Start.sol\":302:308  myBool */\n      0x00\n      dup1\n        /* \"contracts/Start.sol\":302:318  myBool = _myBool */\n      0x0100\n      exp\n      dup2\n      sload\n      dup2\n      0xff\n      mul\n      not\n      and\n      swap1\n      dup4\n      iszero\n      iszero\n      mul\n      or\n      swap1\n      sstore\n      pop\n        /* \"contracts/Start.sol\":251:326  function setMyBool(bool _myBool) public {... */\n      pop\n      jump\t// out\n        /* \"#utility.yul\":7:84   */\n    tag_96:\n        /* \"#utility.yul\":44:51   */\n      0x00\n        /* \"#utility.yul\":73:78   */\n      dup2\n        /* \"#utility.yul\":62:78   */\n      swap1\n      pop\n        /* \"#utility.yul\":7:84   */\n      swap2\n      swap1\n      pop\n      jump\t// out\n        /* \"#utility.yul\":90:208   */\n    tag_97:\n        /* \"#utility.yul\":177:201   */\n      tag_160\n        /* \"#utility.yul\":195:200   */\n      dup2\n        /* \"#utility.yul\":177:201   */\n      tag_96\n      jump\t// in\n    tag_160:\n        /* \"#utility.yul\":172:175   */\n      dup3\n        /* \"#utility.yul\":165:202   */\n      mstore\n        /* \"#utility.yul\":90:208   */\n      pop\n      pop\n      jump\t// out\n        /* \"#utility.yul\":214:436   */\n    tag_21:\n        /* \"#utility.yul\":307:311   */\n      0x00\n        /* \"#utility.yul\":345:347   */\n      0x20\n        /* \"#utility.yul\":334:343   */\n      dup3\n        /* \"#utility.yul\":330:348   */\n      add\n        /* \"#utility.yul\":322:348   */\n      swap1\n      pop\n        /* \"#utility.yul\":358:429   */\n      tag_162\n        /* \"#utility.yul\":426:427   */\n      0x00\n        /* \"#utility.yul\":415:424   */\n      dup4\n        /* \"#utility.yul\":411:428   */\n      add\n        /* \"#utility.yul\":402:408   */\n      dup5\n        /* \"#utility.yul\":358:429   */\n      tag_97\n      jump\t// in\n    tag_162:\n        /* \"#utility.yul\":214:436   */\n      swap3\n      swap2\n      pop\n      pop\n      jump\t// out\n        /* \"#utility.yul\":442:568   */\n    tag_98:\n        /* \"#utility.yul\":479:486   */\n      0x00\n        /* \"#utility.yul\":519:561   */\n      0xffffffffffffffffffffffffffffffffffffffff\n        /* \"#utility.yul\":512:517   */\n      dup3\n        /* \"#utility.yul\":508:562   */\n      and\n        /* \"#utility.yul\":497:562   */\n      swap1\n      pop\n        /* \"#utility.yul\":442:568   */\n      swap2\n      swap1\n      pop\n      jump\t// out\n        /* \"#utility.yul\":574:670   */\n    tag_99:\n        /* \"#utility.yul\":611:618   */\n      0x00\n        /* \"#utility.yul\":640:664   */\n      tag_165\n        /* \"#utility.yul\":658:663   */\n      dup3\n        /* \"#utility.yul\":640:664   */\n      tag_98\n      jump\t// in\n    tag_165:\n        /* \"#utility.yul\":629:664   */\n      swap1\n      pop\n        /* \"#utility.yul\":574:670   */\n      swap2\n      swap1\n      pop\n      jump\t// out\n        /* \"#utility.yul\":676:794   */\n    tag_100:\n        /* \"#utility.yul\":763:787   */\n      tag_167\n        /* \"#utility.yul\":781:786   */\n      dup2\n        /* \"#utility.yul\":763:787   */\n      tag_99\n      jump\t// in\n    tag_167:\n        /* \"#utility.yul\":758:761   */\n      dup3\n        /* \"#utility.yul\":751:788   */\n      mstore\n        /* \"#utility.yul\":676:794   */\n      pop\n      pop\n      jump\t// out\n        /* \"#utility.yul\":800:1022   */\n    tag_25:\n        /* \"#utility.yul\":893:897   */\n      0x00\n        /* \"#utility.yul\":931:933   */\n      0x20\n        /* \"#utility.yul\":920:929   */\n      dup3\n        /* \"#utility.yul\":916:934   */\n      add\n        /* \"#utility.yul\":908:934   */\n      swap1\n      pop\n        /* \"#utility.yul\":944:1015   */\n      tag_169\n        /* \"#utility.yul\":1012:1013   */\n      0x00\n        /* \"#utility.yul\":1001:1010   */\n      dup4\n        /* \"#utility.yul\":997:1014   */\n      add\n        /* \"#utility.yul\":988:994   */\n      dup5\n        /* \"#utility.yul\":944:1015   */\n      tag_100\n      jump\t// in\n    tag_169:\n        /* \"#utility.yul\":800:1022   */\n      swap3\n      swap2\n      pop\n      pop\n      jump\t// out\n        /* \"#utility.yul\":1028:1104   */\n    tag_101:\n        /* \"#utility.yul\":1064:1071   */\n      0x00\n        /* \"#utility.yul\":1093:1098   */\n      dup2\n        /* \"#utility.yul\":1082:1098   */\n      swap1\n      pop\n        /* \"#utility.yul\":1028:1104   */\n      swap2\n      swap1\n      pop\n      jump\t// out\n        /* \"#utility.yul\":1110:1225   */\n    tag_102:\n        /* \"#utility.yul\":1195:1218   */\n      tag_172\n        /* \"#utility.yul\":1212:1217   */\n      dup2\n        /* \"#utility.yul\":1195:1218   */\n      tag_101\n      jump\t// in\n    tag_172:\n        /* \"#utility.yul\":1190:1193   */\n      dup3\n        /* \"#utility.yul\":1183:1219   */\n      mstore\n        /* \"#utility.yul\":1110:1225   */\n      pop\n      pop\n      jump\t// out\n        /* \"#utility.yul\":1231:1449   */\n    tag_29:\n        /* \"#utility.yul\":1322:1326   */\n      0x00\n        /* \"#utility.yul\":1360:1362   */\n      0x20\n        /* \"#utility.yul\":1349:1358   */\n      dup3\n        /* \"#utility.yul\":1345:1363   */\n      add\n        /* \"#utility.yul\":1337:1363   */\n      swap1\n      pop\n        /* \"#utility.yul\":1373:1442   */\n      tag_174\n        /* \"#utility.yul\":1439:1440   */\n      0x00\n        /* \"#utility.yul\":1428:1437   */\n      dup4\n        /* \"#utility.yul\":1424:1441   */\n      add\n        /* \"#utility.yul\":1415:1421   */\n      dup5\n        /* \"#utility.yul\":1373:1442   */\n      tag_102\n      jump\t// in\n    tag_174:\n        /* \"#utility.yul\":1231:1449   */\n      swap3\n      swap2\n      pop\n      pop\n      jump\t// out\n        /* \"#utility.yul\":1455:1554   */\n    tag_103:\n        /* \"#utility.yul\":1507:1513   */\n      0x00\n        /* \"#utility.yul\":1541:1546   */\n      dup2\n        /* \"#utility.yul\":1535:1547   */\n      mload\n        /* \"#utility.yul\":1525:1547   */\n      swap1\n      pop\n        /* \"#utility.yul\":1455:1554   */\n      swap2\n      swap1\n      pop\n      jump\t// out\n        /* \"#utility.yul\":1560:1729   */\n    tag_104:\n        /* \"#utility.yul\":1644:1655   */\n      0x00\n        /* \"#utility.yul\":1678:1684   */\n      dup3\n        /* \"#utility.yul\":1673:1676   */\n      dup3\n        /* \"#utility.yul\":1666:1685   */\n      mstore\n        /* \"#utility.yul\":1718:1722   */\n      0x20\n        /* \"#utility.yul\":1713:1716   */\n      dup3\n        /* \"#utility.yul\":1709:1723   */\n      add\n        /* \"#utility.yul\":1694:1723   */\n      swap1\n      pop\n        /* \"#utility.yul\":1560:1729   */\n      swap3\n      swap2\n      pop\n      pop\n      jump\t// out\n        /* \"#utility.yul\":1735:1981   */\n    tag_105:\n        /* \"#utility.yul\":1816:1817   */\n      0x00\n        /* \"#utility.yul\":1826:1939   */\n    tag_178:\n        /* \"#utility.yul\":1840:1846   */\n      dup4\n        /* \"#utility.yul\":1837:1838   */\n      dup2\n        /* \"#utility.yul\":1834:1847   */\n      lt\n        /* \"#utility.yul\":1826:1939   */\n      iszero\n      tag_180\n      jumpi\n        /* \"#utility.yul\":1925:1926   */\n      dup1\n        /* \"#utility.yul\":1920:1923   */\n      dup3\n        /* \"#utility.yul\":1916:1927   */\n      add\n        /* \"#utility.yul\":1910:1928   */\n      mload\n        /* \"#utility.yul\":1906:1907   */\n      dup2\n        /* \"#utility.yul\":1901:1904   */\n      dup5\n        /* \"#utility.yul\":1897:1908   */\n      add\n        /* \"#utility.yul\":1890:1929   */\n      mstore\n        /* \"#utility.yul\":1862:1864   */\n      0x20\n        /* \"#utility.yul\":1859:1860   */\n      dup2\n        /* \"#utility.yul\":1855:1865   */\n      add\n        /* \"#utility.yul\":1850:1865   */\n      swap1\n      pop\n        /* \"#utility.yul\":1826:1939   */\n      jump(tag_178)\n    tag_180:\n        /* \"#utility.yul\":1973:1974   */\n      0x00\n        /* \"#utility.yul\":1964:1970   */\n      dup5\n        /* \"#utility.yul\":1959:1962   */\n      dup5\n        /* \"#utility.yul\":1955:1971   */\n      add\n        /* \"#utility.yul\":1948:1975   */\n      mstore\n        /* \"#utility.yul\":1797:1981   */\n      pop\n        /* \"#utility.yul\":1735:1981   */\n      pop\n      pop\n      pop\n      jump\t// out\n        /* \"#utility.yul\":1987:2089   */\n    tag_106:\n        /* \"#utility.yul\":2028:2034   */\n      0x00\n        /* \"#utility.yul\":2079:2081   */\n      0x1f\n        /* \"#utility.yul\":2075:2082   */\n      not\n        /* \"#utility.yul\":2070:2072   */\n      0x1f\n        /* \"#utility.yul\":2063:2068   */\n      dup4\n        /* \"#utility.yul\":2059:2073   */\n      add\n        /* \"#utility.yul\":2055:2083   */\n      and\n        /* \"#utility.yul\":2045:2083   */\n      swap1\n      pop\n        /* \"#utility.yul\":1987:2089   */\n      swap2\n      swap1\n      pop\n      jump\t// out\n        /* \"#utility.yul\":2095:2472   */\n    tag_107:\n        /* \"#utility.yul\":2183:2186   */\n      0x00\n        /* \"#utility.yul\":2211:2250   */\n      tag_183\n        /* \"#utility.yul\":2244:2249   */\n      dup3\n        /* \"#utility.yul\":2211:2250   */\n      tag_103\n      jump\t// in\n    tag_183:\n        /* \"#utility.yul\":2266:2337   */\n      tag_184\n        /* \"#utility.yul\":2330:2336   */\n      dup2\n        /* \"#utility.yul\":2325:2328   */\n      dup6\n        /* \"#utility.yul\":2266:2337   */\n      tag_104\n      jump\t// in\n    tag_184:\n        /* \"#utility.yul\":2259:2337   */\n      swap4\n      pop\n        /* \"#utility.yul\":2346:2411   */\n      tag_185\n        /* \"#utility.yul\":2404:2410   */\n      dup2\n        /* \"#utility.yul\":2399:2402   */\n      dup6\n        /* \"#utility.yul\":2392:2396   */\n      0x20\n        /* \"#utility.yul\":2385:2390   */\n      dup7\n        /* \"#utility.yul\":2381:2397   */\n      add\n        /* \"#utility.yul\":2346:2411   */\n      tag_105\n      jump\t// in\n    tag_185:\n        /* \"#utility.yul\":2436:2465   */\n      tag_186\n        /* \"#utility.yul\":2458:2464   */\n      dup2\n        /* \"#utility.yul\":2436:2465   */\n      tag_106\n      jump\t// in\n    tag_186:\n        /* \"#utility.yul\":2431:2434   */\n      dup5\n        /* \"#utility.yul\":2427:2466   */\n      add\n        /* \"#utility.yul\":2420:2466   */\n      swap2\n      pop\n        /* \"#utility.yul\":2187:2472   */\n      pop\n        /* \"#utility.yul\":2095:2472   */\n      swap3\n      swap2\n      pop\n      pop\n      jump\t// out\n        /* \"#utility.yul\":2478:2791   */\n    tag_33:\n        /* \"#utility.yul\":2591:2595   */\n      0x00\n        /* \"#utility.yul\":2629:2631   */\n      0x20\n        /* \"#utility.yul\":2618:2627   */\n      dup3\n        /* \"#utility.yul\":2614:2632   */\n      add\n        /* \"#utility.yul\":2606:2632   */\n      swap1\n      pop\n        /* \"#utility.yul\":2678:2687   */\n      dup2\n        /* \"#utility.yul\":2672:2676   */\n      dup2\n        /* \"#utility.yul\":2668:2688   */\n      sub\n        /* \"#utility.yul\":2664:2665   */\n      0x00\n        /* \"#utility.yul\":2653:2662   */\n      dup4\n        /* \"#utility.yul\":2649:2666   */\n      add\n        /* \"#utility.yul\":2642:2689   */\n      mstore\n        /* \"#utility.yul\":2706:2784   */\n      tag_188\n        /* \"#utility.yul\":2779:2783   */\n      dup2\n        /* \"#utility.yul\":2770:2776   */\n      dup5\n        /* \"#utility.yul\":2706:2784   */\n      tag_107\n      jump\t// in\n    tag_188:\n        /* \"#utility.yul\":2698:2784   */\n      swap1\n      pop\n        /* \"#utility.yul\":2478:2791   */\n      swap3\n      swap2\n      pop\n      pop\n      jump\t// out\n        /* \"#utility.yul\":2797:2872   */\n    tag_108:\n        /* \"#utility.yul\":2830:2836   */\n      0x00\n        /* \"#utility.yul\":2863:2865   */\n      0x40\n        /* \"#utility.yul\":2857:2866   */\n      mload\n        /* \"#utility.yul\":2847:2866   */\n      swap1\n      pop\n        /* \"#utility.yul\":2797:2872   */\n      swap1\n      jump\t// out\n        /* \"#utility.yul\":2878:2995   */\n    tag_109:\n        /* \"#utility.yul\":2987:2988   */\n      0x00\n        /* \"#utility.yul\":2984:2985   */\n      dup1\n        /* \"#utility.yul\":2977:2989   */\n      revert\n        /* \"#utility.yul\":3001:3118   */\n    tag_110:\n        /* \"#utility.yul\":3110:3111   */\n      0x00\n        /* \"#utility.yul\":3107:3108   */\n      dup1\n        /* \"#utility.yul\":3100:3112   */\n      revert\n        /* \"#utility.yul\":3124:3241   */\n    tag_111:\n        /* \"#utility.yul\":3233:3234   */\n      0x00\n        /* \"#utility.yul\":3230:3231   */\n      dup1\n        /* \"#utility.yul\":3223:3235   */\n      revert\n        /* \"#utility.yul\":3247:3364   */\n    tag_112:\n        /* \"#utility.yul\":3356:3357   */\n      0x00\n        /* \"#utility.yul\":3353:3354   */\n      dup1\n        /* \"#utility.yul\":3346:3358   */\n      revert\n        /* \"#utility.yul\":3370:3550   */\n    tag_113:\n        /* \"#utility.yul\":3418:3495   */\n      0x4e487b7100000000000000000000000000000000000000000000000000000000\n        /* \"#utility.yul\":3415:3416   */\n      0x00\n        /* \"#utility.yul\":3408:3496   */\n      mstore\n        /* \"#utility.yul\":3515:3519   */\n      0x41\n        /* \"#utility.yul\":3512:3513   */\n      0x04\n        /* \"#utility.yul\":3505:3520   */\n      mstore\n        /* \"#utility.yul\":3539:3543   */\n      0x24\n        /* \"#utility.yul\":3536:3537   */\n      0x00\n        /* \"#utility.yul\":3529:3544   */\n      revert\n        /* \"#utility.yul\":3556:3837   */\n    tag_114:\n        /* \"#utility.yul\":3639:3666   */\n      tag_196\n        /* \"#utility.yul\":3661:3665   */\n      dup3\n        /* \"#utility.yul\":3639:3666   */\n      tag_106\n      jump\t// in\n    tag_196:\n        /* \"#utility.yul\":3631:3637   */\n      dup2\n        /* \"#utility.yul\":3627:3667   */\n      add\n        /* \"#utility.yul\":3769:3775   */\n      dup2\n        /* \"#utility.yul\":3757:3767   */\n      dup2\n        /* \"#utility.yul\":3754:3776   */\n      lt\n        /* \"#utility.yul\":3733:3751   */\n      0xffffffffffffffff\n        /* \"#utility.yul\":3721:3731   */\n      dup3\n        /* \"#utility.yul\":3718:3752   */\n      gt\n        /* \"#utility.yul\":3715:3777   */\n      or\n        /* \"#utility.yul\":3712:3800   */\n      iszero\n      tag_197\n      jumpi\n        /* \"#utility.yul\":3780:3798   */\n      tag_198\n      tag_113\n      jump\t// in\n    tag_198:\n        /* \"#utility.yul\":3712:3800   */\n    tag_197:\n        /* \"#utility.yul\":3820:3830   */\n      dup1\n        /* \"#utility.yul\":3816:3818   */\n      0x40\n        /* \"#utility.yul\":3809:3831   */\n      mstore\n        /* \"#utility.yul\":3599:3837   */\n      pop\n        /* \"#utility.yul\":3556:3837   */\n      pop\n      pop\n      jump\t// out\n        /* \"#utility.yul\":3843:3972   */\n    tag_115:\n        /* \"#utility.yul\":3877:3883   */\n      0x00\n        /* \"#utility.yul\":3904:3924   */\n      tag_200\n      tag_108\n      jump\t// in\n    tag_200:\n        /* \"#utility.yul\":3894:3924   */\n      swap1\n      pop\n        /* \"#utility.yul\":3933:3966   */\n      tag_201\n        /* \"#utility.yul\":3961:3965   */\n      dup3\n        /* \"#utility.yul\":3953:3959   */\n      dup3\n        /* \"#utility.yul\":3933:3966   */\n      tag_114\n      jump\t// in\n    tag_201:\n        /* \"#utility.yul\":3843:3972   */\n      swap2\n      swap1\n      pop\n      jump\t// out\n        /* \"#utility.yul\":3978:4285   */\n    tag_116:\n        /* \"#utility.yul\":4039:4043   */\n      0x00\n        /* \"#utility.yul\":4129:4147   */\n      0xffffffffffffffff\n        /* \"#utility.yul\":4121:4127   */\n      dup3\n        /* \"#utility.yul\":4118:4148   */\n      gt\n        /* \"#utility.yul\":4115:4171   */\n      iszero\n      tag_203\n      jumpi\n        /* \"#utility.yul\":4151:4169   */\n      tag_204\n      tag_113\n      jump\t// in\n    tag_204:\n        /* \"#utility.yul\":4115:4171   */\n    tag_203:\n        /* \"#utility.yul\":4189:4218   */\n      tag_205\n        /* \"#utility.yul\":4211:4217   */\n      dup3\n        /* \"#utility.yul\":4189:4218   */\n      tag_106\n      jump\t// in\n    tag_205:\n        /* \"#utility.yul\":4181:4218   */\n      swap1\n      pop\n        /* \"#utility.yul\":4273:4277   */\n      0x20\n        /* \"#utility.yul\":4267:4271   */\n      dup2\n        /* \"#utility.yul\":4263:4278   */\n      add\n        /* \"#utility.yul\":4255:4278   */\n      swap1\n      pop\n        /* \"#utility.yul\":3978:4285   */\n      swap2\n      swap1\n      pop\n      jump\t// out\n        /* \"#utility.yul\":4291:4437   */\n    tag_117:\n        /* \"#utility.yul\":4388:4394   */\n      dup3\n        /* \"#utility.yul\":4383:4386   */\n      dup2\n        /* \"#utility.yul\":4378:4381   */\n      dup4\n        /* \"#utility.yul\":4365:4395   */\n      calldatacopy\n        /* \"#utility.yul\":4429:4430   */\n      0x00\n        /* \"#utility.yul\":4420:4426   */\n      dup4\n        /* \"#utility.yul\":4415:4418   */\n      dup4\n        /* \"#utility.yul\":4411:4427   */\n      add\n        /* \"#utility.yul\":4404:4431   */\n      mstore\n        /* \"#utility.yul\":4291:4437   */\n      pop\n      pop\n      pop\n      jump\t// out\n        /* \"#utility.yul\":4443:4866   */\n    tag_118:\n        /* \"#utility.yul\":4520:4525   */\n      0x00\n        /* \"#utility.yul\":4545:4610   */\n      tag_208\n        /* \"#utility.yul\":4561:4609   */\n      tag_209\n        /* \"#utility.yul\":4602:4608   */\n      dup5\n        /* \"#utility.yul\":4561:4609   */\n      tag_116\n      jump\t// in\n    tag_209:\n        /* \"#utility.yul\":4545:4610   */\n      tag_115\n      jump\t// in\n    tag_208:\n        /* \"#utility.yul\":4536:4610   */\n      swap1\n      pop\n        /* \"#utility.yul\":4633:4639   */\n      dup3\n        /* \"#utility.yul\":4626:4631   */\n      dup2\n        /* \"#utility.yul\":4619:4640   */\n      mstore\n        /* \"#utility.yul\":4671:4675   */\n      0x20\n        /* \"#utility.yul\":4664:4669   */\n      dup2\n        /* \"#utility.yul\":4660:4676   */\n      add\n        /* \"#utility.yul\":4709:4712   */\n      dup5\n        /* \"#utility.yul\":4700:4706   */\n      dup5\n        /* \"#utility.yul\":4695:4698   */\n      dup5\n        /* \"#utility.yul\":4691:4707   */\n      add\n        /* \"#utility.yul\":4688:4713   */\n      gt\n        /* \"#utility.yul\":4685:4797   */\n      iszero\n      tag_210\n      jumpi\n        /* \"#utility.yul\":4716:4795   */\n      tag_211\n      tag_112\n      jump\t// in\n    tag_211:\n        /* \"#utility.yul\":4685:4797   */\n    tag_210:\n        /* \"#utility.yul\":4806:4860   */\n      tag_212\n        /* \"#utility.yul\":4853:4859   */\n      dup5\n        /* \"#utility.yul\":4848:4851   */\n      dup3\n        /* \"#utility.yul\":4843:4846   */\n      dup6\n        /* \"#utility.yul\":4806:4860   */\n      tag_117\n      jump\t// in\n    tag_212:\n        /* \"#utility.yul\":4526:4866   */\n      pop\n        /* \"#utility.yul\":4443:4866   */\n      swap4\n      swap3\n      pop\n      pop\n      pop\n      jump\t// out\n        /* \"#utility.yul\":4885:5223   */\n    tag_119:\n        /* \"#utility.yul\":4940:4945   */\n      0x00\n        /* \"#utility.yul\":4989:4992   */\n      dup3\n        /* \"#utility.yul\":4982:4986   */\n      0x1f\n        /* \"#utility.yul\":4974:4980   */\n      dup4\n        /* \"#utility.yul\":4970:4987   */\n      add\n        /* \"#utility.yul\":4966:4993   */\n      slt\n        /* \"#utility.yul\":4956:5078   */\n      tag_214\n      jumpi\n        /* \"#utility.yul\":4997:5076   */\n      tag_215\n      tag_111\n      jump\t// in\n    tag_215:\n        /* \"#utility.yul\":4956:5078   */\n    tag_214:\n        /* \"#utility.yul\":5114:5120   */\n      dup2\n        /* \"#utility.yul\":5101:5121   */\n      calldataload\n        /* \"#utility.yul\":5139:5217   */\n      tag_216\n        /* \"#utility.yul\":5213:5216   */\n      dup5\n        /* \"#utility.yul\":5205:5211   */\n      dup3\n        /* \"#utility.yul\":5198:5202   */\n      0x20\n        /* \"#utility.yul\":5190:5196   */\n      dup7\n        /* \"#utility.yul\":5186:5203   */\n      add\n        /* \"#utility.yul\":5139:5217   */\n      tag_118\n      jump\t// in\n    tag_216:\n        /* \"#utility.yul\":5130:5217   */\n      swap2\n      pop\n        /* \"#utility.yul\":4946:5223   */\n      pop\n        /* \"#utility.yul\":4885:5223   */\n      swap3\n      swap2\n      pop\n      pop\n      jump\t// out\n        /* \"#utility.yul\":5229:5736   */\n    tag_36:\n        /* \"#utility.yul\":5297:5303   */\n      0x00\n        /* \"#utility.yul\":5346:5348   */\n      0x20\n        /* \"#utility.yul\":5334:5343   */\n      dup3\n        /* \"#utility.yul\":5325:5332   */\n      dup5\n        /* \"#utility.yul\":5321:5344   */\n      sub\n        /* \"#utility.yul\":5317:5349   */\n      slt\n        /* \"#utility.yul\":5314:5433   */\n      iszero\n      tag_218\n      jumpi\n        /* \"#utility.yul\":5352:5431   */\n      tag_219\n      tag_109\n      jump\t// in\n    tag_219:\n        /* \"#utility.yul\":5314:5433   */\n    tag_218:\n        /* \"#utility.yul\":5500:5501   */\n      0x00\n        /* \"#utility.yul\":5489:5498   */\n      dup3\n        /* \"#utility.yul\":5485:5502   */\n      add\n        /* \"#utility.yul\":5472:5503   */\n      calldataload\n        /* \"#utility.yul\":5530:5548   */\n      0xffffffffffffffff\n        /* \"#utility.yul\":5522:5528   */\n      dup2\n        /* \"#utility.yul\":5519:5549   */\n      gt\n        /* \"#utility.yul\":5516:5633   */\n      iszero\n      tag_220\n      jumpi\n        /* \"#utility.yul\":5552:5631   */\n      tag_221\n      tag_110\n      jump\t// in\n    tag_221:\n        /* \"#utility.yul\":5516:5633   */\n    tag_220:\n        /* \"#utility.yul\":5657:5719   */\n      tag_222\n        /* \"#utility.yul\":5711:5718   */\n      dup5\n        /* \"#utility.yul\":5702:5708   */\n      dup3\n        /* \"#utility.yul\":5691:5700   */\n      dup6\n        /* \"#utility.yul\":5687:5709   */\n      add\n        /* \"#utility.yul\":5657:5719   */\n      tag_119\n      jump\t// in\n    tag_222:\n        /* \"#utility.yul\":5647:5719   */\n      swap2\n      pop\n        /* \"#utility.yul\":5443:5729   */\n      pop\n        /* \"#utility.yul\":5229:5736   */\n      swap3\n      swap2\n      pop\n      pop\n      jump\t// out\n        /* \"#utility.yul\":5742:5862   */\n    tag_120:\n        /* \"#utility.yul\":5814:5837   */\n      tag_224\n        /* \"#utility.yul\":5831:5836   */\n      dup2\n        /* \"#utility.yul\":5814:5837   */\n      tag_101\n      jump\t// in\n    tag_224:\n        /* \"#utility.yul\":5807:5812   */\n      dup2\n        /* \"#utility.yul\":5804:5838   */\n      eq\n        /* \"#utility.yul\":5794:5856   */\n      tag_225\n      jumpi\n        /* \"#utility.yul\":5852:5853   */\n      0x00\n        /* \"#utility.yul\":5849:5850   */\n      dup1\n        /* \"#utility.yul\":5842:5854   */\n      revert\n        /* \"#utility.yul\":5794:5856   */\n    tag_225:\n        /* \"#utility.yul\":5742:5862   */\n      pop\n      jump\t// out\n        /* \"#utility.yul\":5868:6005   */\n    tag_121:\n        /* \"#utility.yul\":5913:5918   */\n      0x00\n        /* \"#utility.yul\":5951:5957   */\n      dup2\n        /* \"#utility.yul\":5938:5958   */\n      calldataload\n        /* \"#utility.yul\":5929:5958   */\n      swap1\n      pop\n        /* \"#utility.yul\":5967:5999   */\n      tag_227\n        /* \"#utility.yul\":5993:5998   */\n      dup2\n        /* \"#utility.yul\":5967:5999   */\n      tag_120\n      jump\t// in\n    tag_227:\n        /* \"#utility.yul\":5868:6005   */\n      swap3\n      swap2\n      pop\n      pop\n      jump\t// out\n        /* \"#utility.yul\":6011:6338   */\n    tag_40:\n        /* \"#utility.yul\":6069:6075   */\n      0x00\n        /* \"#utility.yul\":6118:6120   */\n      0x20\n        /* \"#utility.yul\":6106:6115   */\n      dup3\n        /* \"#utility.yul\":6097:6104   */\n      dup5\n        /* \"#utility.yul\":6093:6116   */\n      sub\n        /* \"#utility.yul\":6089:6121   */\n      slt\n        /* \"#utility.yul\":6086:6205   */\n      iszero\n      tag_229\n      jumpi\n        /* \"#utility.yul\":6124:6203   */\n      tag_230\n      tag_109\n      jump\t// in\n    tag_230:\n        /* \"#utility.yul\":6086:6205   */\n    tag_229:\n        /* \"#utility.yul\":6244:6245   */\n      0x00\n        /* \"#utility.yul\":6269:6321   */\n      tag_231\n        /* \"#utility.yul\":6313:6320   */\n      dup5\n        /* \"#utility.yul\":6304:6310   */\n      dup3\n        /* \"#utility.yul\":6293:6302   */\n      dup6\n        /* \"#utility.yul\":6289:6311   */\n      add\n        /* \"#utility.yul\":6269:6321   */\n      tag_121\n      jump\t// in\n    tag_231:\n        /* \"#utility.yul\":6259:6321   */\n      swap2\n      pop\n        /* \"#utility.yul\":6215:6331   */\n      pop\n        /* \"#utility.yul\":6011:6338   */\n      swap3\n      swap2\n      pop\n      pop\n      jump\t// out\n        /* \"#utility.yul\":6344:6434   */\n    tag_122:\n        /* \"#utility.yul\":6378:6385   */\n      0x00\n        /* \"#utility.yul\":6421:6426   */\n      dup2\n        /* \"#utility.yul\":6414:6427   */\n      iszero\n        /* \"#utility.yul\":6407:6428   */\n      iszero\n        /* \"#utility.yul\":6396:6428   */\n      swap1\n      pop\n        /* \"#utility.yul\":6344:6434   */\n      swap2\n      swap1\n      pop\n      jump\t// out\n        /* \"#utility.yul\":6440:6549   */\n    tag_123:\n        /* \"#utility.yul\":6521:6542   */\n      tag_234\n        /* \"#utility.yul\":6536:6541   */\n      dup2\n        /* \"#utility.yul\":6521:6542   */\n      tag_122\n      jump\t// in\n    tag_234:\n        /* \"#utility.yul\":6516:6519   */\n      dup3\n        /* \"#utility.yul\":6509:6543   */\n      mstore\n        /* \"#utility.yul\":6440:6549   */\n      pop\n      pop\n      jump\t// out\n        /* \"#utility.yul\":6555:6765   */\n    tag_45:\n        /* \"#utility.yul\":6642:6646   */\n      0x00\n        /* \"#utility.yul\":6680:6682   */\n      0x20\n        /* \"#utility.yul\":6669:6678   */\n      dup3\n        /* \"#utility.yul\":6665:6683   */\n      add\n        /* \"#utility.yul\":6657:6683   */\n      swap1\n      pop\n        /* \"#utility.yul\":6693:6758   */\n      tag_236\n        /* \"#utility.yul\":6755:6756   */\n      0x00\n        /* \"#utility.yul\":6744:6753   */\n      dup4\n        /* \"#utility.yul\":6740:6757   */\n      add\n        /* \"#utility.yul\":6731:6737   */\n      dup5\n        /* \"#utility.yul\":6693:6758   */\n      tag_123\n      jump\t// in\n    tag_236:\n        /* \"#utility.yul\":6555:6765   */\n      swap3\n      swap2\n      pop\n      pop\n      jump\t// out\n        /* \"#utility.yul\":6771:6869   */\n    tag_124:\n        /* \"#utility.yul\":6822:6828   */\n      0x00\n        /* \"#utility.yul\":6856:6861   */\n      dup2\n        /* \"#utility.yul\":6850:6862   */\n      mload\n        /* \"#utility.yul\":6840:6862   */\n      swap1\n      pop\n        /* \"#utility.yul\":6771:6869   */\n      swap2\n      swap1\n      pop\n      jump\t// out\n        /* \"#utility.yul\":6875:7043   */\n    tag_125:\n        /* \"#utility.yul\":6958:6969   */\n      0x00\n        /* \"#utility.yul\":6992:6998   */\n      dup3\n        /* \"#utility.yul\":6987:6990   */\n      dup3\n        /* \"#utility.yul\":6980:6999   */\n      mstore\n        /* \"#utility.yul\":7032:7036   */\n      0x20\n        /* \"#utility.yul\":7027:7030   */\n      dup3\n        /* \"#utility.yul\":7023:7037   */\n      add\n        /* \"#utility.yul\":7008:7037   */\n      swap1\n      pop\n        /* \"#utility.yul\":6875:7043   */\n      swap3\n      swap2\n      pop\n      pop\n      jump\t// out\n        /* \"#utility.yul\":7049:7422   */\n    tag_126:\n        /* \"#utility.yul\":7135:7138   */\n      0x00\n        /* \"#utility.yul\":7163:7201   */\n      tag_240\n        /* \"#utility.yul\":7195:7200   */\n      dup3\n        /* \"#utility.yul\":7163:7201   */\n      tag_124\n      jump\t// in\n    tag_240:\n        /* \"#utility.yul\":7217:7287   */\n      tag_241\n        /* \"#utility.yul\":7280:7286   */\n      dup2\n        /* \"#utility.yul\":7275:7278   */\n      dup6\n        /* \"#utility.yul\":7217:7287   */\n      tag_125\n      jump\t// in\n    tag_241:\n        /* \"#utility.yul\":7210:7287   */\n      swap4\n      pop\n        /* \"#utility.yul\":7296:7361   */\n      tag_242\n        /* \"#utility.yul\":7354:7360   */\n      dup2\n        /* \"#utility.yul\":7349:7352   */\n      dup6\n        /* \"#utility.yul\":7342:7346   */\n      0x20\n        /* \"#utility.yul\":7335:7340   */\n      dup7\n        /* \"#utility.yul\":7331:7347   */\n      add\n        /* \"#utility.yul\":7296:7361   */\n      tag_105\n      jump\t// in\n    tag_242:\n        /* \"#utility.yul\":7386:7415   */\n      tag_243\n        /* \"#utility.yul\":7408:7414   */\n      dup2\n        /* \"#utility.yul\":7386:7415   */\n      tag_106\n      jump\t// in\n    tag_243:\n        /* \"#utility.yul\":7381:7384   */\n      dup5\n        /* \"#utility.yul\":7377:7416   */\n      add\n        /* \"#utility.yul\":7370:7416   */\n      swap2\n      pop\n        /* \"#utility.yul\":7139:7422   */\n      pop\n        /* \"#utility.yul\":7049:7422   */\n      swap3\n      swap2\n      pop\n      pop\n      jump\t// out\n        /* \"#utility.yul\":7428:7737   */\n    tag_49:\n        /* \"#utility.yul\":7539:7543   */\n      0x00\n        /* \"#utility.yul\":7577:7579   */\n      0x20\n        /* \"#utility.yul\":7566:7575   */\n      dup3\n        /* \"#utility.yul\":7562:7580   */\n      add\n        /* \"#utility.yul\":7554:7580   */\n      swap1\n      pop\n        /* \"#utility.yul\":7626:7635   */\n      dup2\n        /* \"#utility.yul\":7620:7624   */\n      dup2\n        /* \"#utility.yul\":7616:7636   */\n      sub\n        /* \"#utility.yul\":7612:7613   */\n      0x00\n        /* \"#utility.yul\":7601:7610   */\n      dup4\n        /* \"#utility.yul\":7597:7614   */\n      add\n        /* \"#utility.yul\":7590:7637   */\n      mstore\n        /* \"#utility.yul\":7654:7730   */\n      tag_245\n        /* \"#utility.yul\":7725:7729   */\n      dup2\n        /* \"#utility.yul\":7716:7722   */\n      dup5\n        /* \"#utility.yul\":7654:7730   */\n      tag_126\n      jump\t// in\n    tag_245:\n        /* \"#utility.yul\":7646:7730   */\n      swap1\n      pop\n        /* \"#utility.yul\":7428:7737   */\n      swap3\n      swap2\n      pop\n      pop\n      jump\t// out\n        /* \"#utility.yul\":7743:8051   */\n    tag_127:\n        /* \"#utility.yul\":7805:7809   */\n      0x00\n        /* \"#utility.yul\":7895:7913   */\n      0xffffffffffffffff\n        /* \"#utility.yul\":7887:7893   */\n      dup3\n        /* \"#utility.yul\":7884:7914   */\n      gt\n        /* \"#utility.yul\":7881:7937   */\n      iszero\n      tag_247\n      jumpi\n        /* \"#utility.yul\":7917:7935   */\n      tag_248\n      tag_113\n      jump\t// in\n    tag_248:\n        /* \"#utility.yul\":7881:7937   */\n    tag_247:\n        /* \"#utility.yul\":7955:7984   */\n      tag_249\n        /* \"#utility.yul\":7977:7983   */\n      dup3\n        /* \"#utility.yul\":7955:7984   */\n      tag_106\n      jump\t// in\n    tag_249:\n        /* \"#utility.yul\":7947:7984   */\n      swap1\n      pop\n        /* \"#utility.yul\":8039:8043   */\n      0x20\n        /* \"#utility.yul\":8033:8037   */\n      dup2\n        /* \"#utility.yul\":8029:8044   */\n      add\n        /* \"#utility.yul\":8021:8044   */\n      swap1\n      pop\n        /* \"#utility.yul\":7743:8051   */\n      swap2\n      swap1\n      pop\n      jump\t// out\n        /* \"#utility.yul\":8057:8482   */\n    tag_128:\n        /* \"#utility.yul\":8135:8140   */\n      0x00\n        /* \"#utility.yul\":8160:8226   */\n      tag_251\n        /* \"#utility.yul\":8176:8225   */\n      tag_252\n        /* \"#utility.yul\":8218:8224   */\n      dup5\n        /* \"#utility.yul\":8176:8225   */\n      tag_127\n      jump\t// in\n    tag_252:\n        /* \"#utility.yul\":8160:8226   */\n      tag_115\n      jump\t// in\n    tag_251:\n        /* \"#utility.yul\":8151:8226   */\n      swap1\n      pop\n        /* \"#utility.yul\":8249:8255   */\n      dup3\n        /* \"#utility.yul\":8242:8247   */\n      dup2\n        /* \"#utility.yul\":8235:8256   */\n      mstore\n        /* \"#utility.yul\":8287:8291   */\n      0x20\n        /* \"#utility.yul\":8280:8285   */\n      dup2\n        /* \"#utility.yul\":8276:8292   */\n      add\n        /* \"#utility.yul\":8325:8328   */\n      dup5\n        /* \"#utility.yul\":8316:8322   */\n      dup5\n        /* \"#utility.yul\":8311:8314   */\n      dup5\n        /* \"#utility.yul\":8307:8323   */\n      add\n        /* \"#utility.yul\":8304:8329   */\n      gt\n        /* \"#utility.yul\":8301:8413   */\n      iszero\n      tag_253\n      jumpi\n        /* \"#utility.yul\":8332:8411   */\n      tag_254\n      tag_112\n      jump\t// in\n    tag_254:\n        /* \"#utility.yul\":8301:8413   */\n    tag_253:\n        /* \"#utility.yul\":8422:8476   */\n      tag_255\n        /* \"#utility.yul\":8469:8475   */\n      dup5\n        /* \"#utility.yul\":8464:8467   */\n      dup3\n        /* \"#utility.yul\":8459:8462   */\n      dup6\n        /* \"#utility.yul\":8422:8476   */\n      tag_117\n      jump\t// in\n    tag_255:\n        /* \"#utility.yul\":8141:8482   */\n      pop\n        /* \"#utility.yul\":8057:8482   */\n      swap4\n      swap3\n      pop\n      pop\n      pop\n      jump\t// out\n        /* \"#utility.yul\":8502:8842   */\n    tag_129:\n        /* \"#utility.yul\":8558:8563   */\n      0x00\n        /* \"#utility.yul\":8607:8610   */\n      dup3\n        /* \"#utility.yul\":8600:8604   */\n      0x1f\n        /* \"#utility.yul\":8592:8598   */\n      dup4\n        /* \"#utility.yul\":8588:8605   */\n      add\n        /* \"#utility.yul\":8584:8611   */\n      slt\n        /* \"#utility.yul\":8574:8696   */\n      tag_257\n      jumpi\n        /* \"#utility.yul\":8615:8694   */\n      tag_258\n      tag_111\n      jump\t// in\n    tag_258:\n        /* \"#utility.yul\":8574:8696   */\n    tag_257:\n        /* \"#utility.yul\":8732:8738   */\n      dup2\n        /* \"#utility.yul\":8719:8739   */\n      calldataload\n        /* \"#utility.yul\":8757:8836   */\n      tag_259\n        /* \"#utility.yul\":8832:8835   */\n      dup5\n        /* \"#utility.yul\":8824:8830   */\n      dup3\n        /* \"#utility.yul\":8817:8821   */\n      0x20\n        /* \"#utility.yul\":8809:8815   */\n      dup7\n        /* \"#utility.yul\":8805:8822   */\n      add\n        /* \"#utility.yul\":8757:8836   */\n      tag_128\n      jump\t// in\n    tag_259:\n        /* \"#utility.yul\":8748:8836   */\n      swap2\n      pop\n        /* \"#utility.yul\":8564:8842   */\n      pop\n        /* \"#utility.yul\":8502:8842   */\n      swap3\n      swap2\n      pop\n      pop\n      jump\t// out\n        /* \"#utility.yul\":8848:9357   */\n    tag_52:\n        /* \"#utility.yul\":8917:8923   */\n      0x00\n        /* \"#utility.yul\":8966:8968   */\n      0x20\n        /* \"#utility.yul\":8954:8963   */\n      dup3\n        /* \"#utility.yul\":8945:8952   */\n      dup5\n        /* \"#utility.yul\":8941:8964   */\n      sub\n        /* \"#utility.yul\":8937:8969   */\n      slt\n        /* \"#utility.yul\":8934:9053   */\n      iszero\n      tag_261\n      jumpi\n        /* \"#utility.yul\":8972:9051   */\n      tag_262\n      tag_109\n      jump\t// in\n    tag_262:\n        /* \"#utility.yul\":8934:9053   */\n    tag_261:\n        /* \"#utility.yul\":9120:9121   */\n      0x00\n        /* \"#utility.yul\":9109:9118   */\n      dup3\n        /* \"#utility.yul\":9105:9122   */\n      add\n        /* \"#utility.yul\":9092:9123   */\n      calldataload\n        /* \"#utility.yul\":9150:9168   */\n      0xffffffffffffffff\n        /* \"#utility.yul\":9142:9148   */\n      dup2\n        /* \"#utility.yul\":9139:9169   */\n      gt\n        /* \"#utility.yul\":9136:9253   */\n      iszero\n      tag_263\n      jumpi\n        /* \"#utility.yul\":9172:9251   */\n      tag_264\n      tag_110\n      jump\t// in\n    tag_264:\n        /* \"#utility.yul\":9136:9253   */\n    tag_263:\n        /* \"#utility.yul\":9277:9340   */\n      tag_265\n        /* \"#utility.yul\":9332:9339   */\n      dup5\n        /* \"#utility.yul\":9323:9329   */\n      dup3\n        /* \"#utility.yul\":9312:9321   */\n      dup6\n        /* \"#utility.yul\":9308:9330   */\n      add\n        /* \"#utility.yul\":9277:9340   */\n      tag_129\n      jump\t// in\n    tag_265:\n        /* \"#utility.yul\":9267:9340   */\n      swap2\n      pop\n        /* \"#utility.yul\":9063:9350   */\n      pop\n        /* \"#utility.yul\":8848:9357   */\n      swap3\n      swap2\n      pop\n      pop\n      jump\t// out\n        /* \"#utility.yul\":9363:9485   */\n    tag_130:\n        /* \"#utility.yul\":9436:9460   */\n      tag_267\n        /* \"#utility.yul\":9454:9459   */\n      dup2\n        /* \"#utility.yul\":9436:9460   */\n      tag_99\n      jump\t// in\n    tag_267:\n        /* \"#utility.yul\":9429:9434   */\n      dup2\n        /* \"#utility.yul\":9426:9461   */\n      eq\n        /* \"#utility.yul\":9416:9479   */\n      tag_268\n      jumpi\n        /* \"#utility.yul\":9475:9476   */\n      0x00\n        /* \"#utility.yul\":9472:9473   */\n      dup1\n        /* \"#utility.yul\":9465:9477   */\n      revert\n        /* \"#utility.yul\":9416:9479   */\n    tag_268:\n        /* \"#utility.yul\":9363:9485   */\n      pop\n      jump\t// out\n        /* \"#utility.yul\":9491:9630   */\n    tag_131:\n        /* \"#utility.yul\":9537:9542   */\n      0x00\n        /* \"#utility.yul\":9575:9581   */\n      dup2\n        /* \"#utility.yul\":9562:9582   */\n      calldataload\n        /* \"#utility.yul\":9553:9582   */\n      swap1\n      pop\n        /* \"#utility.yul\":9591:9624   */\n      tag_270\n        /* \"#utility.yul\":9618:9623   */\n      dup2\n        /* \"#utility.yul\":9591:9624   */\n      tag_130\n      jump\t// in\n    tag_270:\n        /* \"#utility.yul\":9491:9630   */\n      swap3\n      swap2\n      pop\n      pop\n      jump\t// out\n        /* \"#utility.yul\":9636:9965   */\n    tag_60:\n        /* \"#utility.yul\":9695:9701   */\n      0x00\n        /* \"#utility.yul\":9744:9746   */\n      0x20\n        /* \"#utility.yul\":9732:9741   */\n      dup3\n        /* \"#utility.yul\":9723:9730   */\n      dup5\n        /* \"#utility.yul\":9719:9742   */\n      sub\n        /* \"#utility.yul\":9715:9747   */\n      slt\n        /* \"#utility.yul\":9712:9831   */\n      iszero\n      tag_272\n      jumpi\n        /* \"#utility.yul\":9750:9829   */\n      tag_273\n      tag_109\n      jump\t// in\n    tag_273:\n        /* \"#utility.yul\":9712:9831   */\n    tag_272:\n        /* \"#utility.yul\":9870:9871   */\n      0x00\n        /* \"#utility.yul\":9895:9948   */\n      tag_274\n        /* \"#utility.yul\":9940:9947   */\n      dup5\n        /* \"#utility.yul\":9931:9937   */\n      dup3\n        /* \"#utility.yul\":9920:9929   */\n      dup6\n        /* \"#utility.yul\":9916:9938   */\n      add\n        /* \"#utility.yul\":9895:9948   */\n      tag_131\n      jump\t// in\n    tag_274:\n        /* \"#utility.yul\":9885:9948   */\n      swap2\n      pop\n        /* \"#utility.yul\":9841:9958   */\n      pop\n        /* \"#utility.yul\":9636:9965   */\n      swap3\n      swap2\n      pop\n      pop\n      jump\t// out\n        /* \"#utility.yul\":9971:10093   */\n    tag_132:\n        /* \"#utility.yul\":10044:10068   */\n      tag_276\n        /* \"#utility.yul\":10062:10067   */\n      dup2\n        /* \"#utility.yul\":10044:10068   */\n      tag_96\n      jump\t// in\n    tag_276:\n        /* \"#utility.yul\":10037:10042   */\n      dup2\n        /* \"#utility.yul\":10034:10069   */\n      eq\n        /* \"#utility.yul\":10024:10087   */\n      tag_277\n      jumpi\n        /* \"#utility.yul\":10083:10084   */\n      0x00\n        /* \"#utility.yul\":10080:10081   */\n      dup1\n        /* \"#utility.yul\":10073:10085   */\n      revert\n        /* \"#utility.yul\":10024:10087   */\n    tag_277:\n        /* \"#utility.yul\":9971:10093   */\n      pop\n      jump\t// out\n        /* \"#utility.yul\":10099:10238   */\n    tag_133:\n        /* \"#utility.yul\":10145:10150   */\n      0x00\n        /* \"#utility.yul\":10183:10189   */\n      dup2\n        /* \"#utility.yul\":10170:10190   */\n      calldataload\n        /* \"#utility.yul\":10161:10190   */\n      swap1\n      pop\n        /* \"#utility.yul\":10199:10232   */\n      tag_279\n        /* \"#utility.yul\":10226:10231   */\n      dup2\n        /* \"#utility.yul\":10199:10232   */\n      tag_132\n      jump\t// in\n    tag_279:\n        /* \"#utility.yul\":10099:10238   */\n      swap3\n      swap2\n      pop\n      pop\n      jump\t// out\n        /* \"#utility.yul\":10244:10573   */\n    tag_64:\n        /* \"#utility.yul\":10303:10309   */\n      0x00\n        /* \"#utility.yul\":10352:10354   */\n      0x20\n        /* \"#utility.yul\":10340:10349   */\n      dup3\n        /* \"#utility.yul\":10331:10338   */\n      dup5\n        /* \"#utility.yul\":10327:10350   */\n      sub\n        /* \"#utility.yul\":10323:10355   */\n      slt\n        /* \"#utility.yul\":10320:10439   */\n      iszero\n      tag_281\n      jumpi\n        /* \"#utility.yul\":10358:10437   */\n      tag_282\n      tag_109\n      jump\t// in\n    tag_282:\n        /* \"#utility.yul\":10320:10439   */\n    tag_281:\n        /* \"#utility.yul\":10478:10479   */\n      0x00\n        /* \"#utility.yul\":10503:10556   */\n      tag_283\n        /* \"#utility.yul\":10548:10555   */\n      dup5\n        /* \"#utility.yul\":10539:10545   */\n      dup3\n        /* \"#utility.yul\":10528:10537   */\n      dup6\n        /* \"#utility.yul\":10524:10546   */\n      add\n        /* \"#utility.yul\":10503:10556   */\n      tag_133\n      jump\t// in\n    tag_283:\n        /* \"#utility.yul\":10493:10556   */\n      swap2\n      pop\n        /* \"#utility.yul\":10449:10566   */\n      pop\n        /* \"#utility.yul\":10244:10573   */\n      swap3\n      swap2\n      pop\n      pop\n      jump\t// out\n        /* \"#utility.yul\":10579:10695   */\n    tag_134:\n        /* \"#utility.yul\":10649:10670   */\n      tag_285\n        /* \"#utility.yul\":10664:10669   */\n      dup2\n        /* \"#utility.yul\":10649:10670   */\n      tag_122\n      jump\t// in\n    tag_285:\n        /* \"#utility.yul\":10642:10647   */\n      dup2\n        /* \"#utility.yul\":10639:10671   */\n      eq\n        /* \"#utility.yul\":10629:10689   */\n      tag_286\n      jumpi\n        /* \"#utility.yul\":10685:10686   */\n      0x00\n        /* \"#utility.yul\":10682:10683   */\n      dup1\n        /* \"#utility.yul\":10675:10687   */\n      revert\n        /* \"#utility.yul\":10629:10689   */\n    tag_286:\n        /* \"#utility.yul\":10579:10695   */\n      pop\n      jump\t// out\n        /* \"#utility.yul\":10701:10834   */\n    tag_135:\n        /* \"#utility.yul\":10744:10749   */\n      0x00\n        /* \"#utility.yul\":10782:10788   */\n      dup2\n        /* \"#utility.yul\":10769:10789   */\n      calldataload\n        /* \"#utility.yul\":10760:10789   */\n      swap1\n      pop\n        /* \"#utility.yul\":10798:10828   */\n      tag_288\n        /* \"#utility.yul\":10822:10827   */\n      dup2\n        /* \"#utility.yul\":10798:10828   */\n      tag_134\n      jump\t// in\n    tag_288:\n        /* \"#utility.yul\":10701:10834   */\n      swap3\n      swap2\n      pop\n      pop\n      jump\t// out\n        /* \"#utility.yul\":10840:11163   */\n    tag_68:\n        /* \"#utility.yul\":10896:10902   */\n      0x00\n        /* \"#utility.yul\":10945:10947   */\n      0x20\n        /* \"#utility.yul\":10933:10942   */\n      dup3\n        /* \"#utility.yul\":10924:10931   */\n      dup5\n        /* \"#utility.yul\":10920:10943   */\n      sub\n        /* \"#utility.yul\":10916:10948   */\n      slt\n        /* \"#utility.yul\":10913:11032   */\n      iszero\n      tag_290\n      jumpi\n        /* \"#utility.yul\":10951:11030   */\n      tag_291\n      tag_109\n      jump\t// in\n    tag_291:\n        /* \"#utility.yul\":10913:11032   */\n    tag_290:\n        /* \"#utility.yul\":11071:11072   */\n      0x00\n        /* \"#utility.yul\":11096:11146   */\n      tag_292\n        /* \"#utility.yul\":11138:11145   */\n      dup5\n        /* \"#utility.yul\":11129:11135   */\n      dup3\n        /* \"#utility.yul\":11118:11127   */\n      dup6\n        /* \"#utility.yul\":11114:11136   */\n      add\n        /* \"#utility.yul\":11096:11146   */\n      tag_135\n      jump\t// in\n    tag_292:\n        /* \"#utility.yul\":11086:11146   */\n      swap2\n      pop\n        /* \"#utility.yul\":11042:11156   */\n      pop\n        /* \"#utility.yul\":10840:11163   */\n      swap3\n      swap2\n      pop\n      pop\n      jump\t// out\n        /* \"#utility.yul\":11169:11349   */\n    tag_136:\n        /* \"#utility.yul\":11217:11294   */\n      0x4e487b7100000000000000000000000000000000000000000000000000000000\n        /* \"#utility.yul\":11214:11215   */\n      0x00\n        /* \"#utility.yul\":11207:11295   */\n      mstore\n        /* \"#utility.yul\":11314:11318   */\n      0x22\n        /* \"#utility.yul\":11311:11312   */\n      0x04\n        /* \"#utility.yul\":11304:11319   */\n      mstore\n        /* \"#utility.yul\":11338:11342   */\n      0x24\n        /* \"#utility.yul\":11335:11336   */\n      0x00\n        /* \"#utility.yul\":11328:11343   */\n      revert\n        /* \"#utility.yul\":11355:11675   */\n    tag_71:\n        /* \"#utility.yul\":11399:11405   */\n      0x00\n        /* \"#utility.yul\":11436:11437   */\n      0x02\n        /* \"#utility.yul\":11430:11434   */\n      dup3\n        /* \"#utility.yul\":11426:11438   */\n      div\n        /* \"#utility.yul\":11416:11438   */\n      swap1\n      pop\n        /* \"#utility.yul\":11483:11484   */\n      0x01\n        /* \"#utility.yul\":11477:11481   */\n      dup3\n        /* \"#utility.yul\":11473:11485   */\n      and\n        /* \"#utility.yul\":11504:11522   */\n      dup1\n        /* \"#utility.yul\":11494:11575   */\n      tag_295\n      jumpi\n        /* \"#utility.yul\":11560:11564   */\n      0x7f\n        /* \"#utility.yul\":11552:11558   */\n      dup3\n        /* \"#utility.yul\":11548:11565   */\n      and\n        /* \"#utility.yul\":11538:11565   */\n      swap2\n      pop\n        /* \"#utility.yul\":11494:11575   */\n    tag_295:\n        /* \"#utility.yul\":11622:11624   */\n      0x20\n        /* \"#utility.yul\":11614:11620   */\n      dup3\n        /* \"#utility.yul\":11611:11625   */\n      lt\n        /* \"#utility.yul\":11591:11609   */\n      dup2\n        /* \"#utility.yul\":11588:11626   */\n      sub\n        /* \"#utility.yul\":11585:11669   */\n      tag_296\n      jumpi\n        /* \"#utility.yul\":11641:11659   */\n      tag_297\n      tag_136\n      jump\t// in\n    tag_297:\n        /* \"#utility.yul\":11585:11669   */\n    tag_296:\n        /* \"#utility.yul\":11406:11675   */\n      pop\n        /* \"#utility.yul\":11355:11675   */\n      swap2\n      swap1\n      pop\n      jump\t// out\n        /* \"#utility.yul\":11681:11821   */\n    tag_137:\n        /* \"#utility.yul\":11729:11733   */\n      0x00\n        /* \"#utility.yul\":11752:11755   */\n      dup2\n        /* \"#utility.yul\":11744:11755   */\n      swap1\n      pop\n        /* \"#utility.yul\":11775:11778   */\n      dup2\n        /* \"#utility.yul\":11772:11773   */\n      0x00\n        /* \"#utility.yul\":11765:11779   */\n      mstore\n        /* \"#utility.yul\":11809:11813   */\n      0x20\n        /* \"#utility.yul\":11806:11807   */\n      0x00\n        /* \"#utility.yul\":11796:11814   */\n      keccak256\n        /* \"#utility.yul\":11788:11814   */\n      swap1\n      pop\n        /* \"#utility.yul\":11681:11821   */\n      swap2\n      swap1\n      pop\n      jump\t// out\n        /* \"#utility.yul\":11827:11920   */\n    tag_138:\n        /* \"#utility.yul\":11864:11870   */\n      0x00\n        /* \"#utility.yul\":11911:11913   */\n      0x20\n        /* \"#utility.yul\":11906:11908   */\n      0x1f\n        /* \"#utility.yul\":11899:11904   */\n      dup4\n        /* \"#utility.yul\":11895:11909   */\n      add\n        /* \"#utility.yul\":11891:11914   */\n      div\n        /* \"#utility.yul\":11881:11914   */\n      swap1\n      pop\n        /* \"#utility.yul\":11827:11920   */\n      swap2\n      swap1\n      pop\n      jump\t// out\n        /* \"#utility.yul\":11926:12033   */\n    tag_139:\n        /* \"#utility.yul\":11970:11978   */\n      0x00\n        /* \"#utility.yul\":12020:12025   */\n      dup3\n        /* \"#utility.yul\":12014:12018   */\n      dup3\n        /* \"#utility.yul\":12010:12026   */\n      shl\n        /* \"#utility.yul\":11989:12026   */\n      swap1\n      pop\n        /* \"#utility.yul\":11926:12033   */\n      swap3\n      swap2\n      pop\n      pop\n      jump\t// out\n        /* \"#utility.yul\":12039:12432   */\n    tag_140:\n        /* \"#utility.yul\":12108:12114   */\n      0x00\n        /* \"#utility.yul\":12158:12159   */\n      0x08\n        /* \"#utility.yul\":12146:12156   */\n      dup4\n        /* \"#utility.yul\":12142:12160   */\n      mul\n        /* \"#utility.yul\":12181:12278   */\n      tag_302\n        /* \"#utility.yul\":12211:12277   */\n      0xffffffffffffffffffffffffffffffffffffffffffffffffffffffffffffffff\n        /* \"#utility.yul\":12200:12209   */\n      dup3\n        /* \"#utility.yul\":12181:12278   */\n      tag_139\n      jump\t// in\n    tag_302:\n        /* \"#utility.yul\":12299:12338   */\n      tag_303\n        /* \"#utility.yul\":12329:12337   */\n      dup7\n        /* \"#utility.yul\":12318:12327   */\n      dup4\n        /* \"#utility.yul\":12299:12338   */\n      tag_139\n      jump\t// in\n    tag_303:\n        /* \"#utility.yul\":12287:12338   */\n      swap6\n      pop\n        /* \"#utility.yul\":12371:12375   */\n      dup1\n        /* \"#utility.yul\":12367:12376   */\n      not\n        /* \"#utility.yul\":12360:12365   */\n      dup5\n        /* \"#utility.yul\":12356:12377   */\n      and\n        /* \"#utility.yul\":12347:12377   */\n      swap4\n      pop\n        /* \"#utility.yul\":12420:12424   */\n      dup1\n        /* \"#utility.yul\":12410:12418   */\n      dup7\n        /* \"#utility.yul\":12406:12425   */\n      and\n        /* \"#utility.yul\":12399:12404   */\n      dup5\n        /* \"#utility.yul\":12396:12426   */\n      or\n        /* \"#utility.yul\":12386:12426   */\n      swap3\n      pop\n        /* \"#utility.yul\":12115:12432   */\n      pop\n      pop\n        /* \"#utility.yul\":12039:12432   */\n      swap4\n      swap3\n      pop\n      pop\n      pop\n      jump\t// out\n        /* \"#utility.yul\":12438:12498   */\n    tag_141:\n        /* \"#utility.yul\":12466:12469   */\n      0x00\n        /* \"#utility.yul\":12487:12492   */\n      dup2\n        /* \"#utility.yul\":12480:12492   */\n      swap1\n      pop\n        /* \"#utility.yul\":12438:12498   */\n      swap2\n      swap1\n      pop\n      jump\t// out\n        /* \"#utility.yul\":12504:12646   */\n    tag_142:\n        /* \"#utility.yul\":12554:12563   */\n      0x00\n        /* \"#utility.yul\":12587:12640   */\n      tag_306\n        /* \"#utility.yul\":12605:12639   */\n      tag_307\n        /* \"#utility.yul\":12614:12638   */\n      tag_308\n        /* \"#utility.yul\":12632:12637   */\n      dup5\n        /* \"#utility.yul\":12614:12638   */\n      tag_96\n      jump\t// in\n    tag_308:\n        /* \"#utility.yul\":12605:12639   */\n      tag_141\n      jump\t// in\n    tag_307:\n        /* \"#utility.yul\":12587:12640   */\n      tag_96\n      jump\t// in\n    tag_306:\n        /* \"#utility.yul\":12574:12640   */\n      swap1\n      pop\n        /* \"#utility.yul\":12504:12646   */\n      swap2\n      swap1\n      pop\n      jump\t// out\n        /* \"#utility.yul\":12652:12727   */\n    tag_143:\n        /* \"#utility.yul\":12695:12698   */\n      0x00\n        /* \"#utility.yul\":12716:12721   */\n      dup2\n        /* \"#utility.yul\":12709:12721   */\n      swap1\n      pop\n        /* \"#utility.yul\":12652:12727   */\n      swap2\n      swap1\n      pop\n      jump\t// out\n        /* \"#utility.yul\":12733:13002   */\n    tag_144:\n        /* \"#utility.yul\":12843:12882   */\n      tag_311\n        /* \"#utility.yul\":12874:12881   */\n      dup4\n        /* \"#utility.yul\":12843:12882   */\n      tag_142\n      jump\t// in\n    tag_311:\n        /* \"#utility.yul\":12904:12995   */\n      tag_312\n        /* \"#utility.yul\":12953:12994   */\n      tag_313\n        /* \"#utility.yul\":12977:12993   */\n      dup3\n        /* \"#utility.yul\":12953:12994   */\n      tag_143\n      jump\t// in\n    tag_313:\n        /* \"#utility.yul\":12945:12951   */\n      dup5\n        /* \"#utility.yul\":12938:12942   */\n      dup5\n        /* \"#utility.yul\":12932:12943   */\n      sload\n        /* \"#utility.yul\":12904:12995   */\n      tag_140\n      jump\t// in\n    tag_312:\n        /* \"#utility.yul\":12898:12902   */\n      dup3\n        /* \"#utility.yul\":12891:12996   */\n      sstore\n        /* \"#utility.yul\":12809:13002   */\n      pop\n        /* \"#utility.yul\":12733:13002   */\n      pop\n      pop\n      pop\n      jump\t// out\n        /* \"#utility.yul\":13008:13081   */\n    tag_145:\n        /* \"#utility.yul\":13053:13056   */\n      0x00\n        /* \"#utility.yul\":13008:13081   */\n      swap1\n      jump\t// out\n        /* \"#utility.yul\":13087:13276   */\n    tag_146:\n        /* \"#utility.yul\":13164:13196   */\n      tag_316\n      tag_145\n      jump\t// in\n    tag_316:\n        /* \"#utility.yul\":13205:13270   */\n      tag_317\n        /* \"#utility.yul\":13263:13269   */\n      dup2\n        /* \"#utility.yul\":13255:13261   */\n      dup5\n        /* \"#utility.yul\":13249:13253   */\n      dup5\n        /* \"#utility.yul\":13205:13270   */\n      tag_144\n      jump\t// in\n    tag_317:\n        /* \"#utility.yul\":13140:13276   */\n      pop\n        /* \"#utility.yul\":13087:13276   */\n      pop\n      pop\n      jump\t// out\n        /* \"#utility.yul\":13282:13468   */\n    tag_147:\n        /* \"#utility.yul\":13342:13462   */\n    tag_319:\n        /* \"#utility.yul\":13359:13362   */\n      dup2\n        /* \"#utility.yul\":13352:13357   */\n      dup2\n        /* \"#utility.yul\":13349:13363   */\n      lt\n        /* \"#utility.yul\":13342:13462   */\n      iszero\n      tag_321\n      jumpi\n        /* \"#utility.yul\":13413:13452   */\n      tag_322\n        /* \"#utility.yul\":13450:13451   */\n      0x00\n        /* \"#utility.yul\":13443:13448   */\n      dup3\n        /* \"#utility.yul\":13413:13452   */\n      tag_146\n      jump\t// in\n    tag_322:\n        /* \"#utility.yul\":13386:13387   */\n      0x01\n        /* \"#utility.yul\":13379:13384   */\n      dup2\n        /* \"#utility.yul\":13375:13388   */\n      add\n        /* \"#utility.yul\":13366:13388   */\n      swap1\n      pop\n        /* \"#utility.yul\":13342:13462   */\n      jump(tag_319)\n    tag_321:\n        /* \"#utility.yul\":13282:13468   */\n      pop\n      pop\n      jump\t// out\n        /* \"#utility.yul\":13474:14015   */\n    tag_148:\n        /* \"#utility.yul\":13574:13576   */\n      0x1f\n        /* \"#utility.yul\":13569:13572   */\n      dup3\n        /* \"#utility.yul\":13566:13577   */\n      gt\n        /* \"#utility.yul\":13563:14008   */\n      iszero\n      tag_324\n      jumpi\n        /* \"#utility.yul\":13608:13645   */\n      tag_325\n        /* \"#utility.yul\":13639:13644   */\n      dup2\n        /* \"#utility.yul\":13608:13645   */\n      tag_137\n      jump\t// in\n    tag_325:\n        /* \"#utility.yul\":13691:13720   */\n      tag_326\n        /* \"#utility.yul\":13709:13719   */\n      dup5\n        /* \"#utility.yul\":13691:13720   */\n      tag_138\n      jump\t// in\n    tag_326:\n        /* \"#utility.yul\":13681:13689   */\n      dup2\n        /* \"#utility.yul\":13677:13721   */\n      add\n        /* \"#utility.yul\":13874:13876   */\n      0x20\n        /* \"#utility.yul\":13862:13872   */\n      dup6\n        /* \"#utility.yul\":13859:13877   */\n      lt\n        /* \"#utility.yul\":13856:13905   */\n      iszero\n      tag_327\n      jumpi\n        /* \"#utility.yul\":13895:13903   */\n      dup2\n        /* \"#utility.yul\":13880:13903   */\n      swap1\n      pop\n        /* \"#utility.yul\":13856:13905   */\n    tag_327:\n        /* \"#utility.yul\":13918:13998   */\n      tag_328\n        /* \"#utility.yul\":13974:13996   */\n      tag_329\n        /* \"#utility.yul\":13992:13995   */\n      dup6\n        /* \"#utility.yul\":13974:13996   */\n      tag_138\n      jump\t// in\n    tag_329:\n        /* \"#utility.yul\":13964:13972   */\n      dup4\n        /* \"#utility.yul\":13960:13997   */\n      add\n        /* \"#utility.yul\":13947:13958   */\n      dup3\n        /* \"#utility.yul\":13918:13998   */\n      tag_147\n      jump\t// in\n    tag_328:\n        /* \"#utility.yul\":13578:14008   */\n      pop\n      pop\n        /* \"#utility.yul\":13563:14008   */\n    tag_324:\n        /* \"#utility.yul\":13474:14015   */\n      pop\n      pop\n      pop\n      jump\t// out\n        /* \"#utility.yul\":14021:14138   */\n    tag_149:\n        /* \"#utility.yul\":14075:14083   */\n      0x00\n        /* \"#utility.yul\":14125:14130   */\n      dup3\n        /* \"#utility.yul\":14119:14123   */\n      dup3\n        /* \"#utility.yul\":14115:14131   */\n      shr\n        /* \"#utility.yul\":14094:14131   */\n      swap1\n      pop\n        /* \"#utility.yul\":14021:14138   */\n      swap3\n      swap2\n      pop\n      pop\n      jump\t// out\n        /* \"#utility.yul\":14144:14313   */\n    tag_150:\n        /* \"#utility.yul\":14188:14194   */\n      0x00\n        /* \"#utility.yul\":14221:14272   */\n      tag_332\n        /* \"#utility.yul\":14269:14270   */\n      0x00\n        /* \"#utility.yul\":14265:14271   */\n      not\n        /* \"#utility.yul\":14257:14262   */\n      dup5\n        /* \"#utility.yul\":14254:14255   */\n      0x08\n        /* \"#utility.yul\":14250:14263   */\n      mul\n        /* \"#utility.yul\":14221:14272   */\n      tag_149\n      jump\t// in\n    tag_332:\n        /* \"#utility.yul\":14217:14273   */\n      not\n        /* \"#utility.yul\":14302:14306   */\n      dup1\n        /* \"#utility.yul\":14296:14300   */\n      dup4\n        /* \"#utility.yul\":14292:14307   */\n      and\n        /* \"#utility.yul\":14282:14307   */\n      swap2\n      pop\n        /* \"#utility.yul\":14195:14313   */\n      pop\n        /* \"#utility.yul\":14144:14313   */\n      swap3\n      swap2\n      pop\n      pop\n      jump\t// out\n        /* \"#utility.yul\":14318:14613   */\n    tag_151:\n        /* \"#utility.yul\":14394:14398   */\n      0x00\n        /* \"#utility.yul\":14540:14569   */\n      tag_334\n        /* \"#utility.yul\":14565:14568   */\n      dup4\n        /* \"#utility.yul\":14559:14563   */\n      dup4\n        /* \"#utility.yul\":14540:14569   */\n      tag_150\n      jump\t// in\n    tag_334:\n        /* \"#utility.yul\":14532:14569   */\n      swap2\n      pop\n        /* \"#utility.yul\":14602:14605   */\n      dup3\n        /* \"#utility.yul\":14599:14600   */\n      0x02\n        /* \"#utility.yul\":14595:14606   */\n      mul\n        /* \"#utility.yul\":14589:14593   */\n      dup3\n        /* \"#utility.yul\":14586:14607   */\n      or\n        /* \"#utility.yul\":14578:14607   */\n      swap1\n      pop\n        /* \"#utility.yul\":14318:14613   */\n      swap3\n      swap2\n      pop\n      pop\n      jump\t// out\n        /* \"#utility.yul\":14618:16008   */\n    tag_78:\n        /* \"#utility.yul\":14733:14769   */\n      tag_336\n        /* \"#utility.yul\":14765:14768   */\n      dup3\n        /* \"#utility.yul\":14733:14769   */\n      tag_124\n      jump\t// in\n    tag_336:\n        /* \"#utility.yul\":14834:14852   */\n      0xffffffffffffffff\n        /* \"#utility.yul\":14826:14832   */\n      dup2\n        /* \"#utility.yul\":14823:14853   */\n      gt\n        /* \"#utility.yul\":14820:14876   */\n      iszero\n      tag_337\n      jumpi\n        /* \"#utility.yul\":14856:14874   */\n      tag_338\n      tag_113\n      jump\t// in\n    tag_338:\n        /* \"#utility.yul\":14820:14876   */\n    tag_337:\n        /* \"#utility.yul\":14900:14938   */\n      tag_339\n        /* \"#utility.yul\":14932:14936   */\n      dup3\n        /* \"#utility.yul\":14926:14937   */\n      sload\n        /* \"#utility.yul\":14900:14938   */\n      tag_71\n      jump\t// in\n    tag_339:\n        /* \"#utility.yul\":14985:15051   */\n      tag_340\n        /* \"#utility.yul\":15044:15050   */\n      dup3\n        /* \"#utility.yul\":15036:15042   */\n      dup3\n        /* \"#utility.yul\":15030:15034   */\n      dup6\n        /* \"#utility.yul\":14985:15051   */\n      tag_148\n      jump\t// in\n    tag_340:\n        /* \"#utility.yul\":15078:15079   */\n      0x00\n        /* \"#utility.yul\":15102:15106   */\n      0x20\n        /* \"#utility.yul\":15089:15106   */\n      swap1\n      pop\n        /* \"#utility.yul\":15134:15136   */\n      0x1f\n        /* \"#utility.yul\":15126:15132   */\n      dup4\n        /* \"#utility.yul\":15123:15137   */\n      gt\n        /* \"#utility.yul\":15151:15152   */\n      0x01\n        /* \"#utility.yul\":15146:15763   */\n      dup2\n      eq\n      tag_342\n      jumpi\n        /* \"#utility.yul\":15807:15808   */\n      0x00\n        /* \"#utility.yul\":15824:15830   */\n      dup5\n        /* \"#utility.yul\":15821:15898   */\n      iszero\n      tag_343\n      jumpi\n        /* \"#utility.yul\":15873:15882   */\n      dup3\n        /* \"#utility.yul\":15868:15871   */\n      dup8\n        /* \"#utility.yul\":15864:15883   */\n      add\n        /* \"#utility.yul\":15858:15884   */\n      mload\n        /* \"#utility.yul\":15849:15884   */\n      swap1\n      pop\n        /* \"#utility.yul\":15821:15898   */\n    tag_343:\n        /* \"#utility.yul\":15924:15991   */\n      tag_344\n        /* \"#utility.yul\":15984:15990   */\n      dup6\n        /* \"#utility.yul\":15977:15982   */\n      dup3\n        /* \"#utility.yul\":15924:15991   */\n      tag_151\n      jump\t// in\n    tag_344:\n        /* \"#utility.yul\":15918:15922   */\n      dup7\n        /* \"#utility.yul\":15911:15992   */\n      sstore\n        /* \"#utility.yul\":15780:16002   */\n      pop\n        /* \"#utility.yul\":15116:16002   */\n      jump(tag_341)\n        /* \"#utility.yul\":15146:15763   */\n    tag_342:\n        /* \"#utility.yul\":15198:15202   */\n      0x1f\n        /* \"#utility.yul\":15194:15203   */\n      not\n        /* \"#utility.yul\":15186:15192   */\n      dup5\n        /* \"#utility.yul\":15182:15204   */\n      and\n        /* \"#utility.yul\":15232:15268   */\n      tag_345\n        /* \"#utility.yul\":15263:15267   */\n      dup7\n        /* \"#utility.yul\":15232:15268   */\n      tag_137\n      jump\t// in\n    tag_345:\n        /* \"#utility.yul\":15290:15291   */\n      0x00\n        /* \"#utility.yul\":15304:15512   */\n    tag_346:\n        /* \"#utility.yul\":15318:15325   */\n      dup3\n        /* \"#utility.yul\":15315:15316   */\n      dup2\n        /* \"#utility.yul\":15312:15326   */\n      lt\n        /* \"#utility.yul\":15304:15512   */\n      iszero\n      tag_348\n      jumpi\n        /* \"#utility.yul\":15397:15406   */\n      dup5\n        /* \"#utility.yul\":15392:15395   */\n      dup10\n        /* \"#utility.yul\":15388:15407   */\n      add\n        /* \"#utility.yul\":15382:15408   */\n      mload\n        /* \"#utility.yul\":15374:15380   */\n      dup3\n        /* \"#utility.yul\":15367:15409   */\n      sstore\n        /* \"#utility.yul\":15448:15449   */\n      0x01\n        /* \"#utility.yul\":15440:15446   */\n      dup3\n        /* \"#utility.yul\":15436:15450   */\n      add\n        /* \"#utility.yul\":15426:15450   */\n      swap2\n      pop\n        /* \"#utility.yul\":15495:15497   */\n      0x20\n        /* \"#utility.yul\":15484:15493   */\n      dup6\n        /* \"#utility.yul\":15480:15498   */\n      add\n        /* \"#utility.yul\":15467:15498   */\n      swap5\n      pop\n        /* \"#utility.yul\":15341:15345   */\n      0x20\n        /* \"#utility.yul\":15338:15339   */\n      dup2\n        /* \"#utility.yul\":15334:15346   */\n      add\n        /* \"#utility.yul\":15329:15346   */\n      swap1\n      pop\n        /* \"#utility.yul\":15304:15512   */\n      jump(tag_346)\n    tag_348:\n        /* \"#utility.yul\":15540:15546   */\n      dup7\n        /* \"#utility.yul\":15531:15538   */\n      dup4\n        /* \"#utility.yul\":15528:15547   */\n      lt\n        /* \"#utility.yul\":15525:15704   */\n      iszero\n      tag_349\n      jumpi\n        /* \"#utility.yul\":15598:15607   */\n      dup5\n        /* \"#utility.yul\":15593:15596   */\n      dup10\n        /* \"#utility.yul\":15589:15608   */\n      add\n        /* \"#utility.yul\":15583:15609   */\n      mload\n        /* \"#utility.yul\":15641:15689   */\n      tag_350\n        /* \"#utility.yul\":15683:15687   */\n      0x1f\n        /* \"#utility.yul\":15675:15681   */\n      dup10\n        /* \"#utility.yul\":15671:15688   */\n      and\n        /* \"#utility.yul\":15660:15669   */\n      dup3\n        /* \"#utility.yul\":15641:15689   */\n      tag_150\n      jump\t// in\n    tag_350:\n        /* \"#utility.yul\":15633:15639   */\n      dup4\n        /* \"#utility.yul\":15626:15690   */\n      sstore\n        /* \"#utility.yul\":15548:15704   */\n      pop\n        /* \"#utility.yul\":15525:15704   */\n    tag_349:\n        /* \"#utility.yul\":15750:15751   */\n      0x01\n        /* \"#utility.yul\":15746:15747   */\n      0x02\n        /* \"#utility.yul\":15738:15744   */\n      dup9\n        /* \"#utility.yul\":15734:15748   */\n      mul\n        /* \"#utility.yul\":15730:15752   */\n      add\n        /* \"#utility.yul\":15724:15728   */\n      dup9\n        /* \"#utility.yul\":15717:15753   */\n      sstore\n        /* \"#utility.yul\":15153:15763   */\n      pop\n      pop\n      pop\n        /* \"#utility.yul\":15116:16002   */\n    tag_341:\n      pop\n        /* \"#utility.yul\":14708:16008   */\n      pop\n      pop\n      pop\n        /* \"#utility.yul\":14618:16008   */\n      pop\n      pop\n      jump\t// out\n        /* \"#utility.yul\":16014:16155   */\n    tag_152:\n        /* \"#utility.yul\":16063:16067   */\n      0x00\n        /* \"#utility.yul\":16086:16089   */\n      dup2\n        /* \"#utility.yul\":16078:16089   */\n      swap1\n      pop\n        /* \"#utility.yul\":16109:16112   */\n      dup2\n        /* \"#utility.yul\":16106:16107   */\n      0x00\n        /* \"#utility.yul\":16099:16113   */\n      mstore\n        /* \"#utility.yul\":16143:16147   */\n      0x20\n        /* \"#utility.yul\":16140:16141   */\n      0x00\n        /* \"#utility.yul\":16130:16148   */\n      keccak256\n        /* \"#utility.yul\":16122:16148   */\n      swap1\n      pop\n        /* \"#utility.yul\":16014:16155   */\n      swap2\n      swap1\n      pop\n      jump\t// out\n        /* \"#utility.yul\":16161:16704   */\n    tag_153:\n        /* \"#utility.yul\":16262:16264   */\n      0x1f\n        /* \"#utility.yul\":16257:16260   */\n      dup3\n        /* \"#utility.yul\":16254:16265   */\n      gt\n        /* \"#utility.yul\":16251:16697   */\n      iszero\n      tag_353\n      jumpi\n        /* \"#utility.yul\":16296:16334   */\n      tag_354\n        /* \"#utility.yul\":16328:16333   */\n      dup2\n        /* \"#utility.yul\":16296:16334   */\n      tag_152\n      jump\t// in\n    tag_354:\n        /* \"#utility.yul\":16380:16409   */\n      tag_355\n        /* \"#utility.yul\":16398:16408   */\n      dup5\n        /* \"#utility.yul\":16380:16409   */\n      tag_138\n      jump\t// in\n    tag_355:\n        /* \"#utility.yul\":16370:16378   */\n      dup2\n        /* \"#utility.yul\":16366:16410   */\n      add\n        /* \"#utility.yul\":16563:16565   */\n      0x20\n        /* \"#utility.yul\":16551:16561   */\n      dup6\n        /* \"#utility.yul\":16548:16566   */\n      lt\n        /* \"#utility.yul\":16545:16594   */\n      iszero\n      tag_356\n      jumpi\n        /* \"#utility.yul\":16584:16592   */\n      dup2\n        /* \"#utility.yul\":16569:16592   */\n      swap1\n      pop\n        /* \"#utility.yul\":16545:16594   */\n    tag_356:\n        /* \"#utility.yul\":16607:16687   */\n      tag_357\n        /* \"#utility.yul\":16663:16685   */\n      tag_358\n        /* \"#utility.yul\":16681:16684   */\n      dup6\n        /* \"#utility.yul\":16663:16685   */\n      tag_138\n      jump\t// in\n    tag_358:\n        /* \"#utility.yul\":16653:16661   */\n      dup4\n        /* \"#utility.yul\":16649:16686   */\n      add\n        /* \"#utility.yul\":16636:16647   */\n      dup3\n        /* \"#utility.yul\":16607:16687   */\n      tag_147\n      jump\t// in\n    tag_357:\n        /* \"#utility.yul\":16266:16697   */\n      pop\n      pop\n        /* \"#utility.yul\":16251:16697   */\n    tag_353:\n        /* \"#utility.yul\":16161:16704   */\n      pop\n      pop\n      pop\n      jump\t// out\n        /* \"#utility.yul\":16710:18105   */\n    tag_87:\n        /* \"#utility.yul\":16827:16864   */\n      tag_360\n        /* \"#utility.yul\":16860:16863   */\n      dup3\n        /* \"#utility.yul\":16827:16864   */\n      tag_103\n      jump\t// in\n    tag_360:\n        /* \"#utility.yul\":16929:16947   */\n      0xffffffffffffffff\n        /* \"#utility.yul\":16921:16927   */\n      dup2\n        /* \"#utility.yul\":16918:16948   */\n      gt\n        /* \"#utility.yul\":16915:16971   */\n      iszero\n      tag_361\n      jumpi\n        /* \"#utility.yul\":16951:16969   */\n      tag_362\n      tag_113\n      jump\t// in\n    tag_362:\n        /* \"#utility.yul\":16915:16971   */\n    tag_361:\n        /* \"#utility.yul\":16995:17033   */\n      tag_363\n        /* \"#utility.yul\":17027:17031   */\n      dup3\n        /* \"#utility.yul\":17021:17032   */\n      sload\n        /* \"#utility.yul\":16995:17033   */\n      tag_71\n      jump\t// in\n    tag_363:\n        /* \"#utility.yul\":17080:17147   */\n      tag_364\n        /* \"#utility.yul\":17140:17146   */\n      dup3\n        /* \"#utility.yul\":17132:17138   */\n      dup3\n        /* \"#utility.yul\":17126:17130   */\n      dup6\n        /* \"#utility.yul\":17080:17147   */\n      tag_153\n      jump\t// in\n    tag_364:\n        /* \"#utility.yul\":17174:17175   */\n      0x00\n        /* \"#utility.yul\":17198:17202   */\n      0x20\n        /* \"#utility.yul\":17185:17202   */\n      swap1\n      pop\n        /* \"#utility.yul\":17230:17232   */\n      0x1f\n        /* \"#utility.yul\":17222:17228   */\n      dup4\n        /* \"#utility.yul\":17219:17233   */\n      gt\n        /* \"#utility.yul\":17247:17248   */\n      0x01\n        /* \"#utility.yul\":17242:17860   */\n      dup2\n      eq\n      tag_366\n      jumpi\n        /* \"#utility.yul\":17904:17905   */\n      0x00\n        /* \"#utility.yul\":17921:17927   */\n      dup5\n        /* \"#utility.yul\":17918:17995   */\n      iszero\n      tag_367\n      jumpi\n        /* \"#utility.yul\":17970:17979   */\n      dup3\n        /* \"#utility.yul\":17965:17968   */\n      dup8\n        /* \"#utility.yul\":17961:17980   */\n      add\n        /* \"#utility.yul\":17955:17981   */\n      mload\n        /* \"#utility.yul\":17946:17981   */\n      swap1\n      pop\n        /* \"#utility.yul\":17918:17995   */\n    tag_367:\n        /* \"#utility.yul\":18021:18088   */\n      tag_368\n        /* \"#utility.yul\":18081:18087   */\n      dup6\n        /* \"#utility.yul\":18074:18079   */\n      dup3\n        /* \"#utility.yul\":18021:18088   */\n      tag_151\n      jump\t// in\n    tag_368:\n        /* \"#utility.yul\":18015:18019   */\n      dup7\n        /* \"#utility.yul\":18008:18089   */\n      sstore\n        /* \"#utility.yul\":17877:18099   */\n      pop\n        /* \"#utility.yul\":17212:18099   */\n      jump(tag_365)\n        /* \"#utility.yul\":17242:17860   */\n    tag_366:\n        /* \"#utility.yul\":17294:17298   */\n      0x1f\n        /* \"#utility.yul\":17290:17299   */\n      not\n        /* \"#utility.yul\":17282:17288   */\n      dup5\n        /* \"#utility.yul\":17278:17300   */\n      and\n        /* \"#utility.yul\":17328:17365   */\n      tag_369\n        /* \"#utility.yul\":17360:17364   */\n      dup7\n        /* \"#utility.yul\":17328:17365   */\n      tag_152\n      jump\t// in\n    tag_369:\n        /* \"#utility.yul\":17387:17388   */\n      0x00\n        /* \"#utility.yul\":17401:17609   */\n    tag_370:\n        /* \"#utility.yul\":17415:17422   */\n      dup3\n        /* \"#utility.yul\":17412:17413   */\n      dup2\n        /* \"#utility.yul\":17409:17423   */\n      lt\n        /* \"#utility.yul\":17401:17609   */\n      iszero\n      tag_372\n      jumpi\n        /* \"#utility.yul\":17494:17503   */\n      dup5\n        /* \"#utility.yul\":17489:17492   */\n      dup10\n        /* \"#utility.yul\":17485:17504   */\n      add\n        /* \"#utility.yul\":17479:17505   */\n      mload\n        /* \"#utility.yul\":17471:17477   */\n      dup3\n        /* \"#utility.yul\":17464:17506   */\n      sstore\n        /* \"#utility.yul\":17545:17546   */\n      0x01\n        /* \"#utility.yul\":17537:17543   */\n      dup3\n        /* \"#utility.yul\":17533:17547   */\n      add\n        /* \"#utility.yul\":17523:17547   */\n      swap2\n      pop\n        /* \"#utility.yul\":17592:17594   */\n      0x20\n        /* \"#utility.yul\":17581:17590   */\n      dup6\n        /* \"#utility.yul\":17577:17595   */\n      add\n        /* \"#utility.yul\":17564:17595   */\n      swap5\n      pop\n        /* \"#utility.yul\":17438:17442   */\n      0x20\n        /* \"#utility.yul\":17435:17436   */\n      dup2\n        /* \"#utility.yul\":17431:17443   */\n      add\n        /* \"#utility.yul\":17426:17443   */\n      swap1\n      pop\n        /* \"#utility.yul\":17401:17609   */\n      jump(tag_370)\n    tag_372:\n        /* \"#utility.yul\":17637:17643   */\n      dup7\n        /* \"#utility.yul\":17628:17635   */\n      dup4\n        /* \"#utility.yul\":17625:17644   */\n      lt\n        /* \"#utility.yul\":17622:17801   */\n      iszero\n      tag_373\n      jumpi\n        /* \"#utility.yul\":17695:17704   */\n      dup5\n        /* \"#utility.yul\":17690:17693   */\n      dup10\n        /* \"#utility.yul\":17686:17705   */\n      add\n        /* \"#utility.yul\":17680:17706   */\n      mload\n        /* \"#utility.yul\":17738:17786   */\n      tag_374\n        /* \"#utility.yul\":17780:17784   */\n      0x1f\n        /* \"#utility.yul\":17772:17778   */\n      dup10\n        /* \"#utility.yul\":17768:17785   */\n      and\n        /* \"#utility.yul\":17757:17766   */\n      dup3\n        /* \"#utility.yul\":17738:17786   */\n      tag_150\n      jump\t// in\n    tag_374:\n        /* \"#utility.yul\":17730:17736   */\n      dup4\n        /* \"#utility.yul\":17723:17787   */\n      sstore\n        /* \"#utility.yul\":17645:17801   */\n      pop\n        /* \"#utility.yul\":17622:17801   */\n    tag_373:\n        /* \"#utility.yul\":17847:17848   */\n      0x01\n        /* \"#utility.yul\":17843:17844   */\n      0x02\n        /* \"#utility.yul\":17835:17841   */\n      dup9\n        /* \"#utility.yul\":17831:17845   */\n      mul\n        /* \"#utility.yul\":17827:17849   */\n      add\n        /* \"#utility.yul\":17821:17825   */\n      dup9\n        /* \"#utility.yul\":17814:17850   */\n      sstore\n        /* \"#utility.yul\":17249:17860   */\n      pop\n      pop\n      pop\n        /* \"#utility.yul\":17212:18099   */\n    tag_365:\n      pop\n        /* \"#utility.yul\":16802:18105   */\n      pop\n      pop\n      pop\n        /* \"#utility.yul\":16710:18105   */\n      pop\n      pop\n      jump\t// out\n        /* \"#utility.yul\":18111:18259   */\n    tag_154:\n        /* \"#utility.yul\":18213:18224   */\n      0x00\n        /* \"#utility.yul\":18250:18253   */\n      dup2\n        /* \"#utility.yul\":18235:18253   */\n      swap1\n      pop\n        /* \"#utility.yul\":18111:18259   */\n      swap3\n      swap2\n      pop\n      pop\n      jump\t// out\n        /* \"#utility.yul\":18265:18655   */\n    tag_155:\n        /* \"#utility.yul\":18371:18374   */\n      0x00\n        /* \"#utility.yul\":18399:18438   */\n      tag_377\n        /* \"#utility.yul\":18432:18437   */\n      dup3\n        /* \"#utility.yul\":18399:18438   */\n      tag_103\n      jump\t// in\n    tag_377:\n        /* \"#utility.yul\":18454:18543   */\n      tag_378\n        /* \"#utility.yul\":18536:18542   */\n      dup2\n        /* \"#utility.yul\":18531:18534   */\n      dup6\n        /* \"#utility.yul\":18454:18543   */\n      tag_154\n      jump\t// in\n    tag_378:\n        /* \"#utility.yul\":18447:18543   */\n      swap4\n      pop\n        /* \"#utility.yul\":18552:18617   */\n      tag_379\n        /* \"#utility.yul\":18610:18616   */\n      dup2\n        /* \"#utility.yul\":18605:18608   */\n      dup6\n        /* \"#utility.yul\":18598:18602   */\n      0x20\n        /* \"#utility.yul\":18591:18596   */\n      dup7\n        /* \"#utility.yul\":18587:18603   */\n      add\n        /* \"#utility.yul\":18552:18617   */\n      tag_105\n      jump\t// in\n    tag_379:\n        /* \"#utility.yul\":18642:18648   */\n      dup1\n        /* \"#utility.yul\":18637:18640   */\n      dup5\n        /* \"#utility.yul\":18633:18649   */\n      add\n        /* \"#utility.yul\":18626:18649   */\n      swap2\n      pop\n        /* \"#utility.yul\":18375:18655   */\n      pop\n        /* \"#utility.yul\":18265:18655   */\n      swap3\n      swap2\n      pop\n      pop\n      jump\t// out\n        /* \"#utility.yul\":18661:18936   */\n    tag_90:\n        /* \"#utility.yul\":18793:18796   */\n      0x00\n        /* \"#utility.yul\":18815:18910   */\n      tag_381\n        /* \"#utility.yul\":18906:18909   */\n      dup3\n        /* \"#utility.yul\":18897:18903   */\n      dup5\n        /* \"#utility.yul\":18815:18910   */\n      tag_155\n      jump\t// in\n    tag_381:\n        /* \"#utility.yul\":18808:18910   */\n      swap2\n      pop\n        /* \"#utility.yul\":18927:18930   */\n      dup2\n        /* \"#utility.yul\":18920:18930   */\n      swap1\n      pop\n        /* \"#utility.yul\":18661:18936   */\n      swap3\n      swap2\n      pop\n      pop\n      jump\t// out\n        /* \"#utility.yul\":18966:19840   */\n    tag_156:\n        /* \"#utility.yul\":19069:19072   */\n      0x00\n        /* \"#utility.yul\":19106:19111   */\n      dup2\n        /* \"#utility.yul\":19100:19112   */\n      sload\n        /* \"#utility.yul\":19135:19171   */\n      tag_383\n        /* \"#utility.yul\":19161:19170   */\n      dup2\n        /* \"#utility.yul\":19135:19171   */\n      tag_71\n      jump\t// in\n    tag_383:\n        /* \"#utility.yul\":19187:19276   */\n      tag_384\n        /* \"#utility.yul\":19269:19275   */\n      dup2\n        /* \"#utility.yul\":19264:19267   */\n      dup7\n        /* \"#utility.yul\":19187:19276   */\n      tag_154\n      jump\t// in\n    tag_384:\n        /* \"#utility.yul\":19180:19276   */\n      swap5\n      pop\n        /* \"#utility.yul\":19307:19308   */\n      0x01\n        /* \"#utility.yul\":19296:19305   */\n      dup3\n        /* \"#utility.yul\":19292:19309   */\n      and\n        /* \"#utility.yul\":19323:19324   */\n      0x00\n        /* \"#utility.yul\":19318:19484   */\n      dup2\n      eq\n      tag_386\n      jumpi\n        /* \"#utility.yul\":19498:19499   */\n      0x01\n        /* \"#utility.yul\":19493:19834   */\n      dup2\n      eq\n      tag_387\n      jumpi\n        /* \"#utility.yul\":19285:19834   */\n      jump(tag_385)\n        /* \"#utility.yul\":19318:19484   */\n    tag_386:\n        /* \"#utility.yul\":19402:19406   */\n      0xff\n        /* \"#utility.yul\":19398:19407   */\n      not\n        /* \"#utility.yul\":19387:19396   */\n      dup4\n        /* \"#utility.yul\":19383:19408   */\n      and\n        /* \"#utility.yul\":19378:19381   */\n      dup7\n        /* \"#utility.yul\":19371:19409   */\n      mstore\n        /* \"#utility.yul\":19464:19470   */\n      dup2\n        /* \"#utility.yul\":19457:19471   */\n      iszero\n        /* \"#utility.yul\":19450:19472   */\n      iszero\n        /* \"#utility.yul\":19442:19448   */\n      dup3\n        /* \"#utility.yul\":19438:19473   */\n      mul\n        /* \"#utility.yul\":19433:19436   */\n      dup7\n        /* \"#utility.yul\":19429:19474   */\n      add\n        /* \"#utility.yul\":19422:19474   */\n      swap4\n      pop\n        /* \"#utility.yul\":19318:19484   */\n      jump(tag_385)\n        /* \"#utility.yul\":19493:19834   */\n    tag_387:\n        /* \"#utility.yul\":19560:19598   */\n      tag_388\n        /* \"#utility.yul\":19592:19597   */\n      dup6\n        /* \"#utility.yul\":19560:19598   */\n      tag_152\n      jump\t// in\n    tag_388:\n        /* \"#utility.yul\":19620:19621   */\n      0x00\n        /* \"#utility.yul\":19634:19788   */\n    tag_389:\n        /* \"#utility.yul\":19648:19654   */\n      dup4\n        /* \"#utility.yul\":19645:19646   */\n      dup2\n        /* \"#utility.yul\":19642:19655   */\n      lt\n        /* \"#utility.yul\":19634:19788   */\n      iszero\n      tag_391\n      jumpi\n        /* \"#utility.yul\":19722:19729   */\n      dup2\n        /* \"#utility.yul\":19716:19730   */\n      sload\n        /* \"#utility.yul\":19712:19713   */\n      dup2\n        /* \"#utility.yul\":19707:19710   */\n      dup10\n        /* \"#utility.yul\":19703:19714   */\n      add\n        /* \"#utility.yul\":19696:19731   */\n      mstore\n        /* \"#utility.yul\":19772:19773   */\n      0x01\n        /* \"#utility.yul\":19763:19770   */\n      dup3\n        /* \"#utility.yul\":19759:19774   */\n      add\n        /* \"#utility.yul\":19748:19774   */\n      swap2\n      pop\n        /* \"#utility.yul\":19670:19674   */\n      0x20\n        /* \"#utility.yul\":19667:19668   */\n      dup2\n        /* \"#utility.yul\":19663:19675   */\n      add\n        /* \"#utility.yul\":19658:19675   */\n      swap1\n      pop\n        /* \"#utility.yul\":19634:19788   */\n      jump(tag_389)\n    tag_391:\n        /* \"#utility.yul\":19817:19823   */\n      dup4\n        /* \"#utility.yul\":19812:19815   */\n      dup9\n        /* \"#utility.yul\":19808:19824   */\n      add\n        /* \"#utility.yul\":19801:19824   */\n      swap6\n      pop\n        /* \"#utility.yul\":19500:19834   */\n      pop\n      pop\n        /* \"#utility.yul\":19285:19834   */\n    tag_385:\n      pop\n        /* \"#utility.yul\":19073:19840   */\n      pop\n      pop\n        /* \"#utility.yul\":18966:19840   */\n      swap3\n      swap2\n      pop\n      pop\n      jump\t// out\n        /* \"#utility.yul\":19846:20115   */\n    tag_92:\n        /* \"#utility.yul\":19975:19978   */\n      0x00\n        /* \"#utility.yul\":19997:20089   */\n      tag_393\n        /* \"#utility.yul\":20085:20088   */\n      dup3\n        /* \"#utility.yul\":20076:20082   */\n      dup5\n        /* \"#utility.yul\":19997:20089   */\n      tag_156\n      jump\t// in\n    tag_393:\n        /* \"#utility.yul\":19990:20089   */\n      swap2\n      pop\n        /* \"#utility.yul\":20106:20109   */\n      dup2\n        /* \"#utility.yul\":20099:20109   */\n      swap1\n      pop\n        /* \"#utility.yul\":19846:20115   */\n      swap3\n      swap2\n      pop\n      pop\n      jump\t// out\n\n    auxdata: 0xa2646970667358221220727cc39f966b9b63ff11066d6a070275dde419e71adefcbcee23d1ea26cf6c6a64736f6c63430008170033\n}\n",
				"bytecode": {
					"linkReferences": {},
					"object": "608060405234801561001057600080fd5b50610fe3806100206000396000f3fe608060405234801561001057600080fd5b50600436106100cf5760003560e01c80636deecdbe1161008c5780639cb61142116100665780639cb61142146101dc578063a8a7b8951461020c578063e492fd8414610228578063eb1b30d914610244576100cf565b80636deecdbe14610184578063712f4602146101a257806382180568146101c0576100cf565b806306540f7e146100d457806326b85ee1146100f25780632cb777a614610110578063492bfa181461012e5780635907432d1461014c5780635f6633bf14610168575b600080fd5b6100dc610260565b6040516100e991906104cb565b60405180910390f35b6100fa610266565b6040516101079190610527565b60405180910390f35b61011861028c565b604051610125919061055b565b60405180910390f35b610136610292565b6040516101439190610606565b60405180910390f35b61016660048036038101906101619190610771565b610320565b005b610182600480360381019061017d91906107e6565b610333565b005b61018c61033d565b604051610199919061082e565b60405180910390f35b6101aa61034e565b6040516101b7919061089e565b60405180910390f35b6101da60048036038101906101d59190610961565b6103dc565b005b6101f660048036038101906101f19190610961565b6103ef565b604051610203919061082e565b60405180910390f35b610226600480360381019061022191906109d6565b610448565b005b610242600480360381019061023d9190610a2f565b61048c565b005b61025e60048036038101906102599190610a88565b610496565b005b60015481565b600560009054906101000a900473ffffffffffffffffffffffffffffffffffffffff1681565b60025481565b6003805461029f90610ae4565b80601f01602080910402602001604051908101604052809291908181526020018280546102cb90610ae4565b80156103185780601f106102ed57610100808354040283529160200191610318565b820191906000526020600020905b8154815290600101906020018083116102fb57829003601f168201915b505050505081565b806004908161032f9190610cc1565b5050565b8060028190555050565b60008054906101000a900460ff1681565b6004805461035b90610ae4565b80601f016020809104026020016040519081016040528092919081815260200182805461038790610ae4565b80156103d45780601f106103a9576101008083540402835291602001916103d4565b820191906000526020600020905b8154815290600101906020018083116103b757829003601f168201915b505050505081565b80600390816103eb9190610dee565b5050565b6000816040516020016104029190610efc565b60405160208183030381529060405280519060200120600360405160200161042a9190610f96565b60405160208183030381529060405280519060200120149050919050565b80600560006101000a81548173ffffffffffffffffffffffffffffffffffffffff021916908373ffffffffffffffffffffffffffffffffffffffff16021790555050565b8060018190555050565b806000806101000a81548160ff02191690831515021790555050565b6000819050919050565b6104c5816104b2565b82525050565b60006020820190506104e060008301846104bc565b92915050565b600073ffffffffffffffffffffffffffffffffffffffff82169050919050565b6000610511826104e6565b9050919050565b61052181610506565b82525050565b600060208201905061053c6000830184610518565b92915050565b6000819050919050565b61055581610542565b82525050565b6000602082019050610570600083018461054c565b92915050565b600081519050919050565b600082825260208201905092915050565b60005b838110156105b0578082015181840152602081019050610595565b60008484015250505050565b6000601f19601f8301169050919050565b60006105d882610576565b6105e28185610581565b93506105f2818560208601610592565b6105fb816105bc565b840191505092915050565b6000602082019050818103600083015261062081846105cd565b905092915050565b6000604051905090565b600080fd5b600080fd5b600080fd5b600080fd5b7f4e487b7100000000000000000000000000000000000000000000000000000000600052604160045260246000fd5b61067e826105bc565b810181811067ffffffffffffffff8211171561069d5761069c610646565b5b80604052505050565b60006106b0610628565b90506106bc8282610675565b919050565b600067ffffffffffffffff8211156106dc576106db610646565b5b6106e5826105bc565b9050602081019050919050565b82818337600083830152505050565b600061071461070f846106c1565b6106a6565b9050828152602081018484840111156107305761072f610641565b5b61073b8482856106f2565b509392505050565b600082601f8301126107585761075761063c565b5b8135610768848260208601610701565b91505092915050565b60006020828403121561078757610786610632565b5b600082013567ffffffffffffffff8111156107a5576107a4610637565b5b6107b184828501610743565b91505092915050565b6107c381610542565b81146107ce57600080fd5b50565b6000813590506107e0816107ba565b92915050565b6000602082840312156107fc576107fb610632565b5b600061080a848285016107d1565b91505092915050565b60008115159050919050565b61082881610813565b82525050565b6000602082019050610843600083018461081f565b92915050565b600081519050919050565b600082825260208201905092915050565b600061087082610849565b61087a8185610854565b935061088a818560208601610592565b610893816105bc565b840191505092915050565b600060208201905081810360008301526108b88184610865565b905092915050565b600067ffffffffffffffff8211156108db576108da610646565b5b6108e4826105bc565b9050602081019050919050565b60006109046108ff846108c0565b6106a6565b9050828152602081018484840111156109205761091f610641565b5b61092b8482856106f2565b509392505050565b600082601f8301126109485761094761063c565b5b81356109588482602086016108f1565b91505092915050565b60006020828403121561097757610976610632565b5b600082013567ffffffffffffffff81111561099557610994610637565b5b6109a184828501610933565b91505092915050565b6109b381610506565b81146109be57600080fd5b50565b6000813590506109d0816109aa565b92915050565b6000602082840312156109ec576109eb610632565b5b60006109fa848285016109c1565b91505092915050565b610a0c816104b2565b8114610a1757600080fd5b50565b600081359050610a2981610a03565b92915050565b600060208284031215610a4557610a44610632565b5b6000610a5384828501610a1a565b91505092915050565b610a6581610813565b8114610a7057600080fd5b50565b600081359050610a8281610a5c565b92915050565b600060208284031215610a9e57610a9d610632565b5b6000610aac84828501610a73565b91505092915050565b7f4e487b7100000000000000000000000000000000000000000000000000000000600052602260045260246000fd5b60006002820490506001821680610afc57607f821691505b602082108103610b0f57610b0e610ab5565b5b50919050565b60008190508160005260206000209050919050565b60006020601f8301049050919050565b600082821b905092915050565b600060088302610b777fffffffffffffffffffffffffffffffffffffffffffffffffffffffffffffffff82610b3a565b610b818683610b3a565b95508019841693508086168417925050509392505050565b6000819050919050565b6000610bbe610bb9610bb4846104b2565b610b99565b6104b2565b9050919050565b6000819050919050565b610bd883610ba3565b610bec610be482610bc5565b848454610b47565b825550505050565b600090565b610c01610bf4565b610c0c818484610bcf565b505050565b5b81811015610c3057610c25600082610bf9565b600181019050610c12565b5050565b601f821115610c7557610c4681610b15565b610c4f84610b2a565b81016020851015610c5e578190505b610c72610c6a85610b2a565b830182610c11565b50505b505050565b600082821c905092915050565b6000610c9860001984600802610c7a565b1980831691505092915050565b6000610cb18383610c87565b9150826002028217905092915050565b610cca82610849565b67ffffffffffffffff811115610ce357610ce2610646565b5b610ced8254610ae4565b610cf8828285610c34565b600060209050601f831160018114610d2b5760008415610d19578287015190505b610d238582610ca5565b865550610d8b565b601f198416610d3986610b15565b60005b82811015610d6157848901518255600182019150602085019450602081019050610d3c565b86831015610d7e5784890151610d7a601f891682610c87565b8355505b6001600288020188555050505b505050505050565b60008190508160005260206000209050919050565b601f821115610de957610dba81610d93565b610dc384610b2a565b81016020851015610dd2578190505b610de6610dde85610b2a565b830182610c11565b50505b505050565b610df782610576565b67ffffffffffffffff811115610e1057610e0f610646565b5b610e1a8254610ae4565b610e25828285610da8565b600060209050601f831160018114610e585760008415610e46578287015190505b610e508582610ca5565b865550610eb8565b601f198416610e6686610d93565b60005b82811015610e8e57848901518255600182019150602085019450602081019050610e69565b86831015610eab5784890151610ea7601f891682610c87565b8355505b6001600288020188555050505b505050505050565b600081905092915050565b6000610ed682610576565b610ee08185610ec0565b9350610ef0818560208601610592565b80840191505092915050565b6000610f088284610ecb565b915081905092915050565b60008154610f2081610ae4565b610f2a8186610ec0565b94506001821660008114610f455760018114610f5a57610f8d565b60ff1983168652811515820286019350610f8d565b610f6385610d93565b60005b83811015610f8557815481890152600182019150602081019050610f66565b838801955050505b50505092915050565b6000610fa28284610f13565b91508190509291505056fea2646970667358221220727cc39f966b9b63ff11066d6a070275dde419e71adefcbcee23d1ea26cf6c6a64736f6c63430008170033",
					"opcodes": "PUSH1 0x80 PUSH1 0x40 MSTORE CALLVALUE DUP1 ISZERO PUSH2 0x10 JUMPI PUSH1 0x0 DUP1 REVERT JUMPDEST POP PUSH2 0xFE3 DUP1 PUSH2 0x20 PUSH1 0x0 CODECOPY PUSH1 0x0 RETURN INVALID PUSH1 0x80 PUSH1 0x40 MSTORE CALLVALUE DUP1 ISZERO PUSH2 0x10 JUMPI PUSH1 0x0 DUP1 REVERT JUMPDEST POP PUSH1 0x4 CALLDATASIZE LT PUSH2 0xCF JUMPI PUSH1 0x0 CALLDATALOAD PUSH1 0xE0 SHR DUP1 PUSH4 0x6DEECDBE GT PUSH2 0x8C JUMPI DUP1 PUSH4 0x9CB61142 GT PUSH2 0x66 JUMPI DUP1 PUSH4 0x9CB61142 EQ PUSH2 0x1DC JUMPI DUP1 PUSH4 0xA8A7B895 EQ PUSH2 0x20C JUMPI DUP1 PUSH4 0xE492FD84 EQ PUSH2 0x228 JUMPI DUP1 PUSH4 0xEB1B30D9 EQ PUSH2 0x244 JUMPI PUSH2 0xCF JUMP JUMPDEST DUP1 PUSH4 0x6DEECDBE EQ PUSH2 0x184 JUMPI DUP1 PUSH4 0x712F4602 EQ PUSH2 0x1A2 JUMPI DUP1 PUSH4 0x82180568 EQ PUSH2 0x1C0 JUMPI PUSH2 0xCF JUMP JUMPDEST DUP1 PUSH4 0x6540F7E EQ PUSH2 0xD4 JUMPI DUP1 PUSH4 0x26B85EE1 EQ PUSH2 0xF2 JUMPI DUP1 PUSH4 0x2CB777A6 EQ PUSH2 0x110 JUMPI DUP1 PUSH4 0x492BFA18 EQ PUSH2 0x12E JUMPI DUP1 PUSH4 0x5907432D EQ PUSH2 0x14C JUMPI DUP1 PUSH4 0x5F6633BF EQ PUSH2 0x168 JUMPI JUMPDEST PUSH1 0x0 DUP1 REVERT JUMPDEST PUSH2 0xDC PUSH2 0x260 JUMP JUMPDEST PUSH1 0x40 MLOAD PUSH2 0xE9 SWAP2 SWAP1 PUSH2 0x4CB JUMP JUMPDEST PUSH1 0x40 MLOAD DUP1 SWAP2 SUB SWAP1 RETURN JUMPDEST PUSH2 0xFA PUSH2 0x266 JUMP JUMPDEST PUSH1 0x40 MLOAD PUSH2 0x107 SWAP2 SWAP1 PUSH2 0x527 JUMP JUMPDEST PUSH1 0x40 MLOAD DUP1 SWAP2 SUB SWAP1 RETURN JUMPDEST PUSH2 0x118 PUSH2 0x28C JUMP JUMPDEST PUSH1 0x40 MLOAD PUSH2 0x125 SWAP2 SWAP1 PUSH2 0x55B JUMP JUMPDEST PUSH1 0x40 MLOAD DUP1 SWAP2 SUB SWAP1 RETURN JUMPDEST PUSH2 0x136 PUSH2 0x292 JUMP JUMPDEST PUSH1 0x40 MLOAD PUSH2 0x143 SWAP2 SWAP1 PUSH2 0x606 JUMP JUMPDEST PUSH1 0x40 MLOAD DUP1 SWAP2 SUB SWAP1 RETURN JUMPDEST PUSH2 0x166 PUSH1 0x4 DUP1 CALLDATASIZE SUB DUP2 ADD SWAP1 PUSH2 0x161 SWAP2 SWAP1 PUSH2 0x771 JUMP JUMPDEST PUSH2 0x320 JUMP JUMPDEST STOP JUMPDEST PUSH2 0x182 PUSH1 0x4 DUP1 CALLDATASIZE SUB DUP2 ADD SWAP1 PUSH2 0x17D SWAP2 SWAP1 PUSH2 0x7E6 JUMP JUMPDEST PUSH2 0x333 JUMP JUMPDEST STOP JUMPDEST PUSH2 0x18C PUSH2 0x33D JUMP JUMPDEST PUSH1 0x40 MLOAD PUSH2 0x199 SWAP2 SWAP1 PUSH2 0x82E JUMP JUMPDEST PUSH1 0x40 MLOAD DUP1 SWAP2 SUB SWAP1 RETURN JUMPDEST PUSH2 0x1AA PUSH2 0x34E JUMP JUMPDEST PUSH1 0x40 MLOAD PUSH2 0x1B7 SWAP2 SWAP1 PUSH2 0x89E JUMP JUMPDEST PUSH1 0x40 MLOAD DUP1 SWAP2 SUB SWAP1 RETURN JUMPDEST PUSH2 0x1DA PUSH1 0x4 DUP1 CALLDATASIZE SUB DUP2 ADD SWAP1 PUSH2 0x1D5 SWAP2 SWAP1 PUSH2 0x961 JUMP JUMPDEST PUSH2 0x3DC JUMP JUMPDEST STOP JUMPDEST PUSH2 0x1F6 PUSH1 0x4 DUP1 CALLDATASIZE SUB DUP2 ADD SWAP1 PUSH2 0x1F1 SWAP2 SWAP1 PUSH2 0x961 JUMP JUMPDEST PUSH2 0x3EF JUMP JUMPDEST PUSH1 0x40 MLOAD PUSH2 0x203 SWAP2 SWAP1 PUSH2 0x82E JUMP JUMPDEST PUSH1 0x40 MLOAD DUP1 SWAP2 SUB SWAP1 RETURN JUMPDEST PUSH2 0x226 PUSH1 0x4 DUP1 CALLDATASIZE SUB DUP2 ADD SWAP1 PUSH2 0x221 SWAP2 SWAP1 PUSH2 0x9D6 JUMP JUMPDEST PUSH2 0x448 JUMP JUMPDEST STOP JUMPDEST PUSH2 0x242 PUSH1 0x4 DUP1 CALLDATASIZE SUB DUP2 ADD SWAP1 PUSH2 0x23D SWAP2 SWAP1 PUSH2 0xA2F JUMP JUMPDEST PUSH2 0x48C JUMP JUMPDEST STOP JUMPDEST PUSH2 0x25E PUSH1 0x4 DUP1 CALLDATASIZE SUB DUP2 ADD SWAP1 PUSH2 0x259 SWAP2 SWAP1 PUSH2 0xA88 JUMP JUMPDEST PUSH2 0x496 JUMP JUMPDEST STOP JUMPDEST PUSH1 0x1 SLOAD DUP2 JUMP JUMPDEST PUSH1 0x5 PUSH1 0x0 SWAP1 SLOAD SWAP1 PUSH2 0x100 EXP SWAP1 DIV PUSH20 0xFFFFFFFFFFFFFFFFFFFFFFFFFFFFFFFFFFFFFFFF AND DUP2 JUMP JUMPDEST PUSH1 0x2 SLOAD DUP2 JUMP JUMPDEST PUSH1 0x3 DUP1 SLOAD PUSH2 0x29F SWAP1 PUSH2 0xAE4 JUMP JUMPDEST DUP1 PUSH1 0x1F ADD PUSH1 0x20 DUP1 SWAP2 DIV MUL PUSH1 0x20 ADD PUSH1 0x40 MLOAD SWAP1 DUP2 ADD PUSH1 0x40 MSTORE DUP1 SWAP3 SWAP2 SWAP1 DUP2 DUP2 MSTORE PUSH1 0x20 ADD DUP3 DUP1 SLOAD PUSH2 0x2CB SWAP1 PUSH2 0xAE4 JUMP JUMPDEST DUP1 ISZERO PUSH2 0x318 JUMPI DUP1 PUSH1 0x1F LT PUSH2 0x2ED JUMPI PUSH2 0x100 DUP1 DUP4 SLOAD DIV MUL DUP4 MSTORE SWAP2 PUSH1 0x20 ADD SWAP2 PUSH2 0x318 JUMP JUMPDEST DUP3 ADD SWAP2 SWAP1 PUSH1 0x0 MSTORE PUSH1 0x20 PUSH1 0x0 KECCAK256 SWAP1 JUMPDEST DUP2 SLOAD DUP2 MSTORE SWAP1 PUSH1 0x1 ADD SWAP1 PUSH1 0x20 ADD DUP1 DUP4 GT PUSH2 0x2FB JUMPI DUP3 SWAP1 SUB PUSH1 0x1F AND DUP3 ADD SWAP2 JUMPDEST POP POP POP POP POP DUP2 JUMP JUMPDEST DUP1 PUSH1 0x4 SWAP1 DUP2 PUSH2 0x32F SWAP2 SWAP1 PUSH2 0xCC1 JUMP JUMPDEST POP POP JUMP JUMPDEST DUP1 PUSH1 0x2 DUP2 SWAP1 SSTORE POP POP JUMP JUMPDEST PUSH1 0x0 DUP1 SLOAD SWAP1 PUSH2 0x100 EXP SWAP1 DIV PUSH1 0xFF AND DUP2 JUMP JUMPDEST PUSH1 0x4 DUP1 SLOAD PUSH2 0x35B SWAP1 PUSH2 0xAE4 JUMP JUMPDEST DUP1 PUSH1 0x1F ADD PUSH1 0x20 DUP1 SWAP2 DIV MUL PUSH1 0x20 ADD PUSH1 0x40 MLOAD SWAP1 DUP2 ADD PUSH1 0x40 MSTORE DUP1 SWAP3 SWAP2 SWAP1 DUP2 DUP2 MSTORE PUSH1 0x20 ADD DUP3 DUP1 SLOAD PUSH2 0x387 SWAP1 PUSH2 0xAE4 JUMP JUMPDEST DUP1 ISZERO PUSH2 0x3D4 JUMPI DUP1 PUSH1 0x1F LT PUSH2 0x3A9 JUMPI PUSH2 0x100 DUP1 DUP4 SLOAD DIV MUL DUP4 MSTORE SWAP2 PUSH1 0x20 ADD SWAP2 PUSH2 0x3D4 JUMP JUMPDEST DUP3 ADD SWAP2 SWAP1 PUSH1 0x0 MSTORE PUSH1 0x20 PUSH1 0x0 KECCAK256 SWAP1 JUMPDEST DUP2 SLOAD DUP2 MSTORE SWAP1 PUSH1 0x1 ADD SWAP1 PUSH1 0x20 ADD DUP1 DUP4 GT PUSH2 0x3B7 JUMPI DUP3 SWAP1 SUB PUSH1 0x1F AND DUP3 ADD SWAP2 JUMPDEST POP POP POP POP POP DUP2 JUMP JUMPDEST DUP1 PUSH1 0x3 SWAP1 DUP2 PUSH2 0x3EB SWAP2 SWAP1 PUSH2 0xDEE JUMP JUMPDEST POP POP JUMP JUMPDEST PUSH1 0x0 DUP2 PUSH1 0x40 MLOAD PUSH1 0x20 ADD PUSH2 0x402 SWAP2 SWAP1 PUSH2 0xEFC JUMP JUMPDEST PUSH1 0x40 MLOAD PUSH1 0x20 DUP2 DUP4 SUB SUB DUP2 MSTORE SWAP1 PUSH1 0x40 MSTORE DUP1 MLOAD SWAP1 PUSH1 0x20 ADD KECCAK256 PUSH1 0x3 PUSH1 0x40 MLOAD PUSH1 0x20 ADD PUSH2 0x42A SWAP2 SWAP1 PUSH2 0xF96 JUMP JUMPDEST PUSH1 0x40 MLOAD PUSH1 0x20 DUP2 DUP4 SUB SUB DUP2 MSTORE SWAP1 PUSH1 0x40 MSTORE DUP1 MLOAD SWAP1 PUSH1 0x20 ADD KECCAK256 EQ SWAP1 POP SWAP2 SWAP1 POP JUMP JUMPDEST DUP1 PUSH1 0x5 PUSH1 0x0 PUSH2 0x100 EXP DUP2 SLOAD DUP2 PUSH20 0xFFFFFFFFFFFFFFFFFFFFFFFFFFFFFFFFFFFFFFFF MUL NOT AND SWAP1 DUP4 PUSH20 0xFFFFFFFFFFFFFFFFFFFFFFFFFFFFFFFFFFFFFFFF AND MUL OR SWAP1 SSTORE POP POP JUMP JUMPDEST DUP1 PUSH1 0x1 DUP2 SWAP1 SSTORE POP POP JUMP JUMPDEST DUP1 PUSH1 0x0 DUP1 PUSH2 0x100 EXP DUP2 SLOAD DUP2 PUSH1 0xFF MUL NOT AND SWAP1 DUP4 ISZERO ISZERO MUL OR SWAP1 SSTORE POP POP JUMP JUMPDEST PUSH1 0x0 DUP2 SWAP1 POP SWAP2 SWAP1 POP JUMP JUMPDEST PUSH2 0x4C5 DUP2 PUSH2 0x4B2 JUMP JUMPDEST DUP3 MSTORE POP POP JUMP JUMPDEST PUSH1 0x0 PUSH1 0x20 DUP3 ADD SWAP1 POP PUSH2 0x4E0 PUSH1 0x0 DUP4 ADD DUP5 PUSH2 0x4BC JUMP JUMPDEST SWAP3 SWAP2 POP POP JUMP JUMPDEST PUSH1 0x0 PUSH20 0xFFFFFFFFFFFFFFFFFFFFFFFFFFFFFFFFFFFFFFFF DUP3 AND SWAP1 POP SWAP2 SWAP1 POP JUMP JUMPDEST PUSH1 0x0 PUSH2 0x511 DUP3 PUSH2 0x4E6 JUMP JUMPDEST SWAP1 POP SWAP2 SWAP1 POP JUMP JUMPDEST PUSH2 0x521 DUP2 PUSH2 0x506 JUMP JUMPDEST DUP3 MSTORE POP POP JUMP JUMPDEST PUSH1 0x0 PUSH1 0x20 DUP3 ADD SWAP1 POP PUSH2 0x53C PUSH1 0x0 DUP4 ADD DUP5 PUSH2 0x518 JUMP JUMPDEST SWAP3 SWAP2 POP POP JUMP JUMPDEST PUSH1 0x0 DUP2 SWAP1 POP SWAP2 SWAP1 POP JUMP JUMPDEST PUSH2 0x555 DUP2 PUSH2 0x542 JUMP JUMPDEST DUP3 MSTORE POP POP JUMP JUMPDEST PUSH1 0x0 PUSH1 0x20 DUP3 ADD SWAP1 POP PUSH2 0x570 PUSH1 0x0 DUP4 ADD DUP5 PUSH2 0x54C JUMP JUMPDEST SWAP3 SWAP2 POP POP JUMP JUMPDEST PUSH1 0x0 DUP2 MLOAD SWAP1 POP SWAP2 SWAP1 POP JUMP JUMPDEST PUSH1 0x0 DUP3 DUP3 MSTORE PUSH1 0x20 DUP3 ADD SWAP1 POP SWAP3 SWAP2 POP POP JUMP JUMPDEST PUSH1 0x0 JUMPDEST DUP4 DUP2 LT ISZERO PUSH2 0x5B0 JUMPI DUP1 DUP3 ADD MLOAD DUP2 DUP5 ADD MSTORE PUSH1 0x20 DUP2 ADD SWAP1 POP PUSH2 0x595 JUMP JUMPDEST PUSH1 0x0 DUP5 DUP5 ADD MSTORE POP POP POP POP JUMP JUMPDEST PUSH1 0x0 PUSH1 0x1F NOT PUSH1 0x1F DUP4 ADD AND SWAP1 POP SWAP2 SWAP1 POP JUMP JUMPDEST PUSH1 0x0 PUSH2 0x5D8 DUP3 PUSH2 0x576 JUMP JUMPDEST PUSH2 0x5E2 DUP2 DUP6 PUSH2 0x581 JUMP JUMPDEST SWAP4 POP PUSH2 0x5F2 DUP2 DUP6 PUSH1 0x20 DUP7 ADD PUSH2 0x592 JUMP JUMPDEST PUSH2 0x5FB DUP2 PUSH2 0x5BC JUMP JUMPDEST DUP5 ADD SWAP2 POP POP SWAP3 SWAP2 POP POP JUMP JUMPDEST PUSH1 0x0 PUSH1 0x20 DUP3 ADD SWAP1 POP DUP2 DUP2 SUB PUSH1 0x0 DUP4 ADD MSTORE PUSH2 0x620 DUP2 DUP5 PUSH2 0x5CD JUMP JUMPDEST SWAP1 POP SWAP3 SWAP2 POP POP JUMP JUMPDEST PUSH1 0x0 PUSH1 0x40 MLOAD SWAP1 POP SWAP1 JUMP JUMPDEST PUSH1 0x0 DUP1 REVERT JUMPDEST PUSH1 0x0 DUP1 REVERT JUMPDEST PUSH1 0x0 DUP1 REVERT JUMPDEST PUSH1 0x0 DUP1 REVERT JUMPDEST PUSH32 0x4E487B7100000000000000000000000000000000000000000000000000000000 PUSH1 0x0 MSTORE PUSH1 0x41 PUSH1 0x4 MSTORE PUSH1 0x24 PUSH1 0x0 REVERT JUMPDEST PUSH2 0x67E DUP3 PUSH2 0x5BC JUMP JUMPDEST DUP2 ADD DUP2 DUP2 LT PUSH8 0xFFFFFFFFFFFFFFFF DUP3 GT OR ISZERO PUSH2 0x69D JUMPI PUSH2 0x69C PUSH2 0x646 JUMP JUMPDEST JUMPDEST DUP1 PUSH1 0x40 MSTORE POP POP POP JUMP JUMPDEST PUSH1 0x0 PUSH2 0x6B0 PUSH2 0x628 JUMP JUMPDEST SWAP1 POP PUSH2 0x6BC DUP3 DUP3 PUSH2 0x675 JUMP JUMPDEST SWAP2 SWAP1 POP JUMP JUMPDEST PUSH1 0x0 PUSH8 0xFFFFFFFFFFFFFFFF DUP3 GT ISZERO PUSH2 0x6DC JUMPI PUSH2 0x6DB PUSH2 0x646 JUMP JUMPDEST JUMPDEST PUSH2 0x6E5 DUP3 PUSH2 0x5BC JUMP JUMPDEST SWAP1 POP PUSH1 0x20 DUP2 ADD SWAP1 POP SWAP2 SWAP1 POP JUMP JUMPDEST DUP3 DUP2 DUP4 CALLDATACOPY PUSH1 0x0 DUP4 DUP4 ADD MSTORE POP POP POP JUMP JUMPDEST PUSH1 0x0 PUSH2 0x714 PUSH2 0x70F DUP5 PUSH2 0x6C1 JUMP JUMPDEST PUSH2 0x6A6 JUMP JUMPDEST SWAP1 POP DUP3 DUP2 MSTORE PUSH1 0x20 DUP2 ADD DUP5 DUP5 DUP5 ADD GT ISZERO PUSH2 0x730 JUMPI PUSH2 0x72F PUSH2 0x641 JUMP JUMPDEST JUMPDEST PUSH2 0x73B DUP5 DUP3 DUP6 PUSH2 0x6F2 JUMP JUMPDEST POP SWAP4 SWAP3 POP POP POP JUMP JUMPDEST PUSH1 0x0 DUP3 PUSH1 0x1F DUP4 ADD SLT PUSH2 0x758 JUMPI PUSH2 0x757 PUSH2 0x63C JUMP JUMPDEST JUMPDEST DUP2 CALLDATALOAD PUSH2 0x768 DUP5 DUP3 PUSH1 0x20 DUP7 ADD PUSH2 0x701 JUMP JUMPDEST SWAP2 POP POP SWAP3 SWAP2 POP POP JUMP JUMPDEST PUSH1 0x0 PUSH1 0x20 DUP3 DUP5 SUB SLT ISZERO PUSH2 0x787 JUMPI PUSH2 0x786 PUSH2 0x632 JUMP JUMPDEST JUMPDEST PUSH1 0x0 DUP3 ADD CALLDATALOAD PUSH8 0xFFFFFFFFFFFFFFFF DUP2 GT ISZERO PUSH2 0x7A5 JUMPI PUSH2 0x7A4 PUSH2 0x637 JUMP JUMPDEST JUMPDEST PUSH2 0x7B1 DUP5 DUP3 DUP6 ADD PUSH2 0x743 JUMP JUMPDEST SWAP2 POP POP SWAP3 SWAP2 POP POP JUMP JUMPDEST PUSH2 0x7C3 DUP2 PUSH2 0x542 JUMP JUMPDEST DUP2 EQ PUSH2 0x7CE JUMPI PUSH1 0x0 DUP1 REVERT JUMPDEST POP JUMP JUMPDEST PUSH1 0x0 DUP2 CALLDATALOAD SWAP1 POP PUSH2 0x7E0 DUP2 PUSH2 0x7BA JUMP JUMPDEST SWAP3 SWAP2 POP POP JUMP JUMPDEST PUSH1 0x0 PUSH1 0x20 DUP3 DUP5 SUB SLT ISZERO PUSH2 0x7FC JUMPI PUSH2 0x7FB PUSH2 0x632 JUMP JUMPDEST JUMPDEST PUSH1 0x0 PUSH2 0x80A DUP5 DUP3 DUP6 ADD PUSH2 0x7D1 JUMP JUMPDEST SWAP2 POP POP SWAP3 SWAP2 POP POP JUMP JUMPDEST PUSH1 0x0 DUP2 ISZERO ISZERO SWAP1 POP SWAP2 SWAP1 POP JUMP JUMPDEST PUSH2 0x828 DUP2 PUSH2 0x813 JUMP JUMPDEST DUP3 MSTORE POP POP JUMP JUMPDEST PUSH1 0x0 PUSH1 0x20 DUP3 ADD SWAP1 POP PUSH2 0x843 PUSH1 0x0 DUP4 ADD DUP5 PUSH2 0x81F JUMP JUMPDEST SWAP3 SWAP2 POP POP JUMP JUMPDEST PUSH1 0x0 DUP2 MLOAD SWAP1 POP SWAP2 SWAP1 POP JUMP JUMPDEST PUSH1 0x0 DUP3 DUP3 MSTORE PUSH1 0x20 DUP3 ADD SWAP1 POP SWAP3 SWAP2 POP POP JUMP JUMPDEST PUSH1 0x0 PUSH2 0x870 DUP3 PUSH2 0x849 JUMP JUMPDEST PUSH2 0x87A DUP2 DUP6 PUSH2 0x854 JUMP JUMPDEST SWAP4 POP PUSH2 0x88A DUP2 DUP6 PUSH1 0x20 DUP7 ADD PUSH2 0x592 JUMP JUMPDEST PUSH2 0x893 DUP2 PUSH2 0x5BC JUMP JUMPDEST DUP5 ADD SWAP2 POP POP SWAP3 SWAP2 POP POP JUMP JUMPDEST PUSH1 0x0 PUSH1 0x20 DUP3 ADD SWAP1 POP DUP2 DUP2 SUB PUSH1 0x0 DUP4 ADD MSTORE PUSH2 0x8B8 DUP2 DUP5 PUSH2 0x865 JUMP JUMPDEST SWAP1 POP SWAP3 SWAP2 POP POP JUMP JUMPDEST PUSH1 0x0 PUSH8 0xFFFFFFFFFFFFFFFF DUP3 GT ISZERO PUSH2 0x8DB JUMPI PUSH2 0x8DA PUSH2 0x646 JUMP JUMPDEST JUMPDEST PUSH2 0x8E4 DUP3 PUSH2 0x5BC JUMP JUMPDEST SWAP1 POP PUSH1 0x20 DUP2 ADD SWAP1 POP SWAP2 SWAP1 POP JUMP JUMPDEST PUSH1 0x0 PUSH2 0x904 PUSH2 0x8FF DUP5 PUSH2 0x8C0 JUMP JUMPDEST PUSH2 0x6A6 JUMP JUMPDEST SWAP1 POP DUP3 DUP2 MSTORE PUSH1 0x20 DUP2 ADD DUP5 DUP5 DUP5 ADD GT ISZERO PUSH2 0x920 JUMPI PUSH2 0x91F PUSH2 0x641 JUMP JUMPDEST JUMPDEST PUSH2 0x92B DUP5 DUP3 DUP6 PUSH2 0x6F2 JUMP JUMPDEST POP SWAP4 SWAP3 POP POP POP JUMP JUMPDEST PUSH1 0x0 DUP3 PUSH1 0x1F DUP4 ADD SLT PUSH2 0x948 JUMPI PUSH2 0x947 PUSH2 0x63C JUMP JUMPDEST JUMPDEST DUP2 CALLDATALOAD PUSH2 0x958 DUP5 DUP3 PUSH1 0x20 DUP7 ADD PUSH2 0x8F1 JUMP JUMPDEST SWAP2 POP POP SWAP3 SWAP2 POP POP JUMP JUMPDEST PUSH1 0x0 PUSH1 0x20 DUP3 DUP5 SUB SLT ISZERO PUSH2 0x977 JUMPI PUSH2 0x976 PUSH2 0x632 JUMP JUMPDEST JUMPDEST PUSH1 0x0 DUP3 ADD CALLDATALOAD PUSH8 0xFFFFFFFFFFFFFFFF DUP2 GT ISZERO PUSH2 0x995 JUMPI PUSH2 0x994 PUSH2 0x637 JUMP JUMPDEST JUMPDEST PUSH2 0x9A1 DUP5 DUP3 DUP6 ADD PUSH2 0x933 JUMP JUMPDEST SWAP2 POP POP SWAP3 SWAP2 POP POP JUMP JUMPDEST PUSH2 0x9B3 DUP2 PUSH2 0x506 JUMP JUMPDEST DUP2 EQ PUSH2 0x9BE JUMPI PUSH1 0x0 DUP1 REVERT JUMPDEST POP JUMP JUMPDEST PUSH1 0x0 DUP2 CALLDATALOAD SWAP1 POP PUSH2 0x9D0 DUP2 PUSH2 0x9AA JUMP JUMPDEST SWAP3 SWAP2 POP POP JUMP JUMPDEST PUSH1 0x0 PUSH1 0x20 DUP3 DUP5 SUB SLT ISZERO PUSH2 0x9EC JUMPI PUSH2 0x9EB PUSH2 0x632 JUMP JUMPDEST JUMPDEST PUSH1 0x0 PUSH2 0x9FA DUP5 DUP3 DUP6 ADD PUSH2 0x9C1 JUMP JUMPDEST SWAP2 POP POP SWAP3 SWAP2 POP POP JUMP JUMPDEST PUSH2 0xA0C DUP2 PUSH2 0x4B2 JUMP JUMPDEST DUP2 EQ PUSH2 0xA17 JUMPI PUSH1 0x0 DUP1 REVERT JUMPDEST POP JUMP JUMPDEST PUSH1 0x0 DUP2 CALLDATALOAD SWAP1 POP PUSH2 0xA29 DUP2 PUSH2 0xA03 JUMP JUMPDEST SWAP3 SWAP2 POP POP JUMP JUMPDEST PUSH1 0x0 PUSH1 0x20 DUP3 DUP5 SUB SLT ISZERO PUSH2 0xA45 JUMPI PUSH2 0xA44 PUSH2 0x632 JUMP JUMPDEST JUMPDEST PUSH1 0x0 PUSH2 0xA53 DUP5 DUP3 DUP6 ADD PUSH2 0xA1A JUMP JUMPDEST SWAP2 POP POP SWAP3 SWAP2 POP POP JUMP JUMPDEST PUSH2 0xA65 DUP2 PUSH2 0x813 JUMP JUMPDEST DUP2 EQ PUSH2 0xA70 JUMPI PUSH1 0x0 DUP1 REVERT JUMPDEST POP JUMP JUMPDEST PUSH1 0x0 DUP2 CALLDATALOAD SWAP1 POP PUSH2 0xA82 DUP2 PUSH2 0xA5C JUMP JUMPDEST SWAP3 SWAP2 POP POP JUMP JUMPDEST PUSH1 0x0 PUSH1 0x20 DUP3 DUP5 SUB SLT ISZERO PUSH2 0xA9E JUMPI PUSH2 0xA9D PUSH2 0x632 JUMP JUMPDEST JUMPDEST PUSH1 0x0 PUSH2 0xAAC DUP5 DUP3 DUP6 ADD PUSH2 0xA73 JUMP JUMPDEST SWAP2 POP POP SWAP3 SWAP2 POP POP JUMP JUMPDEST PUSH32 0x4E487B7100000000000000000000000000000000000000000000000000000000 PUSH1 0x0 MSTORE PUSH1 0x22 PUSH1 0x4 MSTORE PUSH1 0x24 PUSH1 0x0 REVERT JUMPDEST PUSH1 0x0 PUSH1 0x2 DUP3 DIV SWAP1 POP PUSH1 0x1 DUP3 AND DUP1 PUSH2 0xAFC JUMPI PUSH1 0x7F DUP3 AND SWAP2 POP JUMPDEST PUSH1 0x20 DUP3 LT DUP2 SUB PUSH2 0xB0F JUMPI PUSH2 0xB0E PUSH2 0xAB5 JUMP JUMPDEST JUMPDEST POP SWAP2 SWAP1 POP JUMP JUMPDEST PUSH1 0x0 DUP2 SWAP1 POP DUP2 PUSH1 0x0 MSTORE PUSH1 0x20 PUSH1 0x0 KECCAK256 SWAP1 POP SWAP2 SWAP1 POP JUMP JUMPDEST PUSH1 0x0 PUSH1 0x20 PUSH1 0x1F DUP4 ADD DIV SWAP1 POP SWAP2 SWAP1 POP JUMP JUMPDEST PUSH1 0x0 DUP3 DUP3 SHL SWAP1 POP SWAP3 SWAP2 POP POP JUMP JUMPDEST PUSH1 0x0 PUSH1 0x8 DUP4 MUL PUSH2 0xB77 PUSH32 0xFFFFFFFFFFFFFFFFFFFFFFFFFFFFFFFFFFFFFFFFFFFFFFFFFFFFFFFFFFFFFFFF DUP3 PUSH2 0xB3A JUMP JUMPDEST PUSH2 0xB81 DUP7 DUP4 PUSH2 0xB3A JUMP JUMPDEST SWAP6 POP DUP1 NOT DUP5 AND SWAP4 POP DUP1 DUP7 AND DUP5 OR SWAP3 POP POP POP SWAP4 SWAP3 POP POP POP JUMP JUMPDEST PUSH1 0x0 DUP2 SWAP1 POP SWAP2 SWAP1 POP JUMP JUMPDEST PUSH1 0x0 PUSH2 0xBBE PUSH2 0xBB9 PUSH2 0xBB4 DUP5 PUSH2 0x4B2 JUMP JUMPDEST PUSH2 0xB99 JUMP JUMPDEST PUSH2 0x4B2 JUMP JUMPDEST SWAP1 POP SWAP2 SWAP1 POP JUMP JUMPDEST PUSH1 0x0 DUP2 SWAP1 POP SWAP2 SWAP1 POP JUMP JUMPDEST PUSH2 0xBD8 DUP4 PUSH2 0xBA3 JUMP JUMPDEST PUSH2 0xBEC PUSH2 0xBE4 DUP3 PUSH2 0xBC5 JUMP JUMPDEST DUP5 DUP5 SLOAD PUSH2 0xB47 JUMP JUMPDEST DUP3 SSTORE POP POP POP POP JUMP JUMPDEST PUSH1 0x0 SWAP1 JUMP JUMPDEST PUSH2 0xC01 PUSH2 0xBF4 JUMP JUMPDEST PUSH2 0xC0C DUP2 DUP5 DUP5 PUSH2 0xBCF JUMP JUMPDEST POP POP POP JUMP JUMPDEST JUMPDEST DUP2 DUP2 LT ISZERO PUSH2 0xC30 JUMPI PUSH2 0xC25 PUSH1 0x0 DUP3 PUSH2 0xBF9 JUMP JUMPDEST PUSH1 0x1 DUP2 ADD SWAP1 POP PUSH2 0xC12 JUMP JUMPDEST POP POP JUMP JUMPDEST PUSH1 0x1F DUP3 GT ISZERO PUSH2 0xC75 JUMPI PUSH2 0xC46 DUP2 PUSH2 0xB15 JUMP JUMPDEST PUSH2 0xC4F DUP5 PUSH2 0xB2A JUMP JUMPDEST DUP2 ADD PUSH1 0x20 DUP6 LT ISZERO PUSH2 0xC5E JUMPI DUP2 SWAP1 POP JUMPDEST PUSH2 0xC72 PUSH2 0xC6A DUP6 PUSH2 0xB2A JUMP JUMPDEST DUP4 ADD DUP3 PUSH2 0xC11 JUMP JUMPDEST POP POP JUMPDEST POP POP POP JUMP JUMPDEST PUSH1 0x0 DUP3 DUP3 SHR SWAP1 POP SWAP3 SWAP2 POP POP JUMP JUMPDEST PUSH1 0x0 PUSH2 0xC98 PUSH1 0x0 NOT DUP5 PUSH1 0x8 MUL PUSH2 0xC7A JUMP JUMPDEST NOT DUP1 DUP4 AND SWAP2 POP POP SWAP3 SWAP2 POP POP JUMP JUMPDEST PUSH1 0x0 PUSH2 0xCB1 DUP4 DUP4 PUSH2 0xC87 JUMP JUMPDEST SWAP2 POP DUP3 PUSH1 0x2 MUL DUP3 OR SWAP1 POP SWAP3 SWAP2 POP POP JUMP JUMPDEST PUSH2 0xCCA DUP3 PUSH2 0x849 JUMP JUMPDEST PUSH8 0xFFFFFFFFFFFFFFFF DUP2 GT ISZERO PUSH2 0xCE3 JUMPI PUSH2 0xCE2 PUSH2 0x646 JUMP JUMPDEST JUMPDEST PUSH2 0xCED DUP3 SLOAD PUSH2 0xAE4 JUMP JUMPDEST PUSH2 0xCF8 DUP3 DUP3 DUP6 PUSH2 0xC34 JUMP JUMPDEST PUSH1 0x0 PUSH1 0x20 SWAP1 POP PUSH1 0x1F DUP4 GT PUSH1 0x1 DUP2 EQ PUSH2 0xD2B JUMPI PUSH1 0x0 DUP5 ISZERO PUSH2 0xD19 JUMPI DUP3 DUP8 ADD MLOAD SWAP1 POP JUMPDEST PUSH2 0xD23 DUP6 DUP3 PUSH2 0xCA5 JUMP JUMPDEST DUP7 SSTORE POP PUSH2 0xD8B JUMP JUMPDEST PUSH1 0x1F NOT DUP5 AND PUSH2 0xD39 DUP7 PUSH2 0xB15 JUMP JUMPDEST PUSH1 0x0 JUMPDEST DUP3 DUP2 LT ISZERO PUSH2 0xD61 JUMPI DUP5 DUP10 ADD MLOAD DUP3 SSTORE PUSH1 0x1 DUP3 ADD SWAP2 POP PUSH1 0x20 DUP6 ADD SWAP5 POP PUSH1 0x20 DUP2 ADD SWAP1 POP PUSH2 0xD3C JUMP JUMPDEST DUP7 DUP4 LT ISZERO PUSH2 0xD7E JUMPI DUP5 DUP10 ADD MLOAD PUSH2 0xD7A PUSH1 0x1F DUP10 AND DUP3 PUSH2 0xC87 JUMP JUMPDEST DUP4 SSTORE POP JUMPDEST PUSH1 0x1 PUSH1 0x2 DUP9 MUL ADD DUP9 SSTORE POP POP POP JUMPDEST POP POP POP POP POP POP JUMP JUMPDEST PUSH1 0x0 DUP2 SWAP1 POP DUP2 PUSH1 0x0 MSTORE PUSH1 0x20 PUSH1 0x0 KECCAK256 SWAP1 POP SWAP2 SWAP1 POP JUMP JUMPDEST PUSH1 0x1F DUP3 GT ISZERO PUSH2 0xDE9 JUMPI PUSH2 0xDBA DUP2 PUSH2 0xD93 JUMP JUMPDEST PUSH2 0xDC3 DUP5 PUSH2 0xB2A JUMP JUMPDEST DUP2 ADD PUSH1 0x20 DUP6 LT ISZERO PUSH2 0xDD2 JUMPI DUP2 SWAP1 POP JUMPDEST PUSH2 0xDE6 PUSH2 0xDDE DUP6 PUSH2 0xB2A JUMP JUMPDEST DUP4 ADD DUP3 PUSH2 0xC11 JUMP JUMPDEST POP POP JUMPDEST POP POP POP JUMP JUMPDEST PUSH2 0xDF7 DUP3 PUSH2 0x576 JUMP JUMPDEST PUSH8 0xFFFFFFFFFFFFFFFF DUP2 GT ISZERO PUSH2 0xE10 JUMPI PUSH2 0xE0F PUSH2 0x646 JUMP JUMPDEST JUMPDEST PUSH2 0xE1A DUP3 SLOAD PUSH2 0xAE4 JUMP JUMPDEST PUSH2 0xE25 DUP3 DUP3 DUP6 PUSH2 0xDA8 JUMP JUMPDEST PUSH1 0x0 PUSH1 0x20 SWAP1 POP PUSH1 0x1F DUP4 GT PUSH1 0x1 DUP2 EQ PUSH2 0xE58 JUMPI PUSH1 0x0 DUP5 ISZERO PUSH2 0xE46 JUMPI DUP3 DUP8 ADD MLOAD SWAP1 POP JUMPDEST PUSH2 0xE50 DUP6 DUP3 PUSH2 0xCA5 JUMP JUMPDEST DUP7 SSTORE POP PUSH2 0xEB8 JUMP JUMPDEST PUSH1 0x1F NOT DUP5 AND PUSH2 0xE66 DUP7 PUSH2 0xD93 JUMP JUMPDEST PUSH1 0x0 JUMPDEST DUP3 DUP2 LT ISZERO PUSH2 0xE8E JUMPI DUP5 DUP10 ADD MLOAD DUP3 SSTORE PUSH1 0x1 DUP3 ADD SWAP2 POP PUSH1 0x20 DUP6 ADD SWAP5 POP PUSH1 0x20 DUP2 ADD SWAP1 POP PUSH2 0xE69 JUMP JUMPDEST DUP7 DUP4 LT ISZERO PUSH2 0xEAB JUMPI DUP5 DUP10 ADD MLOAD PUSH2 0xEA7 PUSH1 0x1F DUP10 AND DUP3 PUSH2 0xC87 JUMP JUMPDEST DUP4 SSTORE POP JUMPDEST PUSH1 0x1 PUSH1 0x2 DUP9 MUL ADD DUP9 SSTORE POP POP POP JUMPDEST POP POP POP POP POP POP JUMP JUMPDEST PUSH1 0x0 DUP2 SWAP1 POP SWAP3 SWAP2 POP POP JUMP JUMPDEST PUSH1 0x0 PUSH2 0xED6 DUP3 PUSH2 0x576 JUMP JUMPDEST PUSH2 0xEE0 DUP2 DUP6 PUSH2 0xEC0 JUMP JUMPDEST SWAP4 POP PUSH2 0xEF0 DUP2 DUP6 PUSH1 0x20 DUP7 ADD PUSH2 0x592 JUMP JUMPDEST DUP1 DUP5 ADD SWAP2 POP POP SWAP3 SWAP2 POP POP JUMP JUMPDEST PUSH1 0x0 PUSH2 0xF08 DUP3 DUP5 PUSH2 0xECB JUMP JUMPDEST SWAP2 POP DUP2 SWAP1 POP SWAP3 SWAP2 POP POP JUMP JUMPDEST PUSH1 0x0 DUP2 SLOAD PUSH2 0xF20 DUP2 PUSH2 0xAE4 JUMP JUMPDEST PUSH2 0xF2A DUP2 DUP7 PUSH2 0xEC0 JUMP JUMPDEST SWAP5 POP PUSH1 0x1 DUP3 AND PUSH1 0x0 DUP2 EQ PUSH2 0xF45 JUMPI PUSH1 0x1 DUP2 EQ PUSH2 0xF5A JUMPI PUSH2 0xF8D JUMP JUMPDEST PUSH1 0xFF NOT DUP4 AND DUP7 MSTORE DUP2 ISZERO ISZERO DUP3 MUL DUP7 ADD SWAP4 POP PUSH2 0xF8D JUMP JUMPDEST PUSH2 0xF63 DUP6 PUSH2 0xD93 JUMP JUMPDEST PUSH1 0x0 JUMPDEST DUP4 DUP2 LT ISZERO PUSH2 0xF85 JUMPI DUP2 SLOAD DUP2 DUP10 ADD MSTORE PUSH1 0x1 DUP3 ADD SWAP2 POP PUSH1 0x20 DUP2 ADD SWAP1 POP PUSH2 0xF66 JUMP JUMPDEST DUP4 DUP9 ADD SWAP6 POP POP POP JUMPDEST POP POP POP SWAP3 SWAP2 POP POP JUMP JUMPDEST PUSH1 0x0 PUSH2 0xFA2 DUP3 DUP5 PUSH2 0xF13 JUMP JUMPDEST SWAP2 POP DUP2 SWAP1 POP SWAP3 SWAP2 POP POP JUMP INVALID LOG2 PUSH5 0x6970667358 0x22 SLT KECCAK256 PUSH19 0x7CC39F966B9B63FF11066D6A070275DDE419E7 BYTE 0xDE 0xFC 0xBC 0xEE 0x23 0xD1 0xEA 0x26 0xCF PUSH13 0x6A64736F6C6343000817003300 "
				},
				"gasEstimates": {
					"creation": {
						"codeDepositCost": "813400",
						"executionCost": "851",
						"totalCost": "814251"
					},
					"external": {
						"compareString(string)": "infinite",
						"myAddress()": "2537",
						"myBool()": "2491",
						"myBytes()": "infinite",
						"myInt()": "2474",
						"myString()": "infinite",
						"myUint()": "2430",
						"setMyAddress(address)": "24766",
						"setMyBool(bool)": "24767",
						"setMyBytes(bytes)": "infinite",
						"setMyInt(int256)": "22631",
						"setMyString(string)": "infinite",
						"setMyUint(uint256)": "22586"
					}
				},
				"methodIdentifiers": {
					"compareString(string)": "9cb61142",
					"myAddress()": "26b85ee1",
					"myBool()": "6deecdbe",
					"myBytes()": "712f4602",
					"myInt()": "2cb777a6",
					"myString()": "492bfa18",
					"myUint()": "06540f7e",
					"setMyAddress(address)": "a8a7b895",
					"setMyBool(bool)": "eb1b30d9",
					"setMyBytes(bytes)": "5907432d",
					"setMyInt(int256)": "5f6633bf",
					"setMyString(string)": "82180568",
					"setMyUint(uint256)": "e492fd84"
				}
			},
			"storageLayout": {
				"storage": [
					{
						"astId": 3,
						"contract": "contracts/Start.sol:MyContract",
						"label": "myBool",
						"offset": 0,
						"slot": "0",
						"type": "t_bool"
					},
					{
						"astId": 5,
						"contract": "contracts/Start.sol:MyContract",
						"label": "myUint",
						"offset": 0,
						"slot": "1",
						"type": "t_uint256"
					},
					{
						"astId": 7,
						"contract": "contracts/Start.sol:MyContract",
						"label": "myInt",
						"offset": 0,
						"slot": "2",
						"type": "t_int256"
					},
					{
						"astId": 9,
						"contract": "contracts/Start.sol:MyContract",
						"label": "myString",
						"offset": 0,
						"slot": "3",
						"type": "t_string_storage"
					},
					{
						"astId": 11,
						"contract": "contracts/Start.sol:MyContract",
						"label": "myBytes",
						"offset": 0,
						"slot": "4",
						"type": "t_bytes_storage"
					},
					{
						"astId": 13,
						"contract": "contracts/Start.sol:MyContract",
						"label": "myAddress",
						"offset": 0,
						"slot": "5",
						"type": "t_address"
					}
				],
				"types": {
					"t_address": {
						"encoding": "inplace",
						"label": "address",
						"numberOfBytes": "20"
					},
					"t_bool": {
						"encoding": "inplace",
						"label": "bool",
						"numberOfBytes": "1"
					},
					"t_bytes_storage": {
						"encoding": "bytes",
						"label": "bytes",
						"numberOfBytes": "32"
					},
					"t_int256": {
						"encoding": "inplace",
						"label": "int256",
						"numberOfBytes": "32"
					},
					"t_string_storage": {
						"encoding": "bytes",
						"label": "string",
						"numberOfBytes": "32"
					},
					"t_uint256": {
						"encoding": "inplace",
						"label": "uint256",
						"numberOfBytes": "32"
					}
				}
			},
			"userdoc": {
				"kind": "user",
				"methods": {},
				"version": 1
			}
		}
	}
}