{
	"contracts/ExampleMapping.sol": {
		"ExampleMapping": {
			"abi": [
				{
					"inputs": [
						{
							"internalType": "uint256",
							"name": "",
							"type": "uint256"
						},
						{
							"internalType": "int256",
							"name": "",
							"type": "int256"
						}
					],
					"name": "doubleMap",
					"outputs": [
						{
							"internalType": "string",
							"name": "",
							"type": "string"
						}
					],
					"stateMutability": "view",
					"type": "function"
				},
				{
					"inputs": [
						{
							"internalType": "uint256",
							"name": "",
							"type": "uint256"
						}
					],
					"name": "myMap",
					"outputs": [
						{
							"internalType": "uint256",
							"name": "",
							"type": "uint256"
						}
					],
					"stateMutability": "view",
					"type": "function"
				},
				{
					"inputs": [
						{
							"internalType": "uint256",
							"name": "_key1",
							"type": "uint256"
						},
						{
							"internalType": "int256",
							"name": "_key2",
							"type": "int256"
						},
						{
							"internalType": "string",
							"name": "_value",
							"type": "string"
						}
					],
					"name": "setDoubleMap",
					"outputs": [],
					"stateMutability": "nonpayable",
					"type": "function"
				},
				{
					"inputs": [
						{
							"internalType": "uint256",
							"name": "_index",
							"type": "uint256"
						},
						{
							"internalType": "uint256",
							"name": "_value",
							"type": "uint256"
						}
					],
					"name": "setValue",
					"outputs": [],
					"stateMutability": "nonpayable",
					"type": "function"
				}
			],
			"devdoc": {
				"kind": "dev",
				"methods": {},
				"version": 1
			},
			"evm": {
				"assembly": "    /* \"contracts/ExampleMapping.sol\":61:435  contract ExampleMapping {... */\n  mstore(0x40, 0x80)\n  callvalue\n  dup1\n  iszero\n  tag_1\n  jumpi\n  0x00\n  dup1\n  revert\ntag_1:\n  pop\n  dataSize(sub_0)\n  dup1\n  dataOffset(sub_0)\n  0x00\n  codecopy\n  0x00\n  return\nstop\n\nsub_0: assembly {\n        /* \"contracts/ExampleMapping.sol\":61:435  contract ExampleMapping {... */\n      mstore(0x40, 0x80)\n      callvalue\n      dup1\n      iszero\n      tag_1\n      jumpi\n      0x00\n      dup1\n      revert\n    tag_1:\n      pop\n      jumpi(tag_2, lt(calldatasize, 0x04))\n      shr(0xe0, calldataload(0x00))\n      dup1\n      0x6af390aa\n      eq\n      tag_3\n      jumpi\n      dup1\n      0x7b8d56e3\n      eq\n      tag_4\n      jumpi\n      dup1\n      0x9afe382c\n      eq\n      tag_5\n      jumpi\n      dup1\n      0xcc642e92\n      eq\n      tag_6\n      jumpi\n    tag_2:\n      0x00\n      dup1\n      revert\n        /* \"contracts/ExampleMapping.sol\":98:133  mapping (uint => uint) public myMap */\n    tag_3:\n      tag_7\n      0x04\n      dup1\n      calldatasize\n      sub\n      dup2\n      add\n      swap1\n      tag_8\n      swap2\n      swap1\n      tag_9\n      jump\t// in\n    tag_8:\n      tag_10\n      jump\t// in\n    tag_7:\n      mload(0x40)\n      tag_11\n      swap2\n      swap1\n      tag_12\n      jump\t// in\n    tag_11:\n      mload(0x40)\n      dup1\n      swap2\n      sub\n      swap1\n      return\n        /* \"contracts/ExampleMapping.sol\":207:299  function setValue(uint _index, uint _value) public {... */\n    tag_4:\n      tag_13\n      0x04\n      dup1\n      calldatasize\n      sub\n      dup2\n      add\n      swap1\n      tag_14\n      swap2\n      swap1\n      tag_15\n      jump\t// in\n    tag_14:\n      tag_16\n      jump\t// in\n    tag_13:\n      stop\n        /* \"contracts/ExampleMapping.sol\":307:432  function setDoubleMap(uint _key1, int _key2, string memory _value) public {... */\n    tag_5:\n      tag_17\n      0x04\n      dup1\n      calldatasize\n      sub\n      dup2\n      add\n      swap1\n      tag_18\n      swap2\n      swap1\n      tag_19\n      jump\t// in\n    tag_18:\n      tag_20\n      jump\t// in\n    tag_17:\n      stop\n        /* \"contracts/ExampleMapping.sol\":140:198  mapping (uint => mapping (int => string)) public doubleMap */\n    tag_6:\n      tag_21\n      0x04\n      dup1\n      calldatasize\n      sub\n      dup2\n      add\n      swap1\n      tag_22\n      swap2\n      swap1\n      tag_23\n      jump\t// in\n    tag_22:\n      tag_24\n      jump\t// in\n    tag_21:\n      mload(0x40)\n      tag_25\n      swap2\n      swap1\n      tag_26\n      jump\t// in\n    tag_25:\n      mload(0x40)\n      dup1\n      swap2\n      sub\n      swap1\n      return\n        /* \"contracts/ExampleMapping.sol\":98:133  mapping (uint => uint) public myMap */\n    tag_10:\n      mstore(0x20, 0x00)\n      dup1\n      0x00\n      mstore\n      keccak256(0x00, 0x40)\n      0x00\n      swap2\n      pop\n      swap1\n      pop\n      sload\n      dup2\n      jump\t// out\n        /* \"contracts/ExampleMapping.sol\":207:299  function setValue(uint _index, uint _value) public {... */\n    tag_16:\n        /* \"contracts/ExampleMapping.sol\":285:291  _value */\n      dup1\n        /* \"contracts/ExampleMapping.sol\":269:274  myMap */\n      0x00\n        /* \"contracts/ExampleMapping.sol\":269:282  myMap[_index] */\n      dup1\n        /* \"contracts/ExampleMapping.sol\":275:281  _index */\n      dup5\n        /* \"contracts/ExampleMapping.sol\":269:282  myMap[_index] */\n      dup2\n      mstore\n      0x20\n      add\n      swap1\n      dup2\n      mstore\n      0x20\n      add\n      0x00\n      keccak256\n        /* \"contracts/ExampleMapping.sol\":269:291  myMap[_index] = _value */\n      dup2\n      swap1\n      sstore\n      pop\n        /* \"contracts/ExampleMapping.sol\":207:299  function setValue(uint _index, uint _value) public {... */\n      pop\n      pop\n      jump\t// out\n        /* \"contracts/ExampleMapping.sol\":307:432  function setDoubleMap(uint _key1, int _key2, string memory _value) public {... */\n    tag_20:\n        /* \"contracts/ExampleMapping.sol\":418:424  _value */\n      dup1\n        /* \"contracts/ExampleMapping.sol\":392:401  doubleMap */\n      0x01\n        /* \"contracts/ExampleMapping.sol\":392:408  doubleMap[_key1] */\n      0x00\n        /* \"contracts/ExampleMapping.sol\":402:407  _key1 */\n      dup6\n        /* \"contracts/ExampleMapping.sol\":392:408  doubleMap[_key1] */\n      dup2\n      mstore\n      0x20\n      add\n      swap1\n      dup2\n      mstore\n      0x20\n      add\n      0x00\n      keccak256\n        /* \"contracts/ExampleMapping.sol\":392:415  doubleMap[_key1][_key2] */\n      0x00\n        /* \"contracts/ExampleMapping.sol\":409:414  _key2 */\n      dup5\n        /* \"contracts/ExampleMapping.sol\":392:415  doubleMap[_key1][_key2] */\n      dup2\n      mstore\n      0x20\n      add\n      swap1\n      dup2\n      mstore\n      0x20\n      add\n      0x00\n      keccak256\n        /* \"contracts/ExampleMapping.sol\":392:424  doubleMap[_key1][_key2] = _value */\n      swap1\n      dup2\n      tag_29\n      swap2\n      swap1\n      tag_30\n      jump\t// in\n    tag_29:\n      pop\n        /* \"contracts/ExampleMapping.sol\":307:432  function setDoubleMap(uint _key1, int _key2, string memory _value) public {... */\n      pop\n      pop\n      pop\n      jump\t// out\n        /* \"contracts/ExampleMapping.sol\":140:198  mapping (uint => mapping (int => string)) public doubleMap */\n    tag_24:\n      mstore(0x20, 0x01)\n      dup2\n      0x00\n      mstore\n      mstore(0x20, keccak256(0x00, 0x40))\n      dup1\n      0x00\n      mstore\n      keccak256(0x00, 0x40)\n      0x00\n      swap2\n      pop\n      swap2\n      pop\n      pop\n      dup1\n      sload\n      tag_31\n      swap1\n      tag_32\n      jump\t// in\n    tag_31:\n      dup1\n      0x1f\n      add\n      0x20\n      dup1\n      swap2\n      div\n      mul\n      0x20\n      add\n      mload(0x40)\n      swap1\n      dup2\n      add\n      0x40\n      mstore\n      dup1\n      swap3\n      swap2\n      swap1\n      dup2\n      dup2\n      mstore\n      0x20\n      add\n      dup3\n      dup1\n      sload\n      tag_33\n      swap1\n      tag_32\n      jump\t// in\n    tag_33:\n      dup1\n      iszero\n      tag_34\n      jumpi\n      dup1\n      0x1f\n      lt\n      tag_35\n      jumpi\n      0x0100\n      dup1\n      dup4\n      sload\n      div\n      mul\n      dup4\n      mstore\n      swap2\n      0x20\n      add\n      swap2\n      jump(tag_34)\n    tag_35:\n      dup3\n      add\n      swap2\n      swap1\n      0x00\n      mstore\n      keccak256(0x00, 0x20)\n      swap1\n    tag_36:\n      dup2\n      sload\n      dup2\n      mstore\n      swap1\n      0x01\n      add\n      swap1\n      0x20\n      add\n      dup1\n      dup4\n      gt\n      tag_36\n      jumpi\n      dup3\n      swap1\n      sub\n      0x1f\n      and\n      dup3\n      add\n      swap2\n    tag_34:\n      pop\n      pop\n      pop\n      pop\n      pop\n      dup2\n      jump\t// out\n        /* \"#utility.yul\":7:82   */\n    tag_37:\n        /* \"#utility.yul\":40:46   */\n      0x00\n        /* \"#utility.yul\":73:75   */\n      0x40\n        /* \"#utility.yul\":67:76   */\n      mload\n        /* \"#utility.yul\":57:76   */\n      swap1\n      pop\n        /* \"#utility.yul\":7:82   */\n      swap1\n      jump\t// out\n        /* \"#utility.yul\":88:205   */\n    tag_38:\n        /* \"#utility.yul\":197:198   */\n      0x00\n        /* \"#utility.yul\":194:195   */\n      dup1\n        /* \"#utility.yul\":187:199   */\n      revert\n        /* \"#utility.yul\":211:328   */\n    tag_39:\n        /* \"#utility.yul\":320:321   */\n      0x00\n        /* \"#utility.yul\":317:318   */\n      dup1\n        /* \"#utility.yul\":310:322   */\n      revert\n        /* \"#utility.yul\":334:411   */\n    tag_40:\n        /* \"#utility.yul\":371:378   */\n      0x00\n        /* \"#utility.yul\":400:405   */\n      dup2\n        /* \"#utility.yul\":389:405   */\n      swap1\n      pop\n        /* \"#utility.yul\":334:411   */\n      swap2\n      swap1\n      pop\n      jump\t// out\n        /* \"#utility.yul\":417:539   */\n    tag_41:\n        /* \"#utility.yul\":490:514   */\n      tag_83\n        /* \"#utility.yul\":508:513   */\n      dup2\n        /* \"#utility.yul\":490:514   */\n      tag_40\n      jump\t// in\n    tag_83:\n        /* \"#utility.yul\":483:488   */\n      dup2\n        /* \"#utility.yul\":480:515   */\n      eq\n        /* \"#utility.yul\":470:533   */\n      tag_84\n      jumpi\n        /* \"#utility.yul\":529:530   */\n      0x00\n        /* \"#utility.yul\":526:527   */\n      dup1\n        /* \"#utility.yul\":519:531   */\n      revert\n        /* \"#utility.yul\":470:533   */\n    tag_84:\n        /* \"#utility.yul\":417:539   */\n      pop\n      jump\t// out\n        /* \"#utility.yul\":545:684   */\n    tag_42:\n        /* \"#utility.yul\":591:596   */\n      0x00\n        /* \"#utility.yul\":629:635   */\n      dup2\n        /* \"#utility.yul\":616:636   */\n      calldataload\n        /* \"#utility.yul\":607:636   */\n      swap1\n      pop\n        /* \"#utility.yul\":645:678   */\n      tag_86\n        /* \"#utility.yul\":672:677   */\n      dup2\n        /* \"#utility.yul\":645:678   */\n      tag_41\n      jump\t// in\n    tag_86:\n        /* \"#utility.yul\":545:684   */\n      swap3\n      swap2\n      pop\n      pop\n      jump\t// out\n        /* \"#utility.yul\":690:1019   */\n    tag_9:\n        /* \"#utility.yul\":749:755   */\n      0x00\n        /* \"#utility.yul\":798:800   */\n      0x20\n        /* \"#utility.yul\":786:795   */\n      dup3\n        /* \"#utility.yul\":777:784   */\n      dup5\n        /* \"#utility.yul\":773:796   */\n      sub\n        /* \"#utility.yul\":769:801   */\n      slt\n        /* \"#utility.yul\":766:885   */\n      iszero\n      tag_88\n      jumpi\n        /* \"#utility.yul\":804:883   */\n      tag_89\n      tag_38\n      jump\t// in\n    tag_89:\n        /* \"#utility.yul\":766:885   */\n    tag_88:\n        /* \"#utility.yul\":924:925   */\n      0x00\n        /* \"#utility.yul\":949:1002   */\n      tag_90\n        /* \"#utility.yul\":994:1001   */\n      dup5\n        /* \"#utility.yul\":985:991   */\n      dup3\n        /* \"#utility.yul\":974:983   */\n      dup6\n        /* \"#utility.yul\":970:992   */\n      add\n        /* \"#utility.yul\":949:1002   */\n      tag_42\n      jump\t// in\n    tag_90:\n        /* \"#utility.yul\":939:1002   */\n      swap2\n      pop\n        /* \"#utility.yul\":895:1012   */\n      pop\n        /* \"#utility.yul\":690:1019   */\n      swap3\n      swap2\n      pop\n      pop\n      jump\t// out\n        /* \"#utility.yul\":1025:1143   */\n    tag_43:\n        /* \"#utility.yul\":1112:1136   */\n      tag_92\n        /* \"#utility.yul\":1130:1135   */\n      dup2\n        /* \"#utility.yul\":1112:1136   */\n      tag_40\n      jump\t// in\n    tag_92:\n        /* \"#utility.yul\":1107:1110   */\n      dup3\n        /* \"#utility.yul\":1100:1137   */\n      mstore\n        /* \"#utility.yul\":1025:1143   */\n      pop\n      pop\n      jump\t// out\n        /* \"#utility.yul\":1149:1371   */\n    tag_12:\n        /* \"#utility.yul\":1242:1246   */\n      0x00\n        /* \"#utility.yul\":1280:1282   */\n      0x20\n        /* \"#utility.yul\":1269:1278   */\n      dup3\n        /* \"#utility.yul\":1265:1283   */\n      add\n        /* \"#utility.yul\":1257:1283   */\n      swap1\n      pop\n        /* \"#utility.yul\":1293:1364   */\n      tag_94\n        /* \"#utility.yul\":1361:1362   */\n      0x00\n        /* \"#utility.yul\":1350:1359   */\n      dup4\n        /* \"#utility.yul\":1346:1363   */\n      add\n        /* \"#utility.yul\":1337:1343   */\n      dup5\n        /* \"#utility.yul\":1293:1364   */\n      tag_43\n      jump\t// in\n    tag_94:\n        /* \"#utility.yul\":1149:1371   */\n      swap3\n      swap2\n      pop\n      pop\n      jump\t// out\n        /* \"#utility.yul\":1377:1851   */\n    tag_15:\n        /* \"#utility.yul\":1445:1451   */\n      0x00\n        /* \"#utility.yul\":1453:1459   */\n      dup1\n        /* \"#utility.yul\":1502:1504   */\n      0x40\n        /* \"#utility.yul\":1490:1499   */\n      dup4\n        /* \"#utility.yul\":1481:1488   */\n      dup6\n        /* \"#utility.yul\":1477:1500   */\n      sub\n        /* \"#utility.yul\":1473:1505   */\n      slt\n        /* \"#utility.yul\":1470:1589   */\n      iszero\n      tag_96\n      jumpi\n        /* \"#utility.yul\":1508:1587   */\n      tag_97\n      tag_38\n      jump\t// in\n    tag_97:\n        /* \"#utility.yul\":1470:1589   */\n    tag_96:\n        /* \"#utility.yul\":1628:1629   */\n      0x00\n        /* \"#utility.yul\":1653:1706   */\n      tag_98\n        /* \"#utility.yul\":1698:1705   */\n      dup6\n        /* \"#utility.yul\":1689:1695   */\n      dup3\n        /* \"#utility.yul\":1678:1687   */\n      dup7\n        /* \"#utility.yul\":1674:1696   */\n      add\n        /* \"#utility.yul\":1653:1706   */\n      tag_42\n      jump\t// in\n    tag_98:\n        /* \"#utility.yul\":1643:1706   */\n      swap3\n      pop\n        /* \"#utility.yul\":1599:1716   */\n      pop\n        /* \"#utility.yul\":1755:1757   */\n      0x20\n        /* \"#utility.yul\":1781:1834   */\n      tag_99\n        /* \"#utility.yul\":1826:1833   */\n      dup6\n        /* \"#utility.yul\":1817:1823   */\n      dup3\n        /* \"#utility.yul\":1806:1815   */\n      dup7\n        /* \"#utility.yul\":1802:1824   */\n      add\n        /* \"#utility.yul\":1781:1834   */\n      tag_42\n      jump\t// in\n    tag_99:\n        /* \"#utility.yul\":1771:1834   */\n      swap2\n      pop\n        /* \"#utility.yul\":1726:1844   */\n      pop\n        /* \"#utility.yul\":1377:1851   */\n      swap3\n      pop\n      swap3\n      swap1\n      pop\n      jump\t// out\n        /* \"#utility.yul\":1857:1933   */\n    tag_44:\n        /* \"#utility.yul\":1893:1900   */\n      0x00\n        /* \"#utility.yul\":1922:1927   */\n      dup2\n        /* \"#utility.yul\":1911:1927   */\n      swap1\n      pop\n        /* \"#utility.yul\":1857:1933   */\n      swap2\n      swap1\n      pop\n      jump\t// out\n        /* \"#utility.yul\":1939:2059   */\n    tag_45:\n        /* \"#utility.yul\":2011:2034   */\n      tag_102\n        /* \"#utility.yul\":2028:2033   */\n      dup2\n        /* \"#utility.yul\":2011:2034   */\n      tag_44\n      jump\t// in\n    tag_102:\n        /* \"#utility.yul\":2004:2009   */\n      dup2\n        /* \"#utility.yul\":2001:2035   */\n      eq\n        /* \"#utility.yul\":1991:2053   */\n      tag_103\n      jumpi\n        /* \"#utility.yul\":2049:2050   */\n      0x00\n        /* \"#utility.yul\":2046:2047   */\n      dup1\n        /* \"#utility.yul\":2039:2051   */\n      revert\n        /* \"#utility.yul\":1991:2053   */\n    tag_103:\n        /* \"#utility.yul\":1939:2059   */\n      pop\n      jump\t// out\n        /* \"#utility.yul\":2065:2202   */\n    tag_46:\n        /* \"#utility.yul\":2110:2115   */\n      0x00\n        /* \"#utility.yul\":2148:2154   */\n      dup2\n        /* \"#utility.yul\":2135:2155   */\n      calldataload\n        /* \"#utility.yul\":2126:2155   */\n      swap1\n      pop\n        /* \"#utility.yul\":2164:2196   */\n      tag_105\n        /* \"#utility.yul\":2190:2195   */\n      dup2\n        /* \"#utility.yul\":2164:2196   */\n      tag_45\n      jump\t// in\n    tag_105:\n        /* \"#utility.yul\":2065:2202   */\n      swap3\n      swap2\n      pop\n      pop\n      jump\t// out\n        /* \"#utility.yul\":2208:2325   */\n    tag_47:\n        /* \"#utility.yul\":2317:2318   */\n      0x00\n        /* \"#utility.yul\":2314:2315   */\n      dup1\n        /* \"#utility.yul\":2307:2319   */\n      revert\n        /* \"#utility.yul\":2331:2448   */\n    tag_48:\n        /* \"#utility.yul\":2440:2441   */\n      0x00\n        /* \"#utility.yul\":2437:2438   */\n      dup1\n        /* \"#utility.yul\":2430:2442   */\n      revert\n        /* \"#utility.yul\":2454:2556   */\n    tag_49:\n        /* \"#utility.yul\":2495:2501   */\n      0x00\n        /* \"#utility.yul\":2546:2548   */\n      0x1f\n        /* \"#utility.yul\":2542:2549   */\n      not\n        /* \"#utility.yul\":2537:2539   */\n      0x1f\n        /* \"#utility.yul\":2530:2535   */\n      dup4\n        /* \"#utility.yul\":2526:2540   */\n      add\n        /* \"#utility.yul\":2522:2550   */\n      and\n        /* \"#utility.yul\":2512:2550   */\n      swap1\n      pop\n        /* \"#utility.yul\":2454:2556   */\n      swap2\n      swap1\n      pop\n      jump\t// out\n        /* \"#utility.yul\":2562:2742   */\n    tag_50:\n        /* \"#utility.yul\":2610:2687   */\n      0x4e487b7100000000000000000000000000000000000000000000000000000000\n        /* \"#utility.yul\":2607:2608   */\n      0x00\n        /* \"#utility.yul\":2600:2688   */\n      mstore\n        /* \"#utility.yul\":2707:2711   */\n      0x41\n        /* \"#utility.yul\":2704:2705   */\n      0x04\n        /* \"#utility.yul\":2697:2712   */\n      mstore\n        /* \"#utility.yul\":2731:2735   */\n      0x24\n        /* \"#utility.yul\":2728:2729   */\n      0x00\n        /* \"#utility.yul\":2721:2736   */\n      revert\n        /* \"#utility.yul\":2748:3029   */\n    tag_51:\n        /* \"#utility.yul\":2831:2858   */\n      tag_111\n        /* \"#utility.yul\":2853:2857   */\n      dup3\n        /* \"#utility.yul\":2831:2858   */\n      tag_49\n      jump\t// in\n    tag_111:\n        /* \"#utility.yul\":2823:2829   */\n      dup2\n        /* \"#utility.yul\":2819:2859   */\n      add\n        /* \"#utility.yul\":2961:2967   */\n      dup2\n        /* \"#utility.yul\":2949:2959   */\n      dup2\n        /* \"#utility.yul\":2946:2968   */\n      lt\n        /* \"#utility.yul\":2925:2943   */\n      0xffffffffffffffff\n        /* \"#utility.yul\":2913:2923   */\n      dup3\n        /* \"#utility.yul\":2910:2944   */\n      gt\n        /* \"#utility.yul\":2907:2969   */\n      or\n        /* \"#utility.yul\":2904:2992   */\n      iszero\n      tag_112\n      jumpi\n        /* \"#utility.yul\":2972:2990   */\n      tag_113\n      tag_50\n      jump\t// in\n    tag_113:\n        /* \"#utility.yul\":2904:2992   */\n    tag_112:\n        /* \"#utility.yul\":3012:3022   */\n      dup1\n        /* \"#utility.yul\":3008:3010   */\n      0x40\n        /* \"#utility.yul\":3001:3023   */\n      mstore\n        /* \"#utility.yul\":2791:3029   */\n      pop\n        /* \"#utility.yul\":2748:3029   */\n      pop\n      pop\n      jump\t// out\n        /* \"#utility.yul\":3035:3164   */\n    tag_52:\n        /* \"#utility.yul\":3069:3075   */\n      0x00\n        /* \"#utility.yul\":3096:3116   */\n      tag_115\n      tag_37\n      jump\t// in\n    tag_115:\n        /* \"#utility.yul\":3086:3116   */\n      swap1\n      pop\n        /* \"#utility.yul\":3125:3158   */\n      tag_116\n        /* \"#utility.yul\":3153:3157   */\n      dup3\n        /* \"#utility.yul\":3145:3151   */\n      dup3\n        /* \"#utility.yul\":3125:3158   */\n      tag_51\n      jump\t// in\n    tag_116:\n        /* \"#utility.yul\":3035:3164   */\n      swap2\n      swap1\n      pop\n      jump\t// out\n        /* \"#utility.yul\":3170:3478   */\n    tag_53:\n        /* \"#utility.yul\":3232:3236   */\n      0x00\n        /* \"#utility.yul\":3322:3340   */\n      0xffffffffffffffff\n        /* \"#utility.yul\":3314:3320   */\n      dup3\n        /* \"#utility.yul\":3311:3341   */\n      gt\n        /* \"#utility.yul\":3308:3364   */\n      iszero\n      tag_118\n      jumpi\n        /* \"#utility.yul\":3344:3362   */\n      tag_119\n      tag_50\n      jump\t// in\n    tag_119:\n        /* \"#utility.yul\":3308:3364   */\n    tag_118:\n        /* \"#utility.yul\":3382:3411   */\n      tag_120\n        /* \"#utility.yul\":3404:3410   */\n      dup3\n        /* \"#utility.yul\":3382:3411   */\n      tag_49\n      jump\t// in\n    tag_120:\n        /* \"#utility.yul\":3374:3411   */\n      swap1\n      pop\n        /* \"#utility.yul\":3466:3470   */\n      0x20\n        /* \"#utility.yul\":3460:3464   */\n      dup2\n        /* \"#utility.yul\":3456:3471   */\n      add\n        /* \"#utility.yul\":3448:3471   */\n      swap1\n      pop\n        /* \"#utility.yul\":3170:3478   */\n      swap2\n      swap1\n      pop\n      jump\t// out\n        /* \"#utility.yul\":3484:3630   */\n    tag_54:\n        /* \"#utility.yul\":3581:3587   */\n      dup3\n        /* \"#utility.yul\":3576:3579   */\n      dup2\n        /* \"#utility.yul\":3571:3574   */\n      dup4\n        /* \"#utility.yul\":3558:3588   */\n      calldatacopy\n        /* \"#utility.yul\":3622:3623   */\n      0x00\n        /* \"#utility.yul\":3613:3619   */\n      dup4\n        /* \"#utility.yul\":3608:3611   */\n      dup4\n        /* \"#utility.yul\":3604:3620   */\n      add\n        /* \"#utility.yul\":3597:3624   */\n      mstore\n        /* \"#utility.yul\":3484:3630   */\n      pop\n      pop\n      pop\n      jump\t// out\n        /* \"#utility.yul\":3636:4061   */\n    tag_55:\n        /* \"#utility.yul\":3714:3719   */\n      0x00\n        /* \"#utility.yul\":3739:3805   */\n      tag_123\n        /* \"#utility.yul\":3755:3804   */\n      tag_124\n        /* \"#utility.yul\":3797:3803   */\n      dup5\n        /* \"#utility.yul\":3755:3804   */\n      tag_53\n      jump\t// in\n    tag_124:\n        /* \"#utility.yul\":3739:3805   */\n      tag_52\n      jump\t// in\n    tag_123:\n        /* \"#utility.yul\":3730:3805   */\n      swap1\n      pop\n        /* \"#utility.yul\":3828:3834   */\n      dup3\n        /* \"#utility.yul\":3821:3826   */\n      dup2\n        /* \"#utility.yul\":3814:3835   */\n      mstore\n        /* \"#utility.yul\":3866:3870   */\n      0x20\n        /* \"#utility.yul\":3859:3864   */\n      dup2\n        /* \"#utility.yul\":3855:3871   */\n      add\n        /* \"#utility.yul\":3904:3907   */\n      dup5\n        /* \"#utility.yul\":3895:3901   */\n      dup5\n        /* \"#utility.yul\":3890:3893   */\n      dup5\n        /* \"#utility.yul\":3886:3902   */\n      add\n        /* \"#utility.yul\":3883:3908   */\n      gt\n        /* \"#utility.yul\":3880:3992   */\n      iszero\n      tag_125\n      jumpi\n        /* \"#utility.yul\":3911:3990   */\n      tag_126\n      tag_48\n      jump\t// in\n    tag_126:\n        /* \"#utility.yul\":3880:3992   */\n    tag_125:\n        /* \"#utility.yul\":4001:4055   */\n      tag_127\n        /* \"#utility.yul\":4048:4054   */\n      dup5\n        /* \"#utility.yul\":4043:4046   */\n      dup3\n        /* \"#utility.yul\":4038:4041   */\n      dup6\n        /* \"#utility.yul\":4001:4055   */\n      tag_54\n      jump\t// in\n    tag_127:\n        /* \"#utility.yul\":3720:4061   */\n      pop\n        /* \"#utility.yul\":3636:4061   */\n      swap4\n      swap3\n      pop\n      pop\n      pop\n      jump\t// out\n        /* \"#utility.yul\":4081:4421   */\n    tag_56:\n        /* \"#utility.yul\":4137:4142   */\n      0x00\n        /* \"#utility.yul\":4186:4189   */\n      dup3\n        /* \"#utility.yul\":4179:4183   */\n      0x1f\n        /* \"#utility.yul\":4171:4177   */\n      dup4\n        /* \"#utility.yul\":4167:4184   */\n      add\n        /* \"#utility.yul\":4163:4190   */\n      slt\n        /* \"#utility.yul\":4153:4275   */\n      tag_129\n      jumpi\n        /* \"#utility.yul\":4194:4273   */\n      tag_130\n      tag_47\n      jump\t// in\n    tag_130:\n        /* \"#utility.yul\":4153:4275   */\n    tag_129:\n        /* \"#utility.yul\":4311:4317   */\n      dup2\n        /* \"#utility.yul\":4298:4318   */\n      calldataload\n        /* \"#utility.yul\":4336:4415   */\n      tag_131\n        /* \"#utility.yul\":4411:4414   */\n      dup5\n        /* \"#utility.yul\":4403:4409   */\n      dup3\n        /* \"#utility.yul\":4396:4400   */\n      0x20\n        /* \"#utility.yul\":4388:4394   */\n      dup7\n        /* \"#utility.yul\":4384:4401   */\n      add\n        /* \"#utility.yul\":4336:4415   */\n      tag_55\n      jump\t// in\n    tag_131:\n        /* \"#utility.yul\":4327:4415   */\n      swap2\n      pop\n        /* \"#utility.yul\":4143:4421   */\n      pop\n        /* \"#utility.yul\":4081:4421   */\n      swap3\n      swap2\n      pop\n      pop\n      jump\t// out\n        /* \"#utility.yul\":4427:5224   */\n    tag_19:\n        /* \"#utility.yul\":4513:4519   */\n      0x00\n        /* \"#utility.yul\":4521:4527   */\n      dup1\n        /* \"#utility.yul\":4529:4535   */\n      0x00\n        /* \"#utility.yul\":4578:4580   */\n      0x60\n        /* \"#utility.yul\":4566:4575   */\n      dup5\n        /* \"#utility.yul\":4557:4564   */\n      dup7\n        /* \"#utility.yul\":4553:4576   */\n      sub\n        /* \"#utility.yul\":4549:4581   */\n      slt\n        /* \"#utility.yul\":4546:4665   */\n      iszero\n      tag_133\n      jumpi\n        /* \"#utility.yul\":4584:4663   */\n      tag_134\n      tag_38\n      jump\t// in\n    tag_134:\n        /* \"#utility.yul\":4546:4665   */\n    tag_133:\n        /* \"#utility.yul\":4704:4705   */\n      0x00\n        /* \"#utility.yul\":4729:4782   */\n      tag_135\n        /* \"#utility.yul\":4774:4781   */\n      dup7\n        /* \"#utility.yul\":4765:4771   */\n      dup3\n        /* \"#utility.yul\":4754:4763   */\n      dup8\n        /* \"#utility.yul\":4750:4772   */\n      add\n        /* \"#utility.yul\":4729:4782   */\n      tag_42\n      jump\t// in\n    tag_135:\n        /* \"#utility.yul\":4719:4782   */\n      swap4\n      pop\n        /* \"#utility.yul\":4675:4792   */\n      pop\n        /* \"#utility.yul\":4831:4833   */\n      0x20\n        /* \"#utility.yul\":4857:4909   */\n      tag_136\n        /* \"#utility.yul\":4901:4908   */\n      dup7\n        /* \"#utility.yul\":4892:4898   */\n      dup3\n        /* \"#utility.yul\":4881:4890   */\n      dup8\n        /* \"#utility.yul\":4877:4899   */\n      add\n        /* \"#utility.yul\":4857:4909   */\n      tag_46\n      jump\t// in\n    tag_136:\n        /* \"#utility.yul\":4847:4909   */\n      swap3\n      pop\n        /* \"#utility.yul\":4802:4919   */\n      pop\n        /* \"#utility.yul\":4986:4988   */\n      0x40\n        /* \"#utility.yul\":4975:4984   */\n      dup5\n        /* \"#utility.yul\":4971:4989   */\n      add\n        /* \"#utility.yul\":4958:4990   */\n      calldataload\n        /* \"#utility.yul\":5017:5035   */\n      0xffffffffffffffff\n        /* \"#utility.yul\":5009:5015   */\n      dup2\n        /* \"#utility.yul\":5006:5036   */\n      gt\n        /* \"#utility.yul\":5003:5120   */\n      iszero\n      tag_137\n      jumpi\n        /* \"#utility.yul\":5039:5118   */\n      tag_138\n      tag_39\n      jump\t// in\n    tag_138:\n        /* \"#utility.yul\":5003:5120   */\n    tag_137:\n        /* \"#utility.yul\":5144:5207   */\n      tag_139\n        /* \"#utility.yul\":5199:5206   */\n      dup7\n        /* \"#utility.yul\":5190:5196   */\n      dup3\n        /* \"#utility.yul\":5179:5188   */\n      dup8\n        /* \"#utility.yul\":5175:5197   */\n      add\n        /* \"#utility.yul\":5144:5207   */\n      tag_56\n      jump\t// in\n    tag_139:\n        /* \"#utility.yul\":5134:5207   */\n      swap2\n      pop\n        /* \"#utility.yul\":4929:5217   */\n      pop\n        /* \"#utility.yul\":4427:5224   */\n      swap3\n      pop\n      swap3\n      pop\n      swap3\n      jump\t// out\n        /* \"#utility.yul\":5230:5702   */\n    tag_23:\n        /* \"#utility.yul\":5297:5303   */\n      0x00\n        /* \"#utility.yul\":5305:5311   */\n      dup1\n        /* \"#utility.yul\":5354:5356   */\n      0x40\n        /* \"#utility.yul\":5342:5351   */\n      dup4\n        /* \"#utility.yul\":5333:5340   */\n      dup6\n        /* \"#utility.yul\":5329:5352   */\n      sub\n        /* \"#utility.yul\":5325:5357   */\n      slt\n        /* \"#utility.yul\":5322:5441   */\n      iszero\n      tag_141\n      jumpi\n        /* \"#utility.yul\":5360:5439   */\n      tag_142\n      tag_38\n      jump\t// in\n    tag_142:\n        /* \"#utility.yul\":5322:5441   */\n    tag_141:\n        /* \"#utility.yul\":5480:5481   */\n      0x00\n        /* \"#utility.yul\":5505:5558   */\n      tag_143\n        /* \"#utility.yul\":5550:5557   */\n      dup6\n        /* \"#utility.yul\":5541:5547   */\n      dup3\n        /* \"#utility.yul\":5530:5539   */\n      dup7\n        /* \"#utility.yul\":5526:5548   */\n      add\n        /* \"#utility.yul\":5505:5558   */\n      tag_42\n      jump\t// in\n    tag_143:\n        /* \"#utility.yul\":5495:5558   */\n      swap3\n      pop\n        /* \"#utility.yul\":5451:5568   */\n      pop\n        /* \"#utility.yul\":5607:5609   */\n      0x20\n        /* \"#utility.yul\":5633:5685   */\n      tag_144\n        /* \"#utility.yul\":5677:5684   */\n      dup6\n        /* \"#utility.yul\":5668:5674   */\n      dup3\n        /* \"#utility.yul\":5657:5666   */\n      dup7\n        /* \"#utility.yul\":5653:5675   */\n      add\n        /* \"#utility.yul\":5633:5685   */\n      tag_46\n      jump\t// in\n    tag_144:\n        /* \"#utility.yul\":5623:5685   */\n      swap2\n      pop\n        /* \"#utility.yul\":5578:5695   */\n      pop\n        /* \"#utility.yul\":5230:5702   */\n      swap3\n      pop\n      swap3\n      swap1\n      pop\n      jump\t// out\n        /* \"#utility.yul\":5708:5807   */\n    tag_57:\n        /* \"#utility.yul\":5760:5766   */\n      0x00\n        /* \"#utility.yul\":5794:5799   */\n      dup2\n        /* \"#utility.yul\":5788:5800   */\n      mload\n        /* \"#utility.yul\":5778:5800   */\n      swap1\n      pop\n        /* \"#utility.yul\":5708:5807   */\n      swap2\n      swap1\n      pop\n      jump\t// out\n        /* \"#utility.yul\":5813:5982   */\n    tag_58:\n        /* \"#utility.yul\":5897:5908   */\n      0x00\n        /* \"#utility.yul\":5931:5937   */\n      dup3\n        /* \"#utility.yul\":5926:5929   */\n      dup3\n        /* \"#utility.yul\":5919:5938   */\n      mstore\n        /* \"#utility.yul\":5971:5975   */\n      0x20\n        /* \"#utility.yul\":5966:5969   */\n      dup3\n        /* \"#utility.yul\":5962:5976   */\n      add\n        /* \"#utility.yul\":5947:5976   */\n      swap1\n      pop\n        /* \"#utility.yul\":5813:5982   */\n      swap3\n      swap2\n      pop\n      pop\n      jump\t// out\n        /* \"#utility.yul\":5988:6234   */\n    tag_59:\n        /* \"#utility.yul\":6069:6070   */\n      0x00\n        /* \"#utility.yul\":6079:6192   */\n    tag_148:\n        /* \"#utility.yul\":6093:6099   */\n      dup4\n        /* \"#utility.yul\":6090:6091   */\n      dup2\n        /* \"#utility.yul\":6087:6100   */\n      lt\n        /* \"#utility.yul\":6079:6192   */\n      iszero\n      tag_150\n      jumpi\n        /* \"#utility.yul\":6178:6179   */\n      dup1\n        /* \"#utility.yul\":6173:6176   */\n      dup3\n        /* \"#utility.yul\":6169:6180   */\n      add\n        /* \"#utility.yul\":6163:6181   */\n      mload\n        /* \"#utility.yul\":6159:6160   */\n      dup2\n        /* \"#utility.yul\":6154:6157   */\n      dup5\n        /* \"#utility.yul\":6150:6161   */\n      add\n        /* \"#utility.yul\":6143:6182   */\n      mstore\n        /* \"#utility.yul\":6115:6117   */\n      0x20\n        /* \"#utility.yul\":6112:6113   */\n      dup2\n        /* \"#utility.yul\":6108:6118   */\n      add\n        /* \"#utility.yul\":6103:6118   */\n      swap1\n      pop\n        /* \"#utility.yul\":6079:6192   */\n      jump(tag_148)\n    tag_150:\n        /* \"#utility.yul\":6226:6227   */\n      0x00\n        /* \"#utility.yul\":6217:6223   */\n      dup5\n        /* \"#utility.yul\":6212:6215   */\n      dup5\n        /* \"#utility.yul\":6208:6224   */\n      add\n        /* \"#utility.yul\":6201:6228   */\n      mstore\n        /* \"#utility.yul\":6050:6234   */\n      pop\n        /* \"#utility.yul\":5988:6234   */\n      pop\n      pop\n      pop\n      jump\t// out\n        /* \"#utility.yul\":6240:6617   */\n    tag_60:\n        /* \"#utility.yul\":6328:6331   */\n      0x00\n        /* \"#utility.yul\":6356:6395   */\n      tag_152\n        /* \"#utility.yul\":6389:6394   */\n      dup3\n        /* \"#utility.yul\":6356:6395   */\n      tag_57\n      jump\t// in\n    tag_152:\n        /* \"#utility.yul\":6411:6482   */\n      tag_153\n        /* \"#utility.yul\":6475:6481   */\n      dup2\n        /* \"#utility.yul\":6470:6473   */\n      dup6\n        /* \"#utility.yul\":6411:6482   */\n      tag_58\n      jump\t// in\n    tag_153:\n        /* \"#utility.yul\":6404:6482   */\n      swap4\n      pop\n        /* \"#utility.yul\":6491:6556   */\n      tag_154\n        /* \"#utility.yul\":6549:6555   */\n      dup2\n        /* \"#utility.yul\":6544:6547   */\n      dup6\n        /* \"#utility.yul\":6537:6541   */\n      0x20\n        /* \"#utility.yul\":6530:6535   */\n      dup7\n        /* \"#utility.yul\":6526:6542   */\n      add\n        /* \"#utility.yul\":6491:6556   */\n      tag_59\n      jump\t// in\n    tag_154:\n        /* \"#utility.yul\":6581:6610   */\n      tag_155\n        /* \"#utility.yul\":6603:6609   */\n      dup2\n        /* \"#utility.yul\":6581:6610   */\n      tag_49\n      jump\t// in\n    tag_155:\n        /* \"#utility.yul\":6576:6579   */\n      dup5\n        /* \"#utility.yul\":6572:6611   */\n      add\n        /* \"#utility.yul\":6565:6611   */\n      swap2\n      pop\n        /* \"#utility.yul\":6332:6617   */\n      pop\n        /* \"#utility.yul\":6240:6617   */\n      swap3\n      swap2\n      pop\n      pop\n      jump\t// out\n        /* \"#utility.yul\":6623:6936   */\n    tag_26:\n        /* \"#utility.yul\":6736:6740   */\n      0x00\n        /* \"#utility.yul\":6774:6776   */\n      0x20\n        /* \"#utility.yul\":6763:6772   */\n      dup3\n        /* \"#utility.yul\":6759:6777   */\n      add\n        /* \"#utility.yul\":6751:6777   */\n      swap1\n      pop\n        /* \"#utility.yul\":6823:6832   */\n      dup2\n        /* \"#utility.yul\":6817:6821   */\n      dup2\n        /* \"#utility.yul\":6813:6833   */\n      sub\n        /* \"#utility.yul\":6809:6810   */\n      0x00\n        /* \"#utility.yul\":6798:6807   */\n      dup4\n        /* \"#utility.yul\":6794:6811   */\n      add\n        /* \"#utility.yul\":6787:6834   */\n      mstore\n        /* \"#utility.yul\":6851:6929   */\n      tag_157\n        /* \"#utility.yul\":6924:6928   */\n      dup2\n        /* \"#utility.yul\":6915:6921   */\n      dup5\n        /* \"#utility.yul\":6851:6929   */\n      tag_60\n      jump\t// in\n    tag_157:\n        /* \"#utility.yul\":6843:6929   */\n      swap1\n      pop\n        /* \"#utility.yul\":6623:6936   */\n      swap3\n      swap2\n      pop\n      pop\n      jump\t// out\n        /* \"#utility.yul\":6942:7122   */\n    tag_61:\n        /* \"#utility.yul\":6990:7067   */\n      0x4e487b7100000000000000000000000000000000000000000000000000000000\n        /* \"#utility.yul\":6987:6988   */\n      0x00\n        /* \"#utility.yul\":6980:7068   */\n      mstore\n        /* \"#utility.yul\":7087:7091   */\n      0x22\n        /* \"#utility.yul\":7084:7085   */\n      0x04\n        /* \"#utility.yul\":7077:7092   */\n      mstore\n        /* \"#utility.yul\":7111:7115   */\n      0x24\n        /* \"#utility.yul\":7108:7109   */\n      0x00\n        /* \"#utility.yul\":7101:7116   */\n      revert\n        /* \"#utility.yul\":7128:7448   */\n    tag_32:\n        /* \"#utility.yul\":7172:7178   */\n      0x00\n        /* \"#utility.yul\":7209:7210   */\n      0x02\n        /* \"#utility.yul\":7203:7207   */\n      dup3\n        /* \"#utility.yul\":7199:7211   */\n      div\n        /* \"#utility.yul\":7189:7211   */\n      swap1\n      pop\n        /* \"#utility.yul\":7256:7257   */\n      0x01\n        /* \"#utility.yul\":7250:7254   */\n      dup3\n        /* \"#utility.yul\":7246:7258   */\n      and\n        /* \"#utility.yul\":7277:7295   */\n      dup1\n        /* \"#utility.yul\":7267:7348   */\n      tag_160\n      jumpi\n        /* \"#utility.yul\":7333:7337   */\n      0x7f\n        /* \"#utility.yul\":7325:7331   */\n      dup3\n        /* \"#utility.yul\":7321:7338   */\n      and\n        /* \"#utility.yul\":7311:7338   */\n      swap2\n      pop\n        /* \"#utility.yul\":7267:7348   */\n    tag_160:\n        /* \"#utility.yul\":7395:7397   */\n      0x20\n        /* \"#utility.yul\":7387:7393   */\n      dup3\n        /* \"#utility.yul\":7384:7398   */\n      lt\n        /* \"#utility.yul\":7364:7382   */\n      dup2\n        /* \"#utility.yul\":7361:7399   */\n      sub\n        /* \"#utility.yul\":7358:7442   */\n      tag_161\n      jumpi\n        /* \"#utility.yul\":7414:7432   */\n      tag_162\n      tag_61\n      jump\t// in\n    tag_162:\n        /* \"#utility.yul\":7358:7442   */\n    tag_161:\n        /* \"#utility.yul\":7179:7448   */\n      pop\n        /* \"#utility.yul\":7128:7448   */\n      swap2\n      swap1\n      pop\n      jump\t// out\n        /* \"#utility.yul\":7454:7595   */\n    tag_62:\n        /* \"#utility.yul\":7503:7507   */\n      0x00\n        /* \"#utility.yul\":7526:7529   */\n      dup2\n        /* \"#utility.yul\":7518:7529   */\n      swap1\n      pop\n        /* \"#utility.yul\":7549:7552   */\n      dup2\n        /* \"#utility.yul\":7546:7547   */\n      0x00\n        /* \"#utility.yul\":7539:7553   */\n      mstore\n        /* \"#utility.yul\":7583:7587   */\n      0x20\n        /* \"#utility.yul\":7580:7581   */\n      0x00\n        /* \"#utility.yul\":7570:7588   */\n      keccak256\n        /* \"#utility.yul\":7562:7588   */\n      swap1\n      pop\n        /* \"#utility.yul\":7454:7595   */\n      swap2\n      swap1\n      pop\n      jump\t// out\n        /* \"#utility.yul\":7601:7694   */\n    tag_63:\n        /* \"#utility.yul\":7638:7644   */\n      0x00\n        /* \"#utility.yul\":7685:7687   */\n      0x20\n        /* \"#utility.yul\":7680:7682   */\n      0x1f\n        /* \"#utility.yul\":7673:7678   */\n      dup4\n        /* \"#utility.yul\":7669:7683   */\n      add\n        /* \"#utility.yul\":7665:7688   */\n      div\n        /* \"#utility.yul\":7655:7688   */\n      swap1\n      pop\n        /* \"#utility.yul\":7601:7694   */\n      swap2\n      swap1\n      pop\n      jump\t// out\n        /* \"#utility.yul\":7700:7807   */\n    tag_64:\n        /* \"#utility.yul\":7744:7752   */\n      0x00\n        /* \"#utility.yul\":7794:7799   */\n      dup3\n        /* \"#utility.yul\":7788:7792   */\n      dup3\n        /* \"#utility.yul\":7784:7800   */\n      shl\n        /* \"#utility.yul\":7763:7800   */\n      swap1\n      pop\n        /* \"#utility.yul\":7700:7807   */\n      swap3\n      swap2\n      pop\n      pop\n      jump\t// out\n        /* \"#utility.yul\":7813:8206   */\n    tag_65:\n        /* \"#utility.yul\":7882:7888   */\n      0x00\n        /* \"#utility.yul\":7932:7933   */\n      0x08\n        /* \"#utility.yul\":7920:7930   */\n      dup4\n        /* \"#utility.yul\":7916:7934   */\n      mul\n        /* \"#utility.yul\":7955:8052   */\n      tag_167\n        /* \"#utility.yul\":7985:8051   */\n      0xffffffffffffffffffffffffffffffffffffffffffffffffffffffffffffffff\n        /* \"#utility.yul\":7974:7983   */\n      dup3\n        /* \"#utility.yul\":7955:8052   */\n      tag_64\n      jump\t// in\n    tag_167:\n        /* \"#utility.yul\":8073:8112   */\n      tag_168\n        /* \"#utility.yul\":8103:8111   */\n      dup7\n        /* \"#utility.yul\":8092:8101   */\n      dup4\n        /* \"#utility.yul\":8073:8112   */\n      tag_64\n      jump\t// in\n    tag_168:\n        /* \"#utility.yul\":8061:8112   */\n      swap6\n      pop\n        /* \"#utility.yul\":8145:8149   */\n      dup1\n        /* \"#utility.yul\":8141:8150   */\n      not\n        /* \"#utility.yul\":8134:8139   */\n      dup5\n        /* \"#utility.yul\":8130:8151   */\n      and\n        /* \"#utility.yul\":8121:8151   */\n      swap4\n      pop\n        /* \"#utility.yul\":8194:8198   */\n      dup1\n        /* \"#utility.yul\":8184:8192   */\n      dup7\n        /* \"#utility.yul\":8180:8199   */\n      and\n        /* \"#utility.yul\":8173:8178   */\n      dup5\n        /* \"#utility.yul\":8170:8200   */\n      or\n        /* \"#utility.yul\":8160:8200   */\n      swap3\n      pop\n        /* \"#utility.yul\":7889:8206   */\n      pop\n      pop\n        /* \"#utility.yul\":7813:8206   */\n      swap4\n      swap3\n      pop\n      pop\n      pop\n      jump\t// out\n        /* \"#utility.yul\":8212:8272   */\n    tag_66:\n        /* \"#utility.yul\":8240:8243   */\n      0x00\n        /* \"#utility.yul\":8261:8266   */\n      dup2\n        /* \"#utility.yul\":8254:8266   */\n      swap1\n      pop\n        /* \"#utility.yul\":8212:8272   */\n      swap2\n      swap1\n      pop\n      jump\t// out\n        /* \"#utility.yul\":8278:8420   */\n    tag_67:\n        /* \"#utility.yul\":8328:8337   */\n      0x00\n        /* \"#utility.yul\":8361:8414   */\n      tag_171\n        /* \"#utility.yul\":8379:8413   */\n      tag_172\n        /* \"#utility.yul\":8388:8412   */\n      tag_173\n        /* \"#utility.yul\":8406:8411   */\n      dup5\n        /* \"#utility.yul\":8388:8412   */\n      tag_40\n      jump\t// in\n    tag_173:\n        /* \"#utility.yul\":8379:8413   */\n      tag_66\n      jump\t// in\n    tag_172:\n        /* \"#utility.yul\":8361:8414   */\n      tag_40\n      jump\t// in\n    tag_171:\n        /* \"#utility.yul\":8348:8414   */\n      swap1\n      pop\n        /* \"#utility.yul\":8278:8420   */\n      swap2\n      swap1\n      pop\n      jump\t// out\n        /* \"#utility.yul\":8426:8501   */\n    tag_68:\n        /* \"#utility.yul\":8469:8472   */\n      0x00\n        /* \"#utility.yul\":8490:8495   */\n      dup2\n        /* \"#utility.yul\":8483:8495   */\n      swap1\n      pop\n        /* \"#utility.yul\":8426:8501   */\n      swap2\n      swap1\n      pop\n      jump\t// out\n        /* \"#utility.yul\":8507:8776   */\n    tag_69:\n        /* \"#utility.yul\":8617:8656   */\n      tag_176\n        /* \"#utility.yul\":8648:8655   */\n      dup4\n        /* \"#utility.yul\":8617:8656   */\n      tag_67\n      jump\t// in\n    tag_176:\n        /* \"#utility.yul\":8678:8769   */\n      tag_177\n        /* \"#utility.yul\":8727:8768   */\n      tag_178\n        /* \"#utility.yul\":8751:8767   */\n      dup3\n        /* \"#utility.yul\":8727:8768   */\n      tag_68\n      jump\t// in\n    tag_178:\n        /* \"#utility.yul\":8719:8725   */\n      dup5\n        /* \"#utility.yul\":8712:8716   */\n      dup5\n        /* \"#utility.yul\":8706:8717   */\n      sload\n        /* \"#utility.yul\":8678:8769   */\n      tag_65\n      jump\t// in\n    tag_177:\n        /* \"#utility.yul\":8672:8676   */\n      dup3\n        /* \"#utility.yul\":8665:8770   */\n      sstore\n        /* \"#utility.yul\":8583:8776   */\n      pop\n        /* \"#utility.yul\":8507:8776   */\n      pop\n      pop\n      pop\n      jump\t// out\n        /* \"#utility.yul\":8782:8855   */\n    tag_70:\n        /* \"#utility.yul\":8827:8830   */\n      0x00\n        /* \"#utility.yul\":8782:8855   */\n      swap1\n      jump\t// out\n        /* \"#utility.yul\":8861:9050   */\n    tag_71:\n        /* \"#utility.yul\":8938:8970   */\n      tag_181\n      tag_70\n      jump\t// in\n    tag_181:\n        /* \"#utility.yul\":8979:9044   */\n      tag_182\n        /* \"#utility.yul\":9037:9043   */\n      dup2\n        /* \"#utility.yul\":9029:9035   */\n      dup5\n        /* \"#utility.yul\":9023:9027   */\n      dup5\n        /* \"#utility.yul\":8979:9044   */\n      tag_69\n      jump\t// in\n    tag_182:\n        /* \"#utility.yul\":8914:9050   */\n      pop\n        /* \"#utility.yul\":8861:9050   */\n      pop\n      pop\n      jump\t// out\n        /* \"#utility.yul\":9056:9242   */\n    tag_72:\n        /* \"#utility.yul\":9116:9236   */\n    tag_184:\n        /* \"#utility.yul\":9133:9136   */\n      dup2\n        /* \"#utility.yul\":9126:9131   */\n      dup2\n        /* \"#utility.yul\":9123:9137   */\n      lt\n        /* \"#utility.yul\":9116:9236   */\n      iszero\n      tag_186\n      jumpi\n        /* \"#utility.yul\":9187:9226   */\n      tag_187\n        /* \"#utility.yul\":9224:9225   */\n      0x00\n        /* \"#utility.yul\":9217:9222   */\n      dup3\n        /* \"#utility.yul\":9187:9226   */\n      tag_71\n      jump\t// in\n    tag_187:\n        /* \"#utility.yul\":9160:9161   */\n      0x01\n        /* \"#utility.yul\":9153:9158   */\n      dup2\n        /* \"#utility.yul\":9149:9162   */\n      add\n        /* \"#utility.yul\":9140:9162   */\n      swap1\n      pop\n        /* \"#utility.yul\":9116:9236   */\n      jump(tag_184)\n    tag_186:\n        /* \"#utility.yul\":9056:9242   */\n      pop\n      pop\n      jump\t// out\n        /* \"#utility.yul\":9248:9791   */\n    tag_73:\n        /* \"#utility.yul\":9349:9351   */\n      0x1f\n        /* \"#utility.yul\":9344:9347   */\n      dup3\n        /* \"#utility.yul\":9341:9352   */\n      gt\n        /* \"#utility.yul\":9338:9784   */\n      iszero\n      tag_189\n      jumpi\n        /* \"#utility.yul\":9383:9421   */\n      tag_190\n        /* \"#utility.yul\":9415:9420   */\n      dup2\n        /* \"#utility.yul\":9383:9421   */\n      tag_62\n      jump\t// in\n    tag_190:\n        /* \"#utility.yul\":9467:9496   */\n      tag_191\n        /* \"#utility.yul\":9485:9495   */\n      dup5\n        /* \"#utility.yul\":9467:9496   */\n      tag_63\n      jump\t// in\n    tag_191:\n        /* \"#utility.yul\":9457:9465   */\n      dup2\n        /* \"#utility.yul\":9453:9497   */\n      add\n        /* \"#utility.yul\":9650:9652   */\n      0x20\n        /* \"#utility.yul\":9638:9648   */\n      dup6\n        /* \"#utility.yul\":9635:9653   */\n      lt\n        /* \"#utility.yul\":9632:9681   */\n      iszero\n      tag_192\n      jumpi\n        /* \"#utility.yul\":9671:9679   */\n      dup2\n        /* \"#utility.yul\":9656:9679   */\n      swap1\n      pop\n        /* \"#utility.yul\":9632:9681   */\n    tag_192:\n        /* \"#utility.yul\":9694:9774   */\n      tag_193\n        /* \"#utility.yul\":9750:9772   */\n      tag_194\n        /* \"#utility.yul\":9768:9771   */\n      dup6\n        /* \"#utility.yul\":9750:9772   */\n      tag_63\n      jump\t// in\n    tag_194:\n        /* \"#utility.yul\":9740:9748   */\n      dup4\n        /* \"#utility.yul\":9736:9773   */\n      add\n        /* \"#utility.yul\":9723:9734   */\n      dup3\n        /* \"#utility.yul\":9694:9774   */\n      tag_72\n      jump\t// in\n    tag_193:\n        /* \"#utility.yul\":9353:9784   */\n      pop\n      pop\n        /* \"#utility.yul\":9338:9784   */\n    tag_189:\n        /* \"#utility.yul\":9248:9791   */\n      pop\n      pop\n      pop\n      jump\t// out\n        /* \"#utility.yul\":9797:9914   */\n    tag_74:\n        /* \"#utility.yul\":9851:9859   */\n      0x00\n        /* \"#utility.yul\":9901:9906   */\n      dup3\n        /* \"#utility.yul\":9895:9899   */\n      dup3\n        /* \"#utility.yul\":9891:9907   */\n      shr\n        /* \"#utility.yul\":9870:9907   */\n      swap1\n      pop\n        /* \"#utility.yul\":9797:9914   */\n      swap3\n      swap2\n      pop\n      pop\n      jump\t// out\n        /* \"#utility.yul\":9920:10089   */\n    tag_75:\n        /* \"#utility.yul\":9964:9970   */\n      0x00\n        /* \"#utility.yul\":9997:10048   */\n      tag_197\n        /* \"#utility.yul\":10045:10046   */\n      0x00\n        /* \"#utility.yul\":10041:10047   */\n      not\n        /* \"#utility.yul\":10033:10038   */\n      dup5\n        /* \"#utility.yul\":10030:10031   */\n      0x08\n        /* \"#utility.yul\":10026:10039   */\n      mul\n        /* \"#utility.yul\":9997:10048   */\n      tag_74\n      jump\t// in\n    tag_197:\n        /* \"#utility.yul\":9993:10049   */\n      not\n        /* \"#utility.yul\":10078:10082   */\n      dup1\n        /* \"#utility.yul\":10072:10076   */\n      dup4\n        /* \"#utility.yul\":10068:10083   */\n      and\n        /* \"#utility.yul\":10058:10083   */\n      swap2\n      pop\n        /* \"#utility.yul\":9971:10089   */\n      pop\n        /* \"#utility.yul\":9920:10089   */\n      swap3\n      swap2\n      pop\n      pop\n      jump\t// out\n        /* \"#utility.yul\":10094:10389   */\n    tag_76:\n        /* \"#utility.yul\":10170:10174   */\n      0x00\n        /* \"#utility.yul\":10316:10345   */\n      tag_199\n        /* \"#utility.yul\":10341:10344   */\n      dup4\n        /* \"#utility.yul\":10335:10339   */\n      dup4\n        /* \"#utility.yul\":10316:10345   */\n      tag_75\n      jump\t// in\n    tag_199:\n        /* \"#utility.yul\":10308:10345   */\n      swap2\n      pop\n        /* \"#utility.yul\":10378:10381   */\n      dup3\n        /* \"#utility.yul\":10375:10376   */\n      0x02\n        /* \"#utility.yul\":10371:10382   */\n      mul\n        /* \"#utility.yul\":10365:10369   */\n      dup3\n        /* \"#utility.yul\":10362:10383   */\n      or\n        /* \"#utility.yul\":10354:10383   */\n      swap1\n      pop\n        /* \"#utility.yul\":10094:10389   */\n      swap3\n      swap2\n      pop\n      pop\n      jump\t// out\n        /* \"#utility.yul\":10394:11789   */\n    tag_30:\n        /* \"#utility.yul\":10511:10548   */\n      tag_201\n        /* \"#utility.yul\":10544:10547   */\n      dup3\n        /* \"#utility.yul\":10511:10548   */\n      tag_57\n      jump\t// in\n    tag_201:\n        /* \"#utility.yul\":10613:10631   */\n      0xffffffffffffffff\n        /* \"#utility.yul\":10605:10611   */\n      dup2\n        /* \"#utility.yul\":10602:10632   */\n      gt\n        /* \"#utility.yul\":10599:10655   */\n      iszero\n      tag_202\n      jumpi\n        /* \"#utility.yul\":10635:10653   */\n      tag_203\n      tag_50\n      jump\t// in\n    tag_203:\n        /* \"#utility.yul\":10599:10655   */\n    tag_202:\n        /* \"#utility.yul\":10679:10717   */\n      tag_204\n        /* \"#utility.yul\":10711:10715   */\n      dup3\n        /* \"#utility.yul\":10705:10716   */\n      sload\n        /* \"#utility.yul\":10679:10717   */\n      tag_32\n      jump\t// in\n    tag_204:\n        /* \"#utility.yul\":10764:10831   */\n      tag_205\n        /* \"#utility.yul\":10824:10830   */\n      dup3\n        /* \"#utility.yul\":10816:10822   */\n      dup3\n        /* \"#utility.yul\":10810:10814   */\n      dup6\n        /* \"#utility.yul\":10764:10831   */\n      tag_73\n      jump\t// in\n    tag_205:\n        /* \"#utility.yul\":10858:10859   */\n      0x00\n        /* \"#utility.yul\":10882:10886   */\n      0x20\n        /* \"#utility.yul\":10869:10886   */\n      swap1\n      pop\n        /* \"#utility.yul\":10914:10916   */\n      0x1f\n        /* \"#utility.yul\":10906:10912   */\n      dup4\n        /* \"#utility.yul\":10903:10917   */\n      gt\n        /* \"#utility.yul\":10931:10932   */\n      0x01\n        /* \"#utility.yul\":10926:11544   */\n      dup2\n      eq\n      tag_207\n      jumpi\n        /* \"#utility.yul\":11588:11589   */\n      0x00\n        /* \"#utility.yul\":11605:11611   */\n      dup5\n        /* \"#utility.yul\":11602:11679   */\n      iszero\n      tag_208\n      jumpi\n        /* \"#utility.yul\":11654:11663   */\n      dup3\n        /* \"#utility.yul\":11649:11652   */\n      dup8\n        /* \"#utility.yul\":11645:11664   */\n      add\n        /* \"#utility.yul\":11639:11665   */\n      mload\n        /* \"#utility.yul\":11630:11665   */\n      swap1\n      pop\n        /* \"#utility.yul\":11602:11679   */\n    tag_208:\n        /* \"#utility.yul\":11705:11772   */\n      tag_209\n        /* \"#utility.yul\":11765:11771   */\n      dup6\n        /* \"#utility.yul\":11758:11763   */\n      dup3\n        /* \"#utility.yul\":11705:11772   */\n      tag_76\n      jump\t// in\n    tag_209:\n        /* \"#utility.yul\":11699:11703   */\n      dup7\n        /* \"#utility.yul\":11692:11773   */\n      sstore\n        /* \"#utility.yul\":11561:11783   */\n      pop\n        /* \"#utility.yul\":10896:11783   */\n      jump(tag_206)\n        /* \"#utility.yul\":10926:11544   */\n    tag_207:\n        /* \"#utility.yul\":10978:10982   */\n      0x1f\n        /* \"#utility.yul\":10974:10983   */\n      not\n        /* \"#utility.yul\":10966:10972   */\n      dup5\n        /* \"#utility.yul\":10962:10984   */\n      and\n        /* \"#utility.yul\":11012:11049   */\n      tag_210\n        /* \"#utility.yul\":11044:11048   */\n      dup7\n        /* \"#utility.yul\":11012:11049   */\n      tag_62\n      jump\t// in\n    tag_210:\n        /* \"#utility.yul\":11071:11072   */\n      0x00\n        /* \"#utility.yul\":11085:11293   */\n    tag_211:\n        /* \"#utility.yul\":11099:11106   */\n      dup3\n        /* \"#utility.yul\":11096:11097   */\n      dup2\n        /* \"#utility.yul\":11093:11107   */\n      lt\n        /* \"#utility.yul\":11085:11293   */\n      iszero\n      tag_213\n      jumpi\n        /* \"#utility.yul\":11178:11187   */\n      dup5\n        /* \"#utility.yul\":11173:11176   */\n      dup10\n        /* \"#utility.yul\":11169:11188   */\n      add\n        /* \"#utility.yul\":11163:11189   */\n      mload\n        /* \"#utility.yul\":11155:11161   */\n      dup3\n        /* \"#utility.yul\":11148:11190   */\n      sstore\n        /* \"#utility.yul\":11229:11230   */\n      0x01\n        /* \"#utility.yul\":11221:11227   */\n      dup3\n        /* \"#utility.yul\":11217:11231   */\n      add\n        /* \"#utility.yul\":11207:11231   */\n      swap2\n      pop\n        /* \"#utility.yul\":11276:11278   */\n      0x20\n        /* \"#utility.yul\":11265:11274   */\n      dup6\n        /* \"#utility.yul\":11261:11279   */\n      add\n        /* \"#utility.yul\":11248:11279   */\n      swap5\n      pop\n        /* \"#utility.yul\":11122:11126   */\n      0x20\n        /* \"#utility.yul\":11119:11120   */\n      dup2\n        /* \"#utility.yul\":11115:11127   */\n      add\n        /* \"#utility.yul\":11110:11127   */\n      swap1\n      pop\n        /* \"#utility.yul\":11085:11293   */\n      jump(tag_211)\n    tag_213:\n        /* \"#utility.yul\":11321:11327   */\n      dup7\n        /* \"#utility.yul\":11312:11319   */\n      dup4\n        /* \"#utility.yul\":11309:11328   */\n      lt\n        /* \"#utility.yul\":11306:11485   */\n      iszero\n      tag_214\n      jumpi\n        /* \"#utility.yul\":11379:11388   */\n      dup5\n        /* \"#utility.yul\":11374:11377   */\n      dup10\n        /* \"#utility.yul\":11370:11389   */\n      add\n        /* \"#utility.yul\":11364:11390   */\n      mload\n        /* \"#utility.yul\":11422:11470   */\n      tag_215\n        /* \"#utility.yul\":11464:11468   */\n      0x1f\n        /* \"#utility.yul\":11456:11462   */\n      dup10\n        /* \"#utility.yul\":11452:11469   */\n      and\n        /* \"#utility.yul\":11441:11450   */\n      dup3\n        /* \"#utility.yul\":11422:11470   */\n      tag_75\n      jump\t// in\n    tag_215:\n        /* \"#utility.yul\":11414:11420   */\n      dup4\n        /* \"#utility.yul\":11407:11471   */\n      sstore\n        /* \"#utility.yul\":11329:11485   */\n      pop\n        /* \"#utility.yul\":11306:11485   */\n    tag_214:\n        /* \"#utility.yul\":11531:11532   */\n      0x01\n        /* \"#utility.yul\":11527:11528   */\n      0x02\n        /* \"#utility.yul\":11519:11525   */\n      dup9\n        /* \"#utility.yul\":11515:11529   */\n      mul\n        /* \"#utility.yul\":11511:11533   */\n      add\n        /* \"#utility.yul\":11505:11509   */\n      dup9\n        /* \"#utility.yul\":11498:11534   */\n      sstore\n        /* \"#utility.yul\":10933:11544   */\n      pop\n      pop\n      pop\n        /* \"#utility.yul\":10896:11783   */\n    tag_206:\n      pop\n        /* \"#utility.yul\":10486:11789   */\n      pop\n      pop\n      pop\n        /* \"#utility.yul\":10394:11789   */\n      pop\n      pop\n      jump\t// out\n\n    auxdata: 0xa2646970667358221220df3b08350d79bd349be9e2c169b8c27b41f475e36e296e4a9cc2e39295cc0aa964736f6c63430008160033\n}\n",
				"bytecode": {
					"linkReferences": {},
					"object": "608060405234801561000f575f80fd5b506108738061001d5f395ff3fe608060405234801561000f575f80fd5b506004361061004a575f3560e01c80636af390aa1461004e5780637b8d56e31461007e5780639afe382c1461009a578063cc642e92146100b6575b5f80fd5b61006860048036038101906100639190610230565b6100e6565b604051610075919061026a565b60405180910390f35b61009860048036038101906100939190610283565b6100fa565b005b6100b460048036038101906100af9190610430565b610113565b005b6100d060048036038101906100cb919061049c565b610146565b6040516100dd9190610554565b60405180910390f35b5f602052805f5260405f205f915090505481565b805f808481526020019081526020015f20819055505050565b8060015f8581526020019081526020015f205f8481526020019081526020015f209081610140919061076e565b50505050565b6001602052815f5260405f20602052805f5260405f205f9150915050805461016d906105a1565b80601f0160208091040260200160405190810160405280929190818152602001828054610199906105a1565b80156101e45780601f106101bb576101008083540402835291602001916101e4565b820191905f5260205f20905b8154815290600101906020018083116101c757829003601f168201915b505050505081565b5f604051905090565b5f80fd5b5f80fd5b5f819050919050565b61020f816101fd565b8114610219575f80fd5b50565b5f8135905061022a81610206565b92915050565b5f60208284031215610245576102446101f5565b5b5f6102528482850161021c565b91505092915050565b610264816101fd565b82525050565b5f60208201905061027d5f83018461025b565b92915050565b5f8060408385031215610299576102986101f5565b5b5f6102a68582860161021c565b92505060206102b78582860161021c565b9150509250929050565b5f819050919050565b6102d3816102c1565b81146102dd575f80fd5b50565b5f813590506102ee816102ca565b92915050565b5f80fd5b5f80fd5b5f601f19601f8301169050919050565b7f4e487b71000000000000000000000000000000000000000000000000000000005f52604160045260245ffd5b610342826102fc565b810181811067ffffffffffffffff821117156103615761036061030c565b5b80604052505050565b5f6103736101ec565b905061037f8282610339565b919050565b5f67ffffffffffffffff82111561039e5761039d61030c565b5b6103a7826102fc565b9050602081019050919050565b828183375f83830152505050565b5f6103d46103cf84610384565b61036a565b9050828152602081018484840111156103f0576103ef6102f8565b5b6103fb8482856103b4565b509392505050565b5f82601f830112610417576104166102f4565b5b81356104278482602086016103c2565b91505092915050565b5f805f60608486031215610447576104466101f5565b5b5f6104548682870161021c565b9350506020610465868287016102e0565b925050604084013567ffffffffffffffff811115610486576104856101f9565b5b61049286828701610403565b9150509250925092565b5f80604083850312156104b2576104b16101f5565b5b5f6104bf8582860161021c565b92505060206104d0858286016102e0565b9150509250929050565b5f81519050919050565b5f82825260208201905092915050565b5f5b838110156105115780820151818401526020810190506104f6565b5f8484015250505050565b5f610526826104da565b61053081856104e4565b93506105408185602086016104f4565b610549816102fc565b840191505092915050565b5f6020820190508181035f83015261056c818461051c565b905092915050565b7f4e487b71000000000000000000000000000000000000000000000000000000005f52602260045260245ffd5b5f60028204905060018216806105b857607f821691505b6020821081036105cb576105ca610574565b5b50919050565b5f819050815f5260205f209050919050565b5f6020601f8301049050919050565b5f82821b905092915050565b5f6008830261062d7fffffffffffffffffffffffffffffffffffffffffffffffffffffffffffffffff826105f2565b61063786836105f2565b95508019841693508086168417925050509392505050565b5f819050919050565b5f61067261066d610668846101fd565b61064f565b6101fd565b9050919050565b5f819050919050565b61068b83610658565b61069f61069782610679565b8484546105fe565b825550505050565b5f90565b6106b36106a7565b6106be818484610682565b505050565b5b818110156106e1576106d65f826106ab565b6001810190506106c4565b5050565b601f821115610726576106f7816105d1565b610700846105e3565b8101602085101561070f578190505b61072361071b856105e3565b8301826106c3565b50505b505050565b5f82821c905092915050565b5f6107465f198460080261072b565b1980831691505092915050565b5f61075e8383610737565b9150826002028217905092915050565b610777826104da565b67ffffffffffffffff8111156107905761078f61030c565b5b61079a82546105a1565b6107a58282856106e5565b5f60209050601f8311600181146107d6575f84156107c4578287015190505b6107ce8582610753565b865550610835565b601f1984166107e4866105d1565b5f5b8281101561080b578489015182556001820191506020850194506020810190506107e6565b868310156108285784890151610824601f891682610737565b8355505b6001600288020188555050505b50505050505056fea2646970667358221220df3b08350d79bd349be9e2c169b8c27b41f475e36e296e4a9cc2e39295cc0aa964736f6c63430008160033",
					"opcodes": "PUSH1 0x80 PUSH1 0x40 MSTORE CALLVALUE DUP1 ISZERO PUSH2 0xF JUMPI PUSH0 DUP1 REVERT JUMPDEST POP PUSH2 0x873 DUP1 PUSH2 0x1D PUSH0 CODECOPY PUSH0 RETURN INVALID PUSH1 0x80 PUSH1 0x40 MSTORE CALLVALUE DUP1 ISZERO PUSH2 0xF JUMPI PUSH0 DUP1 REVERT JUMPDEST POP PUSH1 0x4 CALLDATASIZE LT PUSH2 0x4A JUMPI PUSH0 CALLDATALOAD PUSH1 0xE0 SHR DUP1 PUSH4 0x6AF390AA EQ PUSH2 0x4E JUMPI DUP1 PUSH4 0x7B8D56E3 EQ PUSH2 0x7E JUMPI DUP1 PUSH4 0x9AFE382C EQ PUSH2 0x9A JUMPI DUP1 PUSH4 0xCC642E92 EQ PUSH2 0xB6 JUMPI JUMPDEST PUSH0 DUP1 REVERT JUMPDEST PUSH2 0x68 PUSH1 0x4 DUP1 CALLDATASIZE SUB DUP2 ADD SWAP1 PUSH2 0x63 SWAP2 SWAP1 PUSH2 0x230 JUMP JUMPDEST PUSH2 0xE6 JUMP JUMPDEST PUSH1 0x40 MLOAD PUSH2 0x75 SWAP2 SWAP1 PUSH2 0x26A JUMP JUMPDEST PUSH1 0x40 MLOAD DUP1 SWAP2 SUB SWAP1 RETURN JUMPDEST PUSH2 0x98 PUSH1 0x4 DUP1 CALLDATASIZE SUB DUP2 ADD SWAP1 PUSH2 0x93 SWAP2 SWAP1 PUSH2 0x283 JUMP JUMPDEST PUSH2 0xFA JUMP JUMPDEST STOP JUMPDEST PUSH2 0xB4 PUSH1 0x4 DUP1 CALLDATASIZE SUB DUP2 ADD SWAP1 PUSH2 0xAF SWAP2 SWAP1 PUSH2 0x430 JUMP JUMPDEST PUSH2 0x113 JUMP JUMPDEST STOP JUMPDEST PUSH2 0xD0 PUSH1 0x4 DUP1 CALLDATASIZE SUB DUP2 ADD SWAP1 PUSH2 0xCB SWAP2 SWAP1 PUSH2 0x49C JUMP JUMPDEST PUSH2 0x146 JUMP JUMPDEST PUSH1 0x40 MLOAD PUSH2 0xDD SWAP2 SWAP1 PUSH2 0x554 JUMP JUMPDEST PUSH1 0x40 MLOAD DUP1 SWAP2 SUB SWAP1 RETURN JUMPDEST PUSH0 PUSH1 0x20 MSTORE DUP1 PUSH0 MSTORE PUSH1 0x40 PUSH0 KECCAK256 PUSH0 SWAP2 POP SWAP1 POP SLOAD DUP2 JUMP JUMPDEST DUP1 PUSH0 DUP1 DUP5 DUP2 MSTORE PUSH1 0x20 ADD SWAP1 DUP2 MSTORE PUSH1 0x20 ADD PUSH0 KECCAK256 DUP2 SWAP1 SSTORE POP POP POP JUMP JUMPDEST DUP1 PUSH1 0x1 PUSH0 DUP6 DUP2 MSTORE PUSH1 0x20 ADD SWAP1 DUP2 MSTORE PUSH1 0x20 ADD PUSH0 KECCAK256 PUSH0 DUP5 DUP2 MSTORE PUSH1 0x20 ADD SWAP1 DUP2 MSTORE PUSH1 0x20 ADD PUSH0 KECCAK256 SWAP1 DUP2 PUSH2 0x140 SWAP2 SWAP1 PUSH2 0x76E JUMP JUMPDEST POP POP POP POP JUMP JUMPDEST PUSH1 0x1 PUSH1 0x20 MSTORE DUP2 PUSH0 MSTORE PUSH1 0x40 PUSH0 KECCAK256 PUSH1 0x20 MSTORE DUP1 PUSH0 MSTORE PUSH1 0x40 PUSH0 KECCAK256 PUSH0 SWAP2 POP SWAP2 POP POP DUP1 SLOAD PUSH2 0x16D SWAP1 PUSH2 0x5A1 JUMP JUMPDEST DUP1 PUSH1 0x1F ADD PUSH1 0x20 DUP1 SWAP2 DIV MUL PUSH1 0x20 ADD PUSH1 0x40 MLOAD SWAP1 DUP2 ADD PUSH1 0x40 MSTORE DUP1 SWAP3 SWAP2 SWAP1 DUP2 DUP2 MSTORE PUSH1 0x20 ADD DUP3 DUP1 SLOAD PUSH2 0x199 SWAP1 PUSH2 0x5A1 JUMP JUMPDEST DUP1 ISZERO PUSH2 0x1E4 JUMPI DUP1 PUSH1 0x1F LT PUSH2 0x1BB JUMPI PUSH2 0x100 DUP1 DUP4 SLOAD DIV MUL DUP4 MSTORE SWAP2 PUSH1 0x20 ADD SWAP2 PUSH2 0x1E4 JUMP JUMPDEST DUP3 ADD SWAP2 SWAP1 PUSH0 MSTORE PUSH1 0x20 PUSH0 KECCAK256 SWAP1 JUMPDEST DUP2 SLOAD DUP2 MSTORE SWAP1 PUSH1 0x1 ADD SWAP1 PUSH1 0x20 ADD DUP1 DUP4 GT PUSH2 0x1C7 JUMPI DUP3 SWAP1 SUB PUSH1 0x1F AND DUP3 ADD SWAP2 JUMPDEST POP POP POP POP POP DUP2 JUMP JUMPDEST PUSH0 PUSH1 0x40 MLOAD SWAP1 POP SWAP1 JUMP JUMPDEST PUSH0 DUP1 REVERT JUMPDEST PUSH0 DUP1 REVERT JUMPDEST PUSH0 DUP2 SWAP1 POP SWAP2 SWAP1 POP JUMP JUMPDEST PUSH2 0x20F DUP2 PUSH2 0x1FD JUMP JUMPDEST DUP2 EQ PUSH2 0x219 JUMPI PUSH0 DUP1 REVERT JUMPDEST POP JUMP JUMPDEST PUSH0 DUP2 CALLDATALOAD SWAP1 POP PUSH2 0x22A DUP2 PUSH2 0x206 JUMP JUMPDEST SWAP3 SWAP2 POP POP JUMP JUMPDEST PUSH0 PUSH1 0x20 DUP3 DUP5 SUB SLT ISZERO PUSH2 0x245 JUMPI PUSH2 0x244 PUSH2 0x1F5 JUMP JUMPDEST JUMPDEST PUSH0 PUSH2 0x252 DUP5 DUP3 DUP6 ADD PUSH2 0x21C JUMP JUMPDEST SWAP2 POP POP SWAP3 SWAP2 POP POP JUMP JUMPDEST PUSH2 0x264 DUP2 PUSH2 0x1FD JUMP JUMPDEST DUP3 MSTORE POP POP JUMP JUMPDEST PUSH0 PUSH1 0x20 DUP3 ADD SWAP1 POP PUSH2 0x27D PUSH0 DUP4 ADD DUP5 PUSH2 0x25B JUMP JUMPDEST SWAP3 SWAP2 POP POP JUMP JUMPDEST PUSH0 DUP1 PUSH1 0x40 DUP4 DUP6 SUB SLT ISZERO PUSH2 0x299 JUMPI PUSH2 0x298 PUSH2 0x1F5 JUMP JUMPDEST JUMPDEST PUSH0 PUSH2 0x2A6 DUP6 DUP3 DUP7 ADD PUSH2 0x21C JUMP JUMPDEST SWAP3 POP POP PUSH1 0x20 PUSH2 0x2B7 DUP6 DUP3 DUP7 ADD PUSH2 0x21C JUMP JUMPDEST SWAP2 POP POP SWAP3 POP SWAP3 SWAP1 POP JUMP JUMPDEST PUSH0 DUP2 SWAP1 POP SWAP2 SWAP1 POP JUMP JUMPDEST PUSH2 0x2D3 DUP2 PUSH2 0x2C1 JUMP JUMPDEST DUP2 EQ PUSH2 0x2DD JUMPI PUSH0 DUP1 REVERT JUMPDEST POP JUMP JUMPDEST PUSH0 DUP2 CALLDATALOAD SWAP1 POP PUSH2 0x2EE DUP2 PUSH2 0x2CA JUMP JUMPDEST SWAP3 SWAP2 POP POP JUMP JUMPDEST PUSH0 DUP1 REVERT JUMPDEST PUSH0 DUP1 REVERT JUMPDEST PUSH0 PUSH1 0x1F NOT PUSH1 0x1F DUP4 ADD AND SWAP1 POP SWAP2 SWAP1 POP JUMP JUMPDEST PUSH32 0x4E487B7100000000000000000000000000000000000000000000000000000000 PUSH0 MSTORE PUSH1 0x41 PUSH1 0x4 MSTORE PUSH1 0x24 PUSH0 REVERT JUMPDEST PUSH2 0x342 DUP3 PUSH2 0x2FC JUMP JUMPDEST DUP2 ADD DUP2 DUP2 LT PUSH8 0xFFFFFFFFFFFFFFFF DUP3 GT OR ISZERO PUSH2 0x361 JUMPI PUSH2 0x360 PUSH2 0x30C JUMP JUMPDEST JUMPDEST DUP1 PUSH1 0x40 MSTORE POP POP POP JUMP JUMPDEST PUSH0 PUSH2 0x373 PUSH2 0x1EC JUMP JUMPDEST SWAP1 POP PUSH2 0x37F DUP3 DUP3 PUSH2 0x339 JUMP JUMPDEST SWAP2 SWAP1 POP JUMP JUMPDEST PUSH0 PUSH8 0xFFFFFFFFFFFFFFFF DUP3 GT ISZERO PUSH2 0x39E JUMPI PUSH2 0x39D PUSH2 0x30C JUMP JUMPDEST JUMPDEST PUSH2 0x3A7 DUP3 PUSH2 0x2FC JUMP JUMPDEST SWAP1 POP PUSH1 0x20 DUP2 ADD SWAP1 POP SWAP2 SWAP1 POP JUMP JUMPDEST DUP3 DUP2 DUP4 CALLDATACOPY PUSH0 DUP4 DUP4 ADD MSTORE POP POP POP JUMP JUMPDEST PUSH0 PUSH2 0x3D4 PUSH2 0x3CF DUP5 PUSH2 0x384 JUMP JUMPDEST PUSH2 0x36A JUMP JUMPDEST SWAP1 POP DUP3 DUP2 MSTORE PUSH1 0x20 DUP2 ADD DUP5 DUP5 DUP5 ADD GT ISZERO PUSH2 0x3F0 JUMPI PUSH2 0x3EF PUSH2 0x2F8 JUMP JUMPDEST JUMPDEST PUSH2 0x3FB DUP5 DUP3 DUP6 PUSH2 0x3B4 JUMP JUMPDEST POP SWAP4 SWAP3 POP POP POP JUMP JUMPDEST PUSH0 DUP3 PUSH1 0x1F DUP4 ADD SLT PUSH2 0x417 JUMPI PUSH2 0x416 PUSH2 0x2F4 JUMP JUMPDEST JUMPDEST DUP2 CALLDATALOAD PUSH2 0x427 DUP5 DUP3 PUSH1 0x20 DUP7 ADD PUSH2 0x3C2 JUMP JUMPDEST SWAP2 POP POP SWAP3 SWAP2 POP POP JUMP JUMPDEST PUSH0 DUP1 PUSH0 PUSH1 0x60 DUP5 DUP7 SUB SLT ISZERO PUSH2 0x447 JUMPI PUSH2 0x446 PUSH2 0x1F5 JUMP JUMPDEST JUMPDEST PUSH0 PUSH2 0x454 DUP7 DUP3 DUP8 ADD PUSH2 0x21C JUMP JUMPDEST SWAP4 POP POP PUSH1 0x20 PUSH2 0x465 DUP7 DUP3 DUP8 ADD PUSH2 0x2E0 JUMP JUMPDEST SWAP3 POP POP PUSH1 0x40 DUP5 ADD CALLDATALOAD PUSH8 0xFFFFFFFFFFFFFFFF DUP2 GT ISZERO PUSH2 0x486 JUMPI PUSH2 0x485 PUSH2 0x1F9 JUMP JUMPDEST JUMPDEST PUSH2 0x492 DUP7 DUP3 DUP8 ADD PUSH2 0x403 JUMP JUMPDEST SWAP2 POP POP SWAP3 POP SWAP3 POP SWAP3 JUMP JUMPDEST PUSH0 DUP1 PUSH1 0x40 DUP4 DUP6 SUB SLT ISZERO PUSH2 0x4B2 JUMPI PUSH2 0x4B1 PUSH2 0x1F5 JUMP JUMPDEST JUMPDEST PUSH0 PUSH2 0x4BF DUP6 DUP3 DUP7 ADD PUSH2 0x21C JUMP JUMPDEST SWAP3 POP POP PUSH1 0x20 PUSH2 0x4D0 DUP6 DUP3 DUP7 ADD PUSH2 0x2E0 JUMP JUMPDEST SWAP2 POP POP SWAP3 POP SWAP3 SWAP1 POP JUMP JUMPDEST PUSH0 DUP2 MLOAD SWAP1 POP SWAP2 SWAP1 POP JUMP JUMPDEST PUSH0 DUP3 DUP3 MSTORE PUSH1 0x20 DUP3 ADD SWAP1 POP SWAP3 SWAP2 POP POP JUMP JUMPDEST PUSH0 JUMPDEST DUP4 DUP2 LT ISZERO PUSH2 0x511 JUMPI DUP1 DUP3 ADD MLOAD DUP2 DUP5 ADD MSTORE PUSH1 0x20 DUP2 ADD SWAP1 POP PUSH2 0x4F6 JUMP JUMPDEST PUSH0 DUP5 DUP5 ADD MSTORE POP POP POP POP JUMP JUMPDEST PUSH0 PUSH2 0x526 DUP3 PUSH2 0x4DA JUMP JUMPDEST PUSH2 0x530 DUP2 DUP6 PUSH2 0x4E4 JUMP JUMPDEST SWAP4 POP PUSH2 0x540 DUP2 DUP6 PUSH1 0x20 DUP7 ADD PUSH2 0x4F4 JUMP JUMPDEST PUSH2 0x549 DUP2 PUSH2 0x2FC JUMP JUMPDEST DUP5 ADD SWAP2 POP POP SWAP3 SWAP2 POP POP JUMP JUMPDEST PUSH0 PUSH1 0x20 DUP3 ADD SWAP1 POP DUP2 DUP2 SUB PUSH0 DUP4 ADD MSTORE PUSH2 0x56C DUP2 DUP5 PUSH2 0x51C JUMP JUMPDEST SWAP1 POP SWAP3 SWAP2 POP POP JUMP JUMPDEST PUSH32 0x4E487B7100000000000000000000000000000000000000000000000000000000 PUSH0 MSTORE PUSH1 0x22 PUSH1 0x4 MSTORE PUSH1 0x24 PUSH0 REVERT JUMPDEST PUSH0 PUSH1 0x2 DUP3 DIV SWAP1 POP PUSH1 0x1 DUP3 AND DUP1 PUSH2 0x5B8 JUMPI PUSH1 0x7F DUP3 AND SWAP2 POP JUMPDEST PUSH1 0x20 DUP3 LT DUP2 SUB PUSH2 0x5CB JUMPI PUSH2 0x5CA PUSH2 0x574 JUMP JUMPDEST JUMPDEST POP SWAP2 SWAP1 POP JUMP JUMPDEST PUSH0 DUP2 SWAP1 POP DUP2 PUSH0 MSTORE PUSH1 0x20 PUSH0 KECCAK256 SWAP1 POP SWAP2 SWAP1 POP JUMP JUMPDEST PUSH0 PUSH1 0x20 PUSH1 0x1F DUP4 ADD DIV SWAP1 POP SWAP2 SWAP1 POP JUMP JUMPDEST PUSH0 DUP3 DUP3 SHL SWAP1 POP SWAP3 SWAP2 POP POP JUMP JUMPDEST PUSH0 PUSH1 0x8 DUP4 MUL PUSH2 0x62D PUSH32 0xFFFFFFFFFFFFFFFFFFFFFFFFFFFFFFFFFFFFFFFFFFFFFFFFFFFFFFFFFFFFFFFF DUP3 PUSH2 0x5F2 JUMP JUMPDEST PUSH2 0x637 DUP7 DUP4 PUSH2 0x5F2 JUMP JUMPDEST SWAP6 POP DUP1 NOT DUP5 AND SWAP4 POP DUP1 DUP7 AND DUP5 OR SWAP3 POP POP POP SWAP4 SWAP3 POP POP POP JUMP JUMPDEST PUSH0 DUP2 SWAP1 POP SWAP2 SWAP1 POP JUMP JUMPDEST PUSH0 PUSH2 0x672 PUSH2 0x66D PUSH2 0x668 DUP5 PUSH2 0x1FD JUMP JUMPDEST PUSH2 0x64F JUMP JUMPDEST PUSH2 0x1FD JUMP JUMPDEST SWAP1 POP SWAP2 SWAP1 POP JUMP JUMPDEST PUSH0 DUP2 SWAP1 POP SWAP2 SWAP1 POP JUMP JUMPDEST PUSH2 0x68B DUP4 PUSH2 0x658 JUMP JUMPDEST PUSH2 0x69F PUSH2 0x697 DUP3 PUSH2 0x679 JUMP JUMPDEST DUP5 DUP5 SLOAD PUSH2 0x5FE JUMP JUMPDEST DUP3 SSTORE POP POP POP POP JUMP JUMPDEST PUSH0 SWAP1 JUMP JUMPDEST PUSH2 0x6B3 PUSH2 0x6A7 JUMP JUMPDEST PUSH2 0x6BE DUP2 DUP5 DUP5 PUSH2 0x682 JUMP JUMPDEST POP POP POP JUMP JUMPDEST JUMPDEST DUP2 DUP2 LT ISZERO PUSH2 0x6E1 JUMPI PUSH2 0x6D6 PUSH0 DUP3 PUSH2 0x6AB JUMP JUMPDEST PUSH1 0x1 DUP2 ADD SWAP1 POP PUSH2 0x6C4 JUMP JUMPDEST POP POP JUMP JUMPDEST PUSH1 0x1F DUP3 GT ISZERO PUSH2 0x726 JUMPI PUSH2 0x6F7 DUP2 PUSH2 0x5D1 JUMP JUMPDEST PUSH2 0x700 DUP5 PUSH2 0x5E3 JUMP JUMPDEST DUP2 ADD PUSH1 0x20 DUP6 LT ISZERO PUSH2 0x70F JUMPI DUP2 SWAP1 POP JUMPDEST PUSH2 0x723 PUSH2 0x71B DUP6 PUSH2 0x5E3 JUMP JUMPDEST DUP4 ADD DUP3 PUSH2 0x6C3 JUMP JUMPDEST POP POP JUMPDEST POP POP POP JUMP JUMPDEST PUSH0 DUP3 DUP3 SHR SWAP1 POP SWAP3 SWAP2 POP POP JUMP JUMPDEST PUSH0 PUSH2 0x746 PUSH0 NOT DUP5 PUSH1 0x8 MUL PUSH2 0x72B JUMP JUMPDEST NOT DUP1 DUP4 AND SWAP2 POP POP SWAP3 SWAP2 POP POP JUMP JUMPDEST PUSH0 PUSH2 0x75E DUP4 DUP4 PUSH2 0x737 JUMP JUMPDEST SWAP2 POP DUP3 PUSH1 0x2 MUL DUP3 OR SWAP1 POP SWAP3 SWAP2 POP POP JUMP JUMPDEST PUSH2 0x777 DUP3 PUSH2 0x4DA JUMP JUMPDEST PUSH8 0xFFFFFFFFFFFFFFFF DUP2 GT ISZERO PUSH2 0x790 JUMPI PUSH2 0x78F PUSH2 0x30C JUMP JUMPDEST JUMPDEST PUSH2 0x79A DUP3 SLOAD PUSH2 0x5A1 JUMP JUMPDEST PUSH2 0x7A5 DUP3 DUP3 DUP6 PUSH2 0x6E5 JUMP JUMPDEST PUSH0 PUSH1 0x20 SWAP1 POP PUSH1 0x1F DUP4 GT PUSH1 0x1 DUP2 EQ PUSH2 0x7D6 JUMPI PUSH0 DUP5 ISZERO PUSH2 0x7C4 JUMPI DUP3 DUP8 ADD MLOAD SWAP1 POP JUMPDEST PUSH2 0x7CE DUP6 DUP3 PUSH2 0x753 JUMP JUMPDEST DUP7 SSTORE POP PUSH2 0x835 JUMP JUMPDEST PUSH1 0x1F NOT DUP5 AND PUSH2 0x7E4 DUP7 PUSH2 0x5D1 JUMP JUMPDEST PUSH0 JUMPDEST DUP3 DUP2 LT ISZERO PUSH2 0x80B JUMPI DUP5 DUP10 ADD MLOAD DUP3 SSTORE PUSH1 0x1 DUP3 ADD SWAP2 POP PUSH1 0x20 DUP6 ADD SWAP5 POP PUSH1 0x20 DUP2 ADD SWAP1 POP PUSH2 0x7E6 JUMP JUMPDEST DUP7 DUP4 LT ISZERO PUSH2 0x828 JUMPI DUP5 DUP10 ADD MLOAD PUSH2 0x824 PUSH1 0x1F DUP10 AND DUP3 PUSH2 0x737 JUMP JUMPDEST DUP4 SSTORE POP JUMPDEST PUSH1 0x1 PUSH1 0x2 DUP9 MUL ADD DUP9 SSTORE POP POP POP JUMPDEST POP POP POP POP POP POP JUMP INVALID LOG2 PUSH5 0x6970667358 0x22 SLT KECCAK256 0xDF EXTCODESIZE ADDMOD CALLDATALOAD 0xD PUSH26 0xBD349BE9E2C169B8C27B41F475E36E296E4A9CC2E39295CC0AA9 PUSH5 0x736F6C6343 STOP ADDMOD AND STOP CALLER "
				},
				"gasEstimates": {
					"creation": {
						"codeDepositCost": "432600",
						"executionCost": "466",
						"totalCost": "433066"
					},
					"external": {
						"doubleMap(uint256,int256)": "infinite",
						"myMap(uint256)": "infinite",
						"setDoubleMap(uint256,int256,string)": "infinite",
						"setValue(uint256,uint256)": "infinite"
					}
				},
				"methodIdentifiers": {
					"doubleMap(uint256,int256)": "cc642e92",
					"myMap(uint256)": "6af390aa",
					"setDoubleMap(uint256,int256,string)": "9afe382c",
					"setValue(uint256,uint256)": "7b8d56e3"
				}
			},
			"storageLayout": {
				"storage": [
					{
						"astId": 5,
						"contract": "contracts/ExampleMapping.sol:ExampleMapping",
						"label": "myMap",
						"offset": 0,
						"slot": "0",
						"type": "t_mapping(t_uint256,t_uint256)"
					},
					{
						"astId": 11,
						"contract": "contracts/ExampleMapping.sol:ExampleMapping",
						"label": "doubleMap",
						"offset": 0,
						"slot": "1",
						"type": "t_mapping(t_uint256,t_mapping(t_int256,t_string_storage))"
					}
				],
				"types": {
					"t_int256": {
						"encoding": "inplace",
						"label": "int256",
						"numberOfBytes": "32"
					},
					"t_mapping(t_int256,t_string_storage)": {
						"encoding": "mapping",
						"key": "t_int256",
						"label": "mapping(int256 => string)",
						"numberOfBytes": "32",
						"value": "t_string_storage"
					},
					"t_mapping(t_uint256,t_mapping(t_int256,t_string_storage))": {
						"encoding": "mapping",
						"key": "t_uint256",
						"label": "mapping(uint256 => mapping(int256 => string))",
						"numberOfBytes": "32",
						"value": "t_mapping(t_int256,t_string_storage)"
					},
					"t_mapping(t_uint256,t_uint256)": {
						"encoding": "mapping",
						"key": "t_uint256",
						"label": "mapping(uint256 => uint256)",
						"numberOfBytes": "32",
						"value": "t_uint256"
					},
					"t_string_storage": {
						"encoding": "bytes",
						"label": "string",
						"numberOfBytes": "32"
					},
					"t_uint256": {
						"encoding": "inplace",
						"label": "uint256",
						"numberOfBytes": "32"
					}
				}
			},
			"userdoc": {
				"kind": "user",
				"methods": {},
				"version": 1
			}
		}
	}
}