{
	"contracts/DuperToken_flattened.sol": {
		"DuperToken": {
			"abi": [
				{
					"inputs": [
						{
							"internalType": "address",
							"name": "initialOwner",
							"type": "address"
						}
					],
					"stateMutability": "nonpayable",
					"type": "constructor"
				},
				{
					"inputs": [],
					"name": "ECDSAInvalidSignature",
					"type": "error"
				},
				{
					"inputs": [
						{
							"internalType": "uint256",
							"name": "length",
							"type": "uint256"
						}
					],
					"name": "ECDSAInvalidSignatureLength",
					"type": "error"
				},
				{
					"inputs": [
						{
							"internalType": "bytes32",
							"name": "s",
							"type": "bytes32"
						}
					],
					"name": "ECDSAInvalidSignatureS",
					"type": "error"
				},
				{
					"inputs": [
						{
							"internalType": "address",
							"name": "spender",
							"type": "address"
						},
						{
							"internalType": "uint256",
							"name": "allowance",
							"type": "uint256"
						},
						{
							"internalType": "uint256",
							"name": "needed",
							"type": "uint256"
						}
					],
					"name": "ERC20InsufficientAllowance",
					"type": "error"
				},
				{
					"inputs": [
						{
							"internalType": "address",
							"name": "sender",
							"type": "address"
						},
						{
							"internalType": "uint256",
							"name": "balance",
							"type": "uint256"
						},
						{
							"internalType": "uint256",
							"name": "needed",
							"type": "uint256"
						}
					],
					"name": "ERC20InsufficientBalance",
					"type": "error"
				},
				{
					"inputs": [
						{
							"internalType": "address",
							"name": "approver",
							"type": "address"
						}
					],
					"name": "ERC20InvalidApprover",
					"type": "error"
				},
				{
					"inputs": [
						{
							"internalType": "address",
							"name": "receiver",
							"type": "address"
						}
					],
					"name": "ERC20InvalidReceiver",
					"type": "error"
				},
				{
					"inputs": [
						{
							"internalType": "address",
							"name": "sender",
							"type": "address"
						}
					],
					"name": "ERC20InvalidSender",
					"type": "error"
				},
				{
					"inputs": [
						{
							"internalType": "address",
							"name": "spender",
							"type": "address"
						}
					],
					"name": "ERC20InvalidSpender",
					"type": "error"
				},
				{
					"inputs": [
						{
							"internalType": "uint256",
							"name": "deadline",
							"type": "uint256"
						}
					],
					"name": "ERC2612ExpiredSignature",
					"type": "error"
				},
				{
					"inputs": [
						{
							"internalType": "address",
							"name": "signer",
							"type": "address"
						},
						{
							"internalType": "address",
							"name": "owner",
							"type": "address"
						}
					],
					"name": "ERC2612InvalidSigner",
					"type": "error"
				},
				{
					"inputs": [
						{
							"internalType": "address",
							"name": "account",
							"type": "address"
						},
						{
							"internalType": "uint256",
							"name": "currentNonce",
							"type": "uint256"
						}
					],
					"name": "InvalidAccountNonce",
					"type": "error"
				},
				{
					"inputs": [],
					"name": "InvalidShortString",
					"type": "error"
				},
				{
					"inputs": [
						{
							"internalType": "address",
							"name": "owner",
							"type": "address"
						}
					],
					"name": "OwnableInvalidOwner",
					"type": "error"
				},
				{
					"inputs": [
						{
							"internalType": "address",
							"name": "account",
							"type": "address"
						}
					],
					"name": "OwnableUnauthorizedAccount",
					"type": "error"
				},
				{
					"inputs": [
						{
							"internalType": "string",
							"name": "str",
							"type": "string"
						}
					],
					"name": "StringTooLong",
					"type": "error"
				},
				{
					"anonymous": false,
					"inputs": [
						{
							"indexed": true,
							"internalType": "address",
							"name": "owner",
							"type": "address"
						},
						{
							"indexed": true,
							"internalType": "address",
							"name": "spender",
							"type": "address"
						},
						{
							"indexed": false,
							"internalType": "uint256",
							"name": "value",
							"type": "uint256"
						}
					],
					"name": "Approval",
					"type": "event"
				},
				{
					"anonymous": false,
					"inputs": [],
					"name": "EIP712DomainChanged",
					"type": "event"
				},
				{
					"anonymous": false,
					"inputs": [
						{
							"indexed": true,
							"internalType": "address",
							"name": "previousOwner",
							"type": "address"
						},
						{
							"indexed": true,
							"internalType": "address",
							"name": "newOwner",
							"type": "address"
						}
					],
					"name": "OwnershipTransferred",
					"type": "event"
				},
				{
					"anonymous": false,
					"inputs": [
						{
							"indexed": true,
							"internalType": "address",
							"name": "from",
							"type": "address"
						},
						{
							"indexed": true,
							"internalType": "address",
							"name": "to",
							"type": "address"
						},
						{
							"indexed": false,
							"internalType": "uint256",
							"name": "value",
							"type": "uint256"
						}
					],
					"name": "Transfer",
					"type": "event"
				},
				{
					"inputs": [],
					"name": "DOMAIN_SEPARATOR",
					"outputs": [
						{
							"internalType": "bytes32",
							"name": "",
							"type": "bytes32"
						}
					],
					"stateMutability": "view",
					"type": "function"
				},
				{
					"inputs": [
						{
							"internalType": "address",
							"name": "owner",
							"type": "address"
						},
						{
							"internalType": "address",
							"name": "spender",
							"type": "address"
						}
					],
					"name": "allowance",
					"outputs": [
						{
							"internalType": "uint256",
							"name": "",
							"type": "uint256"
						}
					],
					"stateMutability": "view",
					"type": "function"
				},
				{
					"inputs": [
						{
							"internalType": "address",
							"name": "spender",
							"type": "address"
						},
						{
							"internalType": "uint256",
							"name": "value",
							"type": "uint256"
						}
					],
					"name": "approve",
					"outputs": [
						{
							"internalType": "bool",
							"name": "",
							"type": "bool"
						}
					],
					"stateMutability": "nonpayable",
					"type": "function"
				},
				{
					"inputs": [
						{
							"internalType": "address",
							"name": "account",
							"type": "address"
						}
					],
					"name": "balanceOf",
					"outputs": [
						{
							"internalType": "uint256",
							"name": "",
							"type": "uint256"
						}
					],
					"stateMutability": "view",
					"type": "function"
				},
				{
					"inputs": [
						{
							"internalType": "uint256",
							"name": "value",
							"type": "uint256"
						}
					],
					"name": "burn",
					"outputs": [],
					"stateMutability": "nonpayable",
					"type": "function"
				},
				{
					"inputs": [
						{
							"internalType": "address",
							"name": "account",
							"type": "address"
						},
						{
							"internalType": "uint256",
							"name": "value",
							"type": "uint256"
						}
					],
					"name": "burnFrom",
					"outputs": [],
					"stateMutability": "nonpayable",
					"type": "function"
				},
				{
					"inputs": [],
					"name": "decimals",
					"outputs": [
						{
							"internalType": "uint8",
							"name": "",
							"type": "uint8"
						}
					],
					"stateMutability": "view",
					"type": "function"
				},
				{
					"inputs": [],
					"name": "eip712Domain",
					"outputs": [
						{
							"internalType": "bytes1",
							"name": "fields",
							"type": "bytes1"
						},
						{
							"internalType": "string",
							"name": "name",
							"type": "string"
						},
						{
							"internalType": "string",
							"name": "version",
							"type": "string"
						},
						{
							"internalType": "uint256",
							"name": "chainId",
							"type": "uint256"
						},
						{
							"internalType": "address",
							"name": "verifyingContract",
							"type": "address"
						},
						{
							"internalType": "bytes32",
							"name": "salt",
							"type": "bytes32"
						},
						{
							"internalType": "uint256[]",
							"name": "extensions",
							"type": "uint256[]"
						}
					],
					"stateMutability": "view",
					"type": "function"
				},
				{
					"inputs": [
						{
							"internalType": "address",
							"name": "to",
							"type": "address"
						},
						{
							"internalType": "uint256",
							"name": "amount",
							"type": "uint256"
						}
					],
					"name": "mint",
					"outputs": [],
					"stateMutability": "nonpayable",
					"type": "function"
				},
				{
					"inputs": [],
					"name": "name",
					"outputs": [
						{
							"internalType": "string",
							"name": "",
							"type": "string"
						}
					],
					"stateMutability": "view",
					"type": "function"
				},
				{
					"inputs": [
						{
							"internalType": "address",
							"name": "owner",
							"type": "address"
						}
					],
					"name": "nonces",
					"outputs": [
						{
							"internalType": "uint256",
							"name": "",
							"type": "uint256"
						}
					],
					"stateMutability": "view",
					"type": "function"
				},
				{
					"inputs": [],
					"name": "owner",
					"outputs": [
						{
							"internalType": "address",
							"name": "",
							"type": "address"
						}
					],
					"stateMutability": "view",
					"type": "function"
				},
				{
					"inputs": [
						{
							"internalType": "address",
							"name": "owner",
							"type": "address"
						},
						{
							"internalType": "address",
							"name": "spender",
							"type": "address"
						},
						{
							"internalType": "uint256",
							"name": "value",
							"type": "uint256"
						},
						{
							"internalType": "uint256",
							"name": "deadline",
							"type": "uint256"
						},
						{
							"internalType": "uint8",
							"name": "v",
							"type": "uint8"
						},
						{
							"internalType": "bytes32",
							"name": "r",
							"type": "bytes32"
						},
						{
							"internalType": "bytes32",
							"name": "s",
							"type": "bytes32"
						}
					],
					"name": "permit",
					"outputs": [],
					"stateMutability": "nonpayable",
					"type": "function"
				},
				{
					"inputs": [],
					"name": "renounceOwnership",
					"outputs": [],
					"stateMutability": "nonpayable",
					"type": "function"
				},
				{
					"inputs": [],
					"name": "symbol",
					"outputs": [
						{
							"internalType": "string",
							"name": "",
							"type": "string"
						}
					],
					"stateMutability": "view",
					"type": "function"
				},
				{
					"inputs": [],
					"name": "totalSupply",
					"outputs": [
						{
							"internalType": "uint256",
							"name": "",
							"type": "uint256"
						}
					],
					"stateMutability": "view",
					"type": "function"
				},
				{
					"inputs": [
						{
							"internalType": "address",
							"name": "to",
							"type": "address"
						},
						{
							"internalType": "uint256",
							"name": "value",
							"type": "uint256"
						}
					],
					"name": "transfer",
					"outputs": [
						{
							"internalType": "bool",
							"name": "",
							"type": "bool"
						}
					],
					"stateMutability": "nonpayable",
					"type": "function"
				},
				{
					"inputs": [
						{
							"internalType": "address",
							"name": "from",
							"type": "address"
						},
						{
							"internalType": "address",
							"name": "to",
							"type": "address"
						},
						{
							"internalType": "uint256",
							"name": "value",
							"type": "uint256"
						}
					],
					"name": "transferFrom",
					"outputs": [
						{
							"internalType": "bool",
							"name": "",
							"type": "bool"
						}
					],
					"stateMutability": "nonpayable",
					"type": "function"
				},
				{
					"inputs": [
						{
							"internalType": "address",
							"name": "newOwner",
							"type": "address"
						}
					],
					"name": "transferOwnership",
					"outputs": [],
					"stateMutability": "nonpayable",
					"type": "function"
				}
			],
			"devdoc": {
				"custom:security-contact": "ummanmemmedov2005@gmail.com",
				"errors": {
					"ECDSAInvalidSignature()": [
						{
							"details": "The signature derives the `address(0)`."
						}
					],
					"ECDSAInvalidSignatureLength(uint256)": [
						{
							"details": "The signature has an invalid length."
						}
					],
					"ECDSAInvalidSignatureS(bytes32)": [
						{
							"details": "The signature has an S value that is in the upper half order."
						}
					],
					"ERC20InsufficientAllowance(address,uint256,uint256)": [
						{
							"details": "Indicates a failure with the `spender`’s `allowance`. Used in transfers.",
							"params": {
								"allowance": "Amount of tokens a `spender` is allowed to operate with.",
								"needed": "Minimum amount required to perform a transfer.",
								"spender": "Address that may be allowed to operate on tokens without being their owner."
							}
						}
					],
					"ERC20InsufficientBalance(address,uint256,uint256)": [
						{
							"details": "Indicates an error related to the current `balance` of a `sender`. Used in transfers.",
							"params": {
								"balance": "Current balance for the interacting account.",
								"needed": "Minimum amount required to perform a transfer.",
								"sender": "Address whose tokens are being transferred."
							}
						}
					],
					"ERC20InvalidApprover(address)": [
						{
							"details": "Indicates a failure with the `approver` of a token to be approved. Used in approvals.",
							"params": {
								"approver": "Address initiating an approval operation."
							}
						}
					],
					"ERC20InvalidReceiver(address)": [
						{
							"details": "Indicates a failure with the token `receiver`. Used in transfers.",
							"params": {
								"receiver": "Address to which tokens are being transferred."
							}
						}
					],
					"ERC20InvalidSender(address)": [
						{
							"details": "Indicates a failure with the token `sender`. Used in transfers.",
							"params": {
								"sender": "Address whose tokens are being transferred."
							}
						}
					],
					"ERC20InvalidSpender(address)": [
						{
							"details": "Indicates a failure with the `spender` to be approved. Used in approvals.",
							"params": {
								"spender": "Address that may be allowed to operate on tokens without being their owner."
							}
						}
					],
					"ERC2612ExpiredSignature(uint256)": [
						{
							"details": "Permit deadline has expired."
						}
					],
					"ERC2612InvalidSigner(address,address)": [
						{
							"details": "Mismatched signature."
						}
					],
					"InvalidAccountNonce(address,uint256)": [
						{
							"details": "The nonce used for an `account` is not the expected current nonce."
						}
					],
					"OwnableInvalidOwner(address)": [
						{
							"details": "The owner is not a valid owner account. (eg. `address(0)`)"
						}
					],
					"OwnableUnauthorizedAccount(address)": [
						{
							"details": "The caller account is not authorized to perform an operation."
						}
					]
				},
				"events": {
					"Approval(address,address,uint256)": {
						"details": "Emitted when the allowance of a `spender` for an `owner` is set by a call to {approve}. `value` is the new allowance."
					},
					"EIP712DomainChanged()": {
						"details": "MAY be emitted to signal that the domain could have changed."
					},
					"Transfer(address,address,uint256)": {
						"details": "Emitted when `value` tokens are moved from one account (`from`) to another (`to`). Note that `value` may be zero."
					}
				},
				"kind": "dev",
				"methods": {
					"DOMAIN_SEPARATOR()": {
						"details": "Returns the domain separator used in the encoding of the signature for {permit}, as defined by {EIP712}."
					},
					"allowance(address,address)": {
						"details": "See {IERC20-allowance}."
					},
					"approve(address,uint256)": {
						"details": "See {IERC20-approve}. NOTE: If `value` is the maximum `uint256`, the allowance is not updated on `transferFrom`. This is semantically equivalent to an infinite approval. Requirements: - `spender` cannot be the zero address."
					},
					"balanceOf(address)": {
						"details": "See {IERC20-balanceOf}."
					},
					"burn(uint256)": {
						"details": "Destroys a `value` amount of tokens from the caller. See {ERC20-_burn}."
					},
					"burnFrom(address,uint256)": {
						"details": "Destroys a `value` amount of tokens from `account`, deducting from the caller's allowance. See {ERC20-_burn} and {ERC20-allowance}. Requirements: - the caller must have allowance for ``accounts``'s tokens of at least `value`."
					},
					"decimals()": {
						"details": "Returns the number of decimals used to get its user representation. For example, if `decimals` equals `2`, a balance of `505` tokens should be displayed to a user as `5.05` (`505 / 10 ** 2`). Tokens usually opt for a value of 18, imitating the relationship between Ether and Wei. This is the default value returned by this function, unless it's overridden. NOTE: This information is only used for _display_ purposes: it in no way affects any of the arithmetic of the contract, including {IERC20-balanceOf} and {IERC20-transfer}."
					},
					"eip712Domain()": {
						"details": "See {IERC-5267}."
					},
					"name()": {
						"details": "Returns the name of the token."
					},
					"nonces(address)": {
						"details": "Returns the current nonce for `owner`. This value must be included whenever a signature is generated for {permit}. Every successful call to {permit} increases ``owner``'s nonce by one. This prevents a signature from being used multiple times."
					},
					"owner()": {
						"details": "Returns the address of the current owner."
					},
					"permit(address,address,uint256,uint256,uint8,bytes32,bytes32)": {
						"details": "Sets `value` as the allowance of `spender` over ``owner``'s tokens, given ``owner``'s signed approval. IMPORTANT: The same issues {IERC20-approve} has related to transaction ordering also apply here. Emits an {Approval} event. Requirements: - `spender` cannot be the zero address. - `deadline` must be a timestamp in the future. - `v`, `r` and `s` must be a valid `secp256k1` signature from `owner` over the EIP712-formatted function arguments. - the signature must use ``owner``'s current nonce (see {nonces}). For more information on the signature format, see the https://eips.ethereum.org/EIPS/eip-2612#specification[relevant EIP section]. CAUTION: See Security Considerations above."
					},
					"renounceOwnership()": {
						"details": "Leaves the contract without owner. It will not be possible to call `onlyOwner` functions. Can only be called by the current owner. NOTE: Renouncing ownership will leave the contract without an owner, thereby disabling any functionality that is only available to the owner."
					},
					"symbol()": {
						"details": "Returns the symbol of the token, usually a shorter version of the name."
					},
					"totalSupply()": {
						"details": "See {IERC20-totalSupply}."
					},
					"transfer(address,uint256)": {
						"details": "See {IERC20-transfer}. Requirements: - `to` cannot be the zero address. - the caller must have a balance of at least `value`."
					},
					"transferFrom(address,address,uint256)": {
						"details": "See {IERC20-transferFrom}. Emits an {Approval} event indicating the updated allowance. This is not required by the EIP. See the note at the beginning of {ERC20}. NOTE: Does not update the allowance if the current allowance is the maximum `uint256`. Requirements: - `from` and `to` cannot be the zero address. - `from` must have a balance of at least `value`. - the caller must have allowance for ``from``'s tokens of at least `value`."
					},
					"transferOwnership(address)": {
						"details": "Transfers ownership of the contract to a new account (`newOwner`). Can only be called by the current owner."
					}
				},
				"version": 1
			},
			"evm": {
				"assembly": "    /* \"contracts/DuperToken_flattened.sol\":80640:81011  contract DuperToken is ERC20, ERC20Burnable, Ownable, ERC20Permit {... */\n  mstore(0x40, 0x0160)\n    /* \"contracts/DuperToken_flattened.sol\":80712:80910  constructor(address initialOwner)... */\n  callvalue\n  dup1\n  iszero\n  tag_1\n  jumpi\n  0x00\n  dup1\n  revert\ntag_1:\n  pop\n  mload(0x40)\n  sub(codesize, bytecodeSize)\n  dup1\n  bytecodeSize\n  dup4\n  codecopy\n  dup2\n  add\n  0x40\n  dup2\n  swap1\n  mstore\n  tag_2\n  swap2\n  tag_3\n  jump\t// in\ntag_2:\n    /* \"contracts/DuperToken_flattened.sol\":78179:78231  constructor(string memory name) EIP712(name, \"1\") {} */\n  mload(0x40)\n  dup1\n  0x40\n  add\n  0x40\n  mstore\n  dup1\n  0x0b\n  dup2\n  mstore\n  0x20\n  add\n  shl(0xa9, 0x223ab832b9102a37b5b2b7)\n  dup2\n  mstore\n  pop\n    /* \"contracts/DuperToken_flattened.sol\":78218:78222  name */\n  dup1\n    /* \"contracts/DuperToken_flattened.sol\":36943:37374  constructor(string memory name, string memory version) {... */\n  mload(0x40)\n  dup1\n  0x40\n  add\n  0x40\n  mstore\n  dup1\n  0x01\n  dup2\n  mstore\n  0x20\n  add\n  shl(0xf8, 0x31)\n  dup2\n  mstore\n  pop\n    /* \"contracts/DuperToken_flattened.sol\":80798:80810  initialOwner */\n  dup4\n    /* \"contracts/DuperToken_flattened.sol\":67570:67683  constructor(string memory name_, string memory symbol_) {... */\n  mload(0x40)\n  dup1\n  0x40\n  add\n  0x40\n  mstore\n  dup1\n  0x0b\n  dup2\n  mstore\n  0x20\n  add\n  shl(0xa9, 0x223ab832b9102a37b5b2b7)\n  dup2\n  mstore\n  pop\n  mload(0x40)\n  dup1\n  0x40\n  add\n  0x40\n  mstore\n  dup1\n  0x03\n  dup2\n  mstore\n  0x20\n  add\n  shl(0xe8, 0x44544b)\n  dup2\n  mstore\n  pop\n    /* \"contracts/DuperToken_flattened.sol\":67644:67649  name_ */\n  dup2\n    /* \"contracts/DuperToken_flattened.sol\":67636:67641  _name */\n  0x03\n    /* \"contracts/DuperToken_flattened.sol\":67636:67649  _name = name_ */\n  swap1\n  dup2\n  tag_10\n  swap2\n  swap1\n  tag_11\n  jump\t// in\ntag_10:\n  pop\n    /* \"contracts/DuperToken_flattened.sol\":67659:67666  _symbol */\n  0x04\n    /* \"contracts/DuperToken_flattened.sol\":67659:67676  _symbol = symbol_ */\n  tag_12\n    /* \"contracts/DuperToken_flattened.sol\":67669:67676  symbol_ */\n  dup3\n    /* \"contracts/DuperToken_flattened.sol\":67659:67666  _symbol */\n  dup3\n    /* \"contracts/DuperToken_flattened.sol\":67659:67676  _symbol = symbol_ */\n  tag_11\n  jump\t// in\ntag_12:\n  pop\n  pop\n  pop\n  sub(shl(0xa0, 0x01), 0x01)\n    /* \"contracts/DuperToken_flattened.sol\":60535:60561  initialOwner == address(0) */\n  dup2\n  and\n    /* \"contracts/DuperToken_flattened.sol\":60531:60626  if (initialOwner == address(0)) {... */\n  tag_14\n  jumpi\n    /* \"contracts/DuperToken_flattened.sol\":60584:60615  OwnableInvalidOwner(address(0)) */\n  mload(0x40)\n  shl(0xe0, 0x1e4fbdf7)\n  dup2\n  mstore\n    /* \"contracts/DuperToken_flattened.sol\":60612:60613  0 */\n  0x00\n    /* \"contracts/DuperToken_flattened.sol\":60584:60615  OwnableInvalidOwner(address(0)) */\n  0x04\n  dup3\n  add\n    /* \"#utility.yul\":3176:3227   */\n  mstore\n    /* \"#utility.yul\":3149:3167   */\n  0x24\n  add\n    /* \"contracts/DuperToken_flattened.sol\":60584:60615  OwnableInvalidOwner(address(0)) */\ntag_15:\n  mload(0x40)\n  dup1\n  swap2\n  sub\n  swap1\n  revert\n    /* \"contracts/DuperToken_flattened.sol\":60531:60626  if (initialOwner == address(0)) {... */\ntag_14:\n    /* \"contracts/DuperToken_flattened.sol\":60635:60667  _transferOwnership(initialOwner) */\n  tag_17\n    /* \"contracts/DuperToken_flattened.sol\":60654:60666  initialOwner */\n  dup2\n    /* \"contracts/DuperToken_flattened.sol\":60635:60653  _transferOwnership */\n  tag_18\n    /* \"contracts/DuperToken_flattened.sol\":60635:60667  _transferOwnership(initialOwner) */\n  jump\t// in\ntag_17:\n  pop\n    /* \"contracts/DuperToken_flattened.sol\":37016:37061  name.toShortStringWithFallback(_nameFallback) */\n  tag_20\n    /* \"contracts/DuperToken_flattened.sol\":37016:37020  name */\n  dup3\n    /* \"contracts/DuperToken_flattened.sol\":37047:37060  _nameFallback */\n  0x06\n    /* \"contracts/DuperToken_flattened.sol\":37016:37046  name.toShortStringWithFallback */\n  tag_21\n    /* \"contracts/DuperToken_flattened.sol\":37016:37061  name.toShortStringWithFallback(_nameFallback) */\n  jump\t// in\ntag_20:\n    /* \"contracts/DuperToken_flattened.sol\":37008:37061  _name = name.toShortStringWithFallback(_nameFallback) */\n  0x0120\n  mstore\n    /* \"contracts/DuperToken_flattened.sol\":37082:37133  version.toShortStringWithFallback(_versionFallback) */\n  tag_22\n    /* \"contracts/DuperToken_flattened.sol\":37082:37089  version */\n  dup2\n    /* \"contracts/DuperToken_flattened.sol\":37116:37132  _versionFallback */\n  0x07\n    /* \"contracts/DuperToken_flattened.sol\":37082:37115  version.toShortStringWithFallback */\n  tag_21\n    /* \"contracts/DuperToken_flattened.sol\":37082:37133  version.toShortStringWithFallback(_versionFallback) */\n  jump\t// in\ntag_22:\n    /* \"contracts/DuperToken_flattened.sol\":37071:37133  _version = version.toShortStringWithFallback(_versionFallback) */\n  0x0140\n  mstore\n    /* \"contracts/DuperToken_flattened.sol\":37157:37179  keccak256(bytes(name)) */\n  dup2\n  mload\n  0x20\n  dup1\n  dup5\n  add\n  swap2\n  swap1\n  swap2\n  keccak256\n    /* \"contracts/DuperToken_flattened.sol\":37143:37179  _hashedName = keccak256(bytes(name)) */\n  0xe0\n  mstore\n    /* \"contracts/DuperToken_flattened.sol\":37206:37231  keccak256(bytes(version)) */\n  dup2\n  mload\n  swap1\n  dup3\n  add\n  keccak256\n    /* \"contracts/DuperToken_flattened.sol\":37189:37231  _hashedVersion = keccak256(bytes(version)) */\n  0x0100\n  mstore\n    /* \"contracts/DuperToken_flattened.sol\":37259:37272  block.chainid */\n  chainid\n    /* \"contracts/DuperToken_flattened.sol\":37242:37272  _cachedChainId = block.chainid */\n  0xa0\n  mstore\n    /* \"contracts/DuperToken_flattened.sol\":37307:37330  _buildDomainSeparator() */\n  tag_23\n    /* \"contracts/DuperToken_flattened.sol\":37841:37852  _hashedName */\n  mload(0xe0)\n    /* \"contracts/DuperToken_flattened.sol\":37854:37868  _hashedVersion */\n  mload(0x0100)\n    /* \"contracts/DuperToken_flattened.sol\":37819:37899  abi.encode(TYPE_HASH, _hashedName, _hashedVersion, block.chainid, address(this)) */\n  0x40\n  dup1\n  mload\n    /* \"contracts/DuperToken_flattened.sol\":35694:35789  keccak256(\"EIP712Domain(string name,string version,uint256 chainId,address verifyingContract)\") */\n  0x8b73c3c69bb8fe3d512ecc4cf759cc79239f7b179b0ffacaa9a75d522b39400f\n    /* \"contracts/DuperToken_flattened.sol\":37819:37899  abi.encode(TYPE_HASH, _hashedName, _hashedVersion, block.chainid, address(this)) */\n  0x20\n  dup3\n  add\n    /* \"#utility.yul\":5185:5210   */\n  mstore\n    /* \"#utility.yul\":5226:5244   */\n  swap1\n  dup2\n  add\n    /* \"#utility.yul\":5219:5253   */\n  swap3\n  swap1\n  swap3\n  mstore\n    /* \"#utility.yul\":5269:5287   */\n  0x60\n  dup3\n  add\n    /* \"#utility.yul\":5262:5296   */\n  mstore\n    /* \"contracts/DuperToken_flattened.sol\":37870:37883  block.chainid */\n  chainid\n    /* \"#utility.yul\":5312:5330   */\n  0x80\n  dup3\n  add\n    /* \"#utility.yul\":5305:5339   */\n  mstore\n    /* \"contracts/DuperToken_flattened.sol\":37893:37897  this */\n  address\n    /* \"#utility.yul\":5355:5374   */\n  0xa0\n  dup3\n  add\n    /* \"#utility.yul\":5348:5409   */\n  mstore\n    /* \"contracts/DuperToken_flattened.sol\":37783:37790  bytes32 */\n  0x00\n  swap1\n    /* \"#utility.yul\":5157:5176   */\n  0xc0\n  add\n    /* \"contracts/DuperToken_flattened.sol\":37819:37899  abi.encode(TYPE_HASH, _hashedName, _hashedVersion, block.chainid, address(this)) */\n  mload(0x40)\n  0x20\n  dup2\n  dup4\n  sub\n  sub\n  dup2\n  mstore\n  swap1\n  0x40\n  mstore\n    /* \"contracts/DuperToken_flattened.sol\":37809:37900  keccak256(abi.encode(TYPE_HASH, _hashedName, _hashedVersion, block.chainid, address(this))) */\n  dup1\n  mload\n  swap1\n  0x20\n  add\n  keccak256\n    /* \"contracts/DuperToken_flattened.sol\":37802:37900  return keccak256(abi.encode(TYPE_HASH, _hashedName, _hashedVersion, block.chainid, address(this))) */\n  swap1\n  pop\n    /* \"contracts/DuperToken_flattened.sol\":37728:37907  function _buildDomainSeparator() private view returns (bytes32) {... */\n  swap1\n  jump\n    /* \"contracts/DuperToken_flattened.sol\":37307:37330  _buildDomainSeparator() */\ntag_23:\n    /* \"contracts/DuperToken_flattened.sol\":37282:37330  _cachedDomainSeparator = _buildDomainSeparator() */\n  0x80\n  mstore\n  pop\n  pop\n    /* \"contracts/DuperToken_flattened.sol\":37362:37366  this */\n  address\n    /* \"contracts/DuperToken_flattened.sol\":37340:37367  _cachedThis = address(this) */\n  0xc0\n  mstore\n  pop\n    /* \"contracts/DuperToken_flattened.sol\":80861:80903  _mint(msg.sender, 1000 * 10 ** decimals()) */\n  tag_27\n    /* \"contracts/DuperToken_flattened.sol\":80867:80877  msg.sender */\n  caller\n    /* \"contracts/DuperToken_flattened.sol\":80886:80902  10 ** decimals() */\n  tag_30\n    /* \"contracts/DuperToken_flattened.sol\":68749:68751  18 */\n  0x12\n    /* \"contracts/DuperToken_flattened.sol\":80886:80888  10 */\n  0x0a\n    /* \"contracts/DuperToken_flattened.sol\":80886:80902  10 ** decimals() */\n  tag_31\n  jump\t// in\ntag_30:\n    /* \"contracts/DuperToken_flattened.sol\":80879:80902  1000 * 10 ** decimals() */\n  tag_32\n  swap1\n    /* \"contracts/DuperToken_flattened.sol\":80879:80883  1000 */\n  0x03e8\n    /* \"contracts/DuperToken_flattened.sol\":80879:80902  1000 * 10 ** decimals() */\n  tag_33\n  jump\t// in\ntag_32:\n    /* \"contracts/DuperToken_flattened.sol\":80861:80866  _mint */\n  tag_34\n    /* \"contracts/DuperToken_flattened.sol\":80861:80903  _mint(msg.sender, 1000 * 10 ** decimals()) */\n  jump\t// in\ntag_27:\n    /* \"contracts/DuperToken_flattened.sol\":80712:80910  constructor(address initialOwner)... */\n  pop\n    /* \"contracts/DuperToken_flattened.sol\":80640:81011  contract DuperToken is ERC20, ERC20Burnable, Ownable, ERC20Permit {... */\n  jump(tag_81)\n    /* \"contracts/DuperToken_flattened.sol\":62174:62361  function _transferOwnership(address newOwner) internal virtual {... */\ntag_18:\n    /* \"contracts/DuperToken_flattened.sol\":62266:62272  _owner */\n  0x05\n  dup1\n  sload\n  sub(shl(0xa0, 0x01), 0x01)\n    /* \"contracts/DuperToken_flattened.sol\":62282:62299  _owner = newOwner */\n  dup4\n  dup2\n  and\n  not(sub(shl(0xa0, 0x01), 0x01))\n  dup4\n  and\n  dup2\n  or\n  swap1\n  swap4\n  sstore\n    /* \"contracts/DuperToken_flattened.sol\":62314:62354  OwnershipTransferred(oldOwner, newOwner) */\n  mload(0x40)\n    /* \"contracts/DuperToken_flattened.sol\":62266:62272  _owner */\n  swap2\n  and\n  swap2\n    /* \"contracts/DuperToken_flattened.sol\":62282:62299  _owner = newOwner */\n  swap1\n    /* \"contracts/DuperToken_flattened.sol\":62266:62272  _owner */\n  dup3\n  swap1\n    /* \"contracts/DuperToken_flattened.sol\":62314:62354  OwnershipTransferred(oldOwner, newOwner) */\n  0x8be0079c531659141344cd1fd0a4f28419497f9722a3daafe3b4186f6b6457e0\n  swap1\n    /* \"contracts/DuperToken_flattened.sol\":62247:62263  address oldOwner */\n  0x00\n  swap1\n    /* \"contracts/DuperToken_flattened.sol\":62314:62354  OwnershipTransferred(oldOwner, newOwner) */\n  log3\n    /* \"contracts/DuperToken_flattened.sol\":62237:62361  {... */\n  pop\n    /* \"contracts/DuperToken_flattened.sol\":62174:62361  function _transferOwnership(address newOwner) internal virtual {... */\n  pop\n  jump\t// out\n    /* \"contracts/DuperToken_flattened.sol\":9129:9469  function toShortStringWithFallback(string memory value, string storage store) internal returns (ShortString) {... */\ntag_21:\n    /* \"contracts/DuperToken_flattened.sol\":9225:9236  ShortString */\n  0x00\n    /* \"contracts/DuperToken_flattened.sol\":9274:9276  32 */\n  0x20\n    /* \"contracts/DuperToken_flattened.sol\":9258:9263  value */\n  dup4\n    /* \"contracts/DuperToken_flattened.sol\":9252:9271  bytes(value).length */\n  mload\n    /* \"contracts/DuperToken_flattened.sol\":9252:9276  bytes(value).length < 32 */\n  lt\n    /* \"contracts/DuperToken_flattened.sol\":9248:9463  if (bytes(value).length < 32) {... */\n  iszero\n  tag_38\n  jumpi\n    /* \"contracts/DuperToken_flattened.sol\":9299:9319  toShortString(value) */\n  tag_39\n    /* \"contracts/DuperToken_flattened.sol\":9313:9318  value */\n  dup4\n    /* \"contracts/DuperToken_flattened.sol\":9299:9312  toShortString */\n  tag_40\n    /* \"contracts/DuperToken_flattened.sol\":9299:9319  toShortString(value) */\n  jump\t// in\ntag_39:\n    /* \"contracts/DuperToken_flattened.sol\":9292:9319  return toShortString(value) */\n  swap1\n  pop\n  jump(tag_41)\n    /* \"contracts/DuperToken_flattened.sol\":9248:9463  if (bytes(value).length < 32) {... */\ntag_38:\n    /* \"contracts/DuperToken_flattened.sol\":9376:9381  store */\n  dup2\n    /* \"contracts/DuperToken_flattened.sol\":9350:9396  StorageSlot.getStringSlot(store).value = value */\n  tag_44\n    /* \"contracts/DuperToken_flattened.sol\":9391:9396  value */\n  dup5\n    /* \"contracts/DuperToken_flattened.sol\":9376:9381  store */\n  dup3\n    /* \"contracts/DuperToken_flattened.sol\":9350:9396  StorageSlot.getStringSlot(store).value = value */\n  tag_11\n  jump\t// in\ntag_44:\n  pop\n    /* \"contracts/DuperToken_flattened.sol\":7605:7671  0x00000000000000000000000000000000000000000000000000000000000000FF */\n  0xff\n  swap1\n  pop\n    /* \"contracts/DuperToken_flattened.sol\":9248:9463  if (bytes(value).length < 32) {... */\ntag_41:\n    /* \"contracts/DuperToken_flattened.sol\":9129:9469  function toShortStringWithFallback(string memory value, string storage store) internal returns (ShortString) {... */\n  swap3\n  swap2\n  pop\n  pop\n  jump\t// out\n    /* \"contracts/DuperToken_flattened.sol\":73395:73603  function _mint(address account, uint256 value) internal {... */\ntag_34:\n  sub(shl(0xa0, 0x01), 0x01)\n    /* \"contracts/DuperToken_flattened.sol\":73465:73486  account == address(0) */\n  dup3\n  and\n    /* \"contracts/DuperToken_flattened.sol\":73461:73552  if (account == address(0)) {... */\n  tag_50\n  jumpi\n    /* \"contracts/DuperToken_flattened.sol\":73509:73541  ERC20InvalidReceiver(address(0)) */\n  mload(0x40)\n  shl(0xe0, 0xec442f05)\n  dup2\n  mstore\n    /* \"contracts/DuperToken_flattened.sol\":73538:73539  0 */\n  0x00\n    /* \"contracts/DuperToken_flattened.sol\":73509:73541  ERC20InvalidReceiver(address(0)) */\n  0x04\n  dup3\n  add\n    /* \"#utility.yul\":3176:3227   */\n  mstore\n    /* \"#utility.yul\":3149:3167   */\n  0x24\n  add\n    /* \"contracts/DuperToken_flattened.sol\":73509:73541  ERC20InvalidReceiver(address(0)) */\n  tag_15\n    /* \"#utility.yul\":3030:3233   */\n  jump\n    /* \"contracts/DuperToken_flattened.sol\":73461:73552  if (account == address(0)) {... */\ntag_50:\n    /* \"contracts/DuperToken_flattened.sol\":73561:73596  _update(address(0), account, value) */\n  tag_52\n    /* \"contracts/DuperToken_flattened.sol\":73577:73578  0 */\n  0x00\n    /* \"contracts/DuperToken_flattened.sol\":73581:73588  account */\n  dup4\n    /* \"contracts/DuperToken_flattened.sol\":73590:73595  value */\n  dup4\n    /* \"contracts/DuperToken_flattened.sol\":73561:73568  _update */\n  tag_53\n    /* \"contracts/DuperToken_flattened.sol\":73561:73596  _update(address(0), account, value) */\n  jump\t// in\ntag_52:\n    /* \"contracts/DuperToken_flattened.sol\":73395:73603  function _mint(address account, uint256 value) internal {... */\n  pop\n  pop\n  jump\t// out\n    /* \"contracts/DuperToken_flattened.sol\":7923:8209  function toShortString(string memory str) internal pure returns (ShortString) {... */\ntag_40:\n    /* \"contracts/DuperToken_flattened.sol\":7988:7999  ShortString */\n  0x00\n    /* \"contracts/DuperToken_flattened.sol\":8011:8028  bytes memory bstr */\n  dup1\n    /* \"contracts/DuperToken_flattened.sol\":8037:8040  str */\n  dup3\n    /* \"contracts/DuperToken_flattened.sol\":8011:8041  bytes memory bstr = bytes(str) */\n  swap1\n  pop\n    /* \"contracts/DuperToken_flattened.sol\":8069:8071  31 */\n  0x1f\n    /* \"contracts/DuperToken_flattened.sol\":8055:8059  bstr */\n  dup2\n    /* \"contracts/DuperToken_flattened.sol\":8055:8066  bstr.length */\n  mload\n    /* \"contracts/DuperToken_flattened.sol\":8055:8071  bstr.length > 31 */\n  gt\n    /* \"contracts/DuperToken_flattened.sol\":8051:8123  if (bstr.length > 31) {... */\n  iszero\n  tag_55\n  jumpi\n    /* \"contracts/DuperToken_flattened.sol\":8108:8111  str */\n  dup3\n    /* \"contracts/DuperToken_flattened.sol\":8094:8112  StringTooLong(str) */\n  mload(0x40)\n  shl(0xe0, 0x305a27a9)\n  dup2\n  mstore\n  0x04\n  add\n  tag_15\n  swap2\n  swap1\n  tag_57\n  jump\t// in\n    /* \"contracts/DuperToken_flattened.sol\":8051:8123  if (bstr.length > 31) {... */\ntag_55:\n    /* \"contracts/DuperToken_flattened.sol\":8189:8200  bstr.length */\n  dup1\n  mload\n    /* \"contracts/DuperToken_flattened.sol\":8172:8185  bytes32(bstr) */\n  tag_58\n    /* \"contracts/DuperToken_flattened.sol\":8189:8193  bstr */\n  dup3\n    /* \"contracts/DuperToken_flattened.sol\":8172:8185  bytes32(bstr) */\n  tag_59\n  jump\t// in\ntag_58:\n    /* \"contracts/DuperToken_flattened.sol\":8164:8200  uint256(bytes32(bstr)) | bstr.length */\n  or\n  swap4\n    /* \"contracts/DuperToken_flattened.sol\":7923:8209  function toShortString(string memory str) internal pure returns (ShortString) {... */\n  swap3\n  pop\n  pop\n  pop\n  jump\t// out\n    /* \"contracts/DuperToken_flattened.sol\":71945:73052  function _update(address from, address to, uint256 value) internal virtual {... */\ntag_53:\n  sub(shl(0xa0, 0x01), 0x01)\n    /* \"contracts/DuperToken_flattened.sol\":72034:72052  from == address(0) */\n  dup4\n  and\n    /* \"contracts/DuperToken_flattened.sol\":72030:72570  if (from == address(0)) {... */\n  tag_62\n  jumpi\n    /* \"contracts/DuperToken_flattened.sol\":72186:72191  value */\n  dup1\n    /* \"contracts/DuperToken_flattened.sol\":72170:72182  _totalSupply */\n  0x02\n  0x00\n    /* \"contracts/DuperToken_flattened.sol\":72170:72191  _totalSupply += value */\n  dup3\n  dup3\n  sload\n  tag_63\n  swap2\n  swap1\n  tag_64\n  jump\t// in\ntag_63:\n  swap1\n  swap2\n  sstore\n  pop\n    /* \"contracts/DuperToken_flattened.sol\":72030:72570  if (from == address(0)) {... */\n  tag_65\n  swap1\n  pop\n  jump\ntag_62:\n  sub(shl(0xa0, 0x01), 0x01)\n    /* \"contracts/DuperToken_flattened.sol\":72244:72259  _balances[from] */\n  dup4\n  and\n    /* \"contracts/DuperToken_flattened.sol\":72222:72241  uint256 fromBalance */\n  0x00\n    /* \"contracts/DuperToken_flattened.sol\":72244:72259  _balances[from] */\n  swap1\n  dup2\n  mstore\n  0x20\n  dup2\n  swap1\n  mstore\n  0x40\n  swap1\n  keccak256\n  sload\n    /* \"contracts/DuperToken_flattened.sol\":72277:72296  fromBalance < value */\n  dup2\n  dup2\n  lt\n    /* \"contracts/DuperToken_flattened.sol\":72273:72388  if (fromBalance < value) {... */\n  iszero\n  tag_66\n  jumpi\n    /* \"contracts/DuperToken_flattened.sol\":72323:72373  ERC20InsufficientBalance(from, fromBalance, value) */\n  mload(0x40)\n  shl(0xe2, 0x391434e3)\n  dup2\n  mstore\n  sub(shl(0xa0, 0x01), 0x01)\n    /* \"#utility.yul\":6625:6657   */\n  dup6\n  and\n    /* \"contracts/DuperToken_flattened.sol\":72323:72373  ERC20InsufficientBalance(from, fromBalance, value) */\n  0x04\n  dup3\n  add\n    /* \"#utility.yul\":6607:6658   */\n  mstore\n    /* \"#utility.yul\":6674:6692   */\n  0x24\n  dup2\n  add\n    /* \"#utility.yul\":6667:6701   */\n  dup3\n  swap1\n  mstore\n    /* \"#utility.yul\":6717:6735   */\n  0x44\n  dup2\n  add\n    /* \"#utility.yul\":6710:6744   */\n  dup4\n  swap1\n  mstore\n    /* \"#utility.yul\":6580:6598   */\n  0x64\n  add\n    /* \"contracts/DuperToken_flattened.sol\":72323:72373  ERC20InsufficientBalance(from, fromBalance, value) */\n  tag_15\n    /* \"#utility.yul\":6405:6750   */\n  jump\n    /* \"contracts/DuperToken_flattened.sol\":72273:72388  if (fromBalance < value) {... */\ntag_66:\n  sub(shl(0xa0, 0x01), 0x01)\n    /* \"contracts/DuperToken_flattened.sol\":72508:72523  _balances[from] */\n  dup5\n  and\n    /* \"contracts/DuperToken_flattened.sol\":72508:72517  _balances */\n  0x00\n    /* \"contracts/DuperToken_flattened.sol\":72508:72523  _balances[from] */\n  swap1\n  dup2\n  mstore\n  0x20\n  dup2\n  swap1\n  mstore\n  0x40\n  swap1\n  keccak256\n    /* \"contracts/DuperToken_flattened.sol\":72526:72545  fromBalance - value */\n  swap1\n  dup3\n  swap1\n  sub\n    /* \"contracts/DuperToken_flattened.sol\":72508:72545  _balances[from] = fromBalance - value */\n  swap1\n  sstore\n    /* \"contracts/DuperToken_flattened.sol\":72030:72570  if (from == address(0)) {... */\ntag_65:\n  sub(shl(0xa0, 0x01), 0x01)\n    /* \"contracts/DuperToken_flattened.sol\":72584:72600  to == address(0) */\n  dup3\n  and\n    /* \"contracts/DuperToken_flattened.sol\":72580:73005  if (to == address(0)) {... */\n  tag_69\n  jumpi\n    /* \"contracts/DuperToken_flattened.sol\":72747:72759  _totalSupply */\n  0x02\n    /* \"contracts/DuperToken_flattened.sol\":72747:72768  _totalSupply -= value */\n  dup1\n  sload\n  dup3\n  swap1\n  sub\n  swap1\n  sstore\n    /* \"contracts/DuperToken_flattened.sol\":72580:73005  if (to == address(0)) {... */\n  jump(tag_70)\ntag_69:\n  sub(shl(0xa0, 0x01), 0x01)\n    /* \"contracts/DuperToken_flattened.sol\":72958:72971  _balances[to] */\n  dup3\n  and\n    /* \"contracts/DuperToken_flattened.sol\":72958:72967  _balances */\n  0x00\n    /* \"contracts/DuperToken_flattened.sol\":72958:72971  _balances[to] */\n  swap1\n  dup2\n  mstore\n  0x20\n  dup2\n  swap1\n  mstore\n  0x40\n  swap1\n  keccak256\n    /* \"contracts/DuperToken_flattened.sol\":72958:72980  _balances[to] += value */\n  dup1\n  sload\n  dup3\n  add\n  swap1\n  sstore\n    /* \"contracts/DuperToken_flattened.sol\":72580:73005  if (to == address(0)) {... */\ntag_70:\n    /* \"contracts/DuperToken_flattened.sol\":73035:73037  to */\n  dup2\n  sub(shl(0xa0, 0x01), 0x01)\n    /* \"contracts/DuperToken_flattened.sol\":73020:73045  Transfer(from, to, value) */\n  and\n    /* \"contracts/DuperToken_flattened.sol\":73029:73033  from */\n  dup4\n  sub(shl(0xa0, 0x01), 0x01)\n    /* \"contracts/DuperToken_flattened.sol\":73020:73045  Transfer(from, to, value) */\n  and\n  0xddf252ad1be2c89b69c2b068fc378daa952ba7f163c4a11628f55a4df523b3ef\n    /* \"contracts/DuperToken_flattened.sol\":73039:73044  value */\n  dup4\n    /* \"contracts/DuperToken_flattened.sol\":73020:73045  Transfer(from, to, value) */\n  mload(0x40)\n  tag_71\n  swap2\n    /* \"#utility.yul\":6901:6926   */\n  dup2\n  mstore\n    /* \"#utility.yul\":6889:6891   */\n  0x20\n    /* \"#utility.yul\":6874:6892   */\n  add\n  swap1\n    /* \"#utility.yul\":6755:6932   */\n  jump\n    /* \"contracts/DuperToken_flattened.sol\":73020:73045  Transfer(from, to, value) */\ntag_71:\n  mload(0x40)\n  dup1\n  swap2\n  sub\n  swap1\n  log3\n    /* \"contracts/DuperToken_flattened.sol\":71945:73052  function _update(address from, address to, uint256 value) internal virtual {... */\n  pop\n  pop\n  pop\n  jump\t// out\n    /* \"#utility.yul\":14:304   */\ntag_3:\n    /* \"#utility.yul\":84:90   */\n  0x00\n    /* \"#utility.yul\":137:139   */\n  0x20\n    /* \"#utility.yul\":125:134   */\n  dup3\n    /* \"#utility.yul\":116:123   */\n  dup5\n    /* \"#utility.yul\":112:135   */\n  sub\n    /* \"#utility.yul\":108:140   */\n  slt\n    /* \"#utility.yul\":105:157   */\n  iszero\n  tag_83\n  jumpi\n    /* \"#utility.yul\":153:154   */\n  0x00\n    /* \"#utility.yul\":150:151   */\n  dup1\n    /* \"#utility.yul\":143:155   */\n  revert\n    /* \"#utility.yul\":105:157   */\ntag_83:\n    /* \"#utility.yul\":179:195   */\n  dup2\n  mload\n  sub(shl(0xa0, 0x01), 0x01)\n    /* \"#utility.yul\":224:255   */\n  dup2\n  and\n    /* \"#utility.yul\":214:256   */\n  dup2\n  eq\n    /* \"#utility.yul\":204:274   */\n  tag_84\n  jumpi\n    /* \"#utility.yul\":270:271   */\n  0x00\n    /* \"#utility.yul\":267:268   */\n  dup1\n    /* \"#utility.yul\":260:272   */\n  revert\n    /* \"#utility.yul\":204:274   */\ntag_84:\n    /* \"#utility.yul\":293:298   */\n  swap4\n    /* \"#utility.yul\":14:304   */\n  swap3\n  pop\n  pop\n  pop\n  jump\t// out\n    /* \"#utility.yul\":309:436   */\ntag_73:\n    /* \"#utility.yul\":370:380   */\n  0x4e487b71\n    /* \"#utility.yul\":365:368   */\n  0xe0\n    /* \"#utility.yul\":361:381   */\n  shl\n    /* \"#utility.yul\":358:359   */\n  0x00\n    /* \"#utility.yul\":351:382   */\n  mstore\n    /* \"#utility.yul\":401:405   */\n  0x41\n    /* \"#utility.yul\":398:399   */\n  0x04\n    /* \"#utility.yul\":391:406   */\n  mstore\n    /* \"#utility.yul\":425:429   */\n  0x24\n    /* \"#utility.yul\":422:423   */\n  0x00\n    /* \"#utility.yul\":415:430   */\n  revert\n    /* \"#utility.yul\":441:821   */\ntag_74:\n    /* \"#utility.yul\":520:521   */\n  0x01\n    /* \"#utility.yul\":516:528   */\n  dup2\n  dup2\n  shr\n  swap1\n    /* \"#utility.yul\":563:575   */\n  dup3\n  and\n  dup1\n    /* \"#utility.yul\":584:645   */\n  tag_87\n  jumpi\n    /* \"#utility.yul\":638:642   */\n  0x7f\n    /* \"#utility.yul\":630:636   */\n  dup3\n    /* \"#utility.yul\":626:643   */\n  and\n    /* \"#utility.yul\":616:643   */\n  swap2\n  pop\n    /* \"#utility.yul\":584:645   */\ntag_87:\n    /* \"#utility.yul\":691:693   */\n  0x20\n    /* \"#utility.yul\":683:689   */\n  dup3\n    /* \"#utility.yul\":680:694   */\n  lt\n    /* \"#utility.yul\":660:678   */\n  dup2\n    /* \"#utility.yul\":657:695   */\n  sub\n    /* \"#utility.yul\":654:815   */\n  tag_88\n  jumpi\n    /* \"#utility.yul\":737:747   */\n  0x4e487b71\n    /* \"#utility.yul\":732:735   */\n  0xe0\n    /* \"#utility.yul\":728:748   */\n  shl\n    /* \"#utility.yul\":725:726   */\n  0x00\n    /* \"#utility.yul\":718:749   */\n  mstore\n    /* \"#utility.yul\":772:776   */\n  0x22\n    /* \"#utility.yul\":769:770   */\n  0x04\n    /* \"#utility.yul\":762:777   */\n  mstore\n    /* \"#utility.yul\":800:804   */\n  0x24\n    /* \"#utility.yul\":797:798   */\n  0x00\n    /* \"#utility.yul\":790:805   */\n  revert\n    /* \"#utility.yul\":654:815   */\ntag_88:\n  pop\n    /* \"#utility.yul\":441:821   */\n  swap2\n  swap1\n  pop\n  jump\t// out\n    /* \"#utility.yul\":952:1497   */\ntag_76:\n    /* \"#utility.yul\":1054:1056   */\n  0x1f\n    /* \"#utility.yul\":1049:1052   */\n  dup3\n    /* \"#utility.yul\":1046:1057   */\n  gt\n    /* \"#utility.yul\":1043:1491   */\n  iszero\n  tag_91\n  jumpi\n    /* \"#utility.yul\":1090:1091   */\n  0x00\n    /* \"#utility.yul\":1115:1120   */\n  dup2\n    /* \"#utility.yul\":1111:1113   */\n  dup2\n    /* \"#utility.yul\":1104:1121   */\n  mstore\n    /* \"#utility.yul\":1160:1164   */\n  0x20\n    /* \"#utility.yul\":1156:1158   */\n  dup2\n    /* \"#utility.yul\":1146:1165   */\n  keccak256\n    /* \"#utility.yul\":1230:1232   */\n  0x1f\n    /* \"#utility.yul\":1218:1228   */\n  dup6\n    /* \"#utility.yul\":1214:1233   */\n  add\n    /* \"#utility.yul\":1211:1212   */\n  0x05\n    /* \"#utility.yul\":1207:1234   */\n  shr\n    /* \"#utility.yul\":1201:1205   */\n  dup2\n    /* \"#utility.yul\":1197:1235   */\n  add\n    /* \"#utility.yul\":1266:1270   */\n  0x20\n    /* \"#utility.yul\":1254:1264   */\n  dup7\n    /* \"#utility.yul\":1251:1271   */\n  lt\n    /* \"#utility.yul\":1248:1295   */\n  iszero\n  tag_92\n  jumpi\n  pop\n    /* \"#utility.yul\":1289:1293   */\n  dup1\n    /* \"#utility.yul\":1248:1295   */\ntag_92:\n    /* \"#utility.yul\":1344:1346   */\n  0x1f\n    /* \"#utility.yul\":1339:1342   */\n  dup6\n    /* \"#utility.yul\":1335:1347   */\n  add\n    /* \"#utility.yul\":1332:1333   */\n  0x05\n    /* \"#utility.yul\":1328:1348   */\n  shr\n    /* \"#utility.yul\":1322:1326   */\n  dup3\n    /* \"#utility.yul\":1318:1349   */\n  add\n    /* \"#utility.yul\":1308:1349   */\n  swap2\n  pop\n    /* \"#utility.yul\":1399:1481   */\ntag_93:\n    /* \"#utility.yul\":1417:1419   */\n  dup2\n    /* \"#utility.yul\":1410:1415   */\n  dup2\n    /* \"#utility.yul\":1407:1420   */\n  lt\n    /* \"#utility.yul\":1399:1481   */\n  iszero\n  tag_95\n  jumpi\n    /* \"#utility.yul\":1462:1479   */\n  dup3\n  dup2\n  sstore\n    /* \"#utility.yul\":1443:1444   */\n  0x01\n    /* \"#utility.yul\":1432:1445   */\n  add\n    /* \"#utility.yul\":1399:1481   */\n  jump(tag_93)\ntag_95:\n    /* \"#utility.yul\":1403:1406   */\n  pop\n  pop\n  pop\n    /* \"#utility.yul\":1043:1491   */\ntag_91:\n    /* \"#utility.yul\":952:1497   */\n  pop\n  pop\n  pop\n  jump\t// out\n    /* \"#utility.yul\":1673:3025   */\ntag_11:\n    /* \"#utility.yul\":1793:1803   */\n  dup2\n  mload\n  sub(shl(0x40, 0x01), 0x01)\n    /* \"#utility.yul\":1815:1845   */\n  dup2\n  gt\n    /* \"#utility.yul\":1812:1868   */\n  iszero\n  tag_99\n  jumpi\n    /* \"#utility.yul\":1848:1866   */\n  tag_99\n  tag_73\n  jump\t// in\ntag_99:\n    /* \"#utility.yul\":1877:1974   */\n  tag_100\n    /* \"#utility.yul\":1967:1973   */\n  dup2\n    /* \"#utility.yul\":1927:1965   */\n  tag_101\n    /* \"#utility.yul\":1959:1963   */\n  dup5\n    /* \"#utility.yul\":1953:1964   */\n  sload\n    /* \"#utility.yul\":1927:1965   */\n  tag_74\n  jump\t// in\ntag_101:\n    /* \"#utility.yul\":1921:1925   */\n  dup5\n    /* \"#utility.yul\":1877:1974   */\n  tag_76\n  jump\t// in\ntag_100:\n    /* \"#utility.yul\":2029:2033   */\n  0x20\n  dup1\n    /* \"#utility.yul\":2093:2095   */\n  0x1f\n    /* \"#utility.yul\":2082:2096   */\n  dup4\n  gt\n    /* \"#utility.yul\":2110:2111   */\n  0x01\n    /* \"#utility.yul\":2105:2768   */\n  dup2\n  eq\n  tag_103\n  jumpi\n    /* \"#utility.yul\":2812:2813   */\n  0x00\n    /* \"#utility.yul\":2829:2835   */\n  dup5\n    /* \"#utility.yul\":2826:2915   */\n  iszero\n  tag_104\n  jumpi\n  pop\n    /* \"#utility.yul\":2881:2900   */\n  dup6\n  dup4\n  add\n    /* \"#utility.yul\":2875:2901   */\n  mload\n    /* \"#utility.yul\":2826:2915   */\ntag_104:\n  not(0x00)\n    /* \"#utility.yul\":1630:1631   */\n  0x03\n    /* \"#utility.yul\":1626:1637   */\n  dup7\n  swap1\n  shl\n    /* \"#utility.yul\":1622:1646   */\n  shr\n    /* \"#utility.yul\":1618:1647   */\n  not\n    /* \"#utility.yul\":1608:1648   */\n  and\n    /* \"#utility.yul\":1654:1655   */\n  0x01\n    /* \"#utility.yul\":1650:1661   */\n  dup6\n  swap1\n  shl\n    /* \"#utility.yul\":1605:1662   */\n  or\n    /* \"#utility.yul\":2928:3009   */\n  dup6\n  sstore\n    /* \"#utility.yul\":2075:3019   */\n  jump(tag_95)\n    /* \"#utility.yul\":2105:2768   */\ntag_103:\n    /* \"#utility.yul\":899:900   */\n  0x00\n    /* \"#utility.yul\":892:906   */\n  dup6\n  dup2\n  mstore\n    /* \"#utility.yul\":936:940   */\n  0x20\n    /* \"#utility.yul\":923:941   */\n  dup2\n  keccak256\n  not(0x1f)\n    /* \"#utility.yul\":2141:2161   */\n  dup7\n  and\n  swap2\n    /* \"#utility.yul\":2259:2495   */\ntag_107:\n    /* \"#utility.yul\":2273:2280   */\n  dup3\n    /* \"#utility.yul\":2270:2271   */\n  dup2\n    /* \"#utility.yul\":2267:2281   */\n  lt\n    /* \"#utility.yul\":2259:2495   */\n  iszero\n  tag_109\n  jumpi\n    /* \"#utility.yul\":2362:2381   */\n  dup9\n  dup7\n  add\n    /* \"#utility.yul\":2356:2382   */\n  mload\n    /* \"#utility.yul\":2341:2383   */\n  dup3\n  sstore\n    /* \"#utility.yul\":2454:2481   */\n  swap5\n  dup5\n  add\n  swap5\n    /* \"#utility.yul\":2422:2423   */\n  0x01\n    /* \"#utility.yul\":2410:2424   */\n  swap1\n  swap2\n  add\n  swap1\n    /* \"#utility.yul\":2289:2308   */\n  dup5\n  add\n    /* \"#utility.yul\":2259:2495   */\n  jump(tag_107)\ntag_109:\n    /* \"#utility.yul\":2263:2266   */\n  pop\n    /* \"#utility.yul\":2523:2529   */\n  dup6\n    /* \"#utility.yul\":2514:2521   */\n  dup3\n    /* \"#utility.yul\":2511:2530   */\n  lt\n    /* \"#utility.yul\":2508:2709   */\n  iszero\n  tag_110\n  jumpi\n    /* \"#utility.yul\":2584:2603   */\n  dup8\n  dup6\n  add\n    /* \"#utility.yul\":2578:2604   */\n  mload\n  not(0x00)\n    /* \"#utility.yul\":2667:2668   */\n  0x03\n    /* \"#utility.yul\":2663:2677   */\n  dup9\n  swap1\n  shl\n    /* \"#utility.yul\":2679:2682   */\n  0xf8\n    /* \"#utility.yul\":2659:2683   */\n  and\n    /* \"#utility.yul\":2655:2692   */\n  shr\n    /* \"#utility.yul\":2651:2693   */\n  not\n    /* \"#utility.yul\":2636:2694   */\n  and\n    /* \"#utility.yul\":2621:2695   */\n  dup2\n  sstore\n    /* \"#utility.yul\":2508:2709   */\ntag_110:\n  pop\n  pop\n  pop\n  pop\n  pop\n    /* \"#utility.yul\":2755:2756   */\n  0x01\n    /* \"#utility.yul\":2739:2753   */\n  swap1\n  dup2\n  shl\n    /* \"#utility.yul\":2735:2757   */\n  add\n    /* \"#utility.yul\":2722:2758   */\n  swap1\n  sstore\n  pop\n    /* \"#utility.yul\":1673:3025   */\n  jump\t// out\n    /* \"#utility.yul\":3238:3365   */\ntag_78:\n    /* \"#utility.yul\":3299:3309   */\n  0x4e487b71\n    /* \"#utility.yul\":3294:3297   */\n  0xe0\n    /* \"#utility.yul\":3290:3310   */\n  shl\n    /* \"#utility.yul\":3287:3288   */\n  0x00\n    /* \"#utility.yul\":3280:3311   */\n  mstore\n    /* \"#utility.yul\":3330:3334   */\n  0x11\n    /* \"#utility.yul\":3327:3328   */\n  0x04\n    /* \"#utility.yul\":3320:3335   */\n  mstore\n    /* \"#utility.yul\":3354:3358   */\n  0x24\n    /* \"#utility.yul\":3351:3352   */\n  0x00\n    /* \"#utility.yul\":3344:3359   */\n  revert\n    /* \"#utility.yul\":3370:3792   */\ntag_79:\n    /* \"#utility.yul\":3459:3460   */\n  0x01\n    /* \"#utility.yul\":3502:3507   */\n  dup2\n    /* \"#utility.yul\":3459:3460   */\n  dup2\n    /* \"#utility.yul\":3516:3786   */\ntag_114:\n    /* \"#utility.yul\":3537:3544   */\n  dup1\n    /* \"#utility.yul\":3527:3535   */\n  dup6\n    /* \"#utility.yul\":3524:3545   */\n  gt\n    /* \"#utility.yul\":3516:3786   */\n  iszero\n  tag_116\n  jumpi\n    /* \"#utility.yul\":3596:3600   */\n  dup2\n    /* \"#utility.yul\":3592:3593   */\n  0x00\n    /* \"#utility.yul\":3588:3594   */\n  not\n    /* \"#utility.yul\":3584:3601   */\n  div\n    /* \"#utility.yul\":3578:3582   */\n  dup3\n    /* \"#utility.yul\":3575:3602   */\n  gt\n    /* \"#utility.yul\":3572:3625   */\n  iszero\n  tag_118\n  jumpi\n    /* \"#utility.yul\":3605:3623   */\n  tag_118\n  tag_78\n  jump\t// in\ntag_118:\n    /* \"#utility.yul\":3655:3662   */\n  dup1\n    /* \"#utility.yul\":3645:3653   */\n  dup6\n    /* \"#utility.yul\":3641:3663   */\n  and\n    /* \"#utility.yul\":3638:3693   */\n  iszero\n  tag_119\n  jumpi\n    /* \"#utility.yul\":3675:3691   */\n  swap2\n  dup2\n  mul\n  swap2\n    /* \"#utility.yul\":3638:3693   */\ntag_119:\n    /* \"#utility.yul\":3754:3776   */\n  swap4\n  dup5\n  shr\n  swap4\n    /* \"#utility.yul\":3714:3729   */\n  swap1\n  dup1\n  mul\n  swap1\n    /* \"#utility.yul\":3516:3786   */\n  jump(tag_114)\ntag_116:\n    /* \"#utility.yul\":3520:3523   */\n  pop\n    /* \"#utility.yul\":3370:3792   */\n  swap3\n  pop\n  swap3\n  swap1\n  pop\n  jump\t// out\n    /* \"#utility.yul\":3797:4603   */\ntag_80:\n    /* \"#utility.yul\":3846:3851   */\n  0x00\n    /* \"#utility.yul\":3876:3884   */\n  dup3\n    /* \"#utility.yul\":3866:3946   */\n  tag_121\n  jumpi\n  pop\n    /* \"#utility.yul\":3917:3918   */\n  0x01\n    /* \"#utility.yul\":3931:3936   */\n  jump(tag_41)\n    /* \"#utility.yul\":3866:3946   */\ntag_121:\n    /* \"#utility.yul\":3965:3969   */\n  dup2\n    /* \"#utility.yul\":3955:4031   */\n  tag_122\n  jumpi\n  pop\n    /* \"#utility.yul\":4002:4003   */\n  0x00\n    /* \"#utility.yul\":4016:4021   */\n  jump(tag_41)\n    /* \"#utility.yul\":3955:4031   */\ntag_122:\n    /* \"#utility.yul\":4047:4051   */\n  dup2\n    /* \"#utility.yul\":4065:4066   */\n  0x01\n    /* \"#utility.yul\":4060:4119   */\n  dup2\n  eq\n  tag_124\n  jumpi\n    /* \"#utility.yul\":4133:4134   */\n  0x02\n    /* \"#utility.yul\":4128:4258   */\n  dup2\n  eq\n  tag_125\n  jumpi\n    /* \"#utility.yul\":4040:4258   */\n  jump(tag_123)\n    /* \"#utility.yul\":4060:4119   */\ntag_124:\n    /* \"#utility.yul\":4090:4091   */\n  0x01\n    /* \"#utility.yul\":4081:4091   */\n  swap2\n  pop\n    /* \"#utility.yul\":4104:4109   */\n  pop\n  jump(tag_41)\n    /* \"#utility.yul\":4128:4258   */\ntag_125:\n    /* \"#utility.yul\":4165:4168   */\n  0xff\n    /* \"#utility.yul\":4155:4163   */\n  dup5\n    /* \"#utility.yul\":4152:4169   */\n  gt\n    /* \"#utility.yul\":4149:4192   */\n  iszero\n  tag_127\n  jumpi\n    /* \"#utility.yul\":4172:4190   */\n  tag_127\n  tag_78\n  jump\t// in\ntag_127:\n  pop\n  pop\n    /* \"#utility.yul\":4228:4229   */\n  0x01\n    /* \"#utility.yul\":4214:4230   */\n  dup3\n  shl\n    /* \"#utility.yul\":4243:4248   */\n  jump(tag_41)\n    /* \"#utility.yul\":4040:4258   */\ntag_123:\n  pop\n    /* \"#utility.yul\":4342:4344   */\n  0x20\n    /* \"#utility.yul\":4332:4340   */\n  dup4\n    /* \"#utility.yul\":4329:4345   */\n  lt\n    /* \"#utility.yul\":4323:4326   */\n  0x0133\n    /* \"#utility.yul\":4317:4321   */\n  dup4\n    /* \"#utility.yul\":4314:4327   */\n  lt\n    /* \"#utility.yul\":4310:4346   */\n  and\n    /* \"#utility.yul\":4304:4306   */\n  0x4e\n    /* \"#utility.yul\":4294:4302   */\n  dup5\n    /* \"#utility.yul\":4291:4307   */\n  lt\n    /* \"#utility.yul\":4286:4288   */\n  0x0b\n    /* \"#utility.yul\":4280:4284   */\n  dup5\n    /* \"#utility.yul\":4277:4289   */\n  lt\n    /* \"#utility.yul\":4273:4308   */\n  and\n    /* \"#utility.yul\":4270:4347   */\n  or\n    /* \"#utility.yul\":4267:4426   */\n  iszero\n  tag_128\n  jumpi\n  pop\n    /* \"#utility.yul\":4379:4398   */\n  dup2\n  dup2\n  exp\n    /* \"#utility.yul\":4411:4416   */\n  jump(tag_41)\n    /* \"#utility.yul\":4267:4426   */\ntag_128:\n    /* \"#utility.yul\":4458:4492   */\n  tag_129\n    /* \"#utility.yul\":4483:4491   */\n  dup4\n    /* \"#utility.yul\":4477:4481   */\n  dup4\n    /* \"#utility.yul\":4458:4492   */\n  tag_79\n  jump\t// in\ntag_129:\n    /* \"#utility.yul\":4528:4534   */\n  dup1\n    /* \"#utility.yul\":4524:4525   */\n  0x00\n    /* \"#utility.yul\":4520:4526   */\n  not\n    /* \"#utility.yul\":4516:4535   */\n  div\n    /* \"#utility.yul\":4507:4514   */\n  dup3\n    /* \"#utility.yul\":4504:4536   */\n  gt\n    /* \"#utility.yul\":4501:4559   */\n  iszero\n  tag_131\n  jumpi\n    /* \"#utility.yul\":4539:4557   */\n  tag_131\n  tag_78\n  jump\t// in\ntag_131:\n    /* \"#utility.yul\":4577:4597   */\n  mul\n  swap4\n    /* \"#utility.yul\":3797:4603   */\n  swap3\n  pop\n  pop\n  pop\n  jump\t// out\n    /* \"#utility.yul\":4608:4748   */\ntag_31:\n    /* \"#utility.yul\":4666:4671   */\n  0x00\n    /* \"#utility.yul\":4695:4742   */\n  tag_84\n    /* \"#utility.yul\":4736:4740   */\n  0xff\n    /* \"#utility.yul\":4726:4734   */\n  dup5\n    /* \"#utility.yul\":4722:4741   */\n  and\n    /* \"#utility.yul\":4716:4720   */\n  dup4\n    /* \"#utility.yul\":4695:4742   */\n  tag_80\n  jump\t// in\n    /* \"#utility.yul\":4753:4921   */\ntag_33:\n    /* \"#utility.yul\":4826:4835   */\n  dup1\n  dup3\n  mul\n    /* \"#utility.yul\":4857:4866   */\n  dup2\n  iszero\n    /* \"#utility.yul\":4874:4889   */\n  dup3\n  dup3\n  div\n    /* \"#utility.yul\":4868:4890   */\n  dup5\n  eq\n    /* \"#utility.yul\":4854:4891   */\n  or\n    /* \"#utility.yul\":4844:4915   */\n  tag_41\n  jumpi\n    /* \"#utility.yul\":4895:4913   */\n  tag_41\n  tag_78\n  jump\t// in\n    /* \"#utility.yul\":5420:5968   */\ntag_57:\n    /* \"#utility.yul\":5532:5536   */\n  0x00\n    /* \"#utility.yul\":5561:5563   */\n  0x20\n    /* \"#utility.yul\":5590:5592   */\n  dup1\n    /* \"#utility.yul\":5579:5588   */\n  dup4\n    /* \"#utility.yul\":5572:5593   */\n  mstore\n    /* \"#utility.yul\":5622:5628   */\n  dup4\n    /* \"#utility.yul\":5616:5629   */\n  mload\n    /* \"#utility.yul\":5665:5671   */\n  dup1\n    /* \"#utility.yul\":5660:5662   */\n  dup3\n    /* \"#utility.yul\":5649:5658   */\n  dup6\n    /* \"#utility.yul\":5645:5663   */\n  add\n    /* \"#utility.yul\":5638:5672   */\n  mstore\n    /* \"#utility.yul\":5690:5691   */\n  0x00\n    /* \"#utility.yul\":5700:5840   */\ntag_139:\n    /* \"#utility.yul\":5714:5720   */\n  dup2\n    /* \"#utility.yul\":5711:5712   */\n  dup2\n    /* \"#utility.yul\":5708:5721   */\n  lt\n    /* \"#utility.yul\":5700:5840   */\n  iszero\n  tag_141\n  jumpi\n    /* \"#utility.yul\":5809:5823   */\n  dup6\n  dup2\n  add\n    /* \"#utility.yul\":5805:5828   */\n  dup4\n  add\n    /* \"#utility.yul\":5799:5829   */\n  mload\n    /* \"#utility.yul\":5775:5792   */\n  dup6\n  dup3\n  add\n    /* \"#utility.yul\":5794:5796   */\n  0x40\n    /* \"#utility.yul\":5771:5797   */\n  add\n    /* \"#utility.yul\":5764:5830   */\n  mstore\n    /* \"#utility.yul\":5729:5739   */\n  dup3\n  add\n    /* \"#utility.yul\":5700:5840   */\n  jump(tag_139)\ntag_141:\n    /* \"#utility.yul\":5704:5707   */\n  pop\n    /* \"#utility.yul\":5889:5890   */\n  0x00\n    /* \"#utility.yul\":5884:5886   */\n  0x40\n    /* \"#utility.yul\":5875:5881   */\n  dup3\n    /* \"#utility.yul\":5864:5873   */\n  dup7\n    /* \"#utility.yul\":5860:5882   */\n  add\n    /* \"#utility.yul\":5856:5887   */\n  add\n    /* \"#utility.yul\":5849:5891   */\n  mstore\n    /* \"#utility.yul\":5959:5961   */\n  0x40\n    /* \"#utility.yul\":5952:5954   */\n  0x1f\n    /* \"#utility.yul\":5948:5955   */\n  not\n    /* \"#utility.yul\":5943:5945   */\n  0x1f\n    /* \"#utility.yul\":5935:5941   */\n  dup4\n    /* \"#utility.yul\":5931:5946   */\n  add\n    /* \"#utility.yul\":5927:5956   */\n  and\n    /* \"#utility.yul\":5916:5925   */\n  dup6\n    /* \"#utility.yul\":5912:5957   */\n  add\n    /* \"#utility.yul\":5908:5962   */\n  add\n    /* \"#utility.yul\":5900:5962   */\n  swap3\n  pop\n  pop\n  pop\n    /* \"#utility.yul\":5420:5968   */\n  swap3\n  swap2\n  pop\n  pop\n  jump\t// out\n    /* \"#utility.yul\":5973:6270   */\ntag_59:\n    /* \"#utility.yul\":6091:6103   */\n  dup1\n  mload\n    /* \"#utility.yul\":6138:6142   */\n  0x20\n    /* \"#utility.yul\":6127:6143   */\n  dup1\n  dup4\n  add\n    /* \"#utility.yul\":6121:6144   */\n  mload\n  swap2\n    /* \"#utility.yul\":6091:6103   */\n  swap1\n    /* \"#utility.yul\":6156:6172   */\n  dup2\n  lt\n    /* \"#utility.yul\":6153:6264   */\n  iszero\n  tag_88\n  jumpi\n  not(0x00)\n    /* \"#utility.yul\":6230:6234   */\n  0x20\n    /* \"#utility.yul\":6226:6243   */\n  swap2\n  swap1\n  swap2\n  sub\n    /* \"#utility.yul\":6223:6224   */\n  0x03\n    /* \"#utility.yul\":6219:6244   */\n  shl\n    /* \"#utility.yul\":6215:6253   */\n  shl\n    /* \"#utility.yul\":6204:6254   */\n  and\n  swap2\n    /* \"#utility.yul\":5973:6270   */\n  swap1\n  pop\n  jump\t// out\n    /* \"#utility.yul\":6275:6400   */\ntag_64:\n    /* \"#utility.yul\":6340:6349   */\n  dup1\n  dup3\n  add\n    /* \"#utility.yul\":6361:6371   */\n  dup1\n  dup3\n  gt\n    /* \"#utility.yul\":6358:6394   */\n  iszero\n  tag_41\n  jumpi\n    /* \"#utility.yul\":6374:6392   */\n  tag_41\n  tag_78\n  jump\t// in\n    /* \"#utility.yul\":6755:6932   */\ntag_81:\n    /* \"contracts/DuperToken_flattened.sol\":80640:81011  contract DuperToken is ERC20, ERC20Burnable, Ownable, ERC20Permit {... */\n  mload(0x80)\n  mload(0xa0)\n  mload(0xc0)\n  mload(0xe0)\n  mload(0x0100)\n  mload(0x0120)\n  mload(0x0140)\n  codecopy(0x00, dataOffset(sub_0), dataSize(sub_0))\n  0x00\n  assignImmutable(\"0x2afe76337b531113eeb6984869209602297c0be432194d84882749ead3021a37\")\n  0x00\n  assignImmutable(\"0xa7cd0fec000bc9bc829eee3f19124c6d92f9bf03bc5604d586b7a9d0b7293aeb\")\n  0x00\n  assignImmutable(\"0x5444bf99e2aaa84d0c0adba4902ca441e981a14d987060ddd53a6e4272e74bca\")\n  0x00\n  assignImmutable(\"0xf9ba965def30954c13b9f17655d4bfcf079e819f9cc42b75928cd97e2c9f9020\")\n  0x00\n  assignImmutable(\"0xf2aed5d52b85e7b229d9a0bb201e12bdcbbc5fc133feb54c1cb531c3f7cf58ed\")\n  0x00\n  assignImmutable(\"0x89dda32db2afb3470ad3a855ff08175ef365ece0147067a2a9b89c9351412201\")\n  0x00\n  assignImmutable(\"0x3f9e555adc0bedaea160f26d13d68ea1bde6a5a9af64af415bccce823c8f9ad8\")\n  return(0x00, dataSize(sub_0))\nstop\n\nsub_0: assembly {\n        /* \"contracts/DuperToken_flattened.sol\":80640:81011  contract DuperToken is ERC20, ERC20Burnable, Ownable, ERC20Permit {... */\n      mstore(0x40, 0x80)\n      callvalue\n      dup1\n      iszero\n      tag_1\n      jumpi\n      0x00\n      dup1\n      revert\n    tag_1:\n      pop\n      jumpi(tag_2, lt(calldatasize, 0x04))\n      shr(0xe0, calldataload(0x00))\n      dup1\n      0x715018a6\n      gt\n      tag_22\n      jumpi\n      dup1\n      0x95d89b41\n      gt\n      tag_23\n      jumpi\n      dup1\n      0x95d89b41\n      eq\n      tag_17\n      jumpi\n      dup1\n      0xa9059cbb\n      eq\n      tag_18\n      jumpi\n      dup1\n      0xd505accf\n      eq\n      tag_19\n      jumpi\n      dup1\n      0xdd62ed3e\n      eq\n      tag_20\n      jumpi\n      dup1\n      0xf2fde38b\n      eq\n      tag_21\n      jumpi\n      0x00\n      dup1\n      revert\n    tag_23:\n      dup1\n      0x715018a6\n      eq\n      tag_12\n      jumpi\n      dup1\n      0x79cc6790\n      eq\n      tag_13\n      jumpi\n      dup1\n      0x7ecebe00\n      eq\n      tag_14\n      jumpi\n      dup1\n      0x84b0196e\n      eq\n      tag_15\n      jumpi\n      dup1\n      0x8da5cb5b\n      eq\n      tag_16\n      jumpi\n      0x00\n      dup1\n      revert\n    tag_22:\n      dup1\n      0x313ce567\n      gt\n      tag_24\n      jumpi\n      dup1\n      0x313ce567\n      eq\n      tag_7\n      jumpi\n      dup1\n      0x3644e515\n      eq\n      tag_8\n      jumpi\n      dup1\n      0x40c10f19\n      eq\n      tag_9\n      jumpi\n      dup1\n      0x42966c68\n      eq\n      tag_10\n      jumpi\n      dup1\n      0x70a08231\n      eq\n      tag_11\n      jumpi\n      0x00\n      dup1\n      revert\n    tag_24:\n      dup1\n      0x06fdde03\n      eq\n      tag_3\n      jumpi\n      dup1\n      0x095ea7b3\n      eq\n      tag_4\n      jumpi\n      dup1\n      0x18160ddd\n      eq\n      tag_5\n      jumpi\n      dup1\n      0x23b872dd\n      eq\n      tag_6\n      jumpi\n    tag_2:\n      0x00\n      dup1\n      revert\n        /* \"contracts/DuperToken_flattened.sol\":67748:67837  function name() public view virtual returns (string memory) {... */\n    tag_3:\n      tag_25\n      tag_26\n      jump\t// in\n    tag_25:\n      mload(0x40)\n      tag_27\n      swap2\n      swap1\n      tag_28\n      jump\t// in\n    tag_27:\n      mload(0x40)\n      dup1\n      swap2\n      sub\n      swap1\n      return\n        /* \"contracts/DuperToken_flattened.sol\":69967:70153  function approve(address spender, uint256 value) public virtual returns (bool) {... */\n    tag_4:\n      tag_29\n      tag_30\n      calldatasize\n      0x04\n      tag_31\n      jump\t// in\n    tag_30:\n      tag_32\n      jump\t// in\n    tag_29:\n      mload(0x40)\n        /* \"#utility.yul\":1269:1283   */\n      swap1\n      iszero\n        /* \"#utility.yul\":1262:1284   */\n      iszero\n        /* \"#utility.yul\":1244:1285   */\n      dup2\n      mstore\n        /* \"#utility.yul\":1232:1234   */\n      0x20\n        /* \"#utility.yul\":1217:1235   */\n      add\n        /* \"contracts/DuperToken_flattened.sol\":69967:70153  function approve(address spender, uint256 value) public virtual returns (bool) {... */\n      tag_27\n        /* \"#utility.yul\":1104:1291   */\n      jump\n        /* \"contracts/DuperToken_flattened.sol\":68818:68915  function totalSupply() public view virtual returns (uint256) {... */\n    tag_5:\n        /* \"contracts/DuperToken_flattened.sol\":68896:68908  _totalSupply */\n      sload(0x02)\n        /* \"contracts/DuperToken_flattened.sol\":68818:68915  function totalSupply() public view virtual returns (uint256) {... */\n    tag_35:\n      mload(0x40)\n        /* \"#utility.yul\":1442:1467   */\n      swap1\n      dup2\n      mstore\n        /* \"#utility.yul\":1430:1432   */\n      0x20\n        /* \"#utility.yul\":1415:1433   */\n      add\n        /* \"contracts/DuperToken_flattened.sol\":68818:68915  function totalSupply() public view virtual returns (uint256) {... */\n      tag_27\n        /* \"#utility.yul\":1296:1473   */\n      jump\n        /* \"contracts/DuperToken_flattened.sol\":70713:70957  function transferFrom(address from, address to, uint256 value) public virtual returns (bool) {... */\n    tag_6:\n      tag_29\n      tag_40\n      calldatasize\n      0x04\n      tag_41\n      jump\t// in\n    tag_40:\n      tag_42\n      jump\t// in\n        /* \"contracts/DuperToken_flattened.sol\":68676:68758  function decimals() public view virtual returns (uint8) {... */\n    tag_7:\n      mload(0x40)\n        /* \"contracts/DuperToken_flattened.sol\":68749:68751  18 */\n      0x12\n        /* \"#utility.yul\":1953:1989   */\n      dup2\n      mstore\n        /* \"#utility.yul\":1941:1943   */\n      0x20\n        /* \"#utility.yul\":1926:1944   */\n      add\n        /* \"contracts/DuperToken_flattened.sol\":68676:68758  function decimals() public view virtual returns (uint8) {... */\n      tag_27\n        /* \"#utility.yul\":1811:1995   */\n      jump\n        /* \"contracts/DuperToken_flattened.sol\":79261:79373  function DOMAIN_SEPARATOR() external view virtual returns (bytes32) {... */\n    tag_8:\n      tag_35\n      tag_49\n      jump\t// in\n        /* \"contracts/DuperToken_flattened.sol\":80916:81009  function mint(address to, uint256 amount) public onlyOwner {... */\n    tag_9:\n      tag_52\n      tag_53\n      calldatasize\n      0x04\n      tag_31\n      jump\t// in\n    tag_53:\n      tag_54\n      jump\t// in\n    tag_52:\n      stop\n        /* \"contracts/DuperToken_flattened.sol\":79952:80039  function burn(uint256 value) public virtual {... */\n    tag_10:\n      tag_52\n      tag_56\n      calldatasize\n      0x04\n      tag_57\n      jump\t// in\n    tag_56:\n      tag_58\n      jump\t// in\n        /* \"contracts/DuperToken_flattened.sol\":68973:69089  function balanceOf(address account) public view virtual returns (uint256) {... */\n    tag_11:\n      tag_35\n      tag_60\n      calldatasize\n      0x04\n      tag_61\n      jump\t// in\n    tag_60:\n      sub(shl(0xa0, 0x01), 0x01)\n        /* \"contracts/DuperToken_flattened.sol\":69064:69082  _balances[account] */\n      and\n        /* \"contracts/DuperToken_flattened.sol\":69038:69045  uint256 */\n      0x00\n        /* \"contracts/DuperToken_flattened.sol\":69064:69082  _balances[account] */\n      swap1\n      dup2\n      mstore\n      0x20\n      dup2\n      swap1\n      mstore\n      0x40\n      swap1\n      keccak256\n      sload\n      swap1\n        /* \"contracts/DuperToken_flattened.sol\":68973:69089  function balanceOf(address account) public view virtual returns (uint256) {... */\n      jump\n        /* \"contracts/DuperToken_flattened.sol\":61555:61656  function renounceOwnership() public virtual onlyOwner {... */\n    tag_12:\n      tag_52\n      tag_65\n      jump\t// in\n        /* \"contracts/DuperToken_flattened.sol\":80355:80513  function burnFrom(address account, uint256 value) public virtual {... */\n    tag_13:\n      tag_52\n      tag_67\n      calldatasize\n      0x04\n      tag_31\n      jump\t// in\n    tag_67:\n      tag_68\n      jump\t// in\n        /* \"contracts/DuperToken_flattened.sol\":79011:79154  function nonces(address owner) public view virtual override(IERC20Permit, Nonces) returns (uint256) {... */\n    tag_14:\n      tag_35\n      tag_70\n      calldatasize\n      0x04\n      tag_61\n      jump\t// in\n    tag_70:\n      tag_71\n      jump\t// in\n        /* \"contracts/DuperToken_flattened.sol\":38759:39316  function eip712Domain()... */\n    tag_15:\n      tag_73\n      tag_74\n      jump\t// in\n    tag_73:\n      mload(0x40)\n      tag_27\n      swap8\n      swap7\n      swap6\n      swap5\n      swap4\n      swap3\n      swap2\n      swap1\n      tag_76\n      jump\t// in\n        /* \"contracts/DuperToken_flattened.sol\":60900:60985  function owner() public view virtual returns (address) {... */\n    tag_16:\n        /* \"contracts/DuperToken_flattened.sol\":60972:60978  _owner */\n      sload(0x05)\n        /* \"contracts/DuperToken_flattened.sol\":60900:60985  function owner() public view virtual returns (address) {... */\n      mload(0x40)\n      sub(shl(0xa0, 0x01), 0x01)\n        /* \"contracts/DuperToken_flattened.sol\":60972:60978  _owner */\n      swap1\n      swap2\n      and\n        /* \"#utility.yul\":3968:4019   */\n      dup2\n      mstore\n        /* \"#utility.yul\":3956:3958   */\n      0x20\n        /* \"#utility.yul\":3941:3959   */\n      add\n        /* \"contracts/DuperToken_flattened.sol\":60900:60985  function owner() public view virtual returns (address) {... */\n      tag_27\n        /* \"#utility.yul\":3822:4025   */\n      jump\n        /* \"contracts/DuperToken_flattened.sol\":67950:68043  function symbol() public view virtual returns (string memory) {... */\n    tag_17:\n      tag_25\n      tag_82\n      jump\t// in\n        /* \"contracts/DuperToken_flattened.sol\":69284:69462  function transfer(address to, uint256 value) public virtual returns (bool) {... */\n    tag_18:\n      tag_29\n      tag_85\n      calldatasize\n      0x04\n      tag_31\n      jump\t// in\n    tag_85:\n      tag_86\n      jump\t// in\n        /* \"contracts/DuperToken_flattened.sol\":78285:78957  function permit(... */\n    tag_19:\n      tag_52\n      tag_89\n      calldatasize\n      0x04\n      tag_90\n      jump\t// in\n    tag_89:\n      tag_91\n      jump\t// in\n        /* \"contracts/DuperToken_flattened.sol\":69520:69660  function allowance(address owner, address spender) public view virtual returns (uint256) {... */\n    tag_20:\n      tag_35\n      tag_93\n      calldatasize\n      0x04\n      tag_94\n      jump\t// in\n    tag_93:\n      sub(shl(0xa0, 0x01), 0x01)\n        /* \"contracts/DuperToken_flattened.sol\":69626:69644  _allowances[owner] */\n      swap2\n      dup3\n      and\n        /* \"contracts/DuperToken_flattened.sol\":69600:69607  uint256 */\n      0x00\n        /* \"contracts/DuperToken_flattened.sol\":69626:69644  _allowances[owner] */\n      swap1\n      dup2\n      mstore\n        /* \"contracts/DuperToken_flattened.sol\":69626:69637  _allowances */\n      0x01\n        /* \"contracts/DuperToken_flattened.sol\":69626:69644  _allowances[owner] */\n      0x20\n      swap1\n      dup2\n      mstore\n      0x40\n      dup1\n      dup4\n      keccak256\n        /* \"contracts/DuperToken_flattened.sol\":69626:69653  _allowances[owner][spender] */\n      swap4\n      swap1\n      swap5\n      and\n      dup3\n      mstore\n      swap2\n      swap1\n      swap2\n      mstore\n      keccak256\n      sload\n      swap1\n        /* \"contracts/DuperToken_flattened.sol\":69520:69660  function allowance(address owner, address spender) public view virtual returns (uint256) {... */\n      jump\n        /* \"contracts/DuperToken_flattened.sol\":61805:62020  function transferOwnership(address newOwner) public virtual onlyOwner {... */\n    tag_21:\n      tag_52\n      tag_98\n      calldatasize\n      0x04\n      tag_61\n      jump\t// in\n    tag_98:\n      tag_99\n      jump\t// in\n        /* \"contracts/DuperToken_flattened.sol\":67748:67837  function name() public view virtual returns (string memory) {... */\n    tag_26:\n        /* \"contracts/DuperToken_flattened.sol\":67793:67806  string memory */\n      0x60\n        /* \"contracts/DuperToken_flattened.sol\":67825:67830  _name */\n      0x03\n        /* \"contracts/DuperToken_flattened.sol\":67818:67830  return _name */\n      dup1\n      sload\n      tag_101\n      swap1\n      tag_102\n      jump\t// in\n    tag_101:\n      dup1\n      0x1f\n      add\n      0x20\n      dup1\n      swap2\n      div\n      mul\n      0x20\n      add\n      mload(0x40)\n      swap1\n      dup2\n      add\n      0x40\n      mstore\n      dup1\n      swap3\n      swap2\n      swap1\n      dup2\n      dup2\n      mstore\n      0x20\n      add\n      dup3\n      dup1\n      sload\n      tag_103\n      swap1\n      tag_102\n      jump\t// in\n    tag_103:\n      dup1\n      iszero\n      tag_104\n      jumpi\n      dup1\n      0x1f\n      lt\n      tag_105\n      jumpi\n      0x0100\n      dup1\n      dup4\n      sload\n      div\n      mul\n      dup4\n      mstore\n      swap2\n      0x20\n      add\n      swap2\n      jump(tag_104)\n    tag_105:\n      dup3\n      add\n      swap2\n      swap1\n      0x00\n      mstore\n      keccak256(0x00, 0x20)\n      swap1\n    tag_106:\n      dup2\n      sload\n      dup2\n      mstore\n      swap1\n      0x01\n      add\n      swap1\n      0x20\n      add\n      dup1\n      dup4\n      gt\n      tag_106\n      jumpi\n      dup3\n      swap1\n      sub\n      0x1f\n      and\n      dup3\n      add\n      swap2\n    tag_104:\n      pop\n      pop\n      pop\n      pop\n      pop\n      swap1\n      pop\n        /* \"contracts/DuperToken_flattened.sol\":67748:67837  function name() public view virtual returns (string memory) {... */\n      swap1\n      jump\t// out\n        /* \"contracts/DuperToken_flattened.sol\":69967:70153  function approve(address spender, uint256 value) public virtual returns (bool) {... */\n    tag_32:\n        /* \"contracts/DuperToken_flattened.sol\":70040:70044  bool */\n      0x00\n        /* \"contracts/DuperToken_flattened.sol\":59160:59170  msg.sender */\n      caller\n        /* \"contracts/DuperToken_flattened.sol\":70094:70125  _approve(owner, spender, value) */\n      tag_110\n        /* \"contracts/DuperToken_flattened.sol\":59160:59170  msg.sender */\n      dup2\n        /* \"contracts/DuperToken_flattened.sol\":70110:70117  spender */\n      dup6\n        /* \"contracts/DuperToken_flattened.sol\":70119:70124  value */\n      dup6\n        /* \"contracts/DuperToken_flattened.sol\":70094:70102  _approve */\n      tag_111\n        /* \"contracts/DuperToken_flattened.sol\":70094:70125  _approve(owner, spender, value) */\n      jump\t// in\n    tag_110:\n        /* \"contracts/DuperToken_flattened.sol\":70142:70146  true */\n      0x01\n        /* \"contracts/DuperToken_flattened.sol\":70135:70146  return true */\n      swap2\n      pop\n      pop\n        /* \"contracts/DuperToken_flattened.sol\":69967:70153  function approve(address spender, uint256 value) public virtual returns (bool) {... */\n    tag_107:\n      swap3\n      swap2\n      pop\n      pop\n      jump\t// out\n        /* \"contracts/DuperToken_flattened.sol\":70713:70957  function transferFrom(address from, address to, uint256 value) public virtual returns (bool) {... */\n    tag_42:\n        /* \"contracts/DuperToken_flattened.sol\":70800:70804  bool */\n      0x00\n        /* \"contracts/DuperToken_flattened.sol\":59160:59170  msg.sender */\n      caller\n        /* \"contracts/DuperToken_flattened.sol\":70856:70893  _spendAllowance(from, spender, value) */\n      tag_115\n        /* \"contracts/DuperToken_flattened.sol\":70872:70876  from */\n      dup6\n        /* \"contracts/DuperToken_flattened.sol\":59160:59170  msg.sender */\n      dup3\n        /* \"contracts/DuperToken_flattened.sol\":70887:70892  value */\n      dup6\n        /* \"contracts/DuperToken_flattened.sol\":70856:70871  _spendAllowance */\n      tag_116\n        /* \"contracts/DuperToken_flattened.sol\":70856:70893  _spendAllowance(from, spender, value) */\n      jump\t// in\n    tag_115:\n        /* \"contracts/DuperToken_flattened.sol\":70903:70929  _transfer(from, to, value) */\n      tag_117\n        /* \"contracts/DuperToken_flattened.sol\":70913:70917  from */\n      dup6\n        /* \"contracts/DuperToken_flattened.sol\":70919:70921  to */\n      dup6\n        /* \"contracts/DuperToken_flattened.sol\":70923:70928  value */\n      dup6\n        /* \"contracts/DuperToken_flattened.sol\":70903:70912  _transfer */\n      tag_118\n        /* \"contracts/DuperToken_flattened.sol\":70903:70929  _transfer(from, to, value) */\n      jump\t// in\n    tag_117:\n      pop\n        /* \"contracts/DuperToken_flattened.sol\":70946:70950  true */\n      0x01\n      swap5\n        /* \"contracts/DuperToken_flattened.sol\":70713:70957  function transferFrom(address from, address to, uint256 value) public virtual returns (bool) {... */\n      swap4\n      pop\n      pop\n      pop\n      pop\n      jump\t// out\n        /* \"contracts/DuperToken_flattened.sol\":79261:79373  function DOMAIN_SEPARATOR() external view virtual returns (bytes32) {... */\n    tag_49:\n        /* \"contracts/DuperToken_flattened.sol\":79320:79327  bytes32 */\n      0x00\n        /* \"contracts/DuperToken_flattened.sol\":79346:79366  _domainSeparatorV4() */\n      tag_121\n        /* \"contracts/DuperToken_flattened.sol\":79346:79364  _domainSeparatorV4 */\n      tag_122\n        /* \"contracts/DuperToken_flattened.sol\":79346:79366  _domainSeparatorV4() */\n      jump\t// in\n    tag_121:\n        /* \"contracts/DuperToken_flattened.sol\":79339:79366  return _domainSeparatorV4() */\n      swap1\n      pop\n        /* \"contracts/DuperToken_flattened.sol\":79261:79373  function DOMAIN_SEPARATOR() external view virtual returns (bytes32) {... */\n      swap1\n      jump\t// out\n        /* \"contracts/DuperToken_flattened.sol\":80916:81009  function mint(address to, uint256 amount) public onlyOwner {... */\n    tag_54:\n        /* \"contracts/DuperToken_flattened.sol\":60793:60806  _checkOwner() */\n      tag_124\n        /* \"contracts/DuperToken_flattened.sol\":60793:60804  _checkOwner */\n      tag_125\n        /* \"contracts/DuperToken_flattened.sol\":60793:60806  _checkOwner() */\n      jump\t// in\n    tag_124:\n        /* \"contracts/DuperToken_flattened.sol\":80985:81002  _mint(to, amount) */\n      tag_127\n        /* \"contracts/DuperToken_flattened.sol\":80991:80993  to */\n      dup3\n        /* \"contracts/DuperToken_flattened.sol\":80995:81001  amount */\n      dup3\n        /* \"contracts/DuperToken_flattened.sol\":80985:80990  _mint */\n      tag_128\n        /* \"contracts/DuperToken_flattened.sol\":80985:81002  _mint(to, amount) */\n      jump\t// in\n    tag_127:\n        /* \"contracts/DuperToken_flattened.sol\":80916:81009  function mint(address to, uint256 amount) public onlyOwner {... */\n      pop\n      pop\n      jump\t// out\n        /* \"contracts/DuperToken_flattened.sol\":79952:80039  function burn(uint256 value) public virtual {... */\n    tag_58:\n        /* \"contracts/DuperToken_flattened.sol\":80006:80032  _burn(_msgSender(), value) */\n      tag_130\n        /* \"contracts/DuperToken_flattened.sol\":59160:59170  msg.sender */\n      caller\n        /* \"contracts/DuperToken_flattened.sol\":80026:80031  value */\n      dup3\n        /* \"contracts/DuperToken_flattened.sol\":80006:80011  _burn */\n      tag_132\n        /* \"contracts/DuperToken_flattened.sol\":80006:80032  _burn(_msgSender(), value) */\n      jump\t// in\n    tag_130:\n        /* \"contracts/DuperToken_flattened.sol\":79952:80039  function burn(uint256 value) public virtual {... */\n      pop\n      jump\t// out\n        /* \"contracts/DuperToken_flattened.sol\":61555:61656  function renounceOwnership() public virtual onlyOwner {... */\n    tag_65:\n        /* \"contracts/DuperToken_flattened.sol\":60793:60806  _checkOwner() */\n      tag_135\n        /* \"contracts/DuperToken_flattened.sol\":60793:60804  _checkOwner */\n      tag_125\n        /* \"contracts/DuperToken_flattened.sol\":60793:60806  _checkOwner() */\n      jump\t// in\n    tag_135:\n        /* \"contracts/DuperToken_flattened.sol\":61619:61649  _transferOwnership(address(0)) */\n      tag_137\n        /* \"contracts/DuperToken_flattened.sol\":61646:61647  0 */\n      0x00\n        /* \"contracts/DuperToken_flattened.sol\":61619:61637  _transferOwnership */\n      tag_138\n        /* \"contracts/DuperToken_flattened.sol\":61619:61649  _transferOwnership(address(0)) */\n      jump\t// in\n    tag_137:\n        /* \"contracts/DuperToken_flattened.sol\":61555:61656  function renounceOwnership() public virtual onlyOwner {... */\n      jump\t// out\n        /* \"contracts/DuperToken_flattened.sol\":80355:80513  function burnFrom(address account, uint256 value) public virtual {... */\n    tag_68:\n        /* \"contracts/DuperToken_flattened.sol\":80430:80475  _spendAllowance(account, _msgSender(), value) */\n      tag_140\n        /* \"contracts/DuperToken_flattened.sol\":80446:80453  account */\n      dup3\n        /* \"contracts/DuperToken_flattened.sol\":59160:59170  msg.sender */\n      caller\n        /* \"contracts/DuperToken_flattened.sol\":80469:80474  value */\n      dup4\n        /* \"contracts/DuperToken_flattened.sol\":80430:80445  _spendAllowance */\n      tag_116\n        /* \"contracts/DuperToken_flattened.sol\":80430:80475  _spendAllowance(account, _msgSender(), value) */\n      jump\t// in\n    tag_140:\n        /* \"contracts/DuperToken_flattened.sol\":80485:80506  _burn(account, value) */\n      tag_127\n        /* \"contracts/DuperToken_flattened.sol\":80491:80498  account */\n      dup3\n        /* \"contracts/DuperToken_flattened.sol\":80500:80505  value */\n      dup3\n        /* \"contracts/DuperToken_flattened.sol\":80485:80490  _burn */\n      tag_132\n        /* \"contracts/DuperToken_flattened.sol\":80485:80506  _burn(account, value) */\n      jump\t// in\n        /* \"contracts/DuperToken_flattened.sol\":79011:79154  function nonces(address owner) public view virtual override(IERC20Permit, Nonces) returns (uint256) {... */\n    tag_71:\n      sub(shl(0xa0, 0x01), 0x01)\n        /* \"contracts/DuperToken_flattened.sol\":645:659  _nonces[owner] */\n      dup2\n      and\n        /* \"contracts/DuperToken_flattened.sol\":79102:79109  uint256 */\n      0x00\n        /* \"contracts/DuperToken_flattened.sol\":645:659  _nonces[owner] */\n      swap1\n      dup2\n      mstore\n        /* \"contracts/DuperToken_flattened.sol\":645:652  _nonces */\n      0x08\n        /* \"contracts/DuperToken_flattened.sol\":645:659  _nonces[owner] */\n      0x20\n      mstore\n      0x40\n      dup2\n      keccak256\n      sload\n        /* \"contracts/DuperToken_flattened.sol\":79128:79147  super.nonces(owner) */\n      tag_107\n        /* \"contracts/DuperToken_flattened.sol\":559:666  function nonces(address owner) public view virtual returns (uint256) {... */\n      jump\n        /* \"contracts/DuperToken_flattened.sol\":38759:39316  function eip712Domain()... */\n    tag_74:\n        /* \"contracts/DuperToken_flattened.sol\":38857:38870  bytes1 fields */\n      0x00\n        /* \"contracts/DuperToken_flattened.sol\":38884:38902  string memory name */\n      0x60\n        /* \"contracts/DuperToken_flattened.sol\":38916:38937  string memory version */\n      dup1\n        /* \"contracts/DuperToken_flattened.sol\":38951:38966  uint256 chainId */\n      0x00\n        /* \"contracts/DuperToken_flattened.sol\":38980:39005  address verifyingContract */\n      dup1\n        /* \"contracts/DuperToken_flattened.sol\":39019:39031  bytes32 salt */\n      0x00\n        /* \"contracts/DuperToken_flattened.sol\":39045:39072  uint256[] memory extensions */\n      0x60\n        /* \"contracts/DuperToken_flattened.sol\":39148:39161  _EIP712Name() */\n      tag_147\n        /* \"contracts/DuperToken_flattened.sol\":39148:39159  _EIP712Name */\n      tag_148\n        /* \"contracts/DuperToken_flattened.sol\":39148:39161  _EIP712Name() */\n      jump\t// in\n    tag_147:\n        /* \"contracts/DuperToken_flattened.sol\":39175:39191  _EIP712Version() */\n      tag_149\n        /* \"contracts/DuperToken_flattened.sol\":39175:39189  _EIP712Version */\n      tag_150\n        /* \"contracts/DuperToken_flattened.sol\":39175:39191  _EIP712Version() */\n      jump\t// in\n    tag_149:\n        /* \"contracts/DuperToken_flattened.sol\":39283:39299  new uint256[](0) */\n      0x40\n      dup1\n      mload\n        /* \"contracts/DuperToken_flattened.sol\":39267:39268  0 */\n      0x00\n        /* \"contracts/DuperToken_flattened.sol\":39283:39299  new uint256[](0) */\n      dup1\n      dup3\n      mstore\n      0x20\n      dup3\n      add\n      swap1\n      swap3\n      mstore\n      shl(0xf8, 0x0f)\n        /* \"contracts/DuperToken_flattened.sol\":39097:39309  return (... */\n      swap12\n      swap4\n      swap11\n      pop\n      swap2\n      swap9\n      pop\n        /* \"contracts/DuperToken_flattened.sol\":39205:39218  block.chainid */\n      chainid\n      swap8\n      pop\n        /* \"contracts/DuperToken_flattened.sol\":39240:39244  this */\n      address\n      swap7\n      pop\n        /* \"contracts/DuperToken_flattened.sol\":39267:39268  0 */\n      swap5\n      pop\n        /* \"contracts/DuperToken_flattened.sol\":39283:39299  new uint256[](0) */\n      swap3\n      pop\n        /* \"contracts/DuperToken_flattened.sol\":39097:39309  return (... */\n      swap1\n      pop\n        /* \"contracts/DuperToken_flattened.sol\":38759:39316  function eip712Domain()... */\n      jump\t// out\n        /* \"contracts/DuperToken_flattened.sol\":67950:68043  function symbol() public view virtual returns (string memory) {... */\n    tag_82:\n        /* \"contracts/DuperToken_flattened.sol\":67997:68010  string memory */\n      0x60\n        /* \"contracts/DuperToken_flattened.sol\":68029:68036  _symbol */\n      0x04\n        /* \"contracts/DuperToken_flattened.sol\":68022:68036  return _symbol */\n      dup1\n      sload\n      tag_101\n      swap1\n      tag_102\n      jump\t// in\n        /* \"contracts/DuperToken_flattened.sol\":69284:69462  function transfer(address to, uint256 value) public virtual returns (bool) {... */\n    tag_86:\n        /* \"contracts/DuperToken_flattened.sol\":69353:69357  bool */\n      0x00\n        /* \"contracts/DuperToken_flattened.sol\":59160:59170  msg.sender */\n      caller\n        /* \"contracts/DuperToken_flattened.sol\":69407:69434  _transfer(owner, to, value) */\n      tag_110\n        /* \"contracts/DuperToken_flattened.sol\":59160:59170  msg.sender */\n      dup2\n        /* \"contracts/DuperToken_flattened.sol\":69424:69426  to */\n      dup6\n        /* \"contracts/DuperToken_flattened.sol\":69428:69433  value */\n      dup6\n        /* \"contracts/DuperToken_flattened.sol\":69407:69416  _transfer */\n      tag_118\n        /* \"contracts/DuperToken_flattened.sol\":69407:69434  _transfer(owner, to, value) */\n      jump\t// in\n        /* \"contracts/DuperToken_flattened.sol\":78285:78957  function permit(... */\n    tag_91:\n        /* \"contracts/DuperToken_flattened.sol\":78506:78514  deadline */\n      dup4\n        /* \"contracts/DuperToken_flattened.sol\":78488:78503  block.timestamp */\n      timestamp\n        /* \"contracts/DuperToken_flattened.sol\":78488:78514  block.timestamp > deadline */\n      gt\n        /* \"contracts/DuperToken_flattened.sol\":78484:78581  if (block.timestamp > deadline) {... */\n      iszero\n      tag_166\n      jumpi\n        /* \"contracts/DuperToken_flattened.sol\":78537:78570  ERC2612ExpiredSignature(deadline) */\n      mload(0x40)\n      shl(0xe1, 0x313c8981)\n      dup2\n      mstore\n      0x04\n      dup2\n      add\n        /* \"#utility.yul\":1442:1467   */\n      dup6\n      swap1\n      mstore\n        /* \"#utility.yul\":1415:1433   */\n      0x24\n      add\n        /* \"contracts/DuperToken_flattened.sol\":78537:78570  ERC2612ExpiredSignature(deadline) */\n    tag_167:\n      mload(0x40)\n      dup1\n      swap2\n      sub\n      swap1\n      revert\n        /* \"contracts/DuperToken_flattened.sol\":78484:78581  if (block.timestamp > deadline) {... */\n    tag_166:\n        /* \"contracts/DuperToken_flattened.sol\":78591:78609  bytes32 structHash */\n      0x00\n        /* \"contracts/DuperToken_flattened.sol\":77627:77722  keccak256(\"Permit(address owner,address spender,uint256 value,uint256 nonce,uint256 deadline)\") */\n      0x6e71edae12b1b97f4d1f60370fef10105fa2faae0126114a169c64845d6126c9\n        /* \"contracts/DuperToken_flattened.sol\":78650:78655  owner */\n      dup9\n        /* \"contracts/DuperToken_flattened.sol\":78657:78664  spender */\n      dup9\n        /* \"contracts/DuperToken_flattened.sol\":78666:78671  value */\n      dup9\n        /* \"contracts/DuperToken_flattened.sol\":78673:78689  _useNonce(owner) */\n      tag_168\n        /* \"contracts/DuperToken_flattened.sol\":78683:78688  owner */\n      dup13\n      sub(shl(0xa0, 0x01), 0x01)\n        /* \"contracts/DuperToken_flattened.sol\":1142:1156  _nonces[owner] */\n      and\n        /* \"contracts/DuperToken_flattened.sol\":840:847  uint256 */\n      0x00\n        /* \"contracts/DuperToken_flattened.sol\":1142:1156  _nonces[owner] */\n      swap1\n      dup2\n      mstore\n        /* \"contracts/DuperToken_flattened.sol\":1142:1149  _nonces */\n      0x08\n        /* \"contracts/DuperToken_flattened.sol\":1142:1156  _nonces[owner] */\n      0x20\n      mstore\n      0x40\n      swap1\n      keccak256\n        /* \"contracts/DuperToken_flattened.sol\":1142:1158  _nonces[owner]++ */\n      dup1\n      sload\n      0x01\n      dup2\n      add\n      swap1\n      swap2\n      sstore\n      swap1\n        /* \"contracts/DuperToken_flattened.sol\":780:1175  function _useNonce(address owner) internal virtual returns (uint256) {... */\n      jump\n        /* \"contracts/DuperToken_flattened.sol\":78673:78689  _useNonce(owner) */\n    tag_168:\n        /* \"contracts/DuperToken_flattened.sol\":78622:78700  abi.encode(PERMIT_TYPEHASH, owner, spender, value, _useNonce(owner), deadline) */\n      0x40\n      dup1\n      mload\n      0x20\n      dup2\n      add\n        /* \"#utility.yul\":5797:5822   */\n      swap7\n      swap1\n      swap7\n      mstore\n      sub(shl(0xa0, 0x01), 0x01)\n        /* \"#utility.yul\":5896:5911   */\n      swap5\n      dup6\n      and\n        /* \"#utility.yul\":5876:5894   */\n      swap1\n      dup7\n      add\n        /* \"#utility.yul\":5869:5912   */\n      mstore\n        /* \"#utility.yul\":5948:5963   */\n      swap3\n      swap1\n      swap2\n      and\n        /* \"#utility.yul\":5928:5946   */\n      0x60\n      dup5\n      add\n        /* \"#utility.yul\":5921:5964   */\n      mstore\n        /* \"#utility.yul\":5980:5998   */\n      0x80\n      dup4\n      add\n        /* \"#utility.yul\":5973:6007   */\n      mstore\n        /* \"#utility.yul\":6023:6042   */\n      0xa0\n      dup3\n      add\n        /* \"#utility.yul\":6016:6051   */\n      mstore\n        /* \"#utility.yul\":6067:6086   */\n      0xc0\n      dup2\n      add\n        /* \"#utility.yul\":6060:6095   */\n      dup7\n      swap1\n      mstore\n        /* \"#utility.yul\":5769:5788   */\n      0xe0\n      add\n        /* \"contracts/DuperToken_flattened.sol\":78622:78700  abi.encode(PERMIT_TYPEHASH, owner, spender, value, _useNonce(owner), deadline) */\n      mload(0x40)\n      0x20\n      dup2\n      dup4\n      sub\n      sub\n      dup2\n      mstore\n      swap1\n      0x40\n      mstore\n        /* \"contracts/DuperToken_flattened.sol\":78612:78701  keccak256(abi.encode(PERMIT_TYPEHASH, owner, spender, value, _useNonce(owner), deadline)) */\n      dup1\n      mload\n      swap1\n      0x20\n      add\n      keccak256\n        /* \"contracts/DuperToken_flattened.sol\":78591:78701  bytes32 structHash = keccak256(abi.encode(PERMIT_TYPEHASH, owner, spender, value, _useNonce(owner), deadline)) */\n      swap1\n      pop\n        /* \"contracts/DuperToken_flattened.sol\":78712:78724  bytes32 hash */\n      0x00\n        /* \"contracts/DuperToken_flattened.sol\":78727:78755  _hashTypedDataV4(structHash) */\n      tag_172\n        /* \"contracts/DuperToken_flattened.sol\":78744:78754  structHash */\n      dup3\n        /* \"contracts/DuperToken_flattened.sol\":78727:78743  _hashTypedDataV4 */\n      tag_173\n        /* \"contracts/DuperToken_flattened.sol\":78727:78755  _hashTypedDataV4(structHash) */\n      jump\t// in\n    tag_172:\n        /* \"contracts/DuperToken_flattened.sol\":78712:78755  bytes32 hash = _hashTypedDataV4(structHash) */\n      swap1\n      pop\n        /* \"contracts/DuperToken_flattened.sol\":78766:78780  address signer */\n      0x00\n        /* \"contracts/DuperToken_flattened.sol\":78783:78811  ECDSA.recover(hash, v, r, s) */\n      tag_174\n        /* \"contracts/DuperToken_flattened.sol\":78797:78801  hash */\n      dup3\n        /* \"contracts/DuperToken_flattened.sol\":78803:78804  v */\n      dup8\n        /* \"contracts/DuperToken_flattened.sol\":78806:78807  r */\n      dup8\n        /* \"contracts/DuperToken_flattened.sol\":78809:78810  s */\n      dup8\n        /* \"contracts/DuperToken_flattened.sol\":78783:78796  ECDSA.recover */\n      tag_175\n        /* \"contracts/DuperToken_flattened.sol\":78783:78811  ECDSA.recover(hash, v, r, s) */\n      jump\t// in\n    tag_174:\n        /* \"contracts/DuperToken_flattened.sol\":78766:78811  address signer = ECDSA.recover(hash, v, r, s) */\n      swap1\n      pop\n        /* \"contracts/DuperToken_flattened.sol\":78835:78840  owner */\n      dup10\n      sub(shl(0xa0, 0x01), 0x01)\n        /* \"contracts/DuperToken_flattened.sol\":78825:78840  signer != owner */\n      and\n        /* \"contracts/DuperToken_flattened.sol\":78825:78831  signer */\n      dup2\n      sub(shl(0xa0, 0x01), 0x01)\n        /* \"contracts/DuperToken_flattened.sol\":78825:78840  signer != owner */\n      and\n      eq\n        /* \"contracts/DuperToken_flattened.sol\":78821:78909  if (signer != owner) {... */\n      tag_176\n      jumpi\n        /* \"contracts/DuperToken_flattened.sol\":78863:78898  ERC2612InvalidSigner(signer, owner) */\n      mload(0x40)\n      shl(0xe1, 0x25c00723)\n      dup2\n      mstore\n      sub(shl(0xa0, 0x01), 0x01)\n        /* \"#utility.yul\":6336:6351   */\n      dup1\n      dup4\n      and\n        /* \"contracts/DuperToken_flattened.sol\":78863:78898  ERC2612InvalidSigner(signer, owner) */\n      0x04\n      dup4\n      add\n        /* \"#utility.yul\":6318:6352   */\n      mstore\n        /* \"#utility.yul\":6388:6403   */\n      dup12\n      and\n        /* \"#utility.yul\":6368:6386   */\n      0x24\n      dup3\n      add\n        /* \"#utility.yul\":6361:6404   */\n      mstore\n        /* \"#utility.yul\":6253:6271   */\n      0x44\n      add\n        /* \"contracts/DuperToken_flattened.sol\":78863:78898  ERC2612InvalidSigner(signer, owner) */\n      tag_167\n        /* \"#utility.yul\":6106:6410   */\n      jump\n        /* \"contracts/DuperToken_flattened.sol\":78821:78909  if (signer != owner) {... */\n    tag_176:\n        /* \"contracts/DuperToken_flattened.sol\":78919:78950  _approve(owner, spender, value) */\n      tag_179\n        /* \"contracts/DuperToken_flattened.sol\":78928:78933  owner */\n      dup11\n        /* \"contracts/DuperToken_flattened.sol\":78935:78942  spender */\n      dup11\n        /* \"contracts/DuperToken_flattened.sol\":78944:78949  value */\n      dup11\n        /* \"contracts/DuperToken_flattened.sol\":78919:78927  _approve */\n      tag_111\n        /* \"contracts/DuperToken_flattened.sol\":78919:78950  _approve(owner, spender, value) */\n      jump\t// in\n    tag_179:\n        /* \"contracts/DuperToken_flattened.sol\":78474:78957  {... */\n      pop\n      pop\n      pop\n        /* \"contracts/DuperToken_flattened.sol\":78285:78957  function permit(... */\n      pop\n      pop\n      pop\n      pop\n      pop\n      pop\n      pop\n      jump\t// out\n        /* \"contracts/DuperToken_flattened.sol\":61805:62020  function transferOwnership(address newOwner) public virtual onlyOwner {... */\n    tag_99:\n        /* \"contracts/DuperToken_flattened.sol\":60793:60806  _checkOwner() */\n      tag_182\n        /* \"contracts/DuperToken_flattened.sol\":60793:60804  _checkOwner */\n      tag_125\n        /* \"contracts/DuperToken_flattened.sol\":60793:60806  _checkOwner() */\n      jump\t// in\n    tag_182:\n      sub(shl(0xa0, 0x01), 0x01)\n        /* \"contracts/DuperToken_flattened.sol\":61889:61911  newOwner == address(0) */\n      dup2\n      and\n        /* \"contracts/DuperToken_flattened.sol\":61885:61976  if (newOwner == address(0)) {... */\n      tag_184\n      jumpi\n        /* \"contracts/DuperToken_flattened.sol\":61934:61965  OwnableInvalidOwner(address(0)) */\n      mload(0x40)\n      shl(0xe0, 0x1e4fbdf7)\n      dup2\n      mstore\n        /* \"contracts/DuperToken_flattened.sol\":61962:61963  0 */\n      0x00\n        /* \"contracts/DuperToken_flattened.sol\":61934:61965  OwnableInvalidOwner(address(0)) */\n      0x04\n      dup3\n      add\n        /* \"#utility.yul\":3968:4019   */\n      mstore\n        /* \"#utility.yul\":3941:3959   */\n      0x24\n      add\n        /* \"contracts/DuperToken_flattened.sol\":61934:61965  OwnableInvalidOwner(address(0)) */\n      tag_167\n        /* \"#utility.yul\":3822:4025   */\n      jump\n        /* \"contracts/DuperToken_flattened.sol\":61885:61976  if (newOwner == address(0)) {... */\n    tag_184:\n        /* \"contracts/DuperToken_flattened.sol\":61985:62013  _transferOwnership(newOwner) */\n      tag_130\n        /* \"contracts/DuperToken_flattened.sol\":62004:62012  newOwner */\n      dup2\n        /* \"contracts/DuperToken_flattened.sol\":61985:62003  _transferOwnership */\n      tag_138\n        /* \"contracts/DuperToken_flattened.sol\":61985:62013  _transferOwnership(newOwner) */\n      jump\t// in\n        /* \"contracts/DuperToken_flattened.sol\":74663:74791  function _approve(address owner, address spender, uint256 value) internal {... */\n    tag_111:\n        /* \"contracts/DuperToken_flattened.sol\":74747:74784  _approve(owner, spender, value, true) */\n      tag_189\n        /* \"contracts/DuperToken_flattened.sol\":74756:74761  owner */\n      dup4\n        /* \"contracts/DuperToken_flattened.sol\":74763:74770  spender */\n      dup4\n        /* \"contracts/DuperToken_flattened.sol\":74772:74777  value */\n      dup4\n        /* \"contracts/DuperToken_flattened.sol\":74779:74783  true */\n      0x01\n        /* \"contracts/DuperToken_flattened.sol\":74747:74755  _approve */\n      tag_190\n        /* \"contracts/DuperToken_flattened.sol\":74747:74784  _approve(owner, spender, value, true) */\n      jump\t// in\n    tag_189:\n        /* \"contracts/DuperToken_flattened.sol\":74663:74791  function _approve(address owner, address spender, uint256 value) internal {... */\n      pop\n      pop\n      pop\n      jump\t// out\n        /* \"contracts/DuperToken_flattened.sol\":76337:76814  function _spendAllowance(address owner, address spender, uint256 value) internal virtual {... */\n    tag_116:\n      sub(shl(0xa0, 0x01), 0x01)\n        /* \"contracts/DuperToken_flattened.sol\":69626:69644  _allowances[owner] */\n      dup4\n      dup2\n      and\n        /* \"contracts/DuperToken_flattened.sol\":76436:76460  uint256 currentAllowance */\n      0x00\n        /* \"contracts/DuperToken_flattened.sol\":69626:69644  _allowances[owner] */\n      swap1\n      dup2\n      mstore\n        /* \"contracts/DuperToken_flattened.sol\":69626:69637  _allowances */\n      0x01\n        /* \"contracts/DuperToken_flattened.sol\":69626:69644  _allowances[owner] */\n      0x20\n      swap1\n      dup2\n      mstore\n      0x40\n      dup1\n      dup4\n      keccak256\n        /* \"contracts/DuperToken_flattened.sol\":69626:69653  _allowances[owner][spender] */\n      swap4\n      dup7\n      and\n      dup4\n      mstore\n      swap3\n      swap1\n      mstore\n      keccak256\n      sload\n      not(0x00)\n        /* \"contracts/DuperToken_flattened.sol\":76502:76539  currentAllowance != type(uint256).max */\n      dup2\n      eq\n        /* \"contracts/DuperToken_flattened.sol\":76498:76808  if (currentAllowance != type(uint256).max) {... */\n      tag_197\n      jumpi\n        /* \"contracts/DuperToken_flattened.sol\":76578:76583  value */\n      dup2\n        /* \"contracts/DuperToken_flattened.sol\":76559:76575  currentAllowance */\n      dup2\n        /* \"contracts/DuperToken_flattened.sol\":76559:76583  currentAllowance < value */\n      lt\n        /* \"contracts/DuperToken_flattened.sol\":76555:76685  if (currentAllowance < value) {... */\n      iszero\n      tag_194\n      jumpi\n        /* \"contracts/DuperToken_flattened.sol\":76610:76670  ERC20InsufficientAllowance(spender, currentAllowance, value) */\n      mload(0x40)\n      shl(0xe1, 0x7dc7a0d9)\n      dup2\n      mstore\n      sub(shl(0xa0, 0x01), 0x01)\n        /* \"#utility.yul\":6635:6667   */\n      dup5\n      and\n        /* \"contracts/DuperToken_flattened.sol\":76610:76670  ERC20InsufficientAllowance(spender, currentAllowance, value) */\n      0x04\n      dup3\n      add\n        /* \"#utility.yul\":6617:6668   */\n      mstore\n        /* \"#utility.yul\":6684:6702   */\n      0x24\n      dup2\n      add\n        /* \"#utility.yul\":6677:6711   */\n      dup3\n      swap1\n      mstore\n        /* \"#utility.yul\":6727:6745   */\n      0x44\n      dup2\n      add\n        /* \"#utility.yul\":6720:6754   */\n      dup4\n      swap1\n      mstore\n        /* \"#utility.yul\":6590:6608   */\n      0x64\n      add\n        /* \"contracts/DuperToken_flattened.sol\":76610:76670  ERC20InsufficientAllowance(spender, currentAllowance, value) */\n      tag_167\n        /* \"#utility.yul\":6415:6760   */\n      jump\n        /* \"contracts/DuperToken_flattened.sol\":76555:76685  if (currentAllowance < value) {... */\n    tag_194:\n        /* \"contracts/DuperToken_flattened.sol\":76726:76783  _approve(owner, spender, currentAllowance - value, false) */\n      tag_197\n        /* \"contracts/DuperToken_flattened.sol\":76735:76740  owner */\n      dup5\n        /* \"contracts/DuperToken_flattened.sol\":76742:76749  spender */\n      dup5\n        /* \"contracts/DuperToken_flattened.sol\":76770:76775  value */\n      dup5\n        /* \"contracts/DuperToken_flattened.sol\":76751:76767  currentAllowance */\n      dup5\n        /* \"contracts/DuperToken_flattened.sol\":76751:76775  currentAllowance - value */\n      sub\n        /* \"contracts/DuperToken_flattened.sol\":76777:76782  false */\n      0x00\n        /* \"contracts/DuperToken_flattened.sol\":76726:76734  _approve */\n      tag_190\n        /* \"contracts/DuperToken_flattened.sol\":76726:76783  _approve(owner, spender, currentAllowance - value, false) */\n      jump\t// in\n    tag_197:\n        /* \"contracts/DuperToken_flattened.sol\":76426:76814  {... */\n      pop\n        /* \"contracts/DuperToken_flattened.sol\":76337:76814  function _spendAllowance(address owner, address spender, uint256 value) internal virtual {... */\n      pop\n      pop\n      pop\n      jump\t// out\n        /* \"contracts/DuperToken_flattened.sol\":71330:71630  function _transfer(address from, address to, uint256 value) internal {... */\n    tag_118:\n      sub(shl(0xa0, 0x01), 0x01)\n        /* \"contracts/DuperToken_flattened.sol\":71413:71431  from == address(0) */\n      dup4\n      and\n        /* \"contracts/DuperToken_flattened.sol\":71409:71495  if (from == address(0)) {... */\n      tag_199\n      jumpi\n        /* \"contracts/DuperToken_flattened.sol\":71454:71484  ERC20InvalidSender(address(0)) */\n      mload(0x40)\n      shl(0xe1, 0x4b637e8f)\n      dup2\n      mstore\n        /* \"contracts/DuperToken_flattened.sol\":71481:71482  0 */\n      0x00\n        /* \"contracts/DuperToken_flattened.sol\":71454:71484  ERC20InvalidSender(address(0)) */\n      0x04\n      dup3\n      add\n        /* \"#utility.yul\":3968:4019   */\n      mstore\n        /* \"#utility.yul\":3941:3959   */\n      0x24\n      add\n        /* \"contracts/DuperToken_flattened.sol\":71454:71484  ERC20InvalidSender(address(0)) */\n      tag_167\n        /* \"#utility.yul\":3822:4025   */\n      jump\n        /* \"contracts/DuperToken_flattened.sol\":71409:71495  if (from == address(0)) {... */\n    tag_199:\n      sub(shl(0xa0, 0x01), 0x01)\n        /* \"contracts/DuperToken_flattened.sol\":71508:71524  to == address(0) */\n      dup3\n      and\n        /* \"contracts/DuperToken_flattened.sol\":71504:71590  if (to == address(0)) {... */\n      tag_201\n      jumpi\n        /* \"contracts/DuperToken_flattened.sol\":71547:71579  ERC20InvalidReceiver(address(0)) */\n      mload(0x40)\n      shl(0xe0, 0xec442f05)\n      dup2\n      mstore\n        /* \"contracts/DuperToken_flattened.sol\":71576:71577  0 */\n      0x00\n        /* \"contracts/DuperToken_flattened.sol\":71547:71579  ERC20InvalidReceiver(address(0)) */\n      0x04\n      dup3\n      add\n        /* \"#utility.yul\":3968:4019   */\n      mstore\n        /* \"#utility.yul\":3941:3959   */\n      0x24\n      add\n        /* \"contracts/DuperToken_flattened.sol\":71547:71579  ERC20InvalidReceiver(address(0)) */\n      tag_167\n        /* \"#utility.yul\":3822:4025   */\n      jump\n        /* \"contracts/DuperToken_flattened.sol\":71504:71590  if (to == address(0)) {... */\n    tag_201:\n        /* \"contracts/DuperToken_flattened.sol\":71599:71623  _update(from, to, value) */\n      tag_189\n        /* \"contracts/DuperToken_flattened.sol\":71607:71611  from */\n      dup4\n        /* \"contracts/DuperToken_flattened.sol\":71613:71615  to */\n      dup4\n        /* \"contracts/DuperToken_flattened.sol\":71617:71622  value */\n      dup4\n        /* \"contracts/DuperToken_flattened.sol\":71599:71606  _update */\n      tag_204\n        /* \"contracts/DuperToken_flattened.sol\":71599:71623  _update(from, to, value) */\n      jump\t// in\n        /* \"contracts/DuperToken_flattened.sol\":37460:37722  function _domainSeparatorV4() internal view returns (bytes32) {... */\n    tag_122:\n        /* \"contracts/DuperToken_flattened.sol\":37513:37520  bytes32 */\n      0x00\n        /* \"contracts/DuperToken_flattened.sol\":37544:37548  this */\n      address\n      sub(shl(0xa0, 0x01), 0x01)\n        /* \"contracts/DuperToken_flattened.sol\":37553:37564  _cachedThis */\n      immutable(\"0xf2aed5d52b85e7b229d9a0bb201e12bdcbbc5fc133feb54c1cb531c3f7cf58ed\")\n        /* \"contracts/DuperToken_flattened.sol\":37536:37564  address(this) == _cachedThis */\n      and\n      eq\n        /* \"contracts/DuperToken_flattened.sol\":37536:37599  address(this) == _cachedThis && block.chainid == _cachedChainId */\n      dup1\n      iszero\n      tag_206\n      jumpi\n      pop\n        /* \"contracts/DuperToken_flattened.sol\":37585:37599  _cachedChainId */\n      immutable(\"0x89dda32db2afb3470ad3a855ff08175ef365ece0147067a2a9b89c9351412201\")\n        /* \"contracts/DuperToken_flattened.sol\":37568:37581  block.chainid */\n      chainid\n        /* \"contracts/DuperToken_flattened.sol\":37568:37599  block.chainid == _cachedChainId */\n      eq\n        /* \"contracts/DuperToken_flattened.sol\":37536:37599  address(this) == _cachedThis && block.chainid == _cachedChainId */\n    tag_206:\n        /* \"contracts/DuperToken_flattened.sol\":37532:37716  if (address(this) == _cachedThis && block.chainid == _cachedChainId) {... */\n      iszero\n      tag_207\n      jumpi\n      pop\n        /* \"contracts/DuperToken_flattened.sol\":37622:37644  _cachedDomainSeparator */\n      immutable(\"0x3f9e555adc0bedaea160f26d13d68ea1bde6a5a9af64af415bccce823c8f9ad8\")\n      swap1\n        /* \"contracts/DuperToken_flattened.sol\":37460:37722  function _domainSeparatorV4() internal view returns (bytes32) {... */\n      jump\t// out\n        /* \"contracts/DuperToken_flattened.sol\":37532:37716  if (address(this) == _cachedThis && block.chainid == _cachedChainId) {... */\n    tag_207:\n        /* \"contracts/DuperToken_flattened.sol\":37682:37705  _buildDomainSeparator() */\n      tag_121\n        /* \"contracts/DuperToken_flattened.sol\":37819:37899  abi.encode(TYPE_HASH, _hashedName, _hashedVersion, block.chainid, address(this)) */\n      0x40\n      dup1\n      mload\n        /* \"contracts/DuperToken_flattened.sol\":35694:35789  keccak256(\"EIP712Domain(string name,string version,uint256 chainId,address verifyingContract)\") */\n      0x8b73c3c69bb8fe3d512ecc4cf759cc79239f7b179b0ffacaa9a75d522b39400f\n        /* \"contracts/DuperToken_flattened.sol\":37819:37899  abi.encode(TYPE_HASH, _hashedName, _hashedVersion, block.chainid, address(this)) */\n      0x20\n      dup3\n      add\n        /* \"#utility.yul\":7251:7276   */\n      mstore\n        /* \"contracts/DuperToken_flattened.sol\":37841:37852  _hashedName */\n      immutable(\"0xf9ba965def30954c13b9f17655d4bfcf079e819f9cc42b75928cd97e2c9f9020\")\n        /* \"#utility.yul\":7292:7310   */\n      swap2\n      dup2\n      add\n        /* \"#utility.yul\":7285:7319   */\n      swap2\n      swap1\n      swap2\n      mstore\n        /* \"contracts/DuperToken_flattened.sol\":37854:37868  _hashedVersion */\n      immutable(\"0x5444bf99e2aaa84d0c0adba4902ca441e981a14d987060ddd53a6e4272e74bca\")\n        /* \"#utility.yul\":7335:7353   */\n      0x60\n      dup3\n      add\n        /* \"#utility.yul\":7328:7362   */\n      mstore\n        /* \"contracts/DuperToken_flattened.sol\":37870:37883  block.chainid */\n      chainid\n        /* \"#utility.yul\":7378:7396   */\n      0x80\n      dup3\n      add\n        /* \"#utility.yul\":7371:7405   */\n      mstore\n        /* \"contracts/DuperToken_flattened.sol\":37893:37897  this */\n      address\n        /* \"#utility.yul\":7421:7440   */\n      0xa0\n      dup3\n      add\n        /* \"#utility.yul\":7414:7475   */\n      mstore\n        /* \"contracts/DuperToken_flattened.sol\":37783:37790  bytes32 */\n      0x00\n      swap1\n        /* \"#utility.yul\":7223:7242   */\n      0xc0\n      add\n        /* \"contracts/DuperToken_flattened.sol\":37819:37899  abi.encode(TYPE_HASH, _hashedName, _hashedVersion, block.chainid, address(this)) */\n      mload(0x40)\n      0x20\n      dup2\n      dup4\n      sub\n      sub\n      dup2\n      mstore\n      swap1\n      0x40\n      mstore\n        /* \"contracts/DuperToken_flattened.sol\":37809:37900  keccak256(abi.encode(TYPE_HASH, _hashedName, _hashedVersion, block.chainid, address(this))) */\n      dup1\n      mload\n      swap1\n      0x20\n      add\n      keccak256\n        /* \"contracts/DuperToken_flattened.sol\":37802:37900  return keccak256(abi.encode(TYPE_HASH, _hashedName, _hashedVersion, block.chainid, address(this))) */\n      swap1\n      pop\n        /* \"contracts/DuperToken_flattened.sol\":37728:37907  function _buildDomainSeparator() private view returns (bytes32) {... */\n      swap1\n      jump\n        /* \"contracts/DuperToken_flattened.sol\":61058:61220  function _checkOwner() internal view virtual {... */\n    tag_125:\n        /* \"contracts/DuperToken_flattened.sol\":60972:60978  _owner */\n      and(sub(shl(0xa0, 0x01), 0x01), sload(0x05))\n        /* \"contracts/DuperToken_flattened.sol\":59160:59170  msg.sender */\n      caller\n        /* \"contracts/DuperToken_flattened.sol\":61117:61140  owner() != _msgSender() */\n      eq\n        /* \"contracts/DuperToken_flattened.sol\":61113:61214  if (owner() != _msgSender()) {... */\n      tag_137\n      jumpi\n        /* \"contracts/DuperToken_flattened.sol\":61163:61203  OwnableUnauthorizedAccount(_msgSender()) */\n      mload(0x40)\n      shl(0xe0, 0x118cdaa7)\n      dup2\n      mstore\n        /* \"contracts/DuperToken_flattened.sol\":59160:59170  msg.sender */\n      caller\n        /* \"contracts/DuperToken_flattened.sol\":61163:61203  OwnableUnauthorizedAccount(_msgSender()) */\n      0x04\n      dup3\n      add\n        /* \"#utility.yul\":3968:4019   */\n      mstore\n        /* \"#utility.yul\":3941:3959   */\n      0x24\n      add\n        /* \"contracts/DuperToken_flattened.sol\":61163:61203  OwnableUnauthorizedAccount(_msgSender()) */\n      tag_167\n        /* \"#utility.yul\":3822:4025   */\n      jump\n        /* \"contracts/DuperToken_flattened.sol\":73395:73603  function _mint(address account, uint256 value) internal {... */\n    tag_128:\n      sub(shl(0xa0, 0x01), 0x01)\n        /* \"contracts/DuperToken_flattened.sol\":73465:73486  account == address(0) */\n      dup3\n      and\n        /* \"contracts/DuperToken_flattened.sol\":73461:73552  if (account == address(0)) {... */\n      tag_218\n      jumpi\n        /* \"contracts/DuperToken_flattened.sol\":73509:73541  ERC20InvalidReceiver(address(0)) */\n      mload(0x40)\n      shl(0xe0, 0xec442f05)\n      dup2\n      mstore\n        /* \"contracts/DuperToken_flattened.sol\":73538:73539  0 */\n      0x00\n        /* \"contracts/DuperToken_flattened.sol\":73509:73541  ERC20InvalidReceiver(address(0)) */\n      0x04\n      dup3\n      add\n        /* \"#utility.yul\":3968:4019   */\n      mstore\n        /* \"#utility.yul\":3941:3959   */\n      0x24\n      add\n        /* \"contracts/DuperToken_flattened.sol\":73509:73541  ERC20InvalidReceiver(address(0)) */\n      tag_167\n        /* \"#utility.yul\":3822:4025   */\n      jump\n        /* \"contracts/DuperToken_flattened.sol\":73461:73552  if (account == address(0)) {... */\n    tag_218:\n        /* \"contracts/DuperToken_flattened.sol\":73561:73596  _update(address(0), account, value) */\n      tag_127\n        /* \"contracts/DuperToken_flattened.sol\":73577:73578  0 */\n      0x00\n        /* \"contracts/DuperToken_flattened.sol\":73581:73588  account */\n      dup4\n        /* \"contracts/DuperToken_flattened.sol\":73590:73595  value */\n      dup4\n        /* \"contracts/DuperToken_flattened.sol\":73561:73568  _update */\n      tag_204\n        /* \"contracts/DuperToken_flattened.sol\":73561:73596  _update(address(0), account, value) */\n      jump\t// in\n        /* \"contracts/DuperToken_flattened.sol\":73921:74127  function _burn(address account, uint256 value) internal {... */\n    tag_132:\n      sub(shl(0xa0, 0x01), 0x01)\n        /* \"contracts/DuperToken_flattened.sol\":73991:74012  account == address(0) */\n      dup3\n      and\n        /* \"contracts/DuperToken_flattened.sol\":73987:74076  if (account == address(0)) {... */\n      tag_222\n      jumpi\n        /* \"contracts/DuperToken_flattened.sol\":74035:74065  ERC20InvalidSender(address(0)) */\n      mload(0x40)\n      shl(0xe1, 0x4b637e8f)\n      dup2\n      mstore\n        /* \"contracts/DuperToken_flattened.sol\":74062:74063  0 */\n      0x00\n        /* \"contracts/DuperToken_flattened.sol\":74035:74065  ERC20InvalidSender(address(0)) */\n      0x04\n      dup3\n      add\n        /* \"#utility.yul\":3968:4019   */\n      mstore\n        /* \"#utility.yul\":3941:3959   */\n      0x24\n      add\n        /* \"contracts/DuperToken_flattened.sol\":74035:74065  ERC20InvalidSender(address(0)) */\n      tag_167\n        /* \"#utility.yul\":3822:4025   */\n      jump\n        /* \"contracts/DuperToken_flattened.sol\":73987:74076  if (account == address(0)) {... */\n    tag_222:\n        /* \"contracts/DuperToken_flattened.sol\":74085:74120  _update(account, address(0), value) */\n      tag_127\n        /* \"contracts/DuperToken_flattened.sol\":74093:74100  account */\n      dup3\n        /* \"contracts/DuperToken_flattened.sol\":74110:74111  0 */\n      0x00\n        /* \"contracts/DuperToken_flattened.sol\":74114:74119  value */\n      dup4\n        /* \"contracts/DuperToken_flattened.sol\":74085:74092  _update */\n      tag_204\n        /* \"contracts/DuperToken_flattened.sol\":74085:74120  _update(account, address(0), value) */\n      jump\t// in\n        /* \"contracts/DuperToken_flattened.sol\":62174:62361  function _transferOwnership(address newOwner) internal virtual {... */\n    tag_138:\n        /* \"contracts/DuperToken_flattened.sol\":62266:62272  _owner */\n      0x05\n      dup1\n      sload\n      sub(shl(0xa0, 0x01), 0x01)\n        /* \"contracts/DuperToken_flattened.sol\":62282:62299  _owner = newOwner */\n      dup4\n      dup2\n      and\n      not(sub(shl(0xa0, 0x01), 0x01))\n      dup4\n      and\n      dup2\n      or\n      swap1\n      swap4\n      sstore\n        /* \"contracts/DuperToken_flattened.sol\":62314:62354  OwnershipTransferred(oldOwner, newOwner) */\n      mload(0x40)\n        /* \"contracts/DuperToken_flattened.sol\":62266:62272  _owner */\n      swap2\n      and\n      swap2\n        /* \"contracts/DuperToken_flattened.sol\":62282:62299  _owner = newOwner */\n      swap1\n        /* \"contracts/DuperToken_flattened.sol\":62266:62272  _owner */\n      dup3\n      swap1\n        /* \"contracts/DuperToken_flattened.sol\":62314:62354  OwnershipTransferred(oldOwner, newOwner) */\n      0x8be0079c531659141344cd1fd0a4f28419497f9722a3daafe3b4186f6b6457e0\n      swap1\n        /* \"contracts/DuperToken_flattened.sol\":62247:62263  address oldOwner */\n      0x00\n      swap1\n        /* \"contracts/DuperToken_flattened.sol\":62314:62354  OwnershipTransferred(oldOwner, newOwner) */\n      log3\n        /* \"contracts/DuperToken_flattened.sol\":62237:62361  {... */\n      pop\n        /* \"contracts/DuperToken_flattened.sol\":62174:62361  function _transferOwnership(address newOwner) internal virtual {... */\n      pop\n      jump\t// out\n        /* \"contracts/DuperToken_flattened.sol\":39636:39762  function _EIP712Name() internal view returns (string memory) {... */\n    tag_148:\n        /* \"contracts/DuperToken_flattened.sol\":39682:39695  string memory */\n      0x60\n        /* \"contracts/DuperToken_flattened.sol\":39714:39755  _name.toStringWithFallback(_nameFallback) */\n      tag_121\n        /* \"contracts/DuperToken_flattened.sol\":39714:39719  _name */\n      immutable(\"0xa7cd0fec000bc9bc829eee3f19124c6d92f9bf03bc5604d586b7a9d0b7293aeb\")\n        /* \"contracts/DuperToken_flattened.sol\":39741:39754  _nameFallback */\n      0x06\n        /* \"contracts/DuperToken_flattened.sol\":39714:39740  _name.toStringWithFallback */\n      tag_229\n        /* \"contracts/DuperToken_flattened.sol\":39714:39755  _name.toStringWithFallback(_nameFallback) */\n      jump\t// in\n        /* \"contracts/DuperToken_flattened.sol\":40088:40223  function _EIP712Version() internal view returns (string memory) {... */\n    tag_150:\n        /* \"contracts/DuperToken_flattened.sol\":40137:40150  string memory */\n      0x60\n        /* \"contracts/DuperToken_flattened.sol\":40169:40216  _version.toStringWithFallback(_versionFallback) */\n      tag_121\n        /* \"contracts/DuperToken_flattened.sol\":40169:40177  _version */\n      immutable(\"0x2afe76337b531113eeb6984869209602297c0be432194d84882749ead3021a37\")\n        /* \"contracts/DuperToken_flattened.sol\":40199:40215  _versionFallback */\n      0x07\n        /* \"contracts/DuperToken_flattened.sol\":40169:40198  _version.toStringWithFallback */\n      tag_229\n        /* \"contracts/DuperToken_flattened.sol\":40169:40216  _version.toStringWithFallback(_versionFallback) */\n      jump\t// in\n        /* \"contracts/DuperToken_flattened.sol\":38532:38708  function _hashTypedDataV4(bytes32 structHash) internal view virtual returns (bytes32) {... */\n    tag_173:\n        /* \"contracts/DuperToken_flattened.sol\":38609:38616  bytes32 */\n      0x00\n        /* \"contracts/DuperToken_flattened.sol\":38635:38701  MessageHashUtils.toTypedDataHash(_domainSeparatorV4(), structHash) */\n      tag_107\n        /* \"contracts/DuperToken_flattened.sol\":38668:38688  _domainSeparatorV4() */\n      tag_235\n        /* \"contracts/DuperToken_flattened.sol\":38668:38686  _domainSeparatorV4 */\n      tag_122\n        /* \"contracts/DuperToken_flattened.sol\":38668:38688  _domainSeparatorV4() */\n      jump\t// in\n    tag_235:\n        /* \"contracts/DuperToken_flattened.sol\":38690:38700  structHash */\n      dup4\n        /* \"contracts/DuperToken_flattened.sol\":33553:33557  0x40 */\n      0x40\n        /* \"contracts/DuperToken_flattened.sol\":33547:33558  mload(0x40) */\n      mload\n      shl(0xf0, 0x1901)\n        /* \"contracts/DuperToken_flattened.sol\":33571:33594  mstore(ptr, hex\"19_01\") */\n      dup2\n      mstore\n        /* \"contracts/DuperToken_flattened.sol\":33623:33627  0x02 */\n      0x02\n        /* \"contracts/DuperToken_flattened.sol\":33614:33628  add(ptr, 0x02) */\n      dup2\n      add\n        /* \"contracts/DuperToken_flattened.sol\":33607:33646  mstore(add(ptr, 0x02), domainSeparator) */\n      swap3\n      swap1\n      swap3\n      mstore\n        /* \"contracts/DuperToken_flattened.sol\":33675:33679  0x22 */\n      0x22\n        /* \"contracts/DuperToken_flattened.sol\":33666:33680  add(ptr, 0x22) */\n      dup3\n      add\n        /* \"contracts/DuperToken_flattened.sol\":33659:33693  mstore(add(ptr, 0x22), structHash) */\n      mstore\n        /* \"contracts/DuperToken_flattened.sol\":33731:33735  0x42 */\n      0x42\n        /* \"contracts/DuperToken_flattened.sol\":33716:33736  keccak256(ptr, 0x42) */\n      swap1\n      keccak256\n      swap1\n        /* \"contracts/DuperToken_flattened.sol\":33351:33752  function toTypedDataHash(bytes32 domainSeparator, bytes32 structHash) internal pure returns (bytes32 digest) {... */\n      jump\n        /* \"contracts/DuperToken_flattened.sol\":47062:47322  function recover(bytes32 hash, uint8 v, bytes32 r, bytes32 s) internal pure returns (address) {... */\n    tag_175:\n        /* \"contracts/DuperToken_flattened.sol\":47147:47154  address */\n      0x00\n        /* \"contracts/DuperToken_flattened.sol\":47167:47184  address recovered */\n      dup1\n        /* \"contracts/DuperToken_flattened.sol\":47186:47204  RecoverError error */\n      0x00\n        /* \"contracts/DuperToken_flattened.sol\":47206:47222  bytes32 errorArg */\n      dup1\n        /* \"contracts/DuperToken_flattened.sol\":47226:47251  tryRecover(hash, v, r, s) */\n      tag_238\n        /* \"contracts/DuperToken_flattened.sol\":47237:47241  hash */\n      dup9\n        /* \"contracts/DuperToken_flattened.sol\":47243:47244  v */\n      dup9\n        /* \"contracts/DuperToken_flattened.sol\":47246:47247  r */\n      dup9\n        /* \"contracts/DuperToken_flattened.sol\":47249:47250  s */\n      dup9\n        /* \"contracts/DuperToken_flattened.sol\":47226:47236  tryRecover */\n      tag_239\n        /* \"contracts/DuperToken_flattened.sol\":47226:47251  tryRecover(hash, v, r, s) */\n      jump\t// in\n    tag_238:\n        /* \"contracts/DuperToken_flattened.sol\":47166:47251  (address recovered, RecoverError error, bytes32 errorArg) = tryRecover(hash, v, r, s) */\n      swap3\n      pop\n      swap3\n      pop\n      swap3\n      pop\n        /* \"contracts/DuperToken_flattened.sol\":47261:47289  _throwError(error, errorArg) */\n      tag_240\n        /* \"contracts/DuperToken_flattened.sol\":47273:47278  error */\n      dup3\n        /* \"contracts/DuperToken_flattened.sol\":47280:47288  errorArg */\n      dup3\n        /* \"contracts/DuperToken_flattened.sol\":47261:47272  _throwError */\n      tag_241\n        /* \"contracts/DuperToken_flattened.sol\":47261:47289  _throwError(error, errorArg) */\n      jump\t// in\n    tag_240:\n      pop\n        /* \"contracts/DuperToken_flattened.sol\":47306:47315  recovered */\n      swap1\n      swap7\n        /* \"contracts/DuperToken_flattened.sol\":47062:47322  function recover(bytes32 hash, uint8 v, bytes32 r, bytes32 s) internal pure returns (address) {... */\n      swap6\n      pop\n      pop\n      pop\n      pop\n      pop\n      pop\n      jump\t// out\n        /* \"contracts/DuperToken_flattened.sol\":75623:76055  function _approve(address owner, address spender, uint256 value, bool emitEvent) internal virtual {... */\n    tag_190:\n      sub(shl(0xa0, 0x01), 0x01)\n        /* \"contracts/DuperToken_flattened.sol\":75735:75754  owner == address(0) */\n      dup5\n      and\n        /* \"contracts/DuperToken_flattened.sol\":75731:75820  if (owner == address(0)) {... */\n      tag_243\n      jumpi\n        /* \"contracts/DuperToken_flattened.sol\":75777:75809  ERC20InvalidApprover(address(0)) */\n      mload(0x40)\n      shl(0xe0, 0xe602df05)\n      dup2\n      mstore\n        /* \"contracts/DuperToken_flattened.sol\":75806:75807  0 */\n      0x00\n        /* \"contracts/DuperToken_flattened.sol\":75777:75809  ERC20InvalidApprover(address(0)) */\n      0x04\n      dup3\n      add\n        /* \"#utility.yul\":3968:4019   */\n      mstore\n        /* \"#utility.yul\":3941:3959   */\n      0x24\n      add\n        /* \"contracts/DuperToken_flattened.sol\":75777:75809  ERC20InvalidApprover(address(0)) */\n      tag_167\n        /* \"#utility.yul\":3822:4025   */\n      jump\n        /* \"contracts/DuperToken_flattened.sol\":75731:75820  if (owner == address(0)) {... */\n    tag_243:\n      sub(shl(0xa0, 0x01), 0x01)\n        /* \"contracts/DuperToken_flattened.sol\":75833:75854  spender == address(0) */\n      dup4\n      and\n        /* \"contracts/DuperToken_flattened.sol\":75829:75919  if (spender == address(0)) {... */\n      tag_245\n      jumpi\n        /* \"contracts/DuperToken_flattened.sol\":75877:75908  ERC20InvalidSpender(address(0)) */\n      mload(0x40)\n      shl(0xe1, 0x4a1406b1)\n      dup2\n      mstore\n        /* \"contracts/DuperToken_flattened.sol\":75905:75906  0 */\n      0x00\n        /* \"contracts/DuperToken_flattened.sol\":75877:75908  ERC20InvalidSpender(address(0)) */\n      0x04\n      dup3\n      add\n        /* \"#utility.yul\":3968:4019   */\n      mstore\n        /* \"#utility.yul\":3941:3959   */\n      0x24\n      add\n        /* \"contracts/DuperToken_flattened.sol\":75877:75908  ERC20InvalidSpender(address(0)) */\n      tag_167\n        /* \"#utility.yul\":3822:4025   */\n      jump\n        /* \"contracts/DuperToken_flattened.sol\":75829:75919  if (spender == address(0)) {... */\n    tag_245:\n      sub(shl(0xa0, 0x01), 0x01)\n        /* \"contracts/DuperToken_flattened.sol\":75928:75946  _allowances[owner] */\n      dup1\n      dup6\n      and\n      0x00\n      swap1\n      dup2\n      mstore\n        /* \"contracts/DuperToken_flattened.sol\":75928:75939  _allowances */\n      0x01\n        /* \"contracts/DuperToken_flattened.sol\":75928:75946  _allowances[owner] */\n      0x20\n      swap1\n      dup2\n      mstore\n      0x40\n      dup1\n      dup4\n      keccak256\n        /* \"contracts/DuperToken_flattened.sol\":75928:75955  _allowances[owner][spender] */\n      swap4\n      dup8\n      and\n      dup4\n      mstore\n      swap3\n      swap1\n      mstore\n      keccak256\n        /* \"contracts/DuperToken_flattened.sol\":75928:75963  _allowances[owner][spender] = value */\n      dup3\n      swap1\n      sstore\n        /* \"contracts/DuperToken_flattened.sol\":75973:76049  if (emitEvent) {... */\n      dup1\n      iszero\n      tag_197\n      jumpi\n        /* \"contracts/DuperToken_flattened.sol\":76023:76030  spender */\n      dup3\n      sub(shl(0xa0, 0x01), 0x01)\n        /* \"contracts/DuperToken_flattened.sol\":76007:76038  Approval(owner, spender, value) */\n      and\n        /* \"contracts/DuperToken_flattened.sol\":76016:76021  owner */\n      dup5\n      sub(shl(0xa0, 0x01), 0x01)\n        /* \"contracts/DuperToken_flattened.sol\":76007:76038  Approval(owner, spender, value) */\n      and\n      0x8c5be1e5ebec7d5bd14f71427d1e84f3dd0314c0f7b2291e5b200ac8c7c3b925\n        /* \"contracts/DuperToken_flattened.sol\":76032:76037  value */\n      dup5\n        /* \"contracts/DuperToken_flattened.sol\":76007:76038  Approval(owner, spender, value) */\n      mload(0x40)\n      tag_248\n      swap2\n        /* \"#utility.yul\":1442:1467   */\n      dup2\n      mstore\n        /* \"#utility.yul\":1430:1432   */\n      0x20\n        /* \"#utility.yul\":1415:1433   */\n      add\n      swap1\n        /* \"#utility.yul\":1296:1473   */\n      jump\n        /* \"contracts/DuperToken_flattened.sol\":76007:76038  Approval(owner, spender, value) */\n    tag_248:\n      mload(0x40)\n      dup1\n      swap2\n      sub\n      swap1\n      log3\n        /* \"contracts/DuperToken_flattened.sol\":75623:76055  function _approve(address owner, address spender, uint256 value, bool emitEvent) internal virtual {... */\n      pop\n      pop\n      pop\n      pop\n      jump\t// out\n        /* \"contracts/DuperToken_flattened.sol\":71945:73052  function _update(address from, address to, uint256 value) internal virtual {... */\n    tag_204:\n      sub(shl(0xa0, 0x01), 0x01)\n        /* \"contracts/DuperToken_flattened.sol\":72034:72052  from == address(0) */\n      dup4\n      and\n        /* \"contracts/DuperToken_flattened.sol\":72030:72570  if (from == address(0)) {... */\n      tag_250\n      jumpi\n        /* \"contracts/DuperToken_flattened.sol\":72186:72191  value */\n      dup1\n        /* \"contracts/DuperToken_flattened.sol\":72170:72182  _totalSupply */\n      0x02\n      0x00\n        /* \"contracts/DuperToken_flattened.sol\":72170:72191  _totalSupply += value */\n      dup3\n      dup3\n      sload\n      tag_251\n      swap2\n      swap1\n      tag_252\n      jump\t// in\n    tag_251:\n      swap1\n      swap2\n      sstore\n      pop\n        /* \"contracts/DuperToken_flattened.sol\":72030:72570  if (from == address(0)) {... */\n      tag_253\n      swap1\n      pop\n      jump\n    tag_250:\n      sub(shl(0xa0, 0x01), 0x01)\n        /* \"contracts/DuperToken_flattened.sol\":72244:72259  _balances[from] */\n      dup4\n      and\n        /* \"contracts/DuperToken_flattened.sol\":72222:72241  uint256 fromBalance */\n      0x00\n        /* \"contracts/DuperToken_flattened.sol\":72244:72259  _balances[from] */\n      swap1\n      dup2\n      mstore\n      0x20\n      dup2\n      swap1\n      mstore\n      0x40\n      swap1\n      keccak256\n      sload\n        /* \"contracts/DuperToken_flattened.sol\":72277:72296  fromBalance < value */\n      dup2\n      dup2\n      lt\n        /* \"contracts/DuperToken_flattened.sol\":72273:72388  if (fromBalance < value) {... */\n      iszero\n      tag_254\n      jumpi\n        /* \"contracts/DuperToken_flattened.sol\":72323:72373  ERC20InsufficientBalance(from, fromBalance, value) */\n      mload(0x40)\n      shl(0xe2, 0x391434e3)\n      dup2\n      mstore\n      sub(shl(0xa0, 0x01), 0x01)\n        /* \"#utility.yul\":6635:6667   */\n      dup6\n      and\n        /* \"contracts/DuperToken_flattened.sol\":72323:72373  ERC20InsufficientBalance(from, fromBalance, value) */\n      0x04\n      dup3\n      add\n        /* \"#utility.yul\":6617:6668   */\n      mstore\n        /* \"#utility.yul\":6684:6702   */\n      0x24\n      dup2\n      add\n        /* \"#utility.yul\":6677:6711   */\n      dup3\n      swap1\n      mstore\n        /* \"#utility.yul\":6727:6745   */\n      0x44\n      dup2\n      add\n        /* \"#utility.yul\":6720:6754   */\n      dup4\n      swap1\n      mstore\n        /* \"#utility.yul\":6590:6608   */\n      0x64\n      add\n        /* \"contracts/DuperToken_flattened.sol\":72323:72373  ERC20InsufficientBalance(from, fromBalance, value) */\n      tag_167\n        /* \"#utility.yul\":6415:6760   */\n      jump\n        /* \"contracts/DuperToken_flattened.sol\":72273:72388  if (fromBalance < value) {... */\n    tag_254:\n      sub(shl(0xa0, 0x01), 0x01)\n        /* \"contracts/DuperToken_flattened.sol\":72508:72523  _balances[from] */\n      dup5\n      and\n        /* \"contracts/DuperToken_flattened.sol\":72508:72517  _balances */\n      0x00\n        /* \"contracts/DuperToken_flattened.sol\":72508:72523  _balances[from] */\n      swap1\n      dup2\n      mstore\n      0x20\n      dup2\n      swap1\n      mstore\n      0x40\n      swap1\n      keccak256\n        /* \"contracts/DuperToken_flattened.sol\":72526:72545  fromBalance - value */\n      swap1\n      dup3\n      swap1\n      sub\n        /* \"contracts/DuperToken_flattened.sol\":72508:72545  _balances[from] = fromBalance - value */\n      swap1\n      sstore\n        /* \"contracts/DuperToken_flattened.sol\":72030:72570  if (from == address(0)) {... */\n    tag_253:\n      sub(shl(0xa0, 0x01), 0x01)\n        /* \"contracts/DuperToken_flattened.sol\":72584:72600  to == address(0) */\n      dup3\n      and\n        /* \"contracts/DuperToken_flattened.sol\":72580:73005  if (to == address(0)) {... */\n      tag_256\n      jumpi\n        /* \"contracts/DuperToken_flattened.sol\":72747:72759  _totalSupply */\n      0x02\n        /* \"contracts/DuperToken_flattened.sol\":72747:72768  _totalSupply -= value */\n      dup1\n      sload\n      dup3\n      swap1\n      sub\n      swap1\n      sstore\n        /* \"contracts/DuperToken_flattened.sol\":72580:73005  if (to == address(0)) {... */\n      jump(tag_257)\n    tag_256:\n      sub(shl(0xa0, 0x01), 0x01)\n        /* \"contracts/DuperToken_flattened.sol\":72958:72971  _balances[to] */\n      dup3\n      and\n        /* \"contracts/DuperToken_flattened.sol\":72958:72967  _balances */\n      0x00\n        /* \"contracts/DuperToken_flattened.sol\":72958:72971  _balances[to] */\n      swap1\n      dup2\n      mstore\n      0x20\n      dup2\n      swap1\n      mstore\n      0x40\n      swap1\n      keccak256\n        /* \"contracts/DuperToken_flattened.sol\":72958:72980  _balances[to] += value */\n      dup1\n      sload\n      dup3\n      add\n      swap1\n      sstore\n        /* \"contracts/DuperToken_flattened.sol\":72580:73005  if (to == address(0)) {... */\n    tag_257:\n        /* \"contracts/DuperToken_flattened.sol\":73035:73037  to */\n      dup2\n      sub(shl(0xa0, 0x01), 0x01)\n        /* \"contracts/DuperToken_flattened.sol\":73020:73045  Transfer(from, to, value) */\n      and\n        /* \"contracts/DuperToken_flattened.sol\":73029:73033  from */\n      dup4\n      sub(shl(0xa0, 0x01), 0x01)\n        /* \"contracts/DuperToken_flattened.sol\":73020:73045  Transfer(from, to, value) */\n      and\n      0xddf252ad1be2c89b69c2b068fc378daa952ba7f163c4a11628f55a4df523b3ef\n        /* \"contracts/DuperToken_flattened.sol\":73039:73044  value */\n      dup4\n        /* \"contracts/DuperToken_flattened.sol\":73020:73045  Transfer(from, to, value) */\n      mload(0x40)\n      tag_258\n      swap2\n        /* \"#utility.yul\":1442:1467   */\n      dup2\n      mstore\n        /* \"#utility.yul\":1430:1432   */\n      0x20\n        /* \"#utility.yul\":1415:1433   */\n      add\n      swap1\n        /* \"#utility.yul\":1296:1473   */\n      jump\n        /* \"contracts/DuperToken_flattened.sol\":73020:73045  Transfer(from, to, value) */\n    tag_258:\n      mload(0x40)\n      dup1\n      swap2\n      sub\n      swap1\n      log3\n        /* \"contracts/DuperToken_flattened.sol\":71945:73052  function _update(address from, address to, uint256 value) internal virtual {... */\n      pop\n      pop\n      pop\n      jump\t// out\n        /* \"contracts/DuperToken_flattened.sol\":9600:9867  function toStringWithFallback(ShortString value, string storage store) internal pure returns (string memory) {... */\n    tag_229:\n        /* \"contracts/DuperToken_flattened.sol\":9694:9707  string memory */\n      0x60\n        /* \"contracts/DuperToken_flattened.sol\":7605:7671  0x00000000000000000000000000000000000000000000000000000000000000FF */\n      0xff\n        /* \"contracts/DuperToken_flattened.sol\":9723:9769  ShortString.unwrap(value) != FALLBACK_SENTINEL */\n      dup4\n      eq\n        /* \"contracts/DuperToken_flattened.sol\":9719:9861  if (ShortString.unwrap(value) != FALLBACK_SENTINEL) {... */\n      tag_263\n      jumpi\n        /* \"contracts/DuperToken_flattened.sol\":9792:9807  toString(value) */\n      tag_264\n        /* \"contracts/DuperToken_flattened.sol\":9801:9806  value */\n      dup4\n        /* \"contracts/DuperToken_flattened.sol\":9792:9800  toString */\n      tag_265\n        /* \"contracts/DuperToken_flattened.sol\":9792:9807  toString(value) */\n      jump\t// in\n    tag_264:\n        /* \"contracts/DuperToken_flattened.sol\":9785:9807  return toString(value) */\n      swap1\n      pop\n      jump(tag_107)\n        /* \"contracts/DuperToken_flattened.sol\":9719:9861  if (ShortString.unwrap(value) != FALLBACK_SENTINEL) {... */\n    tag_263:\n        /* \"contracts/DuperToken_flattened.sol\":9845:9850  store */\n      dup2\n        /* \"contracts/DuperToken_flattened.sol\":9838:9850  return store */\n      dup1\n      sload\n      tag_267\n      swap1\n      tag_102\n      jump\t// in\n    tag_267:\n      dup1\n      0x1f\n      add\n      0x20\n      dup1\n      swap2\n      div\n      mul\n      0x20\n      add\n      mload(0x40)\n      swap1\n      dup2\n      add\n      0x40\n      mstore\n      dup1\n      swap3\n      swap2\n      swap1\n      dup2\n      dup2\n      mstore\n      0x20\n      add\n      dup3\n      dup1\n      sload\n      tag_268\n      swap1\n      tag_102\n      jump\t// in\n    tag_268:\n      dup1\n      iszero\n      tag_269\n      jumpi\n      dup1\n      0x1f\n      lt\n      tag_270\n      jumpi\n      0x0100\n      dup1\n      dup4\n      sload\n      div\n      mul\n      dup4\n      mstore\n      swap2\n      0x20\n      add\n      swap2\n      jump(tag_269)\n    tag_270:\n      dup3\n      add\n      swap2\n      swap1\n      0x00\n      mstore\n      keccak256(0x00, 0x20)\n      swap1\n    tag_271:\n      dup2\n      sload\n      dup2\n      mstore\n      swap1\n      0x01\n      add\n      swap1\n      0x20\n      add\n      dup1\n      dup4\n      gt\n      tag_271\n      jumpi\n      dup3\n      swap1\n      sub\n      0x1f\n      and\n      dup3\n      add\n      swap2\n    tag_269:\n      pop\n      pop\n      pop\n      pop\n      pop\n      swap1\n      pop\n      jump(tag_107)\n        /* \"contracts/DuperToken_flattened.sol\":45399:46929  function tryRecover(... */\n    tag_239:\n        /* \"contracts/DuperToken_flattened.sol\":45525:45532  address */\n      0x00\n      dup1\n      dup1\n        /* \"contracts/DuperToken_flattened.sol\":46458:46524  0x7FFFFFFFFFFFFFFFFFFFFFFFFFFFFFFF5D576E7357A4501DDFE92F46681B20A0 */\n      0x7fffffffffffffffffffffffffffffff5d576e7357a4501ddfe92f46681b20a0\n        /* \"contracts/DuperToken_flattened.sol\":46445:46524  uint256(s) > 0x7FFFFFFFFFFFFFFFFFFFFFFFFFFFFFFF5D576E7357A4501DDFE92F46681B20A0 */\n      dup5\n      gt\n        /* \"contracts/DuperToken_flattened.sol\":46441:46605  if (uint256(s) > 0x7FFFFFFFFFFFFFFFFFFFFFFFFFFFFFFF5D576E7357A4501DDFE92F46681B20A0) {... */\n      iszero\n      tag_274\n      jumpi\n      pop\n        /* \"contracts/DuperToken_flattened.sol\":46556:46557  0 */\n      0x00\n      swap2\n      pop\n        /* \"contracts/DuperToken_flattened.sol\":46560:46590  RecoverError.InvalidSignatureS */\n      0x03\n      swap1\n      pop\n        /* \"contracts/DuperToken_flattened.sol\":46592:46593  s */\n      dup3\n        /* \"contracts/DuperToken_flattened.sol\":46540:46594  return (address(0), RecoverError.InvalidSignatureS, s) */\n      jump(tag_273)\n        /* \"contracts/DuperToken_flattened.sol\":46441:46605  if (uint256(s) > 0x7FFFFFFFFFFFFFFFFFFFFFFFFFFFFFFF5D576E7357A4501DDFE92F46681B20A0) {... */\n    tag_274:\n        /* \"contracts/DuperToken_flattened.sol\":46716:46740  ecrecover(hash, v, r, s) */\n      0x40\n      dup1\n      mload\n        /* \"contracts/DuperToken_flattened.sol\":46699:46713  address signer */\n      0x00\n        /* \"contracts/DuperToken_flattened.sol\":46716:46740  ecrecover(hash, v, r, s) */\n      dup1\n      dup3\n      mstore\n      0x20\n      dup3\n      add\n      dup1\n      dup5\n      mstore\n        /* \"#utility.yul\":7713:7738   */\n      dup11\n      swap1\n      mstore\n        /* \"#utility.yul\":7786:7790   */\n      0xff\n        /* \"#utility.yul\":7774:7791   */\n      dup10\n      and\n        /* \"#utility.yul\":7754:7772   */\n      swap3\n      dup3\n      add\n        /* \"#utility.yul\":7747:7792   */\n      swap3\n      swap1\n      swap3\n      mstore\n        /* \"#utility.yul\":7808:7826   */\n      0x60\n      dup2\n      add\n        /* \"#utility.yul\":7801:7835   */\n      dup8\n      swap1\n      mstore\n        /* \"#utility.yul\":7851:7869   */\n      0x80\n      dup2\n      add\n        /* \"#utility.yul\":7844:7878   */\n      dup7\n      swap1\n      mstore\n        /* \"contracts/DuperToken_flattened.sol\":46716:46740  ecrecover(hash, v, r, s) */\n      0x01\n      swap1\n        /* \"#utility.yul\":7685:7704   */\n      0xa0\n      add\n        /* \"contracts/DuperToken_flattened.sol\":46716:46740  ecrecover(hash, v, r, s) */\n      0x20\n      mload(0x40)\n      0x20\n      dup2\n      sub\n      swap1\n      dup1\n      dup5\n      sub\n      swap1\n      dup6\n      gas\n      staticcall\n      iszero\n      dup1\n      iszero\n      tag_278\n      jumpi\n      returndatasize\n      0x00\n      dup1\n      returndatacopy\n      revert(0x00, returndatasize)\n    tag_278:\n      pop\n      pop\n      mload(add(not(0x1f), mload(0x40)))\n      swap2\n      pop\n      pop\n      sub(shl(0xa0, 0x01), 0x01)\n        /* \"contracts/DuperToken_flattened.sol\":46754:46774  signer == address(0) */\n      dup2\n      and\n        /* \"contracts/DuperToken_flattened.sol\":46750:46863  if (signer == address(0)) {... */\n      tag_279\n      jumpi\n      pop\n        /* \"contracts/DuperToken_flattened.sol\":46806:46807  0 */\n      0x00\n      swap3\n      pop\n        /* \"contracts/DuperToken_flattened.sol\":46810:46839  RecoverError.InvalidSignature */\n      0x01\n      swap2\n      pop\n        /* \"contracts/DuperToken_flattened.sol\":46806:46807  0 */\n      dup3\n      swap1\n      pop\n        /* \"contracts/DuperToken_flattened.sol\":46790:46852  return (address(0), RecoverError.InvalidSignature, bytes32(0)) */\n      jump(tag_273)\n        /* \"contracts/DuperToken_flattened.sol\":46750:46863  if (signer == address(0)) {... */\n    tag_279:\n        /* \"contracts/DuperToken_flattened.sol\":46881:46887  signer */\n      swap3\n      pop\n        /* \"contracts/DuperToken_flattened.sol\":46889:46909  RecoverError.NoError */\n      0x00\n      swap2\n      pop\n      dup2\n      swap1\n      pop\n        /* \"contracts/DuperToken_flattened.sol\":45399:46929  function tryRecover(... */\n    tag_273:\n      swap5\n      pop\n      swap5\n      pop\n      swap5\n      swap2\n      pop\n      pop\n      jump\t// out\n        /* \"contracts/DuperToken_flattened.sol\":47455:47987  function _throwError(RecoverError error, bytes32 errorArg) private pure {... */\n    tag_241:\n        /* \"contracts/DuperToken_flattened.sol\":47550:47570  RecoverError.NoError */\n      0x00\n        /* \"contracts/DuperToken_flattened.sol\":47541:47546  error */\n      dup3\n        /* \"contracts/DuperToken_flattened.sol\":47541:47570  error == RecoverError.NoError */\n      0x03\n      dup2\n      gt\n      iszero\n      tag_285\n      jumpi\n      tag_285\n      tag_283\n      jump\t// in\n    tag_285:\n      sub\n        /* \"contracts/DuperToken_flattened.sol\":47537:47981  if (error == RecoverError.NoError) {... */\n      tag_286\n      jumpi\n        /* \"contracts/DuperToken_flattened.sol\":47455:47987  function _throwError(RecoverError error, bytes32 errorArg) private pure {... */\n      pop\n      pop\n      jump\t// out\n        /* \"contracts/DuperToken_flattened.sol\":47537:47981  if (error == RecoverError.NoError) {... */\n    tag_286:\n        /* \"contracts/DuperToken_flattened.sol\":47646:47675  RecoverError.InvalidSignature */\n      0x01\n        /* \"contracts/DuperToken_flattened.sol\":47637:47642  error */\n      dup3\n        /* \"contracts/DuperToken_flattened.sol\":47637:47675  error == RecoverError.InvalidSignature */\n      0x03\n      dup2\n      gt\n      iszero\n      tag_291\n      jumpi\n      tag_291\n      tag_283\n      jump\t// in\n    tag_291:\n      sub\n        /* \"contracts/DuperToken_flattened.sol\":47633:47981  if (error == RecoverError.InvalidSignature) {... */\n      tag_292\n      jumpi\n        /* \"contracts/DuperToken_flattened.sol\":47698:47721  ECDSAInvalidSignature() */\n      mload(0x40)\n      shl(0xe0, 0xf645eedf)\n      dup2\n      mstore\n      0x04\n      add\n      mload(0x40)\n      dup1\n      swap2\n      sub\n      swap1\n      revert\n        /* \"contracts/DuperToken_flattened.sol\":47633:47981  if (error == RecoverError.InvalidSignature) {... */\n    tag_292:\n        /* \"contracts/DuperToken_flattened.sol\":47751:47786  RecoverError.InvalidSignatureLength */\n      0x02\n        /* \"contracts/DuperToken_flattened.sol\":47742:47747  error */\n      dup3\n        /* \"contracts/DuperToken_flattened.sol\":47742:47786  error == RecoverError.InvalidSignatureLength */\n      0x03\n      dup2\n      gt\n      iszero\n      tag_297\n      jumpi\n      tag_297\n      tag_283\n      jump\t// in\n    tag_297:\n      sub\n        /* \"contracts/DuperToken_flattened.sol\":47738:47981  if (error == RecoverError.InvalidSignatureLength) {... */\n      tag_298\n      jumpi\n        /* \"contracts/DuperToken_flattened.sol\":47809:47855  ECDSAInvalidSignatureLength(uint256(errorArg)) */\n      mload(0x40)\n      shl(0xe0, 0xfce698f7)\n      dup2\n      mstore\n      0x04\n      dup2\n      add\n        /* \"#utility.yul\":1442:1467   */\n      dup3\n      swap1\n      mstore\n        /* \"#utility.yul\":1415:1433   */\n      0x24\n      add\n        /* \"contracts/DuperToken_flattened.sol\":47809:47855  ECDSAInvalidSignatureLength(uint256(errorArg)) */\n      tag_167\n        /* \"#utility.yul\":1296:1473   */\n      jump\n        /* \"contracts/DuperToken_flattened.sol\":47738:47981  if (error == RecoverError.InvalidSignatureLength) {... */\n    tag_298:\n        /* \"contracts/DuperToken_flattened.sol\":47885:47915  RecoverError.InvalidSignatureS */\n      0x03\n        /* \"contracts/DuperToken_flattened.sol\":47876:47881  error */\n      dup3\n        /* \"contracts/DuperToken_flattened.sol\":47876:47915  error == RecoverError.InvalidSignatureS */\n      0x03\n      dup2\n      gt\n      iszero\n      tag_304\n      jumpi\n      tag_304\n      tag_283\n      jump\t// in\n    tag_304:\n      sub\n        /* \"contracts/DuperToken_flattened.sol\":47872:47981  if (error == RecoverError.InvalidSignatureS) {... */\n      tag_127\n      jumpi\n        /* \"contracts/DuperToken_flattened.sol\":47938:47970  ECDSAInvalidSignatureS(errorArg) */\n      mload(0x40)\n      shl(0xe2, 0x35e2f383)\n      dup2\n      mstore\n      0x04\n      dup2\n      add\n        /* \"#utility.yul\":1442:1467   */\n      dup3\n      swap1\n      mstore\n        /* \"#utility.yul\":1415:1433   */\n      0x24\n      add\n        /* \"contracts/DuperToken_flattened.sol\":47938:47970  ECDSAInvalidSignatureS(errorArg) */\n      tag_167\n        /* \"#utility.yul\":1296:1473   */\n      jump\n        /* \"contracts/DuperToken_flattened.sol\":8293:8698  function toString(ShortString sstr) internal pure returns (string memory) {... */\n    tag_265:\n        /* \"contracts/DuperToken_flattened.sol\":8352:8365  string memory */\n      0x60\n        /* \"contracts/DuperToken_flattened.sol\":8377:8388  uint256 len */\n      0x00\n        /* \"contracts/DuperToken_flattened.sol\":8391:8407  byteLength(sstr) */\n      tag_308\n        /* \"contracts/DuperToken_flattened.sol\":8402:8406  sstr */\n      dup4\n        /* \"contracts/DuperToken_flattened.sol\":8391:8401  byteLength */\n      tag_309\n        /* \"contracts/DuperToken_flattened.sol\":8391:8407  byteLength(sstr) */\n      jump\t// in\n    tag_308:\n        /* \"contracts/DuperToken_flattened.sol\":8515:8529  new string(32) */\n      0x40\n      dup1\n      mload\n        /* \"contracts/DuperToken_flattened.sol\":8526:8528  32 */\n      0x20\n        /* \"contracts/DuperToken_flattened.sol\":8515:8529  new string(32) */\n      dup1\n      dup3\n      mstore\n      dup2\n      dup4\n      add\n      swap1\n      swap3\n      mstore\n        /* \"contracts/DuperToken_flattened.sol\":8377:8407  uint256 len = byteLength(sstr) */\n      swap2\n      swap3\n      pop\n        /* \"contracts/DuperToken_flattened.sol\":8495:8512  string memory str */\n      0x00\n      swap2\n        /* \"contracts/DuperToken_flattened.sol\":8515:8529  new string(32) */\n      swap1\n      0x20\n      dup3\n      add\n      dup2\n      dup1\n      calldatasize\n      dup4\n      calldatacopy\n      pop\n      pop\n      pop\n        /* \"contracts/DuperToken_flattened.sol\":8605:8621  mstore(str, len) */\n      swap2\n      dup3\n      mstore\n      pop\n        /* \"contracts/DuperToken_flattened.sol\":8650:8654  0x20 */\n      0x20\n        /* \"contracts/DuperToken_flattened.sol\":8641:8655  add(str, 0x20) */\n      dup2\n      add\n        /* \"contracts/DuperToken_flattened.sol\":8634:8662  mstore(add(str, 0x20), sstr) */\n      swap3\n      swap1\n      swap3\n      mstore\n      pop\n        /* \"contracts/DuperToken_flattened.sol\":8605:8621  mstore(str, len) */\n      swap1\n        /* \"contracts/DuperToken_flattened.sol\":8293:8698  function toString(ShortString sstr) internal pure returns (string memory) {... */\n      jump\t// out\n        /* \"contracts/DuperToken_flattened.sol\":8770:9015  function byteLength(ShortString sstr) internal pure returns (uint256) {... */\n    tag_309:\n        /* \"contracts/DuperToken_flattened.sol\":8831:8838  uint256 */\n      0x00\n        /* \"contracts/DuperToken_flattened.sol\":8903:8907  0xFF */\n      0xff\n        /* \"contracts/DuperToken_flattened.sol\":8867:8907  uint256(ShortString.unwrap(sstr)) & 0xFF */\n      dup3\n      and\n        /* \"contracts/DuperToken_flattened.sol\":8930:8932  31 */\n      0x1f\n        /* \"contracts/DuperToken_flattened.sol\":8921:8932  result > 31 */\n      dup2\n      gt\n        /* \"contracts/DuperToken_flattened.sol\":8917:8986  if (result > 31) {... */\n      iszero\n      tag_107\n      jumpi\n        /* \"contracts/DuperToken_flattened.sol\":8955:8975  InvalidShortString() */\n      mload(0x40)\n      shl(0xe2, 0x2cd44ac3)\n      dup2\n      mstore\n      0x04\n      add\n      mload(0x40)\n      dup1\n      swap2\n      sub\n      swap1\n      revert\n        /* \"#utility.yul\":14:437   */\n    tag_315:\n        /* \"#utility.yul\":56:59   */\n      0x00\n        /* \"#utility.yul\":94:99   */\n      dup2\n        /* \"#utility.yul\":88:100   */\n      mload\n        /* \"#utility.yul\":121:127   */\n      dup1\n        /* \"#utility.yul\":116:119   */\n      dup5\n        /* \"#utility.yul\":109:128   */\n      mstore\n        /* \"#utility.yul\":146:147   */\n      0x00\n        /* \"#utility.yul\":156:318   */\n    tag_319:\n        /* \"#utility.yul\":170:176   */\n      dup2\n        /* \"#utility.yul\":167:168   */\n      dup2\n        /* \"#utility.yul\":164:177   */\n      lt\n        /* \"#utility.yul\":156:318   */\n      iszero\n      tag_321\n      jumpi\n        /* \"#utility.yul\":232:236   */\n      0x20\n        /* \"#utility.yul\":288:301   */\n      dup2\n      dup6\n      add\n        /* \"#utility.yul\":284:306   */\n      dup2\n      add\n        /* \"#utility.yul\":278:307   */\n      mload\n        /* \"#utility.yul\":260:271   */\n      dup7\n      dup4\n      add\n        /* \"#utility.yul\":256:276   */\n      dup3\n      add\n        /* \"#utility.yul\":249:308   */\n      mstore\n        /* \"#utility.yul\":185:197   */\n      add\n        /* \"#utility.yul\":156:318   */\n      jump(tag_319)\n    tag_321:\n        /* \"#utility.yul\":160:163   */\n      pop\n        /* \"#utility.yul\":363:364   */\n      0x00\n        /* \"#utility.yul\":356:360   */\n      0x20\n        /* \"#utility.yul\":347:353   */\n      dup3\n        /* \"#utility.yul\":342:345   */\n      dup7\n        /* \"#utility.yul\":338:354   */\n      add\n        /* \"#utility.yul\":334:361   */\n      add\n        /* \"#utility.yul\":327:365   */\n      mstore\n        /* \"#utility.yul\":426:430   */\n      0x20\n        /* \"#utility.yul\":419:421   */\n      0x1f\n        /* \"#utility.yul\":415:422   */\n      not\n        /* \"#utility.yul\":410:412   */\n      0x1f\n        /* \"#utility.yul\":402:408   */\n      dup4\n        /* \"#utility.yul\":398:413   */\n      add\n        /* \"#utility.yul\":394:423   */\n      and\n        /* \"#utility.yul\":389:392   */\n      dup6\n        /* \"#utility.yul\":385:424   */\n      add\n        /* \"#utility.yul\":381:431   */\n      add\n        /* \"#utility.yul\":374:431   */\n      swap2\n      pop\n      pop\n        /* \"#utility.yul\":14:437   */\n      swap3\n      swap2\n      pop\n      pop\n      jump\t// out\n        /* \"#utility.yul\":442:662   */\n    tag_28:\n        /* \"#utility.yul\":591:593   */\n      0x20\n        /* \"#utility.yul\":580:589   */\n      dup2\n        /* \"#utility.yul\":573:594   */\n      mstore\n        /* \"#utility.yul\":554:558   */\n      0x00\n        /* \"#utility.yul\":611:656   */\n      tag_323\n        /* \"#utility.yul\":652:654   */\n      0x20\n        /* \"#utility.yul\":641:650   */\n      dup4\n        /* \"#utility.yul\":637:655   */\n      add\n        /* \"#utility.yul\":629:635   */\n      dup5\n        /* \"#utility.yul\":611:656   */\n      tag_315\n      jump\t// in\n    tag_323:\n        /* \"#utility.yul\":603:656   */\n      swap4\n        /* \"#utility.yul\":442:662   */\n      swap3\n      pop\n      pop\n      pop\n      jump\t// out\n        /* \"#utility.yul\":667:840   */\n    tag_316:\n        /* \"#utility.yul\":735:755   */\n      dup1\n      calldataload\n      sub(shl(0xa0, 0x01), 0x01)\n        /* \"#utility.yul\":784:815   */\n      dup2\n      and\n        /* \"#utility.yul\":774:816   */\n      dup2\n      eq\n        /* \"#utility.yul\":764:834   */\n      tag_325\n      jumpi\n        /* \"#utility.yul\":830:831   */\n      0x00\n        /* \"#utility.yul\":827:828   */\n      dup1\n        /* \"#utility.yul\":820:832   */\n      revert\n        /* \"#utility.yul\":764:834   */\n    tag_325:\n        /* \"#utility.yul\":667:840   */\n      swap2\n      swap1\n      pop\n      jump\t// out\n        /* \"#utility.yul\":845:1099   */\n    tag_31:\n        /* \"#utility.yul\":913:919   */\n      0x00\n        /* \"#utility.yul\":921:927   */\n      dup1\n        /* \"#utility.yul\":974:976   */\n      0x40\n        /* \"#utility.yul\":962:971   */\n      dup4\n        /* \"#utility.yul\":953:960   */\n      dup6\n        /* \"#utility.yul\":949:972   */\n      sub\n        /* \"#utility.yul\":945:977   */\n      slt\n        /* \"#utility.yul\":942:994   */\n      iszero\n      tag_327\n      jumpi\n        /* \"#utility.yul\":990:991   */\n      0x00\n        /* \"#utility.yul\":987:988   */\n      dup1\n        /* \"#utility.yul\":980:992   */\n      revert\n        /* \"#utility.yul\":942:994   */\n    tag_327:\n        /* \"#utility.yul\":1013:1042   */\n      tag_328\n        /* \"#utility.yul\":1032:1041   */\n      dup4\n        /* \"#utility.yul\":1013:1042   */\n      tag_316\n      jump\t// in\n    tag_328:\n        /* \"#utility.yul\":1003:1042   */\n      swap5\n        /* \"#utility.yul\":1089:1091   */\n      0x20\n        /* \"#utility.yul\":1074:1092   */\n      swap4\n      swap1\n      swap4\n      add\n        /* \"#utility.yul\":1061:1093   */\n      calldataload\n      swap4\n      pop\n      pop\n      pop\n        /* \"#utility.yul\":845:1099   */\n      jump\t// out\n        /* \"#utility.yul\":1478:1806   */\n    tag_41:\n        /* \"#utility.yul\":1555:1561   */\n      0x00\n        /* \"#utility.yul\":1563:1569   */\n      dup1\n        /* \"#utility.yul\":1571:1577   */\n      0x00\n        /* \"#utility.yul\":1624:1626   */\n      0x60\n        /* \"#utility.yul\":1612:1621   */\n      dup5\n        /* \"#utility.yul\":1603:1610   */\n      dup7\n        /* \"#utility.yul\":1599:1622   */\n      sub\n        /* \"#utility.yul\":1595:1627   */\n      slt\n        /* \"#utility.yul\":1592:1644   */\n      iszero\n      tag_332\n      jumpi\n        /* \"#utility.yul\":1640:1641   */\n      0x00\n        /* \"#utility.yul\":1637:1638   */\n      dup1\n        /* \"#utility.yul\":1630:1642   */\n      revert\n        /* \"#utility.yul\":1592:1644   */\n    tag_332:\n        /* \"#utility.yul\":1663:1692   */\n      tag_333\n        /* \"#utility.yul\":1682:1691   */\n      dup5\n        /* \"#utility.yul\":1663:1692   */\n      tag_316\n      jump\t// in\n    tag_333:\n        /* \"#utility.yul\":1653:1692   */\n      swap3\n      pop\n        /* \"#utility.yul\":1711:1749   */\n      tag_334\n        /* \"#utility.yul\":1745:1747   */\n      0x20\n        /* \"#utility.yul\":1734:1743   */\n      dup6\n        /* \"#utility.yul\":1730:1748   */\n      add\n        /* \"#utility.yul\":1711:1749   */\n      tag_316\n      jump\t// in\n    tag_334:\n        /* \"#utility.yul\":1701:1749   */\n      swap2\n      pop\n        /* \"#utility.yul\":1796:1798   */\n      0x40\n        /* \"#utility.yul\":1785:1794   */\n      dup5\n        /* \"#utility.yul\":1781:1799   */\n      add\n        /* \"#utility.yul\":1768:1800   */\n      calldataload\n        /* \"#utility.yul\":1758:1800   */\n      swap1\n      pop\n        /* \"#utility.yul\":1478:1806   */\n      swap3\n      pop\n      swap3\n      pop\n      swap3\n      jump\t// out\n        /* \"#utility.yul\":2182:2362   */\n    tag_57:\n        /* \"#utility.yul\":2241:2247   */\n      0x00\n        /* \"#utility.yul\":2294:2296   */\n      0x20\n        /* \"#utility.yul\":2282:2291   */\n      dup3\n        /* \"#utility.yul\":2273:2280   */\n      dup5\n        /* \"#utility.yul\":2269:2292   */\n      sub\n        /* \"#utility.yul\":2265:2297   */\n      slt\n        /* \"#utility.yul\":2262:2314   */\n      iszero\n      tag_338\n      jumpi\n        /* \"#utility.yul\":2310:2311   */\n      0x00\n        /* \"#utility.yul\":2307:2308   */\n      dup1\n        /* \"#utility.yul\":2300:2312   */\n      revert\n        /* \"#utility.yul\":2262:2314   */\n    tag_338:\n      pop\n        /* \"#utility.yul\":2333:2356   */\n      calldataload\n      swap2\n        /* \"#utility.yul\":2182:2362   */\n      swap1\n      pop\n      jump\t// out\n        /* \"#utility.yul\":2367:2553   */\n    tag_61:\n        /* \"#utility.yul\":2426:2432   */\n      0x00\n        /* \"#utility.yul\":2479:2481   */\n      0x20\n        /* \"#utility.yul\":2467:2476   */\n      dup3\n        /* \"#utility.yul\":2458:2465   */\n      dup5\n        /* \"#utility.yul\":2454:2477   */\n      sub\n        /* \"#utility.yul\":2450:2482   */\n      slt\n        /* \"#utility.yul\":2447:2499   */\n      iszero\n      tag_340\n      jumpi\n        /* \"#utility.yul\":2495:2496   */\n      0x00\n        /* \"#utility.yul\":2492:2493   */\n      dup1\n        /* \"#utility.yul\":2485:2497   */\n      revert\n        /* \"#utility.yul\":2447:2499   */\n    tag_340:\n        /* \"#utility.yul\":2518:2547   */\n      tag_323\n        /* \"#utility.yul\":2537:2546   */\n      dup3\n        /* \"#utility.yul\":2518:2547   */\n      tag_316\n      jump\t// in\n        /* \"#utility.yul\":2558:3817   */\n    tag_76:\n        /* \"#utility.yul\":2964:2967   */\n      0xff\n        /* \"#utility.yul\":2959:2962   */\n      0xf8\n        /* \"#utility.yul\":2955:2968   */\n      shl\n        /* \"#utility.yul\":2947:2953   */\n      dup9\n        /* \"#utility.yul\":2943:2969   */\n      and\n        /* \"#utility.yul\":2932:2941   */\n      dup2\n        /* \"#utility.yul\":2925:2970   */\n      mstore\n        /* \"#utility.yul\":2906:2910   */\n      0x00\n        /* \"#utility.yul\":2989:2991   */\n      0x20\n        /* \"#utility.yul\":3027:3030   */\n      0xe0\n        /* \"#utility.yul\":3022:3024   */\n      dup2\n        /* \"#utility.yul\":3011:3020   */\n      dup5\n        /* \"#utility.yul\":3007:3025   */\n      add\n        /* \"#utility.yul\":3000:3031   */\n      mstore\n        /* \"#utility.yul\":3054:3100   */\n      tag_343\n        /* \"#utility.yul\":3095:3098   */\n      0xe0\n        /* \"#utility.yul\":3084:3093   */\n      dup5\n        /* \"#utility.yul\":3080:3099   */\n      add\n        /* \"#utility.yul\":3072:3078   */\n      dup11\n        /* \"#utility.yul\":3054:3100   */\n      tag_315\n      jump\t// in\n    tag_343:\n        /* \"#utility.yul\":3148:3157   */\n      dup4\n        /* \"#utility.yul\":3140:3146   */\n      dup2\n        /* \"#utility.yul\":3136:3158   */\n      sub\n        /* \"#utility.yul\":3131:3133   */\n      0x40\n        /* \"#utility.yul\":3120:3129   */\n      dup6\n        /* \"#utility.yul\":3116:3134   */\n      add\n        /* \"#utility.yul\":3109:3159   */\n      mstore\n        /* \"#utility.yul\":3182:3215   */\n      tag_344\n        /* \"#utility.yul\":3208:3214   */\n      dup2\n        /* \"#utility.yul\":3200:3206   */\n      dup11\n        /* \"#utility.yul\":3182:3215   */\n      tag_315\n      jump\t// in\n    tag_344:\n        /* \"#utility.yul\":3246:3248   */\n      0x60\n        /* \"#utility.yul\":3231:3249   */\n      dup6\n      add\n        /* \"#utility.yul\":3224:3258   */\n      dup10\n      swap1\n      mstore\n      sub(shl(0xa0, 0x01), 0x01)\n        /* \"#utility.yul\":3295:3327   */\n      dup9\n      and\n        /* \"#utility.yul\":3289:3292   */\n      0x80\n        /* \"#utility.yul\":3274:3293   */\n      dup7\n      add\n        /* \"#utility.yul\":3267:3328   */\n      mstore\n        /* \"#utility.yul\":3315:3318   */\n      0xa0\n        /* \"#utility.yul\":3344:3363   */\n      dup6\n      add\n        /* \"#utility.yul\":3337:3372   */\n      dup8\n      swap1\n      mstore\n        /* \"#utility.yul\":3409:3431   */\n      dup5\n      dup2\n      sub\n        /* \"#utility.yul\":3403:3406   */\n      0xc0\n        /* \"#utility.yul\":3388:3407   */\n      dup7\n      add\n        /* \"#utility.yul\":3381:3432   */\n      mstore\n        /* \"#utility.yul\":3481:3494   */\n      dup6\n      mload\n        /* \"#utility.yul\":3503:3525   */\n      dup1\n      dup3\n      mstore\n        /* \"#utility.yul\":3579:3594   */\n      dup4\n      dup8\n      add\n      swap3\n      pop\n        /* \"#utility.yul\":3541:3556   */\n      swap1\n      dup4\n      add\n      swap1\n      0x00\n        /* \"#utility.yul\":3622:3791   */\n    tag_345:\n        /* \"#utility.yul\":3636:3642   */\n      dup2\n        /* \"#utility.yul\":3633:3634   */\n      dup2\n        /* \"#utility.yul\":3630:3643   */\n      lt\n        /* \"#utility.yul\":3622:3791   */\n      iszero\n      tag_347\n      jumpi\n        /* \"#utility.yul\":3697:3710   */\n      dup4\n      mload\n        /* \"#utility.yul\":3685:3711   */\n      dup4\n      mstore\n        /* \"#utility.yul\":3766:3781   */\n      swap3\n      dup5\n      add\n      swap3\n        /* \"#utility.yul\":3731:3743   */\n      swap2\n      dup5\n      add\n      swap2\n        /* \"#utility.yul\":3658:3659   */\n      0x01\n        /* \"#utility.yul\":3651:3660   */\n      add\n        /* \"#utility.yul\":3622:3791   */\n      jump(tag_345)\n    tag_347:\n      pop\n        /* \"#utility.yul\":3808:3811   */\n      swap1\n      swap13\n        /* \"#utility.yul\":2558:3817   */\n      swap12\n      pop\n      pop\n      pop\n      pop\n      pop\n      pop\n      pop\n      pop\n      pop\n      pop\n      pop\n      pop\n      jump\t// out\n        /* \"#utility.yul\":4030:4723   */\n    tag_90:\n        /* \"#utility.yul\":4141:4147   */\n      0x00\n        /* \"#utility.yul\":4149:4155   */\n      dup1\n        /* \"#utility.yul\":4157:4163   */\n      0x00\n        /* \"#utility.yul\":4165:4171   */\n      dup1\n        /* \"#utility.yul\":4173:4179   */\n      0x00\n        /* \"#utility.yul\":4181:4187   */\n      dup1\n        /* \"#utility.yul\":4189:4195   */\n      0x00\n        /* \"#utility.yul\":4242:4245   */\n      0xe0\n        /* \"#utility.yul\":4230:4239   */\n      dup9\n        /* \"#utility.yul\":4221:4228   */\n      dup11\n        /* \"#utility.yul\":4217:4240   */\n      sub\n        /* \"#utility.yul\":4213:4246   */\n      slt\n        /* \"#utility.yul\":4210:4263   */\n      iszero\n      tag_350\n      jumpi\n        /* \"#utility.yul\":4259:4260   */\n      0x00\n        /* \"#utility.yul\":4256:4257   */\n      dup1\n        /* \"#utility.yul\":4249:4261   */\n      revert\n        /* \"#utility.yul\":4210:4263   */\n    tag_350:\n        /* \"#utility.yul\":4282:4311   */\n      tag_351\n        /* \"#utility.yul\":4301:4310   */\n      dup9\n        /* \"#utility.yul\":4282:4311   */\n      tag_316\n      jump\t// in\n    tag_351:\n        /* \"#utility.yul\":4272:4311   */\n      swap7\n      pop\n        /* \"#utility.yul\":4330:4368   */\n      tag_352\n        /* \"#utility.yul\":4364:4366   */\n      0x20\n        /* \"#utility.yul\":4353:4362   */\n      dup10\n        /* \"#utility.yul\":4349:4367   */\n      add\n        /* \"#utility.yul\":4330:4368   */\n      tag_316\n      jump\t// in\n    tag_352:\n        /* \"#utility.yul\":4320:4368   */\n      swap6\n      pop\n        /* \"#utility.yul\":4415:4417   */\n      0x40\n        /* \"#utility.yul\":4404:4413   */\n      dup9\n        /* \"#utility.yul\":4400:4418   */\n      add\n        /* \"#utility.yul\":4387:4419   */\n      calldataload\n        /* \"#utility.yul\":4377:4419   */\n      swap5\n      pop\n        /* \"#utility.yul\":4466:4468   */\n      0x60\n        /* \"#utility.yul\":4455:4464   */\n      dup9\n        /* \"#utility.yul\":4451:4469   */\n      add\n        /* \"#utility.yul\":4438:4470   */\n      calldataload\n        /* \"#utility.yul\":4428:4470   */\n      swap4\n      pop\n        /* \"#utility.yul\":4520:4523   */\n      0x80\n        /* \"#utility.yul\":4509:4518   */\n      dup9\n        /* \"#utility.yul\":4505:4524   */\n      add\n        /* \"#utility.yul\":4492:4525   */\n      calldataload\n        /* \"#utility.yul\":4565:4569   */\n      0xff\n        /* \"#utility.yul\":4558:4563   */\n      dup2\n        /* \"#utility.yul\":4554:4570   */\n      and\n        /* \"#utility.yul\":4547:4552   */\n      dup2\n        /* \"#utility.yul\":4544:4571   */\n      eq\n        /* \"#utility.yul\":4534:4589   */\n      tag_353\n      jumpi\n        /* \"#utility.yul\":4585:4586   */\n      0x00\n        /* \"#utility.yul\":4582:4583   */\n      dup1\n        /* \"#utility.yul\":4575:4587   */\n      revert\n        /* \"#utility.yul\":4534:4589   */\n    tag_353:\n        /* \"#utility.yul\":4030:4723   */\n      swap7\n      swap10\n      swap6\n      swap9\n      pop\n      swap4\n      swap7\n      swap3\n      swap6\n        /* \"#utility.yul\":4608:4613   */\n      swap5\n        /* \"#utility.yul\":4660:4663   */\n      0xa0\n        /* \"#utility.yul\":4645:4664   */\n      dup5\n      add\n        /* \"#utility.yul\":4632:4665   */\n      calldataload\n      swap5\n      pop\n        /* \"#utility.yul\":4712:4715   */\n      0xc0\n        /* \"#utility.yul\":4697:4716   */\n      swap1\n      swap4\n      add\n        /* \"#utility.yul\":4684:4717   */\n      calldataload\n      swap3\n        /* \"#utility.yul\":4030:4723   */\n      swap2\n      pop\n      pop\n      jump\t// out\n        /* \"#utility.yul\":4728:4988   */\n    tag_94:\n        /* \"#utility.yul\":4796:4802   */\n      0x00\n        /* \"#utility.yul\":4804:4810   */\n      dup1\n        /* \"#utility.yul\":4857:4859   */\n      0x40\n        /* \"#utility.yul\":4845:4854   */\n      dup4\n        /* \"#utility.yul\":4836:4843   */\n      dup6\n        /* \"#utility.yul\":4832:4855   */\n      sub\n        /* \"#utility.yul\":4828:4860   */\n      slt\n        /* \"#utility.yul\":4825:4877   */\n      iszero\n      tag_355\n      jumpi\n        /* \"#utility.yul\":4873:4874   */\n      0x00\n        /* \"#utility.yul\":4870:4871   */\n      dup1\n        /* \"#utility.yul\":4863:4875   */\n      revert\n        /* \"#utility.yul\":4825:4877   */\n    tag_355:\n        /* \"#utility.yul\":4896:4925   */\n      tag_356\n        /* \"#utility.yul\":4915:4924   */\n      dup4\n        /* \"#utility.yul\":4896:4925   */\n      tag_316\n      jump\t// in\n    tag_356:\n        /* \"#utility.yul\":4886:4925   */\n      swap2\n      pop\n        /* \"#utility.yul\":4944:4982   */\n      tag_357\n        /* \"#utility.yul\":4978:4980   */\n      0x20\n        /* \"#utility.yul\":4967:4976   */\n      dup5\n        /* \"#utility.yul\":4963:4981   */\n      add\n        /* \"#utility.yul\":4944:4982   */\n      tag_316\n      jump\t// in\n    tag_357:\n        /* \"#utility.yul\":4934:4982   */\n      swap1\n      pop\n        /* \"#utility.yul\":4728:4988   */\n      swap3\n      pop\n      swap3\n      swap1\n      pop\n      jump\t// out\n        /* \"#utility.yul\":4993:5373   */\n    tag_102:\n        /* \"#utility.yul\":5072:5073   */\n      0x01\n        /* \"#utility.yul\":5068:5080   */\n      dup2\n      dup2\n      shr\n      swap1\n        /* \"#utility.yul\":5115:5127   */\n      dup3\n      and\n      dup1\n        /* \"#utility.yul\":5136:5197   */\n      tag_359\n      jumpi\n        /* \"#utility.yul\":5190:5194   */\n      0x7f\n        /* \"#utility.yul\":5182:5188   */\n      dup3\n        /* \"#utility.yul\":5178:5195   */\n      and\n        /* \"#utility.yul\":5168:5195   */\n      swap2\n      pop\n        /* \"#utility.yul\":5136:5197   */\n    tag_359:\n        /* \"#utility.yul\":5243:5245   */\n      0x20\n        /* \"#utility.yul\":5235:5241   */\n      dup3\n        /* \"#utility.yul\":5232:5246   */\n      lt\n        /* \"#utility.yul\":5212:5230   */\n      dup2\n        /* \"#utility.yul\":5209:5247   */\n      sub\n        /* \"#utility.yul\":5206:5367   */\n      tag_360\n      jumpi\n        /* \"#utility.yul\":5289:5299   */\n      0x4e487b71\n        /* \"#utility.yul\":5284:5287   */\n      0xe0\n        /* \"#utility.yul\":5280:5300   */\n      shl\n        /* \"#utility.yul\":5277:5278   */\n      0x00\n        /* \"#utility.yul\":5270:5301   */\n      mstore\n        /* \"#utility.yul\":5324:5328   */\n      0x22\n        /* \"#utility.yul\":5321:5322   */\n      0x04\n        /* \"#utility.yul\":5314:5329   */\n      mstore\n        /* \"#utility.yul\":5352:5356   */\n      0x24\n        /* \"#utility.yul\":5349:5350   */\n      0x00\n        /* \"#utility.yul\":5342:5357   */\n      revert\n        /* \"#utility.yul\":5206:5367   */\n    tag_360:\n      pop\n        /* \"#utility.yul\":4993:5373   */\n      swap2\n      swap1\n      pop\n      jump\t// out\n        /* \"#utility.yul\":6765:6987   */\n    tag_252:\n        /* \"#utility.yul\":6830:6839   */\n      dup1\n      dup3\n      add\n        /* \"#utility.yul\":6851:6861   */\n      dup1\n      dup3\n      gt\n        /* \"#utility.yul\":6848:6981   */\n      iszero\n      tag_107\n      jumpi\n        /* \"#utility.yul\":6903:6913   */\n      0x4e487b71\n        /* \"#utility.yul\":6898:6901   */\n      0xe0\n        /* \"#utility.yul\":6894:6914   */\n      shl\n        /* \"#utility.yul\":6891:6892   */\n      0x00\n        /* \"#utility.yul\":6884:6915   */\n      mstore\n        /* \"#utility.yul\":6938:6942   */\n      0x11\n        /* \"#utility.yul\":6935:6936   */\n      0x04\n        /* \"#utility.yul\":6928:6943   */\n      mstore\n        /* \"#utility.yul\":6966:6970   */\n      0x24\n        /* \"#utility.yul\":6963:6964   */\n      0x00\n        /* \"#utility.yul\":6956:6971   */\n      revert\n        /* \"#utility.yul\":7889:8016   */\n    tag_283:\n        /* \"#utility.yul\":7950:7960   */\n      0x4e487b71\n        /* \"#utility.yul\":7945:7948   */\n      0xe0\n        /* \"#utility.yul\":7941:7961   */\n      shl\n        /* \"#utility.yul\":7938:7939   */\n      0x00\n        /* \"#utility.yul\":7931:7962   */\n      mstore\n        /* \"#utility.yul\":7981:7985   */\n      0x21\n        /* \"#utility.yul\":7978:7979   */\n      0x04\n        /* \"#utility.yul\":7971:7986   */\n      mstore\n        /* \"#utility.yul\":8005:8009   */\n      0x24\n        /* \"#utility.yul\":8002:8003   */\n      0x00\n        /* \"#utility.yul\":7995:8010   */\n      revert\n\n    auxdata: 0xa26469706673582212200c6c291f83c7cb60abbe9518f38b0b2c7fc0e60e2d67bfa6bd1fdbd8ee674e4a64736f6c63430008140033\n}\n",
				"bytecode": {
					"linkReferences": {},
					"object": "61016060405234801562000011575f80fd5b50604051620018bc380380620018bc83398101604081905262000034916200042b565b6040518060400160405280600b81526020016a223ab832b9102a37b5b2b760a91b81525080604051806040016040528060018152602001603160f81b815250836040518060400160405280600b81526020016a223ab832b9102a37b5b2b760a91b8152506040518060400160405280600381526020016244544b60e81b8152508160039081620000c59190620004fa565b506004620000d48282620004fa565b5050506001600160a01b0381166200010657604051631e4fbdf760e01b81525f60048201526024015b60405180910390fd5b6200011181620001f5565b506200011f82600662000246565b610120526200013081600762000246565b61014052815160208084019190912060e052815190820120610100524660a052620001bd60e05161010051604080517f8b73c3c69bb8fe3d512ecc4cf759cc79239f7b179b0ffacaa9a75d522b39400f60208201529081019290925260608201524660808201523060a08201525f9060c00160405160208183030381529060405280519060200120905090565b60805250503060c05250620001ee33620001da6012600a620006cf565b620001e8906103e8620006df565b6200027e565b5062000780565b600580546001600160a01b038381166001600160a01b0319831681179093556040519116919082907f8be0079c531659141344cd1fd0a4f28419497f9722a3daafe3b4186f6b6457e0905f90a35050565b5f60208351101562000265576200025d83620002ba565b905062000278565b81620002728482620004fa565b5060ff90505b92915050565b6001600160a01b038216620002a95760405163ec442f0560e01b81525f6004820152602401620000fd565b620002b65f8383620002fc565b5050565b5f80829050601f81511115620002e7578260405163305a27a960e01b8152600401620000fd9190620006f9565b8051620002f48262000746565b179392505050565b6001600160a01b0383166200032a578060025f8282546200031e91906200076a565b909155506200039c9050565b6001600160a01b0383165f90815260208190526040902054818110156200037e5760405163391434e360e21b81526001600160a01b03851660048201526024810182905260448101839052606401620000fd565b6001600160a01b0384165f9081526020819052604090209082900390555b6001600160a01b038216620003ba57600280548290039055620003d8565b6001600160a01b0382165f9081526020819052604090208054820190555b816001600160a01b0316836001600160a01b03167fddf252ad1be2c89b69c2b068fc378daa952ba7f163c4a11628f55a4df523b3ef836040516200041e91815260200190565b60405180910390a3505050565b5f602082840312156200043c575f80fd5b81516001600160a01b038116811462000453575f80fd5b9392505050565b634e487b7160e01b5f52604160045260245ffd5b600181811c908216806200048357607f821691505b602082108103620004a257634e487b7160e01b5f52602260045260245ffd5b50919050565b601f821115620004f5575f81815260208120601f850160051c81016020861015620004d05750805b601f850160051c820191505b81811015620004f157828155600101620004dc565b5050505b505050565b81516001600160401b038111156200051657620005166200045a565b6200052e816200052784546200046e565b84620004a8565b602080601f83116001811462000564575f84156200054c5750858301515b5f19600386901b1c1916600185901b178555620004f1565b5f85815260208120601f198616915b82811015620005945788860151825594840194600190910190840162000573565b5085821015620005b257878501515f19600388901b60f8161c191681555b5050505050600190811b01905550565b634e487b7160e01b5f52601160045260245ffd5b600181815b808511156200061657815f1904821115620005fa57620005fa620005c2565b808516156200060857918102915b93841c9390800290620005db565b509250929050565b5f826200062e5750600162000278565b816200063c57505f62000278565b8160018114620006555760028114620006605762000680565b600191505062000278565b60ff841115620006745762000674620005c2565b50506001821b62000278565b5060208310610133831016604e8410600b8410161715620006a5575081810a62000278565b620006b18383620005d6565b805f1904821115620006c757620006c7620005c2565b029392505050565b5f6200045360ff8416836200061e565b8082028115828204841417620002785762000278620005c2565b5f6020808352835180828501525f5b81811015620007265785810183015185820160400152820162000708565b505f604082860101526040601f19601f8301168501019250505092915050565b80516020808301519190811015620004a2575f1960209190910360031b1b16919050565b80820180821115620002785762000278620005c2565b60805160a05160c05160e0516101005161012051610140516110ea620007d25f395f61090c01525f6108df01525f6107a201525f61077a01525f6106d501525f6106ff01525f61072901526110ea5ff3fe608060405234801561000f575f80fd5b506004361061011c575f3560e01c8063715018a6116100a957806395d89b411161006e57806395d89b4114610251578063a9059cbb14610259578063d505accf1461026c578063dd62ed3e1461027f578063f2fde38b146102b7575f80fd5b8063715018a6146101ed57806379cc6790146101f55780637ecebe001461020857806384b0196e1461021b5780638da5cb5b14610236575f80fd5b8063313ce567116100ef578063313ce567146101865780633644e5151461019557806340c10f191461019d57806342966c68146101b257806370a08231146101c5575f80fd5b806306fdde0314610120578063095ea7b31461013e57806318160ddd1461016157806323b872dd14610173575b5f80fd5b6101286102ca565b6040516101359190610e52565b60405180910390f35b61015161014c366004610e86565b61035a565b6040519015158152602001610135565b6002545b604051908152602001610135565b610151610181366004610eae565b610373565b60405160128152602001610135565b610165610396565b6101b06101ab366004610e86565b6103a4565b005b6101b06101c0366004610ee7565b6103ba565b6101656101d3366004610efe565b6001600160a01b03165f9081526020819052604090205490565b6101b06103c7565b6101b0610203366004610e86565b6103da565b610165610216366004610efe565b6103ef565b61022361040c565b6040516101359796959493929190610f17565b6005546040516001600160a01b039091168152602001610135565b61012861044e565b610151610267366004610e86565b61045d565b6101b061027a366004610fab565b61046a565b61016561028d366004611018565b6001600160a01b039182165f90815260016020908152604080832093909416825291909152205490565b6101b06102c5366004610efe565b6105a5565b6060600380546102d990611049565b80601f016020809104026020016040519081016040528092919081815260200182805461030590611049565b80156103505780601f1061032757610100808354040283529160200191610350565b820191905f5260205f20905b81548152906001019060200180831161033357829003601f168201915b5050505050905090565b5f336103678185856105df565b60019150505b92915050565b5f336103808582856105f1565b61038b85858561066c565b506001949350505050565b5f61039f6106c9565b905090565b6103ac6107f2565b6103b6828261081f565b5050565b6103c43382610853565b50565b6103cf6107f2565b6103d85f610887565b565b6103e58233836105f1565b6103b68282610853565b6001600160a01b0381165f9081526008602052604081205461036d565b5f6060805f805f606061041d6108d8565b610425610905565b604080515f80825260208201909252600f60f81b9b939a50919850469750309650945092509050565b6060600480546102d990611049565b5f3361036781858561066c565b834211156104935760405163313c898160e11b8152600481018590526024015b60405180910390fd5b5f7f6e71edae12b1b97f4d1f60370fef10105fa2faae0126114a169c64845d6126c98888886104de8c6001600160a01b03165f90815260086020526040902080546001810190915590565b6040805160208101969096526001600160a01b0394851690860152929091166060840152608083015260a082015260c0810186905260e0016040516020818303038152906040528051906020012090505f61053882610932565b90505f6105478287878761095e565b9050896001600160a01b0316816001600160a01b03161461058e576040516325c0072360e11b81526001600160a01b0380831660048301528b16602482015260440161048a565b6105998a8a8a6105df565b50505050505050505050565b6105ad6107f2565b6001600160a01b0381166105d657604051631e4fbdf760e01b81525f600482015260240161048a565b6103c481610887565b6105ec838383600161098a565b505050565b6001600160a01b038381165f908152600160209081526040808320938616835292905220545f198114610666578181101561065857604051637dc7a0d960e11b81526001600160a01b0384166004820152602481018290526044810183905260640161048a565b61066684848484035f61098a565b50505050565b6001600160a01b03831661069557604051634b637e8f60e11b81525f600482015260240161048a565b6001600160a01b0382166106be5760405163ec442f0560e01b81525f600482015260240161048a565b6105ec838383610a5c565b5f306001600160a01b037f00000000000000000000000000000000000000000000000000000000000000001614801561072157507f000000000000000000000000000000000000000000000000000000000000000046145b1561074b57507f000000000000000000000000000000000000000000000000000000000000000090565b61039f604080517f8b73c3c69bb8fe3d512ecc4cf759cc79239f7b179b0ffacaa9a75d522b39400f60208201527f0000000000000000000000000000000000000000000000000000000000000000918101919091527f000000000000000000000000000000000000000000000000000000000000000060608201524660808201523060a08201525f9060c00160405160208183030381529060405280519060200120905090565b6005546001600160a01b031633146103d85760405163118cdaa760e01b815233600482015260240161048a565b6001600160a01b0382166108485760405163ec442f0560e01b81525f600482015260240161048a565b6103b65f8383610a5c565b6001600160a01b03821661087c57604051634b637e8f60e11b81525f600482015260240161048a565b6103b6825f83610a5c565b600580546001600160a01b038381166001600160a01b0319831681179093556040519116919082907f8be0079c531659141344cd1fd0a4f28419497f9722a3daafe3b4186f6b6457e0905f90a35050565b606061039f7f00000000000000000000000000000000000000000000000000000000000000006006610b82565b606061039f7f00000000000000000000000000000000000000000000000000000000000000006007610b82565b5f61036d61093e6106c9565b8360405161190160f01b8152600281019290925260228201526042902090565b5f805f8061096e88888888610c2b565b92509250925061097e8282610cf3565b50909695505050505050565b6001600160a01b0384166109b35760405163e602df0560e01b81525f600482015260240161048a565b6001600160a01b0383166109dc57604051634a1406b160e11b81525f600482015260240161048a565b6001600160a01b038085165f908152600160209081526040808320938716835292905220829055801561066657826001600160a01b0316846001600160a01b03167f8c5be1e5ebec7d5bd14f71427d1e84f3dd0314c0f7b2291e5b200ac8c7c3b92584604051610a4e91815260200190565b60405180910390a350505050565b6001600160a01b038316610a86578060025f828254610a7b9190611081565b90915550610af69050565b6001600160a01b0383165f9081526020819052604090205481811015610ad85760405163391434e360e21b81526001600160a01b0385166004820152602481018290526044810183905260640161048a565b6001600160a01b0384165f9081526020819052604090209082900390555b6001600160a01b038216610b1257600280548290039055610b30565b6001600160a01b0382165f9081526020819052604090208054820190555b816001600160a01b0316836001600160a01b03167fddf252ad1be2c89b69c2b068fc378daa952ba7f163c4a11628f55a4df523b3ef83604051610b7591815260200190565b60405180910390a3505050565b606060ff8314610b9c57610b9583610dab565b905061036d565b818054610ba890611049565b80601f0160208091040260200160405190810160405280929190818152602001828054610bd490611049565b8015610c1f5780601f10610bf657610100808354040283529160200191610c1f565b820191905f5260205f20905b815481529060010190602001808311610c0257829003601f168201915b5050505050905061036d565b5f80807f7fffffffffffffffffffffffffffffff5d576e7357a4501ddfe92f46681b20a0841115610c6457505f91506003905082610ce9565b604080515f808252602082018084528a905260ff891692820192909252606081018790526080810186905260019060a0016020604051602081039080840390855afa158015610cb5573d5f803e3d5ffd5b5050604051601f1901519150506001600160a01b038116610ce057505f925060019150829050610ce9565b92505f91508190505b9450945094915050565b5f826003811115610d0657610d066110a0565b03610d0f575050565b6001826003811115610d2357610d236110a0565b03610d415760405163f645eedf60e01b815260040160405180910390fd5b6002826003811115610d5557610d556110a0565b03610d765760405163fce698f760e01b81526004810182905260240161048a565b6003826003811115610d8a57610d8a6110a0565b036103b6576040516335e2f38360e21b81526004810182905260240161048a565b60605f610db783610de8565b6040805160208082528183019092529192505f91906020820181803683375050509182525060208101929092525090565b5f60ff8216601f81111561036d57604051632cd44ac360e21b815260040160405180910390fd5b5f81518084525f5b81811015610e3357602081850181015186830182015201610e17565b505f602082860101526020601f19601f83011685010191505092915050565b602081525f610e646020830184610e0f565b9392505050565b80356001600160a01b0381168114610e81575f80fd5b919050565b5f8060408385031215610e97575f80fd5b610ea083610e6b565b946020939093013593505050565b5f805f60608486031215610ec0575f80fd5b610ec984610e6b565b9250610ed760208501610e6b565b9150604084013590509250925092565b5f60208284031215610ef7575f80fd5b5035919050565b5f60208284031215610f0e575f80fd5b610e6482610e6b565b60ff60f81b881681525f602060e081840152610f3660e084018a610e0f565b8381036040850152610f48818a610e0f565b606085018990526001600160a01b038816608086015260a0850187905284810360c086015285518082528387019250908301905f5b81811015610f9957835183529284019291840191600101610f7d565b50909c9b505050505050505050505050565b5f805f805f805f60e0888a031215610fc1575f80fd5b610fca88610e6b565b9650610fd860208901610e6b565b95506040880135945060608801359350608088013560ff81168114610ffb575f80fd5b9699959850939692959460a0840135945060c09093013592915050565b5f8060408385031215611029575f80fd5b61103283610e6b565b915061104060208401610e6b565b90509250929050565b600181811c9082168061105d57607f821691505b60208210810361107b57634e487b7160e01b5f52602260045260245ffd5b50919050565b8082018082111561036d57634e487b7160e01b5f52601160045260245ffd5b634e487b7160e01b5f52602160045260245ffdfea26469706673582212200c6c291f83c7cb60abbe9518f38b0b2c7fc0e60e2d67bfa6bd1fdbd8ee674e4a64736f6c63430008140033",
					"opcodes": "PUSH2 0x160 PUSH1 0x40 MSTORE CALLVALUE DUP1 ISZERO PUSH3 0x11 JUMPI PUSH0 DUP1 REVERT JUMPDEST POP PUSH1 0x40 MLOAD PUSH3 0x18BC CODESIZE SUB DUP1 PUSH3 0x18BC DUP4 CODECOPY DUP2 ADD PUSH1 0x40 DUP2 SWAP1 MSTORE PUSH3 0x34 SWAP2 PUSH3 0x42B JUMP JUMPDEST PUSH1 0x40 MLOAD DUP1 PUSH1 0x40 ADD PUSH1 0x40 MSTORE DUP1 PUSH1 0xB DUP2 MSTORE PUSH1 0x20 ADD PUSH11 0x223AB832B9102A37B5B2B7 PUSH1 0xA9 SHL DUP2 MSTORE POP DUP1 PUSH1 0x40 MLOAD DUP1 PUSH1 0x40 ADD PUSH1 0x40 MSTORE DUP1 PUSH1 0x1 DUP2 MSTORE PUSH1 0x20 ADD PUSH1 0x31 PUSH1 0xF8 SHL DUP2 MSTORE POP DUP4 PUSH1 0x40 MLOAD DUP1 PUSH1 0x40 ADD PUSH1 0x40 MSTORE DUP1 PUSH1 0xB DUP2 MSTORE PUSH1 0x20 ADD PUSH11 0x223AB832B9102A37B5B2B7 PUSH1 0xA9 SHL DUP2 MSTORE POP PUSH1 0x40 MLOAD DUP1 PUSH1 0x40 ADD PUSH1 0x40 MSTORE DUP1 PUSH1 0x3 DUP2 MSTORE PUSH1 0x20 ADD PUSH3 0x44544B PUSH1 0xE8 SHL DUP2 MSTORE POP DUP2 PUSH1 0x3 SWAP1 DUP2 PUSH3 0xC5 SWAP2 SWAP1 PUSH3 0x4FA JUMP JUMPDEST POP PUSH1 0x4 PUSH3 0xD4 DUP3 DUP3 PUSH3 0x4FA JUMP JUMPDEST POP POP POP PUSH1 0x1 PUSH1 0x1 PUSH1 0xA0 SHL SUB DUP2 AND PUSH3 0x106 JUMPI PUSH1 0x40 MLOAD PUSH4 0x1E4FBDF7 PUSH1 0xE0 SHL DUP2 MSTORE PUSH0 PUSH1 0x4 DUP3 ADD MSTORE PUSH1 0x24 ADD JUMPDEST PUSH1 0x40 MLOAD DUP1 SWAP2 SUB SWAP1 REVERT JUMPDEST PUSH3 0x111 DUP2 PUSH3 0x1F5 JUMP JUMPDEST POP PUSH3 0x11F DUP3 PUSH1 0x6 PUSH3 0x246 JUMP JUMPDEST PUSH2 0x120 MSTORE PUSH3 0x130 DUP2 PUSH1 0x7 PUSH3 0x246 JUMP JUMPDEST PUSH2 0x140 MSTORE DUP2 MLOAD PUSH1 0x20 DUP1 DUP5 ADD SWAP2 SWAP1 SWAP2 KECCAK256 PUSH1 0xE0 MSTORE DUP2 MLOAD SWAP1 DUP3 ADD KECCAK256 PUSH2 0x100 MSTORE CHAINID PUSH1 0xA0 MSTORE PUSH3 0x1BD PUSH1 0xE0 MLOAD PUSH2 0x100 MLOAD PUSH1 0x40 DUP1 MLOAD PUSH32 0x8B73C3C69BB8FE3D512ECC4CF759CC79239F7B179B0FFACAA9A75D522B39400F PUSH1 0x20 DUP3 ADD MSTORE SWAP1 DUP2 ADD SWAP3 SWAP1 SWAP3 MSTORE PUSH1 0x60 DUP3 ADD MSTORE CHAINID PUSH1 0x80 DUP3 ADD MSTORE ADDRESS PUSH1 0xA0 DUP3 ADD MSTORE PUSH0 SWAP1 PUSH1 0xC0 ADD PUSH1 0x40 MLOAD PUSH1 0x20 DUP2 DUP4 SUB SUB DUP2 MSTORE SWAP1 PUSH1 0x40 MSTORE DUP1 MLOAD SWAP1 PUSH1 0x20 ADD KECCAK256 SWAP1 POP SWAP1 JUMP JUMPDEST PUSH1 0x80 MSTORE POP POP ADDRESS PUSH1 0xC0 MSTORE POP PUSH3 0x1EE CALLER PUSH3 0x1DA PUSH1 0x12 PUSH1 0xA PUSH3 0x6CF JUMP JUMPDEST PUSH3 0x1E8 SWAP1 PUSH2 0x3E8 PUSH3 0x6DF JUMP JUMPDEST PUSH3 0x27E JUMP JUMPDEST POP PUSH3 0x780 JUMP JUMPDEST PUSH1 0x5 DUP1 SLOAD PUSH1 0x1 PUSH1 0x1 PUSH1 0xA0 SHL SUB DUP4 DUP2 AND PUSH1 0x1 PUSH1 0x1 PUSH1 0xA0 SHL SUB NOT DUP4 AND DUP2 OR SWAP1 SWAP4 SSTORE PUSH1 0x40 MLOAD SWAP2 AND SWAP2 SWAP1 DUP3 SWAP1 PUSH32 0x8BE0079C531659141344CD1FD0A4F28419497F9722A3DAAFE3B4186F6B6457E0 SWAP1 PUSH0 SWAP1 LOG3 POP POP JUMP JUMPDEST PUSH0 PUSH1 0x20 DUP4 MLOAD LT ISZERO PUSH3 0x265 JUMPI PUSH3 0x25D DUP4 PUSH3 0x2BA JUMP JUMPDEST SWAP1 POP PUSH3 0x278 JUMP JUMPDEST DUP2 PUSH3 0x272 DUP5 DUP3 PUSH3 0x4FA JUMP JUMPDEST POP PUSH1 0xFF SWAP1 POP JUMPDEST SWAP3 SWAP2 POP POP JUMP JUMPDEST PUSH1 0x1 PUSH1 0x1 PUSH1 0xA0 SHL SUB DUP3 AND PUSH3 0x2A9 JUMPI PUSH1 0x40 MLOAD PUSH4 0xEC442F05 PUSH1 0xE0 SHL DUP2 MSTORE PUSH0 PUSH1 0x4 DUP3 ADD MSTORE PUSH1 0x24 ADD PUSH3 0xFD JUMP JUMPDEST PUSH3 0x2B6 PUSH0 DUP4 DUP4 PUSH3 0x2FC JUMP JUMPDEST POP POP JUMP JUMPDEST PUSH0 DUP1 DUP3 SWAP1 POP PUSH1 0x1F DUP2 MLOAD GT ISZERO PUSH3 0x2E7 JUMPI DUP3 PUSH1 0x40 MLOAD PUSH4 0x305A27A9 PUSH1 0xE0 SHL DUP2 MSTORE PUSH1 0x4 ADD PUSH3 0xFD SWAP2 SWAP1 PUSH3 0x6F9 JUMP JUMPDEST DUP1 MLOAD PUSH3 0x2F4 DUP3 PUSH3 0x746 JUMP JUMPDEST OR SWAP4 SWAP3 POP POP POP JUMP JUMPDEST PUSH1 0x1 PUSH1 0x1 PUSH1 0xA0 SHL SUB DUP4 AND PUSH3 0x32A JUMPI DUP1 PUSH1 0x2 PUSH0 DUP3 DUP3 SLOAD PUSH3 0x31E SWAP2 SWAP1 PUSH3 0x76A JUMP JUMPDEST SWAP1 SWAP2 SSTORE POP PUSH3 0x39C SWAP1 POP JUMP JUMPDEST PUSH1 0x1 PUSH1 0x1 PUSH1 0xA0 SHL SUB DUP4 AND PUSH0 SWAP1 DUP2 MSTORE PUSH1 0x20 DUP2 SWAP1 MSTORE PUSH1 0x40 SWAP1 KECCAK256 SLOAD DUP2 DUP2 LT ISZERO PUSH3 0x37E JUMPI PUSH1 0x40 MLOAD PUSH4 0x391434E3 PUSH1 0xE2 SHL DUP2 MSTORE PUSH1 0x1 PUSH1 0x1 PUSH1 0xA0 SHL SUB DUP6 AND PUSH1 0x4 DUP3 ADD MSTORE PUSH1 0x24 DUP2 ADD DUP3 SWAP1 MSTORE PUSH1 0x44 DUP2 ADD DUP4 SWAP1 MSTORE PUSH1 0x64 ADD PUSH3 0xFD JUMP JUMPDEST PUSH1 0x1 PUSH1 0x1 PUSH1 0xA0 SHL SUB DUP5 AND PUSH0 SWAP1 DUP2 MSTORE PUSH1 0x20 DUP2 SWAP1 MSTORE PUSH1 0x40 SWAP1 KECCAK256 SWAP1 DUP3 SWAP1 SUB SWAP1 SSTORE JUMPDEST PUSH1 0x1 PUSH1 0x1 PUSH1 0xA0 SHL SUB DUP3 AND PUSH3 0x3BA JUMPI PUSH1 0x2 DUP1 SLOAD DUP3 SWAP1 SUB SWAP1 SSTORE PUSH3 0x3D8 JUMP JUMPDEST PUSH1 0x1 PUSH1 0x1 PUSH1 0xA0 SHL SUB DUP3 AND PUSH0 SWAP1 DUP2 MSTORE PUSH1 0x20 DUP2 SWAP1 MSTORE PUSH1 0x40 SWAP1 KECCAK256 DUP1 SLOAD DUP3 ADD SWAP1 SSTORE JUMPDEST DUP2 PUSH1 0x1 PUSH1 0x1 PUSH1 0xA0 SHL SUB AND DUP4 PUSH1 0x1 PUSH1 0x1 PUSH1 0xA0 SHL SUB AND PUSH32 0xDDF252AD1BE2C89B69C2B068FC378DAA952BA7F163C4A11628F55A4DF523B3EF DUP4 PUSH1 0x40 MLOAD PUSH3 0x41E SWAP2 DUP2 MSTORE PUSH1 0x20 ADD SWAP1 JUMP JUMPDEST PUSH1 0x40 MLOAD DUP1 SWAP2 SUB SWAP1 LOG3 POP POP POP JUMP JUMPDEST PUSH0 PUSH1 0x20 DUP3 DUP5 SUB SLT ISZERO PUSH3 0x43C JUMPI PUSH0 DUP1 REVERT JUMPDEST DUP2 MLOAD PUSH1 0x1 PUSH1 0x1 PUSH1 0xA0 SHL SUB DUP2 AND DUP2 EQ PUSH3 0x453 JUMPI PUSH0 DUP1 REVERT JUMPDEST SWAP4 SWAP3 POP POP POP JUMP JUMPDEST PUSH4 0x4E487B71 PUSH1 0xE0 SHL PUSH0 MSTORE PUSH1 0x41 PUSH1 0x4 MSTORE PUSH1 0x24 PUSH0 REVERT JUMPDEST PUSH1 0x1 DUP2 DUP2 SHR SWAP1 DUP3 AND DUP1 PUSH3 0x483 JUMPI PUSH1 0x7F DUP3 AND SWAP2 POP JUMPDEST PUSH1 0x20 DUP3 LT DUP2 SUB PUSH3 0x4A2 JUMPI PUSH4 0x4E487B71 PUSH1 0xE0 SHL PUSH0 MSTORE PUSH1 0x22 PUSH1 0x4 MSTORE PUSH1 0x24 PUSH0 REVERT JUMPDEST POP SWAP2 SWAP1 POP JUMP JUMPDEST PUSH1 0x1F DUP3 GT ISZERO PUSH3 0x4F5 JUMPI PUSH0 DUP2 DUP2 MSTORE PUSH1 0x20 DUP2 KECCAK256 PUSH1 0x1F DUP6 ADD PUSH1 0x5 SHR DUP2 ADD PUSH1 0x20 DUP7 LT ISZERO PUSH3 0x4D0 JUMPI POP DUP1 JUMPDEST PUSH1 0x1F DUP6 ADD PUSH1 0x5 SHR DUP3 ADD SWAP2 POP JUMPDEST DUP2 DUP2 LT ISZERO PUSH3 0x4F1 JUMPI DUP3 DUP2 SSTORE PUSH1 0x1 ADD PUSH3 0x4DC JUMP JUMPDEST POP POP POP JUMPDEST POP POP POP JUMP JUMPDEST DUP2 MLOAD PUSH1 0x1 PUSH1 0x1 PUSH1 0x40 SHL SUB DUP2 GT ISZERO PUSH3 0x516 JUMPI PUSH3 0x516 PUSH3 0x45A JUMP JUMPDEST PUSH3 0x52E DUP2 PUSH3 0x527 DUP5 SLOAD PUSH3 0x46E JUMP JUMPDEST DUP5 PUSH3 0x4A8 JUMP JUMPDEST PUSH1 0x20 DUP1 PUSH1 0x1F DUP4 GT PUSH1 0x1 DUP2 EQ PUSH3 0x564 JUMPI PUSH0 DUP5 ISZERO PUSH3 0x54C JUMPI POP DUP6 DUP4 ADD MLOAD JUMPDEST PUSH0 NOT PUSH1 0x3 DUP7 SWAP1 SHL SHR NOT AND PUSH1 0x1 DUP6 SWAP1 SHL OR DUP6 SSTORE PUSH3 0x4F1 JUMP JUMPDEST PUSH0 DUP6 DUP2 MSTORE PUSH1 0x20 DUP2 KECCAK256 PUSH1 0x1F NOT DUP7 AND SWAP2 JUMPDEST DUP3 DUP2 LT ISZERO PUSH3 0x594 JUMPI DUP9 DUP7 ADD MLOAD DUP3 SSTORE SWAP5 DUP5 ADD SWAP5 PUSH1 0x1 SWAP1 SWAP2 ADD SWAP1 DUP5 ADD PUSH3 0x573 JUMP JUMPDEST POP DUP6 DUP3 LT ISZERO PUSH3 0x5B2 JUMPI DUP8 DUP6 ADD MLOAD PUSH0 NOT PUSH1 0x3 DUP9 SWAP1 SHL PUSH1 0xF8 AND SHR NOT AND DUP2 SSTORE JUMPDEST POP POP POP POP POP PUSH1 0x1 SWAP1 DUP2 SHL ADD SWAP1 SSTORE POP JUMP JUMPDEST PUSH4 0x4E487B71 PUSH1 0xE0 SHL PUSH0 MSTORE PUSH1 0x11 PUSH1 0x4 MSTORE PUSH1 0x24 PUSH0 REVERT JUMPDEST PUSH1 0x1 DUP2 DUP2 JUMPDEST DUP1 DUP6 GT ISZERO PUSH3 0x616 JUMPI DUP2 PUSH0 NOT DIV DUP3 GT ISZERO PUSH3 0x5FA JUMPI PUSH3 0x5FA PUSH3 0x5C2 JUMP JUMPDEST DUP1 DUP6 AND ISZERO PUSH3 0x608 JUMPI SWAP2 DUP2 MUL SWAP2 JUMPDEST SWAP4 DUP5 SHR SWAP4 SWAP1 DUP1 MUL SWAP1 PUSH3 0x5DB JUMP JUMPDEST POP SWAP3 POP SWAP3 SWAP1 POP JUMP JUMPDEST PUSH0 DUP3 PUSH3 0x62E JUMPI POP PUSH1 0x1 PUSH3 0x278 JUMP JUMPDEST DUP2 PUSH3 0x63C JUMPI POP PUSH0 PUSH3 0x278 JUMP JUMPDEST DUP2 PUSH1 0x1 DUP2 EQ PUSH3 0x655 JUMPI PUSH1 0x2 DUP2 EQ PUSH3 0x660 JUMPI PUSH3 0x680 JUMP JUMPDEST PUSH1 0x1 SWAP2 POP POP PUSH3 0x278 JUMP JUMPDEST PUSH1 0xFF DUP5 GT ISZERO PUSH3 0x674 JUMPI PUSH3 0x674 PUSH3 0x5C2 JUMP JUMPDEST POP POP PUSH1 0x1 DUP3 SHL PUSH3 0x278 JUMP JUMPDEST POP PUSH1 0x20 DUP4 LT PUSH2 0x133 DUP4 LT AND PUSH1 0x4E DUP5 LT PUSH1 0xB DUP5 LT AND OR ISZERO PUSH3 0x6A5 JUMPI POP DUP2 DUP2 EXP PUSH3 0x278 JUMP JUMPDEST PUSH3 0x6B1 DUP4 DUP4 PUSH3 0x5D6 JUMP JUMPDEST DUP1 PUSH0 NOT DIV DUP3 GT ISZERO PUSH3 0x6C7 JUMPI PUSH3 0x6C7 PUSH3 0x5C2 JUMP JUMPDEST MUL SWAP4 SWAP3 POP POP POP JUMP JUMPDEST PUSH0 PUSH3 0x453 PUSH1 0xFF DUP5 AND DUP4 PUSH3 0x61E JUMP JUMPDEST DUP1 DUP3 MUL DUP2 ISZERO DUP3 DUP3 DIV DUP5 EQ OR PUSH3 0x278 JUMPI PUSH3 0x278 PUSH3 0x5C2 JUMP JUMPDEST PUSH0 PUSH1 0x20 DUP1 DUP4 MSTORE DUP4 MLOAD DUP1 DUP3 DUP6 ADD MSTORE PUSH0 JUMPDEST DUP2 DUP2 LT ISZERO PUSH3 0x726 JUMPI DUP6 DUP2 ADD DUP4 ADD MLOAD DUP6 DUP3 ADD PUSH1 0x40 ADD MSTORE DUP3 ADD PUSH3 0x708 JUMP JUMPDEST POP PUSH0 PUSH1 0x40 DUP3 DUP7 ADD ADD MSTORE PUSH1 0x40 PUSH1 0x1F NOT PUSH1 0x1F DUP4 ADD AND DUP6 ADD ADD SWAP3 POP POP POP SWAP3 SWAP2 POP POP JUMP JUMPDEST DUP1 MLOAD PUSH1 0x20 DUP1 DUP4 ADD MLOAD SWAP2 SWAP1 DUP2 LT ISZERO PUSH3 0x4A2 JUMPI PUSH0 NOT PUSH1 0x20 SWAP2 SWAP1 SWAP2 SUB PUSH1 0x3 SHL SHL AND SWAP2 SWAP1 POP JUMP JUMPDEST DUP1 DUP3 ADD DUP1 DUP3 GT ISZERO PUSH3 0x278 JUMPI PUSH3 0x278 PUSH3 0x5C2 JUMP JUMPDEST PUSH1 0x80 MLOAD PUSH1 0xA0 MLOAD PUSH1 0xC0 MLOAD PUSH1 0xE0 MLOAD PUSH2 0x100 MLOAD PUSH2 0x120 MLOAD PUSH2 0x140 MLOAD PUSH2 0x10EA PUSH3 0x7D2 PUSH0 CODECOPY PUSH0 PUSH2 0x90C ADD MSTORE PUSH0 PUSH2 0x8DF ADD MSTORE PUSH0 PUSH2 0x7A2 ADD MSTORE PUSH0 PUSH2 0x77A ADD MSTORE PUSH0 PUSH2 0x6D5 ADD MSTORE PUSH0 PUSH2 0x6FF ADD MSTORE PUSH0 PUSH2 0x729 ADD MSTORE PUSH2 0x10EA PUSH0 RETURN INVALID PUSH1 0x80 PUSH1 0x40 MSTORE CALLVALUE DUP1 ISZERO PUSH2 0xF JUMPI PUSH0 DUP1 REVERT JUMPDEST POP PUSH1 0x4 CALLDATASIZE LT PUSH2 0x11C JUMPI PUSH0 CALLDATALOAD PUSH1 0xE0 SHR DUP1 PUSH4 0x715018A6 GT PUSH2 0xA9 JUMPI DUP1 PUSH4 0x95D89B41 GT PUSH2 0x6E JUMPI DUP1 PUSH4 0x95D89B41 EQ PUSH2 0x251 JUMPI DUP1 PUSH4 0xA9059CBB EQ PUSH2 0x259 JUMPI DUP1 PUSH4 0xD505ACCF EQ PUSH2 0x26C JUMPI DUP1 PUSH4 0xDD62ED3E EQ PUSH2 0x27F JUMPI DUP1 PUSH4 0xF2FDE38B EQ PUSH2 0x2B7 JUMPI PUSH0 DUP1 REVERT JUMPDEST DUP1 PUSH4 0x715018A6 EQ PUSH2 0x1ED JUMPI DUP1 PUSH4 0x79CC6790 EQ PUSH2 0x1F5 JUMPI DUP1 PUSH4 0x7ECEBE00 EQ PUSH2 0x208 JUMPI DUP1 PUSH4 0x84B0196E EQ PUSH2 0x21B JUMPI DUP1 PUSH4 0x8DA5CB5B EQ PUSH2 0x236 JUMPI PUSH0 DUP1 REVERT JUMPDEST DUP1 PUSH4 0x313CE567 GT PUSH2 0xEF JUMPI DUP1 PUSH4 0x313CE567 EQ PUSH2 0x186 JUMPI DUP1 PUSH4 0x3644E515 EQ PUSH2 0x195 JUMPI DUP1 PUSH4 0x40C10F19 EQ PUSH2 0x19D JUMPI DUP1 PUSH4 0x42966C68 EQ PUSH2 0x1B2 JUMPI DUP1 PUSH4 0x70A08231 EQ PUSH2 0x1C5 JUMPI PUSH0 DUP1 REVERT JUMPDEST DUP1 PUSH4 0x6FDDE03 EQ PUSH2 0x120 JUMPI DUP1 PUSH4 0x95EA7B3 EQ PUSH2 0x13E JUMPI DUP1 PUSH4 0x18160DDD EQ PUSH2 0x161 JUMPI DUP1 PUSH4 0x23B872DD EQ PUSH2 0x173 JUMPI JUMPDEST PUSH0 DUP1 REVERT JUMPDEST PUSH2 0x128 PUSH2 0x2CA JUMP JUMPDEST PUSH1 0x40 MLOAD PUSH2 0x135 SWAP2 SWAP1 PUSH2 0xE52 JUMP JUMPDEST PUSH1 0x40 MLOAD DUP1 SWAP2 SUB SWAP1 RETURN JUMPDEST PUSH2 0x151 PUSH2 0x14C CALLDATASIZE PUSH1 0x4 PUSH2 0xE86 JUMP JUMPDEST PUSH2 0x35A JUMP JUMPDEST PUSH1 0x40 MLOAD SWAP1 ISZERO ISZERO DUP2 MSTORE PUSH1 0x20 ADD PUSH2 0x135 JUMP JUMPDEST PUSH1 0x2 SLOAD JUMPDEST PUSH1 0x40 MLOAD SWAP1 DUP2 MSTORE PUSH1 0x20 ADD PUSH2 0x135 JUMP JUMPDEST PUSH2 0x151 PUSH2 0x181 CALLDATASIZE PUSH1 0x4 PUSH2 0xEAE JUMP JUMPDEST PUSH2 0x373 JUMP JUMPDEST PUSH1 0x40 MLOAD PUSH1 0x12 DUP2 MSTORE PUSH1 0x20 ADD PUSH2 0x135 JUMP JUMPDEST PUSH2 0x165 PUSH2 0x396 JUMP JUMPDEST PUSH2 0x1B0 PUSH2 0x1AB CALLDATASIZE PUSH1 0x4 PUSH2 0xE86 JUMP JUMPDEST PUSH2 0x3A4 JUMP JUMPDEST STOP JUMPDEST PUSH2 0x1B0 PUSH2 0x1C0 CALLDATASIZE PUSH1 0x4 PUSH2 0xEE7 JUMP JUMPDEST PUSH2 0x3BA JUMP JUMPDEST PUSH2 0x165 PUSH2 0x1D3 CALLDATASIZE PUSH1 0x4 PUSH2 0xEFE JUMP JUMPDEST PUSH1 0x1 PUSH1 0x1 PUSH1 0xA0 SHL SUB AND PUSH0 SWAP1 DUP2 MSTORE PUSH1 0x20 DUP2 SWAP1 MSTORE PUSH1 0x40 SWAP1 KECCAK256 SLOAD SWAP1 JUMP JUMPDEST PUSH2 0x1B0 PUSH2 0x3C7 JUMP JUMPDEST PUSH2 0x1B0 PUSH2 0x203 CALLDATASIZE PUSH1 0x4 PUSH2 0xE86 JUMP JUMPDEST PUSH2 0x3DA JUMP JUMPDEST PUSH2 0x165 PUSH2 0x216 CALLDATASIZE PUSH1 0x4 PUSH2 0xEFE JUMP JUMPDEST PUSH2 0x3EF JUMP JUMPDEST PUSH2 0x223 PUSH2 0x40C JUMP JUMPDEST PUSH1 0x40 MLOAD PUSH2 0x135 SWAP8 SWAP7 SWAP6 SWAP5 SWAP4 SWAP3 SWAP2 SWAP1 PUSH2 0xF17 JUMP JUMPDEST PUSH1 0x5 SLOAD PUSH1 0x40 MLOAD PUSH1 0x1 PUSH1 0x1 PUSH1 0xA0 SHL SUB SWAP1 SWAP2 AND DUP2 MSTORE PUSH1 0x20 ADD PUSH2 0x135 JUMP JUMPDEST PUSH2 0x128 PUSH2 0x44E JUMP JUMPDEST PUSH2 0x151 PUSH2 0x267 CALLDATASIZE PUSH1 0x4 PUSH2 0xE86 JUMP JUMPDEST PUSH2 0x45D JUMP JUMPDEST PUSH2 0x1B0 PUSH2 0x27A CALLDATASIZE PUSH1 0x4 PUSH2 0xFAB JUMP JUMPDEST PUSH2 0x46A JUMP JUMPDEST PUSH2 0x165 PUSH2 0x28D CALLDATASIZE PUSH1 0x4 PUSH2 0x1018 JUMP JUMPDEST PUSH1 0x1 PUSH1 0x1 PUSH1 0xA0 SHL SUB SWAP2 DUP3 AND PUSH0 SWAP1 DUP2 MSTORE PUSH1 0x1 PUSH1 0x20 SWAP1 DUP2 MSTORE PUSH1 0x40 DUP1 DUP4 KECCAK256 SWAP4 SWAP1 SWAP5 AND DUP3 MSTORE SWAP2 SWAP1 SWAP2 MSTORE KECCAK256 SLOAD SWAP1 JUMP JUMPDEST PUSH2 0x1B0 PUSH2 0x2C5 CALLDATASIZE PUSH1 0x4 PUSH2 0xEFE JUMP JUMPDEST PUSH2 0x5A5 JUMP JUMPDEST PUSH1 0x60 PUSH1 0x3 DUP1 SLOAD PUSH2 0x2D9 SWAP1 PUSH2 0x1049 JUMP JUMPDEST DUP1 PUSH1 0x1F ADD PUSH1 0x20 DUP1 SWAP2 DIV MUL PUSH1 0x20 ADD PUSH1 0x40 MLOAD SWAP1 DUP2 ADD PUSH1 0x40 MSTORE DUP1 SWAP3 SWAP2 SWAP1 DUP2 DUP2 MSTORE PUSH1 0x20 ADD DUP3 DUP1 SLOAD PUSH2 0x305 SWAP1 PUSH2 0x1049 JUMP JUMPDEST DUP1 ISZERO PUSH2 0x350 JUMPI DUP1 PUSH1 0x1F LT PUSH2 0x327 JUMPI PUSH2 0x100 DUP1 DUP4 SLOAD DIV MUL DUP4 MSTORE SWAP2 PUSH1 0x20 ADD SWAP2 PUSH2 0x350 JUMP JUMPDEST DUP3 ADD SWAP2 SWAP1 PUSH0 MSTORE PUSH1 0x20 PUSH0 KECCAK256 SWAP1 JUMPDEST DUP2 SLOAD DUP2 MSTORE SWAP1 PUSH1 0x1 ADD SWAP1 PUSH1 0x20 ADD DUP1 DUP4 GT PUSH2 0x333 JUMPI DUP3 SWAP1 SUB PUSH1 0x1F AND DUP3 ADD SWAP2 JUMPDEST POP POP POP POP POP SWAP1 POP SWAP1 JUMP JUMPDEST PUSH0 CALLER PUSH2 0x367 DUP2 DUP6 DUP6 PUSH2 0x5DF JUMP JUMPDEST PUSH1 0x1 SWAP2 POP POP JUMPDEST SWAP3 SWAP2 POP POP JUMP JUMPDEST PUSH0 CALLER PUSH2 0x380 DUP6 DUP3 DUP6 PUSH2 0x5F1 JUMP JUMPDEST PUSH2 0x38B DUP6 DUP6 DUP6 PUSH2 0x66C JUMP JUMPDEST POP PUSH1 0x1 SWAP5 SWAP4 POP POP POP POP JUMP JUMPDEST PUSH0 PUSH2 0x39F PUSH2 0x6C9 JUMP JUMPDEST SWAP1 POP SWAP1 JUMP JUMPDEST PUSH2 0x3AC PUSH2 0x7F2 JUMP JUMPDEST PUSH2 0x3B6 DUP3 DUP3 PUSH2 0x81F JUMP JUMPDEST POP POP JUMP JUMPDEST PUSH2 0x3C4 CALLER DUP3 PUSH2 0x853 JUMP JUMPDEST POP JUMP JUMPDEST PUSH2 0x3CF PUSH2 0x7F2 JUMP JUMPDEST PUSH2 0x3D8 PUSH0 PUSH2 0x887 JUMP JUMPDEST JUMP JUMPDEST PUSH2 0x3E5 DUP3 CALLER DUP4 PUSH2 0x5F1 JUMP JUMPDEST PUSH2 0x3B6 DUP3 DUP3 PUSH2 0x853 JUMP JUMPDEST PUSH1 0x1 PUSH1 0x1 PUSH1 0xA0 SHL SUB DUP2 AND PUSH0 SWAP1 DUP2 MSTORE PUSH1 0x8 PUSH1 0x20 MSTORE PUSH1 0x40 DUP2 KECCAK256 SLOAD PUSH2 0x36D JUMP JUMPDEST PUSH0 PUSH1 0x60 DUP1 PUSH0 DUP1 PUSH0 PUSH1 0x60 PUSH2 0x41D PUSH2 0x8D8 JUMP JUMPDEST PUSH2 0x425 PUSH2 0x905 JUMP JUMPDEST PUSH1 0x40 DUP1 MLOAD PUSH0 DUP1 DUP3 MSTORE PUSH1 0x20 DUP3 ADD SWAP1 SWAP3 MSTORE PUSH1 0xF PUSH1 0xF8 SHL SWAP12 SWAP4 SWAP11 POP SWAP2 SWAP9 POP CHAINID SWAP8 POP ADDRESS SWAP7 POP SWAP5 POP SWAP3 POP SWAP1 POP JUMP JUMPDEST PUSH1 0x60 PUSH1 0x4 DUP1 SLOAD PUSH2 0x2D9 SWAP1 PUSH2 0x1049 JUMP JUMPDEST PUSH0 CALLER PUSH2 0x367 DUP2 DUP6 DUP6 PUSH2 0x66C JUMP JUMPDEST DUP4 TIMESTAMP GT ISZERO PUSH2 0x493 JUMPI PUSH1 0x40 MLOAD PUSH4 0x313C8981 PUSH1 0xE1 SHL DUP2 MSTORE PUSH1 0x4 DUP2 ADD DUP6 SWAP1 MSTORE PUSH1 0x24 ADD JUMPDEST PUSH1 0x40 MLOAD DUP1 SWAP2 SUB SWAP1 REVERT JUMPDEST PUSH0 PUSH32 0x6E71EDAE12B1B97F4D1F60370FEF10105FA2FAAE0126114A169C64845D6126C9 DUP9 DUP9 DUP9 PUSH2 0x4DE DUP13 PUSH1 0x1 PUSH1 0x1 PUSH1 0xA0 SHL SUB AND PUSH0 SWAP1 DUP2 MSTORE PUSH1 0x8 PUSH1 0x20 MSTORE PUSH1 0x40 SWAP1 KECCAK256 DUP1 SLOAD PUSH1 0x1 DUP2 ADD SWAP1 SWAP2 SSTORE SWAP1 JUMP JUMPDEST PUSH1 0x40 DUP1 MLOAD PUSH1 0x20 DUP2 ADD SWAP7 SWAP1 SWAP7 MSTORE PUSH1 0x1 PUSH1 0x1 PUSH1 0xA0 SHL SUB SWAP5 DUP6 AND SWAP1 DUP7 ADD MSTORE SWAP3 SWAP1 SWAP2 AND PUSH1 0x60 DUP5 ADD MSTORE PUSH1 0x80 DUP4 ADD MSTORE PUSH1 0xA0 DUP3 ADD MSTORE PUSH1 0xC0 DUP2 ADD DUP7 SWAP1 MSTORE PUSH1 0xE0 ADD PUSH1 0x40 MLOAD PUSH1 0x20 DUP2 DUP4 SUB SUB DUP2 MSTORE SWAP1 PUSH1 0x40 MSTORE DUP1 MLOAD SWAP1 PUSH1 0x20 ADD KECCAK256 SWAP1 POP PUSH0 PUSH2 0x538 DUP3 PUSH2 0x932 JUMP JUMPDEST SWAP1 POP PUSH0 PUSH2 0x547 DUP3 DUP8 DUP8 DUP8 PUSH2 0x95E JUMP JUMPDEST SWAP1 POP DUP10 PUSH1 0x1 PUSH1 0x1 PUSH1 0xA0 SHL SUB AND DUP2 PUSH1 0x1 PUSH1 0x1 PUSH1 0xA0 SHL SUB AND EQ PUSH2 0x58E JUMPI PUSH1 0x40 MLOAD PUSH4 0x25C00723 PUSH1 0xE1 SHL DUP2 MSTORE PUSH1 0x1 PUSH1 0x1 PUSH1 0xA0 SHL SUB DUP1 DUP4 AND PUSH1 0x4 DUP4 ADD MSTORE DUP12 AND PUSH1 0x24 DUP3 ADD MSTORE PUSH1 0x44 ADD PUSH2 0x48A JUMP JUMPDEST PUSH2 0x599 DUP11 DUP11 DUP11 PUSH2 0x5DF JUMP JUMPDEST POP POP POP POP POP POP POP POP POP POP JUMP JUMPDEST PUSH2 0x5AD PUSH2 0x7F2 JUMP JUMPDEST PUSH1 0x1 PUSH1 0x1 PUSH1 0xA0 SHL SUB DUP2 AND PUSH2 0x5D6 JUMPI PUSH1 0x40 MLOAD PUSH4 0x1E4FBDF7 PUSH1 0xE0 SHL DUP2 MSTORE PUSH0 PUSH1 0x4 DUP3 ADD MSTORE PUSH1 0x24 ADD PUSH2 0x48A JUMP JUMPDEST PUSH2 0x3C4 DUP2 PUSH2 0x887 JUMP JUMPDEST PUSH2 0x5EC DUP4 DUP4 DUP4 PUSH1 0x1 PUSH2 0x98A JUMP JUMPDEST POP POP POP JUMP JUMPDEST PUSH1 0x1 PUSH1 0x1 PUSH1 0xA0 SHL SUB DUP4 DUP2 AND PUSH0 SWAP1 DUP2 MSTORE PUSH1 0x1 PUSH1 0x20 SWAP1 DUP2 MSTORE PUSH1 0x40 DUP1 DUP4 KECCAK256 SWAP4 DUP7 AND DUP4 MSTORE SWAP3 SWAP1 MSTORE KECCAK256 SLOAD PUSH0 NOT DUP2 EQ PUSH2 0x666 JUMPI DUP2 DUP2 LT ISZERO PUSH2 0x658 JUMPI PUSH1 0x40 MLOAD PUSH4 0x7DC7A0D9 PUSH1 0xE1 SHL DUP2 MSTORE PUSH1 0x1 PUSH1 0x1 PUSH1 0xA0 SHL SUB DUP5 AND PUSH1 0x4 DUP3 ADD MSTORE PUSH1 0x24 DUP2 ADD DUP3 SWAP1 MSTORE PUSH1 0x44 DUP2 ADD DUP4 SWAP1 MSTORE PUSH1 0x64 ADD PUSH2 0x48A JUMP JUMPDEST PUSH2 0x666 DUP5 DUP5 DUP5 DUP5 SUB PUSH0 PUSH2 0x98A JUMP JUMPDEST POP POP POP POP JUMP JUMPDEST PUSH1 0x1 PUSH1 0x1 PUSH1 0xA0 SHL SUB DUP4 AND PUSH2 0x695 JUMPI PUSH1 0x40 MLOAD PUSH4 0x4B637E8F PUSH1 0xE1 SHL DUP2 MSTORE PUSH0 PUSH1 0x4 DUP3 ADD MSTORE PUSH1 0x24 ADD PUSH2 0x48A JUMP JUMPDEST PUSH1 0x1 PUSH1 0x1 PUSH1 0xA0 SHL SUB DUP3 AND PUSH2 0x6BE JUMPI PUSH1 0x40 MLOAD PUSH4 0xEC442F05 PUSH1 0xE0 SHL DUP2 MSTORE PUSH0 PUSH1 0x4 DUP3 ADD MSTORE PUSH1 0x24 ADD PUSH2 0x48A JUMP JUMPDEST PUSH2 0x5EC DUP4 DUP4 DUP4 PUSH2 0xA5C JUMP JUMPDEST PUSH0 ADDRESS PUSH1 0x1 PUSH1 0x1 PUSH1 0xA0 SHL SUB PUSH32 0x0 AND EQ DUP1 ISZERO PUSH2 0x721 JUMPI POP PUSH32 0x0 CHAINID EQ JUMPDEST ISZERO PUSH2 0x74B JUMPI POP PUSH32 0x0 SWAP1 JUMP JUMPDEST PUSH2 0x39F PUSH1 0x40 DUP1 MLOAD PUSH32 0x8B73C3C69BB8FE3D512ECC4CF759CC79239F7B179B0FFACAA9A75D522B39400F PUSH1 0x20 DUP3 ADD MSTORE PUSH32 0x0 SWAP2 DUP2 ADD SWAP2 SWAP1 SWAP2 MSTORE PUSH32 0x0 PUSH1 0x60 DUP3 ADD MSTORE CHAINID PUSH1 0x80 DUP3 ADD MSTORE ADDRESS PUSH1 0xA0 DUP3 ADD MSTORE PUSH0 SWAP1 PUSH1 0xC0 ADD PUSH1 0x40 MLOAD PUSH1 0x20 DUP2 DUP4 SUB SUB DUP2 MSTORE SWAP1 PUSH1 0x40 MSTORE DUP1 MLOAD SWAP1 PUSH1 0x20 ADD KECCAK256 SWAP1 POP SWAP1 JUMP JUMPDEST PUSH1 0x5 SLOAD PUSH1 0x1 PUSH1 0x1 PUSH1 0xA0 SHL SUB AND CALLER EQ PUSH2 0x3D8 JUMPI PUSH1 0x40 MLOAD PUSH4 0x118CDAA7 PUSH1 0xE0 SHL DUP2 MSTORE CALLER PUSH1 0x4 DUP3 ADD MSTORE PUSH1 0x24 ADD PUSH2 0x48A JUMP JUMPDEST PUSH1 0x1 PUSH1 0x1 PUSH1 0xA0 SHL SUB DUP3 AND PUSH2 0x848 JUMPI PUSH1 0x40 MLOAD PUSH4 0xEC442F05 PUSH1 0xE0 SHL DUP2 MSTORE PUSH0 PUSH1 0x4 DUP3 ADD MSTORE PUSH1 0x24 ADD PUSH2 0x48A JUMP JUMPDEST PUSH2 0x3B6 PUSH0 DUP4 DUP4 PUSH2 0xA5C JUMP JUMPDEST PUSH1 0x1 PUSH1 0x1 PUSH1 0xA0 SHL SUB DUP3 AND PUSH2 0x87C JUMPI PUSH1 0x40 MLOAD PUSH4 0x4B637E8F PUSH1 0xE1 SHL DUP2 MSTORE PUSH0 PUSH1 0x4 DUP3 ADD MSTORE PUSH1 0x24 ADD PUSH2 0x48A JUMP JUMPDEST PUSH2 0x3B6 DUP3 PUSH0 DUP4 PUSH2 0xA5C JUMP JUMPDEST PUSH1 0x5 DUP1 SLOAD PUSH1 0x1 PUSH1 0x1 PUSH1 0xA0 SHL SUB DUP4 DUP2 AND PUSH1 0x1 PUSH1 0x1 PUSH1 0xA0 SHL SUB NOT DUP4 AND DUP2 OR SWAP1 SWAP4 SSTORE PUSH1 0x40 MLOAD SWAP2 AND SWAP2 SWAP1 DUP3 SWAP1 PUSH32 0x8BE0079C531659141344CD1FD0A4F28419497F9722A3DAAFE3B4186F6B6457E0 SWAP1 PUSH0 SWAP1 LOG3 POP POP JUMP JUMPDEST PUSH1 0x60 PUSH2 0x39F PUSH32 0x0 PUSH1 0x6 PUSH2 0xB82 JUMP JUMPDEST PUSH1 0x60 PUSH2 0x39F PUSH32 0x0 PUSH1 0x7 PUSH2 0xB82 JUMP JUMPDEST PUSH0 PUSH2 0x36D PUSH2 0x93E PUSH2 0x6C9 JUMP JUMPDEST DUP4 PUSH1 0x40 MLOAD PUSH2 0x1901 PUSH1 0xF0 SHL DUP2 MSTORE PUSH1 0x2 DUP2 ADD SWAP3 SWAP1 SWAP3 MSTORE PUSH1 0x22 DUP3 ADD MSTORE PUSH1 0x42 SWAP1 KECCAK256 SWAP1 JUMP JUMPDEST PUSH0 DUP1 PUSH0 DUP1 PUSH2 0x96E DUP9 DUP9 DUP9 DUP9 PUSH2 0xC2B JUMP JUMPDEST SWAP3 POP SWAP3 POP SWAP3 POP PUSH2 0x97E DUP3 DUP3 PUSH2 0xCF3 JUMP JUMPDEST POP SWAP1 SWAP7 SWAP6 POP POP POP POP POP POP JUMP JUMPDEST PUSH1 0x1 PUSH1 0x1 PUSH1 0xA0 SHL SUB DUP5 AND PUSH2 0x9B3 JUMPI PUSH1 0x40 MLOAD PUSH4 0xE602DF05 PUSH1 0xE0 SHL DUP2 MSTORE PUSH0 PUSH1 0x4 DUP3 ADD MSTORE PUSH1 0x24 ADD PUSH2 0x48A JUMP JUMPDEST PUSH1 0x1 PUSH1 0x1 PUSH1 0xA0 SHL SUB DUP4 AND PUSH2 0x9DC JUMPI PUSH1 0x40 MLOAD PUSH4 0x4A1406B1 PUSH1 0xE1 SHL DUP2 MSTORE PUSH0 PUSH1 0x4 DUP3 ADD MSTORE PUSH1 0x24 ADD PUSH2 0x48A JUMP JUMPDEST PUSH1 0x1 PUSH1 0x1 PUSH1 0xA0 SHL SUB DUP1 DUP6 AND PUSH0 SWAP1 DUP2 MSTORE PUSH1 0x1 PUSH1 0x20 SWAP1 DUP2 MSTORE PUSH1 0x40 DUP1 DUP4 KECCAK256 SWAP4 DUP8 AND DUP4 MSTORE SWAP3 SWAP1 MSTORE KECCAK256 DUP3 SWAP1 SSTORE DUP1 ISZERO PUSH2 0x666 JUMPI DUP3 PUSH1 0x1 PUSH1 0x1 PUSH1 0xA0 SHL SUB AND DUP5 PUSH1 0x1 PUSH1 0x1 PUSH1 0xA0 SHL SUB AND PUSH32 0x8C5BE1E5EBEC7D5BD14F71427D1E84F3DD0314C0F7B2291E5B200AC8C7C3B925 DUP5 PUSH1 0x40 MLOAD PUSH2 0xA4E SWAP2 DUP2 MSTORE PUSH1 0x20 ADD SWAP1 JUMP JUMPDEST PUSH1 0x40 MLOAD DUP1 SWAP2 SUB SWAP1 LOG3 POP POP POP POP JUMP JUMPDEST PUSH1 0x1 PUSH1 0x1 PUSH1 0xA0 SHL SUB DUP4 AND PUSH2 0xA86 JUMPI DUP1 PUSH1 0x2 PUSH0 DUP3 DUP3 SLOAD PUSH2 0xA7B SWAP2 SWAP1 PUSH2 0x1081 JUMP JUMPDEST SWAP1 SWAP2 SSTORE POP PUSH2 0xAF6 SWAP1 POP JUMP JUMPDEST PUSH1 0x1 PUSH1 0x1 PUSH1 0xA0 SHL SUB DUP4 AND PUSH0 SWAP1 DUP2 MSTORE PUSH1 0x20 DUP2 SWAP1 MSTORE PUSH1 0x40 SWAP1 KECCAK256 SLOAD DUP2 DUP2 LT ISZERO PUSH2 0xAD8 JUMPI PUSH1 0x40 MLOAD PUSH4 0x391434E3 PUSH1 0xE2 SHL DUP2 MSTORE PUSH1 0x1 PUSH1 0x1 PUSH1 0xA0 SHL SUB DUP6 AND PUSH1 0x4 DUP3 ADD MSTORE PUSH1 0x24 DUP2 ADD DUP3 SWAP1 MSTORE PUSH1 0x44 DUP2 ADD DUP4 SWAP1 MSTORE PUSH1 0x64 ADD PUSH2 0x48A JUMP JUMPDEST PUSH1 0x1 PUSH1 0x1 PUSH1 0xA0 SHL SUB DUP5 AND PUSH0 SWAP1 DUP2 MSTORE PUSH1 0x20 DUP2 SWAP1 MSTORE PUSH1 0x40 SWAP1 KECCAK256 SWAP1 DUP3 SWAP1 SUB SWAP1 SSTORE JUMPDEST PUSH1 0x1 PUSH1 0x1 PUSH1 0xA0 SHL SUB DUP3 AND PUSH2 0xB12 JUMPI PUSH1 0x2 DUP1 SLOAD DUP3 SWAP1 SUB SWAP1 SSTORE PUSH2 0xB30 JUMP JUMPDEST PUSH1 0x1 PUSH1 0x1 PUSH1 0xA0 SHL SUB DUP3 AND PUSH0 SWAP1 DUP2 MSTORE PUSH1 0x20 DUP2 SWAP1 MSTORE PUSH1 0x40 SWAP1 KECCAK256 DUP1 SLOAD DUP3 ADD SWAP1 SSTORE JUMPDEST DUP2 PUSH1 0x1 PUSH1 0x1 PUSH1 0xA0 SHL SUB AND DUP4 PUSH1 0x1 PUSH1 0x1 PUSH1 0xA0 SHL SUB AND PUSH32 0xDDF252AD1BE2C89B69C2B068FC378DAA952BA7F163C4A11628F55A4DF523B3EF DUP4 PUSH1 0x40 MLOAD PUSH2 0xB75 SWAP2 DUP2 MSTORE PUSH1 0x20 ADD SWAP1 JUMP JUMPDEST PUSH1 0x40 MLOAD DUP1 SWAP2 SUB SWAP1 LOG3 POP POP POP JUMP JUMPDEST PUSH1 0x60 PUSH1 0xFF DUP4 EQ PUSH2 0xB9C JUMPI PUSH2 0xB95 DUP4 PUSH2 0xDAB JUMP JUMPDEST SWAP1 POP PUSH2 0x36D JUMP JUMPDEST DUP2 DUP1 SLOAD PUSH2 0xBA8 SWAP1 PUSH2 0x1049 JUMP JUMPDEST DUP1 PUSH1 0x1F ADD PUSH1 0x20 DUP1 SWAP2 DIV MUL PUSH1 0x20 ADD PUSH1 0x40 MLOAD SWAP1 DUP2 ADD PUSH1 0x40 MSTORE DUP1 SWAP3 SWAP2 SWAP1 DUP2 DUP2 MSTORE PUSH1 0x20 ADD DUP3 DUP1 SLOAD PUSH2 0xBD4 SWAP1 PUSH2 0x1049 JUMP JUMPDEST DUP1 ISZERO PUSH2 0xC1F JUMPI DUP1 PUSH1 0x1F LT PUSH2 0xBF6 JUMPI PUSH2 0x100 DUP1 DUP4 SLOAD DIV MUL DUP4 MSTORE SWAP2 PUSH1 0x20 ADD SWAP2 PUSH2 0xC1F JUMP JUMPDEST DUP3 ADD SWAP2 SWAP1 PUSH0 MSTORE PUSH1 0x20 PUSH0 KECCAK256 SWAP1 JUMPDEST DUP2 SLOAD DUP2 MSTORE SWAP1 PUSH1 0x1 ADD SWAP1 PUSH1 0x20 ADD DUP1 DUP4 GT PUSH2 0xC02 JUMPI DUP3 SWAP1 SUB PUSH1 0x1F AND DUP3 ADD SWAP2 JUMPDEST POP POP POP POP POP SWAP1 POP PUSH2 0x36D JUMP JUMPDEST PUSH0 DUP1 DUP1 PUSH32 0x7FFFFFFFFFFFFFFFFFFFFFFFFFFFFFFF5D576E7357A4501DDFE92F46681B20A0 DUP5 GT ISZERO PUSH2 0xC64 JUMPI POP PUSH0 SWAP2 POP PUSH1 0x3 SWAP1 POP DUP3 PUSH2 0xCE9 JUMP JUMPDEST PUSH1 0x40 DUP1 MLOAD PUSH0 DUP1 DUP3 MSTORE PUSH1 0x20 DUP3 ADD DUP1 DUP5 MSTORE DUP11 SWAP1 MSTORE PUSH1 0xFF DUP10 AND SWAP3 DUP3 ADD SWAP3 SWAP1 SWAP3 MSTORE PUSH1 0x60 DUP2 ADD DUP8 SWAP1 MSTORE PUSH1 0x80 DUP2 ADD DUP7 SWAP1 MSTORE PUSH1 0x1 SWAP1 PUSH1 0xA0 ADD PUSH1 0x20 PUSH1 0x40 MLOAD PUSH1 0x20 DUP2 SUB SWAP1 DUP1 DUP5 SUB SWAP1 DUP6 GAS STATICCALL ISZERO DUP1 ISZERO PUSH2 0xCB5 JUMPI RETURNDATASIZE PUSH0 DUP1 RETURNDATACOPY RETURNDATASIZE PUSH0 REVERT JUMPDEST POP POP PUSH1 0x40 MLOAD PUSH1 0x1F NOT ADD MLOAD SWAP2 POP POP PUSH1 0x1 PUSH1 0x1 PUSH1 0xA0 SHL SUB DUP2 AND PUSH2 0xCE0 JUMPI POP PUSH0 SWAP3 POP PUSH1 0x1 SWAP2 POP DUP3 SWAP1 POP PUSH2 0xCE9 JUMP JUMPDEST SWAP3 POP PUSH0 SWAP2 POP DUP2 SWAP1 POP JUMPDEST SWAP5 POP SWAP5 POP SWAP5 SWAP2 POP POP JUMP JUMPDEST PUSH0 DUP3 PUSH1 0x3 DUP2 GT ISZERO PUSH2 0xD06 JUMPI PUSH2 0xD06 PUSH2 0x10A0 JUMP JUMPDEST SUB PUSH2 0xD0F JUMPI POP POP JUMP JUMPDEST PUSH1 0x1 DUP3 PUSH1 0x3 DUP2 GT ISZERO PUSH2 0xD23 JUMPI PUSH2 0xD23 PUSH2 0x10A0 JUMP JUMPDEST SUB PUSH2 0xD41 JUMPI PUSH1 0x40 MLOAD PUSH4 0xF645EEDF PUSH1 0xE0 SHL DUP2 MSTORE PUSH1 0x4 ADD PUSH1 0x40 MLOAD DUP1 SWAP2 SUB SWAP1 REVERT JUMPDEST PUSH1 0x2 DUP3 PUSH1 0x3 DUP2 GT ISZERO PUSH2 0xD55 JUMPI PUSH2 0xD55 PUSH2 0x10A0 JUMP JUMPDEST SUB PUSH2 0xD76 JUMPI PUSH1 0x40 MLOAD PUSH4 0xFCE698F7 PUSH1 0xE0 SHL DUP2 MSTORE PUSH1 0x4 DUP2 ADD DUP3 SWAP1 MSTORE PUSH1 0x24 ADD PUSH2 0x48A JUMP JUMPDEST PUSH1 0x3 DUP3 PUSH1 0x3 DUP2 GT ISZERO PUSH2 0xD8A JUMPI PUSH2 0xD8A PUSH2 0x10A0 JUMP JUMPDEST SUB PUSH2 0x3B6 JUMPI PUSH1 0x40 MLOAD PUSH4 0x35E2F383 PUSH1 0xE2 SHL DUP2 MSTORE PUSH1 0x4 DUP2 ADD DUP3 SWAP1 MSTORE PUSH1 0x24 ADD PUSH2 0x48A JUMP JUMPDEST PUSH1 0x60 PUSH0 PUSH2 0xDB7 DUP4 PUSH2 0xDE8 JUMP JUMPDEST PUSH1 0x40 DUP1 MLOAD PUSH1 0x20 DUP1 DUP3 MSTORE DUP2 DUP4 ADD SWAP1 SWAP3 MSTORE SWAP2 SWAP3 POP PUSH0 SWAP2 SWAP1 PUSH1 0x20 DUP3 ADD DUP2 DUP1 CALLDATASIZE DUP4 CALLDATACOPY POP POP POP SWAP2 DUP3 MSTORE POP PUSH1 0x20 DUP2 ADD SWAP3 SWAP1 SWAP3 MSTORE POP SWAP1 JUMP JUMPDEST PUSH0 PUSH1 0xFF DUP3 AND PUSH1 0x1F DUP2 GT ISZERO PUSH2 0x36D JUMPI PUSH1 0x40 MLOAD PUSH4 0x2CD44AC3 PUSH1 0xE2 SHL DUP2 MSTORE PUSH1 0x4 ADD PUSH1 0x40 MLOAD DUP1 SWAP2 SUB SWAP1 REVERT JUMPDEST PUSH0 DUP2 MLOAD DUP1 DUP5 MSTORE PUSH0 JUMPDEST DUP2 DUP2 LT ISZERO PUSH2 0xE33 JUMPI PUSH1 0x20 DUP2 DUP6 ADD DUP2 ADD MLOAD DUP7 DUP4 ADD DUP3 ADD MSTORE ADD PUSH2 0xE17 JUMP JUMPDEST POP PUSH0 PUSH1 0x20 DUP3 DUP7 ADD ADD MSTORE PUSH1 0x20 PUSH1 0x1F NOT PUSH1 0x1F DUP4 ADD AND DUP6 ADD ADD SWAP2 POP POP SWAP3 SWAP2 POP POP JUMP JUMPDEST PUSH1 0x20 DUP2 MSTORE PUSH0 PUSH2 0xE64 PUSH1 0x20 DUP4 ADD DUP5 PUSH2 0xE0F JUMP JUMPDEST SWAP4 SWAP3 POP POP POP JUMP JUMPDEST DUP1 CALLDATALOAD PUSH1 0x1 PUSH1 0x1 PUSH1 0xA0 SHL SUB DUP2 AND DUP2 EQ PUSH2 0xE81 JUMPI PUSH0 DUP1 REVERT JUMPDEST SWAP2 SWAP1 POP JUMP JUMPDEST PUSH0 DUP1 PUSH1 0x40 DUP4 DUP6 SUB SLT ISZERO PUSH2 0xE97 JUMPI PUSH0 DUP1 REVERT JUMPDEST PUSH2 0xEA0 DUP4 PUSH2 0xE6B JUMP JUMPDEST SWAP5 PUSH1 0x20 SWAP4 SWAP1 SWAP4 ADD CALLDATALOAD SWAP4 POP POP POP JUMP JUMPDEST PUSH0 DUP1 PUSH0 PUSH1 0x60 DUP5 DUP7 SUB SLT ISZERO PUSH2 0xEC0 JUMPI PUSH0 DUP1 REVERT JUMPDEST PUSH2 0xEC9 DUP5 PUSH2 0xE6B JUMP JUMPDEST SWAP3 POP PUSH2 0xED7 PUSH1 0x20 DUP6 ADD PUSH2 0xE6B JUMP JUMPDEST SWAP2 POP PUSH1 0x40 DUP5 ADD CALLDATALOAD SWAP1 POP SWAP3 POP SWAP3 POP SWAP3 JUMP JUMPDEST PUSH0 PUSH1 0x20 DUP3 DUP5 SUB SLT ISZERO PUSH2 0xEF7 JUMPI PUSH0 DUP1 REVERT JUMPDEST POP CALLDATALOAD SWAP2 SWAP1 POP JUMP JUMPDEST PUSH0 PUSH1 0x20 DUP3 DUP5 SUB SLT ISZERO PUSH2 0xF0E JUMPI PUSH0 DUP1 REVERT JUMPDEST PUSH2 0xE64 DUP3 PUSH2 0xE6B JUMP JUMPDEST PUSH1 0xFF PUSH1 0xF8 SHL DUP9 AND DUP2 MSTORE PUSH0 PUSH1 0x20 PUSH1 0xE0 DUP2 DUP5 ADD MSTORE PUSH2 0xF36 PUSH1 0xE0 DUP5 ADD DUP11 PUSH2 0xE0F JUMP JUMPDEST DUP4 DUP2 SUB PUSH1 0x40 DUP6 ADD MSTORE PUSH2 0xF48 DUP2 DUP11 PUSH2 0xE0F JUMP JUMPDEST PUSH1 0x60 DUP6 ADD DUP10 SWAP1 MSTORE PUSH1 0x1 PUSH1 0x1 PUSH1 0xA0 SHL SUB DUP9 AND PUSH1 0x80 DUP7 ADD MSTORE PUSH1 0xA0 DUP6 ADD DUP8 SWAP1 MSTORE DUP5 DUP2 SUB PUSH1 0xC0 DUP7 ADD MSTORE DUP6 MLOAD DUP1 DUP3 MSTORE DUP4 DUP8 ADD SWAP3 POP SWAP1 DUP4 ADD SWAP1 PUSH0 JUMPDEST DUP2 DUP2 LT ISZERO PUSH2 0xF99 JUMPI DUP4 MLOAD DUP4 MSTORE SWAP3 DUP5 ADD SWAP3 SWAP2 DUP5 ADD SWAP2 PUSH1 0x1 ADD PUSH2 0xF7D JUMP JUMPDEST POP SWAP1 SWAP13 SWAP12 POP POP POP POP POP POP POP POP POP POP POP POP JUMP JUMPDEST PUSH0 DUP1 PUSH0 DUP1 PUSH0 DUP1 PUSH0 PUSH1 0xE0 DUP9 DUP11 SUB SLT ISZERO PUSH2 0xFC1 JUMPI PUSH0 DUP1 REVERT JUMPDEST PUSH2 0xFCA DUP9 PUSH2 0xE6B JUMP JUMPDEST SWAP7 POP PUSH2 0xFD8 PUSH1 0x20 DUP10 ADD PUSH2 0xE6B JUMP JUMPDEST SWAP6 POP PUSH1 0x40 DUP9 ADD CALLDATALOAD SWAP5 POP PUSH1 0x60 DUP9 ADD CALLDATALOAD SWAP4 POP PUSH1 0x80 DUP9 ADD CALLDATALOAD PUSH1 0xFF DUP2 AND DUP2 EQ PUSH2 0xFFB JUMPI PUSH0 DUP1 REVERT JUMPDEST SWAP7 SWAP10 SWAP6 SWAP9 POP SWAP4 SWAP7 SWAP3 SWAP6 SWAP5 PUSH1 0xA0 DUP5 ADD CALLDATALOAD SWAP5 POP PUSH1 0xC0 SWAP1 SWAP4 ADD CALLDATALOAD SWAP3 SWAP2 POP POP JUMP JUMPDEST PUSH0 DUP1 PUSH1 0x40 DUP4 DUP6 SUB SLT ISZERO PUSH2 0x1029 JUMPI PUSH0 DUP1 REVERT JUMPDEST PUSH2 0x1032 DUP4 PUSH2 0xE6B JUMP JUMPDEST SWAP2 POP PUSH2 0x1040 PUSH1 0x20 DUP5 ADD PUSH2 0xE6B JUMP JUMPDEST SWAP1 POP SWAP3 POP SWAP3 SWAP1 POP JUMP JUMPDEST PUSH1 0x1 DUP2 DUP2 SHR SWAP1 DUP3 AND DUP1 PUSH2 0x105D JUMPI PUSH1 0x7F DUP3 AND SWAP2 POP JUMPDEST PUSH1 0x20 DUP3 LT DUP2 SUB PUSH2 0x107B JUMPI PUSH4 0x4E487B71 PUSH1 0xE0 SHL PUSH0 MSTORE PUSH1 0x22 PUSH1 0x4 MSTORE PUSH1 0x24 PUSH0 REVERT JUMPDEST POP SWAP2 SWAP1 POP JUMP JUMPDEST DUP1 DUP3 ADD DUP1 DUP3 GT ISZERO PUSH2 0x36D JUMPI PUSH4 0x4E487B71 PUSH1 0xE0 SHL PUSH0 MSTORE PUSH1 0x11 PUSH1 0x4 MSTORE PUSH1 0x24 PUSH0 REVERT JUMPDEST PUSH4 0x4E487B71 PUSH1 0xE0 SHL PUSH0 MSTORE PUSH1 0x21 PUSH1 0x4 MSTORE PUSH1 0x24 PUSH0 REVERT INVALID LOG2 PUSH5 0x6970667358 0x22 SLT KECCAK256 0xC PUSH13 0x291F83C7CB60ABBE9518F38B0B 0x2C PUSH32 0xC0E60E2D67BFA6BD1FDBD8EE674E4A64736F6C63430008140033000000000000 "
				},
				"gasEstimates": {
					"creation": {
						"codeDepositCost": "866000",
						"executionCost": "infinite",
						"totalCost": "infinite"
					},
					"external": {
						"DOMAIN_SEPARATOR()": "infinite",
						"allowance(address,address)": "infinite",
						"approve(address,uint256)": "24758",
						"balanceOf(address)": "2648",
						"burn(uint256)": "51005",
						"burnFrom(address,uint256)": "infinite",
						"decimals()": "199",
						"eip712Domain()": "infinite",
						"mint(address,uint256)": "infinite",
						"name()": "infinite",
						"nonces(address)": "2635",
						"owner()": "2411",
						"permit(address,address,uint256,uint256,uint8,bytes32,bytes32)": "infinite",
						"renounceOwnership()": "infinite",
						"symbol()": "infinite",
						"totalSupply()": "2348",
						"transfer(address,uint256)": "51260",
						"transferFrom(address,address,uint256)": "infinite",
						"transferOwnership(address)": "28443"
					}
				},
				"methodIdentifiers": {
					"DOMAIN_SEPARATOR()": "3644e515",
					"allowance(address,address)": "dd62ed3e",
					"approve(address,uint256)": "095ea7b3",
					"balanceOf(address)": "70a08231",
					"burn(uint256)": "42966c68",
					"burnFrom(address,uint256)": "79cc6790",
					"decimals()": "313ce567",
					"eip712Domain()": "84b0196e",
					"mint(address,uint256)": "40c10f19",
					"name()": "06fdde03",
					"nonces(address)": "7ecebe00",
					"owner()": "8da5cb5b",
					"permit(address,address,uint256,uint256,uint8,bytes32,bytes32)": "d505accf",
					"renounceOwnership()": "715018a6",
					"symbol()": "95d89b41",
					"totalSupply()": "18160ddd",
					"transfer(address,uint256)": "a9059cbb",
					"transferFrom(address,address,uint256)": "23b872dd",
					"transferOwnership(address)": "f2fde38b"
				}
			},
			"storageLayout": {
				"storage": [
					{
						"astId": 2909,
						"contract": "contracts/DuperToken_flattened.sol:DuperToken",
						"label": "_balances",
						"offset": 0,
						"slot": "0",
						"type": "t_mapping(t_address,t_uint256)"
					},
					{
						"astId": 2915,
						"contract": "contracts/DuperToken_flattened.sol:DuperToken",
						"label": "_allowances",
						"offset": 0,
						"slot": "1",
						"type": "t_mapping(t_address,t_mapping(t_address,t_uint256))"
					},
					{
						"astId": 2917,
						"contract": "contracts/DuperToken_flattened.sol:DuperToken",
						"label": "_totalSupply",
						"offset": 0,
						"slot": "2",
						"type": "t_uint256"
					},
					{
						"astId": 2919,
						"contract": "contracts/DuperToken_flattened.sol:DuperToken",
						"label": "_name",
						"offset": 0,
						"slot": "3",
						"type": "t_string_storage"
					},
					{
						"astId": 2921,
						"contract": "contracts/DuperToken_flattened.sol:DuperToken",
						"label": "_symbol",
						"offset": 0,
						"slot": "4",
						"type": "t_string_storage"
					},
					{
						"astId": 2656,
						"contract": "contracts/DuperToken_flattened.sol:DuperToken",
						"label": "_owner",
						"offset": 0,
						"slot": "5",
						"type": "t_address"
					},
					{
						"astId": 1921,
						"contract": "contracts/DuperToken_flattened.sol:DuperToken",
						"label": "_nameFallback",
						"offset": 0,
						"slot": "6",
						"type": "t_string_storage"
					},
					{
						"astId": 1923,
						"contract": "contracts/DuperToken_flattened.sol:DuperToken",
						"label": "_versionFallback",
						"offset": 0,
						"slot": "7",
						"type": "t_string_storage"
					},
					{
						"astId": 13,
						"contract": "contracts/DuperToken_flattened.sol:DuperToken",
						"label": "_nonces",
						"offset": 0,
						"slot": "8",
						"type": "t_mapping(t_address,t_uint256)"
					}
				],
				"types": {
					"t_address": {
						"encoding": "inplace",
						"label": "address",
						"numberOfBytes": "20"
					},
					"t_mapping(t_address,t_mapping(t_address,t_uint256))": {
						"encoding": "mapping",
						"key": "t_address",
						"label": "mapping(address => mapping(address => uint256))",
						"numberOfBytes": "32",
						"value": "t_mapping(t_address,t_uint256)"
					},
					"t_mapping(t_address,t_uint256)": {
						"encoding": "mapping",
						"key": "t_address",
						"label": "mapping(address => uint256)",
						"numberOfBytes": "32",
						"value": "t_uint256"
					},
					"t_string_storage": {
						"encoding": "bytes",
						"label": "string",
						"numberOfBytes": "32"
					},
					"t_uint256": {
						"encoding": "inplace",
						"label": "uint256",
						"numberOfBytes": "32"
					}
				}
			},
			"userdoc": {
				"kind": "user",
				"methods": {},
				"version": 1
			}
		}
	}
}