{
	"contracts/Types.sol": {
		"Types": {
			"abi": [
				{
					"inputs": [],
					"name": "d",
					"outputs": [
						{
							"internalType": "string",
							"name": "",
							"type": "string"
						}
					],
					"stateMutability": "view",
					"type": "function"
				},
				{
					"inputs": [],
					"name": "move",
					"outputs": [
						{
							"internalType": "enum Movemment",
							"name": "",
							"type": "uint8"
						}
					],
					"stateMutability": "view",
					"type": "function"
				},
				{
					"inputs": [],
					"name": "myBytes",
					"outputs": [
						{
							"internalType": "bytes",
							"name": "",
							"type": "bytes"
						}
					],
					"stateMutability": "view",
					"type": "function"
				},
				{
					"inputs": [],
					"name": "number",
					"outputs": [
						{
							"internalType": "string",
							"name": "",
							"type": "string"
						}
					],
					"stateMutability": "view",
					"type": "function"
				}
			],
			"devdoc": {
				"kind": "dev",
				"methods": {},
				"version": 1
			},
			"evm": {
				"assembly": "    /* \"contracts/Types.sol\":134:331  contract Types {... */\n  mstore(0x40, 0x80)\n    /* \"contracts/Types.sol\":192:229  string public d = unicode\"Hello 😃\" */\n  mload(0x40)\n  dup1\n  0x40\n  add\n  0x40\n  mstore\n  dup1\n  0x0a\n  dup2\n  mstore\n  0x20\n  add\n  0x48656c6c6f20f09f988300000000000000000000000000000000000000000000\n  dup2\n  mstore\n  pop\n  0x01\n  swap1\n  dup2\n  tag_1\n  swap2\n  swap1\n  tag_2\n  jump\t// in\ntag_1:\n  pop\n    /* \"contracts/Types.sol\":236:280  bytes public myBytes = hex\"0011223344556677\" */\n  mload(0x40)\n  dup1\n  0x40\n  add\n  0x40\n  mstore\n  dup1\n  0x08\n  dup2\n  mstore\n  0x20\n  add\n  0x11223344556677000000000000000000000000000000000000000000000000\n  dup2\n  mstore\n  pop\n  0x02\n  swap1\n  dup2\n  tag_3\n  swap2\n  swap1\n  tag_4\n  jump\t// in\ntag_3:\n  pop\n    /* \"contracts/Types.sol\":317:324  myBytes */\n  0x02\n    /* \"contracts/Types.sol\":287:325  string public number = string(myBytes) */\n  0x03\n  swap1\n  dup2\n  tag_5\n  swap2\n  swap1\n  tag_6\n  jump\t// in\ntag_5:\n  pop\n    /* \"contracts/Types.sol\":134:331  contract Types {... */\n  callvalue\n  dup1\n  iszero\n  tag_7\n  jumpi\n  0x00\n  dup1\n  revert\ntag_7:\n  pop\n  jump(tag_8)\n    /* \"#utility.yul\":7:106   */\ntag_9:\n    /* \"#utility.yul\":59:65   */\n  0x00\n    /* \"#utility.yul\":93:98   */\n  dup2\n    /* \"#utility.yul\":87:99   */\n  mload\n    /* \"#utility.yul\":77:99   */\n  swap1\n  pop\n    /* \"#utility.yul\":7:106   */\n  swap2\n  swap1\n  pop\n  jump\t// out\n    /* \"#utility.yul\":112:292   */\ntag_10:\n    /* \"#utility.yul\":160:237   */\n  0x4e487b7100000000000000000000000000000000000000000000000000000000\n    /* \"#utility.yul\":157:158   */\n  0x00\n    /* \"#utility.yul\":150:238   */\n  mstore\n    /* \"#utility.yul\":257:261   */\n  0x41\n    /* \"#utility.yul\":254:255   */\n  0x04\n    /* \"#utility.yul\":247:262   */\n  mstore\n    /* \"#utility.yul\":281:285   */\n  0x24\n    /* \"#utility.yul\":278:279   */\n  0x00\n    /* \"#utility.yul\":271:286   */\n  revert\n    /* \"#utility.yul\":298:478   */\ntag_11:\n    /* \"#utility.yul\":346:423   */\n  0x4e487b7100000000000000000000000000000000000000000000000000000000\n    /* \"#utility.yul\":343:344   */\n  0x00\n    /* \"#utility.yul\":336:424   */\n  mstore\n    /* \"#utility.yul\":443:447   */\n  0x22\n    /* \"#utility.yul\":440:441   */\n  0x04\n    /* \"#utility.yul\":433:448   */\n  mstore\n    /* \"#utility.yul\":467:471   */\n  0x24\n    /* \"#utility.yul\":464:465   */\n  0x00\n    /* \"#utility.yul\":457:472   */\n  revert\n    /* \"#utility.yul\":484:804   */\ntag_12:\n    /* \"#utility.yul\":528:534   */\n  0x00\n    /* \"#utility.yul\":565:566   */\n  0x02\n    /* \"#utility.yul\":559:563   */\n  dup3\n    /* \"#utility.yul\":555:567   */\n  div\n    /* \"#utility.yul\":545:567   */\n  swap1\n  pop\n    /* \"#utility.yul\":612:613   */\n  0x01\n    /* \"#utility.yul\":606:610   */\n  dup3\n    /* \"#utility.yul\":602:614   */\n  and\n    /* \"#utility.yul\":633:651   */\n  dup1\n    /* \"#utility.yul\":623:704   */\n  tag_38\n  jumpi\n    /* \"#utility.yul\":689:693   */\n  0x7f\n    /* \"#utility.yul\":681:687   */\n  dup3\n    /* \"#utility.yul\":677:694   */\n  and\n    /* \"#utility.yul\":667:694   */\n  swap2\n  pop\n    /* \"#utility.yul\":623:704   */\ntag_38:\n    /* \"#utility.yul\":751:753   */\n  0x20\n    /* \"#utility.yul\":743:749   */\n  dup3\n    /* \"#utility.yul\":740:754   */\n  lt\n    /* \"#utility.yul\":720:738   */\n  dup2\n    /* \"#utility.yul\":717:755   */\n  sub\n    /* \"#utility.yul\":714:798   */\n  tag_39\n  jumpi\n    /* \"#utility.yul\":770:788   */\n  tag_40\n  tag_11\n  jump\t// in\ntag_40:\n    /* \"#utility.yul\":714:798   */\ntag_39:\n    /* \"#utility.yul\":535:804   */\n  pop\n    /* \"#utility.yul\":484:804   */\n  swap2\n  swap1\n  pop\n  jump\t// out\n    /* \"#utility.yul\":810:951   */\ntag_13:\n    /* \"#utility.yul\":859:863   */\n  0x00\n    /* \"#utility.yul\":882:885   */\n  dup2\n    /* \"#utility.yul\":874:885   */\n  swap1\n  pop\n    /* \"#utility.yul\":905:908   */\n  dup2\n    /* \"#utility.yul\":902:903   */\n  0x00\n    /* \"#utility.yul\":895:909   */\n  mstore\n    /* \"#utility.yul\":939:943   */\n  0x20\n    /* \"#utility.yul\":936:937   */\n  0x00\n    /* \"#utility.yul\":926:944   */\n  keccak256\n    /* \"#utility.yul\":918:944   */\n  swap1\n  pop\n    /* \"#utility.yul\":810:951   */\n  swap2\n  swap1\n  pop\n  jump\t// out\n    /* \"#utility.yul\":957:1050   */\ntag_14:\n    /* \"#utility.yul\":994:1000   */\n  0x00\n    /* \"#utility.yul\":1041:1043   */\n  0x20\n    /* \"#utility.yul\":1036:1038   */\n  0x1f\n    /* \"#utility.yul\":1029:1034   */\n  dup4\n    /* \"#utility.yul\":1025:1039   */\n  add\n    /* \"#utility.yul\":1021:1044   */\n  div\n    /* \"#utility.yul\":1011:1044   */\n  swap1\n  pop\n    /* \"#utility.yul\":957:1050   */\n  swap2\n  swap1\n  pop\n  jump\t// out\n    /* \"#utility.yul\":1056:1163   */\ntag_15:\n    /* \"#utility.yul\":1100:1108   */\n  0x00\n    /* \"#utility.yul\":1150:1155   */\n  dup3\n    /* \"#utility.yul\":1144:1148   */\n  dup3\n    /* \"#utility.yul\":1140:1156   */\n  shl\n    /* \"#utility.yul\":1119:1156   */\n  swap1\n  pop\n    /* \"#utility.yul\":1056:1163   */\n  swap3\n  swap2\n  pop\n  pop\n  jump\t// out\n    /* \"#utility.yul\":1169:1562   */\ntag_16:\n    /* \"#utility.yul\":1238:1244   */\n  0x00\n    /* \"#utility.yul\":1288:1289   */\n  0x08\n    /* \"#utility.yul\":1276:1286   */\n  dup4\n    /* \"#utility.yul\":1272:1290   */\n  mul\n    /* \"#utility.yul\":1311:1408   */\n  tag_45\n    /* \"#utility.yul\":1341:1407   */\n  0xffffffffffffffffffffffffffffffffffffffffffffffffffffffffffffffff\n    /* \"#utility.yul\":1330:1339   */\n  dup3\n    /* \"#utility.yul\":1311:1408   */\n  tag_15\n  jump\t// in\ntag_45:\n    /* \"#utility.yul\":1429:1468   */\n  tag_46\n    /* \"#utility.yul\":1459:1467   */\n  dup7\n    /* \"#utility.yul\":1448:1457   */\n  dup4\n    /* \"#utility.yul\":1429:1468   */\n  tag_15\n  jump\t// in\ntag_46:\n    /* \"#utility.yul\":1417:1468   */\n  swap6\n  pop\n    /* \"#utility.yul\":1501:1505   */\n  dup1\n    /* \"#utility.yul\":1497:1506   */\n  not\n    /* \"#utility.yul\":1490:1495   */\n  dup5\n    /* \"#utility.yul\":1486:1507   */\n  and\n    /* \"#utility.yul\":1477:1507   */\n  swap4\n  pop\n    /* \"#utility.yul\":1550:1554   */\n  dup1\n    /* \"#utility.yul\":1540:1548   */\n  dup7\n    /* \"#utility.yul\":1536:1555   */\n  and\n    /* \"#utility.yul\":1529:1534   */\n  dup5\n    /* \"#utility.yul\":1526:1556   */\n  or\n    /* \"#utility.yul\":1516:1556   */\n  swap3\n  pop\n    /* \"#utility.yul\":1245:1562   */\n  pop\n  pop\n    /* \"#utility.yul\":1169:1562   */\n  swap4\n  swap3\n  pop\n  pop\n  pop\n  jump\t// out\n    /* \"#utility.yul\":1568:1645   */\ntag_17:\n    /* \"#utility.yul\":1605:1612   */\n  0x00\n    /* \"#utility.yul\":1634:1639   */\n  dup2\n    /* \"#utility.yul\":1623:1639   */\n  swap1\n  pop\n    /* \"#utility.yul\":1568:1645   */\n  swap2\n  swap1\n  pop\n  jump\t// out\n    /* \"#utility.yul\":1651:1711   */\ntag_18:\n    /* \"#utility.yul\":1679:1682   */\n  0x00\n    /* \"#utility.yul\":1700:1705   */\n  dup2\n    /* \"#utility.yul\":1693:1705   */\n  swap1\n  pop\n    /* \"#utility.yul\":1651:1711   */\n  swap2\n  swap1\n  pop\n  jump\t// out\n    /* \"#utility.yul\":1717:1859   */\ntag_19:\n    /* \"#utility.yul\":1767:1776   */\n  0x00\n    /* \"#utility.yul\":1800:1853   */\n  tag_50\n    /* \"#utility.yul\":1818:1852   */\n  tag_51\n    /* \"#utility.yul\":1827:1851   */\n  tag_52\n    /* \"#utility.yul\":1845:1850   */\n  dup5\n    /* \"#utility.yul\":1827:1851   */\n  tag_17\n  jump\t// in\ntag_52:\n    /* \"#utility.yul\":1818:1852   */\n  tag_18\n  jump\t// in\ntag_51:\n    /* \"#utility.yul\":1800:1853   */\n  tag_17\n  jump\t// in\ntag_50:\n    /* \"#utility.yul\":1787:1853   */\n  swap1\n  pop\n    /* \"#utility.yul\":1717:1859   */\n  swap2\n  swap1\n  pop\n  jump\t// out\n    /* \"#utility.yul\":1865:1940   */\ntag_20:\n    /* \"#utility.yul\":1908:1911   */\n  0x00\n    /* \"#utility.yul\":1929:1934   */\n  dup2\n    /* \"#utility.yul\":1922:1934   */\n  swap1\n  pop\n    /* \"#utility.yul\":1865:1940   */\n  swap2\n  swap1\n  pop\n  jump\t// out\n    /* \"#utility.yul\":1946:2215   */\ntag_21:\n    /* \"#utility.yul\":2056:2095   */\n  tag_55\n    /* \"#utility.yul\":2087:2094   */\n  dup4\n    /* \"#utility.yul\":2056:2095   */\n  tag_19\n  jump\t// in\ntag_55:\n    /* \"#utility.yul\":2117:2208   */\n  tag_56\n    /* \"#utility.yul\":2166:2207   */\n  tag_57\n    /* \"#utility.yul\":2190:2206   */\n  dup3\n    /* \"#utility.yul\":2166:2207   */\n  tag_20\n  jump\t// in\ntag_57:\n    /* \"#utility.yul\":2158:2164   */\n  dup5\n    /* \"#utility.yul\":2151:2155   */\n  dup5\n    /* \"#utility.yul\":2145:2156   */\n  sload\n    /* \"#utility.yul\":2117:2208   */\n  tag_16\n  jump\t// in\ntag_56:\n    /* \"#utility.yul\":2111:2115   */\n  dup3\n    /* \"#utility.yul\":2104:2209   */\n  sstore\n    /* \"#utility.yul\":2022:2215   */\n  pop\n    /* \"#utility.yul\":1946:2215   */\n  pop\n  pop\n  pop\n  jump\t// out\n    /* \"#utility.yul\":2221:2294   */\ntag_22:\n    /* \"#utility.yul\":2266:2269   */\n  0x00\n    /* \"#utility.yul\":2221:2294   */\n  swap1\n  jump\t// out\n    /* \"#utility.yul\":2300:2489   */\ntag_23:\n    /* \"#utility.yul\":2377:2409   */\n  tag_60\n  tag_22\n  jump\t// in\ntag_60:\n    /* \"#utility.yul\":2418:2483   */\n  tag_61\n    /* \"#utility.yul\":2476:2482   */\n  dup2\n    /* \"#utility.yul\":2468:2474   */\n  dup5\n    /* \"#utility.yul\":2462:2466   */\n  dup5\n    /* \"#utility.yul\":2418:2483   */\n  tag_21\n  jump\t// in\ntag_61:\n    /* \"#utility.yul\":2353:2489   */\n  pop\n    /* \"#utility.yul\":2300:2489   */\n  pop\n  pop\n  jump\t// out\n    /* \"#utility.yul\":2495:2681   */\ntag_24:\n    /* \"#utility.yul\":2555:2675   */\ntag_63:\n    /* \"#utility.yul\":2572:2575   */\n  dup2\n    /* \"#utility.yul\":2565:2570   */\n  dup2\n    /* \"#utility.yul\":2562:2576   */\n  lt\n    /* \"#utility.yul\":2555:2675   */\n  iszero\n  tag_65\n  jumpi\n    /* \"#utility.yul\":2626:2665   */\n  tag_66\n    /* \"#utility.yul\":2663:2664   */\n  0x00\n    /* \"#utility.yul\":2656:2661   */\n  dup3\n    /* \"#utility.yul\":2626:2665   */\n  tag_23\n  jump\t// in\ntag_66:\n    /* \"#utility.yul\":2599:2600   */\n  0x01\n    /* \"#utility.yul\":2592:2597   */\n  dup2\n    /* \"#utility.yul\":2588:2601   */\n  add\n    /* \"#utility.yul\":2579:2601   */\n  swap1\n  pop\n    /* \"#utility.yul\":2555:2675   */\n  jump(tag_63)\ntag_65:\n    /* \"#utility.yul\":2495:2681   */\n  pop\n  pop\n  jump\t// out\n    /* \"#utility.yul\":2687:3230   */\ntag_25:\n    /* \"#utility.yul\":2788:2790   */\n  0x1f\n    /* \"#utility.yul\":2783:2786   */\n  dup3\n    /* \"#utility.yul\":2780:2791   */\n  gt\n    /* \"#utility.yul\":2777:3223   */\n  iszero\n  tag_68\n  jumpi\n    /* \"#utility.yul\":2822:2860   */\n  tag_69\n    /* \"#utility.yul\":2854:2859   */\n  dup2\n    /* \"#utility.yul\":2822:2860   */\n  tag_13\n  jump\t// in\ntag_69:\n    /* \"#utility.yul\":2906:2935   */\n  tag_70\n    /* \"#utility.yul\":2924:2934   */\n  dup5\n    /* \"#utility.yul\":2906:2935   */\n  tag_14\n  jump\t// in\ntag_70:\n    /* \"#utility.yul\":2896:2904   */\n  dup2\n    /* \"#utility.yul\":2892:2936   */\n  add\n    /* \"#utility.yul\":3089:3091   */\n  0x20\n    /* \"#utility.yul\":3077:3087   */\n  dup6\n    /* \"#utility.yul\":3074:3092   */\n  lt\n    /* \"#utility.yul\":3071:3120   */\n  iszero\n  tag_71\n  jumpi\n    /* \"#utility.yul\":3110:3118   */\n  dup2\n    /* \"#utility.yul\":3095:3118   */\n  swap1\n  pop\n    /* \"#utility.yul\":3071:3120   */\ntag_71:\n    /* \"#utility.yul\":3133:3213   */\n  tag_72\n    /* \"#utility.yul\":3189:3211   */\n  tag_73\n    /* \"#utility.yul\":3207:3210   */\n  dup6\n    /* \"#utility.yul\":3189:3211   */\n  tag_14\n  jump\t// in\ntag_73:\n    /* \"#utility.yul\":3179:3187   */\n  dup4\n    /* \"#utility.yul\":3175:3212   */\n  add\n    /* \"#utility.yul\":3162:3173   */\n  dup3\n    /* \"#utility.yul\":3133:3213   */\n  tag_24\n  jump\t// in\ntag_72:\n    /* \"#utility.yul\":2792:3223   */\n  pop\n  pop\n    /* \"#utility.yul\":2777:3223   */\ntag_68:\n    /* \"#utility.yul\":2687:3230   */\n  pop\n  pop\n  pop\n  jump\t// out\n    /* \"#utility.yul\":3236:3353   */\ntag_26:\n    /* \"#utility.yul\":3290:3298   */\n  0x00\n    /* \"#utility.yul\":3340:3345   */\n  dup3\n    /* \"#utility.yul\":3334:3338   */\n  dup3\n    /* \"#utility.yul\":3330:3346   */\n  shr\n    /* \"#utility.yul\":3309:3346   */\n  swap1\n  pop\n    /* \"#utility.yul\":3236:3353   */\n  swap3\n  swap2\n  pop\n  pop\n  jump\t// out\n    /* \"#utility.yul\":3359:3528   */\ntag_27:\n    /* \"#utility.yul\":3403:3409   */\n  0x00\n    /* \"#utility.yul\":3436:3487   */\n  tag_76\n    /* \"#utility.yul\":3484:3485   */\n  0x00\n    /* \"#utility.yul\":3480:3486   */\n  not\n    /* \"#utility.yul\":3472:3477   */\n  dup5\n    /* \"#utility.yul\":3469:3470   */\n  0x08\n    /* \"#utility.yul\":3465:3478   */\n  mul\n    /* \"#utility.yul\":3436:3487   */\n  tag_26\n  jump\t// in\ntag_76:\n    /* \"#utility.yul\":3432:3488   */\n  not\n    /* \"#utility.yul\":3517:3521   */\n  dup1\n    /* \"#utility.yul\":3511:3515   */\n  dup4\n    /* \"#utility.yul\":3507:3522   */\n  and\n    /* \"#utility.yul\":3497:3522   */\n  swap2\n  pop\n    /* \"#utility.yul\":3410:3528   */\n  pop\n    /* \"#utility.yul\":3359:3528   */\n  swap3\n  swap2\n  pop\n  pop\n  jump\t// out\n    /* \"#utility.yul\":3533:3828   */\ntag_28:\n    /* \"#utility.yul\":3609:3613   */\n  0x00\n    /* \"#utility.yul\":3755:3784   */\n  tag_78\n    /* \"#utility.yul\":3780:3783   */\n  dup4\n    /* \"#utility.yul\":3774:3778   */\n  dup4\n    /* \"#utility.yul\":3755:3784   */\n  tag_27\n  jump\t// in\ntag_78:\n    /* \"#utility.yul\":3747:3784   */\n  swap2\n  pop\n    /* \"#utility.yul\":3817:3820   */\n  dup3\n    /* \"#utility.yul\":3814:3815   */\n  0x02\n    /* \"#utility.yul\":3810:3821   */\n  mul\n    /* \"#utility.yul\":3804:3808   */\n  dup3\n    /* \"#utility.yul\":3801:3822   */\n  or\n    /* \"#utility.yul\":3793:3822   */\n  swap1\n  pop\n    /* \"#utility.yul\":3533:3828   */\n  swap3\n  swap2\n  pop\n  pop\n  jump\t// out\n    /* \"#utility.yul\":3833:5228   */\ntag_2:\n    /* \"#utility.yul\":3950:3987   */\n  tag_80\n    /* \"#utility.yul\":3983:3986   */\n  dup3\n    /* \"#utility.yul\":3950:3987   */\n  tag_9\n  jump\t// in\ntag_80:\n    /* \"#utility.yul\":4052:4070   */\n  0xffffffffffffffff\n    /* \"#utility.yul\":4044:4050   */\n  dup2\n    /* \"#utility.yul\":4041:4071   */\n  gt\n    /* \"#utility.yul\":4038:4094   */\n  iszero\n  tag_81\n  jumpi\n    /* \"#utility.yul\":4074:4092   */\n  tag_82\n  tag_10\n  jump\t// in\ntag_82:\n    /* \"#utility.yul\":4038:4094   */\ntag_81:\n    /* \"#utility.yul\":4118:4156   */\n  tag_83\n    /* \"#utility.yul\":4150:4154   */\n  dup3\n    /* \"#utility.yul\":4144:4155   */\n  sload\n    /* \"#utility.yul\":4118:4156   */\n  tag_12\n  jump\t// in\ntag_83:\n    /* \"#utility.yul\":4203:4270   */\n  tag_84\n    /* \"#utility.yul\":4263:4269   */\n  dup3\n    /* \"#utility.yul\":4255:4261   */\n  dup3\n    /* \"#utility.yul\":4249:4253   */\n  dup6\n    /* \"#utility.yul\":4203:4270   */\n  tag_25\n  jump\t// in\ntag_84:\n    /* \"#utility.yul\":4297:4298   */\n  0x00\n    /* \"#utility.yul\":4321:4325   */\n  0x20\n    /* \"#utility.yul\":4308:4325   */\n  swap1\n  pop\n    /* \"#utility.yul\":4353:4355   */\n  0x1f\n    /* \"#utility.yul\":4345:4351   */\n  dup4\n    /* \"#utility.yul\":4342:4356   */\n  gt\n    /* \"#utility.yul\":4370:4371   */\n  0x01\n    /* \"#utility.yul\":4365:4983   */\n  dup2\n  eq\n  tag_86\n  jumpi\n    /* \"#utility.yul\":5027:5028   */\n  0x00\n    /* \"#utility.yul\":5044:5050   */\n  dup5\n    /* \"#utility.yul\":5041:5118   */\n  iszero\n  tag_87\n  jumpi\n    /* \"#utility.yul\":5093:5102   */\n  dup3\n    /* \"#utility.yul\":5088:5091   */\n  dup8\n    /* \"#utility.yul\":5084:5103   */\n  add\n    /* \"#utility.yul\":5078:5104   */\n  mload\n    /* \"#utility.yul\":5069:5104   */\n  swap1\n  pop\n    /* \"#utility.yul\":5041:5118   */\ntag_87:\n    /* \"#utility.yul\":5144:5211   */\n  tag_88\n    /* \"#utility.yul\":5204:5210   */\n  dup6\n    /* \"#utility.yul\":5197:5202   */\n  dup3\n    /* \"#utility.yul\":5144:5211   */\n  tag_28\n  jump\t// in\ntag_88:\n    /* \"#utility.yul\":5138:5142   */\n  dup7\n    /* \"#utility.yul\":5131:5212   */\n  sstore\n    /* \"#utility.yul\":5000:5222   */\n  pop\n    /* \"#utility.yul\":4335:5222   */\n  jump(tag_85)\n    /* \"#utility.yul\":4365:4983   */\ntag_86:\n    /* \"#utility.yul\":4417:4421   */\n  0x1f\n    /* \"#utility.yul\":4413:4422   */\n  not\n    /* \"#utility.yul\":4405:4411   */\n  dup5\n    /* \"#utility.yul\":4401:4423   */\n  and\n    /* \"#utility.yul\":4451:4488   */\n  tag_89\n    /* \"#utility.yul\":4483:4487   */\n  dup7\n    /* \"#utility.yul\":4451:4488   */\n  tag_13\n  jump\t// in\ntag_89:\n    /* \"#utility.yul\":4510:4511   */\n  0x00\n    /* \"#utility.yul\":4524:4732   */\ntag_90:\n    /* \"#utility.yul\":4538:4545   */\n  dup3\n    /* \"#utility.yul\":4535:4536   */\n  dup2\n    /* \"#utility.yul\":4532:4546   */\n  lt\n    /* \"#utility.yul\":4524:4732   */\n  iszero\n  tag_92\n  jumpi\n    /* \"#utility.yul\":4617:4626   */\n  dup5\n    /* \"#utility.yul\":4612:4615   */\n  dup10\n    /* \"#utility.yul\":4608:4627   */\n  add\n    /* \"#utility.yul\":4602:4628   */\n  mload\n    /* \"#utility.yul\":4594:4600   */\n  dup3\n    /* \"#utility.yul\":4587:4629   */\n  sstore\n    /* \"#utility.yul\":4668:4669   */\n  0x01\n    /* \"#utility.yul\":4660:4666   */\n  dup3\n    /* \"#utility.yul\":4656:4670   */\n  add\n    /* \"#utility.yul\":4646:4670   */\n  swap2\n  pop\n    /* \"#utility.yul\":4715:4717   */\n  0x20\n    /* \"#utility.yul\":4704:4713   */\n  dup6\n    /* \"#utility.yul\":4700:4718   */\n  add\n    /* \"#utility.yul\":4687:4718   */\n  swap5\n  pop\n    /* \"#utility.yul\":4561:4565   */\n  0x20\n    /* \"#utility.yul\":4558:4559   */\n  dup2\n    /* \"#utility.yul\":4554:4566   */\n  add\n    /* \"#utility.yul\":4549:4566   */\n  swap1\n  pop\n    /* \"#utility.yul\":4524:4732   */\n  jump(tag_90)\ntag_92:\n    /* \"#utility.yul\":4760:4766   */\n  dup7\n    /* \"#utility.yul\":4751:4758   */\n  dup4\n    /* \"#utility.yul\":4748:4767   */\n  lt\n    /* \"#utility.yul\":4745:4924   */\n  iszero\n  tag_93\n  jumpi\n    /* \"#utility.yul\":4818:4827   */\n  dup5\n    /* \"#utility.yul\":4813:4816   */\n  dup10\n    /* \"#utility.yul\":4809:4828   */\n  add\n    /* \"#utility.yul\":4803:4829   */\n  mload\n    /* \"#utility.yul\":4861:4909   */\n  tag_94\n    /* \"#utility.yul\":4903:4907   */\n  0x1f\n    /* \"#utility.yul\":4895:4901   */\n  dup10\n    /* \"#utility.yul\":4891:4908   */\n  and\n    /* \"#utility.yul\":4880:4889   */\n  dup3\n    /* \"#utility.yul\":4861:4909   */\n  tag_27\n  jump\t// in\ntag_94:\n    /* \"#utility.yul\":4853:4859   */\n  dup4\n    /* \"#utility.yul\":4846:4910   */\n  sstore\n    /* \"#utility.yul\":4768:4924   */\n  pop\n    /* \"#utility.yul\":4745:4924   */\ntag_93:\n    /* \"#utility.yul\":4970:4971   */\n  0x01\n    /* \"#utility.yul\":4966:4967   */\n  0x02\n    /* \"#utility.yul\":4958:4964   */\n  dup9\n    /* \"#utility.yul\":4954:4968   */\n  mul\n    /* \"#utility.yul\":4950:4972   */\n  add\n    /* \"#utility.yul\":4944:4948   */\n  dup9\n    /* \"#utility.yul\":4937:4973   */\n  sstore\n    /* \"#utility.yul\":4372:4983   */\n  pop\n  pop\n  pop\n    /* \"#utility.yul\":4335:5222   */\ntag_85:\n  pop\n    /* \"#utility.yul\":3925:5228   */\n  pop\n  pop\n  pop\n    /* \"#utility.yul\":3833:5228   */\n  pop\n  pop\n  jump\t// out\n    /* \"#utility.yul\":5234:5374   */\ntag_29:\n    /* \"#utility.yul\":5282:5286   */\n  0x00\n    /* \"#utility.yul\":5305:5308   */\n  dup2\n    /* \"#utility.yul\":5297:5308   */\n  swap1\n  pop\n    /* \"#utility.yul\":5328:5331   */\n  dup2\n    /* \"#utility.yul\":5325:5326   */\n  0x00\n    /* \"#utility.yul\":5318:5332   */\n  mstore\n    /* \"#utility.yul\":5362:5366   */\n  0x20\n    /* \"#utility.yul\":5359:5360   */\n  0x00\n    /* \"#utility.yul\":5349:5367   */\n  keccak256\n    /* \"#utility.yul\":5341:5367   */\n  swap1\n  pop\n    /* \"#utility.yul\":5234:5374   */\n  swap2\n  swap1\n  pop\n  jump\t// out\n    /* \"#utility.yul\":5380:5921   */\ntag_30:\n    /* \"#utility.yul\":5480:5482   */\n  0x1f\n    /* \"#utility.yul\":5475:5478   */\n  dup3\n    /* \"#utility.yul\":5472:5483   */\n  gt\n    /* \"#utility.yul\":5469:5914   */\n  iszero\n  tag_97\n  jumpi\n    /* \"#utility.yul\":5514:5551   */\n  tag_98\n    /* \"#utility.yul\":5545:5550   */\n  dup2\n    /* \"#utility.yul\":5514:5551   */\n  tag_29\n  jump\t// in\ntag_98:\n    /* \"#utility.yul\":5597:5626   */\n  tag_99\n    /* \"#utility.yul\":5615:5625   */\n  dup5\n    /* \"#utility.yul\":5597:5626   */\n  tag_14\n  jump\t// in\ntag_99:\n    /* \"#utility.yul\":5587:5595   */\n  dup2\n    /* \"#utility.yul\":5583:5627   */\n  add\n    /* \"#utility.yul\":5780:5782   */\n  0x20\n    /* \"#utility.yul\":5768:5778   */\n  dup6\n    /* \"#utility.yul\":5765:5783   */\n  lt\n    /* \"#utility.yul\":5762:5811   */\n  iszero\n  tag_100\n  jumpi\n    /* \"#utility.yul\":5801:5809   */\n  dup2\n    /* \"#utility.yul\":5786:5809   */\n  swap1\n  pop\n    /* \"#utility.yul\":5762:5811   */\ntag_100:\n    /* \"#utility.yul\":5824:5904   */\n  tag_101\n    /* \"#utility.yul\":5880:5902   */\n  tag_102\n    /* \"#utility.yul\":5898:5901   */\n  dup6\n    /* \"#utility.yul\":5880:5902   */\n  tag_14\n  jump\t// in\ntag_102:\n    /* \"#utility.yul\":5870:5878   */\n  dup4\n    /* \"#utility.yul\":5866:5903   */\n  add\n    /* \"#utility.yul\":5853:5864   */\n  dup3\n    /* \"#utility.yul\":5824:5904   */\n  tag_24\n  jump\t// in\ntag_101:\n    /* \"#utility.yul\":5484:5914   */\n  pop\n  pop\n    /* \"#utility.yul\":5469:5914   */\ntag_97:\n    /* \"#utility.yul\":5380:5921   */\n  pop\n  pop\n  pop\n  jump\t// out\n    /* \"#utility.yul\":5927:7319   */\ntag_4:\n    /* \"#utility.yul\":6043:6080   */\n  tag_104\n    /* \"#utility.yul\":6076:6079   */\n  dup3\n    /* \"#utility.yul\":6043:6080   */\n  tag_9\n  jump\t// in\ntag_104:\n    /* \"#utility.yul\":6145:6163   */\n  0xffffffffffffffff\n    /* \"#utility.yul\":6137:6143   */\n  dup2\n    /* \"#utility.yul\":6134:6164   */\n  gt\n    /* \"#utility.yul\":6131:6187   */\n  iszero\n  tag_105\n  jumpi\n    /* \"#utility.yul\":6167:6185   */\n  tag_106\n  tag_10\n  jump\t// in\ntag_106:\n    /* \"#utility.yul\":6131:6187   */\ntag_105:\n    /* \"#utility.yul\":6211:6249   */\n  tag_107\n    /* \"#utility.yul\":6243:6247   */\n  dup3\n    /* \"#utility.yul\":6237:6248   */\n  sload\n    /* \"#utility.yul\":6211:6249   */\n  tag_12\n  jump\t// in\ntag_107:\n    /* \"#utility.yul\":6296:6362   */\n  tag_108\n    /* \"#utility.yul\":6355:6361   */\n  dup3\n    /* \"#utility.yul\":6347:6353   */\n  dup3\n    /* \"#utility.yul\":6341:6345   */\n  dup6\n    /* \"#utility.yul\":6296:6362   */\n  tag_30\n  jump\t// in\ntag_108:\n    /* \"#utility.yul\":6389:6390   */\n  0x00\n    /* \"#utility.yul\":6413:6417   */\n  0x20\n    /* \"#utility.yul\":6400:6417   */\n  swap1\n  pop\n    /* \"#utility.yul\":6445:6447   */\n  0x1f\n    /* \"#utility.yul\":6437:6443   */\n  dup4\n    /* \"#utility.yul\":6434:6448   */\n  gt\n    /* \"#utility.yul\":6462:6463   */\n  0x01\n    /* \"#utility.yul\":6457:7074   */\n  dup2\n  eq\n  tag_110\n  jumpi\n    /* \"#utility.yul\":7118:7119   */\n  0x00\n    /* \"#utility.yul\":7135:7141   */\n  dup5\n    /* \"#utility.yul\":7132:7209   */\n  iszero\n  tag_111\n  jumpi\n    /* \"#utility.yul\":7184:7193   */\n  dup3\n    /* \"#utility.yul\":7179:7182   */\n  dup8\n    /* \"#utility.yul\":7175:7194   */\n  add\n    /* \"#utility.yul\":7169:7195   */\n  mload\n    /* \"#utility.yul\":7160:7195   */\n  swap1\n  pop\n    /* \"#utility.yul\":7132:7209   */\ntag_111:\n    /* \"#utility.yul\":7235:7302   */\n  tag_112\n    /* \"#utility.yul\":7295:7301   */\n  dup6\n    /* \"#utility.yul\":7288:7293   */\n  dup3\n    /* \"#utility.yul\":7235:7302   */\n  tag_28\n  jump\t// in\ntag_112:\n    /* \"#utility.yul\":7229:7233   */\n  dup7\n    /* \"#utility.yul\":7222:7303   */\n  sstore\n    /* \"#utility.yul\":7091:7313   */\n  pop\n    /* \"#utility.yul\":6427:7313   */\n  jump(tag_109)\n    /* \"#utility.yul\":6457:7074   */\ntag_110:\n    /* \"#utility.yul\":6509:6513   */\n  0x1f\n    /* \"#utility.yul\":6505:6514   */\n  not\n    /* \"#utility.yul\":6497:6503   */\n  dup5\n    /* \"#utility.yul\":6493:6515   */\n  and\n    /* \"#utility.yul\":6543:6579   */\n  tag_113\n    /* \"#utility.yul\":6574:6578   */\n  dup7\n    /* \"#utility.yul\":6543:6579   */\n  tag_29\n  jump\t// in\ntag_113:\n    /* \"#utility.yul\":6601:6602   */\n  0x00\n    /* \"#utility.yul\":6615:6823   */\ntag_114:\n    /* \"#utility.yul\":6629:6636   */\n  dup3\n    /* \"#utility.yul\":6626:6627   */\n  dup2\n    /* \"#utility.yul\":6623:6637   */\n  lt\n    /* \"#utility.yul\":6615:6823   */\n  iszero\n  tag_116\n  jumpi\n    /* \"#utility.yul\":6708:6717   */\n  dup5\n    /* \"#utility.yul\":6703:6706   */\n  dup10\n    /* \"#utility.yul\":6699:6718   */\n  add\n    /* \"#utility.yul\":6693:6719   */\n  mload\n    /* \"#utility.yul\":6685:6691   */\n  dup3\n    /* \"#utility.yul\":6678:6720   */\n  sstore\n    /* \"#utility.yul\":6759:6760   */\n  0x01\n    /* \"#utility.yul\":6751:6757   */\n  dup3\n    /* \"#utility.yul\":6747:6761   */\n  add\n    /* \"#utility.yul\":6737:6761   */\n  swap2\n  pop\n    /* \"#utility.yul\":6806:6808   */\n  0x20\n    /* \"#utility.yul\":6795:6804   */\n  dup6\n    /* \"#utility.yul\":6791:6809   */\n  add\n    /* \"#utility.yul\":6778:6809   */\n  swap5\n  pop\n    /* \"#utility.yul\":6652:6656   */\n  0x20\n    /* \"#utility.yul\":6649:6650   */\n  dup2\n    /* \"#utility.yul\":6645:6657   */\n  add\n    /* \"#utility.yul\":6640:6657   */\n  swap1\n  pop\n    /* \"#utility.yul\":6615:6823   */\n  jump(tag_114)\ntag_116:\n    /* \"#utility.yul\":6851:6857   */\n  dup7\n    /* \"#utility.yul\":6842:6849   */\n  dup4\n    /* \"#utility.yul\":6839:6858   */\n  lt\n    /* \"#utility.yul\":6836:7015   */\n  iszero\n  tag_117\n  jumpi\n    /* \"#utility.yul\":6909:6918   */\n  dup5\n    /* \"#utility.yul\":6904:6907   */\n  dup10\n    /* \"#utility.yul\":6900:6919   */\n  add\n    /* \"#utility.yul\":6894:6920   */\n  mload\n    /* \"#utility.yul\":6952:7000   */\n  tag_118\n    /* \"#utility.yul\":6994:6998   */\n  0x1f\n    /* \"#utility.yul\":6986:6992   */\n  dup10\n    /* \"#utility.yul\":6982:6999   */\n  and\n    /* \"#utility.yul\":6971:6980   */\n  dup3\n    /* \"#utility.yul\":6952:7000   */\n  tag_27\n  jump\t// in\ntag_118:\n    /* \"#utility.yul\":6944:6950   */\n  dup4\n    /* \"#utility.yul\":6937:7001   */\n  sstore\n    /* \"#utility.yul\":6859:7015   */\n  pop\n    /* \"#utility.yul\":6836:7015   */\ntag_117:\n    /* \"#utility.yul\":7061:7062   */\n  0x01\n    /* \"#utility.yul\":7057:7058   */\n  0x02\n    /* \"#utility.yul\":7049:7055   */\n  dup9\n    /* \"#utility.yul\":7045:7059   */\n  mul\n    /* \"#utility.yul\":7041:7063   */\n  add\n    /* \"#utility.yul\":7035:7039   */\n  dup9\n    /* \"#utility.yul\":7028:7064   */\n  sstore\n    /* \"#utility.yul\":6464:7074   */\n  pop\n  pop\n  pop\n    /* \"#utility.yul\":6427:7313   */\ntag_109:\n  pop\n    /* \"#utility.yul\":6018:7319   */\n  pop\n  pop\n  pop\n    /* \"#utility.yul\":5927:7319   */\n  pop\n  pop\n  jump\t// out\n    /* \"#utility.yul\":7325:7478   */\ntag_31:\n    /* \"#utility.yul\":7378:7384   */\n  0x00\n    /* \"#utility.yul\":7412:7417   */\n  dup2\n    /* \"#utility.yul\":7406:7418   */\n  sload\n    /* \"#utility.yul\":7396:7418   */\n  swap1\n  pop\n    /* \"#utility.yul\":7438:7471   */\n  tag_120\n    /* \"#utility.yul\":7464:7470   */\n  dup2\n    /* \"#utility.yul\":7438:7471   */\n  tag_12\n  jump\t// in\ntag_120:\n    /* \"#utility.yul\":7428:7471   */\n  swap1\n  pop\n    /* \"#utility.yul\":7325:7478   */\n  swap2\n  swap1\n  pop\n  jump\t// out\n    /* \"#utility.yul\":7484:7629   */\ntag_32:\n    /* \"#utility.yul\":7537:7541   */\n  0x00\n    /* \"#utility.yul\":7560:7563   */\n  dup2\n    /* \"#utility.yul\":7552:7563   */\n  swap1\n  pop\n    /* \"#utility.yul\":7583:7586   */\n  dup2\n    /* \"#utility.yul\":7580:7581   */\n  0x00\n    /* \"#utility.yul\":7573:7587   */\n  mstore\n    /* \"#utility.yul\":7617:7621   */\n  0x20\n    /* \"#utility.yul\":7614:7615   */\n  0x00\n    /* \"#utility.yul\":7604:7622   */\n  keccak256\n    /* \"#utility.yul\":7596:7622   */\n  swap1\n  pop\n    /* \"#utility.yul\":7484:7629   */\n  swap2\n  swap1\n  pop\n  jump\t// out\n    /* \"#utility.yul\":7635:9098   */\ntag_6:\n    /* \"#utility.yul\":7750:7753   */\n  dup2\n    /* \"#utility.yul\":7744:7748   */\n  dup2\n    /* \"#utility.yul\":7741:7754   */\n  sub\n    /* \"#utility.yul\":7738:7764   */\n  tag_123\n  jumpi\n    /* \"#utility.yul\":7757:7762   */\n  pop\n  pop\n  jump(tag_122)\n    /* \"#utility.yul\":7738:7764   */\ntag_123:\n    /* \"#utility.yul\":7788:7826   */\n  tag_124\n    /* \"#utility.yul\":7822:7825   */\n  dup3\n    /* \"#utility.yul\":7788:7826   */\n  tag_31\n  jump\t// in\ntag_124:\n    /* \"#utility.yul\":7891:7909   */\n  0xffffffffffffffff\n    /* \"#utility.yul\":7883:7889   */\n  dup2\n    /* \"#utility.yul\":7880:7910   */\n  gt\n    /* \"#utility.yul\":7877:7933   */\n  iszero\n  tag_125\n  jumpi\n    /* \"#utility.yul\":7913:7931   */\n  tag_126\n  tag_10\n  jump\t// in\ntag_126:\n    /* \"#utility.yul\":7877:7933   */\ntag_125:\n    /* \"#utility.yul\":7957:7995   */\n  tag_127\n    /* \"#utility.yul\":7989:7993   */\n  dup3\n    /* \"#utility.yul\":7983:7994   */\n  sload\n    /* \"#utility.yul\":7957:7995   */\n  tag_12\n  jump\t// in\ntag_127:\n    /* \"#utility.yul\":8042:8109   */\n  tag_128\n    /* \"#utility.yul\":8102:8108   */\n  dup3\n    /* \"#utility.yul\":8094:8100   */\n  dup3\n    /* \"#utility.yul\":8088:8092   */\n  dup6\n    /* \"#utility.yul\":8042:8109   */\n  tag_25\n  jump\t// in\ntag_128:\n    /* \"#utility.yul\":8136:8137   */\n  0x00\n    /* \"#utility.yul\":8165:8167   */\n  0x1f\n    /* \"#utility.yul\":8157:8163   */\n  dup4\n    /* \"#utility.yul\":8154:8168   */\n  gt\n    /* \"#utility.yul\":8182:8183   */\n  0x01\n    /* \"#utility.yul\":8177:8853   */\n  dup2\n  eq\n  tag_130\n  jumpi\n    /* \"#utility.yul\":8897:8898   */\n  0x00\n    /* \"#utility.yul\":8914:8920   */\n  dup5\n    /* \"#utility.yul\":8911:8988   */\n  iszero\n  tag_131\n  jumpi\n    /* \"#utility.yul\":8963:8972   */\n  dup3\n    /* \"#utility.yul\":8958:8961   */\n  dup8\n    /* \"#utility.yul\":8954:8973   */\n  add\n    /* \"#utility.yul\":8948:8974   */\n  sload\n    /* \"#utility.yul\":8939:8974   */\n  swap1\n  pop\n    /* \"#utility.yul\":8911:8988   */\ntag_131:\n    /* \"#utility.yul\":9014:9081   */\n  tag_132\n    /* \"#utility.yul\":9074:9080   */\n  dup6\n    /* \"#utility.yul\":9067:9072   */\n  dup3\n    /* \"#utility.yul\":9014:9081   */\n  tag_28\n  jump\t// in\ntag_132:\n    /* \"#utility.yul\":9008:9012   */\n  dup7\n    /* \"#utility.yul\":9001:9082   */\n  sstore\n    /* \"#utility.yul\":8870:9092   */\n  pop\n    /* \"#utility.yul\":8147:9092   */\n  jump(tag_129)\n    /* \"#utility.yul\":8177:8853   */\ntag_130:\n    /* \"#utility.yul\":8229:8233   */\n  0x1f\n    /* \"#utility.yul\":8225:8234   */\n  not\n    /* \"#utility.yul\":8217:8223   */\n  dup5\n    /* \"#utility.yul\":8213:8235   */\n  and\n    /* \"#utility.yul\":8255:8295   */\n  tag_133\n    /* \"#utility.yul\":8291:8294   */\n  dup8\n    /* \"#utility.yul\":8255:8295   */\n  tag_32\n  jump\t// in\ntag_133:\n    /* \"#utility.yul\":8248:8295   */\n  swap7\n  pop\n    /* \"#utility.yul\":8322:8359   */\n  tag_134\n    /* \"#utility.yul\":8354:8358   */\n  dup7\n    /* \"#utility.yul\":8322:8359   */\n  tag_13\n  jump\t// in\ntag_134:\n    /* \"#utility.yul\":8381:8382   */\n  0x00\n    /* \"#utility.yul\":8395:8602   */\ntag_135:\n    /* \"#utility.yul\":8409:8416   */\n  dup3\n    /* \"#utility.yul\":8406:8407   */\n  dup2\n    /* \"#utility.yul\":8403:8417   */\n  lt\n    /* \"#utility.yul\":8395:8602   */\n  iszero\n  tag_137\n  jumpi\n    /* \"#utility.yul\":8488:8497   */\n  dup5\n    /* \"#utility.yul\":8483:8486   */\n  dup10\n    /* \"#utility.yul\":8479:8498   */\n  add\n    /* \"#utility.yul\":8473:8499   */\n  sload\n    /* \"#utility.yul\":8465:8471   */\n  dup3\n    /* \"#utility.yul\":8458:8500   */\n  sstore\n    /* \"#utility.yul\":8539:8540   */\n  0x01\n    /* \"#utility.yul\":8531:8537   */\n  dup3\n    /* \"#utility.yul\":8527:8541   */\n  add\n    /* \"#utility.yul\":8517:8541   */\n  swap2\n  pop\n    /* \"#utility.yul\":8586:8587   */\n  0x01\n    /* \"#utility.yul\":8575:8584   */\n  dup6\n    /* \"#utility.yul\":8571:8588   */\n  add\n    /* \"#utility.yul\":8558:8588   */\n  swap5\n  pop\n    /* \"#utility.yul\":8432:8436   */\n  0x20\n    /* \"#utility.yul\":8429:8430   */\n  dup2\n    /* \"#utility.yul\":8425:8437   */\n  add\n    /* \"#utility.yul\":8420:8437   */\n  swap1\n  pop\n    /* \"#utility.yul\":8395:8602   */\n  jump(tag_135)\ntag_137:\n    /* \"#utility.yul\":8630:8636   */\n  dup7\n    /* \"#utility.yul\":8621:8628   */\n  dup4\n    /* \"#utility.yul\":8618:8637   */\n  lt\n    /* \"#utility.yul\":8615:8794   */\n  iszero\n  tag_138\n  jumpi\n    /* \"#utility.yul\":8688:8697   */\n  dup5\n    /* \"#utility.yul\":8683:8686   */\n  dup10\n    /* \"#utility.yul\":8679:8698   */\n  add\n    /* \"#utility.yul\":8673:8699   */\n  sload\n    /* \"#utility.yul\":8731:8779   */\n  tag_139\n    /* \"#utility.yul\":8773:8777   */\n  0x1f\n    /* \"#utility.yul\":8765:8771   */\n  dup10\n    /* \"#utility.yul\":8761:8778   */\n  and\n    /* \"#utility.yul\":8750:8759   */\n  dup3\n    /* \"#utility.yul\":8731:8779   */\n  tag_27\n  jump\t// in\ntag_139:\n    /* \"#utility.yul\":8723:8729   */\n  dup4\n    /* \"#utility.yul\":8716:8780   */\n  sstore\n    /* \"#utility.yul\":8638:8794   */\n  pop\n    /* \"#utility.yul\":8615:8794   */\ntag_138:\n    /* \"#utility.yul\":8840:8841   */\n  0x01\n    /* \"#utility.yul\":8836:8837   */\n  0x02\n    /* \"#utility.yul\":8828:8834   */\n  dup9\n    /* \"#utility.yul\":8824:8838   */\n  mul\n    /* \"#utility.yul\":8820:8842   */\n  add\n    /* \"#utility.yul\":8814:8818   */\n  dup9\n    /* \"#utility.yul\":8807:8843   */\n  sstore\n    /* \"#utility.yul\":8184:8853   */\n  pop\n  pop\n  pop\n    /* \"#utility.yul\":8147:9092   */\ntag_129:\n  pop\n    /* \"#utility.yul\":7728:9098   */\n  pop\n  pop\n  pop\n    /* \"#utility.yul\":7635:9098   */\n  pop\n  pop\ntag_122:\n  jump\t// out\n    /* \"contracts/Types.sol\":134:331  contract Types {... */\ntag_8:\n  dataSize(sub_0)\n  dup1\n  dataOffset(sub_0)\n  0x00\n  codecopy\n  0x00\n  return\nstop\n\nsub_0: assembly {\n        /* \"contracts/Types.sol\":134:331  contract Types {... */\n      mstore(0x40, 0x80)\n      callvalue\n      dup1\n      iszero\n      tag_1\n      jumpi\n      0x00\n      dup1\n      revert\n    tag_1:\n      pop\n      jumpi(tag_2, lt(calldatasize, 0x04))\n      shr(0xe0, calldataload(0x00))\n      dup1\n      0x3ec48a2e\n      eq\n      tag_3\n      jumpi\n      dup1\n      0x712f4602\n      eq\n      tag_4\n      jumpi\n      dup1\n      0x8381f58a\n      eq\n      tag_5\n      jumpi\n      dup1\n      0x8a054ac2\n      eq\n      tag_6\n      jumpi\n    tag_2:\n      0x00\n      dup1\n      revert\n        /* \"contracts/Types.sol\":156:177  Movemment public move */\n    tag_3:\n      tag_7\n      tag_8\n      jump\t// in\n    tag_7:\n      mload(0x40)\n      tag_9\n      swap2\n      swap1\n      tag_10\n      jump\t// in\n    tag_9:\n      mload(0x40)\n      dup1\n      swap2\n      sub\n      swap1\n      return\n        /* \"contracts/Types.sol\":236:280  bytes public myBytes = hex\"0011223344556677\" */\n    tag_4:\n      tag_11\n      tag_12\n      jump\t// in\n    tag_11:\n      mload(0x40)\n      tag_13\n      swap2\n      swap1\n      tag_14\n      jump\t// in\n    tag_13:\n      mload(0x40)\n      dup1\n      swap2\n      sub\n      swap1\n      return\n        /* \"contracts/Types.sol\":287:325  string public number = string(myBytes) */\n    tag_5:\n      tag_15\n      tag_16\n      jump\t// in\n    tag_15:\n      mload(0x40)\n      tag_17\n      swap2\n      swap1\n      tag_18\n      jump\t// in\n    tag_17:\n      mload(0x40)\n      dup1\n      swap2\n      sub\n      swap1\n      return\n        /* \"contracts/Types.sol\":192:229  string public d = unicode\"Hello 😃\" */\n    tag_6:\n      tag_19\n      tag_20\n      jump\t// in\n    tag_19:\n      mload(0x40)\n      tag_21\n      swap2\n      swap1\n      tag_18\n      jump\t// in\n    tag_21:\n      mload(0x40)\n      dup1\n      swap2\n      sub\n      swap1\n      return\n        /* \"contracts/Types.sol\":156:177  Movemment public move */\n    tag_8:\n      0x00\n      dup1\n      sload\n      swap1\n      0x0100\n      exp\n      swap1\n      div\n      0xff\n      and\n      dup2\n      jump\t// out\n        /* \"contracts/Types.sol\":236:280  bytes public myBytes = hex\"0011223344556677\" */\n    tag_12:\n      0x02\n      dup1\n      sload\n      tag_22\n      swap1\n      tag_23\n      jump\t// in\n    tag_22:\n      dup1\n      0x1f\n      add\n      0x20\n      dup1\n      swap2\n      div\n      mul\n      0x20\n      add\n      mload(0x40)\n      swap1\n      dup2\n      add\n      0x40\n      mstore\n      dup1\n      swap3\n      swap2\n      swap1\n      dup2\n      dup2\n      mstore\n      0x20\n      add\n      dup3\n      dup1\n      sload\n      tag_24\n      swap1\n      tag_23\n      jump\t// in\n    tag_24:\n      dup1\n      iszero\n      tag_25\n      jumpi\n      dup1\n      0x1f\n      lt\n      tag_26\n      jumpi\n      0x0100\n      dup1\n      dup4\n      sload\n      div\n      mul\n      dup4\n      mstore\n      swap2\n      0x20\n      add\n      swap2\n      jump(tag_25)\n    tag_26:\n      dup3\n      add\n      swap2\n      swap1\n      0x00\n      mstore\n      keccak256(0x00, 0x20)\n      swap1\n    tag_27:\n      dup2\n      sload\n      dup2\n      mstore\n      swap1\n      0x01\n      add\n      swap1\n      0x20\n      add\n      dup1\n      dup4\n      gt\n      tag_27\n      jumpi\n      dup3\n      swap1\n      sub\n      0x1f\n      and\n      dup3\n      add\n      swap2\n    tag_25:\n      pop\n      pop\n      pop\n      pop\n      pop\n      dup2\n      jump\t// out\n        /* \"contracts/Types.sol\":287:325  string public number = string(myBytes) */\n    tag_16:\n      0x03\n      dup1\n      sload\n      tag_28\n      swap1\n      tag_23\n      jump\t// in\n    tag_28:\n      dup1\n      0x1f\n      add\n      0x20\n      dup1\n      swap2\n      div\n      mul\n      0x20\n      add\n      mload(0x40)\n      swap1\n      dup2\n      add\n      0x40\n      mstore\n      dup1\n      swap3\n      swap2\n      swap1\n      dup2\n      dup2\n      mstore\n      0x20\n      add\n      dup3\n      dup1\n      sload\n      tag_29\n      swap1\n      tag_23\n      jump\t// in\n    tag_29:\n      dup1\n      iszero\n      tag_30\n      jumpi\n      dup1\n      0x1f\n      lt\n      tag_31\n      jumpi\n      0x0100\n      dup1\n      dup4\n      sload\n      div\n      mul\n      dup4\n      mstore\n      swap2\n      0x20\n      add\n      swap2\n      jump(tag_30)\n    tag_31:\n      dup3\n      add\n      swap2\n      swap1\n      0x00\n      mstore\n      keccak256(0x00, 0x20)\n      swap1\n    tag_32:\n      dup2\n      sload\n      dup2\n      mstore\n      swap1\n      0x01\n      add\n      swap1\n      0x20\n      add\n      dup1\n      dup4\n      gt\n      tag_32\n      jumpi\n      dup3\n      swap1\n      sub\n      0x1f\n      and\n      dup3\n      add\n      swap2\n    tag_30:\n      pop\n      pop\n      pop\n      pop\n      pop\n      dup2\n      jump\t// out\n        /* \"contracts/Types.sol\":192:229  string public d = unicode\"Hello 😃\" */\n    tag_20:\n      0x01\n      dup1\n      sload\n      tag_33\n      swap1\n      tag_23\n      jump\t// in\n    tag_33:\n      dup1\n      0x1f\n      add\n      0x20\n      dup1\n      swap2\n      div\n      mul\n      0x20\n      add\n      mload(0x40)\n      swap1\n      dup2\n      add\n      0x40\n      mstore\n      dup1\n      swap3\n      swap2\n      swap1\n      dup2\n      dup2\n      mstore\n      0x20\n      add\n      dup3\n      dup1\n      sload\n      tag_34\n      swap1\n      tag_23\n      jump\t// in\n    tag_34:\n      dup1\n      iszero\n      tag_35\n      jumpi\n      dup1\n      0x1f\n      lt\n      tag_36\n      jumpi\n      0x0100\n      dup1\n      dup4\n      sload\n      div\n      mul\n      dup4\n      mstore\n      swap2\n      0x20\n      add\n      swap2\n      jump(tag_35)\n    tag_36:\n      dup3\n      add\n      swap2\n      swap1\n      0x00\n      mstore\n      keccak256(0x00, 0x20)\n      swap1\n    tag_37:\n      dup2\n      sload\n      dup2\n      mstore\n      swap1\n      0x01\n      add\n      swap1\n      0x20\n      add\n      dup1\n      dup4\n      gt\n      tag_37\n      jumpi\n      dup3\n      swap1\n      sub\n      0x1f\n      and\n      dup3\n      add\n      swap2\n    tag_35:\n      pop\n      pop\n      pop\n      pop\n      pop\n      dup2\n      jump\t// out\n        /* \"#utility.yul\":7:187   */\n    tag_38:\n        /* \"#utility.yul\":55:132   */\n      0x4e487b7100000000000000000000000000000000000000000000000000000000\n        /* \"#utility.yul\":52:53   */\n      0x00\n        /* \"#utility.yul\":45:133   */\n      mstore\n        /* \"#utility.yul\":152:156   */\n      0x21\n        /* \"#utility.yul\":149:150   */\n      0x04\n        /* \"#utility.yul\":142:157   */\n      mstore\n        /* \"#utility.yul\":176:180   */\n      0x24\n        /* \"#utility.yul\":173:174   */\n      0x00\n        /* \"#utility.yul\":166:181   */\n      revert\n        /* \"#utility.yul\":193:309   */\n    tag_39:\n        /* \"#utility.yul\":277:278   */\n      0x04\n        /* \"#utility.yul\":270:275   */\n      dup2\n        /* \"#utility.yul\":267:279   */\n      lt\n        /* \"#utility.yul\":257:303   */\n      tag_55\n      jumpi\n        /* \"#utility.yul\":283:301   */\n      tag_56\n      tag_38\n      jump\t// in\n    tag_56:\n        /* \"#utility.yul\":257:303   */\n    tag_55:\n        /* \"#utility.yul\":193:309   */\n      pop\n      jump\t// out\n        /* \"#utility.yul\":315:448   */\n    tag_40:\n        /* \"#utility.yul\":363:370   */\n      0x00\n        /* \"#utility.yul\":392:397   */\n      dup2\n        /* \"#utility.yul\":381:397   */\n      swap1\n      pop\n        /* \"#utility.yul\":398:442   */\n      tag_58\n        /* \"#utility.yul\":436:441   */\n      dup3\n        /* \"#utility.yul\":398:442   */\n      tag_39\n      jump\t// in\n    tag_58:\n        /* \"#utility.yul\":315:448   */\n      swap2\n      swap1\n      pop\n      jump\t// out\n        /* \"#utility.yul\":454:587   */\n    tag_41:\n        /* \"#utility.yul\":513:522   */\n      0x00\n        /* \"#utility.yul\":546:581   */\n      tag_60\n        /* \"#utility.yul\":575:580   */\n      dup3\n        /* \"#utility.yul\":546:581   */\n      tag_40\n      jump\t// in\n    tag_60:\n        /* \"#utility.yul\":533:581   */\n      swap1\n      pop\n        /* \"#utility.yul\":454:587   */\n      swap2\n      swap1\n      pop\n      jump\t// out\n        /* \"#utility.yul\":593:742   */\n    tag_42:\n        /* \"#utility.yul\":689:735   */\n      tag_62\n        /* \"#utility.yul\":729:734   */\n      dup2\n        /* \"#utility.yul\":689:735   */\n      tag_41\n      jump\t// in\n    tag_62:\n        /* \"#utility.yul\":684:687   */\n      dup3\n        /* \"#utility.yul\":677:736   */\n      mstore\n        /* \"#utility.yul\":593:742   */\n      pop\n      pop\n      jump\t// out\n        /* \"#utility.yul\":748:988   */\n    tag_10:\n        /* \"#utility.yul\":850:854   */\n      0x00\n        /* \"#utility.yul\":888:890   */\n      0x20\n        /* \"#utility.yul\":877:886   */\n      dup3\n        /* \"#utility.yul\":873:891   */\n      add\n        /* \"#utility.yul\":865:891   */\n      swap1\n      pop\n        /* \"#utility.yul\":901:981   */\n      tag_64\n        /* \"#utility.yul\":978:979   */\n      0x00\n        /* \"#utility.yul\":967:976   */\n      dup4\n        /* \"#utility.yul\":963:980   */\n      add\n        /* \"#utility.yul\":954:960   */\n      dup5\n        /* \"#utility.yul\":901:981   */\n      tag_42\n      jump\t// in\n    tag_64:\n        /* \"#utility.yul\":748:988   */\n      swap3\n      swap2\n      pop\n      pop\n      jump\t// out\n        /* \"#utility.yul\":994:1092   */\n    tag_43:\n        /* \"#utility.yul\":1045:1051   */\n      0x00\n        /* \"#utility.yul\":1079:1084   */\n      dup2\n        /* \"#utility.yul\":1073:1085   */\n      mload\n        /* \"#utility.yul\":1063:1085   */\n      swap1\n      pop\n        /* \"#utility.yul\":994:1092   */\n      swap2\n      swap1\n      pop\n      jump\t// out\n        /* \"#utility.yul\":1098:1266   */\n    tag_44:\n        /* \"#utility.yul\":1181:1192   */\n      0x00\n        /* \"#utility.yul\":1215:1221   */\n      dup3\n        /* \"#utility.yul\":1210:1213   */\n      dup3\n        /* \"#utility.yul\":1203:1222   */\n      mstore\n        /* \"#utility.yul\":1255:1259   */\n      0x20\n        /* \"#utility.yul\":1250:1253   */\n      dup3\n        /* \"#utility.yul\":1246:1260   */\n      add\n        /* \"#utility.yul\":1231:1260   */\n      swap1\n      pop\n        /* \"#utility.yul\":1098:1266   */\n      swap3\n      swap2\n      pop\n      pop\n      jump\t// out\n        /* \"#utility.yul\":1272:1518   */\n    tag_45:\n        /* \"#utility.yul\":1353:1354   */\n      0x00\n        /* \"#utility.yul\":1363:1476   */\n    tag_68:\n        /* \"#utility.yul\":1377:1383   */\n      dup4\n        /* \"#utility.yul\":1374:1375   */\n      dup2\n        /* \"#utility.yul\":1371:1384   */\n      lt\n        /* \"#utility.yul\":1363:1476   */\n      iszero\n      tag_70\n      jumpi\n        /* \"#utility.yul\":1462:1463   */\n      dup1\n        /* \"#utility.yul\":1457:1460   */\n      dup3\n        /* \"#utility.yul\":1453:1464   */\n      add\n        /* \"#utility.yul\":1447:1465   */\n      mload\n        /* \"#utility.yul\":1443:1444   */\n      dup2\n        /* \"#utility.yul\":1438:1441   */\n      dup5\n        /* \"#utility.yul\":1434:1445   */\n      add\n        /* \"#utility.yul\":1427:1466   */\n      mstore\n        /* \"#utility.yul\":1399:1401   */\n      0x20\n        /* \"#utility.yul\":1396:1397   */\n      dup2\n        /* \"#utility.yul\":1392:1402   */\n      add\n        /* \"#utility.yul\":1387:1402   */\n      swap1\n      pop\n        /* \"#utility.yul\":1363:1476   */\n      jump(tag_68)\n    tag_70:\n        /* \"#utility.yul\":1510:1511   */\n      0x00\n        /* \"#utility.yul\":1501:1507   */\n      dup5\n        /* \"#utility.yul\":1496:1499   */\n      dup5\n        /* \"#utility.yul\":1492:1508   */\n      add\n        /* \"#utility.yul\":1485:1512   */\n      mstore\n        /* \"#utility.yul\":1334:1518   */\n      pop\n        /* \"#utility.yul\":1272:1518   */\n      pop\n      pop\n      pop\n      jump\t// out\n        /* \"#utility.yul\":1524:1626   */\n    tag_46:\n        /* \"#utility.yul\":1565:1571   */\n      0x00\n        /* \"#utility.yul\":1616:1618   */\n      0x1f\n        /* \"#utility.yul\":1612:1619   */\n      not\n        /* \"#utility.yul\":1607:1609   */\n      0x1f\n        /* \"#utility.yul\":1600:1605   */\n      dup4\n        /* \"#utility.yul\":1596:1610   */\n      add\n        /* \"#utility.yul\":1592:1620   */\n      and\n        /* \"#utility.yul\":1582:1620   */\n      swap1\n      pop\n        /* \"#utility.yul\":1524:1626   */\n      swap2\n      swap1\n      pop\n      jump\t// out\n        /* \"#utility.yul\":1632:2005   */\n    tag_47:\n        /* \"#utility.yul\":1718:1721   */\n      0x00\n        /* \"#utility.yul\":1746:1784   */\n      tag_73\n        /* \"#utility.yul\":1778:1783   */\n      dup3\n        /* \"#utility.yul\":1746:1784   */\n      tag_43\n      jump\t// in\n    tag_73:\n        /* \"#utility.yul\":1800:1870   */\n      tag_74\n        /* \"#utility.yul\":1863:1869   */\n      dup2\n        /* \"#utility.yul\":1858:1861   */\n      dup6\n        /* \"#utility.yul\":1800:1870   */\n      tag_44\n      jump\t// in\n    tag_74:\n        /* \"#utility.yul\":1793:1870   */\n      swap4\n      pop\n        /* \"#utility.yul\":1879:1944   */\n      tag_75\n        /* \"#utility.yul\":1937:1943   */\n      dup2\n        /* \"#utility.yul\":1932:1935   */\n      dup6\n        /* \"#utility.yul\":1925:1929   */\n      0x20\n        /* \"#utility.yul\":1918:1923   */\n      dup7\n        /* \"#utility.yul\":1914:1930   */\n      add\n        /* \"#utility.yul\":1879:1944   */\n      tag_45\n      jump\t// in\n    tag_75:\n        /* \"#utility.yul\":1969:1998   */\n      tag_76\n        /* \"#utility.yul\":1991:1997   */\n      dup2\n        /* \"#utility.yul\":1969:1998   */\n      tag_46\n      jump\t// in\n    tag_76:\n        /* \"#utility.yul\":1964:1967   */\n      dup5\n        /* \"#utility.yul\":1960:1999   */\n      add\n        /* \"#utility.yul\":1953:1999   */\n      swap2\n      pop\n        /* \"#utility.yul\":1722:2005   */\n      pop\n        /* \"#utility.yul\":1632:2005   */\n      swap3\n      swap2\n      pop\n      pop\n      jump\t// out\n        /* \"#utility.yul\":2011:2320   */\n    tag_14:\n        /* \"#utility.yul\":2122:2126   */\n      0x00\n        /* \"#utility.yul\":2160:2162   */\n      0x20\n        /* \"#utility.yul\":2149:2158   */\n      dup3\n        /* \"#utility.yul\":2145:2163   */\n      add\n        /* \"#utility.yul\":2137:2163   */\n      swap1\n      pop\n        /* \"#utility.yul\":2209:2218   */\n      dup2\n        /* \"#utility.yul\":2203:2207   */\n      dup2\n        /* \"#utility.yul\":2199:2219   */\n      sub\n        /* \"#utility.yul\":2195:2196   */\n      0x00\n        /* \"#utility.yul\":2184:2193   */\n      dup4\n        /* \"#utility.yul\":2180:2197   */\n      add\n        /* \"#utility.yul\":2173:2220   */\n      mstore\n        /* \"#utility.yul\":2237:2313   */\n      tag_78\n        /* \"#utility.yul\":2308:2312   */\n      dup2\n        /* \"#utility.yul\":2299:2305   */\n      dup5\n        /* \"#utility.yul\":2237:2313   */\n      tag_47\n      jump\t// in\n    tag_78:\n        /* \"#utility.yul\":2229:2313   */\n      swap1\n      pop\n        /* \"#utility.yul\":2011:2320   */\n      swap3\n      swap2\n      pop\n      pop\n      jump\t// out\n        /* \"#utility.yul\":2326:2425   */\n    tag_48:\n        /* \"#utility.yul\":2378:2384   */\n      0x00\n        /* \"#utility.yul\":2412:2417   */\n      dup2\n        /* \"#utility.yul\":2406:2418   */\n      mload\n        /* \"#utility.yul\":2396:2418   */\n      swap1\n      pop\n        /* \"#utility.yul\":2326:2425   */\n      swap2\n      swap1\n      pop\n      jump\t// out\n        /* \"#utility.yul\":2431:2600   */\n    tag_49:\n        /* \"#utility.yul\":2515:2526   */\n      0x00\n        /* \"#utility.yul\":2549:2555   */\n      dup3\n        /* \"#utility.yul\":2544:2547   */\n      dup3\n        /* \"#utility.yul\":2537:2556   */\n      mstore\n        /* \"#utility.yul\":2589:2593   */\n      0x20\n        /* \"#utility.yul\":2584:2587   */\n      dup3\n        /* \"#utility.yul\":2580:2594   */\n      add\n        /* \"#utility.yul\":2565:2594   */\n      swap1\n      pop\n        /* \"#utility.yul\":2431:2600   */\n      swap3\n      swap2\n      pop\n      pop\n      jump\t// out\n        /* \"#utility.yul\":2606:2983   */\n    tag_50:\n        /* \"#utility.yul\":2694:2697   */\n      0x00\n        /* \"#utility.yul\":2722:2761   */\n      tag_82\n        /* \"#utility.yul\":2755:2760   */\n      dup3\n        /* \"#utility.yul\":2722:2761   */\n      tag_48\n      jump\t// in\n    tag_82:\n        /* \"#utility.yul\":2777:2848   */\n      tag_83\n        /* \"#utility.yul\":2841:2847   */\n      dup2\n        /* \"#utility.yul\":2836:2839   */\n      dup6\n        /* \"#utility.yul\":2777:2848   */\n      tag_49\n      jump\t// in\n    tag_83:\n        /* \"#utility.yul\":2770:2848   */\n      swap4\n      pop\n        /* \"#utility.yul\":2857:2922   */\n      tag_84\n        /* \"#utility.yul\":2915:2921   */\n      dup2\n        /* \"#utility.yul\":2910:2913   */\n      dup6\n        /* \"#utility.yul\":2903:2907   */\n      0x20\n        /* \"#utility.yul\":2896:2901   */\n      dup7\n        /* \"#utility.yul\":2892:2908   */\n      add\n        /* \"#utility.yul\":2857:2922   */\n      tag_45\n      jump\t// in\n    tag_84:\n        /* \"#utility.yul\":2947:2976   */\n      tag_85\n        /* \"#utility.yul\":2969:2975   */\n      dup2\n        /* \"#utility.yul\":2947:2976   */\n      tag_46\n      jump\t// in\n    tag_85:\n        /* \"#utility.yul\":2942:2945   */\n      dup5\n        /* \"#utility.yul\":2938:2977   */\n      add\n        /* \"#utility.yul\":2931:2977   */\n      swap2\n      pop\n        /* \"#utility.yul\":2698:2983   */\n      pop\n        /* \"#utility.yul\":2606:2983   */\n      swap3\n      swap2\n      pop\n      pop\n      jump\t// out\n        /* \"#utility.yul\":2989:3302   */\n    tag_18:\n        /* \"#utility.yul\":3102:3106   */\n      0x00\n        /* \"#utility.yul\":3140:3142   */\n      0x20\n        /* \"#utility.yul\":3129:3138   */\n      dup3\n        /* \"#utility.yul\":3125:3143   */\n      add\n        /* \"#utility.yul\":3117:3143   */\n      swap1\n      pop\n        /* \"#utility.yul\":3189:3198   */\n      dup2\n        /* \"#utility.yul\":3183:3187   */\n      dup2\n        /* \"#utility.yul\":3179:3199   */\n      sub\n        /* \"#utility.yul\":3175:3176   */\n      0x00\n        /* \"#utility.yul\":3164:3173   */\n      dup4\n        /* \"#utility.yul\":3160:3177   */\n      add\n        /* \"#utility.yul\":3153:3200   */\n      mstore\n        /* \"#utility.yul\":3217:3295   */\n      tag_87\n        /* \"#utility.yul\":3290:3294   */\n      dup2\n        /* \"#utility.yul\":3281:3287   */\n      dup5\n        /* \"#utility.yul\":3217:3295   */\n      tag_50\n      jump\t// in\n    tag_87:\n        /* \"#utility.yul\":3209:3295   */\n      swap1\n      pop\n        /* \"#utility.yul\":2989:3302   */\n      swap3\n      swap2\n      pop\n      pop\n      jump\t// out\n        /* \"#utility.yul\":3308:3488   */\n    tag_51:\n        /* \"#utility.yul\":3356:3433   */\n      0x4e487b7100000000000000000000000000000000000000000000000000000000\n        /* \"#utility.yul\":3353:3354   */\n      0x00\n        /* \"#utility.yul\":3346:3434   */\n      mstore\n        /* \"#utility.yul\":3453:3457   */\n      0x22\n        /* \"#utility.yul\":3450:3451   */\n      0x04\n        /* \"#utility.yul\":3443:3458   */\n      mstore\n        /* \"#utility.yul\":3477:3481   */\n      0x24\n        /* \"#utility.yul\":3474:3475   */\n      0x00\n        /* \"#utility.yul\":3467:3482   */\n      revert\n        /* \"#utility.yul\":3494:3814   */\n    tag_23:\n        /* \"#utility.yul\":3538:3544   */\n      0x00\n        /* \"#utility.yul\":3575:3576   */\n      0x02\n        /* \"#utility.yul\":3569:3573   */\n      dup3\n        /* \"#utility.yul\":3565:3577   */\n      div\n        /* \"#utility.yul\":3555:3577   */\n      swap1\n      pop\n        /* \"#utility.yul\":3622:3623   */\n      0x01\n        /* \"#utility.yul\":3616:3620   */\n      dup3\n        /* \"#utility.yul\":3612:3624   */\n      and\n        /* \"#utility.yul\":3643:3661   */\n      dup1\n        /* \"#utility.yul\":3633:3714   */\n      tag_90\n      jumpi\n        /* \"#utility.yul\":3699:3703   */\n      0x7f\n        /* \"#utility.yul\":3691:3697   */\n      dup3\n        /* \"#utility.yul\":3687:3704   */\n      and\n        /* \"#utility.yul\":3677:3704   */\n      swap2\n      pop\n        /* \"#utility.yul\":3633:3714   */\n    tag_90:\n        /* \"#utility.yul\":3761:3763   */\n      0x20\n        /* \"#utility.yul\":3753:3759   */\n      dup3\n        /* \"#utility.yul\":3750:3764   */\n      lt\n        /* \"#utility.yul\":3730:3748   */\n      dup2\n        /* \"#utility.yul\":3727:3765   */\n      sub\n        /* \"#utility.yul\":3724:3808   */\n      tag_91\n      jumpi\n        /* \"#utility.yul\":3780:3798   */\n      tag_92\n      tag_51\n      jump\t// in\n    tag_92:\n        /* \"#utility.yul\":3724:3808   */\n    tag_91:\n        /* \"#utility.yul\":3545:3814   */\n      pop\n        /* \"#utility.yul\":3494:3814   */\n      swap2\n      swap1\n      pop\n      jump\t// out\n\n    auxdata: 0xa2646970667358221220d0dbf9c4ad685e8dd6d72ae97d0f5d33c573783f5a005a5ea997be14bd45ea8c64736f6c63430008170033\n}\n",
				"bytecode": {
					"linkReferences": {},
					"object": "60806040526040518060400160405280600a81526020017f48656c6c6f20f09f988300000000000000000000000000000000000000000000815250600190816200004a91906200031b565b506040518060400160405280600881526020017e112233445566770000000000000000000000000000000000000000000000008152506002908162000090919062000461565b50600260039081620000a391906200056e565b50348015620000b0575f80fd5b506200066c565b5f81519050919050565b7f4e487b71000000000000000000000000000000000000000000000000000000005f52604160045260245ffd5b7f4e487b71000000000000000000000000000000000000000000000000000000005f52602260045260245ffd5b5f60028204905060018216806200013357607f821691505b602082108103620001495762000148620000ee565b5b50919050565b5f819050815f5260205f209050919050565b5f6020601f8301049050919050565b5f82821b905092915050565b5f60088302620001ad7fffffffffffffffffffffffffffffffffffffffffffffffffffffffffffffffff8262000170565b620001b9868362000170565b95508019841693508086168417925050509392505050565b5f819050919050565b5f819050919050565b5f62000203620001fd620001f784620001d1565b620001da565b620001d1565b9050919050565b5f819050919050565b6200021e83620001e3565b620002366200022d826200020a565b8484546200017c565b825550505050565b5f90565b6200024c6200023e565b6200025981848462000213565b505050565b5b818110156200028057620002745f8262000242565b6001810190506200025f565b5050565b601f821115620002cf5762000299816200014f565b620002a48462000161565b81016020851015620002b4578190505b620002cc620002c38562000161565b8301826200025e565b50505b505050565b5f82821c905092915050565b5f620002f15f1984600802620002d4565b1980831691505092915050565b5f6200030b8383620002e0565b9150826002028217905092915050565b6200032682620000b7565b67ffffffffffffffff811115620003425762000341620000c1565b5b6200034e82546200011b565b6200035b82828562000284565b5f60209050601f83116001811462000391575f84156200037c578287015190505b620003888582620002fe565b865550620003f7565b601f198416620003a1866200014f565b5f5b82811015620003ca57848901518255600182019150602085019450602081019050620003a3565b86831015620003ea5784890151620003e6601f891682620002e0565b8355505b6001600288020188555050505b505050505050565b5f819050815f5260205f209050919050565b601f8211156200045c576200042681620003ff565b620004318462000161565b8101602085101562000441578190505b62000459620004508562000161565b8301826200025e565b50505b505050565b6200046c82620000b7565b67ffffffffffffffff811115620004885762000487620000c1565b5b6200049482546200011b565b620004a182828562000411565b5f60209050601f831160018114620004d7575f8415620004c2578287015190505b620004ce8582620002fe565b8655506200053d565b601f198416620004e786620003ff565b5f5b828110156200051057848901518255600182019150602085019450602081019050620004e9565b868310156200053057848901516200052c601f891682620002e0565b8355505b6001600288020188555050505b505050505050565b5f8154905062000555816200011b565b9050919050565b5f819050815f5260205f209050919050565b8181036200057e5750506200066a565b620005898262000545565b67ffffffffffffffff811115620005a557620005a4620000c1565b5b620005b182546200011b565b620005be82828562000284565b5f601f831160018114620005f0575f8415620005db578287015490505b620005e78582620002fe565b86555062000663565b601f19841662000600876200055c565b96506200060d866200014f565b5f5b8281101562000636578489015482556001820191506001850194506020810190506200060f565b8683101562000656578489015462000652601f891682620002e0565b8355505b6001600288020188555050505b5050505050505b565b6104b5806200067a5f395ff3fe608060405234801561000f575f80fd5b506004361061004a575f3560e01c80633ec48a2e1461004e578063712f46021461006c5780638381f58a1461008a5780638a054ac2146100a8575b5f80fd5b6100566100c6565b60405161006391906102ed565b60405180910390f35b6100746100d6565b6040516100819190610390565b60405180910390f35b610092610162565b60405161009f9190610402565b60405180910390f35b6100b06101ee565b6040516100bd9190610402565b60405180910390f35b5f8054906101000a900460ff1681565b600280546100e39061044f565b80601f016020809104026020016040519081016040528092919081815260200182805461010f9061044f565b801561015a5780601f106101315761010080835404028352916020019161015a565b820191905f5260205f20905b81548152906001019060200180831161013d57829003601f168201915b505050505081565b6003805461016f9061044f565b80601f016020809104026020016040519081016040528092919081815260200182805461019b9061044f565b80156101e65780601f106101bd576101008083540402835291602001916101e6565b820191905f5260205f20905b8154815290600101906020018083116101c957829003601f168201915b505050505081565b600180546101fb9061044f565b80601f01602080910402602001604051908101604052809291908181526020018280546102279061044f565b80156102725780601f1061024957610100808354040283529160200191610272565b820191905f5260205f20905b81548152906001019060200180831161025557829003601f168201915b505050505081565b7f4e487b71000000000000000000000000000000000000000000000000000000005f52602160045260245ffd5b600481106102b8576102b761027a565b5b50565b5f8190506102c8826102a7565b919050565b5f6102d7826102bb565b9050919050565b6102e7816102cd565b82525050565b5f6020820190506103005f8301846102de565b92915050565b5f81519050919050565b5f82825260208201905092915050565b5f5b8381101561033d578082015181840152602081019050610322565b5f8484015250505050565b5f601f19601f8301169050919050565b5f61036282610306565b61036c8185610310565b935061037c818560208601610320565b61038581610348565b840191505092915050565b5f6020820190508181035f8301526103a88184610358565b905092915050565b5f81519050919050565b5f82825260208201905092915050565b5f6103d4826103b0565b6103de81856103ba565b93506103ee818560208601610320565b6103f781610348565b840191505092915050565b5f6020820190508181035f83015261041a81846103ca565b905092915050565b7f4e487b71000000000000000000000000000000000000000000000000000000005f52602260045260245ffd5b5f600282049050600182168061046657607f821691505b60208210810361047957610478610422565b5b5091905056fea2646970667358221220d0dbf9c4ad685e8dd6d72ae97d0f5d33c573783f5a005a5ea997be14bd45ea8c64736f6c63430008170033",
					"opcodes": "PUSH1 0x80 PUSH1 0x40 MSTORE PUSH1 0x40 MLOAD DUP1 PUSH1 0x40 ADD PUSH1 0x40 MSTORE DUP1 PUSH1 0xA DUP2 MSTORE PUSH1 0x20 ADD PUSH32 0x48656C6C6F20F09F988300000000000000000000000000000000000000000000 DUP2 MSTORE POP PUSH1 0x1 SWAP1 DUP2 PUSH3 0x4A SWAP2 SWAP1 PUSH3 0x31B JUMP JUMPDEST POP PUSH1 0x40 MLOAD DUP1 PUSH1 0x40 ADD PUSH1 0x40 MSTORE DUP1 PUSH1 0x8 DUP2 MSTORE PUSH1 0x20 ADD PUSH31 0x11223344556677000000000000000000000000000000000000000000000000 DUP2 MSTORE POP PUSH1 0x2 SWAP1 DUP2 PUSH3 0x90 SWAP2 SWAP1 PUSH3 0x461 JUMP JUMPDEST POP PUSH1 0x2 PUSH1 0x3 SWAP1 DUP2 PUSH3 0xA3 SWAP2 SWAP1 PUSH3 0x56E JUMP JUMPDEST POP CALLVALUE DUP1 ISZERO PUSH3 0xB0 JUMPI PUSH0 DUP1 REVERT JUMPDEST POP PUSH3 0x66C JUMP JUMPDEST PUSH0 DUP2 MLOAD SWAP1 POP SWAP2 SWAP1 POP JUMP JUMPDEST PUSH32 0x4E487B7100000000000000000000000000000000000000000000000000000000 PUSH0 MSTORE PUSH1 0x41 PUSH1 0x4 MSTORE PUSH1 0x24 PUSH0 REVERT JUMPDEST PUSH32 0x4E487B7100000000000000000000000000000000000000000000000000000000 PUSH0 MSTORE PUSH1 0x22 PUSH1 0x4 MSTORE PUSH1 0x24 PUSH0 REVERT JUMPDEST PUSH0 PUSH1 0x2 DUP3 DIV SWAP1 POP PUSH1 0x1 DUP3 AND DUP1 PUSH3 0x133 JUMPI PUSH1 0x7F DUP3 AND SWAP2 POP JUMPDEST PUSH1 0x20 DUP3 LT DUP2 SUB PUSH3 0x149 JUMPI PUSH3 0x148 PUSH3 0xEE JUMP JUMPDEST JUMPDEST POP SWAP2 SWAP1 POP JUMP JUMPDEST PUSH0 DUP2 SWAP1 POP DUP2 PUSH0 MSTORE PUSH1 0x20 PUSH0 KECCAK256 SWAP1 POP SWAP2 SWAP1 POP JUMP JUMPDEST PUSH0 PUSH1 0x20 PUSH1 0x1F DUP4 ADD DIV SWAP1 POP SWAP2 SWAP1 POP JUMP JUMPDEST PUSH0 DUP3 DUP3 SHL SWAP1 POP SWAP3 SWAP2 POP POP JUMP JUMPDEST PUSH0 PUSH1 0x8 DUP4 MUL PUSH3 0x1AD PUSH32 0xFFFFFFFFFFFFFFFFFFFFFFFFFFFFFFFFFFFFFFFFFFFFFFFFFFFFFFFFFFFFFFFF DUP3 PUSH3 0x170 JUMP JUMPDEST PUSH3 0x1B9 DUP7 DUP4 PUSH3 0x170 JUMP JUMPDEST SWAP6 POP DUP1 NOT DUP5 AND SWAP4 POP DUP1 DUP7 AND DUP5 OR SWAP3 POP POP POP SWAP4 SWAP3 POP POP POP JUMP JUMPDEST PUSH0 DUP2 SWAP1 POP SWAP2 SWAP1 POP JUMP JUMPDEST PUSH0 DUP2 SWAP1 POP SWAP2 SWAP1 POP JUMP JUMPDEST PUSH0 PUSH3 0x203 PUSH3 0x1FD PUSH3 0x1F7 DUP5 PUSH3 0x1D1 JUMP JUMPDEST PUSH3 0x1DA JUMP JUMPDEST PUSH3 0x1D1 JUMP JUMPDEST SWAP1 POP SWAP2 SWAP1 POP JUMP JUMPDEST PUSH0 DUP2 SWAP1 POP SWAP2 SWAP1 POP JUMP JUMPDEST PUSH3 0x21E DUP4 PUSH3 0x1E3 JUMP JUMPDEST PUSH3 0x236 PUSH3 0x22D DUP3 PUSH3 0x20A JUMP JUMPDEST DUP5 DUP5 SLOAD PUSH3 0x17C JUMP JUMPDEST DUP3 SSTORE POP POP POP POP JUMP JUMPDEST PUSH0 SWAP1 JUMP JUMPDEST PUSH3 0x24C PUSH3 0x23E JUMP JUMPDEST PUSH3 0x259 DUP2 DUP5 DUP5 PUSH3 0x213 JUMP JUMPDEST POP POP POP JUMP JUMPDEST JUMPDEST DUP2 DUP2 LT ISZERO PUSH3 0x280 JUMPI PUSH3 0x274 PUSH0 DUP3 PUSH3 0x242 JUMP JUMPDEST PUSH1 0x1 DUP2 ADD SWAP1 POP PUSH3 0x25F JUMP JUMPDEST POP POP JUMP JUMPDEST PUSH1 0x1F DUP3 GT ISZERO PUSH3 0x2CF JUMPI PUSH3 0x299 DUP2 PUSH3 0x14F JUMP JUMPDEST PUSH3 0x2A4 DUP5 PUSH3 0x161 JUMP JUMPDEST DUP2 ADD PUSH1 0x20 DUP6 LT ISZERO PUSH3 0x2B4 JUMPI DUP2 SWAP1 POP JUMPDEST PUSH3 0x2CC PUSH3 0x2C3 DUP6 PUSH3 0x161 JUMP JUMPDEST DUP4 ADD DUP3 PUSH3 0x25E JUMP JUMPDEST POP POP JUMPDEST POP POP POP JUMP JUMPDEST PUSH0 DUP3 DUP3 SHR SWAP1 POP SWAP3 SWAP2 POP POP JUMP JUMPDEST PUSH0 PUSH3 0x2F1 PUSH0 NOT DUP5 PUSH1 0x8 MUL PUSH3 0x2D4 JUMP JUMPDEST NOT DUP1 DUP4 AND SWAP2 POP POP SWAP3 SWAP2 POP POP JUMP JUMPDEST PUSH0 PUSH3 0x30B DUP4 DUP4 PUSH3 0x2E0 JUMP JUMPDEST SWAP2 POP DUP3 PUSH1 0x2 MUL DUP3 OR SWAP1 POP SWAP3 SWAP2 POP POP JUMP JUMPDEST PUSH3 0x326 DUP3 PUSH3 0xB7 JUMP JUMPDEST PUSH8 0xFFFFFFFFFFFFFFFF DUP2 GT ISZERO PUSH3 0x342 JUMPI PUSH3 0x341 PUSH3 0xC1 JUMP JUMPDEST JUMPDEST PUSH3 0x34E DUP3 SLOAD PUSH3 0x11B JUMP JUMPDEST PUSH3 0x35B DUP3 DUP3 DUP6 PUSH3 0x284 JUMP JUMPDEST PUSH0 PUSH1 0x20 SWAP1 POP PUSH1 0x1F DUP4 GT PUSH1 0x1 DUP2 EQ PUSH3 0x391 JUMPI PUSH0 DUP5 ISZERO PUSH3 0x37C JUMPI DUP3 DUP8 ADD MLOAD SWAP1 POP JUMPDEST PUSH3 0x388 DUP6 DUP3 PUSH3 0x2FE JUMP JUMPDEST DUP7 SSTORE POP PUSH3 0x3F7 JUMP JUMPDEST PUSH1 0x1F NOT DUP5 AND PUSH3 0x3A1 DUP7 PUSH3 0x14F JUMP JUMPDEST PUSH0 JUMPDEST DUP3 DUP2 LT ISZERO PUSH3 0x3CA JUMPI DUP5 DUP10 ADD MLOAD DUP3 SSTORE PUSH1 0x1 DUP3 ADD SWAP2 POP PUSH1 0x20 DUP6 ADD SWAP5 POP PUSH1 0x20 DUP2 ADD SWAP1 POP PUSH3 0x3A3 JUMP JUMPDEST DUP7 DUP4 LT ISZERO PUSH3 0x3EA JUMPI DUP5 DUP10 ADD MLOAD PUSH3 0x3E6 PUSH1 0x1F DUP10 AND DUP3 PUSH3 0x2E0 JUMP JUMPDEST DUP4 SSTORE POP JUMPDEST PUSH1 0x1 PUSH1 0x2 DUP9 MUL ADD DUP9 SSTORE POP POP POP JUMPDEST POP POP POP POP POP POP JUMP JUMPDEST PUSH0 DUP2 SWAP1 POP DUP2 PUSH0 MSTORE PUSH1 0x20 PUSH0 KECCAK256 SWAP1 POP SWAP2 SWAP1 POP JUMP JUMPDEST PUSH1 0x1F DUP3 GT ISZERO PUSH3 0x45C JUMPI PUSH3 0x426 DUP2 PUSH3 0x3FF JUMP JUMPDEST PUSH3 0x431 DUP5 PUSH3 0x161 JUMP JUMPDEST DUP2 ADD PUSH1 0x20 DUP6 LT ISZERO PUSH3 0x441 JUMPI DUP2 SWAP1 POP JUMPDEST PUSH3 0x459 PUSH3 0x450 DUP6 PUSH3 0x161 JUMP JUMPDEST DUP4 ADD DUP3 PUSH3 0x25E JUMP JUMPDEST POP POP JUMPDEST POP POP POP JUMP JUMPDEST PUSH3 0x46C DUP3 PUSH3 0xB7 JUMP JUMPDEST PUSH8 0xFFFFFFFFFFFFFFFF DUP2 GT ISZERO PUSH3 0x488 JUMPI PUSH3 0x487 PUSH3 0xC1 JUMP JUMPDEST JUMPDEST PUSH3 0x494 DUP3 SLOAD PUSH3 0x11B JUMP JUMPDEST PUSH3 0x4A1 DUP3 DUP3 DUP6 PUSH3 0x411 JUMP JUMPDEST PUSH0 PUSH1 0x20 SWAP1 POP PUSH1 0x1F DUP4 GT PUSH1 0x1 DUP2 EQ PUSH3 0x4D7 JUMPI PUSH0 DUP5 ISZERO PUSH3 0x4C2 JUMPI DUP3 DUP8 ADD MLOAD SWAP1 POP JUMPDEST PUSH3 0x4CE DUP6 DUP3 PUSH3 0x2FE JUMP JUMPDEST DUP7 SSTORE POP PUSH3 0x53D JUMP JUMPDEST PUSH1 0x1F NOT DUP5 AND PUSH3 0x4E7 DUP7 PUSH3 0x3FF JUMP JUMPDEST PUSH0 JUMPDEST DUP3 DUP2 LT ISZERO PUSH3 0x510 JUMPI DUP5 DUP10 ADD MLOAD DUP3 SSTORE PUSH1 0x1 DUP3 ADD SWAP2 POP PUSH1 0x20 DUP6 ADD SWAP5 POP PUSH1 0x20 DUP2 ADD SWAP1 POP PUSH3 0x4E9 JUMP JUMPDEST DUP7 DUP4 LT ISZERO PUSH3 0x530 JUMPI DUP5 DUP10 ADD MLOAD PUSH3 0x52C PUSH1 0x1F DUP10 AND DUP3 PUSH3 0x2E0 JUMP JUMPDEST DUP4 SSTORE POP JUMPDEST PUSH1 0x1 PUSH1 0x2 DUP9 MUL ADD DUP9 SSTORE POP POP POP JUMPDEST POP POP POP POP POP POP JUMP JUMPDEST PUSH0 DUP2 SLOAD SWAP1 POP PUSH3 0x555 DUP2 PUSH3 0x11B JUMP JUMPDEST SWAP1 POP SWAP2 SWAP1 POP JUMP JUMPDEST PUSH0 DUP2 SWAP1 POP DUP2 PUSH0 MSTORE PUSH1 0x20 PUSH0 KECCAK256 SWAP1 POP SWAP2 SWAP1 POP JUMP JUMPDEST DUP2 DUP2 SUB PUSH3 0x57E JUMPI POP POP PUSH3 0x66A JUMP JUMPDEST PUSH3 0x589 DUP3 PUSH3 0x545 JUMP JUMPDEST PUSH8 0xFFFFFFFFFFFFFFFF DUP2 GT ISZERO PUSH3 0x5A5 JUMPI PUSH3 0x5A4 PUSH3 0xC1 JUMP JUMPDEST JUMPDEST PUSH3 0x5B1 DUP3 SLOAD PUSH3 0x11B JUMP JUMPDEST PUSH3 0x5BE DUP3 DUP3 DUP6 PUSH3 0x284 JUMP JUMPDEST PUSH0 PUSH1 0x1F DUP4 GT PUSH1 0x1 DUP2 EQ PUSH3 0x5F0 JUMPI PUSH0 DUP5 ISZERO PUSH3 0x5DB JUMPI DUP3 DUP8 ADD SLOAD SWAP1 POP JUMPDEST PUSH3 0x5E7 DUP6 DUP3 PUSH3 0x2FE JUMP JUMPDEST DUP7 SSTORE POP PUSH3 0x663 JUMP JUMPDEST PUSH1 0x1F NOT DUP5 AND PUSH3 0x600 DUP8 PUSH3 0x55C JUMP JUMPDEST SWAP7 POP PUSH3 0x60D DUP7 PUSH3 0x14F JUMP JUMPDEST PUSH0 JUMPDEST DUP3 DUP2 LT ISZERO PUSH3 0x636 JUMPI DUP5 DUP10 ADD SLOAD DUP3 SSTORE PUSH1 0x1 DUP3 ADD SWAP2 POP PUSH1 0x1 DUP6 ADD SWAP5 POP PUSH1 0x20 DUP2 ADD SWAP1 POP PUSH3 0x60F JUMP JUMPDEST DUP7 DUP4 LT ISZERO PUSH3 0x656 JUMPI DUP5 DUP10 ADD SLOAD PUSH3 0x652 PUSH1 0x1F DUP10 AND DUP3 PUSH3 0x2E0 JUMP JUMPDEST DUP4 SSTORE POP JUMPDEST PUSH1 0x1 PUSH1 0x2 DUP9 MUL ADD DUP9 SSTORE POP POP POP JUMPDEST POP POP POP POP POP POP JUMPDEST JUMP JUMPDEST PUSH2 0x4B5 DUP1 PUSH3 0x67A PUSH0 CODECOPY PUSH0 RETURN INVALID PUSH1 0x80 PUSH1 0x40 MSTORE CALLVALUE DUP1 ISZERO PUSH2 0xF JUMPI PUSH0 DUP1 REVERT JUMPDEST POP PUSH1 0x4 CALLDATASIZE LT PUSH2 0x4A JUMPI PUSH0 CALLDATALOAD PUSH1 0xE0 SHR DUP1 PUSH4 0x3EC48A2E EQ PUSH2 0x4E JUMPI DUP1 PUSH4 0x712F4602 EQ PUSH2 0x6C JUMPI DUP1 PUSH4 0x8381F58A EQ PUSH2 0x8A JUMPI DUP1 PUSH4 0x8A054AC2 EQ PUSH2 0xA8 JUMPI JUMPDEST PUSH0 DUP1 REVERT JUMPDEST PUSH2 0x56 PUSH2 0xC6 JUMP JUMPDEST PUSH1 0x40 MLOAD PUSH2 0x63 SWAP2 SWAP1 PUSH2 0x2ED JUMP JUMPDEST PUSH1 0x40 MLOAD DUP1 SWAP2 SUB SWAP1 RETURN JUMPDEST PUSH2 0x74 PUSH2 0xD6 JUMP JUMPDEST PUSH1 0x40 MLOAD PUSH2 0x81 SWAP2 SWAP1 PUSH2 0x390 JUMP JUMPDEST PUSH1 0x40 MLOAD DUP1 SWAP2 SUB SWAP1 RETURN JUMPDEST PUSH2 0x92 PUSH2 0x162 JUMP JUMPDEST PUSH1 0x40 MLOAD PUSH2 0x9F SWAP2 SWAP1 PUSH2 0x402 JUMP JUMPDEST PUSH1 0x40 MLOAD DUP1 SWAP2 SUB SWAP1 RETURN JUMPDEST PUSH2 0xB0 PUSH2 0x1EE JUMP JUMPDEST PUSH1 0x40 MLOAD PUSH2 0xBD SWAP2 SWAP1 PUSH2 0x402 JUMP JUMPDEST PUSH1 0x40 MLOAD DUP1 SWAP2 SUB SWAP1 RETURN JUMPDEST PUSH0 DUP1 SLOAD SWAP1 PUSH2 0x100 EXP SWAP1 DIV PUSH1 0xFF AND DUP2 JUMP JUMPDEST PUSH1 0x2 DUP1 SLOAD PUSH2 0xE3 SWAP1 PUSH2 0x44F JUMP JUMPDEST DUP1 PUSH1 0x1F ADD PUSH1 0x20 DUP1 SWAP2 DIV MUL PUSH1 0x20 ADD PUSH1 0x40 MLOAD SWAP1 DUP2 ADD PUSH1 0x40 MSTORE DUP1 SWAP3 SWAP2 SWAP1 DUP2 DUP2 MSTORE PUSH1 0x20 ADD DUP3 DUP1 SLOAD PUSH2 0x10F SWAP1 PUSH2 0x44F JUMP JUMPDEST DUP1 ISZERO PUSH2 0x15A JUMPI DUP1 PUSH1 0x1F LT PUSH2 0x131 JUMPI PUSH2 0x100 DUP1 DUP4 SLOAD DIV MUL DUP4 MSTORE SWAP2 PUSH1 0x20 ADD SWAP2 PUSH2 0x15A JUMP JUMPDEST DUP3 ADD SWAP2 SWAP1 PUSH0 MSTORE PUSH1 0x20 PUSH0 KECCAK256 SWAP1 JUMPDEST DUP2 SLOAD DUP2 MSTORE SWAP1 PUSH1 0x1 ADD SWAP1 PUSH1 0x20 ADD DUP1 DUP4 GT PUSH2 0x13D JUMPI DUP3 SWAP1 SUB PUSH1 0x1F AND DUP3 ADD SWAP2 JUMPDEST POP POP POP POP POP DUP2 JUMP JUMPDEST PUSH1 0x3 DUP1 SLOAD PUSH2 0x16F SWAP1 PUSH2 0x44F JUMP JUMPDEST DUP1 PUSH1 0x1F ADD PUSH1 0x20 DUP1 SWAP2 DIV MUL PUSH1 0x20 ADD PUSH1 0x40 MLOAD SWAP1 DUP2 ADD PUSH1 0x40 MSTORE DUP1 SWAP3 SWAP2 SWAP1 DUP2 DUP2 MSTORE PUSH1 0x20 ADD DUP3 DUP1 SLOAD PUSH2 0x19B SWAP1 PUSH2 0x44F JUMP JUMPDEST DUP1 ISZERO PUSH2 0x1E6 JUMPI DUP1 PUSH1 0x1F LT PUSH2 0x1BD JUMPI PUSH2 0x100 DUP1 DUP4 SLOAD DIV MUL DUP4 MSTORE SWAP2 PUSH1 0x20 ADD SWAP2 PUSH2 0x1E6 JUMP JUMPDEST DUP3 ADD SWAP2 SWAP1 PUSH0 MSTORE PUSH1 0x20 PUSH0 KECCAK256 SWAP1 JUMPDEST DUP2 SLOAD DUP2 MSTORE SWAP1 PUSH1 0x1 ADD SWAP1 PUSH1 0x20 ADD DUP1 DUP4 GT PUSH2 0x1C9 JUMPI DUP3 SWAP1 SUB PUSH1 0x1F AND DUP3 ADD SWAP2 JUMPDEST POP POP POP POP POP DUP2 JUMP JUMPDEST PUSH1 0x1 DUP1 SLOAD PUSH2 0x1FB SWAP1 PUSH2 0x44F JUMP JUMPDEST DUP1 PUSH1 0x1F ADD PUSH1 0x20 DUP1 SWAP2 DIV MUL PUSH1 0x20 ADD PUSH1 0x40 MLOAD SWAP1 DUP2 ADD PUSH1 0x40 MSTORE DUP1 SWAP3 SWAP2 SWAP1 DUP2 DUP2 MSTORE PUSH1 0x20 ADD DUP3 DUP1 SLOAD PUSH2 0x227 SWAP1 PUSH2 0x44F JUMP JUMPDEST DUP1 ISZERO PUSH2 0x272 JUMPI DUP1 PUSH1 0x1F LT PUSH2 0x249 JUMPI PUSH2 0x100 DUP1 DUP4 SLOAD DIV MUL DUP4 MSTORE SWAP2 PUSH1 0x20 ADD SWAP2 PUSH2 0x272 JUMP JUMPDEST DUP3 ADD SWAP2 SWAP1 PUSH0 MSTORE PUSH1 0x20 PUSH0 KECCAK256 SWAP1 JUMPDEST DUP2 SLOAD DUP2 MSTORE SWAP1 PUSH1 0x1 ADD SWAP1 PUSH1 0x20 ADD DUP1 DUP4 GT PUSH2 0x255 JUMPI DUP3 SWAP1 SUB PUSH1 0x1F AND DUP3 ADD SWAP2 JUMPDEST POP POP POP POP POP DUP2 JUMP JUMPDEST PUSH32 0x4E487B7100000000000000000000000000000000000000000000000000000000 PUSH0 MSTORE PUSH1 0x21 PUSH1 0x4 MSTORE PUSH1 0x24 PUSH0 REVERT JUMPDEST PUSH1 0x4 DUP2 LT PUSH2 0x2B8 JUMPI PUSH2 0x2B7 PUSH2 0x27A JUMP JUMPDEST JUMPDEST POP JUMP JUMPDEST PUSH0 DUP2 SWAP1 POP PUSH2 0x2C8 DUP3 PUSH2 0x2A7 JUMP JUMPDEST SWAP2 SWAP1 POP JUMP JUMPDEST PUSH0 PUSH2 0x2D7 DUP3 PUSH2 0x2BB JUMP JUMPDEST SWAP1 POP SWAP2 SWAP1 POP JUMP JUMPDEST PUSH2 0x2E7 DUP2 PUSH2 0x2CD JUMP JUMPDEST DUP3 MSTORE POP POP JUMP JUMPDEST PUSH0 PUSH1 0x20 DUP3 ADD SWAP1 POP PUSH2 0x300 PUSH0 DUP4 ADD DUP5 PUSH2 0x2DE JUMP JUMPDEST SWAP3 SWAP2 POP POP JUMP JUMPDEST PUSH0 DUP2 MLOAD SWAP1 POP SWAP2 SWAP1 POP JUMP JUMPDEST PUSH0 DUP3 DUP3 MSTORE PUSH1 0x20 DUP3 ADD SWAP1 POP SWAP3 SWAP2 POP POP JUMP JUMPDEST PUSH0 JUMPDEST DUP4 DUP2 LT ISZERO PUSH2 0x33D JUMPI DUP1 DUP3 ADD MLOAD DUP2 DUP5 ADD MSTORE PUSH1 0x20 DUP2 ADD SWAP1 POP PUSH2 0x322 JUMP JUMPDEST PUSH0 DUP5 DUP5 ADD MSTORE POP POP POP POP JUMP JUMPDEST PUSH0 PUSH1 0x1F NOT PUSH1 0x1F DUP4 ADD AND SWAP1 POP SWAP2 SWAP1 POP JUMP JUMPDEST PUSH0 PUSH2 0x362 DUP3 PUSH2 0x306 JUMP JUMPDEST PUSH2 0x36C DUP2 DUP6 PUSH2 0x310 JUMP JUMPDEST SWAP4 POP PUSH2 0x37C DUP2 DUP6 PUSH1 0x20 DUP7 ADD PUSH2 0x320 JUMP JUMPDEST PUSH2 0x385 DUP2 PUSH2 0x348 JUMP JUMPDEST DUP5 ADD SWAP2 POP POP SWAP3 SWAP2 POP POP JUMP JUMPDEST PUSH0 PUSH1 0x20 DUP3 ADD SWAP1 POP DUP2 DUP2 SUB PUSH0 DUP4 ADD MSTORE PUSH2 0x3A8 DUP2 DUP5 PUSH2 0x358 JUMP JUMPDEST SWAP1 POP SWAP3 SWAP2 POP POP JUMP JUMPDEST PUSH0 DUP2 MLOAD SWAP1 POP SWAP2 SWAP1 POP JUMP JUMPDEST PUSH0 DUP3 DUP3 MSTORE PUSH1 0x20 DUP3 ADD SWAP1 POP SWAP3 SWAP2 POP POP JUMP JUMPDEST PUSH0 PUSH2 0x3D4 DUP3 PUSH2 0x3B0 JUMP JUMPDEST PUSH2 0x3DE DUP2 DUP6 PUSH2 0x3BA JUMP JUMPDEST SWAP4 POP PUSH2 0x3EE DUP2 DUP6 PUSH1 0x20 DUP7 ADD PUSH2 0x320 JUMP JUMPDEST PUSH2 0x3F7 DUP2 PUSH2 0x348 JUMP JUMPDEST DUP5 ADD SWAP2 POP POP SWAP3 SWAP2 POP POP JUMP JUMPDEST PUSH0 PUSH1 0x20 DUP3 ADD SWAP1 POP DUP2 DUP2 SUB PUSH0 DUP4 ADD MSTORE PUSH2 0x41A DUP2 DUP5 PUSH2 0x3CA JUMP JUMPDEST SWAP1 POP SWAP3 SWAP2 POP POP JUMP JUMPDEST PUSH32 0x4E487B7100000000000000000000000000000000000000000000000000000000 PUSH0 MSTORE PUSH1 0x22 PUSH1 0x4 MSTORE PUSH1 0x24 PUSH0 REVERT JUMPDEST PUSH0 PUSH1 0x2 DUP3 DIV SWAP1 POP PUSH1 0x1 DUP3 AND DUP1 PUSH2 0x466 JUMPI PUSH1 0x7F DUP3 AND SWAP2 POP JUMPDEST PUSH1 0x20 DUP3 LT DUP2 SUB PUSH2 0x479 JUMPI PUSH2 0x478 PUSH2 0x422 JUMP JUMPDEST JUMPDEST POP SWAP2 SWAP1 POP JUMP INVALID LOG2 PUSH5 0x6970667358 0x22 SLT KECCAK256 0xD0 0xDB 0xF9 0xC4 0xAD PUSH9 0x5E8DD6D72AE97D0F5D CALLER 0xC5 PUSH20 0x783F5A005A5EA997BE14BD45EA8C64736F6C6343 STOP ADDMOD OR STOP CALLER "
				},
				"gasEstimates": {
					"creation": {
						"codeDepositCost": "241000",
						"executionCost": "infinite",
						"totalCost": "infinite"
					},
					"external": {
						"d()": "infinite",
						"move()": "2529",
						"myBytes()": "infinite",
						"number()": "infinite"
					}
				},
				"methodIdentifiers": {
					"d()": "8a054ac2",
					"move()": "3ec48a2e",
					"myBytes()": "712f4602",
					"number()": "8381f58a"
				}
			},
			"storageLayout": {
				"storage": [
					{
						"astId": 9,
						"contract": "contracts/Types.sol:Types",
						"label": "move",
						"offset": 0,
						"slot": "0",
						"type": "t_enum(Movemment)6"
					},
					{
						"astId": 12,
						"contract": "contracts/Types.sol:Types",
						"label": "d",
						"offset": 0,
						"slot": "1",
						"type": "t_string_storage"
					},
					{
						"astId": 15,
						"contract": "contracts/Types.sol:Types",
						"label": "myBytes",
						"offset": 0,
						"slot": "2",
						"type": "t_bytes_storage"
					},
					{
						"astId": 21,
						"contract": "contracts/Types.sol:Types",
						"label": "number",
						"offset": 0,
						"slot": "3",
						"type": "t_string_storage"
					}
				],
				"types": {
					"t_bytes_storage": {
						"encoding": "bytes",
						"label": "bytes",
						"numberOfBytes": "32"
					},
					"t_enum(Movemment)6": {
						"encoding": "inplace",
						"label": "enum Movemment",
						"numberOfBytes": "1"
					},
					"t_string_storage": {
						"encoding": "bytes",
						"label": "string",
						"numberOfBytes": "32"
					}
				}
			},
			"userdoc": {
				"kind": "user",
				"methods": {},
				"version": 1
			}
		}
	}
}