{
	"contracts/ERC20.sol": {
		"Ummantoken": {
			"abi": [
				{
					"inputs": [
						{
							"internalType": "address",
							"name": "defaultAdmin",
							"type": "address"
						},
						{
							"internalType": "address",
							"name": "minter",
							"type": "address"
						}
					],
					"stateMutability": "nonpayable",
					"type": "constructor"
				},
				{
					"inputs": [],
					"name": "AccessControlBadConfirmation",
					"type": "error"
				},
				{
					"inputs": [
						{
							"internalType": "address",
							"name": "account",
							"type": "address"
						},
						{
							"internalType": "bytes32",
							"name": "neededRole",
							"type": "bytes32"
						}
					],
					"name": "AccessControlUnauthorizedAccount",
					"type": "error"
				},
				{
					"inputs": [],
					"name": "ECDSAInvalidSignature",
					"type": "error"
				},
				{
					"inputs": [
						{
							"internalType": "uint256",
							"name": "length",
							"type": "uint256"
						}
					],
					"name": "ECDSAInvalidSignatureLength",
					"type": "error"
				},
				{
					"inputs": [
						{
							"internalType": "bytes32",
							"name": "s",
							"type": "bytes32"
						}
					],
					"name": "ECDSAInvalidSignatureS",
					"type": "error"
				},
				{
					"inputs": [
						{
							"internalType": "address",
							"name": "spender",
							"type": "address"
						},
						{
							"internalType": "uint256",
							"name": "allowance",
							"type": "uint256"
						},
						{
							"internalType": "uint256",
							"name": "needed",
							"type": "uint256"
						}
					],
					"name": "ERC20InsufficientAllowance",
					"type": "error"
				},
				{
					"inputs": [
						{
							"internalType": "address",
							"name": "sender",
							"type": "address"
						},
						{
							"internalType": "uint256",
							"name": "balance",
							"type": "uint256"
						},
						{
							"internalType": "uint256",
							"name": "needed",
							"type": "uint256"
						}
					],
					"name": "ERC20InsufficientBalance",
					"type": "error"
				},
				{
					"inputs": [
						{
							"internalType": "address",
							"name": "approver",
							"type": "address"
						}
					],
					"name": "ERC20InvalidApprover",
					"type": "error"
				},
				{
					"inputs": [
						{
							"internalType": "address",
							"name": "receiver",
							"type": "address"
						}
					],
					"name": "ERC20InvalidReceiver",
					"type": "error"
				},
				{
					"inputs": [
						{
							"internalType": "address",
							"name": "sender",
							"type": "address"
						}
					],
					"name": "ERC20InvalidSender",
					"type": "error"
				},
				{
					"inputs": [
						{
							"internalType": "address",
							"name": "spender",
							"type": "address"
						}
					],
					"name": "ERC20InvalidSpender",
					"type": "error"
				},
				{
					"inputs": [
						{
							"internalType": "uint256",
							"name": "deadline",
							"type": "uint256"
						}
					],
					"name": "ERC2612ExpiredSignature",
					"type": "error"
				},
				{
					"inputs": [
						{
							"internalType": "address",
							"name": "signer",
							"type": "address"
						},
						{
							"internalType": "address",
							"name": "owner",
							"type": "address"
						}
					],
					"name": "ERC2612InvalidSigner",
					"type": "error"
				},
				{
					"inputs": [
						{
							"internalType": "address",
							"name": "account",
							"type": "address"
						},
						{
							"internalType": "uint256",
							"name": "currentNonce",
							"type": "uint256"
						}
					],
					"name": "InvalidAccountNonce",
					"type": "error"
				},
				{
					"inputs": [],
					"name": "InvalidShortString",
					"type": "error"
				},
				{
					"inputs": [
						{
							"internalType": "string",
							"name": "str",
							"type": "string"
						}
					],
					"name": "StringTooLong",
					"type": "error"
				},
				{
					"anonymous": false,
					"inputs": [
						{
							"indexed": true,
							"internalType": "address",
							"name": "owner",
							"type": "address"
						},
						{
							"indexed": true,
							"internalType": "address",
							"name": "spender",
							"type": "address"
						},
						{
							"indexed": false,
							"internalType": "uint256",
							"name": "value",
							"type": "uint256"
						}
					],
					"name": "Approval",
					"type": "event"
				},
				{
					"anonymous": false,
					"inputs": [],
					"name": "EIP712DomainChanged",
					"type": "event"
				},
				{
					"anonymous": false,
					"inputs": [
						{
							"indexed": true,
							"internalType": "bytes32",
							"name": "role",
							"type": "bytes32"
						},
						{
							"indexed": true,
							"internalType": "bytes32",
							"name": "previousAdminRole",
							"type": "bytes32"
						},
						{
							"indexed": true,
							"internalType": "bytes32",
							"name": "newAdminRole",
							"type": "bytes32"
						}
					],
					"name": "RoleAdminChanged",
					"type": "event"
				},
				{
					"anonymous": false,
					"inputs": [
						{
							"indexed": true,
							"internalType": "bytes32",
							"name": "role",
							"type": "bytes32"
						},
						{
							"indexed": true,
							"internalType": "address",
							"name": "account",
							"type": "address"
						},
						{
							"indexed": true,
							"internalType": "address",
							"name": "sender",
							"type": "address"
						}
					],
					"name": "RoleGranted",
					"type": "event"
				},
				{
					"anonymous": false,
					"inputs": [
						{
							"indexed": true,
							"internalType": "bytes32",
							"name": "role",
							"type": "bytes32"
						},
						{
							"indexed": true,
							"internalType": "address",
							"name": "account",
							"type": "address"
						},
						{
							"indexed": true,
							"internalType": "address",
							"name": "sender",
							"type": "address"
						}
					],
					"name": "RoleRevoked",
					"type": "event"
				},
				{
					"anonymous": false,
					"inputs": [
						{
							"indexed": true,
							"internalType": "address",
							"name": "from",
							"type": "address"
						},
						{
							"indexed": true,
							"internalType": "address",
							"name": "to",
							"type": "address"
						},
						{
							"indexed": false,
							"internalType": "uint256",
							"name": "value",
							"type": "uint256"
						}
					],
					"name": "Transfer",
					"type": "event"
				},
				{
					"inputs": [],
					"name": "DEFAULT_ADMIN_ROLE",
					"outputs": [
						{
							"internalType": "bytes32",
							"name": "",
							"type": "bytes32"
						}
					],
					"stateMutability": "view",
					"type": "function"
				},
				{
					"inputs": [],
					"name": "DOMAIN_SEPARATOR",
					"outputs": [
						{
							"internalType": "bytes32",
							"name": "",
							"type": "bytes32"
						}
					],
					"stateMutability": "view",
					"type": "function"
				},
				{
					"inputs": [],
					"name": "MINTER_ROLE",
					"outputs": [
						{
							"internalType": "bytes32",
							"name": "",
							"type": "bytes32"
						}
					],
					"stateMutability": "view",
					"type": "function"
				},
				{
					"inputs": [
						{
							"internalType": "address",
							"name": "owner",
							"type": "address"
						},
						{
							"internalType": "address",
							"name": "spender",
							"type": "address"
						}
					],
					"name": "allowance",
					"outputs": [
						{
							"internalType": "uint256",
							"name": "",
							"type": "uint256"
						}
					],
					"stateMutability": "view",
					"type": "function"
				},
				{
					"inputs": [
						{
							"internalType": "address",
							"name": "spender",
							"type": "address"
						},
						{
							"internalType": "uint256",
							"name": "value",
							"type": "uint256"
						}
					],
					"name": "approve",
					"outputs": [
						{
							"internalType": "bool",
							"name": "",
							"type": "bool"
						}
					],
					"stateMutability": "nonpayable",
					"type": "function"
				},
				{
					"inputs": [
						{
							"internalType": "address",
							"name": "account",
							"type": "address"
						}
					],
					"name": "balanceOf",
					"outputs": [
						{
							"internalType": "uint256",
							"name": "",
							"type": "uint256"
						}
					],
					"stateMutability": "view",
					"type": "function"
				},
				{
					"inputs": [
						{
							"internalType": "uint256",
							"name": "value",
							"type": "uint256"
						}
					],
					"name": "burn",
					"outputs": [],
					"stateMutability": "nonpayable",
					"type": "function"
				},
				{
					"inputs": [
						{
							"internalType": "address",
							"name": "account",
							"type": "address"
						},
						{
							"internalType": "uint256",
							"name": "value",
							"type": "uint256"
						}
					],
					"name": "burnFrom",
					"outputs": [],
					"stateMutability": "nonpayable",
					"type": "function"
				},
				{
					"inputs": [],
					"name": "decimals",
					"outputs": [
						{
							"internalType": "uint8",
							"name": "",
							"type": "uint8"
						}
					],
					"stateMutability": "view",
					"type": "function"
				},
				{
					"inputs": [],
					"name": "eip712Domain",
					"outputs": [
						{
							"internalType": "bytes1",
							"name": "fields",
							"type": "bytes1"
						},
						{
							"internalType": "string",
							"name": "name",
							"type": "string"
						},
						{
							"internalType": "string",
							"name": "version",
							"type": "string"
						},
						{
							"internalType": "uint256",
							"name": "chainId",
							"type": "uint256"
						},
						{
							"internalType": "address",
							"name": "verifyingContract",
							"type": "address"
						},
						{
							"internalType": "bytes32",
							"name": "salt",
							"type": "bytes32"
						},
						{
							"internalType": "uint256[]",
							"name": "extensions",
							"type": "uint256[]"
						}
					],
					"stateMutability": "view",
					"type": "function"
				},
				{
					"inputs": [
						{
							"internalType": "bytes32",
							"name": "role",
							"type": "bytes32"
						}
					],
					"name": "getRoleAdmin",
					"outputs": [
						{
							"internalType": "bytes32",
							"name": "",
							"type": "bytes32"
						}
					],
					"stateMutability": "view",
					"type": "function"
				},
				{
					"inputs": [
						{
							"internalType": "bytes32",
							"name": "role",
							"type": "bytes32"
						},
						{
							"internalType": "address",
							"name": "account",
							"type": "address"
						}
					],
					"name": "grantRole",
					"outputs": [],
					"stateMutability": "nonpayable",
					"type": "function"
				},
				{
					"inputs": [
						{
							"internalType": "bytes32",
							"name": "role",
							"type": "bytes32"
						},
						{
							"internalType": "address",
							"name": "account",
							"type": "address"
						}
					],
					"name": "hasRole",
					"outputs": [
						{
							"internalType": "bool",
							"name": "",
							"type": "bool"
						}
					],
					"stateMutability": "view",
					"type": "function"
				},
				{
					"inputs": [
						{
							"internalType": "address",
							"name": "to",
							"type": "address"
						},
						{
							"internalType": "uint256",
							"name": "amount",
							"type": "uint256"
						}
					],
					"name": "mint",
					"outputs": [],
					"stateMutability": "nonpayable",
					"type": "function"
				},
				{
					"inputs": [],
					"name": "name",
					"outputs": [
						{
							"internalType": "string",
							"name": "",
							"type": "string"
						}
					],
					"stateMutability": "view",
					"type": "function"
				},
				{
					"inputs": [
						{
							"internalType": "address",
							"name": "owner",
							"type": "address"
						}
					],
					"name": "nonces",
					"outputs": [
						{
							"internalType": "uint256",
							"name": "",
							"type": "uint256"
						}
					],
					"stateMutability": "view",
					"type": "function"
				},
				{
					"inputs": [
						{
							"internalType": "address",
							"name": "owner",
							"type": "address"
						},
						{
							"internalType": "address",
							"name": "spender",
							"type": "address"
						},
						{
							"internalType": "uint256",
							"name": "value",
							"type": "uint256"
						},
						{
							"internalType": "uint256",
							"name": "deadline",
							"type": "uint256"
						},
						{
							"internalType": "uint8",
							"name": "v",
							"type": "uint8"
						},
						{
							"internalType": "bytes32",
							"name": "r",
							"type": "bytes32"
						},
						{
							"internalType": "bytes32",
							"name": "s",
							"type": "bytes32"
						}
					],
					"name": "permit",
					"outputs": [],
					"stateMutability": "nonpayable",
					"type": "function"
				},
				{
					"inputs": [
						{
							"internalType": "bytes32",
							"name": "role",
							"type": "bytes32"
						},
						{
							"internalType": "address",
							"name": "callerConfirmation",
							"type": "address"
						}
					],
					"name": "renounceRole",
					"outputs": [],
					"stateMutability": "nonpayable",
					"type": "function"
				},
				{
					"inputs": [
						{
							"internalType": "bytes32",
							"name": "role",
							"type": "bytes32"
						},
						{
							"internalType": "address",
							"name": "account",
							"type": "address"
						}
					],
					"name": "revokeRole",
					"outputs": [],
					"stateMutability": "nonpayable",
					"type": "function"
				},
				{
					"inputs": [
						{
							"internalType": "bytes4",
							"name": "interfaceId",
							"type": "bytes4"
						}
					],
					"name": "supportsInterface",
					"outputs": [
						{
							"internalType": "bool",
							"name": "",
							"type": "bool"
						}
					],
					"stateMutability": "view",
					"type": "function"
				},
				{
					"inputs": [],
					"name": "symbol",
					"outputs": [
						{
							"internalType": "string",
							"name": "",
							"type": "string"
						}
					],
					"stateMutability": "view",
					"type": "function"
				},
				{
					"inputs": [],
					"name": "totalSupply",
					"outputs": [
						{
							"internalType": "uint256",
							"name": "",
							"type": "uint256"
						}
					],
					"stateMutability": "view",
					"type": "function"
				},
				{
					"inputs": [
						{
							"internalType": "address",
							"name": "to",
							"type": "address"
						},
						{
							"internalType": "uint256",
							"name": "value",
							"type": "uint256"
						}
					],
					"name": "transfer",
					"outputs": [
						{
							"internalType": "bool",
							"name": "",
							"type": "bool"
						}
					],
					"stateMutability": "nonpayable",
					"type": "function"
				},
				{
					"inputs": [
						{
							"internalType": "address",
							"name": "from",
							"type": "address"
						},
						{
							"internalType": "address",
							"name": "to",
							"type": "address"
						},
						{
							"internalType": "uint256",
							"name": "value",
							"type": "uint256"
						}
					],
					"name": "transferFrom",
					"outputs": [
						{
							"internalType": "bool",
							"name": "",
							"type": "bool"
						}
					],
					"stateMutability": "nonpayable",
					"type": "function"
				}
			],
			"devdoc": {
				"custom:security-contact": "ummanmemmedov2005@gmail.com",
				"errors": {
					"AccessControlBadConfirmation()": [
						{
							"details": "The caller of a function is not the expected one. NOTE: Don't confuse with {AccessControlUnauthorizedAccount}."
						}
					],
					"AccessControlUnauthorizedAccount(address,bytes32)": [
						{
							"details": "The `account` is missing a role."
						}
					],
					"ECDSAInvalidSignature()": [
						{
							"details": "The signature derives the `address(0)`."
						}
					],
					"ECDSAInvalidSignatureLength(uint256)": [
						{
							"details": "The signature has an invalid length."
						}
					],
					"ECDSAInvalidSignatureS(bytes32)": [
						{
							"details": "The signature has an S value that is in the upper half order."
						}
					],
					"ERC20InsufficientAllowance(address,uint256,uint256)": [
						{
							"details": "Indicates a failure with the `spender`’s `allowance`. Used in transfers.",
							"params": {
								"allowance": "Amount of tokens a `spender` is allowed to operate with.",
								"needed": "Minimum amount required to perform a transfer.",
								"spender": "Address that may be allowed to operate on tokens without being their owner."
							}
						}
					],
					"ERC20InsufficientBalance(address,uint256,uint256)": [
						{
							"details": "Indicates an error related to the current `balance` of a `sender`. Used in transfers.",
							"params": {
								"balance": "Current balance for the interacting account.",
								"needed": "Minimum amount required to perform a transfer.",
								"sender": "Address whose tokens are being transferred."
							}
						}
					],
					"ERC20InvalidApprover(address)": [
						{
							"details": "Indicates a failure with the `approver` of a token to be approved. Used in approvals.",
							"params": {
								"approver": "Address initiating an approval operation."
							}
						}
					],
					"ERC20InvalidReceiver(address)": [
						{
							"details": "Indicates a failure with the token `receiver`. Used in transfers.",
							"params": {
								"receiver": "Address to which tokens are being transferred."
							}
						}
					],
					"ERC20InvalidSender(address)": [
						{
							"details": "Indicates a failure with the token `sender`. Used in transfers.",
							"params": {
								"sender": "Address whose tokens are being transferred."
							}
						}
					],
					"ERC20InvalidSpender(address)": [
						{
							"details": "Indicates a failure with the `spender` to be approved. Used in approvals.",
							"params": {
								"spender": "Address that may be allowed to operate on tokens without being their owner."
							}
						}
					],
					"ERC2612ExpiredSignature(uint256)": [
						{
							"details": "Permit deadline has expired."
						}
					],
					"ERC2612InvalidSigner(address,address)": [
						{
							"details": "Mismatched signature."
						}
					],
					"InvalidAccountNonce(address,uint256)": [
						{
							"details": "The nonce used for an `account` is not the expected current nonce."
						}
					]
				},
				"events": {
					"Approval(address,address,uint256)": {
						"details": "Emitted when the allowance of a `spender` for an `owner` is set by a call to {approve}. `value` is the new allowance."
					},
					"EIP712DomainChanged()": {
						"details": "MAY be emitted to signal that the domain could have changed."
					},
					"RoleAdminChanged(bytes32,bytes32,bytes32)": {
						"details": "Emitted when `newAdminRole` is set as ``role``'s admin role, replacing `previousAdminRole` `DEFAULT_ADMIN_ROLE` is the starting admin for all roles, despite {RoleAdminChanged} not being emitted signaling this."
					},
					"RoleGranted(bytes32,address,address)": {
						"details": "Emitted when `account` is granted `role`. `sender` is the account that originated the contract call, an admin role bearer except when using {AccessControl-_setupRole}."
					},
					"RoleRevoked(bytes32,address,address)": {
						"details": "Emitted when `account` is revoked `role`. `sender` is the account that originated the contract call:   - if using `revokeRole`, it is the admin role bearer   - if using `renounceRole`, it is the role bearer (i.e. `account`)"
					},
					"Transfer(address,address,uint256)": {
						"details": "Emitted when `value` tokens are moved from one account (`from`) to another (`to`). Note that `value` may be zero."
					}
				},
				"kind": "dev",
				"methods": {
					"DOMAIN_SEPARATOR()": {
						"details": "Returns the domain separator used in the encoding of the signature for {permit}, as defined by {EIP712}."
					},
					"allowance(address,address)": {
						"details": "See {IERC20-allowance}."
					},
					"approve(address,uint256)": {
						"details": "See {IERC20-approve}. NOTE: If `value` is the maximum `uint256`, the allowance is not updated on `transferFrom`. This is semantically equivalent to an infinite approval. Requirements: - `spender` cannot be the zero address."
					},
					"balanceOf(address)": {
						"details": "See {IERC20-balanceOf}."
					},
					"burn(uint256)": {
						"details": "Destroys a `value` amount of tokens from the caller. See {ERC20-_burn}."
					},
					"burnFrom(address,uint256)": {
						"details": "Destroys a `value` amount of tokens from `account`, deducting from the caller's allowance. See {ERC20-_burn} and {ERC20-allowance}. Requirements: - the caller must have allowance for ``accounts``'s tokens of at least `value`."
					},
					"decimals()": {
						"details": "Returns the number of decimals used to get its user representation. For example, if `decimals` equals `2`, a balance of `505` tokens should be displayed to a user as `5.05` (`505 / 10 ** 2`). Tokens usually opt for a value of 18, imitating the relationship between Ether and Wei. This is the default value returned by this function, unless it's overridden. NOTE: This information is only used for _display_ purposes: it in no way affects any of the arithmetic of the contract, including {IERC20-balanceOf} and {IERC20-transfer}."
					},
					"eip712Domain()": {
						"details": "See {IERC-5267}."
					},
					"getRoleAdmin(bytes32)": {
						"details": "Returns the admin role that controls `role`. See {grantRole} and {revokeRole}. To change a role's admin, use {_setRoleAdmin}."
					},
					"grantRole(bytes32,address)": {
						"details": "Grants `role` to `account`. If `account` had not been already granted `role`, emits a {RoleGranted} event. Requirements: - the caller must have ``role``'s admin role. May emit a {RoleGranted} event."
					},
					"hasRole(bytes32,address)": {
						"details": "Returns `true` if `account` has been granted `role`."
					},
					"name()": {
						"details": "Returns the name of the token."
					},
					"nonces(address)": {
						"details": "Returns the current nonce for `owner`. This value must be included whenever a signature is generated for {permit}. Every successful call to {permit} increases ``owner``'s nonce by one. This prevents a signature from being used multiple times."
					},
					"permit(address,address,uint256,uint256,uint8,bytes32,bytes32)": {
						"details": "Sets `value` as the allowance of `spender` over ``owner``'s tokens, given ``owner``'s signed approval. IMPORTANT: The same issues {IERC20-approve} has related to transaction ordering also apply here. Emits an {Approval} event. Requirements: - `spender` cannot be the zero address. - `deadline` must be a timestamp in the future. - `v`, `r` and `s` must be a valid `secp256k1` signature from `owner` over the EIP712-formatted function arguments. - the signature must use ``owner``'s current nonce (see {nonces}). For more information on the signature format, see the https://eips.ethereum.org/EIPS/eip-2612#specification[relevant EIP section]. CAUTION: See Security Considerations above."
					},
					"renounceRole(bytes32,address)": {
						"details": "Revokes `role` from the calling account. Roles are often managed via {grantRole} and {revokeRole}: this function's purpose is to provide a mechanism for accounts to lose their privileges if they are compromised (such as when a trusted device is misplaced). If the calling account had been revoked `role`, emits a {RoleRevoked} event. Requirements: - the caller must be `callerConfirmation`. May emit a {RoleRevoked} event."
					},
					"revokeRole(bytes32,address)": {
						"details": "Revokes `role` from `account`. If `account` had been granted `role`, emits a {RoleRevoked} event. Requirements: - the caller must have ``role``'s admin role. May emit a {RoleRevoked} event."
					},
					"supportsInterface(bytes4)": {
						"details": "See {IERC165-supportsInterface}."
					},
					"symbol()": {
						"details": "Returns the symbol of the token, usually a shorter version of the name."
					},
					"totalSupply()": {
						"details": "See {IERC20-totalSupply}."
					},
					"transfer(address,uint256)": {
						"details": "See {IERC20-transfer}. Requirements: - `to` cannot be the zero address. - the caller must have a balance of at least `value`."
					},
					"transferFrom(address,address,uint256)": {
						"details": "See {IERC20-transferFrom}. Emits an {Approval} event indicating the updated allowance. This is not required by the EIP. See the note at the beginning of {ERC20}. NOTE: Does not update the allowance if the current allowance is the maximum `uint256`. Requirements: - `from` and `to` cannot be the zero address. - `from` must have a balance of at least `value`. - the caller must have allowance for ``from``'s tokens of at least `value`."
					}
				},
				"version": 1
			},
			"evm": {
				"assembly": "    /* \"contracts/ERC20.sol\":388:940  contract Ummantoken is ERC20, ERC20Burnable, AccessControl, ERC20Permit {... */\n  mstore(0x40, 0x0160)\n    /* \"contracts/ERC20.sol\":538:822  constructor(address defaultAdmin, address minter)... */\n  callvalue\n  dup1\n  iszero\n  tag_1\n  jumpi\n  0x00\n  dup1\n  revert\ntag_1:\n  pop\n  mload(0x40)\n  sub(codesize, bytecodeSize)\n  dup1\n  bytecodeSize\n  dup4\n  codecopy\n  dup2\n  add\n  0x40\n  dup2\n  swap1\n  mstore\n  tag_2\n  swap2\n  tag_3\n  jump\t// in\ntag_2:\n    /* \"@openzeppelin/contracts/token/ERC20/extensions/ERC20Permit.sol\":1574:1626  constructor(string memory name) EIP712(name, \"1\") {} */\n  mload(0x40)\n  dup1\n  0x40\n  add\n  0x40\n  mstore\n  dup1\n  0x0a\n  dup2\n  mstore\n  0x20\n  add\n  shl(0xb1, 0x2ab6b6b0b73a37b5b2b7)\n  dup2\n  mstore\n  pop\n    /* \"@openzeppelin/contracts/token/ERC20/extensions/ERC20Permit.sol\":1613:1617  name */\n  dup1\n    /* \"@openzeppelin/contracts/utils/cryptography/EIP712.sol\":3328:3759  constructor(string memory name, string memory version) {... */\n  mload(0x40)\n  dup1\n  0x40\n  add\n  0x40\n  mstore\n  dup1\n  0x01\n  dup2\n  mstore\n  0x20\n  add\n  shl(0xf8, 0x31)\n  dup2\n  mstore\n  pop\n    /* \"@openzeppelin/contracts/token/ERC20/ERC20.sol\":1896:2009  constructor(string memory name_, string memory symbol_) {... */\n  mload(0x40)\n  dup1\n  0x40\n  add\n  0x40\n  mstore\n  dup1\n  0x0a\n  dup2\n  mstore\n  0x20\n  add\n  shl(0xb1, 0x2ab6b6b0b73a37b5b2b7)\n  dup2\n  mstore\n  pop\n  mload(0x40)\n  dup1\n  0x40\n  add\n  0x40\n  mstore\n  dup1\n  0x03\n  dup2\n  mstore\n  0x20\n  add\n  shl(0xe8, 0x55544b)\n  dup2\n  mstore\n  pop\n    /* \"@openzeppelin/contracts/token/ERC20/ERC20.sol\":1970:1975  name_ */\n  dup2\n    /* \"@openzeppelin/contracts/token/ERC20/ERC20.sol\":1962:1967  _name */\n  0x03\n    /* \"@openzeppelin/contracts/token/ERC20/ERC20.sol\":1962:1975  _name = name_ */\n  swap1\n  dup2\n  tag_9\n  swap2\n  swap1\n  tag_10\n  jump\t// in\ntag_9:\n  pop\n    /* \"@openzeppelin/contracts/token/ERC20/ERC20.sol\":1985:1992  _symbol */\n  0x04\n    /* \"@openzeppelin/contracts/token/ERC20/ERC20.sol\":1985:2002  _symbol = symbol_ */\n  tag_11\n    /* \"@openzeppelin/contracts/token/ERC20/ERC20.sol\":1995:2002  symbol_ */\n  dup3\n    /* \"@openzeppelin/contracts/token/ERC20/ERC20.sol\":1985:1992  _symbol */\n  dup3\n    /* \"@openzeppelin/contracts/token/ERC20/ERC20.sol\":1985:2002  _symbol = symbol_ */\n  tag_10\n  jump\t// in\ntag_11:\n  pop\n    /* \"@openzeppelin/contracts/utils/cryptography/EIP712.sol\":3401:3446  name.toShortStringWithFallback(_nameFallback) */\n  tag_13\n  swap2\n  pop\n    /* \"@openzeppelin/contracts/utils/cryptography/EIP712.sol\":3401:3405  name */\n  dup4\n  swap1\n  pop\n    /* \"@openzeppelin/contracts/utils/cryptography/EIP712.sol\":3432:3445  _nameFallback */\n  0x06\n    /* \"@openzeppelin/contracts/utils/cryptography/EIP712.sol\":3401:3431  name.toShortStringWithFallback */\n  tag_14\n    /* \"@openzeppelin/contracts/utils/cryptography/EIP712.sol\":3401:3446  name.toShortStringWithFallback(_nameFallback) */\n  jump\t// in\ntag_13:\n    /* \"@openzeppelin/contracts/utils/cryptography/EIP712.sol\":3393:3446  _name = name.toShortStringWithFallback(_nameFallback) */\n  0x0120\n  mstore\n    /* \"@openzeppelin/contracts/utils/cryptography/EIP712.sol\":3467:3518  version.toShortStringWithFallback(_versionFallback) */\n  tag_15\n    /* \"@openzeppelin/contracts/utils/cryptography/EIP712.sol\":3467:3474  version */\n  dup2\n    /* \"@openzeppelin/contracts/utils/cryptography/EIP712.sol\":3501:3517  _versionFallback */\n  0x07\n    /* \"@openzeppelin/contracts/utils/cryptography/EIP712.sol\":3467:3500  version.toShortStringWithFallback */\n  tag_14\n    /* \"@openzeppelin/contracts/utils/cryptography/EIP712.sol\":3467:3518  version.toShortStringWithFallback(_versionFallback) */\n  jump\t// in\ntag_15:\n    /* \"@openzeppelin/contracts/utils/cryptography/EIP712.sol\":3456:3518  _version = version.toShortStringWithFallback(_versionFallback) */\n  0x0140\n  mstore\n    /* \"@openzeppelin/contracts/utils/cryptography/EIP712.sol\":3542:3564  keccak256(bytes(name)) */\n  dup2\n  mload\n  0x20\n  dup1\n  dup5\n  add\n  swap2\n  swap1\n  swap2\n  keccak256\n    /* \"@openzeppelin/contracts/utils/cryptography/EIP712.sol\":3528:3564  _hashedName = keccak256(bytes(name)) */\n  0xe0\n  mstore\n    /* \"@openzeppelin/contracts/utils/cryptography/EIP712.sol\":3591:3616  keccak256(bytes(version)) */\n  dup2\n  mload\n  swap1\n  dup3\n  add\n  keccak256\n    /* \"@openzeppelin/contracts/utils/cryptography/EIP712.sol\":3574:3616  _hashedVersion = keccak256(bytes(version)) */\n  0x0100\n  mstore\n    /* \"@openzeppelin/contracts/utils/cryptography/EIP712.sol\":3644:3657  block.chainid */\n  chainid\n    /* \"@openzeppelin/contracts/utils/cryptography/EIP712.sol\":3627:3657  _cachedChainId = block.chainid */\n  0xa0\n  mstore\n    /* \"@openzeppelin/contracts/utils/cryptography/EIP712.sol\":3692:3715  _buildDomainSeparator() */\n  tag_16\n    /* \"@openzeppelin/contracts/utils/cryptography/EIP712.sol\":4226:4237  _hashedName */\n  mload(0xe0)\n    /* \"@openzeppelin/contracts/utils/cryptography/EIP712.sol\":4239:4253  _hashedVersion */\n  mload(0x0100)\n    /* \"@openzeppelin/contracts/utils/cryptography/EIP712.sol\":4204:4284  abi.encode(TYPE_HASH, _hashedName, _hashedVersion, block.chainid, address(this)) */\n  0x40\n  dup1\n  mload\n    /* \"@openzeppelin/contracts/utils/cryptography/EIP712.sol\":2079:2174  keccak256(\"EIP712Domain(string name,string version,uint256 chainId,address verifyingContract)\") */\n  0x8b73c3c69bb8fe3d512ecc4cf759cc79239f7b179b0ffacaa9a75d522b39400f\n    /* \"@openzeppelin/contracts/utils/cryptography/EIP712.sol\":4204:4284  abi.encode(TYPE_HASH, _hashedName, _hashedVersion, block.chainid, address(this)) */\n  0x20\n  dup3\n  add\n    /* \"#utility.yul\":5122:5147   */\n  mstore\n    /* \"#utility.yul\":5163:5181   */\n  swap1\n  dup2\n  add\n    /* \"#utility.yul\":5156:5190   */\n  swap3\n  swap1\n  swap3\n  mstore\n    /* \"#utility.yul\":5206:5224   */\n  0x60\n  dup3\n  add\n    /* \"#utility.yul\":5199:5233   */\n  mstore\n    /* \"@openzeppelin/contracts/utils/cryptography/EIP712.sol\":4255:4268  block.chainid */\n  chainid\n    /* \"#utility.yul\":5249:5267   */\n  0x80\n  dup3\n  add\n    /* \"#utility.yul\":5242:5276   */\n  mstore\n    /* \"@openzeppelin/contracts/utils/cryptography/EIP712.sol\":4278:4282  this */\n  address\n    /* \"#utility.yul\":5292:5311   */\n  0xa0\n  dup3\n  add\n    /* \"#utility.yul\":5285:5346   */\n  mstore\n    /* \"@openzeppelin/contracts/utils/cryptography/EIP712.sol\":4168:4175  bytes32 */\n  0x00\n  swap1\n    /* \"#utility.yul\":5094:5113   */\n  0xc0\n  add\n    /* \"@openzeppelin/contracts/utils/cryptography/EIP712.sol\":4204:4284  abi.encode(TYPE_HASH, _hashedName, _hashedVersion, block.chainid, address(this)) */\n  mload(0x40)\n  0x20\n  dup2\n  dup4\n  sub\n  sub\n  dup2\n  mstore\n  swap1\n  0x40\n  mstore\n    /* \"@openzeppelin/contracts/utils/cryptography/EIP712.sol\":4194:4285  keccak256(abi.encode(TYPE_HASH, _hashedName, _hashedVersion, block.chainid, address(this))) */\n  dup1\n  mload\n  swap1\n  0x20\n  add\n  keccak256\n    /* \"@openzeppelin/contracts/utils/cryptography/EIP712.sol\":4187:4285  return keccak256(abi.encode(TYPE_HASH, _hashedName, _hashedVersion, block.chainid, address(this))) */\n  swap1\n  pop\n    /* \"@openzeppelin/contracts/utils/cryptography/EIP712.sol\":4113:4292  function _buildDomainSeparator() private view returns (bytes32) {... */\n  swap1\n  jump\n    /* \"@openzeppelin/contracts/utils/cryptography/EIP712.sol\":3692:3715  _buildDomainSeparator() */\ntag_16:\n    /* \"@openzeppelin/contracts/utils/cryptography/EIP712.sol\":3667:3715  _cachedDomainSeparator = _buildDomainSeparator() */\n  0x80\n  mstore\n  pop\n  pop\n    /* \"@openzeppelin/contracts/utils/cryptography/EIP712.sol\":3747:3751  this */\n  address\n    /* \"@openzeppelin/contracts/utils/cryptography/EIP712.sol\":3725:3752  _cachedThis = address(this) */\n  0xc0\n  mstore\n  pop\n    /* \"contracts/ERC20.sol\":675:717  _mint(msg.sender, 1000 * 10 ** decimals()) */\n  tag_20\n    /* \"contracts/ERC20.sol\":681:691  msg.sender */\n  caller\n    /* \"contracts/ERC20.sol\":700:716  10 ** decimals() */\n  tag_23\n    /* \"@openzeppelin/contracts/token/ERC20/ERC20.sol\":3075:3077  18 */\n  0x12\n    /* \"contracts/ERC20.sol\":700:702  10 */\n  0x0a\n    /* \"contracts/ERC20.sol\":700:716  10 ** decimals() */\n  tag_24\n  jump\t// in\ntag_23:\n    /* \"contracts/ERC20.sol\":693:716  1000 * 10 ** decimals() */\n  tag_25\n  swap1\n    /* \"contracts/ERC20.sol\":693:697  1000 */\n  0x03e8\n    /* \"contracts/ERC20.sol\":693:716  1000 * 10 ** decimals() */\n  tag_26\n  jump\t// in\ntag_25:\n    /* \"contracts/ERC20.sol\":675:680  _mint */\n  tag_27\n    /* \"contracts/ERC20.sol\":675:717  _mint(msg.sender, 1000 * 10 ** decimals()) */\n  jump\t// in\ntag_20:\n    /* \"contracts/ERC20.sol\":728:772  _grantRole(DEFAULT_ADMIN_ROLE, defaultAdmin) */\n  tag_28\n    /* \"@openzeppelin/contracts/access/AccessControl.sol\":2232:2236  0x00 */\n  0x00\n    /* \"contracts/ERC20.sol\":759:771  defaultAdmin */\n  dup4\n    /* \"contracts/ERC20.sol\":728:738  _grantRole */\n  tag_29\n    /* \"contracts/ERC20.sol\":728:772  _grantRole(DEFAULT_ADMIN_ROLE, defaultAdmin) */\n  jump\t// in\ntag_28:\n  pop\n    /* \"contracts/ERC20.sol\":783:814  _grantRole(MINTER_ROLE, minter) */\n  tag_30\n    /* \"contracts/ERC20.sol\":505:529  keccak256(\"MINTER_ROLE\") */\n  0x9f2df0fed2c77648de5860a4cc508cd0818c85b8b8a1ab4ceeef8d981c8956a6\n    /* \"contracts/ERC20.sol\":807:813  minter */\n  dup3\n    /* \"contracts/ERC20.sol\":783:793  _grantRole */\n  tag_29\n    /* \"contracts/ERC20.sol\":783:814  _grantRole(MINTER_ROLE, minter) */\n  jump\t// in\ntag_30:\n  pop\n    /* \"contracts/ERC20.sol\":538:822  constructor(address defaultAdmin, address minter)... */\n  pop\n  pop\n    /* \"contracts/ERC20.sol\":388:940  contract Ummantoken is ERC20, ERC20Burnable, AccessControl, ERC20Permit {... */\n  jump(tag_87)\n    /* \"@openzeppelin/contracts/utils/ShortStrings.sol\":2914:3254  function toShortStringWithFallback(string memory value, string storage store) internal returns (ShortString) {... */\ntag_14:\n    /* \"@openzeppelin/contracts/utils/ShortStrings.sol\":3010:3021  ShortString */\n  0x00\n    /* \"@openzeppelin/contracts/utils/ShortStrings.sol\":3059:3061  32 */\n  0x20\n    /* \"@openzeppelin/contracts/utils/ShortStrings.sol\":3043:3048  value */\n  dup4\n    /* \"@openzeppelin/contracts/utils/ShortStrings.sol\":3037:3056  bytes(value).length */\n  mload\n    /* \"@openzeppelin/contracts/utils/ShortStrings.sol\":3037:3061  bytes(value).length < 32 */\n  lt\n    /* \"@openzeppelin/contracts/utils/ShortStrings.sol\":3033:3248  if (bytes(value).length < 32) {... */\n  iszero\n  tag_33\n  jumpi\n    /* \"@openzeppelin/contracts/utils/ShortStrings.sol\":3084:3104  toShortString(value) */\n  tag_34\n    /* \"@openzeppelin/contracts/utils/ShortStrings.sol\":3098:3103  value */\n  dup4\n    /* \"@openzeppelin/contracts/utils/ShortStrings.sol\":3084:3097  toShortString */\n  tag_35\n    /* \"@openzeppelin/contracts/utils/ShortStrings.sol\":3084:3104  toShortString(value) */\n  jump\t// in\ntag_34:\n    /* \"@openzeppelin/contracts/utils/ShortStrings.sol\":3077:3104  return toShortString(value) */\n  swap1\n  pop\n  jump(tag_36)\n    /* \"@openzeppelin/contracts/utils/ShortStrings.sol\":3033:3248  if (bytes(value).length < 32) {... */\ntag_33:\n    /* \"@openzeppelin/contracts/utils/ShortStrings.sol\":3161:3166  store */\n  dup2\n    /* \"@openzeppelin/contracts/utils/ShortStrings.sol\":3135:3181  StorageSlot.getStringSlot(store).value = value */\n  tag_39\n    /* \"@openzeppelin/contracts/utils/ShortStrings.sol\":3176:3181  value */\n  dup5\n    /* \"@openzeppelin/contracts/utils/ShortStrings.sol\":3161:3166  store */\n  dup3\n    /* \"@openzeppelin/contracts/utils/ShortStrings.sol\":3135:3181  StorageSlot.getStringSlot(store).value = value */\n  tag_10\n  jump\t// in\ntag_39:\n  pop\n    /* \"@openzeppelin/contracts/utils/ShortStrings.sol\":1390:1456  0x00000000000000000000000000000000000000000000000000000000000000FF */\n  0xff\n  swap1\n  pop\n    /* \"@openzeppelin/contracts/utils/ShortStrings.sol\":3033:3248  if (bytes(value).length < 32) {... */\ntag_36:\n    /* \"@openzeppelin/contracts/utils/ShortStrings.sol\":2914:3254  function toShortStringWithFallback(string memory value, string storage store) internal returns (ShortString) {... */\n  swap3\n  swap2\n  pop\n  pop\n  jump\t// out\n    /* \"@openzeppelin/contracts/token/ERC20/ERC20.sol\":7721:7929  function _mint(address account, uint256 value) internal {... */\ntag_27:\n  sub(shl(0xa0, 0x01), 0x01)\n    /* \"@openzeppelin/contracts/token/ERC20/ERC20.sol\":7791:7812  account == address(0) */\n  dup3\n  and\n    /* \"@openzeppelin/contracts/token/ERC20/ERC20.sol\":7787:7878  if (account == address(0)) {... */\n  tag_45\n  jumpi\n    /* \"@openzeppelin/contracts/token/ERC20/ERC20.sol\":7835:7867  ERC20InvalidReceiver(address(0)) */\n  mload(0x40)\n  shl(0xe0, 0xec442f05)\n  dup2\n  mstore\n    /* \"@openzeppelin/contracts/token/ERC20/ERC20.sol\":7864:7865  0 */\n  0x00\n    /* \"@openzeppelin/contracts/token/ERC20/ERC20.sol\":7835:7867  ERC20InvalidReceiver(address(0)) */\n  0x04\n  dup3\n  add\n    /* \"#utility.yul\":5503:5554   */\n  mstore\n    /* \"#utility.yul\":5476:5494   */\n  0x24\n  add\n    /* \"@openzeppelin/contracts/token/ERC20/ERC20.sol\":7835:7867  ERC20InvalidReceiver(address(0)) */\ntag_46:\n  mload(0x40)\n  dup1\n  swap2\n  sub\n  swap1\n  revert\n    /* \"@openzeppelin/contracts/token/ERC20/ERC20.sol\":7787:7878  if (account == address(0)) {... */\ntag_45:\n    /* \"@openzeppelin/contracts/token/ERC20/ERC20.sol\":7887:7922  _update(address(0), account, value) */\n  tag_48\n    /* \"@openzeppelin/contracts/token/ERC20/ERC20.sol\":7903:7904  0 */\n  0x00\n    /* \"@openzeppelin/contracts/token/ERC20/ERC20.sol\":7907:7914  account */\n  dup4\n    /* \"@openzeppelin/contracts/token/ERC20/ERC20.sol\":7916:7921  value */\n  dup4\n    /* \"@openzeppelin/contracts/token/ERC20/ERC20.sol\":7887:7894  _update */\n  tag_49\n    /* \"@openzeppelin/contracts/token/ERC20/ERC20.sol\":7887:7922  _update(address(0), account, value) */\n  jump\t// in\ntag_48:\n    /* \"@openzeppelin/contracts/token/ERC20/ERC20.sol\":7721:7929  function _mint(address account, uint256 value) internal {... */\n  pop\n  pop\n  jump\t// out\n    /* \"@openzeppelin/contracts/access/AccessControl.sol\":6179:6495  function _grantRole(bytes32 role, address account) internal virtual returns (bool) {... */\ntag_29:\n    /* \"@openzeppelin/contracts/access/AccessControl.sol\":6256:6260  bool */\n  0x00\n    /* \"@openzeppelin/contracts/access/AccessControl.sol\":2954:2966  _roles[role] */\n  dup3\n  dup2\n  mstore\n    /* \"@openzeppelin/contracts/access/AccessControl.sol\":2954:2960  _roles */\n  0x05\n    /* \"@openzeppelin/contracts/access/AccessControl.sol\":2954:2966  _roles[role] */\n  0x20\n  swap1\n  dup2\n  mstore\n  0x40\n  dup1\n  dup4\n  keccak256\n  sub(shl(0xa0, 0x01), 0x01)\n    /* \"@openzeppelin/contracts/access/AccessControl.sol\":2954:2983  _roles[role].hasRole[account] */\n  dup6\n  and\n  dup5\n  mstore\n  swap1\n  swap2\n  mstore\n  dup2\n  keccak256\n  sload\n  0xff\n  and\n    /* \"@openzeppelin/contracts/access/AccessControl.sol\":6272:6489  if (!hasRole(role, account)) {... */\n  tag_53\n  jumpi\n    /* \"@openzeppelin/contracts/access/AccessControl.sol\":6315:6327  _roles[role] */\n  0x00\n  dup4\n  dup2\n  mstore\n    /* \"@openzeppelin/contracts/access/AccessControl.sol\":6315:6321  _roles */\n  0x05\n    /* \"@openzeppelin/contracts/access/AccessControl.sol\":6315:6327  _roles[role] */\n  0x20\n  swap1\n  dup2\n  mstore\n  0x40\n  dup1\n  dup4\n  keccak256\n  sub(shl(0xa0, 0x01), 0x01)\n    /* \"@openzeppelin/contracts/access/AccessControl.sol\":6315:6344  _roles[role].hasRole[account] */\n  dup7\n  and\n  dup5\n  mstore\n  swap1\n  swap2\n  mstore\n  swap1\n  keccak256\n    /* \"@openzeppelin/contracts/access/AccessControl.sol\":6315:6351  _roles[role].hasRole[account] = true */\n  dup1\n  sload\n  not(0xff)\n  and\n    /* \"@openzeppelin/contracts/access/AccessControl.sol\":6347:6351  true */\n  0x01\n    /* \"@openzeppelin/contracts/access/AccessControl.sol\":6315:6351  _roles[role].hasRole[account] = true */\n  or\n  swap1\n  sstore\n    /* \"@openzeppelin/contracts/access/AccessControl.sol\":6397:6409  _msgSender() */\n  tag_54\n    /* \"@openzeppelin/contracts/utils/Context.sol\":735:745  msg.sender */\n  caller\n  swap1\n    /* \"@openzeppelin/contracts/utils/Context.sol\":656:752  function _msgSender() internal view virtual returns (address) {... */\n  jump\n    /* \"@openzeppelin/contracts/access/AccessControl.sol\":6397:6409  _msgSender() */\ntag_54:\n  sub(shl(0xa0, 0x01), 0x01)\n    /* \"@openzeppelin/contracts/access/AccessControl.sol\":6370:6410  RoleGranted(role, account, _msgSender()) */\n  and\n    /* \"@openzeppelin/contracts/access/AccessControl.sol\":6388:6395  account */\n  dup3\n  sub(shl(0xa0, 0x01), 0x01)\n    /* \"@openzeppelin/contracts/access/AccessControl.sol\":6370:6410  RoleGranted(role, account, _msgSender()) */\n  and\n    /* \"@openzeppelin/contracts/access/AccessControl.sol\":6382:6386  role */\n  dup5\n    /* \"@openzeppelin/contracts/access/AccessControl.sol\":6370:6410  RoleGranted(role, account, _msgSender()) */\n  0x2f8788117e7eff1d82e926ec794901d17c78024a50270940304540a733656f0d\n  mload(0x40)\n  mload(0x40)\n  dup1\n  swap2\n  sub\n  swap1\n  log4\n  pop\n    /* \"@openzeppelin/contracts/access/AccessControl.sol\":6431:6435  true */\n  0x01\n    /* \"@openzeppelin/contracts/access/AccessControl.sol\":6424:6435  return true */\n  jump(tag_36)\n    /* \"@openzeppelin/contracts/access/AccessControl.sol\":6272:6489  if (!hasRole(role, account)) {... */\ntag_53:\n  pop\n    /* \"@openzeppelin/contracts/access/AccessControl.sol\":6473:6478  false */\n  0x00\n    /* \"@openzeppelin/contracts/access/AccessControl.sol\":6466:6478  return false */\n  jump(tag_36)\n    /* \"@openzeppelin/contracts/utils/ShortStrings.sol\":1708:1994  function toShortString(string memory str) internal pure returns (ShortString) {... */\ntag_35:\n    /* \"@openzeppelin/contracts/utils/ShortStrings.sol\":1773:1784  ShortString */\n  0x00\n    /* \"@openzeppelin/contracts/utils/ShortStrings.sol\":1796:1813  bytes memory bstr */\n  dup1\n    /* \"@openzeppelin/contracts/utils/ShortStrings.sol\":1822:1825  str */\n  dup3\n    /* \"@openzeppelin/contracts/utils/ShortStrings.sol\":1796:1826  bytes memory bstr = bytes(str) */\n  swap1\n  pop\n    /* \"@openzeppelin/contracts/utils/ShortStrings.sol\":1854:1856  31 */\n  0x1f\n    /* \"@openzeppelin/contracts/utils/ShortStrings.sol\":1840:1844  bstr */\n  dup2\n    /* \"@openzeppelin/contracts/utils/ShortStrings.sol\":1840:1851  bstr.length */\n  mload\n    /* \"@openzeppelin/contracts/utils/ShortStrings.sol\":1840:1856  bstr.length > 31 */\n  gt\n    /* \"@openzeppelin/contracts/utils/ShortStrings.sol\":1836:1908  if (bstr.length > 31) {... */\n  iszero\n  tag_58\n  jumpi\n    /* \"@openzeppelin/contracts/utils/ShortStrings.sol\":1893:1896  str */\n  dup3\n    /* \"@openzeppelin/contracts/utils/ShortStrings.sol\":1879:1897  StringTooLong(str) */\n  mload(0x40)\n  shl(0xe0, 0x305a27a9)\n  dup2\n  mstore\n  0x04\n  add\n  tag_46\n  swap2\n  swap1\n  tag_60\n  jump\t// in\n    /* \"@openzeppelin/contracts/utils/ShortStrings.sol\":1836:1908  if (bstr.length > 31) {... */\ntag_58:\n    /* \"@openzeppelin/contracts/utils/ShortStrings.sol\":1974:1985  bstr.length */\n  dup1\n  mload\n    /* \"@openzeppelin/contracts/utils/ShortStrings.sol\":1957:1970  bytes32(bstr) */\n  tag_61\n    /* \"@openzeppelin/contracts/utils/ShortStrings.sol\":1974:1978  bstr */\n  dup3\n    /* \"@openzeppelin/contracts/utils/ShortStrings.sol\":1957:1970  bytes32(bstr) */\n  tag_62\n  jump\t// in\ntag_61:\n    /* \"@openzeppelin/contracts/utils/ShortStrings.sol\":1949:1985  uint256(bytes32(bstr)) | bstr.length */\n  or\n  swap4\n    /* \"@openzeppelin/contracts/utils/ShortStrings.sol\":1708:1994  function toShortString(string memory str) internal pure returns (ShortString) {... */\n  swap3\n  pop\n  pop\n  pop\n  jump\t// out\n    /* \"@openzeppelin/contracts/token/ERC20/ERC20.sol\":6271:7378  function _update(address from, address to, uint256 value) internal virtual {... */\ntag_49:\n  sub(shl(0xa0, 0x01), 0x01)\n    /* \"@openzeppelin/contracts/token/ERC20/ERC20.sol\":6360:6378  from == address(0) */\n  dup4\n  and\n    /* \"@openzeppelin/contracts/token/ERC20/ERC20.sol\":6356:6896  if (from == address(0)) {... */\n  tag_65\n  jumpi\n    /* \"@openzeppelin/contracts/token/ERC20/ERC20.sol\":6512:6517  value */\n  dup1\n    /* \"@openzeppelin/contracts/token/ERC20/ERC20.sol\":6496:6508  _totalSupply */\n  0x02\n  0x00\n    /* \"@openzeppelin/contracts/token/ERC20/ERC20.sol\":6496:6517  _totalSupply += value */\n  dup3\n  dup3\n  sload\n  tag_66\n  swap2\n  swap1\n  tag_67\n  jump\t// in\ntag_66:\n  swap1\n  swap2\n  sstore\n  pop\n    /* \"@openzeppelin/contracts/token/ERC20/ERC20.sol\":6356:6896  if (from == address(0)) {... */\n  tag_68\n  swap1\n  pop\n  jump\ntag_65:\n  sub(shl(0xa0, 0x01), 0x01)\n    /* \"@openzeppelin/contracts/token/ERC20/ERC20.sol\":6570:6585  _balances[from] */\n  dup4\n  and\n    /* \"@openzeppelin/contracts/token/ERC20/ERC20.sol\":6548:6567  uint256 fromBalance */\n  0x00\n    /* \"@openzeppelin/contracts/token/ERC20/ERC20.sol\":6570:6585  _balances[from] */\n  swap1\n  dup2\n  mstore\n  0x20\n  dup2\n  swap1\n  mstore\n  0x40\n  swap1\n  keccak256\n  sload\n    /* \"@openzeppelin/contracts/token/ERC20/ERC20.sol\":6603:6622  fromBalance < value */\n  dup2\n  dup2\n  lt\n    /* \"@openzeppelin/contracts/token/ERC20/ERC20.sol\":6599:6714  if (fromBalance < value) {... */\n  iszero\n  tag_69\n  jumpi\n    /* \"@openzeppelin/contracts/token/ERC20/ERC20.sol\":6649:6699  ERC20InsufficientBalance(from, fromBalance, value) */\n  mload(0x40)\n  shl(0xe2, 0x391434e3)\n  dup2\n  mstore\n  sub(shl(0xa0, 0x01), 0x01)\n    /* \"#utility.yul\":6770:6802   */\n  dup6\n  and\n    /* \"@openzeppelin/contracts/token/ERC20/ERC20.sol\":6649:6699  ERC20InsufficientBalance(from, fromBalance, value) */\n  0x04\n  dup3\n  add\n    /* \"#utility.yul\":6752:6803   */\n  mstore\n    /* \"#utility.yul\":6819:6837   */\n  0x24\n  dup2\n  add\n    /* \"#utility.yul\":6812:6846   */\n  dup3\n  swap1\n  mstore\n    /* \"#utility.yul\":6862:6880   */\n  0x44\n  dup2\n  add\n    /* \"#utility.yul\":6855:6889   */\n  dup4\n  swap1\n  mstore\n    /* \"#utility.yul\":6725:6743   */\n  0x64\n  add\n    /* \"@openzeppelin/contracts/token/ERC20/ERC20.sol\":6649:6699  ERC20InsufficientBalance(from, fromBalance, value) */\n  tag_46\n    /* \"#utility.yul\":6550:6895   */\n  jump\n    /* \"@openzeppelin/contracts/token/ERC20/ERC20.sol\":6599:6714  if (fromBalance < value) {... */\ntag_69:\n  sub(shl(0xa0, 0x01), 0x01)\n    /* \"@openzeppelin/contracts/token/ERC20/ERC20.sol\":6834:6849  _balances[from] */\n  dup5\n  and\n    /* \"@openzeppelin/contracts/token/ERC20/ERC20.sol\":6834:6843  _balances */\n  0x00\n    /* \"@openzeppelin/contracts/token/ERC20/ERC20.sol\":6834:6849  _balances[from] */\n  swap1\n  dup2\n  mstore\n  0x20\n  dup2\n  swap1\n  mstore\n  0x40\n  swap1\n  keccak256\n    /* \"@openzeppelin/contracts/token/ERC20/ERC20.sol\":6852:6871  fromBalance - value */\n  swap1\n  dup3\n  swap1\n  sub\n    /* \"@openzeppelin/contracts/token/ERC20/ERC20.sol\":6834:6871  _balances[from] = fromBalance - value */\n  swap1\n  sstore\n    /* \"@openzeppelin/contracts/token/ERC20/ERC20.sol\":6356:6896  if (from == address(0)) {... */\ntag_68:\n  sub(shl(0xa0, 0x01), 0x01)\n    /* \"@openzeppelin/contracts/token/ERC20/ERC20.sol\":6910:6926  to == address(0) */\n  dup3\n  and\n    /* \"@openzeppelin/contracts/token/ERC20/ERC20.sol\":6906:7331  if (to == address(0)) {... */\n  tag_72\n  jumpi\n    /* \"@openzeppelin/contracts/token/ERC20/ERC20.sol\":7073:7085  _totalSupply */\n  0x02\n    /* \"@openzeppelin/contracts/token/ERC20/ERC20.sol\":7073:7094  _totalSupply -= value */\n  dup1\n  sload\n  dup3\n  swap1\n  sub\n  swap1\n  sstore\n    /* \"@openzeppelin/contracts/token/ERC20/ERC20.sol\":6906:7331  if (to == address(0)) {... */\n  jump(tag_73)\ntag_72:\n  sub(shl(0xa0, 0x01), 0x01)\n    /* \"@openzeppelin/contracts/token/ERC20/ERC20.sol\":7284:7297  _balances[to] */\n  dup3\n  and\n    /* \"@openzeppelin/contracts/token/ERC20/ERC20.sol\":7284:7293  _balances */\n  0x00\n    /* \"@openzeppelin/contracts/token/ERC20/ERC20.sol\":7284:7297  _balances[to] */\n  swap1\n  dup2\n  mstore\n  0x20\n  dup2\n  swap1\n  mstore\n  0x40\n  swap1\n  keccak256\n    /* \"@openzeppelin/contracts/token/ERC20/ERC20.sol\":7284:7306  _balances[to] += value */\n  dup1\n  sload\n  dup3\n  add\n  swap1\n  sstore\n    /* \"@openzeppelin/contracts/token/ERC20/ERC20.sol\":6906:7331  if (to == address(0)) {... */\ntag_73:\n    /* \"@openzeppelin/contracts/token/ERC20/ERC20.sol\":7361:7363  to */\n  dup2\n  sub(shl(0xa0, 0x01), 0x01)\n    /* \"@openzeppelin/contracts/token/ERC20/ERC20.sol\":7346:7371  Transfer(from, to, value) */\n  and\n    /* \"@openzeppelin/contracts/token/ERC20/ERC20.sol\":7355:7359  from */\n  dup4\n  sub(shl(0xa0, 0x01), 0x01)\n    /* \"@openzeppelin/contracts/token/ERC20/ERC20.sol\":7346:7371  Transfer(from, to, value) */\n  and\n  0xddf252ad1be2c89b69c2b068fc378daa952ba7f163c4a11628f55a4df523b3ef\n    /* \"@openzeppelin/contracts/token/ERC20/ERC20.sol\":7365:7370  value */\n  dup4\n    /* \"@openzeppelin/contracts/token/ERC20/ERC20.sol\":7346:7371  Transfer(from, to, value) */\n  mload(0x40)\n  tag_74\n  swap2\n    /* \"#utility.yul\":7046:7071   */\n  dup2\n  mstore\n    /* \"#utility.yul\":7034:7036   */\n  0x20\n    /* \"#utility.yul\":7019:7037   */\n  add\n  swap1\n    /* \"#utility.yul\":6900:7077   */\n  jump\n    /* \"@openzeppelin/contracts/token/ERC20/ERC20.sol\":7346:7371  Transfer(from, to, value) */\ntag_74:\n  mload(0x40)\n  dup1\n  swap2\n  sub\n  swap1\n  log3\n    /* \"@openzeppelin/contracts/token/ERC20/ERC20.sol\":6271:7378  function _update(address from, address to, uint256 value) internal virtual {... */\n  pop\n  pop\n  pop\n  jump\t// out\n    /* \"#utility.yul\":14:191   */\ntag_78:\n    /* \"#utility.yul\":93:106   */\n  dup1\n  mload\n  sub(shl(0xa0, 0x01), 0x01)\n    /* \"#utility.yul\":135:166   */\n  dup2\n  and\n    /* \"#utility.yul\":125:167   */\n  dup2\n  eq\n    /* \"#utility.yul\":115:185   */\n  tag_89\n  jumpi\n    /* \"#utility.yul\":181:182   */\n  0x00\n    /* \"#utility.yul\":178:179   */\n  dup1\n    /* \"#utility.yul\":171:183   */\n  revert\n    /* \"#utility.yul\":115:185   */\ntag_89:\n    /* \"#utility.yul\":14:191   */\n  swap2\n  swap1\n  pop\n  jump\t// out\n    /* \"#utility.yul\":196:489   */\ntag_3:\n    /* \"#utility.yul\":275:281   */\n  0x00\n    /* \"#utility.yul\":283:289   */\n  dup1\n    /* \"#utility.yul\":336:338   */\n  0x40\n    /* \"#utility.yul\":324:333   */\n  dup4\n    /* \"#utility.yul\":315:322   */\n  dup6\n    /* \"#utility.yul\":311:334   */\n  sub\n    /* \"#utility.yul\":307:339   */\n  slt\n    /* \"#utility.yul\":304:356   */\n  iszero\n  tag_91\n  jumpi\n    /* \"#utility.yul\":352:353   */\n  0x00\n    /* \"#utility.yul\":349:350   */\n  dup1\n    /* \"#utility.yul\":342:354   */\n  revert\n    /* \"#utility.yul\":304:356   */\ntag_91:\n    /* \"#utility.yul\":375:415   */\n  tag_92\n    /* \"#utility.yul\":405:414   */\n  dup4\n    /* \"#utility.yul\":375:415   */\n  tag_78\n  jump\t// in\ntag_92:\n    /* \"#utility.yul\":365:415   */\n  swap2\n  pop\n    /* \"#utility.yul\":434:483   */\n  tag_93\n    /* \"#utility.yul\":479:481   */\n  0x20\n    /* \"#utility.yul\":468:477   */\n  dup5\n    /* \"#utility.yul\":464:482   */\n  add\n    /* \"#utility.yul\":434:483   */\n  tag_78\n  jump\t// in\ntag_93:\n    /* \"#utility.yul\":424:483   */\n  swap1\n  pop\n    /* \"#utility.yul\":196:489   */\n  swap3\n  pop\n  swap3\n  swap1\n  pop\n  jump\t// out\n    /* \"#utility.yul\":494:621   */\ntag_79:\n    /* \"#utility.yul\":555:565   */\n  0x4e487b71\n    /* \"#utility.yul\":550:553   */\n  0xe0\n    /* \"#utility.yul\":546:566   */\n  shl\n    /* \"#utility.yul\":543:544   */\n  0x00\n    /* \"#utility.yul\":536:567   */\n  mstore\n    /* \"#utility.yul\":586:590   */\n  0x41\n    /* \"#utility.yul\":583:584   */\n  0x04\n    /* \"#utility.yul\":576:591   */\n  mstore\n    /* \"#utility.yul\":610:614   */\n  0x24\n    /* \"#utility.yul\":607:608   */\n  0x00\n    /* \"#utility.yul\":600:615   */\n  revert\n    /* \"#utility.yul\":626:1006   */\ntag_80:\n    /* \"#utility.yul\":705:706   */\n  0x01\n    /* \"#utility.yul\":701:713   */\n  dup2\n  dup2\n  shr\n  swap1\n    /* \"#utility.yul\":748:760   */\n  dup3\n  and\n  dup1\n    /* \"#utility.yul\":769:830   */\n  tag_96\n  jumpi\n    /* \"#utility.yul\":823:827   */\n  0x7f\n    /* \"#utility.yul\":815:821   */\n  dup3\n    /* \"#utility.yul\":811:828   */\n  and\n    /* \"#utility.yul\":801:828   */\n  swap2\n  pop\n    /* \"#utility.yul\":769:830   */\ntag_96:\n    /* \"#utility.yul\":876:878   */\n  0x20\n    /* \"#utility.yul\":868:874   */\n  dup3\n    /* \"#utility.yul\":865:879   */\n  lt\n    /* \"#utility.yul\":845:863   */\n  dup2\n    /* \"#utility.yul\":842:880   */\n  sub\n    /* \"#utility.yul\":839:1000   */\n  tag_97\n  jumpi\n    /* \"#utility.yul\":922:932   */\n  0x4e487b71\n    /* \"#utility.yul\":917:920   */\n  0xe0\n    /* \"#utility.yul\":913:933   */\n  shl\n    /* \"#utility.yul\":910:911   */\n  0x00\n    /* \"#utility.yul\":903:934   */\n  mstore\n    /* \"#utility.yul\":957:961   */\n  0x22\n    /* \"#utility.yul\":954:955   */\n  0x04\n    /* \"#utility.yul\":947:962   */\n  mstore\n    /* \"#utility.yul\":985:989   */\n  0x24\n    /* \"#utility.yul\":982:983   */\n  0x00\n    /* \"#utility.yul\":975:990   */\n  revert\n    /* \"#utility.yul\":839:1000   */\ntag_97:\n  pop\n    /* \"#utility.yul\":626:1006   */\n  swap2\n  swap1\n  pop\n  jump\t// out\n    /* \"#utility.yul\":1137:1655   */\ntag_82:\n    /* \"#utility.yul\":1239:1241   */\n  0x1f\n    /* \"#utility.yul\":1234:1237   */\n  dup3\n    /* \"#utility.yul\":1231:1242   */\n  gt\n    /* \"#utility.yul\":1228:1649   */\n  iszero\n  tag_100\n  jumpi\n    /* \"#utility.yul\":1275:1280   */\n  dup1\n    /* \"#utility.yul\":1272:1273   */\n  0x00\n    /* \"#utility.yul\":1265:1281   */\n  mstore\n    /* \"#utility.yul\":1319:1323   */\n  0x20\n    /* \"#utility.yul\":1316:1317   */\n  0x00\n    /* \"#utility.yul\":1306:1324   */\n  keccak256\n    /* \"#utility.yul\":1389:1391   */\n  0x1f\n    /* \"#utility.yul\":1377:1387   */\n  dup5\n    /* \"#utility.yul\":1373:1392   */\n  add\n    /* \"#utility.yul\":1370:1371   */\n  0x05\n    /* \"#utility.yul\":1366:1393   */\n  shr\n    /* \"#utility.yul\":1360:1364   */\n  dup2\n    /* \"#utility.yul\":1356:1394   */\n  add\n    /* \"#utility.yul\":1425:1429   */\n  0x20\n    /* \"#utility.yul\":1413:1423   */\n  dup6\n    /* \"#utility.yul\":1410:1430   */\n  lt\n    /* \"#utility.yul\":1407:1454   */\n  iszero\n  tag_101\n  jumpi\n  pop\n    /* \"#utility.yul\":1448:1452   */\n  dup1\n    /* \"#utility.yul\":1407:1454   */\ntag_101:\n    /* \"#utility.yul\":1503:1505   */\n  0x1f\n    /* \"#utility.yul\":1498:1501   */\n  dup5\n    /* \"#utility.yul\":1494:1506   */\n  add\n    /* \"#utility.yul\":1491:1492   */\n  0x05\n    /* \"#utility.yul\":1487:1507   */\n  shr\n    /* \"#utility.yul\":1481:1485   */\n  dup3\n    /* \"#utility.yul\":1477:1508   */\n  add\n    /* \"#utility.yul\":1467:1508   */\n  swap2\n  pop\n    /* \"#utility.yul\":1558:1639   */\ntag_102:\n    /* \"#utility.yul\":1576:1578   */\n  dup2\n    /* \"#utility.yul\":1569:1574   */\n  dup2\n    /* \"#utility.yul\":1566:1579   */\n  lt\n    /* \"#utility.yul\":1558:1639   */\n  iszero\n  tag_104\n  jumpi\n    /* \"#utility.yul\":1635:1636   */\n  0x00\n    /* \"#utility.yul\":1621:1637   */\n  dup2\n  sstore\n    /* \"#utility.yul\":1602:1603   */\n  0x01\n    /* \"#utility.yul\":1591:1604   */\n  add\n    /* \"#utility.yul\":1558:1639   */\n  jump(tag_102)\ntag_104:\n    /* \"#utility.yul\":1562:1565   */\n  pop\n  pop\n    /* \"#utility.yul\":1228:1649   */\ntag_100:\n    /* \"#utility.yul\":1137:1655   */\n  pop\n  pop\n  pop\n  jump\t// out\n    /* \"#utility.yul\":1831:3176   */\ntag_10:\n    /* \"#utility.yul\":1951:1961   */\n  dup2\n  mload\n  sub(shl(0x40, 0x01), 0x01)\n    /* \"#utility.yul\":1973:2003   */\n  dup2\n  gt\n    /* \"#utility.yul\":1970:2026   */\n  iszero\n  tag_108\n  jumpi\n    /* \"#utility.yul\":2006:2024   */\n  tag_108\n  tag_79\n  jump\t// in\ntag_108:\n    /* \"#utility.yul\":2035:2132   */\n  tag_109\n    /* \"#utility.yul\":2125:2131   */\n  dup2\n    /* \"#utility.yul\":2085:2123   */\n  tag_110\n    /* \"#utility.yul\":2117:2121   */\n  dup5\n    /* \"#utility.yul\":2111:2122   */\n  sload\n    /* \"#utility.yul\":2085:2123   */\n  tag_80\n  jump\t// in\ntag_110:\n    /* \"#utility.yul\":2079:2083   */\n  dup5\n    /* \"#utility.yul\":2035:2132   */\n  tag_82\n  jump\t// in\ntag_109:\n    /* \"#utility.yul\":2187:2191   */\n  0x20\n  dup1\n    /* \"#utility.yul\":2244:2246   */\n  0x1f\n    /* \"#utility.yul\":2233:2247   */\n  dup4\n  gt\n    /* \"#utility.yul\":2261:2262   */\n  0x01\n    /* \"#utility.yul\":2256:2919   */\n  dup2\n  eq\n  tag_112\n  jumpi\n    /* \"#utility.yul\":2963:2964   */\n  0x00\n    /* \"#utility.yul\":2980:2986   */\n  dup5\n    /* \"#utility.yul\":2977:3066   */\n  iszero\n  tag_113\n  jumpi\n  pop\n    /* \"#utility.yul\":3032:3051   */\n  dup6\n  dup4\n  add\n    /* \"#utility.yul\":3026:3052   */\n  mload\n    /* \"#utility.yul\":2977:3066   */\ntag_113:\n  not(0x00)\n    /* \"#utility.yul\":1788:1789   */\n  0x03\n    /* \"#utility.yul\":1784:1795   */\n  dup7\n  swap1\n  shl\n    /* \"#utility.yul\":1780:1804   */\n  shr\n    /* \"#utility.yul\":1776:1805   */\n  not\n    /* \"#utility.yul\":1766:1806   */\n  and\n    /* \"#utility.yul\":1812:1813   */\n  0x01\n    /* \"#utility.yul\":1808:1819   */\n  dup6\n  swap1\n  shl\n    /* \"#utility.yul\":1763:1820   */\n  or\n    /* \"#utility.yul\":3079:3160   */\n  dup6\n  sstore\n    /* \"#utility.yul\":2226:3170   */\n  jump(tag_111)\n    /* \"#utility.yul\":2256:2919   */\ntag_112:\n    /* \"#utility.yul\":1084:1085   */\n  0x00\n    /* \"#utility.yul\":1077:1091   */\n  dup6\n  dup2\n  mstore\n    /* \"#utility.yul\":1121:1125   */\n  0x20\n    /* \"#utility.yul\":1108:1126   */\n  dup2\n  keccak256\n  not(0x1f)\n    /* \"#utility.yul\":2292:2312   */\n  dup7\n  and\n  swap2\n    /* \"#utility.yul\":2410:2646   */\ntag_116:\n    /* \"#utility.yul\":2424:2431   */\n  dup3\n    /* \"#utility.yul\":2421:2422   */\n  dup2\n    /* \"#utility.yul\":2418:2432   */\n  lt\n    /* \"#utility.yul\":2410:2646   */\n  iszero\n  tag_118\n  jumpi\n    /* \"#utility.yul\":2513:2532   */\n  dup9\n  dup7\n  add\n    /* \"#utility.yul\":2507:2533   */\n  mload\n    /* \"#utility.yul\":2492:2534   */\n  dup3\n  sstore\n    /* \"#utility.yul\":2605:2632   */\n  swap5\n  dup5\n  add\n  swap5\n    /* \"#utility.yul\":2573:2574   */\n  0x01\n    /* \"#utility.yul\":2561:2575   */\n  swap1\n  swap2\n  add\n  swap1\n    /* \"#utility.yul\":2440:2459   */\n  dup5\n  add\n    /* \"#utility.yul\":2410:2646   */\n  jump(tag_116)\ntag_118:\n    /* \"#utility.yul\":2414:2417   */\n  pop\n    /* \"#utility.yul\":2674:2680   */\n  dup6\n    /* \"#utility.yul\":2665:2672   */\n  dup3\n    /* \"#utility.yul\":2662:2681   */\n  lt\n    /* \"#utility.yul\":2659:2860   */\n  iszero\n  tag_119\n  jumpi\n    /* \"#utility.yul\":2735:2754   */\n  dup8\n  dup6\n  add\n    /* \"#utility.yul\":2729:2755   */\n  mload\n  not(0x00)\n    /* \"#utility.yul\":2818:2819   */\n  0x03\n    /* \"#utility.yul\":2814:2828   */\n  dup9\n  swap1\n  shl\n    /* \"#utility.yul\":2830:2833   */\n  0xf8\n    /* \"#utility.yul\":2810:2834   */\n  and\n    /* \"#utility.yul\":2806:2843   */\n  shr\n    /* \"#utility.yul\":2802:2844   */\n  not\n    /* \"#utility.yul\":2787:2845   */\n  and\n    /* \"#utility.yul\":2772:2846   */\n  dup2\n  sstore\n    /* \"#utility.yul\":2659:2860   */\ntag_119:\n  pop\n  pop\n    /* \"#utility.yul\":2906:2907   */\n  0x01\n    /* \"#utility.yul\":2897:2903   */\n  dup5\n    /* \"#utility.yul\":2894:2895   */\n  0x01\n    /* \"#utility.yul\":2890:2904   */\n  shl\n    /* \"#utility.yul\":2886:2908   */\n  add\n    /* \"#utility.yul\":2880:2884   */\n  dup6\n    /* \"#utility.yul\":2873:2909   */\n  sstore\n    /* \"#utility.yul\":2226:3170   */\ntag_111:\n  pop\n  pop\n  pop\n  pop\n    /* \"#utility.yul\":1831:3176   */\n  pop\n  pop\n  jump\t// out\n    /* \"#utility.yul\":3181:3308   */\ntag_84:\n    /* \"#utility.yul\":3242:3252   */\n  0x4e487b71\n    /* \"#utility.yul\":3237:3240   */\n  0xe0\n    /* \"#utility.yul\":3233:3253   */\n  shl\n    /* \"#utility.yul\":3230:3231   */\n  0x00\n    /* \"#utility.yul\":3223:3254   */\n  mstore\n    /* \"#utility.yul\":3273:3277   */\n  0x11\n    /* \"#utility.yul\":3270:3271   */\n  0x04\n    /* \"#utility.yul\":3263:3278   */\n  mstore\n    /* \"#utility.yul\":3297:3301   */\n  0x24\n    /* \"#utility.yul\":3294:3295   */\n  0x00\n    /* \"#utility.yul\":3287:3302   */\n  revert\n    /* \"#utility.yul\":3313:3729   */\ntag_85:\n    /* \"#utility.yul\":3402:3403   */\n  0x01\n    /* \"#utility.yul\":3439:3444   */\n  dup2\n    /* \"#utility.yul\":3402:3403   */\n  dup2\n    /* \"#utility.yul\":3453:3723   */\ntag_122:\n    /* \"#utility.yul\":3474:3481   */\n  dup1\n    /* \"#utility.yul\":3464:3472   */\n  dup6\n    /* \"#utility.yul\":3461:3482   */\n  gt\n    /* \"#utility.yul\":3453:3723   */\n  iszero\n  tag_124\n  jumpi\n    /* \"#utility.yul\":3533:3537   */\n  dup2\n    /* \"#utility.yul\":3529:3530   */\n  0x00\n    /* \"#utility.yul\":3525:3531   */\n  not\n    /* \"#utility.yul\":3521:3538   */\n  div\n    /* \"#utility.yul\":3515:3519   */\n  dup3\n    /* \"#utility.yul\":3512:3539   */\n  gt\n    /* \"#utility.yul\":3509:3562   */\n  iszero\n  tag_126\n  jumpi\n    /* \"#utility.yul\":3542:3560   */\n  tag_126\n  tag_84\n  jump\t// in\ntag_126:\n    /* \"#utility.yul\":3592:3599   */\n  dup1\n    /* \"#utility.yul\":3582:3590   */\n  dup6\n    /* \"#utility.yul\":3578:3600   */\n  and\n    /* \"#utility.yul\":3575:3630   */\n  iszero\n  tag_127\n  jumpi\n    /* \"#utility.yul\":3612:3628   */\n  swap2\n  dup2\n  mul\n  swap2\n    /* \"#utility.yul\":3575:3630   */\ntag_127:\n    /* \"#utility.yul\":3691:3713   */\n  swap4\n  dup5\n  shr\n  swap4\n    /* \"#utility.yul\":3651:3666   */\n  swap1\n  dup1\n  mul\n  swap1\n    /* \"#utility.yul\":3453:3723   */\n  jump(tag_122)\ntag_124:\n    /* \"#utility.yul\":3457:3460   */\n  pop\n    /* \"#utility.yul\":3313:3729   */\n  swap3\n  pop\n  swap3\n  swap1\n  pop\n  jump\t// out\n    /* \"#utility.yul\":3734:4540   */\ntag_86:\n    /* \"#utility.yul\":3783:3788   */\n  0x00\n    /* \"#utility.yul\":3813:3821   */\n  dup3\n    /* \"#utility.yul\":3803:3883   */\n  tag_129\n  jumpi\n  pop\n    /* \"#utility.yul\":3854:3855   */\n  0x01\n    /* \"#utility.yul\":3868:3873   */\n  jump(tag_36)\n    /* \"#utility.yul\":3803:3883   */\ntag_129:\n    /* \"#utility.yul\":3902:3906   */\n  dup2\n    /* \"#utility.yul\":3892:3968   */\n  tag_130\n  jumpi\n  pop\n    /* \"#utility.yul\":3939:3940   */\n  0x00\n    /* \"#utility.yul\":3953:3958   */\n  jump(tag_36)\n    /* \"#utility.yul\":3892:3968   */\ntag_130:\n    /* \"#utility.yul\":3984:3988   */\n  dup2\n    /* \"#utility.yul\":4002:4003   */\n  0x01\n    /* \"#utility.yul\":3997:4056   */\n  dup2\n  eq\n  tag_132\n  jumpi\n    /* \"#utility.yul\":4070:4071   */\n  0x02\n    /* \"#utility.yul\":4065:4195   */\n  dup2\n  eq\n  tag_133\n  jumpi\n    /* \"#utility.yul\":3977:4195   */\n  jump(tag_131)\n    /* \"#utility.yul\":3997:4056   */\ntag_132:\n    /* \"#utility.yul\":4027:4028   */\n  0x01\n    /* \"#utility.yul\":4018:4028   */\n  swap2\n  pop\n    /* \"#utility.yul\":4041:4046   */\n  pop\n  jump(tag_36)\n    /* \"#utility.yul\":4065:4195   */\ntag_133:\n    /* \"#utility.yul\":4102:4105   */\n  0xff\n    /* \"#utility.yul\":4092:4100   */\n  dup5\n    /* \"#utility.yul\":4089:4106   */\n  gt\n    /* \"#utility.yul\":4086:4129   */\n  iszero\n  tag_135\n  jumpi\n    /* \"#utility.yul\":4109:4127   */\n  tag_135\n  tag_84\n  jump\t// in\ntag_135:\n  pop\n  pop\n    /* \"#utility.yul\":4165:4166   */\n  0x01\n    /* \"#utility.yul\":4151:4167   */\n  dup3\n  shl\n    /* \"#utility.yul\":4180:4185   */\n  jump(tag_36)\n    /* \"#utility.yul\":3977:4195   */\ntag_131:\n  pop\n    /* \"#utility.yul\":4279:4281   */\n  0x20\n    /* \"#utility.yul\":4269:4277   */\n  dup4\n    /* \"#utility.yul\":4266:4282   */\n  lt\n    /* \"#utility.yul\":4260:4263   */\n  0x0133\n    /* \"#utility.yul\":4254:4258   */\n  dup4\n    /* \"#utility.yul\":4251:4264   */\n  lt\n    /* \"#utility.yul\":4247:4283   */\n  and\n    /* \"#utility.yul\":4241:4243   */\n  0x4e\n    /* \"#utility.yul\":4231:4239   */\n  dup5\n    /* \"#utility.yul\":4228:4244   */\n  lt\n    /* \"#utility.yul\":4223:4225   */\n  0x0b\n    /* \"#utility.yul\":4217:4221   */\n  dup5\n    /* \"#utility.yul\":4214:4226   */\n  lt\n    /* \"#utility.yul\":4210:4245   */\n  and\n    /* \"#utility.yul\":4207:4284   */\n  or\n    /* \"#utility.yul\":4204:4363   */\n  iszero\n  tag_136\n  jumpi\n  pop\n    /* \"#utility.yul\":4316:4335   */\n  dup2\n  dup2\n  exp\n    /* \"#utility.yul\":4348:4353   */\n  jump(tag_36)\n    /* \"#utility.yul\":4204:4363   */\ntag_136:\n    /* \"#utility.yul\":4395:4429   */\n  tag_137\n    /* \"#utility.yul\":4420:4428   */\n  dup4\n    /* \"#utility.yul\":4414:4418   */\n  dup4\n    /* \"#utility.yul\":4395:4429   */\n  tag_85\n  jump\t// in\ntag_137:\n    /* \"#utility.yul\":4465:4471   */\n  dup1\n    /* \"#utility.yul\":4461:4462   */\n  0x00\n    /* \"#utility.yul\":4457:4463   */\n  not\n    /* \"#utility.yul\":4453:4472   */\n  div\n    /* \"#utility.yul\":4444:4451   */\n  dup3\n    /* \"#utility.yul\":4441:4473   */\n  gt\n    /* \"#utility.yul\":4438:4496   */\n  iszero\n  tag_139\n  jumpi\n    /* \"#utility.yul\":4476:4494   */\n  tag_139\n  tag_84\n  jump\t// in\ntag_139:\n    /* \"#utility.yul\":4514:4534   */\n  mul\n  swap4\n    /* \"#utility.yul\":3734:4540   */\n  swap3\n  pop\n  pop\n  pop\n  jump\t// out\n    /* \"#utility.yul\":4545:4685   */\ntag_24:\n    /* \"#utility.yul\":4603:4608   */\n  0x00\n    /* \"#utility.yul\":4632:4679   */\n  tag_141\n    /* \"#utility.yul\":4673:4677   */\n  0xff\n    /* \"#utility.yul\":4663:4671   */\n  dup5\n    /* \"#utility.yul\":4659:4678   */\n  and\n    /* \"#utility.yul\":4653:4657   */\n  dup4\n    /* \"#utility.yul\":4632:4679   */\n  tag_86\n  jump\t// in\ntag_141:\n    /* \"#utility.yul\":4623:4679   */\n  swap4\n    /* \"#utility.yul\":4545:4685   */\n  swap3\n  pop\n  pop\n  pop\n  jump\t// out\n    /* \"#utility.yul\":4690:4858   */\ntag_26:\n    /* \"#utility.yul\":4763:4772   */\n  dup1\n  dup3\n  mul\n    /* \"#utility.yul\":4794:4803   */\n  dup2\n  iszero\n    /* \"#utility.yul\":4811:4826   */\n  dup3\n  dup3\n  div\n    /* \"#utility.yul\":4805:4827   */\n  dup5\n  eq\n    /* \"#utility.yul\":4791:4828   */\n  or\n    /* \"#utility.yul\":4781:4852   */\n  tag_36\n  jumpi\n    /* \"#utility.yul\":4832:4850   */\n  tag_36\n  tag_84\n  jump\t// in\n    /* \"#utility.yul\":5565:6113   */\ntag_60:\n    /* \"#utility.yul\":5677:5681   */\n  0x00\n    /* \"#utility.yul\":5706:5708   */\n  0x20\n    /* \"#utility.yul\":5735:5737   */\n  dup1\n    /* \"#utility.yul\":5724:5733   */\n  dup4\n    /* \"#utility.yul\":5717:5738   */\n  mstore\n    /* \"#utility.yul\":5767:5773   */\n  dup4\n    /* \"#utility.yul\":5761:5774   */\n  mload\n    /* \"#utility.yul\":5810:5816   */\n  dup1\n    /* \"#utility.yul\":5805:5807   */\n  0x20\n    /* \"#utility.yul\":5794:5803   */\n  dup6\n    /* \"#utility.yul\":5790:5808   */\n  add\n    /* \"#utility.yul\":5783:5817   */\n  mstore\n    /* \"#utility.yul\":5835:5836   */\n  0x00\n    /* \"#utility.yul\":5845:5985   */\ntag_148:\n    /* \"#utility.yul\":5859:5865   */\n  dup2\n    /* \"#utility.yul\":5856:5857   */\n  dup2\n    /* \"#utility.yul\":5853:5866   */\n  lt\n    /* \"#utility.yul\":5845:5985   */\n  iszero\n  tag_150\n  jumpi\n    /* \"#utility.yul\":5954:5968   */\n  dup6\n  dup2\n  add\n    /* \"#utility.yul\":5950:5973   */\n  dup4\n  add\n    /* \"#utility.yul\":5944:5974   */\n  mload\n    /* \"#utility.yul\":5920:5937   */\n  dup6\n  dup3\n  add\n    /* \"#utility.yul\":5939:5941   */\n  0x40\n    /* \"#utility.yul\":5916:5942   */\n  add\n    /* \"#utility.yul\":5909:5975   */\n  mstore\n    /* \"#utility.yul\":5874:5884   */\n  dup3\n  add\n    /* \"#utility.yul\":5845:5985   */\n  jump(tag_148)\ntag_150:\n    /* \"#utility.yul\":5849:5852   */\n  pop\n    /* \"#utility.yul\":6034:6035   */\n  0x00\n    /* \"#utility.yul\":6029:6031   */\n  0x40\n    /* \"#utility.yul\":6020:6026   */\n  dup3\n    /* \"#utility.yul\":6009:6018   */\n  dup7\n    /* \"#utility.yul\":6005:6027   */\n  add\n    /* \"#utility.yul\":6001:6032   */\n  add\n    /* \"#utility.yul\":5994:6036   */\n  mstore\n    /* \"#utility.yul\":6104:6106   */\n  0x40\n    /* \"#utility.yul\":6097:6099   */\n  0x1f\n    /* \"#utility.yul\":6093:6100   */\n  not\n    /* \"#utility.yul\":6088:6090   */\n  0x1f\n    /* \"#utility.yul\":6080:6086   */\n  dup4\n    /* \"#utility.yul\":6076:6091   */\n  add\n    /* \"#utility.yul\":6072:6101   */\n  and\n    /* \"#utility.yul\":6061:6070   */\n  dup6\n    /* \"#utility.yul\":6057:6102   */\n  add\n    /* \"#utility.yul\":6053:6107   */\n  add\n    /* \"#utility.yul\":6045:6107   */\n  swap3\n  pop\n  pop\n  pop\n    /* \"#utility.yul\":5565:6113   */\n  swap3\n  swap2\n  pop\n  pop\n  jump\t// out\n    /* \"#utility.yul\":6118:6415   */\ntag_62:\n    /* \"#utility.yul\":6236:6248   */\n  dup1\n  mload\n    /* \"#utility.yul\":6283:6287   */\n  0x20\n    /* \"#utility.yul\":6272:6288   */\n  dup1\n  dup4\n  add\n    /* \"#utility.yul\":6266:6289   */\n  mload\n  swap2\n    /* \"#utility.yul\":6236:6248   */\n  swap1\n    /* \"#utility.yul\":6301:6317   */\n  dup2\n  lt\n    /* \"#utility.yul\":6298:6409   */\n  iszero\n  tag_97\n  jumpi\n  not(0x00)\n    /* \"#utility.yul\":6375:6379   */\n  0x20\n    /* \"#utility.yul\":6371:6388   */\n  swap2\n  swap1\n  swap2\n  sub\n    /* \"#utility.yul\":6368:6369   */\n  0x03\n    /* \"#utility.yul\":6364:6389   */\n  shl\n    /* \"#utility.yul\":6360:6398   */\n  shl\n    /* \"#utility.yul\":6349:6399   */\n  and\n  swap2\n    /* \"#utility.yul\":6118:6415   */\n  swap1\n  pop\n  jump\t// out\n    /* \"#utility.yul\":6420:6545   */\ntag_67:\n    /* \"#utility.yul\":6485:6494   */\n  dup1\n  dup3\n  add\n    /* \"#utility.yul\":6506:6516   */\n  dup1\n  dup3\n  gt\n    /* \"#utility.yul\":6503:6539   */\n  iszero\n  tag_36\n  jumpi\n    /* \"#utility.yul\":6519:6537   */\n  tag_36\n  tag_84\n  jump\t// in\n    /* \"#utility.yul\":6900:7077   */\ntag_87:\n    /* \"contracts/ERC20.sol\":388:940  contract Ummantoken is ERC20, ERC20Burnable, AccessControl, ERC20Permit {... */\n  mload(0x80)\n  mload(0xa0)\n  mload(0xc0)\n  mload(0xe0)\n  mload(0x0100)\n  mload(0x0120)\n  mload(0x0140)\n  codecopy(0x00, dataOffset(sub_0), dataSize(sub_0))\n  0x00\n  assignImmutable(\"0xecb71fe1386c7b99297441a64a8091813b38eb97ef175b053582611a1f05de32\")\n  0x00\n  assignImmutable(\"0x62c04aa2ba983f68d24f36f1071519a5da6efcb7e8fd8ffeea96be718d6b9857\")\n  0x00\n  assignImmutable(\"0x12e5c326a416b9218089ddbf8393c3f044616da95c0e0d482ca48c6df9dbd796\")\n  0x00\n  assignImmutable(\"0x12f7fb91a209395c061c8c60845e4c12fd130b19cfa28309a90ee6aad33614af\")\n  0x00\n  assignImmutable(\"0x902ad16d9ec45fbca0c849777755689089732af4097a8888a3fbc2c9e197fb0c\")\n  0x00\n  assignImmutable(\"0x584d742cf99caaa476dcd31433c7121358f07a811e28134e9e43d94579170813\")\n  0x00\n  assignImmutable(\"0xe8d41dbd7fb6c175dc9dace4efb33129a6f35d6d989a325dad36e594e9495379\")\n  return(0x00, dataSize(sub_0))\nstop\n\nsub_0: assembly {\n        /* \"contracts/ERC20.sol\":388:940  contract Ummantoken is ERC20, ERC20Burnable, AccessControl, ERC20Permit {... */\n      mstore(0x40, 0x80)\n      callvalue\n      dup1\n      iszero\n      tag_1\n      jumpi\n      0x00\n      dup1\n      revert\n    tag_1:\n      pop\n      jumpi(tag_2, lt(calldatasize, 0x04))\n      shr(0xe0, calldataload(0x00))\n      dup1\n      0x70a08231\n      gt\n      tag_27\n      jumpi\n      dup1\n      0xa217fddf\n      gt\n      tag_28\n      jumpi\n      dup1\n      0xa217fddf\n      eq\n      tag_21\n      jumpi\n      dup1\n      0xa9059cbb\n      eq\n      tag_22\n      jumpi\n      dup1\n      0xd505accf\n      eq\n      tag_23\n      jumpi\n      dup1\n      0xd5391393\n      eq\n      tag_24\n      jumpi\n      dup1\n      0xd547741f\n      eq\n      tag_25\n      jumpi\n      dup1\n      0xdd62ed3e\n      eq\n      tag_26\n      jumpi\n      0x00\n      dup1\n      revert\n    tag_28:\n      dup1\n      0x70a08231\n      eq\n      tag_15\n      jumpi\n      dup1\n      0x79cc6790\n      eq\n      tag_16\n      jumpi\n      dup1\n      0x7ecebe00\n      eq\n      tag_17\n      jumpi\n      dup1\n      0x84b0196e\n      eq\n      tag_18\n      jumpi\n      dup1\n      0x91d14854\n      eq\n      tag_19\n      jumpi\n      dup1\n      0x95d89b41\n      eq\n      tag_20\n      jumpi\n      0x00\n      dup1\n      revert\n    tag_27:\n      dup1\n      0x2f2ff15d\n      gt\n      tag_29\n      jumpi\n      dup1\n      0x2f2ff15d\n      eq\n      tag_9\n      jumpi\n      dup1\n      0x313ce567\n      eq\n      tag_10\n      jumpi\n      dup1\n      0x3644e515\n      eq\n      tag_11\n      jumpi\n      dup1\n      0x36568abe\n      eq\n      tag_12\n      jumpi\n      dup1\n      0x40c10f19\n      eq\n      tag_13\n      jumpi\n      dup1\n      0x42966c68\n      eq\n      tag_14\n      jumpi\n      0x00\n      dup1\n      revert\n    tag_29:\n      dup1\n      0x01ffc9a7\n      eq\n      tag_3\n      jumpi\n      dup1\n      0x06fdde03\n      eq\n      tag_4\n      jumpi\n      dup1\n      0x095ea7b3\n      eq\n      tag_5\n      jumpi\n      dup1\n      0x18160ddd\n      eq\n      tag_6\n      jumpi\n      dup1\n      0x23b872dd\n      eq\n      tag_7\n      jumpi\n      dup1\n      0x248a9ca3\n      eq\n      tag_8\n      jumpi\n    tag_2:\n      0x00\n      dup1\n      revert\n        /* \"@openzeppelin/contracts/access/AccessControl.sol\":2565:2767  function supportsInterface(bytes4 interfaceId) public view virtual override returns (bool) {... */\n    tag_3:\n      tag_30\n      tag_31\n      calldatasize\n      0x04\n      tag_32\n      jump\t// in\n    tag_31:\n      tag_33\n      jump\t// in\n    tag_30:\n      mload(0x40)\n        /* \"#utility.yul\":470:484   */\n      swap1\n      iszero\n        /* \"#utility.yul\":463:485   */\n      iszero\n        /* \"#utility.yul\":445:486   */\n      dup2\n      mstore\n        /* \"#utility.yul\":433:435   */\n      0x20\n        /* \"#utility.yul\":418:436   */\n      add\n        /* \"@openzeppelin/contracts/access/AccessControl.sol\":2565:2767  function supportsInterface(bytes4 interfaceId) public view virtual override returns (bool) {... */\n    tag_34:\n      mload(0x40)\n      dup1\n      swap2\n      sub\n      swap1\n      return\n        /* \"@openzeppelin/contracts/token/ERC20/ERC20.sol\":2074:2163  function name() public view virtual returns (string memory) {... */\n    tag_4:\n      tag_36\n      tag_37\n      jump\t// in\n    tag_36:\n      mload(0x40)\n      tag_34\n      swap2\n      swap1\n      tag_39\n      jump\t// in\n        /* \"@openzeppelin/contracts/token/ERC20/ERC20.sol\":4293:4479  function approve(address spender, uint256 value) public virtual returns (bool) {... */\n    tag_5:\n      tag_30\n      tag_41\n      calldatasize\n      0x04\n      tag_42\n      jump\t// in\n    tag_41:\n      tag_43\n      jump\t// in\n        /* \"@openzeppelin/contracts/token/ERC20/ERC20.sol\":3144:3241  function totalSupply() public view virtual returns (uint256) {... */\n    tag_6:\n        /* \"@openzeppelin/contracts/token/ERC20/ERC20.sol\":3222:3234  _totalSupply */\n      sload(0x02)\n        /* \"@openzeppelin/contracts/token/ERC20/ERC20.sol\":3144:3241  function totalSupply() public view virtual returns (uint256) {... */\n    tag_45:\n      mload(0x40)\n        /* \"#utility.yul\":1733:1758   */\n      swap1\n      dup2\n      mstore\n        /* \"#utility.yul\":1721:1723   */\n      0x20\n        /* \"#utility.yul\":1706:1724   */\n      add\n        /* \"@openzeppelin/contracts/token/ERC20/ERC20.sol\":3144:3241  function totalSupply() public view virtual returns (uint256) {... */\n      tag_34\n        /* \"#utility.yul\":1587:1764   */\n      jump\n        /* \"@openzeppelin/contracts/token/ERC20/ERC20.sol\":5039:5283  function transferFrom(address from, address to, uint256 value) public virtual returns (bool) {... */\n    tag_7:\n      tag_30\n      tag_50\n      calldatasize\n      0x04\n      tag_51\n      jump\t// in\n    tag_50:\n      tag_52\n      jump\t// in\n        /* \"@openzeppelin/contracts/access/AccessControl.sol\":3810:3930  function getRoleAdmin(bytes32 role) public view virtual returns (bytes32) {... */\n    tag_8:\n      tag_45\n      tag_55\n      calldatasize\n      0x04\n      tag_56\n      jump\t// in\n    tag_55:\n        /* \"@openzeppelin/contracts/access/AccessControl.sol\":3875:3882  bytes32 */\n      0x00\n        /* \"@openzeppelin/contracts/access/AccessControl.sol\":3901:3913  _roles[role] */\n      swap1\n      dup2\n      mstore\n        /* \"@openzeppelin/contracts/access/AccessControl.sol\":3901:3907  _roles */\n      0x05\n        /* \"@openzeppelin/contracts/access/AccessControl.sol\":3901:3913  _roles[role] */\n      0x20\n      mstore\n      0x40\n      swap1\n      keccak256\n        /* \"@openzeppelin/contracts/access/AccessControl.sol\":3901:3923  _roles[role].adminRole */\n      0x01\n      add\n      sload\n      swap1\n        /* \"@openzeppelin/contracts/access/AccessControl.sol\":3810:3930  function getRoleAdmin(bytes32 role) public view virtual returns (bytes32) {... */\n      jump\n        /* \"@openzeppelin/contracts/access/AccessControl.sol\":4226:4362  function grantRole(bytes32 role, address account) public virtual onlyRole(getRoleAdmin(role)) {... */\n    tag_9:\n      tag_60\n      tag_61\n      calldatasize\n      0x04\n      tag_62\n      jump\t// in\n    tag_61:\n      tag_63\n      jump\t// in\n    tag_60:\n      stop\n        /* \"@openzeppelin/contracts/token/ERC20/ERC20.sol\":3002:3084  function decimals() public view virtual returns (uint8) {... */\n    tag_10:\n      mload(0x40)\n        /* \"@openzeppelin/contracts/token/ERC20/ERC20.sol\":3075:3077  18 */\n      0x12\n        /* \"#utility.yul\":2870:2906   */\n      dup2\n      mstore\n        /* \"#utility.yul\":2858:2860   */\n      0x20\n        /* \"#utility.yul\":2843:2861   */\n      add\n        /* \"@openzeppelin/contracts/token/ERC20/ERC20.sol\":3002:3084  function decimals() public view virtual returns (uint8) {... */\n      tag_34\n        /* \"#utility.yul\":2728:2912   */\n      jump\n        /* \"@openzeppelin/contracts/token/ERC20/extensions/ERC20Permit.sol\":2656:2768  function DOMAIN_SEPARATOR() external view virtual returns (bytes32) {... */\n    tag_11:\n      tag_45\n      tag_69\n      jump\t// in\n        /* \"@openzeppelin/contracts/access/AccessControl.sol\":5328:5573  function renounceRole(bytes32 role, address callerConfirmation) public virtual {... */\n    tag_12:\n      tag_60\n      tag_72\n      calldatasize\n      0x04\n      tag_62\n      jump\t// in\n    tag_72:\n      tag_73\n      jump\t// in\n        /* \"contracts/ERC20.sol\":830:937  function mint(address to, uint256 amount) public onlyRole(MINTER_ROLE) {... */\n    tag_13:\n      tag_60\n      tag_75\n      calldatasize\n      0x04\n      tag_42\n      jump\t// in\n    tag_75:\n      tag_76\n      jump\t// in\n        /* \"@openzeppelin/contracts/token/ERC20/extensions/ERC20Burnable.sol\":618:705  function burn(uint256 value) public virtual {... */\n    tag_14:\n      tag_60\n      tag_78\n      calldatasize\n      0x04\n      tag_56\n      jump\t// in\n    tag_78:\n      tag_80\n      jump\t// in\n        /* \"@openzeppelin/contracts/token/ERC20/ERC20.sol\":3299:3415  function balanceOf(address account) public view virtual returns (uint256) {... */\n    tag_15:\n      tag_45\n      tag_82\n      calldatasize\n      0x04\n      tag_83\n      jump\t// in\n    tag_82:\n      sub(shl(0xa0, 0x01), 0x01)\n        /* \"@openzeppelin/contracts/token/ERC20/ERC20.sol\":3390:3408  _balances[account] */\n      and\n        /* \"@openzeppelin/contracts/token/ERC20/ERC20.sol\":3364:3371  uint256 */\n      0x00\n        /* \"@openzeppelin/contracts/token/ERC20/ERC20.sol\":3390:3408  _balances[account] */\n      swap1\n      dup2\n      mstore\n      0x20\n      dup2\n      swap1\n      mstore\n      0x40\n      swap1\n      keccak256\n      sload\n      swap1\n        /* \"@openzeppelin/contracts/token/ERC20/ERC20.sol\":3299:3415  function balanceOf(address account) public view virtual returns (uint256) {... */\n      jump\n        /* \"@openzeppelin/contracts/token/ERC20/extensions/ERC20Burnable.sol\":1021:1179  function burnFrom(address account, uint256 value) public virtual {... */\n    tag_16:\n      tag_60\n      tag_87\n      calldatasize\n      0x04\n      tag_42\n      jump\t// in\n    tag_87:\n      tag_88\n      jump\t// in\n        /* \"@openzeppelin/contracts/token/ERC20/extensions/ERC20Permit.sol\":2406:2549  function nonces(address owner) public view virtual override(IERC20Permit, Nonces) returns (uint256) {... */\n    tag_17:\n      tag_45\n      tag_90\n      calldatasize\n      0x04\n      tag_83\n      jump\t// in\n    tag_90:\n      tag_91\n      jump\t// in\n        /* \"@openzeppelin/contracts/utils/cryptography/EIP712.sol\":5144:5701  function eip712Domain()... */\n    tag_18:\n      tag_93\n      tag_94\n      jump\t// in\n    tag_93:\n      mload(0x40)\n      tag_34\n      swap8\n      swap7\n      swap6\n      swap5\n      swap4\n      swap3\n      swap2\n      swap1\n      tag_96\n      jump\t// in\n        /* \"@openzeppelin/contracts/access/AccessControl.sol\":2854:2990  function hasRole(bytes32 role, address account) public view virtual returns (bool) {... */\n    tag_19:\n      tag_30\n      tag_98\n      calldatasize\n      0x04\n      tag_62\n      jump\t// in\n    tag_98:\n      tag_99\n      jump\t// in\n        /* \"@openzeppelin/contracts/token/ERC20/ERC20.sol\":2276:2369  function symbol() public view virtual returns (string memory) {... */\n    tag_20:\n      tag_36\n      tag_102\n      jump\t// in\n        /* \"@openzeppelin/contracts/access/AccessControl.sol\":2187:2236  bytes32 public constant DEFAULT_ADMIN_ROLE = 0x00 */\n    tag_21:\n      tag_45\n        /* \"@openzeppelin/contracts/access/AccessControl.sol\":2232:2236  0x00 */\n      0x00\n        /* \"@openzeppelin/contracts/access/AccessControl.sol\":2187:2236  bytes32 public constant DEFAULT_ADMIN_ROLE = 0x00 */\n      dup2\n      jump\n        /* \"@openzeppelin/contracts/token/ERC20/ERC20.sol\":3610:3788  function transfer(address to, uint256 value) public virtual returns (bool) {... */\n    tag_22:\n      tag_30\n      tag_108\n      calldatasize\n      0x04\n      tag_42\n      jump\t// in\n    tag_108:\n      tag_109\n      jump\t// in\n        /* \"@openzeppelin/contracts/token/ERC20/extensions/ERC20Permit.sol\":1680:2352  function permit(... */\n    tag_23:\n      tag_60\n      tag_112\n      calldatasize\n      0x04\n      tag_113\n      jump\t// in\n    tag_112:\n      tag_114\n      jump\t// in\n        /* \"contracts/ERC20.sol\":467:529  bytes32 public constant MINTER_ROLE = keccak256(\"MINTER_ROLE\") */\n    tag_24:\n      tag_45\n        /* \"contracts/ERC20.sol\":505:529  keccak256(\"MINTER_ROLE\") */\n      0x9f2df0fed2c77648de5860a4cc508cd0818c85b8b8a1ab4ceeef8d981c8956a6\n        /* \"contracts/ERC20.sol\":467:529  bytes32 public constant MINTER_ROLE = keccak256(\"MINTER_ROLE\") */\n      dup2\n      jump\n        /* \"@openzeppelin/contracts/access/AccessControl.sol\":4642:4780  function revokeRole(bytes32 role, address account) public virtual onlyRole(getRoleAdmin(role)) {... */\n    tag_25:\n      tag_60\n      tag_119\n      calldatasize\n      0x04\n      tag_62\n      jump\t// in\n    tag_119:\n      tag_120\n      jump\t// in\n        /* \"@openzeppelin/contracts/token/ERC20/ERC20.sol\":3846:3986  function allowance(address owner, address spender) public view virtual returns (uint256) {... */\n    tag_26:\n      tag_45\n      tag_122\n      calldatasize\n      0x04\n      tag_123\n      jump\t// in\n    tag_122:\n      sub(shl(0xa0, 0x01), 0x01)\n        /* \"@openzeppelin/contracts/token/ERC20/ERC20.sol\":3952:3970  _allowances[owner] */\n      swap2\n      dup3\n      and\n        /* \"@openzeppelin/contracts/token/ERC20/ERC20.sol\":3926:3933  uint256 */\n      0x00\n        /* \"@openzeppelin/contracts/token/ERC20/ERC20.sol\":3952:3970  _allowances[owner] */\n      swap1\n      dup2\n      mstore\n        /* \"@openzeppelin/contracts/token/ERC20/ERC20.sol\":3952:3963  _allowances */\n      0x01\n        /* \"@openzeppelin/contracts/token/ERC20/ERC20.sol\":3952:3970  _allowances[owner] */\n      0x20\n      swap1\n      dup2\n      mstore\n      0x40\n      dup1\n      dup4\n      keccak256\n        /* \"@openzeppelin/contracts/token/ERC20/ERC20.sol\":3952:3979  _allowances[owner][spender] */\n      swap4\n      swap1\n      swap5\n      and\n      dup3\n      mstore\n      swap2\n      swap1\n      swap2\n      mstore\n      keccak256\n      sload\n      swap1\n        /* \"@openzeppelin/contracts/token/ERC20/ERC20.sol\":3846:3986  function allowance(address owner, address spender) public view virtual returns (uint256) {... */\n      jump\n        /* \"@openzeppelin/contracts/access/AccessControl.sol\":2565:2767  function supportsInterface(bytes4 interfaceId) public view virtual override returns (bool) {... */\n    tag_33:\n        /* \"@openzeppelin/contracts/access/AccessControl.sol\":2650:2654  bool */\n      0x00\n      not(sub(shl(0xe0, 0x01), 0x01))\n        /* \"@openzeppelin/contracts/access/AccessControl.sol\":2673:2720  interfaceId == type(IAccessControl).interfaceId */\n      dup3\n      and\n      shl(0xe0, 0x7965db0b)\n      eq\n      dup1\n        /* \"@openzeppelin/contracts/access/AccessControl.sol\":2673:2760  interfaceId == type(IAccessControl).interfaceId || super.supportsInterface(interfaceId) */\n      tag_128\n      jumpi\n      pop\n      shl(0xe0, 0x01ffc9a7)\n      not(sub(shl(0xe0, 0x01), 0x01))\n        /* \"@openzeppelin/contracts/utils/introspection/ERC165.sol\":861:901  interfaceId == type(IERC165).interfaceId */\n      dup4\n      and\n      eq\n        /* \"@openzeppelin/contracts/access/AccessControl.sol\":2724:2760  super.supportsInterface(interfaceId) */\n    tag_128:\n        /* \"@openzeppelin/contracts/access/AccessControl.sol\":2666:2760  return interfaceId == type(IAccessControl).interfaceId || super.supportsInterface(interfaceId) */\n      swap3\n        /* \"@openzeppelin/contracts/access/AccessControl.sol\":2565:2767  function supportsInterface(bytes4 interfaceId) public view virtual override returns (bool) {... */\n      swap2\n      pop\n      pop\n      jump\t// out\n        /* \"@openzeppelin/contracts/token/ERC20/ERC20.sol\":2074:2163  function name() public view virtual returns (string memory) {... */\n    tag_37:\n        /* \"@openzeppelin/contracts/token/ERC20/ERC20.sol\":2119:2132  string memory */\n      0x60\n        /* \"@openzeppelin/contracts/token/ERC20/ERC20.sol\":2151:2156  _name */\n      0x03\n        /* \"@openzeppelin/contracts/token/ERC20/ERC20.sol\":2144:2156  return _name */\n      dup1\n      sload\n      tag_131\n      swap1\n      tag_132\n      jump\t// in\n    tag_131:\n      dup1\n      0x1f\n      add\n      0x20\n      dup1\n      swap2\n      div\n      mul\n      0x20\n      add\n      mload(0x40)\n      swap1\n      dup2\n      add\n      0x40\n      mstore\n      dup1\n      swap3\n      swap2\n      swap1\n      dup2\n      dup2\n      mstore\n      0x20\n      add\n      dup3\n      dup1\n      sload\n      tag_133\n      swap1\n      tag_132\n      jump\t// in\n    tag_133:\n      dup1\n      iszero\n      tag_134\n      jumpi\n      dup1\n      0x1f\n      lt\n      tag_135\n      jumpi\n      0x0100\n      dup1\n      dup4\n      sload\n      div\n      mul\n      dup4\n      mstore\n      swap2\n      0x20\n      add\n      swap2\n      jump(tag_134)\n    tag_135:\n      dup3\n      add\n      swap2\n      swap1\n      0x00\n      mstore\n      keccak256(0x00, 0x20)\n      swap1\n    tag_136:\n      dup2\n      sload\n      dup2\n      mstore\n      swap1\n      0x01\n      add\n      swap1\n      0x20\n      add\n      dup1\n      dup4\n      gt\n      tag_136\n      jumpi\n      dup3\n      swap1\n      sub\n      0x1f\n      and\n      dup3\n      add\n      swap2\n    tag_134:\n      pop\n      pop\n      pop\n      pop\n      pop\n      swap1\n      pop\n        /* \"@openzeppelin/contracts/token/ERC20/ERC20.sol\":2074:2163  function name() public view virtual returns (string memory) {... */\n      swap1\n      jump\t// out\n        /* \"@openzeppelin/contracts/token/ERC20/ERC20.sol\":4293:4479  function approve(address spender, uint256 value) public virtual returns (bool) {... */\n    tag_43:\n        /* \"@openzeppelin/contracts/token/ERC20/ERC20.sol\":4366:4370  bool */\n      0x00\n        /* \"@openzeppelin/contracts/utils/Context.sol\":735:745  msg.sender */\n      caller\n        /* \"@openzeppelin/contracts/token/ERC20/ERC20.sol\":4420:4451  _approve(owner, spender, value) */\n      tag_140\n        /* \"@openzeppelin/contracts/utils/Context.sol\":735:745  msg.sender */\n      dup2\n        /* \"@openzeppelin/contracts/token/ERC20/ERC20.sol\":4436:4443  spender */\n      dup6\n        /* \"@openzeppelin/contracts/token/ERC20/ERC20.sol\":4445:4450  value */\n      dup6\n        /* \"@openzeppelin/contracts/token/ERC20/ERC20.sol\":4420:4428  _approve */\n      tag_141\n        /* \"@openzeppelin/contracts/token/ERC20/ERC20.sol\":4420:4451  _approve(owner, spender, value) */\n      jump\t// in\n    tag_140:\n      pop\n        /* \"@openzeppelin/contracts/token/ERC20/ERC20.sol\":4468:4472  true */\n      0x01\n      swap4\n        /* \"@openzeppelin/contracts/token/ERC20/ERC20.sol\":4293:4479  function approve(address spender, uint256 value) public virtual returns (bool) {... */\n      swap3\n      pop\n      pop\n      pop\n      jump\t// out\n        /* \"@openzeppelin/contracts/token/ERC20/ERC20.sol\":5039:5283  function transferFrom(address from, address to, uint256 value) public virtual returns (bool) {... */\n    tag_52:\n        /* \"@openzeppelin/contracts/token/ERC20/ERC20.sol\":5126:5130  bool */\n      0x00\n        /* \"@openzeppelin/contracts/utils/Context.sol\":735:745  msg.sender */\n      caller\n        /* \"@openzeppelin/contracts/token/ERC20/ERC20.sol\":5182:5219  _spendAllowance(from, spender, value) */\n      tag_145\n        /* \"@openzeppelin/contracts/token/ERC20/ERC20.sol\":5198:5202  from */\n      dup6\n        /* \"@openzeppelin/contracts/utils/Context.sol\":735:745  msg.sender */\n      dup3\n        /* \"@openzeppelin/contracts/token/ERC20/ERC20.sol\":5213:5218  value */\n      dup6\n        /* \"@openzeppelin/contracts/token/ERC20/ERC20.sol\":5182:5197  _spendAllowance */\n      tag_146\n        /* \"@openzeppelin/contracts/token/ERC20/ERC20.sol\":5182:5219  _spendAllowance(from, spender, value) */\n      jump\t// in\n    tag_145:\n        /* \"@openzeppelin/contracts/token/ERC20/ERC20.sol\":5229:5255  _transfer(from, to, value) */\n      tag_147\n        /* \"@openzeppelin/contracts/token/ERC20/ERC20.sol\":5239:5243  from */\n      dup6\n        /* \"@openzeppelin/contracts/token/ERC20/ERC20.sol\":5245:5247  to */\n      dup6\n        /* \"@openzeppelin/contracts/token/ERC20/ERC20.sol\":5249:5254  value */\n      dup6\n        /* \"@openzeppelin/contracts/token/ERC20/ERC20.sol\":5229:5238  _transfer */\n      tag_148\n        /* \"@openzeppelin/contracts/token/ERC20/ERC20.sol\":5229:5255  _transfer(from, to, value) */\n      jump\t// in\n    tag_147:\n      pop\n        /* \"@openzeppelin/contracts/token/ERC20/ERC20.sol\":5272:5276  true */\n      0x01\n      swap5\n        /* \"@openzeppelin/contracts/token/ERC20/ERC20.sol\":5039:5283  function transferFrom(address from, address to, uint256 value) public virtual returns (bool) {... */\n      swap4\n      pop\n      pop\n      pop\n      pop\n      jump\t// out\n        /* \"@openzeppelin/contracts/access/AccessControl.sol\":4226:4362  function grantRole(bytes32 role, address account) public virtual onlyRole(getRoleAdmin(role)) {... */\n    tag_63:\n        /* \"@openzeppelin/contracts/access/AccessControl.sol\":3875:3882  bytes32 */\n      0x00\n        /* \"@openzeppelin/contracts/access/AccessControl.sol\":3901:3913  _roles[role] */\n      dup3\n      dup2\n      mstore\n        /* \"@openzeppelin/contracts/access/AccessControl.sol\":3901:3907  _roles */\n      0x05\n        /* \"@openzeppelin/contracts/access/AccessControl.sol\":3901:3913  _roles[role] */\n      0x20\n      mstore\n      0x40\n      swap1\n      keccak256\n        /* \"@openzeppelin/contracts/access/AccessControl.sol\":3901:3923  _roles[role].adminRole */\n      0x01\n      add\n      sload\n        /* \"@openzeppelin/contracts/access/AccessControl.sol\":2464:2480  _checkRole(role) */\n      tag_152\n        /* \"@openzeppelin/contracts/access/AccessControl.sol\":2475:2479  role */\n      dup2\n        /* \"@openzeppelin/contracts/access/AccessControl.sol\":2464:2474  _checkRole */\n      tag_153\n        /* \"@openzeppelin/contracts/access/AccessControl.sol\":2464:2480  _checkRole(role) */\n      jump\t// in\n    tag_152:\n        /* \"@openzeppelin/contracts/access/AccessControl.sol\":4330:4355  _grantRole(role, account) */\n      tag_155\n        /* \"@openzeppelin/contracts/access/AccessControl.sol\":4341:4345  role */\n      dup4\n        /* \"@openzeppelin/contracts/access/AccessControl.sol\":4347:4354  account */\n      dup4\n        /* \"@openzeppelin/contracts/access/AccessControl.sol\":4330:4340  _grantRole */\n      tag_156\n        /* \"@openzeppelin/contracts/access/AccessControl.sol\":4330:4355  _grantRole(role, account) */\n      jump\t// in\n    tag_155:\n      pop\n        /* \"@openzeppelin/contracts/access/AccessControl.sol\":4226:4362  function grantRole(bytes32 role, address account) public virtual onlyRole(getRoleAdmin(role)) {... */\n      pop\n      pop\n      pop\n      jump\t// out\n        /* \"@openzeppelin/contracts/token/ERC20/extensions/ERC20Permit.sol\":2656:2768  function DOMAIN_SEPARATOR() external view virtual returns (bytes32) {... */\n    tag_69:\n        /* \"@openzeppelin/contracts/token/ERC20/extensions/ERC20Permit.sol\":2715:2722  bytes32 */\n      0x00\n        /* \"@openzeppelin/contracts/token/ERC20/extensions/ERC20Permit.sol\":2741:2761  _domainSeparatorV4() */\n      tag_159\n        /* \"@openzeppelin/contracts/token/ERC20/extensions/ERC20Permit.sol\":2741:2759  _domainSeparatorV4 */\n      tag_160\n        /* \"@openzeppelin/contracts/token/ERC20/extensions/ERC20Permit.sol\":2741:2761  _domainSeparatorV4() */\n      jump\t// in\n    tag_159:\n        /* \"@openzeppelin/contracts/token/ERC20/extensions/ERC20Permit.sol\":2734:2761  return _domainSeparatorV4() */\n      swap1\n      pop\n        /* \"@openzeppelin/contracts/token/ERC20/extensions/ERC20Permit.sol\":2656:2768  function DOMAIN_SEPARATOR() external view virtual returns (bytes32) {... */\n      swap1\n      jump\t// out\n        /* \"@openzeppelin/contracts/access/AccessControl.sol\":5328:5573  function renounceRole(bytes32 role, address callerConfirmation) public virtual {... */\n    tag_73:\n      sub(shl(0xa0, 0x01), 0x01)\n        /* \"@openzeppelin/contracts/access/AccessControl.sol\":5421:5455  callerConfirmation != _msgSender() */\n      dup2\n      and\n        /* \"@openzeppelin/contracts/utils/Context.sol\":735:745  msg.sender */\n      caller\n        /* \"@openzeppelin/contracts/access/AccessControl.sol\":5421:5455  callerConfirmation != _msgSender() */\n      eq\n        /* \"@openzeppelin/contracts/access/AccessControl.sol\":5417:5519  if (callerConfirmation != _msgSender()) {... */\n      tag_163\n      jumpi\n        /* \"@openzeppelin/contracts/access/AccessControl.sol\":5478:5508  AccessControlBadConfirmation() */\n      mload(0x40)\n      shl(0xe1, 0x334bd919)\n      dup2\n      mstore\n      0x04\n      add\n      mload(0x40)\n      dup1\n      swap2\n      sub\n      swap1\n      revert\n        /* \"@openzeppelin/contracts/access/AccessControl.sol\":5417:5519  if (callerConfirmation != _msgSender()) {... */\n    tag_163:\n        /* \"@openzeppelin/contracts/access/AccessControl.sol\":5529:5566  _revokeRole(role, callerConfirmation) */\n      tag_164\n        /* \"@openzeppelin/contracts/access/AccessControl.sol\":5541:5545  role */\n      dup3\n        /* \"@openzeppelin/contracts/access/AccessControl.sol\":5547:5565  callerConfirmation */\n      dup3\n        /* \"@openzeppelin/contracts/access/AccessControl.sol\":5529:5540  _revokeRole */\n      tag_165\n        /* \"@openzeppelin/contracts/access/AccessControl.sol\":5529:5566  _revokeRole(role, callerConfirmation) */\n      jump\t// in\n    tag_164:\n      pop\n        /* \"@openzeppelin/contracts/access/AccessControl.sol\":5328:5573  function renounceRole(bytes32 role, address callerConfirmation) public virtual {... */\n      pop\n      pop\n      jump\t// out\n        /* \"contracts/ERC20.sol\":830:937  function mint(address to, uint256 amount) public onlyRole(MINTER_ROLE) {... */\n    tag_76:\n        /* \"contracts/ERC20.sol\":505:529  keccak256(\"MINTER_ROLE\") */\n      0x9f2df0fed2c77648de5860a4cc508cd0818c85b8b8a1ab4ceeef8d981c8956a6\n        /* \"@openzeppelin/contracts/access/AccessControl.sol\":2464:2480  _checkRole(role) */\n      tag_167\n        /* \"@openzeppelin/contracts/access/AccessControl.sol\":2475:2479  role */\n      dup2\n        /* \"@openzeppelin/contracts/access/AccessControl.sol\":2464:2474  _checkRole */\n      tag_153\n        /* \"@openzeppelin/contracts/access/AccessControl.sol\":2464:2480  _checkRole(role) */\n      jump\t// in\n    tag_167:\n        /* \"contracts/ERC20.sol\":912:929  _mint(to, amount) */\n      tag_164\n        /* \"contracts/ERC20.sol\":918:920  to */\n      dup4\n        /* \"contracts/ERC20.sol\":922:928  amount */\n      dup4\n        /* \"contracts/ERC20.sol\":912:917  _mint */\n      tag_170\n        /* \"contracts/ERC20.sol\":912:929  _mint(to, amount) */\n      jump\t// in\n        /* \"@openzeppelin/contracts/token/ERC20/extensions/ERC20Burnable.sol\":618:705  function burn(uint256 value) public virtual {... */\n    tag_80:\n        /* \"@openzeppelin/contracts/token/ERC20/extensions/ERC20Burnable.sol\":672:698  _burn(_msgSender(), value) */\n      tag_172\n        /* \"@openzeppelin/contracts/utils/Context.sol\":735:745  msg.sender */\n      caller\n        /* \"@openzeppelin/contracts/token/ERC20/extensions/ERC20Burnable.sol\":692:697  value */\n      dup3\n        /* \"@openzeppelin/contracts/token/ERC20/extensions/ERC20Burnable.sol\":672:677  _burn */\n      tag_174\n        /* \"@openzeppelin/contracts/token/ERC20/extensions/ERC20Burnable.sol\":672:698  _burn(_msgSender(), value) */\n      jump\t// in\n    tag_172:\n        /* \"@openzeppelin/contracts/token/ERC20/extensions/ERC20Burnable.sol\":618:705  function burn(uint256 value) public virtual {... */\n      pop\n      jump\t// out\n        /* \"@openzeppelin/contracts/token/ERC20/extensions/ERC20Burnable.sol\":1021:1179  function burnFrom(address account, uint256 value) public virtual {... */\n    tag_88:\n        /* \"@openzeppelin/contracts/token/ERC20/extensions/ERC20Burnable.sol\":1096:1141  _spendAllowance(account, _msgSender(), value) */\n      tag_177\n        /* \"@openzeppelin/contracts/token/ERC20/extensions/ERC20Burnable.sol\":1112:1119  account */\n      dup3\n        /* \"@openzeppelin/contracts/utils/Context.sol\":735:745  msg.sender */\n      caller\n        /* \"@openzeppelin/contracts/token/ERC20/extensions/ERC20Burnable.sol\":1135:1140  value */\n      dup4\n        /* \"@openzeppelin/contracts/token/ERC20/extensions/ERC20Burnable.sol\":1096:1111  _spendAllowance */\n      tag_146\n        /* \"@openzeppelin/contracts/token/ERC20/extensions/ERC20Burnable.sol\":1096:1141  _spendAllowance(account, _msgSender(), value) */\n      jump\t// in\n    tag_177:\n        /* \"@openzeppelin/contracts/token/ERC20/extensions/ERC20Burnable.sol\":1151:1172  _burn(account, value) */\n      tag_179\n        /* \"@openzeppelin/contracts/token/ERC20/extensions/ERC20Burnable.sol\":1157:1164  account */\n      dup3\n        /* \"@openzeppelin/contracts/token/ERC20/extensions/ERC20Burnable.sol\":1166:1171  value */\n      dup3\n        /* \"@openzeppelin/contracts/token/ERC20/extensions/ERC20Burnable.sol\":1151:1156  _burn */\n      tag_174\n        /* \"@openzeppelin/contracts/token/ERC20/extensions/ERC20Burnable.sol\":1151:1172  _burn(account, value) */\n      jump\t// in\n    tag_179:\n        /* \"@openzeppelin/contracts/token/ERC20/extensions/ERC20Burnable.sol\":1021:1179  function burnFrom(address account, uint256 value) public virtual {... */\n      pop\n      pop\n      jump\t// out\n        /* \"@openzeppelin/contracts/token/ERC20/extensions/ERC20Permit.sol\":2406:2549  function nonces(address owner) public view virtual override(IERC20Permit, Nonces) returns (uint256) {... */\n    tag_91:\n      sub(shl(0xa0, 0x01), 0x01)\n        /* \"@openzeppelin/contracts/utils/Nonces.sol\":624:638  _nonces[owner] */\n      dup2\n      and\n        /* \"@openzeppelin/contracts/token/ERC20/extensions/ERC20Permit.sol\":2497:2504  uint256 */\n      0x00\n        /* \"@openzeppelin/contracts/utils/Nonces.sol\":624:638  _nonces[owner] */\n      swap1\n      dup2\n      mstore\n        /* \"@openzeppelin/contracts/utils/Nonces.sol\":624:631  _nonces */\n      0x08\n        /* \"@openzeppelin/contracts/utils/Nonces.sol\":624:638  _nonces[owner] */\n      0x20\n      mstore\n      0x40\n      dup2\n      keccak256\n      sload\n        /* \"@openzeppelin/contracts/token/ERC20/extensions/ERC20Permit.sol\":2523:2542  super.nonces(owner) */\n      tag_128\n        /* \"@openzeppelin/contracts/utils/Nonces.sol\":538:645  function nonces(address owner) public view virtual returns (uint256) {... */\n      jump\n        /* \"@openzeppelin/contracts/utils/cryptography/EIP712.sol\":5144:5701  function eip712Domain()... */\n    tag_94:\n        /* \"@openzeppelin/contracts/utils/cryptography/EIP712.sol\":5242:5255  bytes1 fields */\n      0x00\n        /* \"@openzeppelin/contracts/utils/cryptography/EIP712.sol\":5269:5287  string memory name */\n      0x60\n        /* \"@openzeppelin/contracts/utils/cryptography/EIP712.sol\":5301:5322  string memory version */\n      dup1\n        /* \"@openzeppelin/contracts/utils/cryptography/EIP712.sol\":5336:5351  uint256 chainId */\n      0x00\n        /* \"@openzeppelin/contracts/utils/cryptography/EIP712.sol\":5365:5390  address verifyingContract */\n      dup1\n        /* \"@openzeppelin/contracts/utils/cryptography/EIP712.sol\":5404:5416  bytes32 salt */\n      0x00\n        /* \"@openzeppelin/contracts/utils/cryptography/EIP712.sol\":5430:5457  uint256[] memory extensions */\n      0x60\n        /* \"@openzeppelin/contracts/utils/cryptography/EIP712.sol\":5533:5546  _EIP712Name() */\n      tag_184\n        /* \"@openzeppelin/contracts/utils/cryptography/EIP712.sol\":5533:5544  _EIP712Name */\n      tag_185\n        /* \"@openzeppelin/contracts/utils/cryptography/EIP712.sol\":5533:5546  _EIP712Name() */\n      jump\t// in\n    tag_184:\n        /* \"@openzeppelin/contracts/utils/cryptography/EIP712.sol\":5560:5576  _EIP712Version() */\n      tag_186\n        /* \"@openzeppelin/contracts/utils/cryptography/EIP712.sol\":5560:5574  _EIP712Version */\n      tag_187\n        /* \"@openzeppelin/contracts/utils/cryptography/EIP712.sol\":5560:5576  _EIP712Version() */\n      jump\t// in\n    tag_186:\n        /* \"@openzeppelin/contracts/utils/cryptography/EIP712.sol\":5668:5684  new uint256[](0) */\n      0x40\n      dup1\n      mload\n        /* \"@openzeppelin/contracts/utils/cryptography/EIP712.sol\":5652:5653  0 */\n      0x00\n        /* \"@openzeppelin/contracts/utils/cryptography/EIP712.sol\":5668:5684  new uint256[](0) */\n      dup1\n      dup3\n      mstore\n      0x20\n      dup3\n      add\n      swap1\n      swap3\n      mstore\n      shl(0xf8, 0x0f)\n        /* \"@openzeppelin/contracts/utils/cryptography/EIP712.sol\":5482:5694  return (... */\n      swap12\n      swap4\n      swap11\n      pop\n      swap2\n      swap9\n      pop\n        /* \"@openzeppelin/contracts/utils/cryptography/EIP712.sol\":5590:5603  block.chainid */\n      chainid\n      swap8\n      pop\n        /* \"@openzeppelin/contracts/utils/cryptography/EIP712.sol\":5625:5629  this */\n      address\n      swap7\n      pop\n        /* \"@openzeppelin/contracts/utils/cryptography/EIP712.sol\":5652:5653  0 */\n      swap5\n      pop\n        /* \"@openzeppelin/contracts/utils/cryptography/EIP712.sol\":5668:5684  new uint256[](0) */\n      swap3\n      pop\n        /* \"@openzeppelin/contracts/utils/cryptography/EIP712.sol\":5482:5694  return (... */\n      swap1\n      pop\n        /* \"@openzeppelin/contracts/utils/cryptography/EIP712.sol\":5144:5701  function eip712Domain()... */\n      jump\t// out\n        /* \"@openzeppelin/contracts/access/AccessControl.sol\":2854:2990  function hasRole(bytes32 role, address account) public view virtual returns (bool) {... */\n    tag_99:\n        /* \"@openzeppelin/contracts/access/AccessControl.sol\":2931:2935  bool */\n      0x00\n        /* \"@openzeppelin/contracts/access/AccessControl.sol\":2954:2966  _roles[role] */\n      swap2\n      dup3\n      mstore\n        /* \"@openzeppelin/contracts/access/AccessControl.sol\":2954:2960  _roles */\n      0x05\n        /* \"@openzeppelin/contracts/access/AccessControl.sol\":2954:2966  _roles[role] */\n      0x20\n      swap1\n      dup2\n      mstore\n      0x40\n      dup1\n      dup5\n      keccak256\n      sub(shl(0xa0, 0x01), 0x01)\n        /* \"@openzeppelin/contracts/access/AccessControl.sol\":2954:2983  _roles[role].hasRole[account] */\n      swap4\n      swap1\n      swap4\n      and\n      dup5\n      mstore\n      swap2\n      swap1\n      mstore\n      swap1\n      keccak256\n      sload\n      0xff\n      and\n      swap1\n        /* \"@openzeppelin/contracts/access/AccessControl.sol\":2854:2990  function hasRole(bytes32 role, address account) public view virtual returns (bool) {... */\n      jump\t// out\n        /* \"@openzeppelin/contracts/token/ERC20/ERC20.sol\":2276:2369  function symbol() public view virtual returns (string memory) {... */\n    tag_102:\n        /* \"@openzeppelin/contracts/token/ERC20/ERC20.sol\":2323:2336  string memory */\n      0x60\n        /* \"@openzeppelin/contracts/token/ERC20/ERC20.sol\":2355:2362  _symbol */\n      0x04\n        /* \"@openzeppelin/contracts/token/ERC20/ERC20.sol\":2348:2362  return _symbol */\n      dup1\n      sload\n      tag_131\n      swap1\n      tag_132\n      jump\t// in\n        /* \"@openzeppelin/contracts/token/ERC20/ERC20.sol\":3610:3788  function transfer(address to, uint256 value) public virtual returns (bool) {... */\n    tag_109:\n        /* \"@openzeppelin/contracts/token/ERC20/ERC20.sol\":3679:3683  bool */\n      0x00\n        /* \"@openzeppelin/contracts/utils/Context.sol\":735:745  msg.sender */\n      caller\n        /* \"@openzeppelin/contracts/token/ERC20/ERC20.sol\":3733:3760  _transfer(owner, to, value) */\n      tag_140\n        /* \"@openzeppelin/contracts/utils/Context.sol\":735:745  msg.sender */\n      dup2\n        /* \"@openzeppelin/contracts/token/ERC20/ERC20.sol\":3750:3752  to */\n      dup6\n        /* \"@openzeppelin/contracts/token/ERC20/ERC20.sol\":3754:3759  value */\n      dup6\n        /* \"@openzeppelin/contracts/token/ERC20/ERC20.sol\":3733:3742  _transfer */\n      tag_148\n        /* \"@openzeppelin/contracts/token/ERC20/ERC20.sol\":3733:3760  _transfer(owner, to, value) */\n      jump\t// in\n        /* \"@openzeppelin/contracts/token/ERC20/extensions/ERC20Permit.sol\":1680:2352  function permit(... */\n    tag_114:\n        /* \"@openzeppelin/contracts/token/ERC20/extensions/ERC20Permit.sol\":1901:1909  deadline */\n      dup4\n        /* \"@openzeppelin/contracts/token/ERC20/extensions/ERC20Permit.sol\":1883:1898  block.timestamp */\n      timestamp\n        /* \"@openzeppelin/contracts/token/ERC20/extensions/ERC20Permit.sol\":1883:1909  block.timestamp > deadline */\n      gt\n        /* \"@openzeppelin/contracts/token/ERC20/extensions/ERC20Permit.sol\":1879:1976  if (block.timestamp > deadline) {... */\n      iszero\n      tag_203\n      jumpi\n        /* \"@openzeppelin/contracts/token/ERC20/extensions/ERC20Permit.sol\":1932:1965  ERC2612ExpiredSignature(deadline) */\n      mload(0x40)\n      shl(0xe1, 0x313c8981)\n      dup2\n      mstore\n      0x04\n      dup2\n      add\n        /* \"#utility.yul\":1733:1758   */\n      dup6\n      swap1\n      mstore\n        /* \"#utility.yul\":1706:1724   */\n      0x24\n      add\n        /* \"@openzeppelin/contracts/token/ERC20/extensions/ERC20Permit.sol\":1932:1965  ERC2612ExpiredSignature(deadline) */\n    tag_204:\n      mload(0x40)\n      dup1\n      swap2\n      sub\n      swap1\n      revert\n        /* \"@openzeppelin/contracts/token/ERC20/extensions/ERC20Permit.sol\":1879:1976  if (block.timestamp > deadline) {... */\n    tag_203:\n        /* \"@openzeppelin/contracts/token/ERC20/extensions/ERC20Permit.sol\":1986:2004  bytes32 structHash */\n      0x00\n        /* \"@openzeppelin/contracts/token/ERC20/extensions/ERC20Permit.sol\":1022:1117  keccak256(\"Permit(address owner,address spender,uint256 value,uint256 nonce,uint256 deadline)\") */\n      0x6e71edae12b1b97f4d1f60370fef10105fa2faae0126114a169c64845d6126c9\n        /* \"@openzeppelin/contracts/token/ERC20/extensions/ERC20Permit.sol\":2045:2050  owner */\n      dup9\n        /* \"@openzeppelin/contracts/token/ERC20/extensions/ERC20Permit.sol\":2052:2059  spender */\n      dup9\n        /* \"@openzeppelin/contracts/token/ERC20/extensions/ERC20Permit.sol\":2061:2066  value */\n      dup9\n        /* \"@openzeppelin/contracts/token/ERC20/extensions/ERC20Permit.sol\":2068:2084  _useNonce(owner) */\n      tag_205\n        /* \"@openzeppelin/contracts/token/ERC20/extensions/ERC20Permit.sol\":2078:2083  owner */\n      dup13\n      sub(shl(0xa0, 0x01), 0x01)\n        /* \"@openzeppelin/contracts/utils/Nonces.sol\":1121:1135  _nonces[owner] */\n      and\n        /* \"@openzeppelin/contracts/utils/Nonces.sol\":819:826  uint256 */\n      0x00\n        /* \"@openzeppelin/contracts/utils/Nonces.sol\":1121:1135  _nonces[owner] */\n      swap1\n      dup2\n      mstore\n        /* \"@openzeppelin/contracts/utils/Nonces.sol\":1121:1128  _nonces */\n      0x08\n        /* \"@openzeppelin/contracts/utils/Nonces.sol\":1121:1135  _nonces[owner] */\n      0x20\n      mstore\n      0x40\n      swap1\n      keccak256\n        /* \"@openzeppelin/contracts/utils/Nonces.sol\":1121:1137  _nonces[owner]++ */\n      dup1\n      sload\n      0x01\n      dup2\n      add\n      swap1\n      swap2\n      sstore\n      swap1\n        /* \"@openzeppelin/contracts/utils/Nonces.sol\":759:1154  function _useNonce(address owner) internal virtual returns (uint256) {... */\n      jump\n        /* \"@openzeppelin/contracts/token/ERC20/extensions/ERC20Permit.sol\":2068:2084  _useNonce(owner) */\n    tag_205:\n        /* \"@openzeppelin/contracts/token/ERC20/extensions/ERC20Permit.sol\":2017:2095  abi.encode(PERMIT_TYPEHASH, owner, spender, value, _useNonce(owner), deadline) */\n      0x40\n      dup1\n      mload\n      0x20\n      dup2\n      add\n        /* \"#utility.yul\":6324:6349   */\n      swap7\n      swap1\n      swap7\n      mstore\n      sub(shl(0xa0, 0x01), 0x01)\n        /* \"#utility.yul\":6423:6438   */\n      swap5\n      dup6\n      and\n        /* \"#utility.yul\":6403:6421   */\n      swap1\n      dup7\n      add\n        /* \"#utility.yul\":6396:6439   */\n      mstore\n        /* \"#utility.yul\":6475:6490   */\n      swap3\n      swap1\n      swap2\n      and\n        /* \"#utility.yul\":6455:6473   */\n      0x60\n      dup5\n      add\n        /* \"#utility.yul\":6448:6491   */\n      mstore\n        /* \"#utility.yul\":6507:6525   */\n      0x80\n      dup4\n      add\n        /* \"#utility.yul\":6500:6534   */\n      mstore\n        /* \"#utility.yul\":6550:6569   */\n      0xa0\n      dup3\n      add\n        /* \"#utility.yul\":6543:6578   */\n      mstore\n        /* \"#utility.yul\":6594:6613   */\n      0xc0\n      dup2\n      add\n        /* \"#utility.yul\":6587:6622   */\n      dup7\n      swap1\n      mstore\n        /* \"#utility.yul\":6296:6315   */\n      0xe0\n      add\n        /* \"@openzeppelin/contracts/token/ERC20/extensions/ERC20Permit.sol\":2017:2095  abi.encode(PERMIT_TYPEHASH, owner, spender, value, _useNonce(owner), deadline) */\n      mload(0x40)\n      0x20\n      dup2\n      dup4\n      sub\n      sub\n      dup2\n      mstore\n      swap1\n      0x40\n      mstore\n        /* \"@openzeppelin/contracts/token/ERC20/extensions/ERC20Permit.sol\":2007:2096  keccak256(abi.encode(PERMIT_TYPEHASH, owner, spender, value, _useNonce(owner), deadline)) */\n      dup1\n      mload\n      swap1\n      0x20\n      add\n      keccak256\n        /* \"@openzeppelin/contracts/token/ERC20/extensions/ERC20Permit.sol\":1986:2096  bytes32 structHash = keccak256(abi.encode(PERMIT_TYPEHASH, owner, spender, value, _useNonce(owner), deadline)) */\n      swap1\n      pop\n        /* \"@openzeppelin/contracts/token/ERC20/extensions/ERC20Permit.sol\":2107:2119  bytes32 hash */\n      0x00\n        /* \"@openzeppelin/contracts/token/ERC20/extensions/ERC20Permit.sol\":2122:2150  _hashTypedDataV4(structHash) */\n      tag_209\n        /* \"@openzeppelin/contracts/token/ERC20/extensions/ERC20Permit.sol\":2139:2149  structHash */\n      dup3\n        /* \"@openzeppelin/contracts/token/ERC20/extensions/ERC20Permit.sol\":2122:2138  _hashTypedDataV4 */\n      tag_210\n        /* \"@openzeppelin/contracts/token/ERC20/extensions/ERC20Permit.sol\":2122:2150  _hashTypedDataV4(structHash) */\n      jump\t// in\n    tag_209:\n        /* \"@openzeppelin/contracts/token/ERC20/extensions/ERC20Permit.sol\":2107:2150  bytes32 hash = _hashTypedDataV4(structHash) */\n      swap1\n      pop\n        /* \"@openzeppelin/contracts/token/ERC20/extensions/ERC20Permit.sol\":2161:2175  address signer */\n      0x00\n        /* \"@openzeppelin/contracts/token/ERC20/extensions/ERC20Permit.sol\":2178:2206  ECDSA.recover(hash, v, r, s) */\n      tag_211\n        /* \"@openzeppelin/contracts/token/ERC20/extensions/ERC20Permit.sol\":2192:2196  hash */\n      dup3\n        /* \"@openzeppelin/contracts/token/ERC20/extensions/ERC20Permit.sol\":2198:2199  v */\n      dup8\n        /* \"@openzeppelin/contracts/token/ERC20/extensions/ERC20Permit.sol\":2201:2202  r */\n      dup8\n        /* \"@openzeppelin/contracts/token/ERC20/extensions/ERC20Permit.sol\":2204:2205  s */\n      dup8\n        /* \"@openzeppelin/contracts/token/ERC20/extensions/ERC20Permit.sol\":2178:2191  ECDSA.recover */\n      tag_212\n        /* \"@openzeppelin/contracts/token/ERC20/extensions/ERC20Permit.sol\":2178:2206  ECDSA.recover(hash, v, r, s) */\n      jump\t// in\n    tag_211:\n        /* \"@openzeppelin/contracts/token/ERC20/extensions/ERC20Permit.sol\":2161:2206  address signer = ECDSA.recover(hash, v, r, s) */\n      swap1\n      pop\n        /* \"@openzeppelin/contracts/token/ERC20/extensions/ERC20Permit.sol\":2230:2235  owner */\n      dup10\n      sub(shl(0xa0, 0x01), 0x01)\n        /* \"@openzeppelin/contracts/token/ERC20/extensions/ERC20Permit.sol\":2220:2235  signer != owner */\n      and\n        /* \"@openzeppelin/contracts/token/ERC20/extensions/ERC20Permit.sol\":2220:2226  signer */\n      dup2\n      sub(shl(0xa0, 0x01), 0x01)\n        /* \"@openzeppelin/contracts/token/ERC20/extensions/ERC20Permit.sol\":2220:2235  signer != owner */\n      and\n      eq\n        /* \"@openzeppelin/contracts/token/ERC20/extensions/ERC20Permit.sol\":2216:2304  if (signer != owner) {... */\n      tag_213\n      jumpi\n        /* \"@openzeppelin/contracts/token/ERC20/extensions/ERC20Permit.sol\":2258:2293  ERC2612InvalidSigner(signer, owner) */\n      mload(0x40)\n      shl(0xe1, 0x25c00723)\n      dup2\n      mstore\n      sub(shl(0xa0, 0x01), 0x01)\n        /* \"#utility.yul\":6863:6878   */\n      dup1\n      dup4\n      and\n        /* \"@openzeppelin/contracts/token/ERC20/extensions/ERC20Permit.sol\":2258:2293  ERC2612InvalidSigner(signer, owner) */\n      0x04\n      dup4\n      add\n        /* \"#utility.yul\":6845:6879   */\n      mstore\n        /* \"#utility.yul\":6915:6930   */\n      dup12\n      and\n        /* \"#utility.yul\":6895:6913   */\n      0x24\n      dup3\n      add\n        /* \"#utility.yul\":6888:6931   */\n      mstore\n        /* \"#utility.yul\":6780:6798   */\n      0x44\n      add\n        /* \"@openzeppelin/contracts/token/ERC20/extensions/ERC20Permit.sol\":2258:2293  ERC2612InvalidSigner(signer, owner) */\n      tag_204\n        /* \"#utility.yul\":6633:6937   */\n      jump\n        /* \"@openzeppelin/contracts/token/ERC20/extensions/ERC20Permit.sol\":2216:2304  if (signer != owner) {... */\n    tag_213:\n        /* \"@openzeppelin/contracts/token/ERC20/extensions/ERC20Permit.sol\":2314:2345  _approve(owner, spender, value) */\n      tag_216\n        /* \"@openzeppelin/contracts/token/ERC20/extensions/ERC20Permit.sol\":2323:2328  owner */\n      dup11\n        /* \"@openzeppelin/contracts/token/ERC20/extensions/ERC20Permit.sol\":2330:2337  spender */\n      dup11\n        /* \"@openzeppelin/contracts/token/ERC20/extensions/ERC20Permit.sol\":2339:2344  value */\n      dup11\n        /* \"@openzeppelin/contracts/token/ERC20/extensions/ERC20Permit.sol\":2314:2322  _approve */\n      tag_141\n        /* \"@openzeppelin/contracts/token/ERC20/extensions/ERC20Permit.sol\":2314:2345  _approve(owner, spender, value) */\n      jump\t// in\n    tag_216:\n        /* \"@openzeppelin/contracts/token/ERC20/extensions/ERC20Permit.sol\":1869:2352  {... */\n      pop\n      pop\n      pop\n        /* \"@openzeppelin/contracts/token/ERC20/extensions/ERC20Permit.sol\":1680:2352  function permit(... */\n      pop\n      pop\n      pop\n      pop\n      pop\n      pop\n      pop\n      jump\t// out\n        /* \"@openzeppelin/contracts/access/AccessControl.sol\":4642:4780  function revokeRole(bytes32 role, address account) public virtual onlyRole(getRoleAdmin(role)) {... */\n    tag_120:\n        /* \"@openzeppelin/contracts/access/AccessControl.sol\":3875:3882  bytes32 */\n      0x00\n        /* \"@openzeppelin/contracts/access/AccessControl.sol\":3901:3913  _roles[role] */\n      dup3\n      dup2\n      mstore\n        /* \"@openzeppelin/contracts/access/AccessControl.sol\":3901:3907  _roles */\n      0x05\n        /* \"@openzeppelin/contracts/access/AccessControl.sol\":3901:3913  _roles[role] */\n      0x20\n      mstore\n      0x40\n      swap1\n      keccak256\n        /* \"@openzeppelin/contracts/access/AccessControl.sol\":3901:3923  _roles[role].adminRole */\n      0x01\n      add\n      sload\n        /* \"@openzeppelin/contracts/access/AccessControl.sol\":2464:2480  _checkRole(role) */\n      tag_219\n        /* \"@openzeppelin/contracts/access/AccessControl.sol\":2475:2479  role */\n      dup2\n        /* \"@openzeppelin/contracts/access/AccessControl.sol\":2464:2474  _checkRole */\n      tag_153\n        /* \"@openzeppelin/contracts/access/AccessControl.sol\":2464:2480  _checkRole(role) */\n      jump\t// in\n    tag_219:\n        /* \"@openzeppelin/contracts/access/AccessControl.sol\":4747:4773  _revokeRole(role, account) */\n      tag_155\n        /* \"@openzeppelin/contracts/access/AccessControl.sol\":4759:4763  role */\n      dup4\n        /* \"@openzeppelin/contracts/access/AccessControl.sol\":4765:4772  account */\n      dup4\n        /* \"@openzeppelin/contracts/access/AccessControl.sol\":4747:4758  _revokeRole */\n      tag_165\n        /* \"@openzeppelin/contracts/access/AccessControl.sol\":4747:4773  _revokeRole(role, account) */\n      jump\t// in\n        /* \"@openzeppelin/contracts/token/ERC20/ERC20.sol\":8989:9117  function _approve(address owner, address spender, uint256 value) internal {... */\n    tag_141:\n        /* \"@openzeppelin/contracts/token/ERC20/ERC20.sol\":9073:9110  _approve(owner, spender, value, true) */\n      tag_164\n        /* \"@openzeppelin/contracts/token/ERC20/ERC20.sol\":9082:9087  owner */\n      dup4\n        /* \"@openzeppelin/contracts/token/ERC20/ERC20.sol\":9089:9096  spender */\n      dup4\n        /* \"@openzeppelin/contracts/token/ERC20/ERC20.sol\":9098:9103  value */\n      dup4\n        /* \"@openzeppelin/contracts/token/ERC20/ERC20.sol\":9105:9109  true */\n      0x01\n        /* \"@openzeppelin/contracts/token/ERC20/ERC20.sol\":9073:9081  _approve */\n      tag_227\n        /* \"@openzeppelin/contracts/token/ERC20/ERC20.sol\":9073:9110  _approve(owner, spender, value, true) */\n      jump\t// in\n        /* \"@openzeppelin/contracts/token/ERC20/ERC20.sol\":10663:11140  function _spendAllowance(address owner, address spender, uint256 value) internal virtual {... */\n    tag_146:\n      sub(shl(0xa0, 0x01), 0x01)\n        /* \"@openzeppelin/contracts/token/ERC20/ERC20.sol\":3952:3970  _allowances[owner] */\n      dup4\n      dup2\n      and\n        /* \"@openzeppelin/contracts/token/ERC20/ERC20.sol\":10762:10786  uint256 currentAllowance */\n      0x00\n        /* \"@openzeppelin/contracts/token/ERC20/ERC20.sol\":3952:3970  _allowances[owner] */\n      swap1\n      dup2\n      mstore\n        /* \"@openzeppelin/contracts/token/ERC20/ERC20.sol\":3952:3963  _allowances */\n      0x01\n        /* \"@openzeppelin/contracts/token/ERC20/ERC20.sol\":3952:3970  _allowances[owner] */\n      0x20\n      swap1\n      dup2\n      mstore\n      0x40\n      dup1\n      dup4\n      keccak256\n        /* \"@openzeppelin/contracts/token/ERC20/ERC20.sol\":3952:3979  _allowances[owner][spender] */\n      swap4\n      dup7\n      and\n      dup4\n      mstore\n      swap3\n      swap1\n      mstore\n      keccak256\n      sload\n      not(0x00)\n        /* \"@openzeppelin/contracts/token/ERC20/ERC20.sol\":10828:10865  currentAllowance != type(uint256).max */\n      dup2\n      eq\n        /* \"@openzeppelin/contracts/token/ERC20/ERC20.sol\":10824:11134  if (currentAllowance != type(uint256).max) {... */\n      tag_155\n      jumpi\n        /* \"@openzeppelin/contracts/token/ERC20/ERC20.sol\":10904:10909  value */\n      dup2\n        /* \"@openzeppelin/contracts/token/ERC20/ERC20.sol\":10885:10901  currentAllowance */\n      dup2\n        /* \"@openzeppelin/contracts/token/ERC20/ERC20.sol\":10885:10909  currentAllowance < value */\n      lt\n        /* \"@openzeppelin/contracts/token/ERC20/ERC20.sol\":10881:11011  if (currentAllowance < value) {... */\n      iszero\n      tag_231\n      jumpi\n        /* \"@openzeppelin/contracts/token/ERC20/ERC20.sol\":10936:10996  ERC20InsufficientAllowance(spender, currentAllowance, value) */\n      mload(0x40)\n      shl(0xe1, 0x7dc7a0d9)\n      dup2\n      mstore\n      sub(shl(0xa0, 0x01), 0x01)\n        /* \"#utility.yul\":7162:7194   */\n      dup5\n      and\n        /* \"@openzeppelin/contracts/token/ERC20/ERC20.sol\":10936:10996  ERC20InsufficientAllowance(spender, currentAllowance, value) */\n      0x04\n      dup3\n      add\n        /* \"#utility.yul\":7144:7195   */\n      mstore\n        /* \"#utility.yul\":7211:7229   */\n      0x24\n      dup2\n      add\n        /* \"#utility.yul\":7204:7238   */\n      dup3\n      swap1\n      mstore\n        /* \"#utility.yul\":7254:7272   */\n      0x44\n      dup2\n      add\n        /* \"#utility.yul\":7247:7281   */\n      dup4\n      swap1\n      mstore\n        /* \"#utility.yul\":7117:7135   */\n      0x64\n      add\n        /* \"@openzeppelin/contracts/token/ERC20/ERC20.sol\":10936:10996  ERC20InsufficientAllowance(spender, currentAllowance, value) */\n      tag_204\n        /* \"#utility.yul\":6942:7287   */\n      jump\n        /* \"@openzeppelin/contracts/token/ERC20/ERC20.sol\":10881:11011  if (currentAllowance < value) {... */\n    tag_231:\n        /* \"@openzeppelin/contracts/token/ERC20/ERC20.sol\":11052:11109  _approve(owner, spender, currentAllowance - value, false) */\n      tag_155\n        /* \"@openzeppelin/contracts/token/ERC20/ERC20.sol\":11061:11066  owner */\n      dup5\n        /* \"@openzeppelin/contracts/token/ERC20/ERC20.sol\":11068:11075  spender */\n      dup5\n        /* \"@openzeppelin/contracts/token/ERC20/ERC20.sol\":11096:11101  value */\n      dup5\n        /* \"@openzeppelin/contracts/token/ERC20/ERC20.sol\":11077:11093  currentAllowance */\n      dup5\n        /* \"@openzeppelin/contracts/token/ERC20/ERC20.sol\":11077:11101  currentAllowance - value */\n      sub\n        /* \"@openzeppelin/contracts/token/ERC20/ERC20.sol\":11103:11108  false */\n      0x00\n        /* \"@openzeppelin/contracts/token/ERC20/ERC20.sol\":11052:11060  _approve */\n      tag_227\n        /* \"@openzeppelin/contracts/token/ERC20/ERC20.sol\":11052:11109  _approve(owner, spender, currentAllowance - value, false) */\n      jump\t// in\n        /* \"@openzeppelin/contracts/token/ERC20/ERC20.sol\":5656:5956  function _transfer(address from, address to, uint256 value) internal {... */\n    tag_148:\n      sub(shl(0xa0, 0x01), 0x01)\n        /* \"@openzeppelin/contracts/token/ERC20/ERC20.sol\":5739:5757  from == address(0) */\n      dup4\n      and\n        /* \"@openzeppelin/contracts/token/ERC20/ERC20.sol\":5735:5821  if (from == address(0)) {... */\n      tag_236\n      jumpi\n        /* \"@openzeppelin/contracts/token/ERC20/ERC20.sol\":5780:5810  ERC20InvalidSender(address(0)) */\n      mload(0x40)\n      shl(0xe1, 0x4b637e8f)\n      dup2\n      mstore\n        /* \"@openzeppelin/contracts/token/ERC20/ERC20.sol\":5807:5808  0 */\n      0x00\n        /* \"@openzeppelin/contracts/token/ERC20/ERC20.sol\":5780:5810  ERC20InvalidSender(address(0)) */\n      0x04\n      dup3\n      add\n        /* \"#utility.yul\":7438:7489   */\n      mstore\n        /* \"#utility.yul\":7411:7429   */\n      0x24\n      add\n        /* \"@openzeppelin/contracts/token/ERC20/ERC20.sol\":5780:5810  ERC20InvalidSender(address(0)) */\n      tag_204\n        /* \"#utility.yul\":7292:7495   */\n      jump\n        /* \"@openzeppelin/contracts/token/ERC20/ERC20.sol\":5735:5821  if (from == address(0)) {... */\n    tag_236:\n      sub(shl(0xa0, 0x01), 0x01)\n        /* \"@openzeppelin/contracts/token/ERC20/ERC20.sol\":5834:5850  to == address(0) */\n      dup3\n      and\n        /* \"@openzeppelin/contracts/token/ERC20/ERC20.sol\":5830:5916  if (to == address(0)) {... */\n      tag_239\n      jumpi\n        /* \"@openzeppelin/contracts/token/ERC20/ERC20.sol\":5873:5905  ERC20InvalidReceiver(address(0)) */\n      mload(0x40)\n      shl(0xe0, 0xec442f05)\n      dup2\n      mstore\n        /* \"@openzeppelin/contracts/token/ERC20/ERC20.sol\":5902:5903  0 */\n      0x00\n        /* \"@openzeppelin/contracts/token/ERC20/ERC20.sol\":5873:5905  ERC20InvalidReceiver(address(0)) */\n      0x04\n      dup3\n      add\n        /* \"#utility.yul\":7438:7489   */\n      mstore\n        /* \"#utility.yul\":7411:7429   */\n      0x24\n      add\n        /* \"@openzeppelin/contracts/token/ERC20/ERC20.sol\":5873:5905  ERC20InvalidReceiver(address(0)) */\n      tag_204\n        /* \"#utility.yul\":7292:7495   */\n      jump\n        /* \"@openzeppelin/contracts/token/ERC20/ERC20.sol\":5830:5916  if (to == address(0)) {... */\n    tag_239:\n        /* \"@openzeppelin/contracts/token/ERC20/ERC20.sol\":5925:5949  _update(from, to, value) */\n      tag_164\n        /* \"@openzeppelin/contracts/token/ERC20/ERC20.sol\":5933:5937  from */\n      dup4\n        /* \"@openzeppelin/contracts/token/ERC20/ERC20.sol\":5939:5941  to */\n      dup4\n        /* \"@openzeppelin/contracts/token/ERC20/ERC20.sol\":5943:5948  value */\n      dup4\n        /* \"@openzeppelin/contracts/token/ERC20/ERC20.sol\":5925:5932  _update */\n      tag_242\n        /* \"@openzeppelin/contracts/token/ERC20/ERC20.sol\":5925:5949  _update(from, to, value) */\n      jump\t// in\n        /* \"@openzeppelin/contracts/access/AccessControl.sol\":3199:3302  function _checkRole(bytes32 role) internal view virtual {... */\n    tag_153:\n        /* \"@openzeppelin/contracts/access/AccessControl.sol\":3265:3295  _checkRole(role, _msgSender()) */\n      tag_172\n        /* \"@openzeppelin/contracts/access/AccessControl.sol\":3276:3280  role */\n      dup2\n        /* \"@openzeppelin/contracts/utils/Context.sol\":735:745  msg.sender */\n      caller\n        /* \"@openzeppelin/contracts/access/AccessControl.sol\":3265:3275  _checkRole */\n      tag_246\n        /* \"@openzeppelin/contracts/access/AccessControl.sol\":3265:3295  _checkRole(role, _msgSender()) */\n      jump\t// in\n        /* \"@openzeppelin/contracts/access/AccessControl.sol\":6179:6495  function _grantRole(bytes32 role, address account) internal virtual returns (bool) {... */\n    tag_156:\n        /* \"@openzeppelin/contracts/access/AccessControl.sol\":6256:6260  bool */\n      0x00\n        /* \"@openzeppelin/contracts/access/AccessControl.sol\":6277:6299  hasRole(role, account) */\n      tag_248\n        /* \"@openzeppelin/contracts/access/AccessControl.sol\":6285:6289  role */\n      dup4\n        /* \"@openzeppelin/contracts/access/AccessControl.sol\":6291:6298  account */\n      dup4\n        /* \"@openzeppelin/contracts/access/AccessControl.sol\":6277:6284  hasRole */\n      tag_99\n        /* \"@openzeppelin/contracts/access/AccessControl.sol\":6277:6299  hasRole(role, account) */\n      jump\t// in\n    tag_248:\n        /* \"@openzeppelin/contracts/access/AccessControl.sol\":6272:6489  if (!hasRole(role, account)) {... */\n      tag_249\n      jumpi\n        /* \"@openzeppelin/contracts/access/AccessControl.sol\":6315:6327  _roles[role] */\n      0x00\n      dup4\n      dup2\n      mstore\n        /* \"@openzeppelin/contracts/access/AccessControl.sol\":6315:6321  _roles */\n      0x05\n        /* \"@openzeppelin/contracts/access/AccessControl.sol\":6315:6327  _roles[role] */\n      0x20\n      swap1\n      dup2\n      mstore\n      0x40\n      dup1\n      dup4\n      keccak256\n      sub(shl(0xa0, 0x01), 0x01)\n        /* \"@openzeppelin/contracts/access/AccessControl.sol\":6315:6344  _roles[role].hasRole[account] */\n      dup7\n      and\n      dup5\n      mstore\n      swap1\n      swap2\n      mstore\n      swap1\n      keccak256\n        /* \"@openzeppelin/contracts/access/AccessControl.sol\":6315:6351  _roles[role].hasRole[account] = true */\n      dup1\n      sload\n      not(0xff)\n      and\n        /* \"@openzeppelin/contracts/access/AccessControl.sol\":6347:6351  true */\n      0x01\n        /* \"@openzeppelin/contracts/access/AccessControl.sol\":6315:6351  _roles[role].hasRole[account] = true */\n      or\n      swap1\n      sstore\n        /* \"@openzeppelin/contracts/access/AccessControl.sol\":6397:6409  _msgSender() */\n      tag_250\n        /* \"@openzeppelin/contracts/utils/Context.sol\":735:745  msg.sender */\n      caller\n      swap1\n        /* \"@openzeppelin/contracts/utils/Context.sol\":656:752  function _msgSender() internal view virtual returns (address) {... */\n      jump\n        /* \"@openzeppelin/contracts/access/AccessControl.sol\":6397:6409  _msgSender() */\n    tag_250:\n      sub(shl(0xa0, 0x01), 0x01)\n        /* \"@openzeppelin/contracts/access/AccessControl.sol\":6370:6410  RoleGranted(role, account, _msgSender()) */\n      and\n        /* \"@openzeppelin/contracts/access/AccessControl.sol\":6388:6395  account */\n      dup3\n      sub(shl(0xa0, 0x01), 0x01)\n        /* \"@openzeppelin/contracts/access/AccessControl.sol\":6370:6410  RoleGranted(role, account, _msgSender()) */\n      and\n        /* \"@openzeppelin/contracts/access/AccessControl.sol\":6382:6386  role */\n      dup5\n        /* \"@openzeppelin/contracts/access/AccessControl.sol\":6370:6410  RoleGranted(role, account, _msgSender()) */\n      0x2f8788117e7eff1d82e926ec794901d17c78024a50270940304540a733656f0d\n      mload(0x40)\n      mload(0x40)\n      dup1\n      swap2\n      sub\n      swap1\n      log4\n      pop\n        /* \"@openzeppelin/contracts/access/AccessControl.sol\":6431:6435  true */\n      0x01\n        /* \"@openzeppelin/contracts/access/AccessControl.sol\":6424:6435  return true */\n      jump(tag_128)\n        /* \"@openzeppelin/contracts/access/AccessControl.sol\":6272:6489  if (!hasRole(role, account)) {... */\n    tag_249:\n      pop\n        /* \"@openzeppelin/contracts/access/AccessControl.sol\":6473:6478  false */\n      0x00\n        /* \"@openzeppelin/contracts/access/AccessControl.sol\":6466:6478  return false */\n      jump(tag_128)\n        /* \"@openzeppelin/contracts/utils/cryptography/EIP712.sol\":3845:4107  function _domainSeparatorV4() internal view returns (bytes32) {... */\n    tag_160:\n        /* \"@openzeppelin/contracts/utils/cryptography/EIP712.sol\":3898:3905  bytes32 */\n      0x00\n        /* \"@openzeppelin/contracts/utils/cryptography/EIP712.sol\":3929:3933  this */\n      address\n      sub(shl(0xa0, 0x01), 0x01)\n        /* \"@openzeppelin/contracts/utils/cryptography/EIP712.sol\":3938:3949  _cachedThis */\n      immutable(\"0x902ad16d9ec45fbca0c849777755689089732af4097a8888a3fbc2c9e197fb0c\")\n        /* \"@openzeppelin/contracts/utils/cryptography/EIP712.sol\":3921:3949  address(this) == _cachedThis */\n      and\n      eq\n        /* \"@openzeppelin/contracts/utils/cryptography/EIP712.sol\":3921:3984  address(this) == _cachedThis && block.chainid == _cachedChainId */\n      dup1\n      iszero\n      tag_253\n      jumpi\n      pop\n        /* \"@openzeppelin/contracts/utils/cryptography/EIP712.sol\":3970:3984  _cachedChainId */\n      immutable(\"0x584d742cf99caaa476dcd31433c7121358f07a811e28134e9e43d94579170813\")\n        /* \"@openzeppelin/contracts/utils/cryptography/EIP712.sol\":3953:3966  block.chainid */\n      chainid\n        /* \"@openzeppelin/contracts/utils/cryptography/EIP712.sol\":3953:3984  block.chainid == _cachedChainId */\n      eq\n        /* \"@openzeppelin/contracts/utils/cryptography/EIP712.sol\":3921:3984  address(this) == _cachedThis && block.chainid == _cachedChainId */\n    tag_253:\n        /* \"@openzeppelin/contracts/utils/cryptography/EIP712.sol\":3917:4101  if (address(this) == _cachedThis && block.chainid == _cachedChainId) {... */\n      iszero\n      tag_254\n      jumpi\n      pop\n        /* \"@openzeppelin/contracts/utils/cryptography/EIP712.sol\":4007:4029  _cachedDomainSeparator */\n      immutable(\"0xe8d41dbd7fb6c175dc9dace4efb33129a6f35d6d989a325dad36e594e9495379\")\n      swap1\n        /* \"@openzeppelin/contracts/utils/cryptography/EIP712.sol\":3845:4107  function _domainSeparatorV4() internal view returns (bytes32) {... */\n      jump\t// out\n        /* \"@openzeppelin/contracts/utils/cryptography/EIP712.sol\":3917:4101  if (address(this) == _cachedThis && block.chainid == _cachedChainId) {... */\n    tag_254:\n        /* \"@openzeppelin/contracts/utils/cryptography/EIP712.sol\":4067:4090  _buildDomainSeparator() */\n      tag_159\n        /* \"@openzeppelin/contracts/utils/cryptography/EIP712.sol\":4204:4284  abi.encode(TYPE_HASH, _hashedName, _hashedVersion, block.chainid, address(this)) */\n      0x40\n      dup1\n      mload\n        /* \"@openzeppelin/contracts/utils/cryptography/EIP712.sol\":2079:2174  keccak256(\"EIP712Domain(string name,string version,uint256 chainId,address verifyingContract)\") */\n      0x8b73c3c69bb8fe3d512ecc4cf759cc79239f7b179b0ffacaa9a75d522b39400f\n        /* \"@openzeppelin/contracts/utils/cryptography/EIP712.sol\":4204:4284  abi.encode(TYPE_HASH, _hashedName, _hashedVersion, block.chainid, address(this)) */\n      0x20\n      dup3\n      add\n        /* \"#utility.yul\":8265:8290   */\n      mstore\n        /* \"@openzeppelin/contracts/utils/cryptography/EIP712.sol\":4226:4237  _hashedName */\n      immutable(\"0x12f7fb91a209395c061c8c60845e4c12fd130b19cfa28309a90ee6aad33614af\")\n        /* \"#utility.yul\":8306:8324   */\n      swap2\n      dup2\n      add\n        /* \"#utility.yul\":8299:8333   */\n      swap2\n      swap1\n      swap2\n      mstore\n        /* \"@openzeppelin/contracts/utils/cryptography/EIP712.sol\":4239:4253  _hashedVersion */\n      immutable(\"0x12e5c326a416b9218089ddbf8393c3f044616da95c0e0d482ca48c6df9dbd796\")\n        /* \"#utility.yul\":8349:8367   */\n      0x60\n      dup3\n      add\n        /* \"#utility.yul\":8342:8376   */\n      mstore\n        /* \"@openzeppelin/contracts/utils/cryptography/EIP712.sol\":4255:4268  block.chainid */\n      chainid\n        /* \"#utility.yul\":8392:8410   */\n      0x80\n      dup3\n      add\n        /* \"#utility.yul\":8385:8419   */\n      mstore\n        /* \"@openzeppelin/contracts/utils/cryptography/EIP712.sol\":4278:4282  this */\n      address\n        /* \"#utility.yul\":8435:8454   */\n      0xa0\n      dup3\n      add\n        /* \"#utility.yul\":8428:8489   */\n      mstore\n        /* \"@openzeppelin/contracts/utils/cryptography/EIP712.sol\":4168:4175  bytes32 */\n      0x00\n      swap1\n        /* \"#utility.yul\":8237:8256   */\n      0xc0\n      add\n        /* \"@openzeppelin/contracts/utils/cryptography/EIP712.sol\":4204:4284  abi.encode(TYPE_HASH, _hashedName, _hashedVersion, block.chainid, address(this)) */\n      mload(0x40)\n      0x20\n      dup2\n      dup4\n      sub\n      sub\n      dup2\n      mstore\n      swap1\n      0x40\n      mstore\n        /* \"@openzeppelin/contracts/utils/cryptography/EIP712.sol\":4194:4285  keccak256(abi.encode(TYPE_HASH, _hashedName, _hashedVersion, block.chainid, address(this))) */\n      dup1\n      mload\n      swap1\n      0x20\n      add\n      keccak256\n        /* \"@openzeppelin/contracts/utils/cryptography/EIP712.sol\":4187:4285  return keccak256(abi.encode(TYPE_HASH, _hashedName, _hashedVersion, block.chainid, address(this))) */\n      swap1\n      pop\n        /* \"@openzeppelin/contracts/utils/cryptography/EIP712.sol\":4113:4292  function _buildDomainSeparator() private view returns (bytes32) {... */\n      swap1\n      jump\n        /* \"@openzeppelin/contracts/access/AccessControl.sol\":6730:7047  function _revokeRole(bytes32 role, address account) internal virtual returns (bool) {... */\n    tag_165:\n        /* \"@openzeppelin/contracts/access/AccessControl.sol\":6808:6812  bool */\n      0x00\n        /* \"@openzeppelin/contracts/access/AccessControl.sol\":6828:6850  hasRole(role, account) */\n      tag_259\n        /* \"@openzeppelin/contracts/access/AccessControl.sol\":6836:6840  role */\n      dup4\n        /* \"@openzeppelin/contracts/access/AccessControl.sol\":6842:6849  account */\n      dup4\n        /* \"@openzeppelin/contracts/access/AccessControl.sol\":6828:6835  hasRole */\n      tag_99\n        /* \"@openzeppelin/contracts/access/AccessControl.sol\":6828:6850  hasRole(role, account) */\n      jump\t// in\n    tag_259:\n        /* \"@openzeppelin/contracts/access/AccessControl.sol\":6824:7041  if (hasRole(role, account)) {... */\n      iszero\n      tag_249\n      jumpi\n        /* \"@openzeppelin/contracts/access/AccessControl.sol\":6898:6903  false */\n      0x00\n        /* \"@openzeppelin/contracts/access/AccessControl.sol\":6866:6878  _roles[role] */\n      dup4\n      dup2\n      mstore\n        /* \"@openzeppelin/contracts/access/AccessControl.sol\":6866:6872  _roles */\n      0x05\n        /* \"@openzeppelin/contracts/access/AccessControl.sol\":6866:6878  _roles[role] */\n      0x20\n      swap1\n      dup2\n      mstore\n      0x40\n      dup1\n      dup4\n      keccak256\n      sub(shl(0xa0, 0x01), 0x01)\n        /* \"@openzeppelin/contracts/access/AccessControl.sol\":6866:6895  _roles[role].hasRole[account] */\n      dup7\n      and\n      dup1\n      dup6\n      mstore\n      swap3\n      mstore\n      dup1\n      dup4\n      keccak256\n        /* \"@openzeppelin/contracts/access/AccessControl.sol\":6866:6903  _roles[role].hasRole[account] = false */\n      dup1\n      sload\n      not(0xff)\n      and\n      swap1\n      sstore\n        /* \"@openzeppelin/contracts/access/AccessControl.sol\":6922:6962  RoleRevoked(role, account, _msgSender()) */\n      mload\n        /* \"@openzeppelin/contracts/utils/Context.sol\":735:745  msg.sender */\n      caller\n      swap3\n        /* \"@openzeppelin/contracts/access/AccessControl.sol\":6866:6878  _roles[role] */\n      dup7\n      swap2\n        /* \"@openzeppelin/contracts/access/AccessControl.sol\":6922:6962  RoleRevoked(role, account, _msgSender()) */\n      0xf6391f5c32d9c69d2a47ea670b442974b53935d1edc7fd64eb21e047a839171b\n      swap2\n        /* \"@openzeppelin/contracts/access/AccessControl.sol\":6898:6903  false */\n      swap1\n        /* \"@openzeppelin/contracts/access/AccessControl.sol\":6922:6962  RoleRevoked(role, account, _msgSender()) */\n      log4\n      pop\n        /* \"@openzeppelin/contracts/access/AccessControl.sol\":6983:6987  true */\n      0x01\n        /* \"@openzeppelin/contracts/access/AccessControl.sol\":6976:6987  return true */\n      jump(tag_128)\n        /* \"@openzeppelin/contracts/token/ERC20/ERC20.sol\":7721:7929  function _mint(address account, uint256 value) internal {... */\n    tag_170:\n      sub(shl(0xa0, 0x01), 0x01)\n        /* \"@openzeppelin/contracts/token/ERC20/ERC20.sol\":7791:7812  account == address(0) */\n      dup3\n      and\n        /* \"@openzeppelin/contracts/token/ERC20/ERC20.sol\":7787:7878  if (account == address(0)) {... */\n      tag_264\n      jumpi\n        /* \"@openzeppelin/contracts/token/ERC20/ERC20.sol\":7835:7867  ERC20InvalidReceiver(address(0)) */\n      mload(0x40)\n      shl(0xe0, 0xec442f05)\n      dup2\n      mstore\n        /* \"@openzeppelin/contracts/token/ERC20/ERC20.sol\":7864:7865  0 */\n      0x00\n        /* \"@openzeppelin/contracts/token/ERC20/ERC20.sol\":7835:7867  ERC20InvalidReceiver(address(0)) */\n      0x04\n      dup3\n      add\n        /* \"#utility.yul\":7438:7489   */\n      mstore\n        /* \"#utility.yul\":7411:7429   */\n      0x24\n      add\n        /* \"@openzeppelin/contracts/token/ERC20/ERC20.sol\":7835:7867  ERC20InvalidReceiver(address(0)) */\n      tag_204\n        /* \"#utility.yul\":7292:7495   */\n      jump\n        /* \"@openzeppelin/contracts/token/ERC20/ERC20.sol\":7787:7878  if (account == address(0)) {... */\n    tag_264:\n        /* \"@openzeppelin/contracts/token/ERC20/ERC20.sol\":7887:7922  _update(address(0), account, value) */\n      tag_179\n        /* \"@openzeppelin/contracts/token/ERC20/ERC20.sol\":7903:7904  0 */\n      0x00\n        /* \"@openzeppelin/contracts/token/ERC20/ERC20.sol\":7907:7914  account */\n      dup4\n        /* \"@openzeppelin/contracts/token/ERC20/ERC20.sol\":7916:7921  value */\n      dup4\n        /* \"@openzeppelin/contracts/token/ERC20/ERC20.sol\":7887:7894  _update */\n      tag_242\n        /* \"@openzeppelin/contracts/token/ERC20/ERC20.sol\":7887:7922  _update(address(0), account, value) */\n      jump\t// in\n        /* \"@openzeppelin/contracts/token/ERC20/ERC20.sol\":8247:8453  function _burn(address account, uint256 value) internal {... */\n    tag_174:\n      sub(shl(0xa0, 0x01), 0x01)\n        /* \"@openzeppelin/contracts/token/ERC20/ERC20.sol\":8317:8338  account == address(0) */\n      dup3\n      and\n        /* \"@openzeppelin/contracts/token/ERC20/ERC20.sol\":8313:8402  if (account == address(0)) {... */\n      tag_268\n      jumpi\n        /* \"@openzeppelin/contracts/token/ERC20/ERC20.sol\":8361:8391  ERC20InvalidSender(address(0)) */\n      mload(0x40)\n      shl(0xe1, 0x4b637e8f)\n      dup2\n      mstore\n        /* \"@openzeppelin/contracts/token/ERC20/ERC20.sol\":8388:8389  0 */\n      0x00\n        /* \"@openzeppelin/contracts/token/ERC20/ERC20.sol\":8361:8391  ERC20InvalidSender(address(0)) */\n      0x04\n      dup3\n      add\n        /* \"#utility.yul\":7438:7489   */\n      mstore\n        /* \"#utility.yul\":7411:7429   */\n      0x24\n      add\n        /* \"@openzeppelin/contracts/token/ERC20/ERC20.sol\":8361:8391  ERC20InvalidSender(address(0)) */\n      tag_204\n        /* \"#utility.yul\":7292:7495   */\n      jump\n        /* \"@openzeppelin/contracts/token/ERC20/ERC20.sol\":8313:8402  if (account == address(0)) {... */\n    tag_268:\n        /* \"@openzeppelin/contracts/token/ERC20/ERC20.sol\":8411:8446  _update(account, address(0), value) */\n      tag_179\n        /* \"@openzeppelin/contracts/token/ERC20/ERC20.sol\":8419:8426  account */\n      dup3\n        /* \"@openzeppelin/contracts/token/ERC20/ERC20.sol\":8436:8437  0 */\n      0x00\n        /* \"@openzeppelin/contracts/token/ERC20/ERC20.sol\":8440:8445  value */\n      dup4\n        /* \"@openzeppelin/contracts/token/ERC20/ERC20.sol\":8411:8418  _update */\n      tag_242\n        /* \"@openzeppelin/contracts/token/ERC20/ERC20.sol\":8411:8446  _update(account, address(0), value) */\n      jump\t// in\n        /* \"@openzeppelin/contracts/utils/cryptography/EIP712.sol\":6021:6147  function _EIP712Name() internal view returns (string memory) {... */\n    tag_185:\n        /* \"@openzeppelin/contracts/utils/cryptography/EIP712.sol\":6067:6080  string memory */\n      0x60\n        /* \"@openzeppelin/contracts/utils/cryptography/EIP712.sol\":6099:6140  _name.toStringWithFallback(_nameFallback) */\n      tag_159\n        /* \"@openzeppelin/contracts/utils/cryptography/EIP712.sol\":6099:6104  _name */\n      immutable(\"0x62c04aa2ba983f68d24f36f1071519a5da6efcb7e8fd8ffeea96be718d6b9857\")\n        /* \"@openzeppelin/contracts/utils/cryptography/EIP712.sol\":6126:6139  _nameFallback */\n      0x06\n        /* \"@openzeppelin/contracts/utils/cryptography/EIP712.sol\":6099:6125  _name.toStringWithFallback */\n      tag_274\n        /* \"@openzeppelin/contracts/utils/cryptography/EIP712.sol\":6099:6140  _name.toStringWithFallback(_nameFallback) */\n      jump\t// in\n        /* \"@openzeppelin/contracts/utils/cryptography/EIP712.sol\":6473:6608  function _EIP712Version() internal view returns (string memory) {... */\n    tag_187:\n        /* \"@openzeppelin/contracts/utils/cryptography/EIP712.sol\":6522:6535  string memory */\n      0x60\n        /* \"@openzeppelin/contracts/utils/cryptography/EIP712.sol\":6554:6601  _version.toStringWithFallback(_versionFallback) */\n      tag_159\n        /* \"@openzeppelin/contracts/utils/cryptography/EIP712.sol\":6554:6562  _version */\n      immutable(\"0xecb71fe1386c7b99297441a64a8091813b38eb97ef175b053582611a1f05de32\")\n        /* \"@openzeppelin/contracts/utils/cryptography/EIP712.sol\":6584:6600  _versionFallback */\n      0x07\n        /* \"@openzeppelin/contracts/utils/cryptography/EIP712.sol\":6554:6583  _version.toStringWithFallback */\n      tag_274\n        /* \"@openzeppelin/contracts/utils/cryptography/EIP712.sol\":6554:6601  _version.toStringWithFallback(_versionFallback) */\n      jump\t// in\n        /* \"@openzeppelin/contracts/utils/cryptography/EIP712.sol\":4917:5093  function _hashTypedDataV4(bytes32 structHash) internal view virtual returns (bytes32) {... */\n    tag_210:\n        /* \"@openzeppelin/contracts/utils/cryptography/EIP712.sol\":4994:5001  bytes32 */\n      0x00\n        /* \"@openzeppelin/contracts/utils/cryptography/EIP712.sol\":5020:5086  MessageHashUtils.toTypedDataHash(_domainSeparatorV4(), structHash) */\n      tag_128\n        /* \"@openzeppelin/contracts/utils/cryptography/EIP712.sol\":5053:5073  _domainSeparatorV4() */\n      tag_280\n        /* \"@openzeppelin/contracts/utils/cryptography/EIP712.sol\":5053:5071  _domainSeparatorV4 */\n      tag_160\n        /* \"@openzeppelin/contracts/utils/cryptography/EIP712.sol\":5053:5073  _domainSeparatorV4() */\n      jump\t// in\n    tag_280:\n        /* \"@openzeppelin/contracts/utils/cryptography/EIP712.sol\":5075:5085  structHash */\n      dup4\n        /* \"@openzeppelin/contracts/utils/cryptography/MessageHashUtils.sol\":3555:3559  0x40 */\n      0x40\n        /* \"@openzeppelin/contracts/utils/cryptography/MessageHashUtils.sol\":3549:3560  mload(0x40) */\n      mload\n      shl(0xf0, 0x1901)\n        /* \"@openzeppelin/contracts/utils/cryptography/MessageHashUtils.sol\":3573:3596  mstore(ptr, hex\"19_01\") */\n      dup2\n      mstore\n        /* \"@openzeppelin/contracts/utils/cryptography/MessageHashUtils.sol\":3625:3629  0x02 */\n      0x02\n        /* \"@openzeppelin/contracts/utils/cryptography/MessageHashUtils.sol\":3616:3630  add(ptr, 0x02) */\n      dup2\n      add\n        /* \"@openzeppelin/contracts/utils/cryptography/MessageHashUtils.sol\":3609:3648  mstore(add(ptr, 0x02), domainSeparator) */\n      swap3\n      swap1\n      swap3\n      mstore\n        /* \"@openzeppelin/contracts/utils/cryptography/MessageHashUtils.sol\":3677:3681  0x22 */\n      0x22\n        /* \"@openzeppelin/contracts/utils/cryptography/MessageHashUtils.sol\":3668:3682  add(ptr, 0x22) */\n      dup3\n      add\n        /* \"@openzeppelin/contracts/utils/cryptography/MessageHashUtils.sol\":3661:3695  mstore(add(ptr, 0x22), structHash) */\n      mstore\n        /* \"@openzeppelin/contracts/utils/cryptography/MessageHashUtils.sol\":3733:3737  0x42 */\n      0x42\n        /* \"@openzeppelin/contracts/utils/cryptography/MessageHashUtils.sol\":3718:3738  keccak256(ptr, 0x42) */\n      swap1\n      keccak256\n      swap1\n        /* \"@openzeppelin/contracts/utils/cryptography/MessageHashUtils.sol\":3353:3754  function toTypedDataHash(bytes32 domainSeparator, bytes32 structHash) internal pure returns (bytes32 digest) {... */\n      jump\n        /* \"@openzeppelin/contracts/utils/cryptography/ECDSA.sol\":6803:7063  function recover(bytes32 hash, uint8 v, bytes32 r, bytes32 s) internal pure returns (address) {... */\n    tag_212:\n        /* \"@openzeppelin/contracts/utils/cryptography/ECDSA.sol\":6888:6895  address */\n      0x00\n        /* \"@openzeppelin/contracts/utils/cryptography/ECDSA.sol\":6908:6925  address recovered */\n      dup1\n        /* \"@openzeppelin/contracts/utils/cryptography/ECDSA.sol\":6927:6945  RecoverError error */\n      0x00\n        /* \"@openzeppelin/contracts/utils/cryptography/ECDSA.sol\":6947:6963  bytes32 errorArg */\n      dup1\n        /* \"@openzeppelin/contracts/utils/cryptography/ECDSA.sol\":6967:6992  tryRecover(hash, v, r, s) */\n      tag_283\n        /* \"@openzeppelin/contracts/utils/cryptography/ECDSA.sol\":6978:6982  hash */\n      dup9\n        /* \"@openzeppelin/contracts/utils/cryptography/ECDSA.sol\":6984:6985  v */\n      dup9\n        /* \"@openzeppelin/contracts/utils/cryptography/ECDSA.sol\":6987:6988  r */\n      dup9\n        /* \"@openzeppelin/contracts/utils/cryptography/ECDSA.sol\":6990:6991  s */\n      dup9\n        /* \"@openzeppelin/contracts/utils/cryptography/ECDSA.sol\":6967:6977  tryRecover */\n      tag_284\n        /* \"@openzeppelin/contracts/utils/cryptography/ECDSA.sol\":6967:6992  tryRecover(hash, v, r, s) */\n      jump\t// in\n    tag_283:\n        /* \"@openzeppelin/contracts/utils/cryptography/ECDSA.sol\":6907:6992  (address recovered, RecoverError error, bytes32 errorArg) = tryRecover(hash, v, r, s) */\n      swap3\n      pop\n      swap3\n      pop\n      swap3\n      pop\n        /* \"@openzeppelin/contracts/utils/cryptography/ECDSA.sol\":7002:7030  _throwError(error, errorArg) */\n      tag_285\n        /* \"@openzeppelin/contracts/utils/cryptography/ECDSA.sol\":7014:7019  error */\n      dup3\n        /* \"@openzeppelin/contracts/utils/cryptography/ECDSA.sol\":7021:7029  errorArg */\n      dup3\n        /* \"@openzeppelin/contracts/utils/cryptography/ECDSA.sol\":7002:7013  _throwError */\n      tag_286\n        /* \"@openzeppelin/contracts/utils/cryptography/ECDSA.sol\":7002:7030  _throwError(error, errorArg) */\n      jump\t// in\n    tag_285:\n      pop\n        /* \"@openzeppelin/contracts/utils/cryptography/ECDSA.sol\":7047:7056  recovered */\n      swap1\n      swap7\n        /* \"@openzeppelin/contracts/utils/cryptography/ECDSA.sol\":6803:7063  function recover(bytes32 hash, uint8 v, bytes32 r, bytes32 s) internal pure returns (address) {... */\n      swap6\n      pop\n      pop\n      pop\n      pop\n      pop\n      pop\n      jump\t// out\n        /* \"@openzeppelin/contracts/token/ERC20/ERC20.sol\":9949:10381  function _approve(address owner, address spender, uint256 value, bool emitEvent) internal virtual {... */\n    tag_227:\n      sub(shl(0xa0, 0x01), 0x01)\n        /* \"@openzeppelin/contracts/token/ERC20/ERC20.sol\":10061:10080  owner == address(0) */\n      dup5\n      and\n        /* \"@openzeppelin/contracts/token/ERC20/ERC20.sol\":10057:10146  if (owner == address(0)) {... */\n      tag_288\n      jumpi\n        /* \"@openzeppelin/contracts/token/ERC20/ERC20.sol\":10103:10135  ERC20InvalidApprover(address(0)) */\n      mload(0x40)\n      shl(0xe0, 0xe602df05)\n      dup2\n      mstore\n        /* \"@openzeppelin/contracts/token/ERC20/ERC20.sol\":10132:10133  0 */\n      0x00\n        /* \"@openzeppelin/contracts/token/ERC20/ERC20.sol\":10103:10135  ERC20InvalidApprover(address(0)) */\n      0x04\n      dup3\n      add\n        /* \"#utility.yul\":7438:7489   */\n      mstore\n        /* \"#utility.yul\":7411:7429   */\n      0x24\n      add\n        /* \"@openzeppelin/contracts/token/ERC20/ERC20.sol\":10103:10135  ERC20InvalidApprover(address(0)) */\n      tag_204\n        /* \"#utility.yul\":7292:7495   */\n      jump\n        /* \"@openzeppelin/contracts/token/ERC20/ERC20.sol\":10057:10146  if (owner == address(0)) {... */\n    tag_288:\n      sub(shl(0xa0, 0x01), 0x01)\n        /* \"@openzeppelin/contracts/token/ERC20/ERC20.sol\":10159:10180  spender == address(0) */\n      dup4\n      and\n        /* \"@openzeppelin/contracts/token/ERC20/ERC20.sol\":10155:10245  if (spender == address(0)) {... */\n      tag_290\n      jumpi\n        /* \"@openzeppelin/contracts/token/ERC20/ERC20.sol\":10203:10234  ERC20InvalidSpender(address(0)) */\n      mload(0x40)\n      shl(0xe1, 0x4a1406b1)\n      dup2\n      mstore\n        /* \"@openzeppelin/contracts/token/ERC20/ERC20.sol\":10231:10232  0 */\n      0x00\n        /* \"@openzeppelin/contracts/token/ERC20/ERC20.sol\":10203:10234  ERC20InvalidSpender(address(0)) */\n      0x04\n      dup3\n      add\n        /* \"#utility.yul\":7438:7489   */\n      mstore\n        /* \"#utility.yul\":7411:7429   */\n      0x24\n      add\n        /* \"@openzeppelin/contracts/token/ERC20/ERC20.sol\":10203:10234  ERC20InvalidSpender(address(0)) */\n      tag_204\n        /* \"#utility.yul\":7292:7495   */\n      jump\n        /* \"@openzeppelin/contracts/token/ERC20/ERC20.sol\":10155:10245  if (spender == address(0)) {... */\n    tag_290:\n      sub(shl(0xa0, 0x01), 0x01)\n        /* \"@openzeppelin/contracts/token/ERC20/ERC20.sol\":10254:10272  _allowances[owner] */\n      dup1\n      dup6\n      and\n      0x00\n      swap1\n      dup2\n      mstore\n        /* \"@openzeppelin/contracts/token/ERC20/ERC20.sol\":10254:10265  _allowances */\n      0x01\n        /* \"@openzeppelin/contracts/token/ERC20/ERC20.sol\":10254:10272  _allowances[owner] */\n      0x20\n      swap1\n      dup2\n      mstore\n      0x40\n      dup1\n      dup4\n      keccak256\n        /* \"@openzeppelin/contracts/token/ERC20/ERC20.sol\":10254:10281  _allowances[owner][spender] */\n      swap4\n      dup8\n      and\n      dup4\n      mstore\n      swap3\n      swap1\n      mstore\n      keccak256\n        /* \"@openzeppelin/contracts/token/ERC20/ERC20.sol\":10254:10289  _allowances[owner][spender] = value */\n      dup3\n      swap1\n      sstore\n        /* \"@openzeppelin/contracts/token/ERC20/ERC20.sol\":10299:10375  if (emitEvent) {... */\n      dup1\n      iszero\n      tag_155\n      jumpi\n        /* \"@openzeppelin/contracts/token/ERC20/ERC20.sol\":10349:10356  spender */\n      dup3\n      sub(shl(0xa0, 0x01), 0x01)\n        /* \"@openzeppelin/contracts/token/ERC20/ERC20.sol\":10333:10364  Approval(owner, spender, value) */\n      and\n        /* \"@openzeppelin/contracts/token/ERC20/ERC20.sol\":10342:10347  owner */\n      dup5\n      sub(shl(0xa0, 0x01), 0x01)\n        /* \"@openzeppelin/contracts/token/ERC20/ERC20.sol\":10333:10364  Approval(owner, spender, value) */\n      and\n      0x8c5be1e5ebec7d5bd14f71427d1e84f3dd0314c0f7b2291e5b200ac8c7c3b925\n        /* \"@openzeppelin/contracts/token/ERC20/ERC20.sol\":10358:10363  value */\n      dup5\n        /* \"@openzeppelin/contracts/token/ERC20/ERC20.sol\":10333:10364  Approval(owner, spender, value) */\n      mload(0x40)\n      tag_293\n      swap2\n        /* \"#utility.yul\":1733:1758   */\n      dup2\n      mstore\n        /* \"#utility.yul\":1721:1723   */\n      0x20\n        /* \"#utility.yul\":1706:1724   */\n      add\n      swap1\n        /* \"#utility.yul\":1587:1764   */\n      jump\n        /* \"@openzeppelin/contracts/token/ERC20/ERC20.sol\":10333:10364  Approval(owner, spender, value) */\n    tag_293:\n      mload(0x40)\n      dup1\n      swap2\n      sub\n      swap1\n      log3\n        /* \"@openzeppelin/contracts/token/ERC20/ERC20.sol\":9949:10381  function _approve(address owner, address spender, uint256 value, bool emitEvent) internal virtual {... */\n      pop\n      pop\n      pop\n      pop\n      jump\t// out\n        /* \"@openzeppelin/contracts/token/ERC20/ERC20.sol\":6271:7378  function _update(address from, address to, uint256 value) internal virtual {... */\n    tag_242:\n      sub(shl(0xa0, 0x01), 0x01)\n        /* \"@openzeppelin/contracts/token/ERC20/ERC20.sol\":6360:6378  from == address(0) */\n      dup4\n      and\n        /* \"@openzeppelin/contracts/token/ERC20/ERC20.sol\":6356:6896  if (from == address(0)) {... */\n      tag_295\n      jumpi\n        /* \"@openzeppelin/contracts/token/ERC20/ERC20.sol\":6512:6517  value */\n      dup1\n        /* \"@openzeppelin/contracts/token/ERC20/ERC20.sol\":6496:6508  _totalSupply */\n      0x02\n      0x00\n        /* \"@openzeppelin/contracts/token/ERC20/ERC20.sol\":6496:6517  _totalSupply += value */\n      dup3\n      dup3\n      sload\n      tag_296\n      swap2\n      swap1\n      tag_297\n      jump\t// in\n    tag_296:\n      swap1\n      swap2\n      sstore\n      pop\n        /* \"@openzeppelin/contracts/token/ERC20/ERC20.sol\":6356:6896  if (from == address(0)) {... */\n      tag_298\n      swap1\n      pop\n      jump\n    tag_295:\n      sub(shl(0xa0, 0x01), 0x01)\n        /* \"@openzeppelin/contracts/token/ERC20/ERC20.sol\":6570:6585  _balances[from] */\n      dup4\n      and\n        /* \"@openzeppelin/contracts/token/ERC20/ERC20.sol\":6548:6567  uint256 fromBalance */\n      0x00\n        /* \"@openzeppelin/contracts/token/ERC20/ERC20.sol\":6570:6585  _balances[from] */\n      swap1\n      dup2\n      mstore\n      0x20\n      dup2\n      swap1\n      mstore\n      0x40\n      swap1\n      keccak256\n      sload\n        /* \"@openzeppelin/contracts/token/ERC20/ERC20.sol\":6603:6622  fromBalance < value */\n      dup2\n      dup2\n      lt\n        /* \"@openzeppelin/contracts/token/ERC20/ERC20.sol\":6599:6714  if (fromBalance < value) {... */\n      iszero\n      tag_299\n      jumpi\n        /* \"@openzeppelin/contracts/token/ERC20/ERC20.sol\":6649:6699  ERC20InsufficientBalance(from, fromBalance, value) */\n      mload(0x40)\n      shl(0xe2, 0x391434e3)\n      dup2\n      mstore\n      sub(shl(0xa0, 0x01), 0x01)\n        /* \"#utility.yul\":7162:7194   */\n      dup6\n      and\n        /* \"@openzeppelin/contracts/token/ERC20/ERC20.sol\":6649:6699  ERC20InsufficientBalance(from, fromBalance, value) */\n      0x04\n      dup3\n      add\n        /* \"#utility.yul\":7144:7195   */\n      mstore\n        /* \"#utility.yul\":7211:7229   */\n      0x24\n      dup2\n      add\n        /* \"#utility.yul\":7204:7238   */\n      dup3\n      swap1\n      mstore\n        /* \"#utility.yul\":7254:7272   */\n      0x44\n      dup2\n      add\n        /* \"#utility.yul\":7247:7281   */\n      dup4\n      swap1\n      mstore\n        /* \"#utility.yul\":7117:7135   */\n      0x64\n      add\n        /* \"@openzeppelin/contracts/token/ERC20/ERC20.sol\":6649:6699  ERC20InsufficientBalance(from, fromBalance, value) */\n      tag_204\n        /* \"#utility.yul\":6942:7287   */\n      jump\n        /* \"@openzeppelin/contracts/token/ERC20/ERC20.sol\":6599:6714  if (fromBalance < value) {... */\n    tag_299:\n      sub(shl(0xa0, 0x01), 0x01)\n        /* \"@openzeppelin/contracts/token/ERC20/ERC20.sol\":6834:6849  _balances[from] */\n      dup5\n      and\n        /* \"@openzeppelin/contracts/token/ERC20/ERC20.sol\":6834:6843  _balances */\n      0x00\n        /* \"@openzeppelin/contracts/token/ERC20/ERC20.sol\":6834:6849  _balances[from] */\n      swap1\n      dup2\n      mstore\n      0x20\n      dup2\n      swap1\n      mstore\n      0x40\n      swap1\n      keccak256\n        /* \"@openzeppelin/contracts/token/ERC20/ERC20.sol\":6852:6871  fromBalance - value */\n      swap1\n      dup3\n      swap1\n      sub\n        /* \"@openzeppelin/contracts/token/ERC20/ERC20.sol\":6834:6871  _balances[from] = fromBalance - value */\n      swap1\n      sstore\n        /* \"@openzeppelin/contracts/token/ERC20/ERC20.sol\":6356:6896  if (from == address(0)) {... */\n    tag_298:\n      sub(shl(0xa0, 0x01), 0x01)\n        /* \"@openzeppelin/contracts/token/ERC20/ERC20.sol\":6910:6926  to == address(0) */\n      dup3\n      and\n        /* \"@openzeppelin/contracts/token/ERC20/ERC20.sol\":6906:7331  if (to == address(0)) {... */\n      tag_301\n      jumpi\n        /* \"@openzeppelin/contracts/token/ERC20/ERC20.sol\":7073:7085  _totalSupply */\n      0x02\n        /* \"@openzeppelin/contracts/token/ERC20/ERC20.sol\":7073:7094  _totalSupply -= value */\n      dup1\n      sload\n      dup3\n      swap1\n      sub\n      swap1\n      sstore\n        /* \"@openzeppelin/contracts/token/ERC20/ERC20.sol\":6906:7331  if (to == address(0)) {... */\n      jump(tag_302)\n    tag_301:\n      sub(shl(0xa0, 0x01), 0x01)\n        /* \"@openzeppelin/contracts/token/ERC20/ERC20.sol\":7284:7297  _balances[to] */\n      dup3\n      and\n        /* \"@openzeppelin/contracts/token/ERC20/ERC20.sol\":7284:7293  _balances */\n      0x00\n        /* \"@openzeppelin/contracts/token/ERC20/ERC20.sol\":7284:7297  _balances[to] */\n      swap1\n      dup2\n      mstore\n      0x20\n      dup2\n      swap1\n      mstore\n      0x40\n      swap1\n      keccak256\n        /* \"@openzeppelin/contracts/token/ERC20/ERC20.sol\":7284:7306  _balances[to] += value */\n      dup1\n      sload\n      dup3\n      add\n      swap1\n      sstore\n        /* \"@openzeppelin/contracts/token/ERC20/ERC20.sol\":6906:7331  if (to == address(0)) {... */\n    tag_302:\n        /* \"@openzeppelin/contracts/token/ERC20/ERC20.sol\":7361:7363  to */\n      dup2\n      sub(shl(0xa0, 0x01), 0x01)\n        /* \"@openzeppelin/contracts/token/ERC20/ERC20.sol\":7346:7371  Transfer(from, to, value) */\n      and\n        /* \"@openzeppelin/contracts/token/ERC20/ERC20.sol\":7355:7359  from */\n      dup4\n      sub(shl(0xa0, 0x01), 0x01)\n        /* \"@openzeppelin/contracts/token/ERC20/ERC20.sol\":7346:7371  Transfer(from, to, value) */\n      and\n      0xddf252ad1be2c89b69c2b068fc378daa952ba7f163c4a11628f55a4df523b3ef\n        /* \"@openzeppelin/contracts/token/ERC20/ERC20.sol\":7365:7370  value */\n      dup4\n        /* \"@openzeppelin/contracts/token/ERC20/ERC20.sol\":7346:7371  Transfer(from, to, value) */\n      mload(0x40)\n      tag_303\n      swap2\n        /* \"#utility.yul\":1733:1758   */\n      dup2\n      mstore\n        /* \"#utility.yul\":1721:1723   */\n      0x20\n        /* \"#utility.yul\":1706:1724   */\n      add\n      swap1\n        /* \"#utility.yul\":1587:1764   */\n      jump\n        /* \"@openzeppelin/contracts/token/ERC20/ERC20.sol\":7346:7371  Transfer(from, to, value) */\n    tag_303:\n      mload(0x40)\n      dup1\n      swap2\n      sub\n      swap1\n      log3\n        /* \"@openzeppelin/contracts/token/ERC20/ERC20.sol\":6271:7378  function _update(address from, address to, uint256 value) internal virtual {... */\n      pop\n      pop\n      pop\n      jump\t// out\n        /* \"@openzeppelin/contracts/access/AccessControl.sol\":3432:3629  function _checkRole(bytes32 role, address account) internal view virtual {... */\n    tag_246:\n        /* \"@openzeppelin/contracts/access/AccessControl.sol\":3520:3542  hasRole(role, account) */\n      tag_305\n        /* \"@openzeppelin/contracts/access/AccessControl.sol\":3528:3532  role */\n      dup3\n        /* \"@openzeppelin/contracts/access/AccessControl.sol\":3534:3541  account */\n      dup3\n        /* \"@openzeppelin/contracts/access/AccessControl.sol\":3520:3527  hasRole */\n      tag_99\n        /* \"@openzeppelin/contracts/access/AccessControl.sol\":3520:3542  hasRole(role, account) */\n      jump\t// in\n    tag_305:\n        /* \"@openzeppelin/contracts/access/AccessControl.sol\":3515:3623  if (!hasRole(role, account)) {... */\n      tag_179\n      jumpi\n        /* \"@openzeppelin/contracts/access/AccessControl.sol\":3565:3612  AccessControlUnauthorizedAccount(account, role) */\n      mload(0x40)\n      shl(0xe0, 0xe2517d3f)\n      dup2\n      mstore\n      sub(shl(0xa0, 0x01), 0x01)\n        /* \"#utility.yul\":7919:7951   */\n      dup3\n      and\n        /* \"@openzeppelin/contracts/access/AccessControl.sol\":3565:3612  AccessControlUnauthorizedAccount(account, role) */\n      0x04\n      dup3\n      add\n        /* \"#utility.yul\":7901:7952   */\n      mstore\n        /* \"#utility.yul\":7968:7986   */\n      0x24\n      dup2\n      add\n        /* \"#utility.yul\":7961:7995   */\n      dup4\n      swap1\n      mstore\n        /* \"#utility.yul\":7874:7892   */\n      0x44\n      add\n        /* \"@openzeppelin/contracts/access/AccessControl.sol\":3565:3612  AccessControlUnauthorizedAccount(account, role) */\n      tag_204\n        /* \"#utility.yul\":7727:8001   */\n      jump\n        /* \"@openzeppelin/contracts/utils/ShortStrings.sol\":3385:3652  function toStringWithFallback(ShortString value, string storage store) internal pure returns (string memory) {... */\n    tag_274:\n        /* \"@openzeppelin/contracts/utils/ShortStrings.sol\":3479:3492  string memory */\n      0x60\n        /* \"@openzeppelin/contracts/utils/ShortStrings.sol\":1390:1456  0x00000000000000000000000000000000000000000000000000000000000000FF */\n      0xff\n        /* \"@openzeppelin/contracts/utils/ShortStrings.sol\":3508:3554  ShortString.unwrap(value) != FALLBACK_SENTINEL */\n      dup4\n      eq\n        /* \"@openzeppelin/contracts/utils/ShortStrings.sol\":3504:3646  if (ShortString.unwrap(value) != FALLBACK_SENTINEL) {... */\n      tag_313\n      jumpi\n        /* \"@openzeppelin/contracts/utils/ShortStrings.sol\":3577:3592  toString(value) */\n      tag_314\n        /* \"@openzeppelin/contracts/utils/ShortStrings.sol\":3586:3591  value */\n      dup4\n        /* \"@openzeppelin/contracts/utils/ShortStrings.sol\":3577:3585  toString */\n      tag_315\n        /* \"@openzeppelin/contracts/utils/ShortStrings.sol\":3577:3592  toString(value) */\n      jump\t// in\n    tag_314:\n        /* \"@openzeppelin/contracts/utils/ShortStrings.sol\":3570:3592  return toString(value) */\n      swap1\n      pop\n      jump(tag_128)\n        /* \"@openzeppelin/contracts/utils/ShortStrings.sol\":3504:3646  if (ShortString.unwrap(value) != FALLBACK_SENTINEL) {... */\n    tag_313:\n        /* \"@openzeppelin/contracts/utils/ShortStrings.sol\":3630:3635  store */\n      dup2\n        /* \"@openzeppelin/contracts/utils/ShortStrings.sol\":3623:3635  return store */\n      dup1\n      sload\n      tag_317\n      swap1\n      tag_132\n      jump\t// in\n    tag_317:\n      dup1\n      0x1f\n      add\n      0x20\n      dup1\n      swap2\n      div\n      mul\n      0x20\n      add\n      mload(0x40)\n      swap1\n      dup2\n      add\n      0x40\n      mstore\n      dup1\n      swap3\n      swap2\n      swap1\n      dup2\n      dup2\n      mstore\n      0x20\n      add\n      dup3\n      dup1\n      sload\n      tag_318\n      swap1\n      tag_132\n      jump\t// in\n    tag_318:\n      dup1\n      iszero\n      tag_319\n      jumpi\n      dup1\n      0x1f\n      lt\n      tag_320\n      jumpi\n      0x0100\n      dup1\n      dup4\n      sload\n      div\n      mul\n      dup4\n      mstore\n      swap2\n      0x20\n      add\n      swap2\n      jump(tag_319)\n    tag_320:\n      dup3\n      add\n      swap2\n      swap1\n      0x00\n      mstore\n      keccak256(0x00, 0x20)\n      swap1\n    tag_321:\n      dup2\n      sload\n      dup2\n      mstore\n      swap1\n      0x01\n      add\n      swap1\n      0x20\n      add\n      dup1\n      dup4\n      gt\n      tag_321\n      jumpi\n      dup3\n      swap1\n      sub\n      0x1f\n      and\n      dup3\n      add\n      swap2\n    tag_319:\n      pop\n      pop\n      pop\n      pop\n      pop\n      swap1\n      pop\n      jump(tag_128)\n        /* \"@openzeppelin/contracts/utils/cryptography/ECDSA.sol\":5140:6670  function tryRecover(... */\n    tag_284:\n        /* \"@openzeppelin/contracts/utils/cryptography/ECDSA.sol\":5266:5273  address */\n      0x00\n      dup1\n      dup1\n        /* \"@openzeppelin/contracts/utils/cryptography/ECDSA.sol\":6199:6265  0x7FFFFFFFFFFFFFFFFFFFFFFFFFFFFFFF5D576E7357A4501DDFE92F46681B20A0 */\n      0x7fffffffffffffffffffffffffffffff5d576e7357a4501ddfe92f46681b20a0\n        /* \"@openzeppelin/contracts/utils/cryptography/ECDSA.sol\":6186:6265  uint256(s) > 0x7FFFFFFFFFFFFFFFFFFFFFFFFFFFFFFF5D576E7357A4501DDFE92F46681B20A0 */\n      dup5\n      gt\n        /* \"@openzeppelin/contracts/utils/cryptography/ECDSA.sol\":6182:6346  if (uint256(s) > 0x7FFFFFFFFFFFFFFFFFFFFFFFFFFFFFFF5D576E7357A4501DDFE92F46681B20A0) {... */\n      iszero\n      tag_324\n      jumpi\n      pop\n        /* \"@openzeppelin/contracts/utils/cryptography/ECDSA.sol\":6297:6298  0 */\n      0x00\n      swap2\n      pop\n        /* \"@openzeppelin/contracts/utils/cryptography/ECDSA.sol\":6301:6331  RecoverError.InvalidSignatureS */\n      0x03\n      swap1\n      pop\n        /* \"@openzeppelin/contracts/utils/cryptography/ECDSA.sol\":6333:6334  s */\n      dup3\n        /* \"@openzeppelin/contracts/utils/cryptography/ECDSA.sol\":6281:6335  return (address(0), RecoverError.InvalidSignatureS, s) */\n      jump(tag_323)\n        /* \"@openzeppelin/contracts/utils/cryptography/ECDSA.sol\":6182:6346  if (uint256(s) > 0x7FFFFFFFFFFFFFFFFFFFFFFFFFFFFFFF5D576E7357A4501DDFE92F46681B20A0) {... */\n    tag_324:\n        /* \"@openzeppelin/contracts/utils/cryptography/ECDSA.sol\":6457:6481  ecrecover(hash, v, r, s) */\n      0x40\n      dup1\n      mload\n        /* \"@openzeppelin/contracts/utils/cryptography/ECDSA.sol\":6440:6454  address signer */\n      0x00\n        /* \"@openzeppelin/contracts/utils/cryptography/ECDSA.sol\":6457:6481  ecrecover(hash, v, r, s) */\n      dup1\n      dup3\n      mstore\n      0x20\n      dup3\n      add\n      dup1\n      dup5\n      mstore\n        /* \"#utility.yul\":8727:8752   */\n      dup11\n      swap1\n      mstore\n        /* \"#utility.yul\":8800:8804   */\n      0xff\n        /* \"#utility.yul\":8788:8805   */\n      dup10\n      and\n        /* \"#utility.yul\":8768:8786   */\n      swap3\n      dup3\n      add\n        /* \"#utility.yul\":8761:8806   */\n      swap3\n      swap1\n      swap3\n      mstore\n        /* \"#utility.yul\":8822:8840   */\n      0x60\n      dup2\n      add\n        /* \"#utility.yul\":8815:8849   */\n      dup8\n      swap1\n      mstore\n        /* \"#utility.yul\":8865:8883   */\n      0x80\n      dup2\n      add\n        /* \"#utility.yul\":8858:8892   */\n      dup7\n      swap1\n      mstore\n        /* \"@openzeppelin/contracts/utils/cryptography/ECDSA.sol\":6457:6481  ecrecover(hash, v, r, s) */\n      0x01\n      swap1\n        /* \"#utility.yul\":8699:8718   */\n      0xa0\n      add\n        /* \"@openzeppelin/contracts/utils/cryptography/ECDSA.sol\":6457:6481  ecrecover(hash, v, r, s) */\n      0x20\n      mload(0x40)\n      0x20\n      dup2\n      sub\n      swap1\n      dup1\n      dup5\n      sub\n      swap1\n      dup6\n      gas\n      staticcall\n      iszero\n      dup1\n      iszero\n      tag_328\n      jumpi\n      returndatasize\n      0x00\n      dup1\n      returndatacopy\n      revert(0x00, returndatasize)\n    tag_328:\n      pop\n      pop\n      mload(add(not(0x1f), mload(0x40)))\n      swap2\n      pop\n      pop\n      sub(shl(0xa0, 0x01), 0x01)\n        /* \"@openzeppelin/contracts/utils/cryptography/ECDSA.sol\":6495:6515  signer == address(0) */\n      dup2\n      and\n        /* \"@openzeppelin/contracts/utils/cryptography/ECDSA.sol\":6491:6604  if (signer == address(0)) {... */\n      tag_329\n      jumpi\n      pop\n        /* \"@openzeppelin/contracts/utils/cryptography/ECDSA.sol\":6547:6548  0 */\n      0x00\n      swap3\n      pop\n        /* \"@openzeppelin/contracts/utils/cryptography/ECDSA.sol\":6551:6580  RecoverError.InvalidSignature */\n      0x01\n      swap2\n      pop\n        /* \"@openzeppelin/contracts/utils/cryptography/ECDSA.sol\":6547:6548  0 */\n      dup3\n      swap1\n      pop\n        /* \"@openzeppelin/contracts/utils/cryptography/ECDSA.sol\":6531:6593  return (address(0), RecoverError.InvalidSignature, bytes32(0)) */\n      jump(tag_323)\n        /* \"@openzeppelin/contracts/utils/cryptography/ECDSA.sol\":6491:6604  if (signer == address(0)) {... */\n    tag_329:\n        /* \"@openzeppelin/contracts/utils/cryptography/ECDSA.sol\":6622:6628  signer */\n      swap3\n      pop\n        /* \"@openzeppelin/contracts/utils/cryptography/ECDSA.sol\":6630:6650  RecoverError.NoError */\n      0x00\n      swap2\n      pop\n      dup2\n      swap1\n      pop\n        /* \"@openzeppelin/contracts/utils/cryptography/ECDSA.sol\":5140:6670  function tryRecover(... */\n    tag_323:\n      swap5\n      pop\n      swap5\n      pop\n      swap5\n      swap2\n      pop\n      pop\n      jump\t// out\n        /* \"@openzeppelin/contracts/utils/cryptography/ECDSA.sol\":7196:7728  function _throwError(RecoverError error, bytes32 errorArg) private pure {... */\n    tag_286:\n        /* \"@openzeppelin/contracts/utils/cryptography/ECDSA.sol\":7291:7311  RecoverError.NoError */\n      0x00\n        /* \"@openzeppelin/contracts/utils/cryptography/ECDSA.sol\":7282:7287  error */\n      dup3\n        /* \"@openzeppelin/contracts/utils/cryptography/ECDSA.sol\":7282:7311  error == RecoverError.NoError */\n      0x03\n      dup2\n      gt\n      iszero\n      tag_335\n      jumpi\n      tag_335\n      tag_333\n      jump\t// in\n    tag_335:\n      sub\n        /* \"@openzeppelin/contracts/utils/cryptography/ECDSA.sol\":7278:7722  if (error == RecoverError.NoError) {... */\n      tag_336\n      jumpi\n        /* \"@openzeppelin/contracts/utils/cryptography/ECDSA.sol\":7196:7728  function _throwError(RecoverError error, bytes32 errorArg) private pure {... */\n      pop\n      pop\n      jump\t// out\n        /* \"@openzeppelin/contracts/utils/cryptography/ECDSA.sol\":7278:7722  if (error == RecoverError.NoError) {... */\n    tag_336:\n        /* \"@openzeppelin/contracts/utils/cryptography/ECDSA.sol\":7387:7416  RecoverError.InvalidSignature */\n      0x01\n        /* \"@openzeppelin/contracts/utils/cryptography/ECDSA.sol\":7378:7383  error */\n      dup3\n        /* \"@openzeppelin/contracts/utils/cryptography/ECDSA.sol\":7378:7416  error == RecoverError.InvalidSignature */\n      0x03\n      dup2\n      gt\n      iszero\n      tag_341\n      jumpi\n      tag_341\n      tag_333\n      jump\t// in\n    tag_341:\n      sub\n        /* \"@openzeppelin/contracts/utils/cryptography/ECDSA.sol\":7374:7722  if (error == RecoverError.InvalidSignature) {... */\n      tag_342\n      jumpi\n        /* \"@openzeppelin/contracts/utils/cryptography/ECDSA.sol\":7439:7462  ECDSAInvalidSignature() */\n      mload(0x40)\n      shl(0xe0, 0xf645eedf)\n      dup2\n      mstore\n      0x04\n      add\n      mload(0x40)\n      dup1\n      swap2\n      sub\n      swap1\n      revert\n        /* \"@openzeppelin/contracts/utils/cryptography/ECDSA.sol\":7374:7722  if (error == RecoverError.InvalidSignature) {... */\n    tag_342:\n        /* \"@openzeppelin/contracts/utils/cryptography/ECDSA.sol\":7492:7527  RecoverError.InvalidSignatureLength */\n      0x02\n        /* \"@openzeppelin/contracts/utils/cryptography/ECDSA.sol\":7483:7488  error */\n      dup3\n        /* \"@openzeppelin/contracts/utils/cryptography/ECDSA.sol\":7483:7527  error == RecoverError.InvalidSignatureLength */\n      0x03\n      dup2\n      gt\n      iszero\n      tag_347\n      jumpi\n      tag_347\n      tag_333\n      jump\t// in\n    tag_347:\n      sub\n        /* \"@openzeppelin/contracts/utils/cryptography/ECDSA.sol\":7479:7722  if (error == RecoverError.InvalidSignatureLength) {... */\n      tag_348\n      jumpi\n        /* \"@openzeppelin/contracts/utils/cryptography/ECDSA.sol\":7550:7596  ECDSAInvalidSignatureLength(uint256(errorArg)) */\n      mload(0x40)\n      shl(0xe0, 0xfce698f7)\n      dup2\n      mstore\n      0x04\n      dup2\n      add\n        /* \"#utility.yul\":1733:1758   */\n      dup3\n      swap1\n      mstore\n        /* \"#utility.yul\":1706:1724   */\n      0x24\n      add\n        /* \"@openzeppelin/contracts/utils/cryptography/ECDSA.sol\":7550:7596  ECDSAInvalidSignatureLength(uint256(errorArg)) */\n      tag_204\n        /* \"#utility.yul\":1587:1764   */\n      jump\n        /* \"@openzeppelin/contracts/utils/cryptography/ECDSA.sol\":7479:7722  if (error == RecoverError.InvalidSignatureLength) {... */\n    tag_348:\n        /* \"@openzeppelin/contracts/utils/cryptography/ECDSA.sol\":7626:7656  RecoverError.InvalidSignatureS */\n      0x03\n        /* \"@openzeppelin/contracts/utils/cryptography/ECDSA.sol\":7617:7622  error */\n      dup3\n        /* \"@openzeppelin/contracts/utils/cryptography/ECDSA.sol\":7617:7656  error == RecoverError.InvalidSignatureS */\n      0x03\n      dup2\n      gt\n      iszero\n      tag_354\n      jumpi\n      tag_354\n      tag_333\n      jump\t// in\n    tag_354:\n      sub\n        /* \"@openzeppelin/contracts/utils/cryptography/ECDSA.sol\":7613:7722  if (error == RecoverError.InvalidSignatureS) {... */\n      tag_179\n      jumpi\n        /* \"@openzeppelin/contracts/utils/cryptography/ECDSA.sol\":7679:7711  ECDSAInvalidSignatureS(errorArg) */\n      mload(0x40)\n      shl(0xe2, 0x35e2f383)\n      dup2\n      mstore\n      0x04\n      dup2\n      add\n        /* \"#utility.yul\":1733:1758   */\n      dup3\n      swap1\n      mstore\n        /* \"#utility.yul\":1706:1724   */\n      0x24\n      add\n        /* \"@openzeppelin/contracts/utils/cryptography/ECDSA.sol\":7679:7711  ECDSAInvalidSignatureS(errorArg) */\n      tag_204\n        /* \"#utility.yul\":1587:1764   */\n      jump\n        /* \"@openzeppelin/contracts/utils/ShortStrings.sol\":2078:2483  function toString(ShortString sstr) internal pure returns (string memory) {... */\n    tag_315:\n        /* \"@openzeppelin/contracts/utils/ShortStrings.sol\":2137:2150  string memory */\n      0x60\n        /* \"@openzeppelin/contracts/utils/ShortStrings.sol\":2162:2173  uint256 len */\n      0x00\n        /* \"@openzeppelin/contracts/utils/ShortStrings.sol\":2176:2192  byteLength(sstr) */\n      tag_358\n        /* \"@openzeppelin/contracts/utils/ShortStrings.sol\":2187:2191  sstr */\n      dup4\n        /* \"@openzeppelin/contracts/utils/ShortStrings.sol\":2176:2186  byteLength */\n      tag_359\n        /* \"@openzeppelin/contracts/utils/ShortStrings.sol\":2176:2192  byteLength(sstr) */\n      jump\t// in\n    tag_358:\n        /* \"@openzeppelin/contracts/utils/ShortStrings.sol\":2300:2314  new string(32) */\n      0x40\n      dup1\n      mload\n        /* \"@openzeppelin/contracts/utils/ShortStrings.sol\":2311:2313  32 */\n      0x20\n        /* \"@openzeppelin/contracts/utils/ShortStrings.sol\":2300:2314  new string(32) */\n      dup1\n      dup3\n      mstore\n      dup2\n      dup4\n      add\n      swap1\n      swap3\n      mstore\n        /* \"@openzeppelin/contracts/utils/ShortStrings.sol\":2162:2192  uint256 len = byteLength(sstr) */\n      swap2\n      swap3\n      pop\n        /* \"@openzeppelin/contracts/utils/ShortStrings.sol\":2280:2297  string memory str */\n      0x00\n      swap2\n        /* \"@openzeppelin/contracts/utils/ShortStrings.sol\":2300:2314  new string(32) */\n      swap1\n      0x20\n      dup3\n      add\n      dup2\n      dup1\n      calldatasize\n      dup4\n      calldatacopy\n      pop\n      pop\n      pop\n        /* \"@openzeppelin/contracts/utils/ShortStrings.sol\":2390:2406  mstore(str, len) */\n      swap2\n      dup3\n      mstore\n      pop\n        /* \"@openzeppelin/contracts/utils/ShortStrings.sol\":2435:2439  0x20 */\n      0x20\n        /* \"@openzeppelin/contracts/utils/ShortStrings.sol\":2426:2440  add(str, 0x20) */\n      dup2\n      add\n        /* \"@openzeppelin/contracts/utils/ShortStrings.sol\":2419:2447  mstore(add(str, 0x20), sstr) */\n      swap3\n      swap1\n      swap3\n      mstore\n      pop\n        /* \"@openzeppelin/contracts/utils/ShortStrings.sol\":2390:2406  mstore(str, len) */\n      swap1\n        /* \"@openzeppelin/contracts/utils/ShortStrings.sol\":2078:2483  function toString(ShortString sstr) internal pure returns (string memory) {... */\n      jump\t// out\n        /* \"@openzeppelin/contracts/utils/ShortStrings.sol\":2555:2800  function byteLength(ShortString sstr) internal pure returns (uint256) {... */\n    tag_359:\n        /* \"@openzeppelin/contracts/utils/ShortStrings.sol\":2616:2623  uint256 */\n      0x00\n        /* \"@openzeppelin/contracts/utils/ShortStrings.sol\":2688:2692  0xFF */\n      0xff\n        /* \"@openzeppelin/contracts/utils/ShortStrings.sol\":2652:2692  uint256(ShortString.unwrap(sstr)) & 0xFF */\n      dup3\n      and\n        /* \"@openzeppelin/contracts/utils/ShortStrings.sol\":2715:2717  31 */\n      0x1f\n        /* \"@openzeppelin/contracts/utils/ShortStrings.sol\":2706:2717  result > 31 */\n      dup2\n      gt\n        /* \"@openzeppelin/contracts/utils/ShortStrings.sol\":2702:2771  if (result > 31) {... */\n      iszero\n      tag_128\n      jumpi\n        /* \"@openzeppelin/contracts/utils/ShortStrings.sol\":2740:2760  InvalidShortString() */\n      mload(0x40)\n      shl(0xe2, 0x2cd44ac3)\n      dup2\n      mstore\n      0x04\n      add\n      mload(0x40)\n      dup1\n      swap2\n      sub\n      swap1\n      revert\n        /* \"#utility.yul\":14:300   */\n    tag_32:\n        /* \"#utility.yul\":72:78   */\n      0x00\n        /* \"#utility.yul\":125:127   */\n      0x20\n        /* \"#utility.yul\":113:122   */\n      dup3\n        /* \"#utility.yul\":104:111   */\n      dup5\n        /* \"#utility.yul\":100:123   */\n      sub\n        /* \"#utility.yul\":96:128   */\n      slt\n        /* \"#utility.yul\":93:145   */\n      iszero\n      tag_369\n      jumpi\n        /* \"#utility.yul\":141:142   */\n      0x00\n        /* \"#utility.yul\":138:139   */\n      dup1\n        /* \"#utility.yul\":131:143   */\n      revert\n        /* \"#utility.yul\":93:145   */\n    tag_369:\n        /* \"#utility.yul\":167:190   */\n      dup2\n      calldataload\n      not(sub(shl(0xe0, 0x01), 0x01))\n        /* \"#utility.yul\":219:251   */\n      dup2\n      and\n        /* \"#utility.yul\":209:252   */\n      dup2\n      eq\n        /* \"#utility.yul\":199:270   */\n      tag_370\n      jumpi\n        /* \"#utility.yul\":266:267   */\n      0x00\n        /* \"#utility.yul\":263:264   */\n      dup1\n        /* \"#utility.yul\":256:268   */\n      revert\n        /* \"#utility.yul\":199:270   */\n    tag_370:\n        /* \"#utility.yul\":289:294   */\n      swap4\n        /* \"#utility.yul\":14:300   */\n      swap3\n      pop\n      pop\n      pop\n      jump\t// out\n        /* \"#utility.yul\":497:920   */\n    tag_365:\n        /* \"#utility.yul\":539:542   */\n      0x00\n        /* \"#utility.yul\":577:582   */\n      dup2\n        /* \"#utility.yul\":571:583   */\n      mload\n        /* \"#utility.yul\":604:610   */\n      dup1\n        /* \"#utility.yul\":599:602   */\n      dup5\n        /* \"#utility.yul\":592:611   */\n      mstore\n        /* \"#utility.yul\":629:630   */\n      0x00\n        /* \"#utility.yul\":639:801   */\n    tag_373:\n        /* \"#utility.yul\":653:659   */\n      dup2\n        /* \"#utility.yul\":650:651   */\n      dup2\n        /* \"#utility.yul\":647:660   */\n      lt\n        /* \"#utility.yul\":639:801   */\n      iszero\n      tag_375\n      jumpi\n        /* \"#utility.yul\":715:719   */\n      0x20\n        /* \"#utility.yul\":771:784   */\n      dup2\n      dup6\n      add\n        /* \"#utility.yul\":767:789   */\n      dup2\n      add\n        /* \"#utility.yul\":761:790   */\n      mload\n        /* \"#utility.yul\":743:754   */\n      dup7\n      dup4\n      add\n        /* \"#utility.yul\":739:759   */\n      dup3\n      add\n        /* \"#utility.yul\":732:791   */\n      mstore\n        /* \"#utility.yul\":668:680   */\n      add\n        /* \"#utility.yul\":639:801   */\n      jump(tag_373)\n    tag_375:\n        /* \"#utility.yul\":643:646   */\n      pop\n        /* \"#utility.yul\":846:847   */\n      0x00\n        /* \"#utility.yul\":839:843   */\n      0x20\n        /* \"#utility.yul\":830:836   */\n      dup3\n        /* \"#utility.yul\":825:828   */\n      dup7\n        /* \"#utility.yul\":821:837   */\n      add\n        /* \"#utility.yul\":817:844   */\n      add\n        /* \"#utility.yul\":810:848   */\n      mstore\n        /* \"#utility.yul\":909:913   */\n      0x20\n        /* \"#utility.yul\":902:904   */\n      0x1f\n        /* \"#utility.yul\":898:905   */\n      not\n        /* \"#utility.yul\":893:895   */\n      0x1f\n        /* \"#utility.yul\":885:891   */\n      dup4\n        /* \"#utility.yul\":881:896   */\n      add\n        /* \"#utility.yul\":877:906   */\n      and\n        /* \"#utility.yul\":872:875   */\n      dup6\n        /* \"#utility.yul\":868:907   */\n      add\n        /* \"#utility.yul\":864:914   */\n      add\n        /* \"#utility.yul\":857:914   */\n      swap2\n      pop\n      pop\n        /* \"#utility.yul\":497:920   */\n      swap3\n      swap2\n      pop\n      pop\n      jump\t// out\n        /* \"#utility.yul\":925:1145   */\n    tag_39:\n        /* \"#utility.yul\":1074:1076   */\n      0x20\n        /* \"#utility.yul\":1063:1072   */\n      dup2\n        /* \"#utility.yul\":1056:1077   */\n      mstore\n        /* \"#utility.yul\":1037:1041   */\n      0x00\n        /* \"#utility.yul\":1094:1139   */\n      tag_370\n        /* \"#utility.yul\":1135:1137   */\n      0x20\n        /* \"#utility.yul\":1124:1133   */\n      dup4\n        /* \"#utility.yul\":1120:1138   */\n      add\n        /* \"#utility.yul\":1112:1118   */\n      dup5\n        /* \"#utility.yul\":1094:1139   */\n      tag_365\n      jump\t// in\n        /* \"#utility.yul\":1150:1323   */\n    tag_366:\n        /* \"#utility.yul\":1218:1238   */\n      dup1\n      calldataload\n      sub(shl(0xa0, 0x01), 0x01)\n        /* \"#utility.yul\":1267:1298   */\n      dup2\n      and\n        /* \"#utility.yul\":1257:1299   */\n      dup2\n      eq\n        /* \"#utility.yul\":1247:1317   */\n      tag_379\n      jumpi\n        /* \"#utility.yul\":1313:1314   */\n      0x00\n        /* \"#utility.yul\":1310:1311   */\n      dup1\n        /* \"#utility.yul\":1303:1315   */\n      revert\n        /* \"#utility.yul\":1247:1317   */\n    tag_379:\n        /* \"#utility.yul\":1150:1323   */\n      swap2\n      swap1\n      pop\n      jump\t// out\n        /* \"#utility.yul\":1328:1582   */\n    tag_42:\n        /* \"#utility.yul\":1396:1402   */\n      0x00\n        /* \"#utility.yul\":1404:1410   */\n      dup1\n        /* \"#utility.yul\":1457:1459   */\n      0x40\n        /* \"#utility.yul\":1445:1454   */\n      dup4\n        /* \"#utility.yul\":1436:1443   */\n      dup6\n        /* \"#utility.yul\":1432:1455   */\n      sub\n        /* \"#utility.yul\":1428:1460   */\n      slt\n        /* \"#utility.yul\":1425:1477   */\n      iszero\n      tag_381\n      jumpi\n        /* \"#utility.yul\":1473:1474   */\n      0x00\n        /* \"#utility.yul\":1470:1471   */\n      dup1\n        /* \"#utility.yul\":1463:1475   */\n      revert\n        /* \"#utility.yul\":1425:1477   */\n    tag_381:\n        /* \"#utility.yul\":1496:1525   */\n      tag_382\n        /* \"#utility.yul\":1515:1524   */\n      dup4\n        /* \"#utility.yul\":1496:1525   */\n      tag_366\n      jump\t// in\n    tag_382:\n        /* \"#utility.yul\":1486:1525   */\n      swap5\n        /* \"#utility.yul\":1572:1574   */\n      0x20\n        /* \"#utility.yul\":1557:1575   */\n      swap4\n      swap1\n      swap4\n      add\n        /* \"#utility.yul\":1544:1576   */\n      calldataload\n      swap4\n      pop\n      pop\n      pop\n        /* \"#utility.yul\":1328:1582   */\n      jump\t// out\n        /* \"#utility.yul\":1769:2097   */\n    tag_51:\n        /* \"#utility.yul\":1846:1852   */\n      0x00\n        /* \"#utility.yul\":1854:1860   */\n      dup1\n        /* \"#utility.yul\":1862:1868   */\n      0x00\n        /* \"#utility.yul\":1915:1917   */\n      0x60\n        /* \"#utility.yul\":1903:1912   */\n      dup5\n        /* \"#utility.yul\":1894:1901   */\n      dup7\n        /* \"#utility.yul\":1890:1913   */\n      sub\n        /* \"#utility.yul\":1886:1918   */\n      slt\n        /* \"#utility.yul\":1883:1935   */\n      iszero\n      tag_385\n      jumpi\n        /* \"#utility.yul\":1931:1932   */\n      0x00\n        /* \"#utility.yul\":1928:1929   */\n      dup1\n        /* \"#utility.yul\":1921:1933   */\n      revert\n        /* \"#utility.yul\":1883:1935   */\n    tag_385:\n        /* \"#utility.yul\":1954:1983   */\n      tag_386\n        /* \"#utility.yul\":1973:1982   */\n      dup5\n        /* \"#utility.yul\":1954:1983   */\n      tag_366\n      jump\t// in\n    tag_386:\n        /* \"#utility.yul\":1944:1983   */\n      swap3\n      pop\n        /* \"#utility.yul\":2002:2040   */\n      tag_387\n        /* \"#utility.yul\":2036:2038   */\n      0x20\n        /* \"#utility.yul\":2025:2034   */\n      dup6\n        /* \"#utility.yul\":2021:2039   */\n      add\n        /* \"#utility.yul\":2002:2040   */\n      tag_366\n      jump\t// in\n    tag_387:\n        /* \"#utility.yul\":1992:2040   */\n      swap2\n      pop\n        /* \"#utility.yul\":2087:2089   */\n      0x40\n        /* \"#utility.yul\":2076:2085   */\n      dup5\n        /* \"#utility.yul\":2072:2090   */\n      add\n        /* \"#utility.yul\":2059:2091   */\n      calldataload\n        /* \"#utility.yul\":2049:2091   */\n      swap1\n      pop\n        /* \"#utility.yul\":1769:2097   */\n      swap3\n      pop\n      swap3\n      pop\n      swap3\n      jump\t// out\n        /* \"#utility.yul\":2102:2282   */\n    tag_56:\n        /* \"#utility.yul\":2161:2167   */\n      0x00\n        /* \"#utility.yul\":2214:2216   */\n      0x20\n        /* \"#utility.yul\":2202:2211   */\n      dup3\n        /* \"#utility.yul\":2193:2200   */\n      dup5\n        /* \"#utility.yul\":2189:2212   */\n      sub\n        /* \"#utility.yul\":2185:2217   */\n      slt\n        /* \"#utility.yul\":2182:2234   */\n      iszero\n      tag_389\n      jumpi\n        /* \"#utility.yul\":2230:2231   */\n      0x00\n        /* \"#utility.yul\":2227:2228   */\n      dup1\n        /* \"#utility.yul\":2220:2232   */\n      revert\n        /* \"#utility.yul\":2182:2234   */\n    tag_389:\n      pop\n        /* \"#utility.yul\":2253:2276   */\n      calldataload\n      swap2\n        /* \"#utility.yul\":2102:2282   */\n      swap1\n      pop\n      jump\t// out\n        /* \"#utility.yul\":2469:2723   */\n    tag_62:\n        /* \"#utility.yul\":2537:2543   */\n      0x00\n        /* \"#utility.yul\":2545:2551   */\n      dup1\n        /* \"#utility.yul\":2598:2600   */\n      0x40\n        /* \"#utility.yul\":2586:2595   */\n      dup4\n        /* \"#utility.yul\":2577:2584   */\n      dup6\n        /* \"#utility.yul\":2573:2596   */\n      sub\n        /* \"#utility.yul\":2569:2601   */\n      slt\n        /* \"#utility.yul\":2566:2618   */\n      iszero\n      tag_392\n      jumpi\n        /* \"#utility.yul\":2614:2615   */\n      0x00\n        /* \"#utility.yul\":2611:2612   */\n      dup1\n        /* \"#utility.yul\":2604:2616   */\n      revert\n        /* \"#utility.yul\":2566:2618   */\n    tag_392:\n        /* \"#utility.yul\":2650:2659   */\n      dup3\n        /* \"#utility.yul\":2637:2660   */\n      calldataload\n        /* \"#utility.yul\":2627:2660   */\n      swap2\n      pop\n        /* \"#utility.yul\":2679:2717   */\n      tag_393\n        /* \"#utility.yul\":2713:2715   */\n      0x20\n        /* \"#utility.yul\":2702:2711   */\n      dup5\n        /* \"#utility.yul\":2698:2716   */\n      add\n        /* \"#utility.yul\":2679:2717   */\n      tag_366\n      jump\t// in\n    tag_393:\n        /* \"#utility.yul\":2669:2717   */\n      swap1\n      pop\n        /* \"#utility.yul\":2469:2723   */\n      swap3\n      pop\n      swap3\n      swap1\n      pop\n      jump\t// out\n        /* \"#utility.yul\":3102:3288   */\n    tag_83:\n        /* \"#utility.yul\":3161:3167   */\n      0x00\n        /* \"#utility.yul\":3214:3216   */\n      0x20\n        /* \"#utility.yul\":3202:3211   */\n      dup3\n        /* \"#utility.yul\":3193:3200   */\n      dup5\n        /* \"#utility.yul\":3189:3212   */\n      sub\n        /* \"#utility.yul\":3185:3217   */\n      slt\n        /* \"#utility.yul\":3182:3234   */\n      iszero\n      tag_398\n      jumpi\n        /* \"#utility.yul\":3230:3231   */\n      0x00\n        /* \"#utility.yul\":3227:3228   */\n      dup1\n        /* \"#utility.yul\":3220:3232   */\n      revert\n        /* \"#utility.yul\":3182:3234   */\n    tag_398:\n        /* \"#utility.yul\":3253:3282   */\n      tag_370\n        /* \"#utility.yul\":3272:3281   */\n      dup3\n        /* \"#utility.yul\":3253:3282   */\n      tag_366\n      jump\t// in\n        /* \"#utility.yul\":3293:4552   */\n    tag_96:\n        /* \"#utility.yul\":3699:3702   */\n      0xff\n        /* \"#utility.yul\":3694:3697   */\n      0xf8\n        /* \"#utility.yul\":3690:3703   */\n      shl\n        /* \"#utility.yul\":3682:3688   */\n      dup9\n        /* \"#utility.yul\":3678:3704   */\n      and\n        /* \"#utility.yul\":3667:3676   */\n      dup2\n        /* \"#utility.yul\":3660:3705   */\n      mstore\n        /* \"#utility.yul\":3641:3645   */\n      0x00\n        /* \"#utility.yul\":3724:3726   */\n      0x20\n        /* \"#utility.yul\":3762:3765   */\n      0xe0\n        /* \"#utility.yul\":3757:3759   */\n      0x20\n        /* \"#utility.yul\":3746:3755   */\n      dup5\n        /* \"#utility.yul\":3742:3760   */\n      add\n        /* \"#utility.yul\":3735:3766   */\n      mstore\n        /* \"#utility.yul\":3789:3835   */\n      tag_401\n        /* \"#utility.yul\":3830:3833   */\n      0xe0\n        /* \"#utility.yul\":3819:3828   */\n      dup5\n        /* \"#utility.yul\":3815:3834   */\n      add\n        /* \"#utility.yul\":3807:3813   */\n      dup11\n        /* \"#utility.yul\":3789:3835   */\n      tag_365\n      jump\t// in\n    tag_401:\n        /* \"#utility.yul\":3883:3892   */\n      dup4\n        /* \"#utility.yul\":3875:3881   */\n      dup2\n        /* \"#utility.yul\":3871:3893   */\n      sub\n        /* \"#utility.yul\":3866:3868   */\n      0x40\n        /* \"#utility.yul\":3855:3864   */\n      dup6\n        /* \"#utility.yul\":3851:3869   */\n      add\n        /* \"#utility.yul\":3844:3894   */\n      mstore\n        /* \"#utility.yul\":3917:3950   */\n      tag_402\n        /* \"#utility.yul\":3943:3949   */\n      dup2\n        /* \"#utility.yul\":3935:3941   */\n      dup11\n        /* \"#utility.yul\":3917:3950   */\n      tag_365\n      jump\t// in\n    tag_402:\n        /* \"#utility.yul\":3981:3983   */\n      0x60\n        /* \"#utility.yul\":3966:3984   */\n      dup6\n      add\n        /* \"#utility.yul\":3959:3993   */\n      dup10\n      swap1\n      mstore\n      sub(shl(0xa0, 0x01), 0x01)\n        /* \"#utility.yul\":4030:4062   */\n      dup9\n      and\n        /* \"#utility.yul\":4024:4027   */\n      0x80\n        /* \"#utility.yul\":4009:4028   */\n      dup7\n      add\n        /* \"#utility.yul\":4002:4063   */\n      mstore\n        /* \"#utility.yul\":4050:4053   */\n      0xa0\n        /* \"#utility.yul\":4079:4098   */\n      dup6\n      add\n        /* \"#utility.yul\":4072:4107   */\n      dup8\n      swap1\n      mstore\n        /* \"#utility.yul\":4144:4166   */\n      dup5\n      dup2\n      sub\n        /* \"#utility.yul\":4138:4141   */\n      0xc0\n        /* \"#utility.yul\":4123:4142   */\n      dup7\n      add\n        /* \"#utility.yul\":4116:4167   */\n      mstore\n        /* \"#utility.yul\":4216:4229   */\n      dup6\n      mload\n        /* \"#utility.yul\":4238:4260   */\n      dup1\n      dup3\n      mstore\n        /* \"#utility.yul\":4288:4290   */\n      0x20\n        /* \"#utility.yul\":4314:4329   */\n      dup1\n      dup9\n      add\n      swap4\n      pop\n        /* \"#utility.yul\":4276:4291   */\n      swap1\n      swap2\n      add\n      swap1\n      0x00\n        /* \"#utility.yul\":4357:4526   */\n    tag_403:\n        /* \"#utility.yul\":4371:4377   */\n      dup2\n        /* \"#utility.yul\":4368:4369   */\n      dup2\n        /* \"#utility.yul\":4365:4378   */\n      lt\n        /* \"#utility.yul\":4357:4526   */\n      iszero\n      tag_405\n      jumpi\n        /* \"#utility.yul\":4432:4445   */\n      dup4\n      mload\n        /* \"#utility.yul\":4420:4446   */\n      dup4\n      mstore\n        /* \"#utility.yul\":4501:4516   */\n      swap3\n      dup5\n      add\n      swap3\n        /* \"#utility.yul\":4466:4478   */\n      swap2\n      dup5\n      add\n      swap2\n        /* \"#utility.yul\":4393:4394   */\n      0x01\n        /* \"#utility.yul\":4386:4395   */\n      add\n        /* \"#utility.yul\":4357:4526   */\n      jump(tag_403)\n    tag_405:\n      pop\n        /* \"#utility.yul\":4543:4546   */\n      swap1\n      swap13\n        /* \"#utility.yul\":3293:4552   */\n      swap12\n      pop\n      pop\n      pop\n      pop\n      pop\n      pop\n      pop\n      pop\n      pop\n      pop\n      pop\n      pop\n      jump\t// out\n        /* \"#utility.yul\":4557:5250   */\n    tag_113:\n        /* \"#utility.yul\":4668:4674   */\n      0x00\n        /* \"#utility.yul\":4676:4682   */\n      dup1\n        /* \"#utility.yul\":4684:4690   */\n      0x00\n        /* \"#utility.yul\":4692:4698   */\n      dup1\n        /* \"#utility.yul\":4700:4706   */\n      0x00\n        /* \"#utility.yul\":4708:4714   */\n      dup1\n        /* \"#utility.yul\":4716:4722   */\n      0x00\n        /* \"#utility.yul\":4769:4772   */\n      0xe0\n        /* \"#utility.yul\":4757:4766   */\n      dup9\n        /* \"#utility.yul\":4748:4755   */\n      dup11\n        /* \"#utility.yul\":4744:4767   */\n      sub\n        /* \"#utility.yul\":4740:4773   */\n      slt\n        /* \"#utility.yul\":4737:4790   */\n      iszero\n      tag_407\n      jumpi\n        /* \"#utility.yul\":4786:4787   */\n      0x00\n        /* \"#utility.yul\":4783:4784   */\n      dup1\n        /* \"#utility.yul\":4776:4788   */\n      revert\n        /* \"#utility.yul\":4737:4790   */\n    tag_407:\n        /* \"#utility.yul\":4809:4838   */\n      tag_408\n        /* \"#utility.yul\":4828:4837   */\n      dup9\n        /* \"#utility.yul\":4809:4838   */\n      tag_366\n      jump\t// in\n    tag_408:\n        /* \"#utility.yul\":4799:4838   */\n      swap7\n      pop\n        /* \"#utility.yul\":4857:4895   */\n      tag_409\n        /* \"#utility.yul\":4891:4893   */\n      0x20\n        /* \"#utility.yul\":4880:4889   */\n      dup10\n        /* \"#utility.yul\":4876:4894   */\n      add\n        /* \"#utility.yul\":4857:4895   */\n      tag_366\n      jump\t// in\n    tag_409:\n        /* \"#utility.yul\":4847:4895   */\n      swap6\n      pop\n        /* \"#utility.yul\":4942:4944   */\n      0x40\n        /* \"#utility.yul\":4931:4940   */\n      dup9\n        /* \"#utility.yul\":4927:4945   */\n      add\n        /* \"#utility.yul\":4914:4946   */\n      calldataload\n        /* \"#utility.yul\":4904:4946   */\n      swap5\n      pop\n        /* \"#utility.yul\":4993:4995   */\n      0x60\n        /* \"#utility.yul\":4982:4991   */\n      dup9\n        /* \"#utility.yul\":4978:4996   */\n      add\n        /* \"#utility.yul\":4965:4997   */\n      calldataload\n        /* \"#utility.yul\":4955:4997   */\n      swap4\n      pop\n        /* \"#utility.yul\":5047:5050   */\n      0x80\n        /* \"#utility.yul\":5036:5045   */\n      dup9\n        /* \"#utility.yul\":5032:5051   */\n      add\n        /* \"#utility.yul\":5019:5052   */\n      calldataload\n        /* \"#utility.yul\":5092:5096   */\n      0xff\n        /* \"#utility.yul\":5085:5090   */\n      dup2\n        /* \"#utility.yul\":5081:5097   */\n      and\n        /* \"#utility.yul\":5074:5079   */\n      dup2\n        /* \"#utility.yul\":5071:5098   */\n      eq\n        /* \"#utility.yul\":5061:5116   */\n      tag_410\n      jumpi\n        /* \"#utility.yul\":5112:5113   */\n      0x00\n        /* \"#utility.yul\":5109:5110   */\n      dup1\n        /* \"#utility.yul\":5102:5114   */\n      revert\n        /* \"#utility.yul\":5061:5116   */\n    tag_410:\n        /* \"#utility.yul\":4557:5250   */\n      swap7\n      swap10\n      swap6\n      swap9\n      pop\n      swap4\n      swap7\n      swap3\n      swap6\n        /* \"#utility.yul\":5135:5140   */\n      swap5\n        /* \"#utility.yul\":5187:5190   */\n      0xa0\n        /* \"#utility.yul\":5172:5191   */\n      dup5\n      add\n        /* \"#utility.yul\":5159:5192   */\n      calldataload\n      swap5\n      pop\n        /* \"#utility.yul\":5239:5242   */\n      0xc0\n        /* \"#utility.yul\":5224:5243   */\n      swap1\n      swap4\n      add\n        /* \"#utility.yul\":5211:5244   */\n      calldataload\n      swap3\n        /* \"#utility.yul\":4557:5250   */\n      swap2\n      pop\n      pop\n      jump\t// out\n        /* \"#utility.yul\":5255:5515   */\n    tag_123:\n        /* \"#utility.yul\":5323:5329   */\n      0x00\n        /* \"#utility.yul\":5331:5337   */\n      dup1\n        /* \"#utility.yul\":5384:5386   */\n      0x40\n        /* \"#utility.yul\":5372:5381   */\n      dup4\n        /* \"#utility.yul\":5363:5370   */\n      dup6\n        /* \"#utility.yul\":5359:5382   */\n      sub\n        /* \"#utility.yul\":5355:5387   */\n      slt\n        /* \"#utility.yul\":5352:5404   */\n      iszero\n      tag_412\n      jumpi\n        /* \"#utility.yul\":5400:5401   */\n      0x00\n        /* \"#utility.yul\":5397:5398   */\n      dup1\n        /* \"#utility.yul\":5390:5402   */\n      revert\n        /* \"#utility.yul\":5352:5404   */\n    tag_412:\n        /* \"#utility.yul\":5423:5452   */\n      tag_413\n        /* \"#utility.yul\":5442:5451   */\n      dup4\n        /* \"#utility.yul\":5423:5452   */\n      tag_366\n      jump\t// in\n    tag_413:\n        /* \"#utility.yul\":5413:5452   */\n      swap2\n      pop\n        /* \"#utility.yul\":5471:5509   */\n      tag_393\n        /* \"#utility.yul\":5505:5507   */\n      0x20\n        /* \"#utility.yul\":5494:5503   */\n      dup5\n        /* \"#utility.yul\":5490:5508   */\n      add\n        /* \"#utility.yul\":5471:5509   */\n      tag_366\n      jump\t// in\n        /* \"#utility.yul\":5520:5900   */\n    tag_132:\n        /* \"#utility.yul\":5599:5600   */\n      0x01\n        /* \"#utility.yul\":5595:5607   */\n      dup2\n      dup2\n      shr\n      swap1\n        /* \"#utility.yul\":5642:5654   */\n      dup3\n      and\n      dup1\n        /* \"#utility.yul\":5663:5724   */\n      tag_416\n      jumpi\n        /* \"#utility.yul\":5717:5721   */\n      0x7f\n        /* \"#utility.yul\":5709:5715   */\n      dup3\n        /* \"#utility.yul\":5705:5722   */\n      and\n        /* \"#utility.yul\":5695:5722   */\n      swap2\n      pop\n        /* \"#utility.yul\":5663:5724   */\n    tag_416:\n        /* \"#utility.yul\":5770:5772   */\n      0x20\n        /* \"#utility.yul\":5762:5768   */\n      dup3\n        /* \"#utility.yul\":5759:5773   */\n      lt\n        /* \"#utility.yul\":5739:5757   */\n      dup2\n        /* \"#utility.yul\":5736:5774   */\n      sub\n        /* \"#utility.yul\":5733:5894   */\n      tag_417\n      jumpi\n        /* \"#utility.yul\":5816:5826   */\n      0x4e487b71\n        /* \"#utility.yul\":5811:5814   */\n      0xe0\n        /* \"#utility.yul\":5807:5827   */\n      shl\n        /* \"#utility.yul\":5804:5805   */\n      0x00\n        /* \"#utility.yul\":5797:5828   */\n      mstore\n        /* \"#utility.yul\":5851:5855   */\n      0x22\n        /* \"#utility.yul\":5848:5849   */\n      0x04\n        /* \"#utility.yul\":5841:5856   */\n      mstore\n        /* \"#utility.yul\":5879:5883   */\n      0x24\n        /* \"#utility.yul\":5876:5877   */\n      0x00\n        /* \"#utility.yul\":5869:5884   */\n      revert\n        /* \"#utility.yul\":5733:5894   */\n    tag_417:\n      pop\n        /* \"#utility.yul\":5520:5900   */\n      swap2\n      swap1\n      pop\n      jump\t// out\n        /* \"#utility.yul\":7500:7722   */\n    tag_297:\n        /* \"#utility.yul\":7565:7574   */\n      dup1\n      dup3\n      add\n        /* \"#utility.yul\":7586:7596   */\n      dup1\n      dup3\n      gt\n        /* \"#utility.yul\":7583:7716   */\n      iszero\n      tag_128\n      jumpi\n        /* \"#utility.yul\":7638:7648   */\n      0x4e487b71\n        /* \"#utility.yul\":7633:7636   */\n      0xe0\n        /* \"#utility.yul\":7629:7649   */\n      shl\n        /* \"#utility.yul\":7626:7627   */\n      0x00\n        /* \"#utility.yul\":7619:7650   */\n      mstore\n        /* \"#utility.yul\":7673:7677   */\n      0x11\n        /* \"#utility.yul\":7670:7671   */\n      0x04\n        /* \"#utility.yul\":7663:7678   */\n      mstore\n        /* \"#utility.yul\":7701:7705   */\n      0x24\n        /* \"#utility.yul\":7698:7699   */\n      0x00\n        /* \"#utility.yul\":7691:7706   */\n      revert\n        /* \"#utility.yul\":8903:9030   */\n    tag_333:\n        /* \"#utility.yul\":8964:8974   */\n      0x4e487b71\n        /* \"#utility.yul\":8959:8962   */\n      0xe0\n        /* \"#utility.yul\":8955:8975   */\n      shl\n        /* \"#utility.yul\":8952:8953   */\n      0x00\n        /* \"#utility.yul\":8945:8976   */\n      mstore\n        /* \"#utility.yul\":8995:8999   */\n      0x21\n        /* \"#utility.yul\":8992:8993   */\n      0x04\n        /* \"#utility.yul\":8985:9000   */\n      mstore\n        /* \"#utility.yul\":9019:9023   */\n      0x24\n        /* \"#utility.yul\":9016:9017   */\n      0x00\n        /* \"#utility.yul\":9009:9024   */\n      revert\n\n    auxdata: 0xa2646970667358221220ec704df8231758a9a0510905814af47412fb26b5b323745909eb19139a115aba64736f6c63430008160033\n}\n",
				"bytecode": {
					"linkReferences": {},
					"object": "61016060405234801562000011575f80fd5b5060405162001bb038038062001bb08339810160408190526200003491620004a8565b6040518060400160405280600a8152602001692ab6b6b0b73a37b5b2b760b11b81525080604051806040016040528060018152602001603160f81b8152506040518060400160405280600a8152602001692ab6b6b0b73a37b5b2b760b11b8152506040518060400160405280600381526020016255544b60e81b8152508160039081620000c291906200057c565b506004620000d182826200057c565b50620000e391508390506006620001f4565b61012052620000f4816007620001f4565b61014052815160208084019190912060e052815190820120610100524660a0526200018160e05161010051604080517f8b73c3c69bb8fe3d512ecc4cf759cc79239f7b179b0ffacaa9a75d522b39400f60208201529081019290925260608201524660808201523060a08201525f9060c00160405160208183030381529060405280519060200120905090565b60805250503060c05250620001b2336200019e6012600a62000755565b620001ac906103e86200076c565b6200022c565b620001be5f836200026c565b50620001eb7f9f2df0fed2c77648de5860a4cc508cd0818c85b8b8a1ab4ceeef8d981c8956a6826200026c565b5050506200080e565b5f60208351101562000213576200020b836200031b565b905062000226565b816200022084826200057c565b5060ff90505b92915050565b6001600160a01b0382166200025b5760405163ec442f0560e01b81525f60048201526024015b60405180910390fd5b620002685f83836200035d565b5050565b5f8281526005602090815260408083206001600160a01b038516845290915281205460ff1662000313575f8381526005602090815260408083206001600160a01b03861684529091529020805460ff19166001179055620002ca3390565b6001600160a01b0316826001600160a01b0316847f2f8788117e7eff1d82e926ec794901d17c78024a50270940304540a733656f0d60405160405180910390a450600162000226565b505f62000226565b5f80829050601f8151111562000348578260405163305a27a960e01b815260040162000252919062000786565b80516200035582620007d4565b179392505050565b6001600160a01b0383166200038b578060025f8282546200037f9190620007f8565b90915550620003fd9050565b6001600160a01b0383165f9081526020819052604090205481811015620003df5760405163391434e360e21b81526001600160a01b0385166004820152602481018290526044810183905260640162000252565b6001600160a01b0384165f9081526020819052604090209082900390555b6001600160a01b0382166200041b5760028054829003905562000439565b6001600160a01b0382165f9081526020819052604090208054820190555b816001600160a01b0316836001600160a01b03167fddf252ad1be2c89b69c2b068fc378daa952ba7f163c4a11628f55a4df523b3ef836040516200047f91815260200190565b60405180910390a3505050565b80516001600160a01b0381168114620004a3575f80fd5b919050565b5f8060408385031215620004ba575f80fd5b620004c5836200048c565b9150620004d5602084016200048c565b90509250929050565b634e487b7160e01b5f52604160045260245ffd5b600181811c908216806200050757607f821691505b6020821081036200052657634e487b7160e01b5f52602260045260245ffd5b50919050565b601f8211156200057757805f5260205f20601f840160051c81016020851015620005535750805b601f840160051c820191505b8181101562000574575f81556001016200055f565b50505b505050565b81516001600160401b03811115620005985762000598620004de565b620005b081620005a98454620004f2565b846200052c565b602080601f831160018114620005e6575f8415620005ce5750858301515b5f19600386901b1c1916600185901b17855562000640565b5f85815260208120601f198616915b828110156200061657888601518255948401946001909101908401620005f5565b50858210156200063457878501515f19600388901b60f8161c191681555b505060018460011b0185555b505050505050565b634e487b7160e01b5f52601160045260245ffd5b600181815b808511156200069c57815f190482111562000680576200068062000648565b808516156200068e57918102915b93841c939080029062000661565b509250929050565b5f82620006b45750600162000226565b81620006c257505f62000226565b8160018114620006db5760028114620006e65762000706565b600191505062000226565b60ff841115620006fa57620006fa62000648565b50506001821b62000226565b5060208310610133831016604e8410600b84101617156200072b575081810a62000226565b6200073783836200065c565b805f19048211156200074d576200074d62000648565b029392505050565b5f6200076560ff841683620006a4565b9392505050565b808202811582820484141762000226576200022662000648565b5f602080835283518060208501525f5b81811015620007b45785810183015185820160400152820162000796565b505f604082860101526040601f19601f8301168501019250505092915050565b8051602080830151919081101562000526575f1960209190910360031b1b16919050565b8082018082111562000226576200022662000648565b60805160a05160c05160e051610100516101205161014051611350620008605f395f610aee01525f610ac101525f61099701525f61096f01525f6108ca01525f6108f401525f61091e01526113505ff3fe608060405234801561000f575f80fd5b5060043610610153575f3560e01c806370a08231116100bf578063a217fddf11610079578063a217fddf146102d7578063a9059cbb146102de578063d505accf146102f1578063d539139314610304578063d547741f1461032b578063dd62ed3e1461033e575f80fd5b806370a082311461025357806379cc67901461027b5780637ecebe001461028e57806384b0196e146102a157806391d14854146102bc57806395d89b41146102cf575f80fd5b80632f2ff15d116101105780632f2ff15d146101ee578063313ce567146102035780633644e5151461021257806336568abe1461021a57806340c10f191461022d57806342966c6814610240575f80fd5b806301ffc9a71461015757806306fdde031461017f578063095ea7b31461019457806318160ddd146101a757806323b872dd146101b9578063248a9ca3146101cc575b5f80fd5b61016a61016536600461102a565b610376565b60405190151581526020015b60405180910390f35b6101876103ac565b604051610176919061109b565b61016a6101a23660046110c8565b61043c565b6002545b604051908152602001610176565b61016a6101c73660046110f0565b610453565b6101ab6101da366004611129565b5f9081526005602052604090206001015490565b6102016101fc366004611140565b610476565b005b60405160128152602001610176565b6101ab6104a0565b610201610228366004611140565b6104ae565b61020161023b3660046110c8565b6104e6565b61020161024e366004611129565b61051a565b6101ab61026136600461116a565b6001600160a01b03165f9081526020819052604090205490565b6102016102893660046110c8565b610527565b6101ab61029c36600461116a565b610540565b6102a961055d565b6040516101769796959493929190611183565b61016a6102ca366004611140565b61059f565b6101876105c9565b6101ab5f81565b61016a6102ec3660046110c8565b6105d8565b6102016102ff36600461121a565b6105e5565b6101ab7f9f2df0fed2c77648de5860a4cc508cd0818c85b8b8a1ab4ceeef8d981c8956a681565b610201610339366004611140565b610720565b6101ab61034c366004611287565b6001600160a01b039182165f90815260016020908152604080832093909416825291909152205490565b5f6001600160e01b03198216637965db0b60e01b14806103a657506301ffc9a760e01b6001600160e01b03198316145b92915050565b6060600380546103bb906112af565b80601f01602080910402602001604051908101604052809291908181526020018280546103e7906112af565b80156104325780601f1061040957610100808354040283529160200191610432565b820191905f5260205f20905b81548152906001019060200180831161041557829003601f168201915b5050505050905090565b5f33610449818585610744565b5060019392505050565b5f33610460858285610751565b61046b8585856107c6565b506001949350505050565b5f8281526005602052604090206001015461049081610823565b61049a838361082d565b50505050565b5f6104a96108be565b905090565b6001600160a01b03811633146104d75760405163334bd91960e11b815260040160405180910390fd5b6104e182826109e7565b505050565b7f9f2df0fed2c77648de5860a4cc508cd0818c85b8b8a1ab4ceeef8d981c8956a661051081610823565b6104e18383610a52565b6105243382610a86565b50565b610532823383610751565b61053c8282610a86565b5050565b6001600160a01b0381165f908152600860205260408120546103a6565b5f6060805f805f606061056e610aba565b610576610ae7565b604080515f80825260208201909252600f60f81b9b939a50919850469750309650945092509050565b5f9182526005602090815260408084206001600160a01b0393909316845291905290205460ff1690565b6060600480546103bb906112af565b5f336104498185856107c6565b8342111561060e5760405163313c898160e11b8152600481018590526024015b60405180910390fd5b5f7f6e71edae12b1b97f4d1f60370fef10105fa2faae0126114a169c64845d6126c98888886106598c6001600160a01b03165f90815260086020526040902080546001810190915590565b6040805160208101969096526001600160a01b0394851690860152929091166060840152608083015260a082015260c0810186905260e0016040516020818303038152906040528051906020012090505f6106b382610b14565b90505f6106c282878787610b40565b9050896001600160a01b0316816001600160a01b031614610709576040516325c0072360e11b81526001600160a01b0380831660048301528b166024820152604401610605565b6107148a8a8a610744565b50505050505050505050565b5f8281526005602052604090206001015461073a81610823565b61049a83836109e7565b6104e18383836001610b6c565b6001600160a01b038381165f908152600160209081526040808320938616835292905220545f19811461049a57818110156107b857604051637dc7a0d960e11b81526001600160a01b03841660048201526024810182905260448101839052606401610605565b61049a84848484035f610b6c565b6001600160a01b0383166107ef57604051634b637e8f60e11b81525f6004820152602401610605565b6001600160a01b0382166108185760405163ec442f0560e01b81525f6004820152602401610605565b6104e1838383610c3e565b6105248133610d64565b5f610838838361059f565b6108b7575f8381526005602090815260408083206001600160a01b03861684529091529020805460ff1916600117905561086f3390565b6001600160a01b0316826001600160a01b0316847f2f8788117e7eff1d82e926ec794901d17c78024a50270940304540a733656f0d60405160405180910390a45060016103a6565b505f6103a6565b5f306001600160a01b037f00000000000000000000000000000000000000000000000000000000000000001614801561091657507f000000000000000000000000000000000000000000000000000000000000000046145b1561094057507f000000000000000000000000000000000000000000000000000000000000000090565b6104a9604080517f8b73c3c69bb8fe3d512ecc4cf759cc79239f7b179b0ffacaa9a75d522b39400f60208201527f0000000000000000000000000000000000000000000000000000000000000000918101919091527f000000000000000000000000000000000000000000000000000000000000000060608201524660808201523060a08201525f9060c00160405160208183030381529060405280519060200120905090565b5f6109f2838361059f565b156108b7575f8381526005602090815260408083206001600160a01b0386168085529252808320805460ff1916905551339286917ff6391f5c32d9c69d2a47ea670b442974b53935d1edc7fd64eb21e047a839171b9190a45060016103a6565b6001600160a01b038216610a7b5760405163ec442f0560e01b81525f6004820152602401610605565b61053c5f8383610c3e565b6001600160a01b038216610aaf57604051634b637e8f60e11b81525f6004820152602401610605565b61053c825f83610c3e565b60606104a97f00000000000000000000000000000000000000000000000000000000000000006006610d9d565b60606104a97f00000000000000000000000000000000000000000000000000000000000000006007610d9d565b5f6103a6610b206108be565b8360405161190160f01b8152600281019290925260228201526042902090565b5f805f80610b5088888888610e46565b925092509250610b608282610f0e565b50909695505050505050565b6001600160a01b038416610b955760405163e602df0560e01b81525f6004820152602401610605565b6001600160a01b038316610bbe57604051634a1406b160e11b81525f6004820152602401610605565b6001600160a01b038085165f908152600160209081526040808320938716835292905220829055801561049a57826001600160a01b0316846001600160a01b03167f8c5be1e5ebec7d5bd14f71427d1e84f3dd0314c0f7b2291e5b200ac8c7c3b92584604051610c3091815260200190565b60405180910390a350505050565b6001600160a01b038316610c68578060025f828254610c5d91906112e7565b90915550610cd89050565b6001600160a01b0383165f9081526020819052604090205481811015610cba5760405163391434e360e21b81526001600160a01b03851660048201526024810182905260448101839052606401610605565b6001600160a01b0384165f9081526020819052604090209082900390555b6001600160a01b038216610cf457600280548290039055610d12565b6001600160a01b0382165f9081526020819052604090208054820190555b816001600160a01b0316836001600160a01b03167fddf252ad1be2c89b69c2b068fc378daa952ba7f163c4a11628f55a4df523b3ef83604051610d5791815260200190565b60405180910390a3505050565b610d6e828261059f565b61053c5760405163e2517d3f60e01b81526001600160a01b038216600482015260248101839052604401610605565b606060ff8314610db757610db083610fc6565b90506103a6565b818054610dc3906112af565b80601f0160208091040260200160405190810160405280929190818152602001828054610def906112af565b8015610e3a5780601f10610e1157610100808354040283529160200191610e3a565b820191905f5260205f20905b815481529060010190602001808311610e1d57829003601f168201915b505050505090506103a6565b5f80807f7fffffffffffffffffffffffffffffff5d576e7357a4501ddfe92f46681b20a0841115610e7f57505f91506003905082610f04565b604080515f808252602082018084528a905260ff891692820192909252606081018790526080810186905260019060a0016020604051602081039080840390855afa158015610ed0573d5f803e3d5ffd5b5050604051601f1901519150506001600160a01b038116610efb57505f925060019150829050610f04565b92505f91508190505b9450945094915050565b5f826003811115610f2157610f21611306565b03610f2a575050565b6001826003811115610f3e57610f3e611306565b03610f5c5760405163f645eedf60e01b815260040160405180910390fd5b6002826003811115610f7057610f70611306565b03610f915760405163fce698f760e01b815260048101829052602401610605565b6003826003811115610fa557610fa5611306565b0361053c576040516335e2f38360e21b815260048101829052602401610605565b60605f610fd283611003565b6040805160208082528183019092529192505f91906020820181803683375050509182525060208101929092525090565b5f60ff8216601f8111156103a657604051632cd44ac360e21b815260040160405180910390fd5b5f6020828403121561103a575f80fd5b81356001600160e01b031981168114611051575f80fd5b9392505050565b5f81518084525f5b8181101561107c57602081850181015186830182015201611060565b505f602082860101526020601f19601f83011685010191505092915050565b602081525f6110516020830184611058565b80356001600160a01b03811681146110c3575f80fd5b919050565b5f80604083850312156110d9575f80fd5b6110e2836110ad565b946020939093013593505050565b5f805f60608486031215611102575f80fd5b61110b846110ad565b9250611119602085016110ad565b9150604084013590509250925092565b5f60208284031215611139575f80fd5b5035919050565b5f8060408385031215611151575f80fd5b82359150611161602084016110ad565b90509250929050565b5f6020828403121561117a575f80fd5b611051826110ad565b60ff60f81b881681525f602060e060208401526111a360e084018a611058565b83810360408501526111b5818a611058565b606085018990526001600160a01b038816608086015260a0850187905284810360c0860152855180825260208088019350909101905f5b81811015611208578351835292840192918401916001016111ec565b50909c9b505050505050505050505050565b5f805f805f805f60e0888a031215611230575f80fd5b611239886110ad565b9650611247602089016110ad565b95506040880135945060608801359350608088013560ff8116811461126a575f80fd5b9699959850939692959460a0840135945060c09093013592915050565b5f8060408385031215611298575f80fd5b6112a1836110ad565b9150611161602084016110ad565b600181811c908216806112c357607f821691505b6020821081036112e157634e487b7160e01b5f52602260045260245ffd5b50919050565b808201808211156103a657634e487b7160e01b5f52601160045260245ffd5b634e487b7160e01b5f52602160045260245ffdfea2646970667358221220ec704df8231758a9a0510905814af47412fb26b5b323745909eb19139a115aba64736f6c63430008160033",
					"opcodes": "PUSH2 0x160 PUSH1 0x40 MSTORE CALLVALUE DUP1 ISZERO PUSH3 0x11 JUMPI PUSH0 DUP1 REVERT JUMPDEST POP PUSH1 0x40 MLOAD PUSH3 0x1BB0 CODESIZE SUB DUP1 PUSH3 0x1BB0 DUP4 CODECOPY DUP2 ADD PUSH1 0x40 DUP2 SWAP1 MSTORE PUSH3 0x34 SWAP2 PUSH3 0x4A8 JUMP JUMPDEST PUSH1 0x40 MLOAD DUP1 PUSH1 0x40 ADD PUSH1 0x40 MSTORE DUP1 PUSH1 0xA DUP2 MSTORE PUSH1 0x20 ADD PUSH10 0x2AB6B6B0B73A37B5B2B7 PUSH1 0xB1 SHL DUP2 MSTORE POP DUP1 PUSH1 0x40 MLOAD DUP1 PUSH1 0x40 ADD PUSH1 0x40 MSTORE DUP1 PUSH1 0x1 DUP2 MSTORE PUSH1 0x20 ADD PUSH1 0x31 PUSH1 0xF8 SHL DUP2 MSTORE POP PUSH1 0x40 MLOAD DUP1 PUSH1 0x40 ADD PUSH1 0x40 MSTORE DUP1 PUSH1 0xA DUP2 MSTORE PUSH1 0x20 ADD PUSH10 0x2AB6B6B0B73A37B5B2B7 PUSH1 0xB1 SHL DUP2 MSTORE POP PUSH1 0x40 MLOAD DUP1 PUSH1 0x40 ADD PUSH1 0x40 MSTORE DUP1 PUSH1 0x3 DUP2 MSTORE PUSH1 0x20 ADD PUSH3 0x55544B PUSH1 0xE8 SHL DUP2 MSTORE POP DUP2 PUSH1 0x3 SWAP1 DUP2 PUSH3 0xC2 SWAP2 SWAP1 PUSH3 0x57C JUMP JUMPDEST POP PUSH1 0x4 PUSH3 0xD1 DUP3 DUP3 PUSH3 0x57C JUMP JUMPDEST POP PUSH3 0xE3 SWAP2 POP DUP4 SWAP1 POP PUSH1 0x6 PUSH3 0x1F4 JUMP JUMPDEST PUSH2 0x120 MSTORE PUSH3 0xF4 DUP2 PUSH1 0x7 PUSH3 0x1F4 JUMP JUMPDEST PUSH2 0x140 MSTORE DUP2 MLOAD PUSH1 0x20 DUP1 DUP5 ADD SWAP2 SWAP1 SWAP2 KECCAK256 PUSH1 0xE0 MSTORE DUP2 MLOAD SWAP1 DUP3 ADD KECCAK256 PUSH2 0x100 MSTORE CHAINID PUSH1 0xA0 MSTORE PUSH3 0x181 PUSH1 0xE0 MLOAD PUSH2 0x100 MLOAD PUSH1 0x40 DUP1 MLOAD PUSH32 0x8B73C3C69BB8FE3D512ECC4CF759CC79239F7B179B0FFACAA9A75D522B39400F PUSH1 0x20 DUP3 ADD MSTORE SWAP1 DUP2 ADD SWAP3 SWAP1 SWAP3 MSTORE PUSH1 0x60 DUP3 ADD MSTORE CHAINID PUSH1 0x80 DUP3 ADD MSTORE ADDRESS PUSH1 0xA0 DUP3 ADD MSTORE PUSH0 SWAP1 PUSH1 0xC0 ADD PUSH1 0x40 MLOAD PUSH1 0x20 DUP2 DUP4 SUB SUB DUP2 MSTORE SWAP1 PUSH1 0x40 MSTORE DUP1 MLOAD SWAP1 PUSH1 0x20 ADD KECCAK256 SWAP1 POP SWAP1 JUMP JUMPDEST PUSH1 0x80 MSTORE POP POP ADDRESS PUSH1 0xC0 MSTORE POP PUSH3 0x1B2 CALLER PUSH3 0x19E PUSH1 0x12 PUSH1 0xA PUSH3 0x755 JUMP JUMPDEST PUSH3 0x1AC SWAP1 PUSH2 0x3E8 PUSH3 0x76C JUMP JUMPDEST PUSH3 0x22C JUMP JUMPDEST PUSH3 0x1BE PUSH0 DUP4 PUSH3 0x26C JUMP JUMPDEST POP PUSH3 0x1EB PUSH32 0x9F2DF0FED2C77648DE5860A4CC508CD0818C85B8B8A1AB4CEEEF8D981C8956A6 DUP3 PUSH3 0x26C JUMP JUMPDEST POP POP POP PUSH3 0x80E JUMP JUMPDEST PUSH0 PUSH1 0x20 DUP4 MLOAD LT ISZERO PUSH3 0x213 JUMPI PUSH3 0x20B DUP4 PUSH3 0x31B JUMP JUMPDEST SWAP1 POP PUSH3 0x226 JUMP JUMPDEST DUP2 PUSH3 0x220 DUP5 DUP3 PUSH3 0x57C JUMP JUMPDEST POP PUSH1 0xFF SWAP1 POP JUMPDEST SWAP3 SWAP2 POP POP JUMP JUMPDEST PUSH1 0x1 PUSH1 0x1 PUSH1 0xA0 SHL SUB DUP3 AND PUSH3 0x25B JUMPI PUSH1 0x40 MLOAD PUSH4 0xEC442F05 PUSH1 0xE0 SHL DUP2 MSTORE PUSH0 PUSH1 0x4 DUP3 ADD MSTORE PUSH1 0x24 ADD JUMPDEST PUSH1 0x40 MLOAD DUP1 SWAP2 SUB SWAP1 REVERT JUMPDEST PUSH3 0x268 PUSH0 DUP4 DUP4 PUSH3 0x35D JUMP JUMPDEST POP POP JUMP JUMPDEST PUSH0 DUP3 DUP2 MSTORE PUSH1 0x5 PUSH1 0x20 SWAP1 DUP2 MSTORE PUSH1 0x40 DUP1 DUP4 KECCAK256 PUSH1 0x1 PUSH1 0x1 PUSH1 0xA0 SHL SUB DUP6 AND DUP5 MSTORE SWAP1 SWAP2 MSTORE DUP2 KECCAK256 SLOAD PUSH1 0xFF AND PUSH3 0x313 JUMPI PUSH0 DUP4 DUP2 MSTORE PUSH1 0x5 PUSH1 0x20 SWAP1 DUP2 MSTORE PUSH1 0x40 DUP1 DUP4 KECCAK256 PUSH1 0x1 PUSH1 0x1 PUSH1 0xA0 SHL SUB DUP7 AND DUP5 MSTORE SWAP1 SWAP2 MSTORE SWAP1 KECCAK256 DUP1 SLOAD PUSH1 0xFF NOT AND PUSH1 0x1 OR SWAP1 SSTORE PUSH3 0x2CA CALLER SWAP1 JUMP JUMPDEST PUSH1 0x1 PUSH1 0x1 PUSH1 0xA0 SHL SUB AND DUP3 PUSH1 0x1 PUSH1 0x1 PUSH1 0xA0 SHL SUB AND DUP5 PUSH32 0x2F8788117E7EFF1D82E926EC794901D17C78024A50270940304540A733656F0D PUSH1 0x40 MLOAD PUSH1 0x40 MLOAD DUP1 SWAP2 SUB SWAP1 LOG4 POP PUSH1 0x1 PUSH3 0x226 JUMP JUMPDEST POP PUSH0 PUSH3 0x226 JUMP JUMPDEST PUSH0 DUP1 DUP3 SWAP1 POP PUSH1 0x1F DUP2 MLOAD GT ISZERO PUSH3 0x348 JUMPI DUP3 PUSH1 0x40 MLOAD PUSH4 0x305A27A9 PUSH1 0xE0 SHL DUP2 MSTORE PUSH1 0x4 ADD PUSH3 0x252 SWAP2 SWAP1 PUSH3 0x786 JUMP JUMPDEST DUP1 MLOAD PUSH3 0x355 DUP3 PUSH3 0x7D4 JUMP JUMPDEST OR SWAP4 SWAP3 POP POP POP JUMP JUMPDEST PUSH1 0x1 PUSH1 0x1 PUSH1 0xA0 SHL SUB DUP4 AND PUSH3 0x38B JUMPI DUP1 PUSH1 0x2 PUSH0 DUP3 DUP3 SLOAD PUSH3 0x37F SWAP2 SWAP1 PUSH3 0x7F8 JUMP JUMPDEST SWAP1 SWAP2 SSTORE POP PUSH3 0x3FD SWAP1 POP JUMP JUMPDEST PUSH1 0x1 PUSH1 0x1 PUSH1 0xA0 SHL SUB DUP4 AND PUSH0 SWAP1 DUP2 MSTORE PUSH1 0x20 DUP2 SWAP1 MSTORE PUSH1 0x40 SWAP1 KECCAK256 SLOAD DUP2 DUP2 LT ISZERO PUSH3 0x3DF JUMPI PUSH1 0x40 MLOAD PUSH4 0x391434E3 PUSH1 0xE2 SHL DUP2 MSTORE PUSH1 0x1 PUSH1 0x1 PUSH1 0xA0 SHL SUB DUP6 AND PUSH1 0x4 DUP3 ADD MSTORE PUSH1 0x24 DUP2 ADD DUP3 SWAP1 MSTORE PUSH1 0x44 DUP2 ADD DUP4 SWAP1 MSTORE PUSH1 0x64 ADD PUSH3 0x252 JUMP JUMPDEST PUSH1 0x1 PUSH1 0x1 PUSH1 0xA0 SHL SUB DUP5 AND PUSH0 SWAP1 DUP2 MSTORE PUSH1 0x20 DUP2 SWAP1 MSTORE PUSH1 0x40 SWAP1 KECCAK256 SWAP1 DUP3 SWAP1 SUB SWAP1 SSTORE JUMPDEST PUSH1 0x1 PUSH1 0x1 PUSH1 0xA0 SHL SUB DUP3 AND PUSH3 0x41B JUMPI PUSH1 0x2 DUP1 SLOAD DUP3 SWAP1 SUB SWAP1 SSTORE PUSH3 0x439 JUMP JUMPDEST PUSH1 0x1 PUSH1 0x1 PUSH1 0xA0 SHL SUB DUP3 AND PUSH0 SWAP1 DUP2 MSTORE PUSH1 0x20 DUP2 SWAP1 MSTORE PUSH1 0x40 SWAP1 KECCAK256 DUP1 SLOAD DUP3 ADD SWAP1 SSTORE JUMPDEST DUP2 PUSH1 0x1 PUSH1 0x1 PUSH1 0xA0 SHL SUB AND DUP4 PUSH1 0x1 PUSH1 0x1 PUSH1 0xA0 SHL SUB AND PUSH32 0xDDF252AD1BE2C89B69C2B068FC378DAA952BA7F163C4A11628F55A4DF523B3EF DUP4 PUSH1 0x40 MLOAD PUSH3 0x47F SWAP2 DUP2 MSTORE PUSH1 0x20 ADD SWAP1 JUMP JUMPDEST PUSH1 0x40 MLOAD DUP1 SWAP2 SUB SWAP1 LOG3 POP POP POP JUMP JUMPDEST DUP1 MLOAD PUSH1 0x1 PUSH1 0x1 PUSH1 0xA0 SHL SUB DUP2 AND DUP2 EQ PUSH3 0x4A3 JUMPI PUSH0 DUP1 REVERT JUMPDEST SWAP2 SWAP1 POP JUMP JUMPDEST PUSH0 DUP1 PUSH1 0x40 DUP4 DUP6 SUB SLT ISZERO PUSH3 0x4BA JUMPI PUSH0 DUP1 REVERT JUMPDEST PUSH3 0x4C5 DUP4 PUSH3 0x48C JUMP JUMPDEST SWAP2 POP PUSH3 0x4D5 PUSH1 0x20 DUP5 ADD PUSH3 0x48C JUMP JUMPDEST SWAP1 POP SWAP3 POP SWAP3 SWAP1 POP JUMP JUMPDEST PUSH4 0x4E487B71 PUSH1 0xE0 SHL PUSH0 MSTORE PUSH1 0x41 PUSH1 0x4 MSTORE PUSH1 0x24 PUSH0 REVERT JUMPDEST PUSH1 0x1 DUP2 DUP2 SHR SWAP1 DUP3 AND DUP1 PUSH3 0x507 JUMPI PUSH1 0x7F DUP3 AND SWAP2 POP JUMPDEST PUSH1 0x20 DUP3 LT DUP2 SUB PUSH3 0x526 JUMPI PUSH4 0x4E487B71 PUSH1 0xE0 SHL PUSH0 MSTORE PUSH1 0x22 PUSH1 0x4 MSTORE PUSH1 0x24 PUSH0 REVERT JUMPDEST POP SWAP2 SWAP1 POP JUMP JUMPDEST PUSH1 0x1F DUP3 GT ISZERO PUSH3 0x577 JUMPI DUP1 PUSH0 MSTORE PUSH1 0x20 PUSH0 KECCAK256 PUSH1 0x1F DUP5 ADD PUSH1 0x5 SHR DUP2 ADD PUSH1 0x20 DUP6 LT ISZERO PUSH3 0x553 JUMPI POP DUP1 JUMPDEST PUSH1 0x1F DUP5 ADD PUSH1 0x5 SHR DUP3 ADD SWAP2 POP JUMPDEST DUP2 DUP2 LT ISZERO PUSH3 0x574 JUMPI PUSH0 DUP2 SSTORE PUSH1 0x1 ADD PUSH3 0x55F JUMP JUMPDEST POP POP JUMPDEST POP POP POP JUMP JUMPDEST DUP2 MLOAD PUSH1 0x1 PUSH1 0x1 PUSH1 0x40 SHL SUB DUP2 GT ISZERO PUSH3 0x598 JUMPI PUSH3 0x598 PUSH3 0x4DE JUMP JUMPDEST PUSH3 0x5B0 DUP2 PUSH3 0x5A9 DUP5 SLOAD PUSH3 0x4F2 JUMP JUMPDEST DUP5 PUSH3 0x52C JUMP JUMPDEST PUSH1 0x20 DUP1 PUSH1 0x1F DUP4 GT PUSH1 0x1 DUP2 EQ PUSH3 0x5E6 JUMPI PUSH0 DUP5 ISZERO PUSH3 0x5CE JUMPI POP DUP6 DUP4 ADD MLOAD JUMPDEST PUSH0 NOT PUSH1 0x3 DUP7 SWAP1 SHL SHR NOT AND PUSH1 0x1 DUP6 SWAP1 SHL OR DUP6 SSTORE PUSH3 0x640 JUMP JUMPDEST PUSH0 DUP6 DUP2 MSTORE PUSH1 0x20 DUP2 KECCAK256 PUSH1 0x1F NOT DUP7 AND SWAP2 JUMPDEST DUP3 DUP2 LT ISZERO PUSH3 0x616 JUMPI DUP9 DUP7 ADD MLOAD DUP3 SSTORE SWAP5 DUP5 ADD SWAP5 PUSH1 0x1 SWAP1 SWAP2 ADD SWAP1 DUP5 ADD PUSH3 0x5F5 JUMP JUMPDEST POP DUP6 DUP3 LT ISZERO PUSH3 0x634 JUMPI DUP8 DUP6 ADD MLOAD PUSH0 NOT PUSH1 0x3 DUP9 SWAP1 SHL PUSH1 0xF8 AND SHR NOT AND DUP2 SSTORE JUMPDEST POP POP PUSH1 0x1 DUP5 PUSH1 0x1 SHL ADD DUP6 SSTORE JUMPDEST POP POP POP POP POP POP JUMP JUMPDEST PUSH4 0x4E487B71 PUSH1 0xE0 SHL PUSH0 MSTORE PUSH1 0x11 PUSH1 0x4 MSTORE PUSH1 0x24 PUSH0 REVERT JUMPDEST PUSH1 0x1 DUP2 DUP2 JUMPDEST DUP1 DUP6 GT ISZERO PUSH3 0x69C JUMPI DUP2 PUSH0 NOT DIV DUP3 GT ISZERO PUSH3 0x680 JUMPI PUSH3 0x680 PUSH3 0x648 JUMP JUMPDEST DUP1 DUP6 AND ISZERO PUSH3 0x68E JUMPI SWAP2 DUP2 MUL SWAP2 JUMPDEST SWAP4 DUP5 SHR SWAP4 SWAP1 DUP1 MUL SWAP1 PUSH3 0x661 JUMP JUMPDEST POP SWAP3 POP SWAP3 SWAP1 POP JUMP JUMPDEST PUSH0 DUP3 PUSH3 0x6B4 JUMPI POP PUSH1 0x1 PUSH3 0x226 JUMP JUMPDEST DUP2 PUSH3 0x6C2 JUMPI POP PUSH0 PUSH3 0x226 JUMP JUMPDEST DUP2 PUSH1 0x1 DUP2 EQ PUSH3 0x6DB JUMPI PUSH1 0x2 DUP2 EQ PUSH3 0x6E6 JUMPI PUSH3 0x706 JUMP JUMPDEST PUSH1 0x1 SWAP2 POP POP PUSH3 0x226 JUMP JUMPDEST PUSH1 0xFF DUP5 GT ISZERO PUSH3 0x6FA JUMPI PUSH3 0x6FA PUSH3 0x648 JUMP JUMPDEST POP POP PUSH1 0x1 DUP3 SHL PUSH3 0x226 JUMP JUMPDEST POP PUSH1 0x20 DUP4 LT PUSH2 0x133 DUP4 LT AND PUSH1 0x4E DUP5 LT PUSH1 0xB DUP5 LT AND OR ISZERO PUSH3 0x72B JUMPI POP DUP2 DUP2 EXP PUSH3 0x226 JUMP JUMPDEST PUSH3 0x737 DUP4 DUP4 PUSH3 0x65C JUMP JUMPDEST DUP1 PUSH0 NOT DIV DUP3 GT ISZERO PUSH3 0x74D JUMPI PUSH3 0x74D PUSH3 0x648 JUMP JUMPDEST MUL SWAP4 SWAP3 POP POP POP JUMP JUMPDEST PUSH0 PUSH3 0x765 PUSH1 0xFF DUP5 AND DUP4 PUSH3 0x6A4 JUMP JUMPDEST SWAP4 SWAP3 POP POP POP JUMP JUMPDEST DUP1 DUP3 MUL DUP2 ISZERO DUP3 DUP3 DIV DUP5 EQ OR PUSH3 0x226 JUMPI PUSH3 0x226 PUSH3 0x648 JUMP JUMPDEST PUSH0 PUSH1 0x20 DUP1 DUP4 MSTORE DUP4 MLOAD DUP1 PUSH1 0x20 DUP6 ADD MSTORE PUSH0 JUMPDEST DUP2 DUP2 LT ISZERO PUSH3 0x7B4 JUMPI DUP6 DUP2 ADD DUP4 ADD MLOAD DUP6 DUP3 ADD PUSH1 0x40 ADD MSTORE DUP3 ADD PUSH3 0x796 JUMP JUMPDEST POP PUSH0 PUSH1 0x40 DUP3 DUP7 ADD ADD MSTORE PUSH1 0x40 PUSH1 0x1F NOT PUSH1 0x1F DUP4 ADD AND DUP6 ADD ADD SWAP3 POP POP POP SWAP3 SWAP2 POP POP JUMP JUMPDEST DUP1 MLOAD PUSH1 0x20 DUP1 DUP4 ADD MLOAD SWAP2 SWAP1 DUP2 LT ISZERO PUSH3 0x526 JUMPI PUSH0 NOT PUSH1 0x20 SWAP2 SWAP1 SWAP2 SUB PUSH1 0x3 SHL SHL AND SWAP2 SWAP1 POP JUMP JUMPDEST DUP1 DUP3 ADD DUP1 DUP3 GT ISZERO PUSH3 0x226 JUMPI PUSH3 0x226 PUSH3 0x648 JUMP JUMPDEST PUSH1 0x80 MLOAD PUSH1 0xA0 MLOAD PUSH1 0xC0 MLOAD PUSH1 0xE0 MLOAD PUSH2 0x100 MLOAD PUSH2 0x120 MLOAD PUSH2 0x140 MLOAD PUSH2 0x1350 PUSH3 0x860 PUSH0 CODECOPY PUSH0 PUSH2 0xAEE ADD MSTORE PUSH0 PUSH2 0xAC1 ADD MSTORE PUSH0 PUSH2 0x997 ADD MSTORE PUSH0 PUSH2 0x96F ADD MSTORE PUSH0 PUSH2 0x8CA ADD MSTORE PUSH0 PUSH2 0x8F4 ADD MSTORE PUSH0 PUSH2 0x91E ADD MSTORE PUSH2 0x1350 PUSH0 RETURN INVALID PUSH1 0x80 PUSH1 0x40 MSTORE CALLVALUE DUP1 ISZERO PUSH2 0xF JUMPI PUSH0 DUP1 REVERT JUMPDEST POP PUSH1 0x4 CALLDATASIZE LT PUSH2 0x153 JUMPI PUSH0 CALLDATALOAD PUSH1 0xE0 SHR DUP1 PUSH4 0x70A08231 GT PUSH2 0xBF JUMPI DUP1 PUSH4 0xA217FDDF GT PUSH2 0x79 JUMPI DUP1 PUSH4 0xA217FDDF EQ PUSH2 0x2D7 JUMPI DUP1 PUSH4 0xA9059CBB EQ PUSH2 0x2DE JUMPI DUP1 PUSH4 0xD505ACCF EQ PUSH2 0x2F1 JUMPI DUP1 PUSH4 0xD5391393 EQ PUSH2 0x304 JUMPI DUP1 PUSH4 0xD547741F EQ PUSH2 0x32B JUMPI DUP1 PUSH4 0xDD62ED3E EQ PUSH2 0x33E JUMPI PUSH0 DUP1 REVERT JUMPDEST DUP1 PUSH4 0x70A08231 EQ PUSH2 0x253 JUMPI DUP1 PUSH4 0x79CC6790 EQ PUSH2 0x27B JUMPI DUP1 PUSH4 0x7ECEBE00 EQ PUSH2 0x28E JUMPI DUP1 PUSH4 0x84B0196E EQ PUSH2 0x2A1 JUMPI DUP1 PUSH4 0x91D14854 EQ PUSH2 0x2BC JUMPI DUP1 PUSH4 0x95D89B41 EQ PUSH2 0x2CF JUMPI PUSH0 DUP1 REVERT JUMPDEST DUP1 PUSH4 0x2F2FF15D GT PUSH2 0x110 JUMPI DUP1 PUSH4 0x2F2FF15D EQ PUSH2 0x1EE JUMPI DUP1 PUSH4 0x313CE567 EQ PUSH2 0x203 JUMPI DUP1 PUSH4 0x3644E515 EQ PUSH2 0x212 JUMPI DUP1 PUSH4 0x36568ABE EQ PUSH2 0x21A JUMPI DUP1 PUSH4 0x40C10F19 EQ PUSH2 0x22D JUMPI DUP1 PUSH4 0x42966C68 EQ PUSH2 0x240 JUMPI PUSH0 DUP1 REVERT JUMPDEST DUP1 PUSH4 0x1FFC9A7 EQ PUSH2 0x157 JUMPI DUP1 PUSH4 0x6FDDE03 EQ PUSH2 0x17F JUMPI DUP1 PUSH4 0x95EA7B3 EQ PUSH2 0x194 JUMPI DUP1 PUSH4 0x18160DDD EQ PUSH2 0x1A7 JUMPI DUP1 PUSH4 0x23B872DD EQ PUSH2 0x1B9 JUMPI DUP1 PUSH4 0x248A9CA3 EQ PUSH2 0x1CC JUMPI JUMPDEST PUSH0 DUP1 REVERT JUMPDEST PUSH2 0x16A PUSH2 0x165 CALLDATASIZE PUSH1 0x4 PUSH2 0x102A JUMP JUMPDEST PUSH2 0x376 JUMP JUMPDEST PUSH1 0x40 MLOAD SWAP1 ISZERO ISZERO DUP2 MSTORE PUSH1 0x20 ADD JUMPDEST PUSH1 0x40 MLOAD DUP1 SWAP2 SUB SWAP1 RETURN JUMPDEST PUSH2 0x187 PUSH2 0x3AC JUMP JUMPDEST PUSH1 0x40 MLOAD PUSH2 0x176 SWAP2 SWAP1 PUSH2 0x109B JUMP JUMPDEST PUSH2 0x16A PUSH2 0x1A2 CALLDATASIZE PUSH1 0x4 PUSH2 0x10C8 JUMP JUMPDEST PUSH2 0x43C JUMP JUMPDEST PUSH1 0x2 SLOAD JUMPDEST PUSH1 0x40 MLOAD SWAP1 DUP2 MSTORE PUSH1 0x20 ADD PUSH2 0x176 JUMP JUMPDEST PUSH2 0x16A PUSH2 0x1C7 CALLDATASIZE PUSH1 0x4 PUSH2 0x10F0 JUMP JUMPDEST PUSH2 0x453 JUMP JUMPDEST PUSH2 0x1AB PUSH2 0x1DA CALLDATASIZE PUSH1 0x4 PUSH2 0x1129 JUMP JUMPDEST PUSH0 SWAP1 DUP2 MSTORE PUSH1 0x5 PUSH1 0x20 MSTORE PUSH1 0x40 SWAP1 KECCAK256 PUSH1 0x1 ADD SLOAD SWAP1 JUMP JUMPDEST PUSH2 0x201 PUSH2 0x1FC CALLDATASIZE PUSH1 0x4 PUSH2 0x1140 JUMP JUMPDEST PUSH2 0x476 JUMP JUMPDEST STOP JUMPDEST PUSH1 0x40 MLOAD PUSH1 0x12 DUP2 MSTORE PUSH1 0x20 ADD PUSH2 0x176 JUMP JUMPDEST PUSH2 0x1AB PUSH2 0x4A0 JUMP JUMPDEST PUSH2 0x201 PUSH2 0x228 CALLDATASIZE PUSH1 0x4 PUSH2 0x1140 JUMP JUMPDEST PUSH2 0x4AE JUMP JUMPDEST PUSH2 0x201 PUSH2 0x23B CALLDATASIZE PUSH1 0x4 PUSH2 0x10C8 JUMP JUMPDEST PUSH2 0x4E6 JUMP JUMPDEST PUSH2 0x201 PUSH2 0x24E CALLDATASIZE PUSH1 0x4 PUSH2 0x1129 JUMP JUMPDEST PUSH2 0x51A JUMP JUMPDEST PUSH2 0x1AB PUSH2 0x261 CALLDATASIZE PUSH1 0x4 PUSH2 0x116A JUMP JUMPDEST PUSH1 0x1 PUSH1 0x1 PUSH1 0xA0 SHL SUB AND PUSH0 SWAP1 DUP2 MSTORE PUSH1 0x20 DUP2 SWAP1 MSTORE PUSH1 0x40 SWAP1 KECCAK256 SLOAD SWAP1 JUMP JUMPDEST PUSH2 0x201 PUSH2 0x289 CALLDATASIZE PUSH1 0x4 PUSH2 0x10C8 JUMP JUMPDEST PUSH2 0x527 JUMP JUMPDEST PUSH2 0x1AB PUSH2 0x29C CALLDATASIZE PUSH1 0x4 PUSH2 0x116A JUMP JUMPDEST PUSH2 0x540 JUMP JUMPDEST PUSH2 0x2A9 PUSH2 0x55D JUMP JUMPDEST PUSH1 0x40 MLOAD PUSH2 0x176 SWAP8 SWAP7 SWAP6 SWAP5 SWAP4 SWAP3 SWAP2 SWAP1 PUSH2 0x1183 JUMP JUMPDEST PUSH2 0x16A PUSH2 0x2CA CALLDATASIZE PUSH1 0x4 PUSH2 0x1140 JUMP JUMPDEST PUSH2 0x59F JUMP JUMPDEST PUSH2 0x187 PUSH2 0x5C9 JUMP JUMPDEST PUSH2 0x1AB PUSH0 DUP2 JUMP JUMPDEST PUSH2 0x16A PUSH2 0x2EC CALLDATASIZE PUSH1 0x4 PUSH2 0x10C8 JUMP JUMPDEST PUSH2 0x5D8 JUMP JUMPDEST PUSH2 0x201 PUSH2 0x2FF CALLDATASIZE PUSH1 0x4 PUSH2 0x121A JUMP JUMPDEST PUSH2 0x5E5 JUMP JUMPDEST PUSH2 0x1AB PUSH32 0x9F2DF0FED2C77648DE5860A4CC508CD0818C85B8B8A1AB4CEEEF8D981C8956A6 DUP2 JUMP JUMPDEST PUSH2 0x201 PUSH2 0x339 CALLDATASIZE PUSH1 0x4 PUSH2 0x1140 JUMP JUMPDEST PUSH2 0x720 JUMP JUMPDEST PUSH2 0x1AB PUSH2 0x34C CALLDATASIZE PUSH1 0x4 PUSH2 0x1287 JUMP JUMPDEST PUSH1 0x1 PUSH1 0x1 PUSH1 0xA0 SHL SUB SWAP2 DUP3 AND PUSH0 SWAP1 DUP2 MSTORE PUSH1 0x1 PUSH1 0x20 SWAP1 DUP2 MSTORE PUSH1 0x40 DUP1 DUP4 KECCAK256 SWAP4 SWAP1 SWAP5 AND DUP3 MSTORE SWAP2 SWAP1 SWAP2 MSTORE KECCAK256 SLOAD SWAP1 JUMP JUMPDEST PUSH0 PUSH1 0x1 PUSH1 0x1 PUSH1 0xE0 SHL SUB NOT DUP3 AND PUSH4 0x7965DB0B PUSH1 0xE0 SHL EQ DUP1 PUSH2 0x3A6 JUMPI POP PUSH4 0x1FFC9A7 PUSH1 0xE0 SHL PUSH1 0x1 PUSH1 0x1 PUSH1 0xE0 SHL SUB NOT DUP4 AND EQ JUMPDEST SWAP3 SWAP2 POP POP JUMP JUMPDEST PUSH1 0x60 PUSH1 0x3 DUP1 SLOAD PUSH2 0x3BB SWAP1 PUSH2 0x12AF JUMP JUMPDEST DUP1 PUSH1 0x1F ADD PUSH1 0x20 DUP1 SWAP2 DIV MUL PUSH1 0x20 ADD PUSH1 0x40 MLOAD SWAP1 DUP2 ADD PUSH1 0x40 MSTORE DUP1 SWAP3 SWAP2 SWAP1 DUP2 DUP2 MSTORE PUSH1 0x20 ADD DUP3 DUP1 SLOAD PUSH2 0x3E7 SWAP1 PUSH2 0x12AF JUMP JUMPDEST DUP1 ISZERO PUSH2 0x432 JUMPI DUP1 PUSH1 0x1F LT PUSH2 0x409 JUMPI PUSH2 0x100 DUP1 DUP4 SLOAD DIV MUL DUP4 MSTORE SWAP2 PUSH1 0x20 ADD SWAP2 PUSH2 0x432 JUMP JUMPDEST DUP3 ADD SWAP2 SWAP1 PUSH0 MSTORE PUSH1 0x20 PUSH0 KECCAK256 SWAP1 JUMPDEST DUP2 SLOAD DUP2 MSTORE SWAP1 PUSH1 0x1 ADD SWAP1 PUSH1 0x20 ADD DUP1 DUP4 GT PUSH2 0x415 JUMPI DUP3 SWAP1 SUB PUSH1 0x1F AND DUP3 ADD SWAP2 JUMPDEST POP POP POP POP POP SWAP1 POP SWAP1 JUMP JUMPDEST PUSH0 CALLER PUSH2 0x449 DUP2 DUP6 DUP6 PUSH2 0x744 JUMP JUMPDEST POP PUSH1 0x1 SWAP4 SWAP3 POP POP POP JUMP JUMPDEST PUSH0 CALLER PUSH2 0x460 DUP6 DUP3 DUP6 PUSH2 0x751 JUMP JUMPDEST PUSH2 0x46B DUP6 DUP6 DUP6 PUSH2 0x7C6 JUMP JUMPDEST POP PUSH1 0x1 SWAP5 SWAP4 POP POP POP POP JUMP JUMPDEST PUSH0 DUP3 DUP2 MSTORE PUSH1 0x5 PUSH1 0x20 MSTORE PUSH1 0x40 SWAP1 KECCAK256 PUSH1 0x1 ADD SLOAD PUSH2 0x490 DUP2 PUSH2 0x823 JUMP JUMPDEST PUSH2 0x49A DUP4 DUP4 PUSH2 0x82D JUMP JUMPDEST POP POP POP POP JUMP JUMPDEST PUSH0 PUSH2 0x4A9 PUSH2 0x8BE JUMP JUMPDEST SWAP1 POP SWAP1 JUMP JUMPDEST PUSH1 0x1 PUSH1 0x1 PUSH1 0xA0 SHL SUB DUP2 AND CALLER EQ PUSH2 0x4D7 JUMPI PUSH1 0x40 MLOAD PUSH4 0x334BD919 PUSH1 0xE1 SHL DUP2 MSTORE PUSH1 0x4 ADD PUSH1 0x40 MLOAD DUP1 SWAP2 SUB SWAP1 REVERT JUMPDEST PUSH2 0x4E1 DUP3 DUP3 PUSH2 0x9E7 JUMP JUMPDEST POP POP POP JUMP JUMPDEST PUSH32 0x9F2DF0FED2C77648DE5860A4CC508CD0818C85B8B8A1AB4CEEEF8D981C8956A6 PUSH2 0x510 DUP2 PUSH2 0x823 JUMP JUMPDEST PUSH2 0x4E1 DUP4 DUP4 PUSH2 0xA52 JUMP JUMPDEST PUSH2 0x524 CALLER DUP3 PUSH2 0xA86 JUMP JUMPDEST POP JUMP JUMPDEST PUSH2 0x532 DUP3 CALLER DUP4 PUSH2 0x751 JUMP JUMPDEST PUSH2 0x53C DUP3 DUP3 PUSH2 0xA86 JUMP JUMPDEST POP POP JUMP JUMPDEST PUSH1 0x1 PUSH1 0x1 PUSH1 0xA0 SHL SUB DUP2 AND PUSH0 SWAP1 DUP2 MSTORE PUSH1 0x8 PUSH1 0x20 MSTORE PUSH1 0x40 DUP2 KECCAK256 SLOAD PUSH2 0x3A6 JUMP JUMPDEST PUSH0 PUSH1 0x60 DUP1 PUSH0 DUP1 PUSH0 PUSH1 0x60 PUSH2 0x56E PUSH2 0xABA JUMP JUMPDEST PUSH2 0x576 PUSH2 0xAE7 JUMP JUMPDEST PUSH1 0x40 DUP1 MLOAD PUSH0 DUP1 DUP3 MSTORE PUSH1 0x20 DUP3 ADD SWAP1 SWAP3 MSTORE PUSH1 0xF PUSH1 0xF8 SHL SWAP12 SWAP4 SWAP11 POP SWAP2 SWAP9 POP CHAINID SWAP8 POP ADDRESS SWAP7 POP SWAP5 POP SWAP3 POP SWAP1 POP JUMP JUMPDEST PUSH0 SWAP2 DUP3 MSTORE PUSH1 0x5 PUSH1 0x20 SWAP1 DUP2 MSTORE PUSH1 0x40 DUP1 DUP5 KECCAK256 PUSH1 0x1 PUSH1 0x1 PUSH1 0xA0 SHL SUB SWAP4 SWAP1 SWAP4 AND DUP5 MSTORE SWAP2 SWAP1 MSTORE SWAP1 KECCAK256 SLOAD PUSH1 0xFF AND SWAP1 JUMP JUMPDEST PUSH1 0x60 PUSH1 0x4 DUP1 SLOAD PUSH2 0x3BB SWAP1 PUSH2 0x12AF JUMP JUMPDEST PUSH0 CALLER PUSH2 0x449 DUP2 DUP6 DUP6 PUSH2 0x7C6 JUMP JUMPDEST DUP4 TIMESTAMP GT ISZERO PUSH2 0x60E JUMPI PUSH1 0x40 MLOAD PUSH4 0x313C8981 PUSH1 0xE1 SHL DUP2 MSTORE PUSH1 0x4 DUP2 ADD DUP6 SWAP1 MSTORE PUSH1 0x24 ADD JUMPDEST PUSH1 0x40 MLOAD DUP1 SWAP2 SUB SWAP1 REVERT JUMPDEST PUSH0 PUSH32 0x6E71EDAE12B1B97F4D1F60370FEF10105FA2FAAE0126114A169C64845D6126C9 DUP9 DUP9 DUP9 PUSH2 0x659 DUP13 PUSH1 0x1 PUSH1 0x1 PUSH1 0xA0 SHL SUB AND PUSH0 SWAP1 DUP2 MSTORE PUSH1 0x8 PUSH1 0x20 MSTORE PUSH1 0x40 SWAP1 KECCAK256 DUP1 SLOAD PUSH1 0x1 DUP2 ADD SWAP1 SWAP2 SSTORE SWAP1 JUMP JUMPDEST PUSH1 0x40 DUP1 MLOAD PUSH1 0x20 DUP2 ADD SWAP7 SWAP1 SWAP7 MSTORE PUSH1 0x1 PUSH1 0x1 PUSH1 0xA0 SHL SUB SWAP5 DUP6 AND SWAP1 DUP7 ADD MSTORE SWAP3 SWAP1 SWAP2 AND PUSH1 0x60 DUP5 ADD MSTORE PUSH1 0x80 DUP4 ADD MSTORE PUSH1 0xA0 DUP3 ADD MSTORE PUSH1 0xC0 DUP2 ADD DUP7 SWAP1 MSTORE PUSH1 0xE0 ADD PUSH1 0x40 MLOAD PUSH1 0x20 DUP2 DUP4 SUB SUB DUP2 MSTORE SWAP1 PUSH1 0x40 MSTORE DUP1 MLOAD SWAP1 PUSH1 0x20 ADD KECCAK256 SWAP1 POP PUSH0 PUSH2 0x6B3 DUP3 PUSH2 0xB14 JUMP JUMPDEST SWAP1 POP PUSH0 PUSH2 0x6C2 DUP3 DUP8 DUP8 DUP8 PUSH2 0xB40 JUMP JUMPDEST SWAP1 POP DUP10 PUSH1 0x1 PUSH1 0x1 PUSH1 0xA0 SHL SUB AND DUP2 PUSH1 0x1 PUSH1 0x1 PUSH1 0xA0 SHL SUB AND EQ PUSH2 0x709 JUMPI PUSH1 0x40 MLOAD PUSH4 0x25C00723 PUSH1 0xE1 SHL DUP2 MSTORE PUSH1 0x1 PUSH1 0x1 PUSH1 0xA0 SHL SUB DUP1 DUP4 AND PUSH1 0x4 DUP4 ADD MSTORE DUP12 AND PUSH1 0x24 DUP3 ADD MSTORE PUSH1 0x44 ADD PUSH2 0x605 JUMP JUMPDEST PUSH2 0x714 DUP11 DUP11 DUP11 PUSH2 0x744 JUMP JUMPDEST POP POP POP POP POP POP POP POP POP POP JUMP JUMPDEST PUSH0 DUP3 DUP2 MSTORE PUSH1 0x5 PUSH1 0x20 MSTORE PUSH1 0x40 SWAP1 KECCAK256 PUSH1 0x1 ADD SLOAD PUSH2 0x73A DUP2 PUSH2 0x823 JUMP JUMPDEST PUSH2 0x49A DUP4 DUP4 PUSH2 0x9E7 JUMP JUMPDEST PUSH2 0x4E1 DUP4 DUP4 DUP4 PUSH1 0x1 PUSH2 0xB6C JUMP JUMPDEST PUSH1 0x1 PUSH1 0x1 PUSH1 0xA0 SHL SUB DUP4 DUP2 AND PUSH0 SWAP1 DUP2 MSTORE PUSH1 0x1 PUSH1 0x20 SWAP1 DUP2 MSTORE PUSH1 0x40 DUP1 DUP4 KECCAK256 SWAP4 DUP7 AND DUP4 MSTORE SWAP3 SWAP1 MSTORE KECCAK256 SLOAD PUSH0 NOT DUP2 EQ PUSH2 0x49A JUMPI DUP2 DUP2 LT ISZERO PUSH2 0x7B8 JUMPI PUSH1 0x40 MLOAD PUSH4 0x7DC7A0D9 PUSH1 0xE1 SHL DUP2 MSTORE PUSH1 0x1 PUSH1 0x1 PUSH1 0xA0 SHL SUB DUP5 AND PUSH1 0x4 DUP3 ADD MSTORE PUSH1 0x24 DUP2 ADD DUP3 SWAP1 MSTORE PUSH1 0x44 DUP2 ADD DUP4 SWAP1 MSTORE PUSH1 0x64 ADD PUSH2 0x605 JUMP JUMPDEST PUSH2 0x49A DUP5 DUP5 DUP5 DUP5 SUB PUSH0 PUSH2 0xB6C JUMP JUMPDEST PUSH1 0x1 PUSH1 0x1 PUSH1 0xA0 SHL SUB DUP4 AND PUSH2 0x7EF JUMPI PUSH1 0x40 MLOAD PUSH4 0x4B637E8F PUSH1 0xE1 SHL DUP2 MSTORE PUSH0 PUSH1 0x4 DUP3 ADD MSTORE PUSH1 0x24 ADD PUSH2 0x605 JUMP JUMPDEST PUSH1 0x1 PUSH1 0x1 PUSH1 0xA0 SHL SUB DUP3 AND PUSH2 0x818 JUMPI PUSH1 0x40 MLOAD PUSH4 0xEC442F05 PUSH1 0xE0 SHL DUP2 MSTORE PUSH0 PUSH1 0x4 DUP3 ADD MSTORE PUSH1 0x24 ADD PUSH2 0x605 JUMP JUMPDEST PUSH2 0x4E1 DUP4 DUP4 DUP4 PUSH2 0xC3E JUMP JUMPDEST PUSH2 0x524 DUP2 CALLER PUSH2 0xD64 JUMP JUMPDEST PUSH0 PUSH2 0x838 DUP4 DUP4 PUSH2 0x59F JUMP JUMPDEST PUSH2 0x8B7 JUMPI PUSH0 DUP4 DUP2 MSTORE PUSH1 0x5 PUSH1 0x20 SWAP1 DUP2 MSTORE PUSH1 0x40 DUP1 DUP4 KECCAK256 PUSH1 0x1 PUSH1 0x1 PUSH1 0xA0 SHL SUB DUP7 AND DUP5 MSTORE SWAP1 SWAP2 MSTORE SWAP1 KECCAK256 DUP1 SLOAD PUSH1 0xFF NOT AND PUSH1 0x1 OR SWAP1 SSTORE PUSH2 0x86F CALLER SWAP1 JUMP JUMPDEST PUSH1 0x1 PUSH1 0x1 PUSH1 0xA0 SHL SUB AND DUP3 PUSH1 0x1 PUSH1 0x1 PUSH1 0xA0 SHL SUB AND DUP5 PUSH32 0x2F8788117E7EFF1D82E926EC794901D17C78024A50270940304540A733656F0D PUSH1 0x40 MLOAD PUSH1 0x40 MLOAD DUP1 SWAP2 SUB SWAP1 LOG4 POP PUSH1 0x1 PUSH2 0x3A6 JUMP JUMPDEST POP PUSH0 PUSH2 0x3A6 JUMP JUMPDEST PUSH0 ADDRESS PUSH1 0x1 PUSH1 0x1 PUSH1 0xA0 SHL SUB PUSH32 0x0 AND EQ DUP1 ISZERO PUSH2 0x916 JUMPI POP PUSH32 0x0 CHAINID EQ JUMPDEST ISZERO PUSH2 0x940 JUMPI POP PUSH32 0x0 SWAP1 JUMP JUMPDEST PUSH2 0x4A9 PUSH1 0x40 DUP1 MLOAD PUSH32 0x8B73C3C69BB8FE3D512ECC4CF759CC79239F7B179B0FFACAA9A75D522B39400F PUSH1 0x20 DUP3 ADD MSTORE PUSH32 0x0 SWAP2 DUP2 ADD SWAP2 SWAP1 SWAP2 MSTORE PUSH32 0x0 PUSH1 0x60 DUP3 ADD MSTORE CHAINID PUSH1 0x80 DUP3 ADD MSTORE ADDRESS PUSH1 0xA0 DUP3 ADD MSTORE PUSH0 SWAP1 PUSH1 0xC0 ADD PUSH1 0x40 MLOAD PUSH1 0x20 DUP2 DUP4 SUB SUB DUP2 MSTORE SWAP1 PUSH1 0x40 MSTORE DUP1 MLOAD SWAP1 PUSH1 0x20 ADD KECCAK256 SWAP1 POP SWAP1 JUMP JUMPDEST PUSH0 PUSH2 0x9F2 DUP4 DUP4 PUSH2 0x59F JUMP JUMPDEST ISZERO PUSH2 0x8B7 JUMPI PUSH0 DUP4 DUP2 MSTORE PUSH1 0x5 PUSH1 0x20 SWAP1 DUP2 MSTORE PUSH1 0x40 DUP1 DUP4 KECCAK256 PUSH1 0x1 PUSH1 0x1 PUSH1 0xA0 SHL SUB DUP7 AND DUP1 DUP6 MSTORE SWAP3 MSTORE DUP1 DUP4 KECCAK256 DUP1 SLOAD PUSH1 0xFF NOT AND SWAP1 SSTORE MLOAD CALLER SWAP3 DUP7 SWAP2 PUSH32 0xF6391F5C32D9C69D2A47EA670B442974B53935D1EDC7FD64EB21E047A839171B SWAP2 SWAP1 LOG4 POP PUSH1 0x1 PUSH2 0x3A6 JUMP JUMPDEST PUSH1 0x1 PUSH1 0x1 PUSH1 0xA0 SHL SUB DUP3 AND PUSH2 0xA7B JUMPI PUSH1 0x40 MLOAD PUSH4 0xEC442F05 PUSH1 0xE0 SHL DUP2 MSTORE PUSH0 PUSH1 0x4 DUP3 ADD MSTORE PUSH1 0x24 ADD PUSH2 0x605 JUMP JUMPDEST PUSH2 0x53C PUSH0 DUP4 DUP4 PUSH2 0xC3E JUMP JUMPDEST PUSH1 0x1 PUSH1 0x1 PUSH1 0xA0 SHL SUB DUP3 AND PUSH2 0xAAF JUMPI PUSH1 0x40 MLOAD PUSH4 0x4B637E8F PUSH1 0xE1 SHL DUP2 MSTORE PUSH0 PUSH1 0x4 DUP3 ADD MSTORE PUSH1 0x24 ADD PUSH2 0x605 JUMP JUMPDEST PUSH2 0x53C DUP3 PUSH0 DUP4 PUSH2 0xC3E JUMP JUMPDEST PUSH1 0x60 PUSH2 0x4A9 PUSH32 0x0 PUSH1 0x6 PUSH2 0xD9D JUMP JUMPDEST PUSH1 0x60 PUSH2 0x4A9 PUSH32 0x0 PUSH1 0x7 PUSH2 0xD9D JUMP JUMPDEST PUSH0 PUSH2 0x3A6 PUSH2 0xB20 PUSH2 0x8BE JUMP JUMPDEST DUP4 PUSH1 0x40 MLOAD PUSH2 0x1901 PUSH1 0xF0 SHL DUP2 MSTORE PUSH1 0x2 DUP2 ADD SWAP3 SWAP1 SWAP3 MSTORE PUSH1 0x22 DUP3 ADD MSTORE PUSH1 0x42 SWAP1 KECCAK256 SWAP1 JUMP JUMPDEST PUSH0 DUP1 PUSH0 DUP1 PUSH2 0xB50 DUP9 DUP9 DUP9 DUP9 PUSH2 0xE46 JUMP JUMPDEST SWAP3 POP SWAP3 POP SWAP3 POP PUSH2 0xB60 DUP3 DUP3 PUSH2 0xF0E JUMP JUMPDEST POP SWAP1 SWAP7 SWAP6 POP POP POP POP POP POP JUMP JUMPDEST PUSH1 0x1 PUSH1 0x1 PUSH1 0xA0 SHL SUB DUP5 AND PUSH2 0xB95 JUMPI PUSH1 0x40 MLOAD PUSH4 0xE602DF05 PUSH1 0xE0 SHL DUP2 MSTORE PUSH0 PUSH1 0x4 DUP3 ADD MSTORE PUSH1 0x24 ADD PUSH2 0x605 JUMP JUMPDEST PUSH1 0x1 PUSH1 0x1 PUSH1 0xA0 SHL SUB DUP4 AND PUSH2 0xBBE JUMPI PUSH1 0x40 MLOAD PUSH4 0x4A1406B1 PUSH1 0xE1 SHL DUP2 MSTORE PUSH0 PUSH1 0x4 DUP3 ADD MSTORE PUSH1 0x24 ADD PUSH2 0x605 JUMP JUMPDEST PUSH1 0x1 PUSH1 0x1 PUSH1 0xA0 SHL SUB DUP1 DUP6 AND PUSH0 SWAP1 DUP2 MSTORE PUSH1 0x1 PUSH1 0x20 SWAP1 DUP2 MSTORE PUSH1 0x40 DUP1 DUP4 KECCAK256 SWAP4 DUP8 AND DUP4 MSTORE SWAP3 SWAP1 MSTORE KECCAK256 DUP3 SWAP1 SSTORE DUP1 ISZERO PUSH2 0x49A JUMPI DUP3 PUSH1 0x1 PUSH1 0x1 PUSH1 0xA0 SHL SUB AND DUP5 PUSH1 0x1 PUSH1 0x1 PUSH1 0xA0 SHL SUB AND PUSH32 0x8C5BE1E5EBEC7D5BD14F71427D1E84F3DD0314C0F7B2291E5B200AC8C7C3B925 DUP5 PUSH1 0x40 MLOAD PUSH2 0xC30 SWAP2 DUP2 MSTORE PUSH1 0x20 ADD SWAP1 JUMP JUMPDEST PUSH1 0x40 MLOAD DUP1 SWAP2 SUB SWAP1 LOG3 POP POP POP POP JUMP JUMPDEST PUSH1 0x1 PUSH1 0x1 PUSH1 0xA0 SHL SUB DUP4 AND PUSH2 0xC68 JUMPI DUP1 PUSH1 0x2 PUSH0 DUP3 DUP3 SLOAD PUSH2 0xC5D SWAP2 SWAP1 PUSH2 0x12E7 JUMP JUMPDEST SWAP1 SWAP2 SSTORE POP PUSH2 0xCD8 SWAP1 POP JUMP JUMPDEST PUSH1 0x1 PUSH1 0x1 PUSH1 0xA0 SHL SUB DUP4 AND PUSH0 SWAP1 DUP2 MSTORE PUSH1 0x20 DUP2 SWAP1 MSTORE PUSH1 0x40 SWAP1 KECCAK256 SLOAD DUP2 DUP2 LT ISZERO PUSH2 0xCBA JUMPI PUSH1 0x40 MLOAD PUSH4 0x391434E3 PUSH1 0xE2 SHL DUP2 MSTORE PUSH1 0x1 PUSH1 0x1 PUSH1 0xA0 SHL SUB DUP6 AND PUSH1 0x4 DUP3 ADD MSTORE PUSH1 0x24 DUP2 ADD DUP3 SWAP1 MSTORE PUSH1 0x44 DUP2 ADD DUP4 SWAP1 MSTORE PUSH1 0x64 ADD PUSH2 0x605 JUMP JUMPDEST PUSH1 0x1 PUSH1 0x1 PUSH1 0xA0 SHL SUB DUP5 AND PUSH0 SWAP1 DUP2 MSTORE PUSH1 0x20 DUP2 SWAP1 MSTORE PUSH1 0x40 SWAP1 KECCAK256 SWAP1 DUP3 SWAP1 SUB SWAP1 SSTORE JUMPDEST PUSH1 0x1 PUSH1 0x1 PUSH1 0xA0 SHL SUB DUP3 AND PUSH2 0xCF4 JUMPI PUSH1 0x2 DUP1 SLOAD DUP3 SWAP1 SUB SWAP1 SSTORE PUSH2 0xD12 JUMP JUMPDEST PUSH1 0x1 PUSH1 0x1 PUSH1 0xA0 SHL SUB DUP3 AND PUSH0 SWAP1 DUP2 MSTORE PUSH1 0x20 DUP2 SWAP1 MSTORE PUSH1 0x40 SWAP1 KECCAK256 DUP1 SLOAD DUP3 ADD SWAP1 SSTORE JUMPDEST DUP2 PUSH1 0x1 PUSH1 0x1 PUSH1 0xA0 SHL SUB AND DUP4 PUSH1 0x1 PUSH1 0x1 PUSH1 0xA0 SHL SUB AND PUSH32 0xDDF252AD1BE2C89B69C2B068FC378DAA952BA7F163C4A11628F55A4DF523B3EF DUP4 PUSH1 0x40 MLOAD PUSH2 0xD57 SWAP2 DUP2 MSTORE PUSH1 0x20 ADD SWAP1 JUMP JUMPDEST PUSH1 0x40 MLOAD DUP1 SWAP2 SUB SWAP1 LOG3 POP POP POP JUMP JUMPDEST PUSH2 0xD6E DUP3 DUP3 PUSH2 0x59F JUMP JUMPDEST PUSH2 0x53C JUMPI PUSH1 0x40 MLOAD PUSH4 0xE2517D3F PUSH1 0xE0 SHL DUP2 MSTORE PUSH1 0x1 PUSH1 0x1 PUSH1 0xA0 SHL SUB DUP3 AND PUSH1 0x4 DUP3 ADD MSTORE PUSH1 0x24 DUP2 ADD DUP4 SWAP1 MSTORE PUSH1 0x44 ADD PUSH2 0x605 JUMP JUMPDEST PUSH1 0x60 PUSH1 0xFF DUP4 EQ PUSH2 0xDB7 JUMPI PUSH2 0xDB0 DUP4 PUSH2 0xFC6 JUMP JUMPDEST SWAP1 POP PUSH2 0x3A6 JUMP JUMPDEST DUP2 DUP1 SLOAD PUSH2 0xDC3 SWAP1 PUSH2 0x12AF JUMP JUMPDEST DUP1 PUSH1 0x1F ADD PUSH1 0x20 DUP1 SWAP2 DIV MUL PUSH1 0x20 ADD PUSH1 0x40 MLOAD SWAP1 DUP2 ADD PUSH1 0x40 MSTORE DUP1 SWAP3 SWAP2 SWAP1 DUP2 DUP2 MSTORE PUSH1 0x20 ADD DUP3 DUP1 SLOAD PUSH2 0xDEF SWAP1 PUSH2 0x12AF JUMP JUMPDEST DUP1 ISZERO PUSH2 0xE3A JUMPI DUP1 PUSH1 0x1F LT PUSH2 0xE11 JUMPI PUSH2 0x100 DUP1 DUP4 SLOAD DIV MUL DUP4 MSTORE SWAP2 PUSH1 0x20 ADD SWAP2 PUSH2 0xE3A JUMP JUMPDEST DUP3 ADD SWAP2 SWAP1 PUSH0 MSTORE PUSH1 0x20 PUSH0 KECCAK256 SWAP1 JUMPDEST DUP2 SLOAD DUP2 MSTORE SWAP1 PUSH1 0x1 ADD SWAP1 PUSH1 0x20 ADD DUP1 DUP4 GT PUSH2 0xE1D JUMPI DUP3 SWAP1 SUB PUSH1 0x1F AND DUP3 ADD SWAP2 JUMPDEST POP POP POP POP POP SWAP1 POP PUSH2 0x3A6 JUMP JUMPDEST PUSH0 DUP1 DUP1 PUSH32 0x7FFFFFFFFFFFFFFFFFFFFFFFFFFFFFFF5D576E7357A4501DDFE92F46681B20A0 DUP5 GT ISZERO PUSH2 0xE7F JUMPI POP PUSH0 SWAP2 POP PUSH1 0x3 SWAP1 POP DUP3 PUSH2 0xF04 JUMP JUMPDEST PUSH1 0x40 DUP1 MLOAD PUSH0 DUP1 DUP3 MSTORE PUSH1 0x20 DUP3 ADD DUP1 DUP5 MSTORE DUP11 SWAP1 MSTORE PUSH1 0xFF DUP10 AND SWAP3 DUP3 ADD SWAP3 SWAP1 SWAP3 MSTORE PUSH1 0x60 DUP2 ADD DUP8 SWAP1 MSTORE PUSH1 0x80 DUP2 ADD DUP7 SWAP1 MSTORE PUSH1 0x1 SWAP1 PUSH1 0xA0 ADD PUSH1 0x20 PUSH1 0x40 MLOAD PUSH1 0x20 DUP2 SUB SWAP1 DUP1 DUP5 SUB SWAP1 DUP6 GAS STATICCALL ISZERO DUP1 ISZERO PUSH2 0xED0 JUMPI RETURNDATASIZE PUSH0 DUP1 RETURNDATACOPY RETURNDATASIZE PUSH0 REVERT JUMPDEST POP POP PUSH1 0x40 MLOAD PUSH1 0x1F NOT ADD MLOAD SWAP2 POP POP PUSH1 0x1 PUSH1 0x1 PUSH1 0xA0 SHL SUB DUP2 AND PUSH2 0xEFB JUMPI POP PUSH0 SWAP3 POP PUSH1 0x1 SWAP2 POP DUP3 SWAP1 POP PUSH2 0xF04 JUMP JUMPDEST SWAP3 POP PUSH0 SWAP2 POP DUP2 SWAP1 POP JUMPDEST SWAP5 POP SWAP5 POP SWAP5 SWAP2 POP POP JUMP JUMPDEST PUSH0 DUP3 PUSH1 0x3 DUP2 GT ISZERO PUSH2 0xF21 JUMPI PUSH2 0xF21 PUSH2 0x1306 JUMP JUMPDEST SUB PUSH2 0xF2A JUMPI POP POP JUMP JUMPDEST PUSH1 0x1 DUP3 PUSH1 0x3 DUP2 GT ISZERO PUSH2 0xF3E JUMPI PUSH2 0xF3E PUSH2 0x1306 JUMP JUMPDEST SUB PUSH2 0xF5C JUMPI PUSH1 0x40 MLOAD PUSH4 0xF645EEDF PUSH1 0xE0 SHL DUP2 MSTORE PUSH1 0x4 ADD PUSH1 0x40 MLOAD DUP1 SWAP2 SUB SWAP1 REVERT JUMPDEST PUSH1 0x2 DUP3 PUSH1 0x3 DUP2 GT ISZERO PUSH2 0xF70 JUMPI PUSH2 0xF70 PUSH2 0x1306 JUMP JUMPDEST SUB PUSH2 0xF91 JUMPI PUSH1 0x40 MLOAD PUSH4 0xFCE698F7 PUSH1 0xE0 SHL DUP2 MSTORE PUSH1 0x4 DUP2 ADD DUP3 SWAP1 MSTORE PUSH1 0x24 ADD PUSH2 0x605 JUMP JUMPDEST PUSH1 0x3 DUP3 PUSH1 0x3 DUP2 GT ISZERO PUSH2 0xFA5 JUMPI PUSH2 0xFA5 PUSH2 0x1306 JUMP JUMPDEST SUB PUSH2 0x53C JUMPI PUSH1 0x40 MLOAD PUSH4 0x35E2F383 PUSH1 0xE2 SHL DUP2 MSTORE PUSH1 0x4 DUP2 ADD DUP3 SWAP1 MSTORE PUSH1 0x24 ADD PUSH2 0x605 JUMP JUMPDEST PUSH1 0x60 PUSH0 PUSH2 0xFD2 DUP4 PUSH2 0x1003 JUMP JUMPDEST PUSH1 0x40 DUP1 MLOAD PUSH1 0x20 DUP1 DUP3 MSTORE DUP2 DUP4 ADD SWAP1 SWAP3 MSTORE SWAP2 SWAP3 POP PUSH0 SWAP2 SWAP1 PUSH1 0x20 DUP3 ADD DUP2 DUP1 CALLDATASIZE DUP4 CALLDATACOPY POP POP POP SWAP2 DUP3 MSTORE POP PUSH1 0x20 DUP2 ADD SWAP3 SWAP1 SWAP3 MSTORE POP SWAP1 JUMP JUMPDEST PUSH0 PUSH1 0xFF DUP3 AND PUSH1 0x1F DUP2 GT ISZERO PUSH2 0x3A6 JUMPI PUSH1 0x40 MLOAD PUSH4 0x2CD44AC3 PUSH1 0xE2 SHL DUP2 MSTORE PUSH1 0x4 ADD PUSH1 0x40 MLOAD DUP1 SWAP2 SUB SWAP1 REVERT JUMPDEST PUSH0 PUSH1 0x20 DUP3 DUP5 SUB SLT ISZERO PUSH2 0x103A JUMPI PUSH0 DUP1 REVERT JUMPDEST DUP2 CALLDATALOAD PUSH1 0x1 PUSH1 0x1 PUSH1 0xE0 SHL SUB NOT DUP2 AND DUP2 EQ PUSH2 0x1051 JUMPI PUSH0 DUP1 REVERT JUMPDEST SWAP4 SWAP3 POP POP POP JUMP JUMPDEST PUSH0 DUP2 MLOAD DUP1 DUP5 MSTORE PUSH0 JUMPDEST DUP2 DUP2 LT ISZERO PUSH2 0x107C JUMPI PUSH1 0x20 DUP2 DUP6 ADD DUP2 ADD MLOAD DUP7 DUP4 ADD DUP3 ADD MSTORE ADD PUSH2 0x1060 JUMP JUMPDEST POP PUSH0 PUSH1 0x20 DUP3 DUP7 ADD ADD MSTORE PUSH1 0x20 PUSH1 0x1F NOT PUSH1 0x1F DUP4 ADD AND DUP6 ADD ADD SWAP2 POP POP SWAP3 SWAP2 POP POP JUMP JUMPDEST PUSH1 0x20 DUP2 MSTORE PUSH0 PUSH2 0x1051 PUSH1 0x20 DUP4 ADD DUP5 PUSH2 0x1058 JUMP JUMPDEST DUP1 CALLDATALOAD PUSH1 0x1 PUSH1 0x1 PUSH1 0xA0 SHL SUB DUP2 AND DUP2 EQ PUSH2 0x10C3 JUMPI PUSH0 DUP1 REVERT JUMPDEST SWAP2 SWAP1 POP JUMP JUMPDEST PUSH0 DUP1 PUSH1 0x40 DUP4 DUP6 SUB SLT ISZERO PUSH2 0x10D9 JUMPI PUSH0 DUP1 REVERT JUMPDEST PUSH2 0x10E2 DUP4 PUSH2 0x10AD JUMP JUMPDEST SWAP5 PUSH1 0x20 SWAP4 SWAP1 SWAP4 ADD CALLDATALOAD SWAP4 POP POP POP JUMP JUMPDEST PUSH0 DUP1 PUSH0 PUSH1 0x60 DUP5 DUP7 SUB SLT ISZERO PUSH2 0x1102 JUMPI PUSH0 DUP1 REVERT JUMPDEST PUSH2 0x110B DUP5 PUSH2 0x10AD JUMP JUMPDEST SWAP3 POP PUSH2 0x1119 PUSH1 0x20 DUP6 ADD PUSH2 0x10AD JUMP JUMPDEST SWAP2 POP PUSH1 0x40 DUP5 ADD CALLDATALOAD SWAP1 POP SWAP3 POP SWAP3 POP SWAP3 JUMP JUMPDEST PUSH0 PUSH1 0x20 DUP3 DUP5 SUB SLT ISZERO PUSH2 0x1139 JUMPI PUSH0 DUP1 REVERT JUMPDEST POP CALLDATALOAD SWAP2 SWAP1 POP JUMP JUMPDEST PUSH0 DUP1 PUSH1 0x40 DUP4 DUP6 SUB SLT ISZERO PUSH2 0x1151 JUMPI PUSH0 DUP1 REVERT JUMPDEST DUP3 CALLDATALOAD SWAP2 POP PUSH2 0x1161 PUSH1 0x20 DUP5 ADD PUSH2 0x10AD JUMP JUMPDEST SWAP1 POP SWAP3 POP SWAP3 SWAP1 POP JUMP JUMPDEST PUSH0 PUSH1 0x20 DUP3 DUP5 SUB SLT ISZERO PUSH2 0x117A JUMPI PUSH0 DUP1 REVERT JUMPDEST PUSH2 0x1051 DUP3 PUSH2 0x10AD JUMP JUMPDEST PUSH1 0xFF PUSH1 0xF8 SHL DUP9 AND DUP2 MSTORE PUSH0 PUSH1 0x20 PUSH1 0xE0 PUSH1 0x20 DUP5 ADD MSTORE PUSH2 0x11A3 PUSH1 0xE0 DUP5 ADD DUP11 PUSH2 0x1058 JUMP JUMPDEST DUP4 DUP2 SUB PUSH1 0x40 DUP6 ADD MSTORE PUSH2 0x11B5 DUP2 DUP11 PUSH2 0x1058 JUMP JUMPDEST PUSH1 0x60 DUP6 ADD DUP10 SWAP1 MSTORE PUSH1 0x1 PUSH1 0x1 PUSH1 0xA0 SHL SUB DUP9 AND PUSH1 0x80 DUP7 ADD MSTORE PUSH1 0xA0 DUP6 ADD DUP8 SWAP1 MSTORE DUP5 DUP2 SUB PUSH1 0xC0 DUP7 ADD MSTORE DUP6 MLOAD DUP1 DUP3 MSTORE PUSH1 0x20 DUP1 DUP9 ADD SWAP4 POP SWAP1 SWAP2 ADD SWAP1 PUSH0 JUMPDEST DUP2 DUP2 LT ISZERO PUSH2 0x1208 JUMPI DUP4 MLOAD DUP4 MSTORE SWAP3 DUP5 ADD SWAP3 SWAP2 DUP5 ADD SWAP2 PUSH1 0x1 ADD PUSH2 0x11EC JUMP JUMPDEST POP SWAP1 SWAP13 SWAP12 POP POP POP POP POP POP POP POP POP POP POP POP JUMP JUMPDEST PUSH0 DUP1 PUSH0 DUP1 PUSH0 DUP1 PUSH0 PUSH1 0xE0 DUP9 DUP11 SUB SLT ISZERO PUSH2 0x1230 JUMPI PUSH0 DUP1 REVERT JUMPDEST PUSH2 0x1239 DUP9 PUSH2 0x10AD JUMP JUMPDEST SWAP7 POP PUSH2 0x1247 PUSH1 0x20 DUP10 ADD PUSH2 0x10AD JUMP JUMPDEST SWAP6 POP PUSH1 0x40 DUP9 ADD CALLDATALOAD SWAP5 POP PUSH1 0x60 DUP9 ADD CALLDATALOAD SWAP4 POP PUSH1 0x80 DUP9 ADD CALLDATALOAD PUSH1 0xFF DUP2 AND DUP2 EQ PUSH2 0x126A JUMPI PUSH0 DUP1 REVERT JUMPDEST SWAP7 SWAP10 SWAP6 SWAP9 POP SWAP4 SWAP7 SWAP3 SWAP6 SWAP5 PUSH1 0xA0 DUP5 ADD CALLDATALOAD SWAP5 POP PUSH1 0xC0 SWAP1 SWAP4 ADD CALLDATALOAD SWAP3 SWAP2 POP POP JUMP JUMPDEST PUSH0 DUP1 PUSH1 0x40 DUP4 DUP6 SUB SLT ISZERO PUSH2 0x1298 JUMPI PUSH0 DUP1 REVERT JUMPDEST PUSH2 0x12A1 DUP4 PUSH2 0x10AD JUMP JUMPDEST SWAP2 POP PUSH2 0x1161 PUSH1 0x20 DUP5 ADD PUSH2 0x10AD JUMP JUMPDEST PUSH1 0x1 DUP2 DUP2 SHR SWAP1 DUP3 AND DUP1 PUSH2 0x12C3 JUMPI PUSH1 0x7F DUP3 AND SWAP2 POP JUMPDEST PUSH1 0x20 DUP3 LT DUP2 SUB PUSH2 0x12E1 JUMPI PUSH4 0x4E487B71 PUSH1 0xE0 SHL PUSH0 MSTORE PUSH1 0x22 PUSH1 0x4 MSTORE PUSH1 0x24 PUSH0 REVERT JUMPDEST POP SWAP2 SWAP1 POP JUMP JUMPDEST DUP1 DUP3 ADD DUP1 DUP3 GT ISZERO PUSH2 0x3A6 JUMPI PUSH4 0x4E487B71 PUSH1 0xE0 SHL PUSH0 MSTORE PUSH1 0x11 PUSH1 0x4 MSTORE PUSH1 0x24 PUSH0 REVERT JUMPDEST PUSH4 0x4E487B71 PUSH1 0xE0 SHL PUSH0 MSTORE PUSH1 0x21 PUSH1 0x4 MSTORE PUSH1 0x24 PUSH0 REVERT INVALID LOG2 PUSH5 0x6970667358 0x22 SLT KECCAK256 0xEC PUSH17 0x4DF8231758A9A0510905814AF47412FB26 0xB5 0xB3 0x23 PUSH21 0x5909EB19139A115ABA64736F6C6343000816003300 "
				},
				"gasEstimates": {
					"creation": {
						"codeDepositCost": "988800",
						"executionCost": "infinite",
						"totalCost": "infinite"
					},
					"external": {
						"DEFAULT_ADMIN_ROLE()": "215",
						"DOMAIN_SEPARATOR()": "infinite",
						"MINTER_ROLE()": "282",
						"allowance(address,address)": "infinite",
						"approve(address,uint256)": "24765",
						"balanceOf(address)": "2560",
						"burn(uint256)": "51049",
						"burnFrom(address,uint256)": "infinite",
						"decimals()": "221",
						"eip712Domain()": "infinite",
						"getRoleAdmin(bytes32)": "2575",
						"grantRole(bytes32,address)": "infinite",
						"hasRole(bytes32,address)": "2762",
						"mint(address,uint256)": "infinite",
						"name()": "infinite",
						"nonces(address)": "2635",
						"permit(address,address,uint256,uint256,uint8,bytes32,bytes32)": "infinite",
						"renounceRole(bytes32,address)": "29113",
						"revokeRole(bytes32,address)": "infinite",
						"supportsInterface(bytes4)": "447",
						"symbol()": "infinite",
						"totalSupply()": "2370",
						"transfer(address,uint256)": "51245",
						"transferFrom(address,address,uint256)": "infinite"
					}
				},
				"methodIdentifiers": {
					"DEFAULT_ADMIN_ROLE()": "a217fddf",
					"DOMAIN_SEPARATOR()": "3644e515",
					"MINTER_ROLE()": "d5391393",
					"allowance(address,address)": "dd62ed3e",
					"approve(address,uint256)": "095ea7b3",
					"balanceOf(address)": "70a08231",
					"burn(uint256)": "42966c68",
					"burnFrom(address,uint256)": "79cc6790",
					"decimals()": "313ce567",
					"eip712Domain()": "84b0196e",
					"getRoleAdmin(bytes32)": "248a9ca3",
					"grantRole(bytes32,address)": "2f2ff15d",
					"hasRole(bytes32,address)": "91d14854",
					"mint(address,uint256)": "40c10f19",
					"name()": "06fdde03",
					"nonces(address)": "7ecebe00",
					"permit(address,address,uint256,uint256,uint8,bytes32,bytes32)": "d505accf",
					"renounceRole(bytes32,address)": "36568abe",
					"revokeRole(bytes32,address)": "d547741f",
					"supportsInterface(bytes4)": "01ffc9a7",
					"symbol()": "95d89b41",
					"totalSupply()": "18160ddd",
					"transfer(address,uint256)": "a9059cbb",
					"transferFrom(address,address,uint256)": "23b872dd"
				}
			},
			"storageLayout": {
				"storage": [
					{
						"astId": 563,
						"contract": "contracts/ERC20.sol:Ummantoken",
						"label": "_balances",
						"offset": 0,
						"slot": "0",
						"type": "t_mapping(t_address,t_uint256)"
					},
					{
						"astId": 569,
						"contract": "contracts/ERC20.sol:Ummantoken",
						"label": "_allowances",
						"offset": 0,
						"slot": "1",
						"type": "t_mapping(t_address,t_mapping(t_address,t_uint256))"
					},
					{
						"astId": 571,
						"contract": "contracts/ERC20.sol:Ummantoken",
						"label": "_totalSupply",
						"offset": 0,
						"slot": "2",
						"type": "t_uint256"
					},
					{
						"astId": 573,
						"contract": "contracts/ERC20.sol:Ummantoken",
						"label": "_name",
						"offset": 0,
						"slot": "3",
						"type": "t_string_storage"
					},
					{
						"astId": 575,
						"contract": "contracts/ERC20.sol:Ummantoken",
						"label": "_symbol",
						"offset": 0,
						"slot": "4",
						"type": "t_string_storage"
					},
					{
						"astId": 26,
						"contract": "contracts/ERC20.sol:Ummantoken",
						"label": "_roles",
						"offset": 0,
						"slot": "5",
						"type": "t_mapping(t_bytes32,t_struct(RoleData)21_storage)"
					},
					{
						"astId": 2452,
						"contract": "contracts/ERC20.sol:Ummantoken",
						"label": "_nameFallback",
						"offset": 0,
						"slot": "6",
						"type": "t_string_storage"
					},
					{
						"astId": 2454,
						"contract": "contracts/ERC20.sol:Ummantoken",
						"label": "_versionFallback",
						"offset": 0,
						"slot": "7",
						"type": "t_string_storage"
					},
					{
						"astId": 1431,
						"contract": "contracts/ERC20.sol:Ummantoken",
						"label": "_nonces",
						"offset": 0,
						"slot": "8",
						"type": "t_mapping(t_address,t_uint256)"
					}
				],
				"types": {
					"t_address": {
						"encoding": "inplace",
						"label": "address",
						"numberOfBytes": "20"
					},
					"t_bool": {
						"encoding": "inplace",
						"label": "bool",
						"numberOfBytes": "1"
					},
					"t_bytes32": {
						"encoding": "inplace",
						"label": "bytes32",
						"numberOfBytes": "32"
					},
					"t_mapping(t_address,t_bool)": {
						"encoding": "mapping",
						"key": "t_address",
						"label": "mapping(address => bool)",
						"numberOfBytes": "32",
						"value": "t_bool"
					},
					"t_mapping(t_address,t_mapping(t_address,t_uint256))": {
						"encoding": "mapping",
						"key": "t_address",
						"label": "mapping(address => mapping(address => uint256))",
						"numberOfBytes": "32",
						"value": "t_mapping(t_address,t_uint256)"
					},
					"t_mapping(t_address,t_uint256)": {
						"encoding": "mapping",
						"key": "t_address",
						"label": "mapping(address => uint256)",
						"numberOfBytes": "32",
						"value": "t_uint256"
					},
					"t_mapping(t_bytes32,t_struct(RoleData)21_storage)": {
						"encoding": "mapping",
						"key": "t_bytes32",
						"label": "mapping(bytes32 => struct AccessControl.RoleData)",
						"numberOfBytes": "32",
						"value": "t_struct(RoleData)21_storage"
					},
					"t_string_storage": {
						"encoding": "bytes",
						"label": "string",
						"numberOfBytes": "32"
					},
					"t_struct(RoleData)21_storage": {
						"encoding": "inplace",
						"label": "struct AccessControl.RoleData",
						"members": [
							{
								"astId": 18,
								"contract": "contracts/ERC20.sol:Ummantoken",
								"label": "hasRole",
								"offset": 0,
								"slot": "0",
								"type": "t_mapping(t_address,t_bool)"
							},
							{
								"astId": 20,
								"contract": "contracts/ERC20.sol:Ummantoken",
								"label": "adminRole",
								"offset": 0,
								"slot": "1",
								"type": "t_bytes32"
							}
						],
						"numberOfBytes": "64"
					},
					"t_uint256": {
						"encoding": "inplace",
						"label": "uint256",
						"numberOfBytes": "32"
					}
				}
			},
			"userdoc": {
				"kind": "user",
				"methods": {},
				"version": 1
			}
		}
	}
}