{
	"contracts/Project3SmartWallet.sol": {
		"SampleWallet": {
			"abi": [
				{
					"inputs": [],
					"stateMutability": "nonpayable",
					"type": "constructor"
				},
				{
					"inputs": [
						{
							"internalType": "address",
							"name": "",
							"type": "address"
						}
					],
					"name": "allowance",
					"outputs": [
						{
							"internalType": "uint256",
							"name": "",
							"type": "uint256"
						}
					],
					"stateMutability": "view",
					"type": "function"
				},
				{
					"inputs": [],
					"name": "confirmationsFromGuardiansForReset",
					"outputs": [
						{
							"internalType": "uint256",
							"name": "",
							"type": "uint256"
						}
					],
					"stateMutability": "view",
					"type": "function"
				},
				{
					"inputs": [
						{
							"internalType": "address",
							"name": "_from",
							"type": "address"
						}
					],
					"name": "denySending",
					"outputs": [],
					"stateMutability": "nonpayable",
					"type": "function"
				},
				{
					"inputs": [
						{
							"internalType": "address",
							"name": "",
							"type": "address"
						},
						{
							"internalType": "address",
							"name": "",
							"type": "address"
						}
					],
					"name": "guardianVoted",
					"outputs": [
						{
							"internalType": "bool",
							"name": "",
							"type": "bool"
						}
					],
					"stateMutability": "view",
					"type": "function"
				},
				{
					"inputs": [
						{
							"internalType": "address",
							"name": "",
							"type": "address"
						}
					],
					"name": "guardians",
					"outputs": [
						{
							"internalType": "bool",
							"name": "",
							"type": "bool"
						}
					],
					"stateMutability": "view",
					"type": "function"
				},
				{
					"inputs": [
						{
							"internalType": "address",
							"name": "",
							"type": "address"
						}
					],
					"name": "isAllowedToSend",
					"outputs": [
						{
							"internalType": "bool",
							"name": "",
							"type": "bool"
						}
					],
					"stateMutability": "view",
					"type": "function"
				},
				{
					"inputs": [],
					"name": "owner",
					"outputs": [
						{
							"internalType": "address payable",
							"name": "",
							"type": "address"
						}
					],
					"stateMutability": "view",
					"type": "function"
				},
				{
					"inputs": [
						{
							"internalType": "address payable",
							"name": "newOwner",
							"type": "address"
						}
					],
					"name": "proposeNewOwner",
					"outputs": [],
					"stateMutability": "nonpayable",
					"type": "function"
				},
				{
					"inputs": [
						{
							"internalType": "address",
							"name": "_from",
							"type": "address"
						},
						{
							"internalType": "uint256",
							"name": "_amount",
							"type": "uint256"
						}
					],
					"name": "setAllowance",
					"outputs": [],
					"stateMutability": "nonpayable",
					"type": "function"
				},
				{
					"inputs": [
						{
							"internalType": "address",
							"name": "guardianAddress",
							"type": "address"
						}
					],
					"name": "setGuardian",
					"outputs": [],
					"stateMutability": "nonpayable",
					"type": "function"
				},
				{
					"inputs": [
						{
							"internalType": "address payable",
							"name": "_to",
							"type": "address"
						},
						{
							"internalType": "uint256",
							"name": "_amount",
							"type": "uint256"
						},
						{
							"internalType": "bytes",
							"name": "payload",
							"type": "bytes"
						}
					],
					"name": "transfer",
					"outputs": [
						{
							"internalType": "bytes",
							"name": "",
							"type": "bytes"
						}
					],
					"stateMutability": "nonpayable",
					"type": "function"
				},
				{
					"stateMutability": "payable",
					"type": "receive"
				}
			],
			"devdoc": {
				"kind": "dev",
				"methods": {},
				"version": 1
			},
			"evm": {
				"assembly": "    /* \"contracts/Project3SmartWallet.sol\":498:2885  contract SampleWallet {... */\n  mstore(0x40, 0x80)\n    /* \"contracts/Project3SmartWallet.sol\":921:981  constructor() {... */\n  callvalue\n  dup1\n  iszero\n  tag_1\n  jumpi\n  0x00\n  dup1\n  revert\ntag_1:\n  pop\n    /* \"contracts/Project3SmartWallet.sol\":946:951  owner */\n  0x00\n    /* \"contracts/Project3SmartWallet.sol\":946:973  owner = payable(msg.sender) */\n  dup1\n  sload\n  not(sub(shl(0xa0, 0x01), 0x01))\n  and\n    /* \"contracts/Project3SmartWallet.sol\":962:972  msg.sender */\n  caller\n    /* \"contracts/Project3SmartWallet.sol\":946:973  owner = payable(msg.sender) */\n  or\n  swap1\n  sstore\n    /* \"contracts/Project3SmartWallet.sol\":498:2885  contract SampleWallet {... */\n  dataSize(sub_0)\n  dup1\n  dataOffset(sub_0)\n  0x00\n  codecopy\n  0x00\n  return\nstop\n\nsub_0: assembly {\n        /* \"contracts/Project3SmartWallet.sol\":498:2885  contract SampleWallet {... */\n      mstore(0x40, 0x80)\n      jumpi(tag_1, lt(calldatasize, 0x04))\n      shr(0xe0, calldataload(0x00))\n      dup1\n      0x83012be1\n      gt\n      tag_14\n      jumpi\n      dup1\n      0x83012be1\n      eq\n      tag_8\n      jumpi\n      dup1\n      0x85f6db2e\n      eq\n      tag_9\n      jumpi\n      dup1\n      0x8a0dac4a\n      eq\n      tag_10\n      jumpi\n      dup1\n      0x8da5cb5b\n      eq\n      tag_11\n      jumpi\n      dup1\n      0xb1f8100d\n      eq\n      tag_12\n      jumpi\n      dup1\n      0xbe45fd62\n      eq\n      tag_13\n      jumpi\n      0x00\n      dup1\n      revert\n    tag_14:\n      dup1\n      0x0633b14a\n      eq\n      tag_3\n      jumpi\n      dup1\n      0x0bc605ad\n      eq\n      tag_4\n      jumpi\n      dup1\n      0x310ec4a7\n      eq\n      tag_5\n      jumpi\n      dup1\n      0x3e5beab9\n      eq\n      tag_6\n      jumpi\n      dup1\n      0x7673de53\n      eq\n      tag_7\n      jumpi\n      0x00\n      dup1\n      revert\n    tag_1:\n      jumpi(tag_2, calldatasize)\n      stop\n    tag_2:\n      0x00\n      dup1\n      revert\n        /* \"contracts/Project3SmartWallet.sol\":740:781  mapping(address => bool) public guardians */\n    tag_3:\n      callvalue\n      dup1\n      iszero\n      tag_17\n      jumpi\n      0x00\n      dup1\n      revert\n    tag_17:\n      pop\n      tag_18\n      tag_19\n      calldatasize\n      0x04\n      tag_20\n      jump\t// in\n    tag_19:\n      mstore(0x20, 0x04)\n      0x00\n      swap1\n      dup2\n      mstore\n      0x40\n      swap1\n      keccak256\n      sload\n      0xff\n      and\n      dup2\n      jump\n    tag_18:\n      mload(0x40)\n        /* \"#utility.yul\":567:581   */\n      swap1\n      iszero\n        /* \"#utility.yul\":560:582   */\n      iszero\n        /* \"#utility.yul\":542:583   */\n      dup2\n      mstore\n        /* \"#utility.yul\":530:532   */\n      0x20\n        /* \"#utility.yul\":515:533   */\n      add\n        /* \"contracts/Project3SmartWallet.sol\":740:781  mapping(address => bool) public guardians */\n    tag_22:\n      mload(0x40)\n      dup1\n      swap2\n      sub\n      swap1\n      return\n        /* \"contracts/Project3SmartWallet.sol\":686:733  mapping(address => bool) public isAllowedToSend */\n    tag_4:\n      callvalue\n      dup1\n      iszero\n      tag_24\n      jumpi\n      0x00\n      dup1\n      revert\n    tag_24:\n      pop\n      tag_18\n      tag_26\n      calldatasize\n      0x04\n      tag_20\n      jump\t// in\n    tag_26:\n      mstore(0x20, 0x03)\n      0x00\n      swap1\n      dup2\n      mstore\n      0x40\n      swap1\n      keccak256\n      sload\n      0xff\n      and\n      dup2\n      jump\n        /* \"contracts/Project3SmartWallet.sol\":1728:1946  function setAllowance(address _from, uint _amount) public {... */\n    tag_5:\n      callvalue\n      dup1\n      iszero\n      tag_29\n      jumpi\n      0x00\n      dup1\n      revert\n    tag_29:\n      pop\n      tag_30\n      tag_31\n      calldatasize\n      0x04\n      tag_32\n      jump\t// in\n    tag_31:\n      tag_33\n      jump\t// in\n    tag_30:\n      stop\n        /* \"contracts/Project3SmartWallet.sol\":638:679  mapping(address => uint) public allowance */\n    tag_6:\n      callvalue\n      dup1\n      iszero\n      tag_34\n      jumpi\n      0x00\n      dup1\n      revert\n    tag_34:\n      pop\n      tag_35\n      tag_36\n      calldatasize\n      0x04\n      tag_20\n      jump\t// in\n    tag_36:\n      mstore(0x20, 0x02)\n      0x00\n      swap1\n      dup2\n      mstore\n      0x40\n      swap1\n      keccak256\n      sload\n      dup2\n      jump\n    tag_35:\n      mload(0x40)\n        /* \"#utility.yul\":1060:1085   */\n      swap1\n      dup2\n      mstore\n        /* \"#utility.yul\":1048:1050   */\n      0x20\n        /* \"#utility.yul\":1033:1051   */\n      add\n        /* \"contracts/Project3SmartWallet.sol\":638:679  mapping(address => uint) public allowance */\n      tag_22\n        /* \"#utility.yul\":914:1091   */\n      jump\n        /* \"contracts/Project3SmartWallet.sol\":1954:2121  function denySending(address _from) public {... */\n    tag_7:\n      callvalue\n      dup1\n      iszero\n      tag_40\n      jumpi\n      0x00\n      dup1\n      revert\n    tag_40:\n      pop\n      tag_30\n      tag_42\n      calldatasize\n      0x04\n      tag_20\n      jump\t// in\n    tag_42:\n      tag_43\n      jump\t// in\n        /* \"contracts/Project3SmartWallet.sol\":853:912  uint public constant confirmationsFromGuardiansForReset = 3 */\n    tag_8:\n      callvalue\n      dup1\n      iszero\n      tag_44\n      jumpi\n      0x00\n      dup1\n      revert\n    tag_44:\n      pop\n      tag_35\n        /* \"contracts/Project3SmartWallet.sol\":911:912  3 */\n      0x03\n        /* \"contracts/Project3SmartWallet.sol\":853:912  uint public constant confirmationsFromGuardiansForReset = 3 */\n      dup2\n      jump\n        /* \"contracts/Project3SmartWallet.sol\":566:631  mapping(address => mapping(address => bool)) public guardianVoted */\n    tag_9:\n      callvalue\n      dup1\n      iszero\n      tag_48\n      jumpi\n      0x00\n      dup1\n      revert\n    tag_48:\n      pop\n      tag_18\n      tag_50\n      calldatasize\n      0x04\n      tag_51\n      jump\t// in\n    tag_50:\n      0x01\n      0x20\n      swap1\n      dup2\n      mstore\n      0x00\n      swap3\n      dup4\n      mstore\n      0x40\n      dup1\n      dup5\n      keccak256\n      swap1\n      swap2\n      mstore\n      swap1\n      dup3\n      mstore\n      swap1\n      keccak256\n      sload\n      0xff\n      and\n      dup2\n      jump\n        /* \"contracts/Project3SmartWallet.sol\":989:1157  function setGuardian(address guardianAddress) public{... */\n    tag_10:\n      callvalue\n      dup1\n      iszero\n      tag_54\n      jumpi\n      0x00\n      dup1\n      revert\n    tag_54:\n      pop\n      tag_30\n      tag_56\n      calldatasize\n      0x04\n      tag_20\n      jump\t// in\n    tag_56:\n      tag_57\n      jump\t// in\n        /* \"contracts/Project3SmartWallet.sol\":529:557  address payable public owner */\n    tag_11:\n      callvalue\n      dup1\n      iszero\n      tag_58\n      jumpi\n      0x00\n      dup1\n      revert\n    tag_58:\n      pop\n      sload(0x00)\n      tag_59\n      swap1\n      sub(shl(0xa0, 0x01), 0x01)\n      and\n      dup2\n      jump\n    tag_59:\n      mload(0x40)\n      sub(shl(0xa0, 0x01), 0x01)\n        /* \"#utility.yul\":1669:1701   */\n      swap1\n      swap2\n      and\n        /* \"#utility.yul\":1651:1702   */\n      dup2\n      mstore\n        /* \"#utility.yul\":1639:1641   */\n      0x20\n        /* \"#utility.yul\":1624:1642   */\n      add\n        /* \"contracts/Project3SmartWallet.sol\":529:557  address payable public owner */\n      tag_22\n        /* \"#utility.yul\":1489:1708   */\n      jump\n        /* \"contracts/Project3SmartWallet.sol\":1165:1720  function proposeNewOwner(address payable newOwner) public {... */\n    tag_12:\n      callvalue\n      dup1\n      iszero\n      tag_63\n      jumpi\n      0x00\n      dup1\n      revert\n    tag_63:\n      pop\n      tag_30\n      tag_65\n      calldatasize\n      0x04\n      tag_20\n      jump\t// in\n    tag_65:\n      tag_67\n      jump\t// in\n        /* \"contracts/Project3SmartWallet.sol\":2129:2845  function transfer(address payable _to, uint _amount, bytes memory payload) public returns (bytes memory) {... */\n    tag_13:\n      callvalue\n      dup1\n      iszero\n      tag_68\n      jumpi\n      0x00\n      dup1\n      revert\n    tag_68:\n      pop\n      tag_69\n      tag_70\n      calldatasize\n      0x04\n      tag_71\n      jump\t// in\n    tag_70:\n      tag_72\n      jump\t// in\n    tag_69:\n      mload(0x40)\n      tag_22\n      swap2\n      swap1\n      tag_74\n      jump\t// in\n        /* \"contracts/Project3SmartWallet.sol\":1728:1946  function setAllowance(address _from, uint _amount) public {... */\n    tag_33:\n        /* \"contracts/Project3SmartWallet.sol\":1819:1824  owner */\n      and(sub(shl(0xa0, 0x01), 0x01), sload(0x00))\n        /* \"contracts/Project3SmartWallet.sol\":1805:1815  msg.sender */\n      caller\n        /* \"contracts/Project3SmartWallet.sol\":1805:1824  msg.sender == owner */\n      eq\n        /* \"contracts/Project3SmartWallet.sol\":1797:1861  require(msg.sender == owner, \"You are not the owner, aborting!\") */\n      tag_76\n      jumpi\n      mload(0x40)\n      shl(0xe5, 0x461bcd)\n      dup2\n      mstore\n        /* \"#utility.yul\":4098:4100   */\n      0x20\n        /* \"contracts/Project3SmartWallet.sol\":1797:1861  require(msg.sender == owner, \"You are not the owner, aborting!\") */\n      0x04\n      dup3\n      add\n        /* \"#utility.yul\":4080:4101   */\n      dup2\n      swap1\n      mstore\n        /* \"#utility.yul\":4117:4135   */\n      0x24\n      dup3\n      add\n        /* \"#utility.yul\":4110:4140   */\n      mstore\n        /* \"#utility.yul\":4176:4210   */\n      0x596f7520617265206e6f7420746865206f776e65722c2061626f7274696e6721\n        /* \"#utility.yul\":4156:4174   */\n      0x44\n      dup3\n      add\n        /* \"#utility.yul\":4149:4211   */\n      mstore\n        /* \"#utility.yul\":4228:4246   */\n      0x64\n      add\n        /* \"contracts/Project3SmartWallet.sol\":1797:1861  require(msg.sender == owner, \"You are not the owner, aborting!\") */\n    tag_77:\n      mload(0x40)\n      dup1\n      swap2\n      sub\n      swap1\n      revert\n    tag_76:\n      sub(shl(0xa0, 0x01), 0x01)\n        /* \"contracts/Project3SmartWallet.sol\":1872:1888  allowance[_from] */\n      swap1\n      swap2\n      and\n      0x00\n      swap1\n      dup2\n      mstore\n        /* \"contracts/Project3SmartWallet.sol\":1872:1881  allowance */\n      0x02\n        /* \"contracts/Project3SmartWallet.sol\":1872:1888  allowance[_from] */\n      0x20\n      swap1\n      dup2\n      mstore\n      0x40\n      dup1\n      dup4\n      keccak256\n        /* \"contracts/Project3SmartWallet.sol\":1872:1898  allowance[_from] = _amount */\n      swap4\n      swap1\n      swap4\n      sstore\n        /* \"contracts/Project3SmartWallet.sol\":1909:1924  isAllowedToSend */\n      0x03\n        /* \"contracts/Project3SmartWallet.sol\":1909:1931  isAllowedToSend[_from] */\n      swap1\n      mstore\n      keccak256\n        /* \"contracts/Project3SmartWallet.sol\":1909:1938  isAllowedToSend[_from] = true */\n      dup1\n      sload\n      not(0xff)\n      and\n        /* \"contracts/Project3SmartWallet.sol\":1934:1938  true */\n      0x01\n        /* \"contracts/Project3SmartWallet.sol\":1909:1938  isAllowedToSend[_from] = true */\n      or\n      swap1\n      sstore\n        /* \"contracts/Project3SmartWallet.sol\":1728:1946  function setAllowance(address _from, uint _amount) public {... */\n      jump\t// out\n        /* \"contracts/Project3SmartWallet.sol\":1954:2121  function denySending(address _from) public {... */\n    tag_43:\n        /* \"contracts/Project3SmartWallet.sol\":2030:2035  owner */\n      and(sub(shl(0xa0, 0x01), 0x01), sload(0x00))\n        /* \"contracts/Project3SmartWallet.sol\":2016:2026  msg.sender */\n      caller\n        /* \"contracts/Project3SmartWallet.sol\":2016:2035  msg.sender == owner */\n      eq\n        /* \"contracts/Project3SmartWallet.sol\":2008:2072  require(msg.sender == owner, \"You are not the owner, aborting!\") */\n      tag_80\n      jumpi\n      mload(0x40)\n      shl(0xe5, 0x461bcd)\n      dup2\n      mstore\n        /* \"#utility.yul\":4098:4100   */\n      0x20\n        /* \"contracts/Project3SmartWallet.sol\":2008:2072  require(msg.sender == owner, \"You are not the owner, aborting!\") */\n      0x04\n      dup3\n      add\n        /* \"#utility.yul\":4080:4101   */\n      dup2\n      swap1\n      mstore\n        /* \"#utility.yul\":4117:4135   */\n      0x24\n      dup3\n      add\n        /* \"#utility.yul\":4110:4140   */\n      mstore\n        /* \"#utility.yul\":4176:4210   */\n      0x596f7520617265206e6f7420746865206f776e65722c2061626f7274696e6721\n        /* \"#utility.yul\":4156:4174   */\n      0x44\n      dup3\n      add\n        /* \"#utility.yul\":4149:4211   */\n      mstore\n        /* \"#utility.yul\":4228:4246   */\n      0x64\n      add\n        /* \"contracts/Project3SmartWallet.sol\":2008:2072  require(msg.sender == owner, \"You are not the owner, aborting!\") */\n      tag_77\n        /* \"#utility.yul\":3896:4252   */\n      jump\n        /* \"contracts/Project3SmartWallet.sol\":2008:2072  require(msg.sender == owner, \"You are not the owner, aborting!\") */\n    tag_80:\n      sub(shl(0xa0, 0x01), 0x01)\n        /* \"contracts/Project3SmartWallet.sol\":2083:2105  isAllowedToSend[_from] */\n      and\n        /* \"contracts/Project3SmartWallet.sol\":2108:2113  false */\n      0x00\n        /* \"contracts/Project3SmartWallet.sol\":2083:2105  isAllowedToSend[_from] */\n      swap1\n      dup2\n      mstore\n        /* \"contracts/Project3SmartWallet.sol\":2083:2098  isAllowedToSend */\n      0x03\n        /* \"contracts/Project3SmartWallet.sol\":2083:2105  isAllowedToSend[_from] */\n      0x20\n      mstore\n      0x40\n      swap1\n      keccak256\n        /* \"contracts/Project3SmartWallet.sol\":2083:2113  isAllowedToSend[_from] = false */\n      dup1\n      sload\n      not(0xff)\n      and\n      swap1\n      sstore\n        /* \"contracts/Project3SmartWallet.sol\":1954:2121  function denySending(address _from) public {... */\n      jump\t// out\n        /* \"contracts/Project3SmartWallet.sol\":989:1157  function setGuardian(address guardianAddress) public{... */\n    tag_57:\n        /* \"contracts/Project3SmartWallet.sol\":1060:1065  owner */\n      and(sub(shl(0xa0, 0x01), 0x01), sload(0x00))\n        /* \"contracts/Project3SmartWallet.sol\":1069:1079  msg.sender */\n      caller\n        /* \"contracts/Project3SmartWallet.sol\":1060:1079  owner == msg.sender */\n      eq\n        /* \"contracts/Project3SmartWallet.sol\":1052:1104  require(owner == msg.sender, \"You are not allowed!\") */\n      tag_83\n      jumpi\n      mload(0x40)\n      shl(0xe5, 0x461bcd)\n      dup2\n      mstore\n        /* \"#utility.yul\":4459:4461   */\n      0x20\n        /* \"contracts/Project3SmartWallet.sol\":1052:1104  require(owner == msg.sender, \"You are not allowed!\") */\n      0x04\n      dup3\n      add\n        /* \"#utility.yul\":4441:4462   */\n      mstore\n        /* \"#utility.yul\":4498:4500   */\n      0x14\n        /* \"#utility.yul\":4478:4496   */\n      0x24\n      dup3\n      add\n        /* \"#utility.yul\":4471:4501   */\n      mstore\n      shl(0x60, 0x596f7520617265206e6f7420616c6c6f77656421)\n        /* \"#utility.yul\":4517:4535   */\n      0x44\n      dup3\n      add\n        /* \"#utility.yul\":4510:4560   */\n      mstore\n        /* \"#utility.yul\":4577:4595   */\n      0x64\n      add\n        /* \"contracts/Project3SmartWallet.sol\":1052:1104  require(owner == msg.sender, \"You are not allowed!\") */\n      tag_77\n        /* \"#utility.yul\":4257:4601   */\n      jump\n        /* \"contracts/Project3SmartWallet.sol\":1052:1104  require(owner == msg.sender, \"You are not allowed!\") */\n    tag_83:\n      sub(shl(0xa0, 0x01), 0x01)\n        /* \"contracts/Project3SmartWallet.sol\":1115:1141  guardians[guardianAddress] */\n      and\n        /* \"contracts/Project3SmartWallet.sol\":1144:1149  false */\n      0x00\n        /* \"contracts/Project3SmartWallet.sol\":1115:1141  guardians[guardianAddress] */\n      swap1\n      dup2\n      mstore\n        /* \"contracts/Project3SmartWallet.sol\":1115:1124  guardians */\n      0x04\n        /* \"contracts/Project3SmartWallet.sol\":1115:1141  guardians[guardianAddress] */\n      0x20\n      mstore\n      0x40\n      swap1\n      keccak256\n        /* \"contracts/Project3SmartWallet.sol\":1115:1149  guardians[guardianAddress] = false */\n      dup1\n      sload\n      not(0xff)\n      and\n      swap1\n      sstore\n        /* \"contracts/Project3SmartWallet.sol\":989:1157  function setGuardian(address guardianAddress) public{... */\n      jump\t// out\n        /* \"contracts/Project3SmartWallet.sol\":1165:1720  function proposeNewOwner(address payable newOwner) public {... */\n    tag_67:\n        /* \"contracts/Project3SmartWallet.sol\":1252:1262  msg.sender */\n      caller\n        /* \"contracts/Project3SmartWallet.sol\":1242:1263  guardians[msg.sender] */\n      0x00\n      swap1\n      dup2\n      mstore\n        /* \"contracts/Project3SmartWallet.sol\":1242:1251  guardians */\n      0x04\n        /* \"contracts/Project3SmartWallet.sol\":1242:1263  guardians[msg.sender] */\n      0x20\n      mstore\n      0x40\n      swap1\n      keccak256\n      sload\n      0xff\n      and\n        /* \"contracts/Project3SmartWallet.sol\":1234:1298  require(guardians[msg.sender], \"You are no guardian, aborting!\") */\n      tag_87\n      jumpi\n      mload(0x40)\n      shl(0xe5, 0x461bcd)\n      dup2\n      mstore\n        /* \"#utility.yul\":4808:4810   */\n      0x20\n        /* \"contracts/Project3SmartWallet.sol\":1234:1298  require(guardians[msg.sender], \"You are no guardian, aborting!\") */\n      0x04\n      dup3\n      add\n        /* \"#utility.yul\":4790:4811   */\n      mstore\n        /* \"#utility.yul\":4847:4849   */\n      0x1e\n        /* \"#utility.yul\":4827:4845   */\n      0x24\n      dup3\n      add\n        /* \"#utility.yul\":4820:4850   */\n      mstore\n        /* \"#utility.yul\":4886:4918   */\n      0x596f7520617265206e6f20677561726469616e2c2061626f7274696e67210000\n        /* \"#utility.yul\":4866:4884   */\n      0x44\n      dup3\n      add\n        /* \"#utility.yul\":4859:4919   */\n      mstore\n        /* \"#utility.yul\":4936:4954   */\n      0x64\n      add\n        /* \"contracts/Project3SmartWallet.sol\":1234:1298  require(guardians[msg.sender], \"You are no guardian, aborting!\") */\n      tag_77\n        /* \"#utility.yul\":4606:4960   */\n      jump\n        /* \"contracts/Project3SmartWallet.sol\":1234:1298  require(guardians[msg.sender], \"You are no guardian, aborting!\") */\n    tag_87:\n      sub(shl(0xa0, 0x01), 0x01)\n        /* \"contracts/Project3SmartWallet.sol\":1317:1340  guardianVoted[newOwner] */\n      dup2\n      and\n        /* \"contracts/Project3SmartWallet.sol\":1355:1360  false */\n      0x00\n        /* \"contracts/Project3SmartWallet.sol\":1317:1340  guardianVoted[newOwner] */\n      swap1\n      dup2\n      mstore\n        /* \"contracts/Project3SmartWallet.sol\":1317:1330  guardianVoted */\n      0x01\n        /* \"contracts/Project3SmartWallet.sol\":1317:1340  guardianVoted[newOwner] */\n      0x20\n      swap1\n      dup2\n      mstore\n      0x40\n      dup1\n      dup4\n      keccak256\n        /* \"contracts/Project3SmartWallet.sol\":1341:1351  msg.sender */\n      caller\n        /* \"contracts/Project3SmartWallet.sol\":1317:1352  guardianVoted[newOwner][msg.sender] */\n      dup5\n      mstore\n      swap1\n      swap2\n      mstore\n      swap1\n      keccak256\n        /* \"contracts/Project3SmartWallet.sol\":1317:1360  guardianVoted[newOwner][msg.sender] = false */\n      dup1\n      sload\n      not(0xff)\n      and\n      swap1\n      sstore\n        /* \"contracts/Project3SmartWallet.sol\":1309:1393  require(guardianVoted[newOwner][msg.sender] = false, \"You already have been voted!\") */\n      mload(0x40)\n      shl(0xe5, 0x461bcd)\n      dup2\n      mstore\n      0x04\n      add\n      tag_77\n      swap1\n        /* \"#utility.yul\":5167:5169   */\n      0x20\n        /* \"#utility.yul\":5149:5170   */\n      dup1\n      dup3\n      mstore\n        /* \"#utility.yul\":5206:5208   */\n      0x1c\n        /* \"#utility.yul\":5186:5204   */\n      swap1\n      dup3\n      add\n        /* \"#utility.yul\":5179:5209   */\n      mstore\n        /* \"#utility.yul\":5245:5275   */\n      0x596f7520616c72656164792068617665206265656e20766f7465642100000000\n        /* \"#utility.yul\":5240:5242   */\n      0x40\n        /* \"#utility.yul\":5225:5243   */\n      dup3\n      add\n        /* \"#utility.yul\":5218:5276   */\n      mstore\n        /* \"#utility.yul\":5308:5310   */\n      0x60\n        /* \"#utility.yul\":5293:5311   */\n      add\n      swap1\n        /* \"#utility.yul\":4965:5317   */\n      jump\n        /* \"contracts/Project3SmartWallet.sol\":1561:1713  if(guardiansResetCount >= confirmationsFromGuardiansForReset) {... */\n    tag_96:\n        /* \"contracts/Project3SmartWallet.sol\":1165:1720  function proposeNewOwner(address payable newOwner) public {... */\n      pop\n      jump\t// out\n        /* \"contracts/Project3SmartWallet.sol\":2129:2845  function transfer(address payable _to, uint _amount, bytes memory payload) public returns (bytes memory) {... */\n    tag_72:\n        /* \"contracts/Project3SmartWallet.sol\":2220:2232  bytes memory */\n      0x60\n        /* \"contracts/Project3SmartWallet.sol\":2264:2285  address(this).balance */\n      selfbalance\n        /* \"contracts/Project3SmartWallet.sol\":2253:2260  _amount */\n      dup4\n        /* \"contracts/Project3SmartWallet.sol\":2253:2285  _amount <= address(this).balance */\n      gt\n      iszero\n        /* \"contracts/Project3SmartWallet.sol\":2245:2339  require(_amount <= address(this).balance, \"Can't send more than the contract owns, aborting.\") */\n      tag_98\n      jumpi\n      mload(0x40)\n      shl(0xe5, 0x461bcd)\n      dup2\n      mstore\n        /* \"#utility.yul\":5796:5798   */\n      0x20\n        /* \"contracts/Project3SmartWallet.sol\":2245:2339  require(_amount <= address(this).balance, \"Can't send more than the contract owns, aborting.\") */\n      0x04\n      dup3\n      add\n        /* \"#utility.yul\":5778:5799   */\n      mstore\n        /* \"#utility.yul\":5835:5837   */\n      0x31\n        /* \"#utility.yul\":5815:5833   */\n      0x24\n      dup3\n      add\n        /* \"#utility.yul\":5808:5838   */\n      mstore\n        /* \"#utility.yul\":5874:5908   */\n      0x43616e27742073656e64206d6f7265207468616e2074686520636f6e74726163\n        /* \"#utility.yul\":5854:5872   */\n      0x44\n      dup3\n      add\n        /* \"#utility.yul\":5847:5909   */\n      mstore\n      shl(0x79, 0x3a1037bbb739961030b137b93a34b73397)\n        /* \"#utility.yul\":5925:5943   */\n      0x64\n      dup3\n      add\n        /* \"#utility.yul\":5918:5965   */\n      mstore\n        /* \"#utility.yul\":5982:6001   */\n      0x84\n      add\n        /* \"contracts/Project3SmartWallet.sol\":2245:2339  require(_amount <= address(this).balance, \"Can't send more than the contract owns, aborting.\") */\n      tag_77\n        /* \"#utility.yul\":5594:6007   */\n      jump\n        /* \"contracts/Project3SmartWallet.sol\":2245:2339  require(_amount <= address(this).balance, \"Can't send more than the contract owns, aborting.\") */\n    tag_98:\n        /* \"contracts/Project3SmartWallet.sol\":2367:2372  owner */\n      and(sub(shl(0xa0, 0x01), 0x01), sload(0x00))\n        /* \"contracts/Project3SmartWallet.sol\":2353:2363  msg.sender */\n      caller\n        /* \"contracts/Project3SmartWallet.sol\":2353:2372  msg.sender != owner */\n      eq\n        /* \"contracts/Project3SmartWallet.sol\":2350:2663  if(msg.sender != owner) {... */\n      tag_101\n      jumpi\n        /* \"contracts/Project3SmartWallet.sol\":2413:2423  msg.sender */\n      caller\n        /* \"contracts/Project3SmartWallet.sol\":2397:2424  isAllowedToSend[msg.sender] */\n      0x00\n      swap1\n      dup2\n      mstore\n        /* \"contracts/Project3SmartWallet.sol\":2397:2412  isAllowedToSend */\n      0x03\n        /* \"contracts/Project3SmartWallet.sol\":2397:2424  isAllowedToSend[msg.sender] */\n      0x20\n      mstore\n      0x40\n      swap1\n      keccak256\n      sload\n      0xff\n      and\n        /* \"contracts/Project3SmartWallet.sol\":2389:2483  require(isAllowedToSend[msg.sender], \"You are not allowed to send any transactions, aborting\") */\n      tag_102\n      jumpi\n      mload(0x40)\n      shl(0xe5, 0x461bcd)\n      dup2\n      mstore\n        /* \"#utility.yul\":6214:6216   */\n      0x20\n        /* \"contracts/Project3SmartWallet.sol\":2389:2483  require(isAllowedToSend[msg.sender], \"You are not allowed to send any transactions, aborting\") */\n      0x04\n      dup3\n      add\n        /* \"#utility.yul\":6196:6217   */\n      mstore\n        /* \"#utility.yul\":6253:6255   */\n      0x36\n        /* \"#utility.yul\":6233:6251   */\n      0x24\n      dup3\n      add\n        /* \"#utility.yul\":6226:6256   */\n      mstore\n        /* \"#utility.yul\":6292:6326   */\n      0x596f7520617265206e6f7420616c6c6f77656420746f2073656e6420616e7920\n        /* \"#utility.yul\":6272:6290   */\n      0x44\n      dup3\n      add\n        /* \"#utility.yul\":6265:6327   */\n      mstore\n      shl(0x50, 0x7472616e73616374696f6e732c2061626f7274696e67)\n        /* \"#utility.yul\":6343:6361   */\n      0x64\n      dup3\n      add\n        /* \"#utility.yul\":6336:6388   */\n      mstore\n        /* \"#utility.yul\":6405:6424   */\n      0x84\n      add\n        /* \"contracts/Project3SmartWallet.sol\":2389:2483  require(isAllowedToSend[msg.sender], \"You are not allowed to send any transactions, aborting\") */\n      tag_77\n        /* \"#utility.yul\":6012:6430   */\n      jump\n        /* \"contracts/Project3SmartWallet.sol\":2389:2483  require(isAllowedToSend[msg.sender], \"You are not allowed to send any transactions, aborting\") */\n    tag_102:\n        /* \"contracts/Project3SmartWallet.sol\":2516:2526  msg.sender */\n      caller\n        /* \"contracts/Project3SmartWallet.sol\":2506:2527  allowance[msg.sender] */\n      0x00\n      swap1\n      dup2\n      mstore\n        /* \"contracts/Project3SmartWallet.sol\":2506:2515  allowance */\n      0x02\n        /* \"contracts/Project3SmartWallet.sol\":2506:2527  allowance[msg.sender] */\n      0x20\n      mstore\n      0x40\n      swap1\n      keccak256\n      sload\n        /* \"contracts/Project3SmartWallet.sol\":2506:2538  allowance[msg.sender] >= _amount */\n      dup4\n      gt\n      iszero\n        /* \"contracts/Project3SmartWallet.sol\":2498:2604  require(allowance[msg.sender] >= _amount, \"You are trying to send more than you are allowed to, aborting\") */\n      tag_105\n      jumpi\n      mload(0x40)\n      shl(0xe5, 0x461bcd)\n      dup2\n      mstore\n        /* \"#utility.yul\":6637:6639   */\n      0x20\n        /* \"contracts/Project3SmartWallet.sol\":2498:2604  require(allowance[msg.sender] >= _amount, \"You are trying to send more than you are allowed to, aborting\") */\n      0x04\n      dup3\n      add\n        /* \"#utility.yul\":6619:6640   */\n      mstore\n        /* \"#utility.yul\":6676:6678   */\n      0x3d\n        /* \"#utility.yul\":6656:6674   */\n      0x24\n      dup3\n      add\n        /* \"#utility.yul\":6649:6679   */\n      mstore\n        /* \"#utility.yul\":6715:6749   */\n      0x596f752061726520747279696e6720746f2073656e64206d6f7265207468616e\n        /* \"#utility.yul\":6695:6713   */\n      0x44\n      dup3\n      add\n        /* \"#utility.yul\":6688:6750   */\n      mstore\n        /* \"#utility.yul\":6786:6817   */\n      0x20796f752061726520616c6c6f77656420746f2c2061626f7274696e67000000\n        /* \"#utility.yul\":6766:6784   */\n      0x64\n      dup3\n      add\n        /* \"#utility.yul\":6759:6818   */\n      mstore\n        /* \"#utility.yul\":6835:6854   */\n      0x84\n      add\n        /* \"contracts/Project3SmartWallet.sol\":2498:2604  require(allowance[msg.sender] >= _amount, \"You are trying to send more than you are allowed to, aborting\") */\n      tag_77\n        /* \"#utility.yul\":6435:6860   */\n      jump\n        /* \"contracts/Project3SmartWallet.sol\":2498:2604  require(allowance[msg.sender] >= _amount, \"You are trying to send more than you are allowed to, aborting\") */\n    tag_105:\n        /* \"contracts/Project3SmartWallet.sol\":2629:2639  msg.sender */\n      caller\n        /* \"contracts/Project3SmartWallet.sol\":2619:2640  allowance[msg.sender] */\n      0x00\n      swap1\n      dup2\n      mstore\n        /* \"contracts/Project3SmartWallet.sol\":2619:2628  allowance */\n      0x02\n        /* \"contracts/Project3SmartWallet.sol\":2619:2640  allowance[msg.sender] */\n      0x20\n      mstore\n      0x40\n      dup2\n      keccak256\n        /* \"contracts/Project3SmartWallet.sol\":2619:2651  allowance[msg.sender] -= _amount */\n      dup1\n      sload\n        /* \"contracts/Project3SmartWallet.sol\":2644:2651  _amount */\n      dup6\n      swap3\n        /* \"contracts/Project3SmartWallet.sol\":2619:2640  allowance[msg.sender] */\n      swap1\n        /* \"contracts/Project3SmartWallet.sol\":2619:2651  allowance[msg.sender] -= _amount */\n      tag_108\n      swap1\n        /* \"contracts/Project3SmartWallet.sol\":2644:2651  _amount */\n      dup5\n      swap1\n        /* \"contracts/Project3SmartWallet.sol\":2619:2651  allowance[msg.sender] -= _amount */\n      tag_109\n      jump\t// in\n    tag_108:\n      swap1\n      swap2\n      sstore\n      pop\n      pop\n        /* \"contracts/Project3SmartWallet.sol\":2350:2663  if(msg.sender != owner) {... */\n    tag_101:\n        /* \"contracts/Project3SmartWallet.sol\":2676:2688  bool success */\n      0x00\n        /* \"contracts/Project3SmartWallet.sol\":2690:2713  bytes memory returnData */\n      dup1\n        /* \"contracts/Project3SmartWallet.sol\":2717:2720  _to */\n      dup6\n      sub(shl(0xa0, 0x01), 0x01)\n        /* \"contracts/Project3SmartWallet.sol\":2717:2725  _to.call */\n      and\n        /* \"contracts/Project3SmartWallet.sol\":2733:2740  _amount */\n      dup6\n        /* \"contracts/Project3SmartWallet.sol\":2742:2749  payload */\n      dup6\n        /* \"contracts/Project3SmartWallet.sol\":2717:2750  _to.call{value: _amount}(payload) */\n      mload(0x40)\n      tag_110\n      swap2\n      swap1\n      tag_111\n      jump\t// in\n    tag_110:\n      0x00\n      mload(0x40)\n      dup1\n      dup4\n      sub\n      dup2\n      dup6\n      dup8\n      gas\n      call\n      swap3\n      pop\n      pop\n      pop\n      returndatasize\n      dup1\n      0x00\n      dup2\n      eq\n      tag_114\n      jumpi\n      mload(0x40)\n      swap2\n      pop\n      and(add(returndatasize, 0x3f), not(0x1f))\n      dup3\n      add\n      0x40\n      mstore\n      returndatasize\n      dup3\n      mstore\n      returndatasize\n      0x00\n      0x20\n      dup5\n      add\n      returndatacopy\n      jump(tag_113)\n    tag_114:\n      0x60\n      swap2\n      pop\n    tag_113:\n      pop\n        /* \"contracts/Project3SmartWallet.sol\":2675:2750  (bool success, bytes memory returnData) = _to.call{value: _amount}(payload) */\n      swap2\n      pop\n      swap2\n      pop\n        /* \"contracts/Project3SmartWallet.sol\":2769:2776  success */\n      dup2\n        /* \"contracts/Project3SmartWallet.sol\":2761:2809  require(success, \"Transaction failed, aborting\") */\n      tag_115\n      jumpi\n      mload(0x40)\n      shl(0xe5, 0x461bcd)\n      dup2\n      mstore\n        /* \"#utility.yul\":7492:7494   */\n      0x20\n        /* \"contracts/Project3SmartWallet.sol\":2761:2809  require(success, \"Transaction failed, aborting\") */\n      0x04\n      dup3\n      add\n        /* \"#utility.yul\":7474:7495   */\n      mstore\n        /* \"#utility.yul\":7531:7533   */\n      0x1c\n        /* \"#utility.yul\":7511:7529   */\n      0x24\n      dup3\n      add\n        /* \"#utility.yul\":7504:7534   */\n      mstore\n        /* \"#utility.yul\":7570:7600   */\n      0x5472616e73616374696f6e206661696c65642c2061626f7274696e6700000000\n        /* \"#utility.yul\":7550:7568   */\n      0x44\n      dup3\n      add\n        /* \"#utility.yul\":7543:7601   */\n      mstore\n        /* \"#utility.yul\":7618:7636   */\n      0x64\n      add\n        /* \"contracts/Project3SmartWallet.sol\":2761:2809  require(success, \"Transaction failed, aborting\") */\n      tag_77\n        /* \"#utility.yul\":7290:7642   */\n      jump\n        /* \"contracts/Project3SmartWallet.sol\":2761:2809  require(success, \"Transaction failed, aborting\") */\n    tag_115:\n        /* \"contracts/Project3SmartWallet.sol\":2827:2837  returnData */\n      swap6\n        /* \"contracts/Project3SmartWallet.sol\":2129:2845  function transfer(address payable _to, uint _amount, bytes memory payload) public returns (bytes memory) {... */\n      swap5\n      pop\n      pop\n      pop\n      pop\n      pop\n      jump\t// out\n        /* \"#utility.yul\":14:145   */\n    tag_118:\n      sub(shl(0xa0, 0x01), 0x01)\n        /* \"#utility.yul\":89:120   */\n      dup2\n      and\n        /* \"#utility.yul\":79:121   */\n      dup2\n      eq\n        /* \"#utility.yul\":69:139   */\n      tag_96\n      jumpi\n        /* \"#utility.yul\":135:136   */\n      0x00\n        /* \"#utility.yul\":132:133   */\n      dup1\n        /* \"#utility.yul\":125:137   */\n      revert\n        /* \"#utility.yul\":150:397   */\n    tag_20:\n        /* \"#utility.yul\":209:215   */\n      0x00\n        /* \"#utility.yul\":262:264   */\n      0x20\n        /* \"#utility.yul\":250:259   */\n      dup3\n        /* \"#utility.yul\":241:248   */\n      dup5\n        /* \"#utility.yul\":237:260   */\n      sub\n        /* \"#utility.yul\":233:265   */\n      slt\n        /* \"#utility.yul\":230:282   */\n      iszero\n      tag_126\n      jumpi\n        /* \"#utility.yul\":278:279   */\n      0x00\n        /* \"#utility.yul\":275:276   */\n      dup1\n        /* \"#utility.yul\":268:280   */\n      revert\n        /* \"#utility.yul\":230:282   */\n    tag_126:\n        /* \"#utility.yul\":317:326   */\n      dup2\n        /* \"#utility.yul\":304:327   */\n      calldataload\n        /* \"#utility.yul\":336:367   */\n      tag_127\n        /* \"#utility.yul\":361:366   */\n      dup2\n        /* \"#utility.yul\":336:367   */\n      tag_118\n      jump\t// in\n    tag_127:\n        /* \"#utility.yul\":386:391   */\n      swap4\n        /* \"#utility.yul\":150:397   */\n      swap3\n      pop\n      pop\n      pop\n      jump\t// out\n        /* \"#utility.yul\":594:909   */\n    tag_32:\n        /* \"#utility.yul\":662:668   */\n      0x00\n        /* \"#utility.yul\":670:676   */\n      dup1\n        /* \"#utility.yul\":723:725   */\n      0x40\n        /* \"#utility.yul\":711:720   */\n      dup4\n        /* \"#utility.yul\":702:709   */\n      dup6\n        /* \"#utility.yul\":698:721   */\n      sub\n        /* \"#utility.yul\":694:726   */\n      slt\n        /* \"#utility.yul\":691:743   */\n      iszero\n      tag_130\n      jumpi\n        /* \"#utility.yul\":739:740   */\n      0x00\n        /* \"#utility.yul\":736:737   */\n      dup1\n        /* \"#utility.yul\":729:741   */\n      revert\n        /* \"#utility.yul\":691:743   */\n    tag_130:\n        /* \"#utility.yul\":778:787   */\n      dup3\n        /* \"#utility.yul\":765:788   */\n      calldataload\n        /* \"#utility.yul\":797:828   */\n      tag_131\n        /* \"#utility.yul\":822:827   */\n      dup2\n        /* \"#utility.yul\":797:828   */\n      tag_118\n      jump\t// in\n    tag_131:\n        /* \"#utility.yul\":847:852   */\n      swap5\n        /* \"#utility.yul\":899:901   */\n      0x20\n        /* \"#utility.yul\":884:902   */\n      swap4\n      swap1\n      swap4\n      add\n        /* \"#utility.yul\":871:903   */\n      calldataload\n      swap4\n      pop\n      pop\n      pop\n        /* \"#utility.yul\":594:909   */\n      jump\t// out\n        /* \"#utility.yul\":1096:1484   */\n    tag_51:\n        /* \"#utility.yul\":1164:1170   */\n      0x00\n        /* \"#utility.yul\":1172:1178   */\n      dup1\n        /* \"#utility.yul\":1225:1227   */\n      0x40\n        /* \"#utility.yul\":1213:1222   */\n      dup4\n        /* \"#utility.yul\":1204:1211   */\n      dup6\n        /* \"#utility.yul\":1200:1223   */\n      sub\n        /* \"#utility.yul\":1196:1228   */\n      slt\n        /* \"#utility.yul\":1193:1245   */\n      iszero\n      tag_134\n      jumpi\n        /* \"#utility.yul\":1241:1242   */\n      0x00\n        /* \"#utility.yul\":1238:1239   */\n      dup1\n        /* \"#utility.yul\":1231:1243   */\n      revert\n        /* \"#utility.yul\":1193:1245   */\n    tag_134:\n        /* \"#utility.yul\":1280:1289   */\n      dup3\n        /* \"#utility.yul\":1267:1290   */\n      calldataload\n        /* \"#utility.yul\":1299:1330   */\n      tag_135\n        /* \"#utility.yul\":1324:1329   */\n      dup2\n        /* \"#utility.yul\":1299:1330   */\n      tag_118\n      jump\t// in\n    tag_135:\n        /* \"#utility.yul\":1349:1354   */\n      swap2\n      pop\n        /* \"#utility.yul\":1406:1408   */\n      0x20\n        /* \"#utility.yul\":1391:1409   */\n      dup4\n      add\n        /* \"#utility.yul\":1378:1410   */\n      calldataload\n        /* \"#utility.yul\":1419:1452   */\n      tag_136\n        /* \"#utility.yul\":1378:1410   */\n      dup2\n        /* \"#utility.yul\":1419:1452   */\n      tag_118\n      jump\t// in\n    tag_136:\n        /* \"#utility.yul\":1471:1478   */\n      dup1\n        /* \"#utility.yul\":1461:1478   */\n      swap2\n      pop\n      pop\n        /* \"#utility.yul\":1096:1484   */\n      swap3\n      pop\n      swap3\n      swap1\n      pop\n      jump\t// out\n        /* \"#utility.yul\":1973:2100   */\n    tag_119:\n        /* \"#utility.yul\":2034:2044   */\n      0x4e487b71\n        /* \"#utility.yul\":2029:2032   */\n      0xe0\n        /* \"#utility.yul\":2025:2045   */\n      shl\n        /* \"#utility.yul\":2022:2023   */\n      0x00\n        /* \"#utility.yul\":2015:2046   */\n      mstore\n        /* \"#utility.yul\":2065:2069   */\n      0x41\n        /* \"#utility.yul\":2062:2063   */\n      0x04\n        /* \"#utility.yul\":2055:2070   */\n      mstore\n        /* \"#utility.yul\":2089:2093   */\n      0x24\n        /* \"#utility.yul\":2086:2087   */\n      0x00\n        /* \"#utility.yul\":2079:2094   */\n      revert\n        /* \"#utility.yul\":2105:3237   */\n    tag_71:\n        /* \"#utility.yul\":2199:2205   */\n      0x00\n        /* \"#utility.yul\":2207:2213   */\n      dup1\n        /* \"#utility.yul\":2215:2221   */\n      0x00\n        /* \"#utility.yul\":2268:2270   */\n      0x60\n        /* \"#utility.yul\":2256:2265   */\n      dup5\n        /* \"#utility.yul\":2247:2254   */\n      dup7\n        /* \"#utility.yul\":2243:2266   */\n      sub\n        /* \"#utility.yul\":2239:2271   */\n      slt\n        /* \"#utility.yul\":2236:2288   */\n      iszero\n      tag_143\n      jumpi\n        /* \"#utility.yul\":2284:2285   */\n      0x00\n        /* \"#utility.yul\":2281:2282   */\n      dup1\n        /* \"#utility.yul\":2274:2286   */\n      revert\n        /* \"#utility.yul\":2236:2288   */\n    tag_143:\n        /* \"#utility.yul\":2323:2332   */\n      dup4\n        /* \"#utility.yul\":2310:2333   */\n      calldataload\n        /* \"#utility.yul\":2342:2373   */\n      tag_144\n        /* \"#utility.yul\":2367:2372   */\n      dup2\n        /* \"#utility.yul\":2342:2373   */\n      tag_118\n      jump\t// in\n    tag_144:\n        /* \"#utility.yul\":2392:2397   */\n      swap3\n      pop\n        /* \"#utility.yul\":2444:2446   */\n      0x20\n        /* \"#utility.yul\":2429:2447   */\n      dup5\n      add\n        /* \"#utility.yul\":2416:2448   */\n      calldataload\n      swap2\n      pop\n        /* \"#utility.yul\":2499:2501   */\n      0x40\n        /* \"#utility.yul\":2484:2502   */\n      dup5\n      add\n        /* \"#utility.yul\":2471:2503   */\n      calldataload\n        /* \"#utility.yul\":2522:2540   */\n      0xffffffffffffffff\n        /* \"#utility.yul\":2552:2566   */\n      dup1\n      dup3\n      gt\n        /* \"#utility.yul\":2549:2583   */\n      iszero\n      tag_145\n      jumpi\n        /* \"#utility.yul\":2579:2580   */\n      0x00\n        /* \"#utility.yul\":2576:2577   */\n      dup1\n        /* \"#utility.yul\":2569:2581   */\n      revert\n        /* \"#utility.yul\":2549:2583   */\n    tag_145:\n        /* \"#utility.yul\":2617:2623   */\n      dup2\n        /* \"#utility.yul\":2606:2615   */\n      dup7\n        /* \"#utility.yul\":2602:2624   */\n      add\n        /* \"#utility.yul\":2592:2624   */\n      swap2\n      pop\n        /* \"#utility.yul\":2662:2669   */\n      dup7\n        /* \"#utility.yul\":2655:2659   */\n      0x1f\n        /* \"#utility.yul\":2651:2653   */\n      dup4\n        /* \"#utility.yul\":2647:2660   */\n      add\n        /* \"#utility.yul\":2643:2670   */\n      slt\n        /* \"#utility.yul\":2633:2688   */\n      tag_146\n      jumpi\n        /* \"#utility.yul\":2684:2685   */\n      0x00\n        /* \"#utility.yul\":2681:2682   */\n      dup1\n        /* \"#utility.yul\":2674:2686   */\n      revert\n        /* \"#utility.yul\":2633:2688   */\n    tag_146:\n        /* \"#utility.yul\":2720:2722   */\n      dup2\n        /* \"#utility.yul\":2707:2723   */\n      calldataload\n        /* \"#utility.yul\":2742:2744   */\n      dup2\n        /* \"#utility.yul\":2738:2740   */\n      dup2\n        /* \"#utility.yul\":2735:2745   */\n      gt\n        /* \"#utility.yul\":2732:2768   */\n      iszero\n      tag_148\n      jumpi\n        /* \"#utility.yul\":2748:2766   */\n      tag_148\n      tag_119\n      jump\t// in\n    tag_148:\n        /* \"#utility.yul\":2823:2825   */\n      0x40\n        /* \"#utility.yul\":2817:2826   */\n      mload\n        /* \"#utility.yul\":2791:2793   */\n      0x1f\n        /* \"#utility.yul\":2877:2890   */\n      dup3\n      add\n      not(0x1f)\n        /* \"#utility.yul\":2873:2895   */\n      swap1\n      dup2\n      and\n        /* \"#utility.yul\":2897:2899   */\n      0x3f\n        /* \"#utility.yul\":2869:2900   */\n      add\n        /* \"#utility.yul\":2865:2905   */\n      and\n        /* \"#utility.yul\":2853:2906   */\n      dup2\n      add\n      swap1\n        /* \"#utility.yul\":2921:2939   */\n      dup4\n      dup3\n      gt\n        /* \"#utility.yul\":2941:2963   */\n      dup2\n      dup4\n      lt\n        /* \"#utility.yul\":2918:2964   */\n      or\n        /* \"#utility.yul\":2915:2987   */\n      iszero\n      tag_150\n      jumpi\n        /* \"#utility.yul\":2967:2985   */\n      tag_150\n      tag_119\n      jump\t// in\n    tag_150:\n        /* \"#utility.yul\":3007:3017   */\n      dup2\n        /* \"#utility.yul\":3003:3005   */\n      0x40\n        /* \"#utility.yul\":2996:3018   */\n      mstore\n        /* \"#utility.yul\":3042:3044   */\n      dup3\n        /* \"#utility.yul\":3034:3040   */\n      dup2\n        /* \"#utility.yul\":3027:3045   */\n      mstore\n        /* \"#utility.yul\":3082:3089   */\n      dup10\n        /* \"#utility.yul\":3077:3079   */\n      0x20\n        /* \"#utility.yul\":3072:3074   */\n      dup5\n        /* \"#utility.yul\":3068:3070   */\n      dup8\n        /* \"#utility.yul\":3064:3075   */\n      add\n        /* \"#utility.yul\":3060:3080   */\n      add\n        /* \"#utility.yul\":3057:3090   */\n      gt\n        /* \"#utility.yul\":3054:3107   */\n      iszero\n      tag_151\n      jumpi\n        /* \"#utility.yul\":3103:3104   */\n      0x00\n        /* \"#utility.yul\":3100:3101   */\n      dup1\n        /* \"#utility.yul\":3093:3105   */\n      revert\n        /* \"#utility.yul\":3054:3107   */\n    tag_151:\n        /* \"#utility.yul\":3159:3161   */\n      dup3\n        /* \"#utility.yul\":3154:3156   */\n      0x20\n        /* \"#utility.yul\":3150:3152   */\n      dup7\n        /* \"#utility.yul\":3146:3157   */\n      add\n        /* \"#utility.yul\":3141:3143   */\n      0x20\n        /* \"#utility.yul\":3133:3139   */\n      dup4\n        /* \"#utility.yul\":3129:3144   */\n      add\n        /* \"#utility.yul\":3116:3162   */\n      calldatacopy\n        /* \"#utility.yul\":3204:3205   */\n      0x00\n        /* \"#utility.yul\":3199:3201   */\n      0x20\n        /* \"#utility.yul\":3194:3196   */\n      dup5\n        /* \"#utility.yul\":3186:3192   */\n      dup4\n        /* \"#utility.yul\":3182:3197   */\n      add\n        /* \"#utility.yul\":3178:3202   */\n      add\n        /* \"#utility.yul\":3171:3206   */\n      mstore\n        /* \"#utility.yul\":3225:3231   */\n      dup1\n        /* \"#utility.yul\":3215:3231   */\n      swap6\n      pop\n      pop\n      pop\n      pop\n      pop\n      pop\n        /* \"#utility.yul\":2105:3237   */\n      swap3\n      pop\n      swap3\n      pop\n      swap3\n      jump\t// out\n        /* \"#utility.yul\":3242:3492   */\n    tag_120:\n        /* \"#utility.yul\":3327:3328   */\n      0x00\n        /* \"#utility.yul\":3337:3450   */\n    tag_153:\n        /* \"#utility.yul\":3351:3357   */\n      dup4\n        /* \"#utility.yul\":3348:3349   */\n      dup2\n        /* \"#utility.yul\":3345:3358   */\n      lt\n        /* \"#utility.yul\":3337:3450   */\n      iszero\n      tag_155\n      jumpi\n        /* \"#utility.yul\":3427:3438   */\n      dup2\n      dup2\n      add\n        /* \"#utility.yul\":3421:3439   */\n      mload\n        /* \"#utility.yul\":3408:3419   */\n      dup4\n      dup3\n      add\n        /* \"#utility.yul\":3401:3440   */\n      mstore\n        /* \"#utility.yul\":3373:3375   */\n      0x20\n        /* \"#utility.yul\":3366:3376   */\n      add\n        /* \"#utility.yul\":3337:3450   */\n      jump(tag_153)\n    tag_155:\n      pop\n      pop\n        /* \"#utility.yul\":3484:3485   */\n      0x00\n        /* \"#utility.yul\":3466:3482   */\n      swap2\n      add\n        /* \"#utility.yul\":3459:3486   */\n      mstore\n        /* \"#utility.yul\":3242:3492   */\n      jump\t// out\n        /* \"#utility.yul\":3497:3891   */\n    tag_74:\n        /* \"#utility.yul\":3644:3646   */\n      0x20\n        /* \"#utility.yul\":3633:3642   */\n      dup2\n        /* \"#utility.yul\":3626:3647   */\n      mstore\n        /* \"#utility.yul\":3607:3611   */\n      0x00\n        /* \"#utility.yul\":3676:3682   */\n      dup3\n        /* \"#utility.yul\":3670:3683   */\n      mload\n        /* \"#utility.yul\":3719:3725   */\n      dup1\n        /* \"#utility.yul\":3714:3716   */\n      0x20\n        /* \"#utility.yul\":3703:3712   */\n      dup5\n        /* \"#utility.yul\":3699:3717   */\n      add\n        /* \"#utility.yul\":3692:3726   */\n      mstore\n        /* \"#utility.yul\":3735:3814   */\n      tag_157\n        /* \"#utility.yul\":3807:3813   */\n      dup2\n        /* \"#utility.yul\":3802:3804   */\n      0x40\n        /* \"#utility.yul\":3791:3800   */\n      dup6\n        /* \"#utility.yul\":3787:3805   */\n      add\n        /* \"#utility.yul\":3782:3784   */\n      0x20\n        /* \"#utility.yul\":3774:3780   */\n      dup8\n        /* \"#utility.yul\":3770:3785   */\n      add\n        /* \"#utility.yul\":3735:3814   */\n      tag_120\n      jump\t// in\n    tag_157:\n        /* \"#utility.yul\":3875:3877   */\n      0x1f\n        /* \"#utility.yul\":3854:3869   */\n      add\n      not(0x1f)\n        /* \"#utility.yul\":3850:3879   */\n      and\n        /* \"#utility.yul\":3835:3880   */\n      swap2\n      swap1\n      swap2\n      add\n        /* \"#utility.yul\":3882:3884   */\n      0x40\n        /* \"#utility.yul\":3831:3885   */\n      add\n      swap3\n        /* \"#utility.yul\":3497:3891   */\n      swap2\n      pop\n      pop\n      jump\t// out\n        /* \"#utility.yul\":5322:5449   */\n    tag_121:\n        /* \"#utility.yul\":5383:5393   */\n      0x4e487b71\n        /* \"#utility.yul\":5378:5381   */\n      0xe0\n        /* \"#utility.yul\":5374:5394   */\n      shl\n        /* \"#utility.yul\":5371:5372   */\n      0x00\n        /* \"#utility.yul\":5364:5395   */\n      mstore\n        /* \"#utility.yul\":5414:5418   */\n      0x11\n        /* \"#utility.yul\":5411:5412   */\n      0x04\n        /* \"#utility.yul\":5404:5419   */\n      mstore\n        /* \"#utility.yul\":5438:5442   */\n      0x24\n        /* \"#utility.yul\":5435:5436   */\n      0x00\n        /* \"#utility.yul\":5428:5443   */\n      revert\n        /* \"#utility.yul\":6865:6993   */\n    tag_109:\n        /* \"#utility.yul\":6932:6941   */\n      dup2\n      dup2\n      sub\n        /* \"#utility.yul\":6953:6964   */\n      dup2\n      dup2\n      gt\n        /* \"#utility.yul\":6950:6987   */\n      iszero\n      tag_171\n      jumpi\n        /* \"#utility.yul\":6967:6985   */\n      tag_171\n      tag_121\n      jump\t// in\n    tag_171:\n        /* \"#utility.yul\":6865:6993   */\n      swap3\n      swap2\n      pop\n      pop\n      jump\t// out\n        /* \"#utility.yul\":6998:7285   */\n    tag_111:\n        /* \"#utility.yul\":7127:7130   */\n      0x00\n        /* \"#utility.yul\":7165:7171   */\n      dup3\n        /* \"#utility.yul\":7159:7172   */\n      mload\n        /* \"#utility.yul\":7181:7247   */\n      tag_173\n        /* \"#utility.yul\":7240:7246   */\n      dup2\n        /* \"#utility.yul\":7235:7238   */\n      dup5\n        /* \"#utility.yul\":7228:7232   */\n      0x20\n        /* \"#utility.yul\":7220:7226   */\n      dup8\n        /* \"#utility.yul\":7216:7233   */\n      add\n        /* \"#utility.yul\":7181:7247   */\n      tag_120\n      jump\t// in\n    tag_173:\n        /* \"#utility.yul\":7263:7279   */\n      swap2\n      swap1\n      swap2\n      add\n      swap3\n        /* \"#utility.yul\":6998:7285   */\n      swap2\n      pop\n      pop\n      jump\t// out\n\n    auxdata: 0xa2646970667358221220161b3184f4b6e3a68d489fbcb6f4628c7a5a9000fb5c5ac53d9c823b97dbaaca64736f6c63430008170033\n}\n",
				"bytecode": {
					"linkReferences": {},
					"object": "608060405234801561000f575f80fd5b505f80546001600160a01b031916331790556109668061002e5f395ff3fe60806040526004361061009d575f3560e01c806383012be11161006257806383012be11461019257806385f6db2e146101a65780638a0dac4a146101df5780638da5cb5b146101fe578063b1f8100d14610234578063be45fd6214610253575f80fd5b80630633b14a146100a85780630bc605ad146100eb578063310ec4a7146101195780633e5beab91461013a5780637673de5314610173575f80fd5b366100a457005b5f80fd5b3480156100b3575f80fd5b506100d66100c2366004610737565b60046020525f908152604090205460ff1681565b60405190151581526020015b60405180910390f35b3480156100f6575f80fd5b506100d6610105366004610737565b60036020525f908152604090205460ff1681565b348015610124575f80fd5b50610138610133366004610759565b61027f565b005b348015610145575f80fd5b50610165610154366004610737565b60026020525f908152604090205481565b6040519081526020016100e2565b34801561017e575f80fd5b5061013861018d366004610737565b61030e565b34801561019d575f80fd5b50610165600381565b3480156101b1575f80fd5b506100d66101c0366004610783565b600160209081525f928352604080842090915290825290205460ff1681565b3480156101ea575f80fd5b506101386101f9366004610737565b610387565b348015610209575f80fd5b505f5461021c906001600160a01b031681565b6040516001600160a01b0390911681526020016100e2565b34801561023f575f80fd5b5061013861024e366004610737565b6103f7565b34801561025e575f80fd5b5061027261026d3660046107ce565b6104cc565b6040516100e291906108b6565b5f546001600160a01b031633146102dd5760405162461bcd60e51b815260206004820181905260248201527f596f7520617265206e6f7420746865206f776e65722c2061626f7274696e672160448201526064015b60405180910390fd5b6001600160a01b039091165f908152600260209081526040808320939093556003905220805460ff19166001179055565b5f546001600160a01b031633146103675760405162461bcd60e51b815260206004820181905260248201527f596f7520617265206e6f7420746865206f776e65722c2061626f7274696e672160448201526064016102d4565b6001600160a01b03165f908152600360205260409020805460ff19169055565b5f546001600160a01b031633146103d75760405162461bcd60e51b8152602060048201526014602482015273596f7520617265206e6f7420616c6c6f7765642160601b60448201526064016102d4565b6001600160a01b03165f908152600460205260409020805460ff19169055565b335f9081526004602052604090205460ff166104555760405162461bcd60e51b815260206004820152601e60248201527f596f7520617265206e6f20677561726469616e2c2061626f7274696e6721000060448201526064016102d4565b6001600160a01b0381165f9081526001602090815260408083203384529091529020805460ff1916905560405162461bcd60e51b81526004016102d4906020808252601c908201527f596f7520616c72656164792068617665206265656e20766f7465642100000000604082015260600190565b50565b6060478311156105385760405162461bcd60e51b815260206004820152603160248201527f43616e27742073656e64206d6f7265207468616e2074686520636f6e747261636044820152703a1037bbb739961030b137b93a34b7339760791b60648201526084016102d4565b5f546001600160a01b0316331461066e57335f9081526003602052604090205460ff166105c65760405162461bcd60e51b815260206004820152603660248201527f596f7520617265206e6f7420616c6c6f77656420746f2073656e6420616e79206044820152757472616e73616374696f6e732c2061626f7274696e6760501b60648201526084016102d4565b335f9081526002602052604090205483111561064a5760405162461bcd60e51b815260206004820152603d60248201527f596f752061726520747279696e6720746f2073656e64206d6f7265207468616e60448201527f20796f752061726520616c6c6f77656420746f2c2061626f7274696e6700000060648201526084016102d4565b335f90815260026020526040812080548592906106689084906108fc565b90915550505b5f80856001600160a01b031685856040516106899190610915565b5f6040518083038185875af1925050503d805f81146106c3576040519150601f19603f3d011682016040523d82523d5f602084013e6106c8565b606091505b50915091508161071a5760405162461bcd60e51b815260206004820152601c60248201527f5472616e73616374696f6e206661696c65642c2061626f7274696e670000000060448201526064016102d4565b95945050505050565b6001600160a01b03811681146104c9575f80fd5b5f60208284031215610747575f80fd5b813561075281610723565b9392505050565b5f806040838503121561076a575f80fd5b823561077581610723565b946020939093013593505050565b5f8060408385031215610794575f80fd5b823561079f81610723565b915060208301356107af81610723565b809150509250929050565b634e487b7160e01b5f52604160045260245ffd5b5f805f606084860312156107e0575f80fd5b83356107eb81610723565b925060208401359150604084013567ffffffffffffffff8082111561080e575f80fd5b818601915086601f830112610821575f80fd5b813581811115610833576108336107ba565b604051601f8201601f19908116603f0116810190838211818310171561085b5761085b6107ba565b81604052828152896020848701011115610873575f80fd5b826020860160208301375f6020848301015280955050505050509250925092565b5f5b838110156108ae578181015183820152602001610896565b50505f910152565b602081525f82518060208401526108d4816040850160208701610894565b601f01601f19169190910160400192915050565b634e487b7160e01b5f52601160045260245ffd5b8181038181111561090f5761090f6108e8565b92915050565b5f8251610926818460208701610894565b919091019291505056fea2646970667358221220161b3184f4b6e3a68d489fbcb6f4628c7a5a9000fb5c5ac53d9c823b97dbaaca64736f6c63430008170033",
					"opcodes": "PUSH1 0x80 PUSH1 0x40 MSTORE CALLVALUE DUP1 ISZERO PUSH2 0xF JUMPI PUSH0 DUP1 REVERT JUMPDEST POP PUSH0 DUP1 SLOAD PUSH1 0x1 PUSH1 0x1 PUSH1 0xA0 SHL SUB NOT AND CALLER OR SWAP1 SSTORE PUSH2 0x966 DUP1 PUSH2 0x2E PUSH0 CODECOPY PUSH0 RETURN INVALID PUSH1 0x80 PUSH1 0x40 MSTORE PUSH1 0x4 CALLDATASIZE LT PUSH2 0x9D JUMPI PUSH0 CALLDATALOAD PUSH1 0xE0 SHR DUP1 PUSH4 0x83012BE1 GT PUSH2 0x62 JUMPI DUP1 PUSH4 0x83012BE1 EQ PUSH2 0x192 JUMPI DUP1 PUSH4 0x85F6DB2E EQ PUSH2 0x1A6 JUMPI DUP1 PUSH4 0x8A0DAC4A EQ PUSH2 0x1DF JUMPI DUP1 PUSH4 0x8DA5CB5B EQ PUSH2 0x1FE JUMPI DUP1 PUSH4 0xB1F8100D EQ PUSH2 0x234 JUMPI DUP1 PUSH4 0xBE45FD62 EQ PUSH2 0x253 JUMPI PUSH0 DUP1 REVERT JUMPDEST DUP1 PUSH4 0x633B14A EQ PUSH2 0xA8 JUMPI DUP1 PUSH4 0xBC605AD EQ PUSH2 0xEB JUMPI DUP1 PUSH4 0x310EC4A7 EQ PUSH2 0x119 JUMPI DUP1 PUSH4 0x3E5BEAB9 EQ PUSH2 0x13A JUMPI DUP1 PUSH4 0x7673DE53 EQ PUSH2 0x173 JUMPI PUSH0 DUP1 REVERT JUMPDEST CALLDATASIZE PUSH2 0xA4 JUMPI STOP JUMPDEST PUSH0 DUP1 REVERT JUMPDEST CALLVALUE DUP1 ISZERO PUSH2 0xB3 JUMPI PUSH0 DUP1 REVERT JUMPDEST POP PUSH2 0xD6 PUSH2 0xC2 CALLDATASIZE PUSH1 0x4 PUSH2 0x737 JUMP JUMPDEST PUSH1 0x4 PUSH1 0x20 MSTORE PUSH0 SWAP1 DUP2 MSTORE PUSH1 0x40 SWAP1 KECCAK256 SLOAD PUSH1 0xFF AND DUP2 JUMP JUMPDEST PUSH1 0x40 MLOAD SWAP1 ISZERO ISZERO DUP2 MSTORE PUSH1 0x20 ADD JUMPDEST PUSH1 0x40 MLOAD DUP1 SWAP2 SUB SWAP1 RETURN JUMPDEST CALLVALUE DUP1 ISZERO PUSH2 0xF6 JUMPI PUSH0 DUP1 REVERT JUMPDEST POP PUSH2 0xD6 PUSH2 0x105 CALLDATASIZE PUSH1 0x4 PUSH2 0x737 JUMP JUMPDEST PUSH1 0x3 PUSH1 0x20 MSTORE PUSH0 SWAP1 DUP2 MSTORE PUSH1 0x40 SWAP1 KECCAK256 SLOAD PUSH1 0xFF AND DUP2 JUMP JUMPDEST CALLVALUE DUP1 ISZERO PUSH2 0x124 JUMPI PUSH0 DUP1 REVERT JUMPDEST POP PUSH2 0x138 PUSH2 0x133 CALLDATASIZE PUSH1 0x4 PUSH2 0x759 JUMP JUMPDEST PUSH2 0x27F JUMP JUMPDEST STOP JUMPDEST CALLVALUE DUP1 ISZERO PUSH2 0x145 JUMPI PUSH0 DUP1 REVERT JUMPDEST POP PUSH2 0x165 PUSH2 0x154 CALLDATASIZE PUSH1 0x4 PUSH2 0x737 JUMP JUMPDEST PUSH1 0x2 PUSH1 0x20 MSTORE PUSH0 SWAP1 DUP2 MSTORE PUSH1 0x40 SWAP1 KECCAK256 SLOAD DUP2 JUMP JUMPDEST PUSH1 0x40 MLOAD SWAP1 DUP2 MSTORE PUSH1 0x20 ADD PUSH2 0xE2 JUMP JUMPDEST CALLVALUE DUP1 ISZERO PUSH2 0x17E JUMPI PUSH0 DUP1 REVERT JUMPDEST POP PUSH2 0x138 PUSH2 0x18D CALLDATASIZE PUSH1 0x4 PUSH2 0x737 JUMP JUMPDEST PUSH2 0x30E JUMP JUMPDEST CALLVALUE DUP1 ISZERO PUSH2 0x19D JUMPI PUSH0 DUP1 REVERT JUMPDEST POP PUSH2 0x165 PUSH1 0x3 DUP2 JUMP JUMPDEST CALLVALUE DUP1 ISZERO PUSH2 0x1B1 JUMPI PUSH0 DUP1 REVERT JUMPDEST POP PUSH2 0xD6 PUSH2 0x1C0 CALLDATASIZE PUSH1 0x4 PUSH2 0x783 JUMP JUMPDEST PUSH1 0x1 PUSH1 0x20 SWAP1 DUP2 MSTORE PUSH0 SWAP3 DUP4 MSTORE PUSH1 0x40 DUP1 DUP5 KECCAK256 SWAP1 SWAP2 MSTORE SWAP1 DUP3 MSTORE SWAP1 KECCAK256 SLOAD PUSH1 0xFF AND DUP2 JUMP JUMPDEST CALLVALUE DUP1 ISZERO PUSH2 0x1EA JUMPI PUSH0 DUP1 REVERT JUMPDEST POP PUSH2 0x138 PUSH2 0x1F9 CALLDATASIZE PUSH1 0x4 PUSH2 0x737 JUMP JUMPDEST PUSH2 0x387 JUMP JUMPDEST CALLVALUE DUP1 ISZERO PUSH2 0x209 JUMPI PUSH0 DUP1 REVERT JUMPDEST POP PUSH0 SLOAD PUSH2 0x21C SWAP1 PUSH1 0x1 PUSH1 0x1 PUSH1 0xA0 SHL SUB AND DUP2 JUMP JUMPDEST PUSH1 0x40 MLOAD PUSH1 0x1 PUSH1 0x1 PUSH1 0xA0 SHL SUB SWAP1 SWAP2 AND DUP2 MSTORE PUSH1 0x20 ADD PUSH2 0xE2 JUMP JUMPDEST CALLVALUE DUP1 ISZERO PUSH2 0x23F JUMPI PUSH0 DUP1 REVERT JUMPDEST POP PUSH2 0x138 PUSH2 0x24E CALLDATASIZE PUSH1 0x4 PUSH2 0x737 JUMP JUMPDEST PUSH2 0x3F7 JUMP JUMPDEST CALLVALUE DUP1 ISZERO PUSH2 0x25E JUMPI PUSH0 DUP1 REVERT JUMPDEST POP PUSH2 0x272 PUSH2 0x26D CALLDATASIZE PUSH1 0x4 PUSH2 0x7CE JUMP JUMPDEST PUSH2 0x4CC JUMP JUMPDEST PUSH1 0x40 MLOAD PUSH2 0xE2 SWAP2 SWAP1 PUSH2 0x8B6 JUMP JUMPDEST PUSH0 SLOAD PUSH1 0x1 PUSH1 0x1 PUSH1 0xA0 SHL SUB AND CALLER EQ PUSH2 0x2DD JUMPI PUSH1 0x40 MLOAD PUSH3 0x461BCD PUSH1 0xE5 SHL DUP2 MSTORE PUSH1 0x20 PUSH1 0x4 DUP3 ADD DUP2 SWAP1 MSTORE PUSH1 0x24 DUP3 ADD MSTORE PUSH32 0x596F7520617265206E6F7420746865206F776E65722C2061626F7274696E6721 PUSH1 0x44 DUP3 ADD MSTORE PUSH1 0x64 ADD JUMPDEST PUSH1 0x40 MLOAD DUP1 SWAP2 SUB SWAP1 REVERT JUMPDEST PUSH1 0x1 PUSH1 0x1 PUSH1 0xA0 SHL SUB SWAP1 SWAP2 AND PUSH0 SWAP1 DUP2 MSTORE PUSH1 0x2 PUSH1 0x20 SWAP1 DUP2 MSTORE PUSH1 0x40 DUP1 DUP4 KECCAK256 SWAP4 SWAP1 SWAP4 SSTORE PUSH1 0x3 SWAP1 MSTORE KECCAK256 DUP1 SLOAD PUSH1 0xFF NOT AND PUSH1 0x1 OR SWAP1 SSTORE JUMP JUMPDEST PUSH0 SLOAD PUSH1 0x1 PUSH1 0x1 PUSH1 0xA0 SHL SUB AND CALLER EQ PUSH2 0x367 JUMPI PUSH1 0x40 MLOAD PUSH3 0x461BCD PUSH1 0xE5 SHL DUP2 MSTORE PUSH1 0x20 PUSH1 0x4 DUP3 ADD DUP2 SWAP1 MSTORE PUSH1 0x24 DUP3 ADD MSTORE PUSH32 0x596F7520617265206E6F7420746865206F776E65722C2061626F7274696E6721 PUSH1 0x44 DUP3 ADD MSTORE PUSH1 0x64 ADD PUSH2 0x2D4 JUMP JUMPDEST PUSH1 0x1 PUSH1 0x1 PUSH1 0xA0 SHL SUB AND PUSH0 SWAP1 DUP2 MSTORE PUSH1 0x3 PUSH1 0x20 MSTORE PUSH1 0x40 SWAP1 KECCAK256 DUP1 SLOAD PUSH1 0xFF NOT AND SWAP1 SSTORE JUMP JUMPDEST PUSH0 SLOAD PUSH1 0x1 PUSH1 0x1 PUSH1 0xA0 SHL SUB AND CALLER EQ PUSH2 0x3D7 JUMPI PUSH1 0x40 MLOAD PUSH3 0x461BCD PUSH1 0xE5 SHL DUP2 MSTORE PUSH1 0x20 PUSH1 0x4 DUP3 ADD MSTORE PUSH1 0x14 PUSH1 0x24 DUP3 ADD MSTORE PUSH20 0x596F7520617265206E6F7420616C6C6F77656421 PUSH1 0x60 SHL PUSH1 0x44 DUP3 ADD MSTORE PUSH1 0x64 ADD PUSH2 0x2D4 JUMP JUMPDEST PUSH1 0x1 PUSH1 0x1 PUSH1 0xA0 SHL SUB AND PUSH0 SWAP1 DUP2 MSTORE PUSH1 0x4 PUSH1 0x20 MSTORE PUSH1 0x40 SWAP1 KECCAK256 DUP1 SLOAD PUSH1 0xFF NOT AND SWAP1 SSTORE JUMP JUMPDEST CALLER PUSH0 SWAP1 DUP2 MSTORE PUSH1 0x4 PUSH1 0x20 MSTORE PUSH1 0x40 SWAP1 KECCAK256 SLOAD PUSH1 0xFF AND PUSH2 0x455 JUMPI PUSH1 0x40 MLOAD PUSH3 0x461BCD PUSH1 0xE5 SHL DUP2 MSTORE PUSH1 0x20 PUSH1 0x4 DUP3 ADD MSTORE PUSH1 0x1E PUSH1 0x24 DUP3 ADD MSTORE PUSH32 0x596F7520617265206E6F20677561726469616E2C2061626F7274696E67210000 PUSH1 0x44 DUP3 ADD MSTORE PUSH1 0x64 ADD PUSH2 0x2D4 JUMP JUMPDEST PUSH1 0x1 PUSH1 0x1 PUSH1 0xA0 SHL SUB DUP2 AND PUSH0 SWAP1 DUP2 MSTORE PUSH1 0x1 PUSH1 0x20 SWAP1 DUP2 MSTORE PUSH1 0x40 DUP1 DUP4 KECCAK256 CALLER DUP5 MSTORE SWAP1 SWAP2 MSTORE SWAP1 KECCAK256 DUP1 SLOAD PUSH1 0xFF NOT AND SWAP1 SSTORE PUSH1 0x40 MLOAD PUSH3 0x461BCD PUSH1 0xE5 SHL DUP2 MSTORE PUSH1 0x4 ADD PUSH2 0x2D4 SWAP1 PUSH1 0x20 DUP1 DUP3 MSTORE PUSH1 0x1C SWAP1 DUP3 ADD MSTORE PUSH32 0x596F7520616C72656164792068617665206265656E20766F7465642100000000 PUSH1 0x40 DUP3 ADD MSTORE PUSH1 0x60 ADD SWAP1 JUMP JUMPDEST POP JUMP JUMPDEST PUSH1 0x60 SELFBALANCE DUP4 GT ISZERO PUSH2 0x538 JUMPI PUSH1 0x40 MLOAD PUSH3 0x461BCD PUSH1 0xE5 SHL DUP2 MSTORE PUSH1 0x20 PUSH1 0x4 DUP3 ADD MSTORE PUSH1 0x31 PUSH1 0x24 DUP3 ADD MSTORE PUSH32 0x43616E27742073656E64206D6F7265207468616E2074686520636F6E74726163 PUSH1 0x44 DUP3 ADD MSTORE PUSH17 0x3A1037BBB739961030B137B93A34B73397 PUSH1 0x79 SHL PUSH1 0x64 DUP3 ADD MSTORE PUSH1 0x84 ADD PUSH2 0x2D4 JUMP JUMPDEST PUSH0 SLOAD PUSH1 0x1 PUSH1 0x1 PUSH1 0xA0 SHL SUB AND CALLER EQ PUSH2 0x66E JUMPI CALLER PUSH0 SWAP1 DUP2 MSTORE PUSH1 0x3 PUSH1 0x20 MSTORE PUSH1 0x40 SWAP1 KECCAK256 SLOAD PUSH1 0xFF AND PUSH2 0x5C6 JUMPI PUSH1 0x40 MLOAD PUSH3 0x461BCD PUSH1 0xE5 SHL DUP2 MSTORE PUSH1 0x20 PUSH1 0x4 DUP3 ADD MSTORE PUSH1 0x36 PUSH1 0x24 DUP3 ADD MSTORE PUSH32 0x596F7520617265206E6F7420616C6C6F77656420746F2073656E6420616E7920 PUSH1 0x44 DUP3 ADD MSTORE PUSH22 0x7472616E73616374696F6E732C2061626F7274696E67 PUSH1 0x50 SHL PUSH1 0x64 DUP3 ADD MSTORE PUSH1 0x84 ADD PUSH2 0x2D4 JUMP JUMPDEST CALLER PUSH0 SWAP1 DUP2 MSTORE PUSH1 0x2 PUSH1 0x20 MSTORE PUSH1 0x40 SWAP1 KECCAK256 SLOAD DUP4 GT ISZERO PUSH2 0x64A JUMPI PUSH1 0x40 MLOAD PUSH3 0x461BCD PUSH1 0xE5 SHL DUP2 MSTORE PUSH1 0x20 PUSH1 0x4 DUP3 ADD MSTORE PUSH1 0x3D PUSH1 0x24 DUP3 ADD MSTORE PUSH32 0x596F752061726520747279696E6720746F2073656E64206D6F7265207468616E PUSH1 0x44 DUP3 ADD MSTORE PUSH32 0x20796F752061726520616C6C6F77656420746F2C2061626F7274696E67000000 PUSH1 0x64 DUP3 ADD MSTORE PUSH1 0x84 ADD PUSH2 0x2D4 JUMP JUMPDEST CALLER PUSH0 SWAP1 DUP2 MSTORE PUSH1 0x2 PUSH1 0x20 MSTORE PUSH1 0x40 DUP2 KECCAK256 DUP1 SLOAD DUP6 SWAP3 SWAP1 PUSH2 0x668 SWAP1 DUP5 SWAP1 PUSH2 0x8FC JUMP JUMPDEST SWAP1 SWAP2 SSTORE POP POP JUMPDEST PUSH0 DUP1 DUP6 PUSH1 0x1 PUSH1 0x1 PUSH1 0xA0 SHL SUB AND DUP6 DUP6 PUSH1 0x40 MLOAD PUSH2 0x689 SWAP2 SWAP1 PUSH2 0x915 JUMP JUMPDEST PUSH0 PUSH1 0x40 MLOAD DUP1 DUP4 SUB DUP2 DUP6 DUP8 GAS CALL SWAP3 POP POP POP RETURNDATASIZE DUP1 PUSH0 DUP2 EQ PUSH2 0x6C3 JUMPI PUSH1 0x40 MLOAD SWAP2 POP PUSH1 0x1F NOT PUSH1 0x3F RETURNDATASIZE ADD AND DUP3 ADD PUSH1 0x40 MSTORE RETURNDATASIZE DUP3 MSTORE RETURNDATASIZE PUSH0 PUSH1 0x20 DUP5 ADD RETURNDATACOPY PUSH2 0x6C8 JUMP JUMPDEST PUSH1 0x60 SWAP2 POP JUMPDEST POP SWAP2 POP SWAP2 POP DUP2 PUSH2 0x71A JUMPI PUSH1 0x40 MLOAD PUSH3 0x461BCD PUSH1 0xE5 SHL DUP2 MSTORE PUSH1 0x20 PUSH1 0x4 DUP3 ADD MSTORE PUSH1 0x1C PUSH1 0x24 DUP3 ADD MSTORE PUSH32 0x5472616E73616374696F6E206661696C65642C2061626F7274696E6700000000 PUSH1 0x44 DUP3 ADD MSTORE PUSH1 0x64 ADD PUSH2 0x2D4 JUMP JUMPDEST SWAP6 SWAP5 POP POP POP POP POP JUMP JUMPDEST PUSH1 0x1 PUSH1 0x1 PUSH1 0xA0 SHL SUB DUP2 AND DUP2 EQ PUSH2 0x4C9 JUMPI PUSH0 DUP1 REVERT JUMPDEST PUSH0 PUSH1 0x20 DUP3 DUP5 SUB SLT ISZERO PUSH2 0x747 JUMPI PUSH0 DUP1 REVERT JUMPDEST DUP2 CALLDATALOAD PUSH2 0x752 DUP2 PUSH2 0x723 JUMP JUMPDEST SWAP4 SWAP3 POP POP POP JUMP JUMPDEST PUSH0 DUP1 PUSH1 0x40 DUP4 DUP6 SUB SLT ISZERO PUSH2 0x76A JUMPI PUSH0 DUP1 REVERT JUMPDEST DUP3 CALLDATALOAD PUSH2 0x775 DUP2 PUSH2 0x723 JUMP JUMPDEST SWAP5 PUSH1 0x20 SWAP4 SWAP1 SWAP4 ADD CALLDATALOAD SWAP4 POP POP POP JUMP JUMPDEST PUSH0 DUP1 PUSH1 0x40 DUP4 DUP6 SUB SLT ISZERO PUSH2 0x794 JUMPI PUSH0 DUP1 REVERT JUMPDEST DUP3 CALLDATALOAD PUSH2 0x79F DUP2 PUSH2 0x723 JUMP JUMPDEST SWAP2 POP PUSH1 0x20 DUP4 ADD CALLDATALOAD PUSH2 0x7AF DUP2 PUSH2 0x723 JUMP JUMPDEST DUP1 SWAP2 POP POP SWAP3 POP SWAP3 SWAP1 POP JUMP JUMPDEST PUSH4 0x4E487B71 PUSH1 0xE0 SHL PUSH0 MSTORE PUSH1 0x41 PUSH1 0x4 MSTORE PUSH1 0x24 PUSH0 REVERT JUMPDEST PUSH0 DUP1 PUSH0 PUSH1 0x60 DUP5 DUP7 SUB SLT ISZERO PUSH2 0x7E0 JUMPI PUSH0 DUP1 REVERT JUMPDEST DUP4 CALLDATALOAD PUSH2 0x7EB DUP2 PUSH2 0x723 JUMP JUMPDEST SWAP3 POP PUSH1 0x20 DUP5 ADD CALLDATALOAD SWAP2 POP PUSH1 0x40 DUP5 ADD CALLDATALOAD PUSH8 0xFFFFFFFFFFFFFFFF DUP1 DUP3 GT ISZERO PUSH2 0x80E JUMPI PUSH0 DUP1 REVERT JUMPDEST DUP2 DUP7 ADD SWAP2 POP DUP7 PUSH1 0x1F DUP4 ADD SLT PUSH2 0x821 JUMPI PUSH0 DUP1 REVERT JUMPDEST DUP2 CALLDATALOAD DUP2 DUP2 GT ISZERO PUSH2 0x833 JUMPI PUSH2 0x833 PUSH2 0x7BA JUMP JUMPDEST PUSH1 0x40 MLOAD PUSH1 0x1F DUP3 ADD PUSH1 0x1F NOT SWAP1 DUP2 AND PUSH1 0x3F ADD AND DUP2 ADD SWAP1 DUP4 DUP3 GT DUP2 DUP4 LT OR ISZERO PUSH2 0x85B JUMPI PUSH2 0x85B PUSH2 0x7BA JUMP JUMPDEST DUP2 PUSH1 0x40 MSTORE DUP3 DUP2 MSTORE DUP10 PUSH1 0x20 DUP5 DUP8 ADD ADD GT ISZERO PUSH2 0x873 JUMPI PUSH0 DUP1 REVERT JUMPDEST DUP3 PUSH1 0x20 DUP7 ADD PUSH1 0x20 DUP4 ADD CALLDATACOPY PUSH0 PUSH1 0x20 DUP5 DUP4 ADD ADD MSTORE DUP1 SWAP6 POP POP POP POP POP POP SWAP3 POP SWAP3 POP SWAP3 JUMP JUMPDEST PUSH0 JUMPDEST DUP4 DUP2 LT ISZERO PUSH2 0x8AE JUMPI DUP2 DUP2 ADD MLOAD DUP4 DUP3 ADD MSTORE PUSH1 0x20 ADD PUSH2 0x896 JUMP JUMPDEST POP POP PUSH0 SWAP2 ADD MSTORE JUMP JUMPDEST PUSH1 0x20 DUP2 MSTORE PUSH0 DUP3 MLOAD DUP1 PUSH1 0x20 DUP5 ADD MSTORE PUSH2 0x8D4 DUP2 PUSH1 0x40 DUP6 ADD PUSH1 0x20 DUP8 ADD PUSH2 0x894 JUMP JUMPDEST PUSH1 0x1F ADD PUSH1 0x1F NOT AND SWAP2 SWAP1 SWAP2 ADD PUSH1 0x40 ADD SWAP3 SWAP2 POP POP JUMP JUMPDEST PUSH4 0x4E487B71 PUSH1 0xE0 SHL PUSH0 MSTORE PUSH1 0x11 PUSH1 0x4 MSTORE PUSH1 0x24 PUSH0 REVERT JUMPDEST DUP2 DUP2 SUB DUP2 DUP2 GT ISZERO PUSH2 0x90F JUMPI PUSH2 0x90F PUSH2 0x8E8 JUMP JUMPDEST SWAP3 SWAP2 POP POP JUMP JUMPDEST PUSH0 DUP3 MLOAD PUSH2 0x926 DUP2 DUP5 PUSH1 0x20 DUP8 ADD PUSH2 0x894 JUMP JUMPDEST SWAP2 SWAP1 SWAP2 ADD SWAP3 SWAP2 POP POP JUMP INVALID LOG2 PUSH5 0x6970667358 0x22 SLT KECCAK256 AND SHL BALANCE DUP5 DELEGATECALL 0xB6 0xE3 0xA6 DUP14 BASEFEE SWAP16 0xBC 0xB6 DELEGATECALL PUSH3 0x8C7A5A SWAP1 STOP 0xFB 0x5C GAS 0xC5 RETURNDATASIZE SWAP13 DUP3 EXTCODESIZE SWAP8 0xDB 0xAA 0xCA PUSH5 0x736F6C6343 STOP ADDMOD OR STOP CALLER "
				},
				"gasEstimates": {
					"creation": {
						"codeDepositCost": "481200",
						"executionCost": "24750",
						"totalCost": "505950"
					},
					"external": {
						"allowance(address)": "2577",
						"confirmationsFromGuardiansForReset()": "194",
						"denySending(address)": "26823",
						"guardianVoted(address,address)": "infinite",
						"guardians(address)": "2512",
						"isAllowedToSend(address)": "2534",
						"owner()": "2401",
						"proposeNewOwner(address)": "27064",
						"setAllowance(address,uint256)": "48981",
						"setGuardian(address)": "26778",
						"transfer(address,uint256,bytes)": "infinite"
					}
				},
				"methodIdentifiers": {
					"allowance(address)": "3e5beab9",
					"confirmationsFromGuardiansForReset()": "83012be1",
					"denySending(address)": "7673de53",
					"guardianVoted(address,address)": "85f6db2e",
					"guardians(address)": "0633b14a",
					"isAllowedToSend(address)": "0bc605ad",
					"owner()": "8da5cb5b",
					"proposeNewOwner(address)": "b1f8100d",
					"setAllowance(address,uint256)": "310ec4a7",
					"setGuardian(address)": "8a0dac4a",
					"transfer(address,uint256,bytes)": "be45fd62"
				}
			},
			"storageLayout": {
				"storage": [
					{
						"astId": 60,
						"contract": "contracts/Project3SmartWallet.sol:SampleWallet",
						"label": "owner",
						"offset": 0,
						"slot": "0",
						"type": "t_address_payable"
					},
					{
						"astId": 66,
						"contract": "contracts/Project3SmartWallet.sol:SampleWallet",
						"label": "guardianVoted",
						"offset": 0,
						"slot": "1",
						"type": "t_mapping(t_address,t_mapping(t_address,t_bool))"
					},
					{
						"astId": 70,
						"contract": "contracts/Project3SmartWallet.sol:SampleWallet",
						"label": "allowance",
						"offset": 0,
						"slot": "2",
						"type": "t_mapping(t_address,t_uint256)"
					},
					{
						"astId": 74,
						"contract": "contracts/Project3SmartWallet.sol:SampleWallet",
						"label": "isAllowedToSend",
						"offset": 0,
						"slot": "3",
						"type": "t_mapping(t_address,t_bool)"
					},
					{
						"astId": 78,
						"contract": "contracts/Project3SmartWallet.sol:SampleWallet",
						"label": "guardians",
						"offset": 0,
						"slot": "4",
						"type": "t_mapping(t_address,t_bool)"
					},
					{
						"astId": 80,
						"contract": "contracts/Project3SmartWallet.sol:SampleWallet",
						"label": "nextOwner",
						"offset": 0,
						"slot": "5",
						"type": "t_address_payable"
					},
					{
						"astId": 82,
						"contract": "contracts/Project3SmartWallet.sol:SampleWallet",
						"label": "guardiansResetCount",
						"offset": 0,
						"slot": "6",
						"type": "t_uint256"
					}
				],
				"types": {
					"t_address": {
						"encoding": "inplace",
						"label": "address",
						"numberOfBytes": "20"
					},
					"t_address_payable": {
						"encoding": "inplace",
						"label": "address payable",
						"numberOfBytes": "20"
					},
					"t_bool": {
						"encoding": "inplace",
						"label": "bool",
						"numberOfBytes": "1"
					},
					"t_mapping(t_address,t_bool)": {
						"encoding": "mapping",
						"key": "t_address",
						"label": "mapping(address => bool)",
						"numberOfBytes": "32",
						"value": "t_bool"
					},
					"t_mapping(t_address,t_mapping(t_address,t_bool))": {
						"encoding": "mapping",
						"key": "t_address",
						"label": "mapping(address => mapping(address => bool))",
						"numberOfBytes": "32",
						"value": "t_mapping(t_address,t_bool)"
					},
					"t_mapping(t_address,t_uint256)": {
						"encoding": "mapping",
						"key": "t_address",
						"label": "mapping(address => uint256)",
						"numberOfBytes": "32",
						"value": "t_uint256"
					},
					"t_uint256": {
						"encoding": "inplace",
						"label": "uint256",
						"numberOfBytes": "32"
					}
				}
			},
			"userdoc": {
				"kind": "user",
				"methods": {},
				"version": 1
			}
		}
	}
}