{
	"contracts/Project3SmartWallet.sol": {
		"Consumer": {
			"abi": [
				{
					"inputs": [],
					"stateMutability": "nonpayable",
					"type": "constructor"
				},
				{
					"inputs": [],
					"name": "getMoneyToContract",
					"outputs": [],
					"stateMutability": "payable",
					"type": "function"
				},
				{
					"inputs": [],
					"name": "owner",
					"outputs": [
						{
							"internalType": "address payable",
							"name": "",
							"type": "address"
						}
					],
					"stateMutability": "view",
					"type": "function"
				},
				{
					"inputs": [
						{
							"internalType": "uint256",
							"name": "amount",
							"type": "uint256"
						}
					],
					"name": "withdrawMoney",
					"outputs": [],
					"stateMutability": "payable",
					"type": "function"
				}
			],
			"devdoc": {
				"kind": "dev",
				"methods": {},
				"version": 1
			},
			"evm": {
				"assembly": "    /* \"contracts/Project3SmartWallet.sol\":59:494  contract Consumer {... */\n  mstore(0x40, 0x80)\n    /* \"contracts/Project3SmartWallet.sol\":123:184  constructor() {... */\n  callvalue\n  dup1\n  iszero\n  tag_1\n  jumpi\n  0x00\n  dup1\n  revert\ntag_1:\n  pop\n    /* \"contracts/Project3SmartWallet.sol\":148:153  owner */\n  0x00\n    /* \"contracts/Project3SmartWallet.sol\":148:176  owner = payable (msg.sender) */\n  dup1\n  sload\n  not(sub(shl(0xa0, 0x01), 0x01))\n  and\n    /* \"contracts/Project3SmartWallet.sol\":165:175  msg.sender */\n  caller\n    /* \"contracts/Project3SmartWallet.sol\":148:176  owner = payable (msg.sender) */\n  or\n  swap1\n  sstore\n    /* \"contracts/Project3SmartWallet.sol\":59:494  contract Consumer {... */\n  dataSize(sub_0)\n  dup1\n  dataOffset(sub_0)\n  0x00\n  codecopy\n  0x00\n  return\nstop\n\nsub_0: assembly {\n        /* \"contracts/Project3SmartWallet.sol\":59:494  contract Consumer {... */\n      mstore(0x40, 0x80)\n      jumpi(tag_1, lt(calldatasize, 0x04))\n      shr(0xe0, calldataload(0x00))\n      dup1\n      0x03232b73\n      eq\n      tag_2\n      jumpi\n      dup1\n      0x54876921\n      eq\n      tag_3\n      jumpi\n      dup1\n      0x8da5cb5b\n      eq\n      tag_4\n      jumpi\n    tag_1:\n      0x00\n      dup1\n      revert\n        /* \"contracts/Project3SmartWallet.sol\":192:298  function getMoneyToContract() public payable {... */\n    tag_2:\n      tag_5\n      tag_6\n      jump\t// in\n    tag_5:\n      stop\n        /* \"contracts/Project3SmartWallet.sol\":306:489  function withdrawMoney(uint amount) public payable {... */\n    tag_3:\n      tag_5\n      tag_8\n      calldatasize\n      0x04\n      tag_9\n      jump\t// in\n    tag_8:\n      tag_10\n      jump\t// in\n        /* \"contracts/Project3SmartWallet.sol\":86:114  address payable public owner */\n    tag_4:\n      callvalue\n      dup1\n      iszero\n      tag_11\n      jumpi\n      0x00\n      dup1\n      revert\n    tag_11:\n      pop\n      sload(0x00)\n      tag_12\n      swap1\n      sub(shl(0xa0, 0x01), 0x01)\n      and\n      dup2\n      jump\n    tag_12:\n      mload(0x40)\n      sub(shl(0xa0, 0x01), 0x01)\n        /* \"#utility.yul\":379:411   */\n      swap1\n      swap2\n      and\n        /* \"#utility.yul\":361:412   */\n      dup2\n      mstore\n        /* \"#utility.yul\":349:351   */\n      0x20\n        /* \"#utility.yul\":334:352   */\n      add\n        /* \"contracts/Project3SmartWallet.sol\":86:114  address payable public owner */\n      mload(0x40)\n      dup1\n      swap2\n      sub\n      swap1\n      return\n        /* \"contracts/Project3SmartWallet.sol\":192:298  function getMoneyToContract() public payable {... */\n    tag_6:\n        /* \"contracts/Project3SmartWallet.sol\":248:290  payable(address(this)).transfer(msg.value) */\n      mload(0x40)\n        /* \"contracts/Project3SmartWallet.sol\":264:268  this */\n      address\n      swap1\n        /* \"contracts/Project3SmartWallet.sol\":280:289  msg.value */\n      callvalue\n        /* \"contracts/Project3SmartWallet.sol\":248:290  payable(address(this)).transfer(msg.value) */\n      dup1\n      iszero\n      0x08fc\n      mul\n      swap2\n      0x00\n      dup2\n      dup2\n      dup2\n        /* \"contracts/Project3SmartWallet.sol\":280:289  msg.value */\n      dup6\n        /* \"contracts/Project3SmartWallet.sol\":264:268  this */\n      dup9\n        /* \"contracts/Project3SmartWallet.sol\":248:290  payable(address(this)).transfer(msg.value) */\n      dup9\n      call\n      swap4\n      pop\n      pop\n      pop\n      pop\n      iszero\n      dup1\n      iszero\n      tag_18\n      jumpi\n      returndatasize\n      0x00\n      dup1\n      returndatacopy\n      revert(0x00, returndatasize)\n    tag_18:\n      pop\n        /* \"contracts/Project3SmartWallet.sol\":192:298  function getMoneyToContract() public payable {... */\n      jump\t// out\n        /* \"contracts/Project3SmartWallet.sol\":306:489  function withdrawMoney(uint amount) public payable {... */\n    tag_10:\n        /* \"contracts/Project3SmartWallet.sol\":386:407  address(this).balance */\n      selfbalance\n        /* \"contracts/Project3SmartWallet.sol\":376:382  amount */\n      dup2\n        /* \"contracts/Project3SmartWallet.sol\":376:407  amount <= address(this).balance */\n      gt\n      iszero\n        /* \"contracts/Project3SmartWallet.sol\":368:434  require(amount <= address(this).balance, \"Balance is not enough!\") */\n      tag_20\n      jumpi\n      mload(0x40)\n      shl(0xe5, 0x461bcd)\n      dup2\n      mstore\n        /* \"#utility.yul\":625:627   */\n      0x20\n        /* \"contracts/Project3SmartWallet.sol\":368:434  require(amount <= address(this).balance, \"Balance is not enough!\") */\n      0x04\n      dup3\n      add\n        /* \"#utility.yul\":607:628   */\n      mstore\n        /* \"#utility.yul\":664:666   */\n      0x16\n        /* \"#utility.yul\":644:662   */\n      0x24\n      dup3\n      add\n        /* \"#utility.yul\":637:667   */\n      mstore\n      shl(0x50, 0x42616c616e6365206973206e6f7420656e6f75676821)\n        /* \"#utility.yul\":683:701   */\n      0x44\n      dup3\n      add\n        /* \"#utility.yul\":676:728   */\n      mstore\n        /* \"#utility.yul\":745:763   */\n      0x64\n      add\n        /* \"contracts/Project3SmartWallet.sol\":368:434  require(amount <= address(this).balance, \"Balance is not enough!\") */\n      mload(0x40)\n      dup1\n      swap2\n      sub\n      swap1\n      revert\n    tag_20:\n        /* \"contracts/Project3SmartWallet.sol\":445:481  payable(msg.sender).transfer(amount) */\n      mload(0x40)\n        /* \"contracts/Project3SmartWallet.sol\":453:463  msg.sender */\n      caller\n      swap1\n        /* \"contracts/Project3SmartWallet.sol\":445:481  payable(msg.sender).transfer(amount) */\n      dup3\n      iszero\n      0x08fc\n      mul\n      swap1\n        /* \"contracts/Project3SmartWallet.sol\":474:480  amount */\n      dup4\n      swap1\n        /* \"contracts/Project3SmartWallet.sol\":445:481  payable(msg.sender).transfer(amount) */\n      0x00\n      dup2\n      dup2\n      dup2\n        /* \"contracts/Project3SmartWallet.sol\":474:480  amount */\n      dup6\n        /* \"contracts/Project3SmartWallet.sol\":453:463  msg.sender */\n      dup9\n        /* \"contracts/Project3SmartWallet.sol\":445:481  payable(msg.sender).transfer(amount) */\n      dup9\n      call\n      swap4\n      pop\n      pop\n      pop\n      pop\n      iszero\n      dup1\n      iszero\n      tag_24\n      jumpi\n      returndatasize\n      0x00\n      dup1\n      returndatacopy\n      revert(0x00, returndatasize)\n    tag_24:\n      pop\n        /* \"contracts/Project3SmartWallet.sol\":306:489  function withdrawMoney(uint amount) public payable {... */\n      pop\n      jump\t// out\n        /* \"#utility.yul\":14:194   */\n    tag_9:\n        /* \"#utility.yul\":73:79   */\n      0x00\n        /* \"#utility.yul\":126:128   */\n      0x20\n        /* \"#utility.yul\":114:123   */\n      dup3\n        /* \"#utility.yul\":105:112   */\n      dup5\n        /* \"#utility.yul\":101:124   */\n      sub\n        /* \"#utility.yul\":97:129   */\n      slt\n        /* \"#utility.yul\":94:146   */\n      iszero\n      tag_27\n      jumpi\n        /* \"#utility.yul\":142:143   */\n      0x00\n        /* \"#utility.yul\":139:140   */\n      dup1\n        /* \"#utility.yul\":132:144   */\n      revert\n        /* \"#utility.yul\":94:146   */\n    tag_27:\n      pop\n        /* \"#utility.yul\":165:188   */\n      calldataload\n      swap2\n        /* \"#utility.yul\":14:194   */\n      swap1\n      pop\n      jump\t// out\n\n    auxdata: 0xa26469706673582212204a5bc656cd46ee5d7def581d145bbaabb7509f76ece7be1a258a55f0b7a5fe3364736f6c63430008170033\n}\n",
				"bytecode": {
					"linkReferences": {},
					"object": "608060405234801561000f575f80fd5b505f80546001600160a01b031916331790556101828061002e5f395ff3fe608060405260043610610033575f3560e01c806303232b731461003757806354876921146100415780638da5cb5b14610054575b5f80fd5b61003f61008e565b005b61003f61004f366004610135565b6100ba565b34801561005f575f80fd5b505f54610072906001600160a01b031681565b6040516001600160a01b03909116815260200160405180910390f35b60405130903480156108fc02915f818181858888f193505050501580156100b7573d5f803e3d5ffd5b50565b478111156101075760405162461bcd60e51b815260206004820152601660248201527542616c616e6365206973206e6f7420656e6f7567682160501b604482015260640160405180910390fd5b604051339082156108fc029083905f818181858888f19350505050158015610131573d5f803e3d5ffd5b5050565b5f60208284031215610145575f80fd5b503591905056fea26469706673582212204a5bc656cd46ee5d7def581d145bbaabb7509f76ece7be1a258a55f0b7a5fe3364736f6c63430008170033",
					"opcodes": "PUSH1 0x80 PUSH1 0x40 MSTORE CALLVALUE DUP1 ISZERO PUSH2 0xF JUMPI PUSH0 DUP1 REVERT JUMPDEST POP PUSH0 DUP1 SLOAD PUSH1 0x1 PUSH1 0x1 PUSH1 0xA0 SHL SUB NOT AND CALLER OR SWAP1 SSTORE PUSH2 0x182 DUP1 PUSH2 0x2E PUSH0 CODECOPY PUSH0 RETURN INVALID PUSH1 0x80 PUSH1 0x40 MSTORE PUSH1 0x4 CALLDATASIZE LT PUSH2 0x33 JUMPI PUSH0 CALLDATALOAD PUSH1 0xE0 SHR DUP1 PUSH4 0x3232B73 EQ PUSH2 0x37 JUMPI DUP1 PUSH4 0x54876921 EQ PUSH2 0x41 JUMPI DUP1 PUSH4 0x8DA5CB5B EQ PUSH2 0x54 JUMPI JUMPDEST PUSH0 DUP1 REVERT JUMPDEST PUSH2 0x3F PUSH2 0x8E JUMP JUMPDEST STOP JUMPDEST PUSH2 0x3F PUSH2 0x4F CALLDATASIZE PUSH1 0x4 PUSH2 0x135 JUMP JUMPDEST PUSH2 0xBA JUMP JUMPDEST CALLVALUE DUP1 ISZERO PUSH2 0x5F JUMPI PUSH0 DUP1 REVERT JUMPDEST POP PUSH0 SLOAD PUSH2 0x72 SWAP1 PUSH1 0x1 PUSH1 0x1 PUSH1 0xA0 SHL SUB AND DUP2 JUMP JUMPDEST PUSH1 0x40 MLOAD PUSH1 0x1 PUSH1 0x1 PUSH1 0xA0 SHL SUB SWAP1 SWAP2 AND DUP2 MSTORE PUSH1 0x20 ADD PUSH1 0x40 MLOAD DUP1 SWAP2 SUB SWAP1 RETURN JUMPDEST PUSH1 0x40 MLOAD ADDRESS SWAP1 CALLVALUE DUP1 ISZERO PUSH2 0x8FC MUL SWAP2 PUSH0 DUP2 DUP2 DUP2 DUP6 DUP9 DUP9 CALL SWAP4 POP POP POP POP ISZERO DUP1 ISZERO PUSH2 0xB7 JUMPI RETURNDATASIZE PUSH0 DUP1 RETURNDATACOPY RETURNDATASIZE PUSH0 REVERT JUMPDEST POP JUMP JUMPDEST SELFBALANCE DUP2 GT ISZERO PUSH2 0x107 JUMPI PUSH1 0x40 MLOAD PUSH3 0x461BCD PUSH1 0xE5 SHL DUP2 MSTORE PUSH1 0x20 PUSH1 0x4 DUP3 ADD MSTORE PUSH1 0x16 PUSH1 0x24 DUP3 ADD MSTORE PUSH22 0x42616C616E6365206973206E6F7420656E6F75676821 PUSH1 0x50 SHL PUSH1 0x44 DUP3 ADD MSTORE PUSH1 0x64 ADD PUSH1 0x40 MLOAD DUP1 SWAP2 SUB SWAP1 REVERT JUMPDEST PUSH1 0x40 MLOAD CALLER SWAP1 DUP3 ISZERO PUSH2 0x8FC MUL SWAP1 DUP4 SWAP1 PUSH0 DUP2 DUP2 DUP2 DUP6 DUP9 DUP9 CALL SWAP4 POP POP POP POP ISZERO DUP1 ISZERO PUSH2 0x131 JUMPI RETURNDATASIZE PUSH0 DUP1 RETURNDATACOPY RETURNDATASIZE PUSH0 REVERT JUMPDEST POP POP JUMP JUMPDEST PUSH0 PUSH1 0x20 DUP3 DUP5 SUB SLT ISZERO PUSH2 0x145 JUMPI PUSH0 DUP1 REVERT JUMPDEST POP CALLDATALOAD SWAP2 SWAP1 POP JUMP INVALID LOG2 PUSH5 0x6970667358 0x22 SLT KECCAK256 0x4A JUMPDEST 0xC6 JUMP 0xCD CHAINID 0xEE 0x5D PUSH30 0xEF581D145BBAABB7509F76ECE7BE1A258A55F0B7A5FE3364736F6C634300 ADDMOD OR STOP CALLER "
				},
				"gasEstimates": {
					"creation": {
						"codeDepositCost": "77200",
						"executionCost": "24361",
						"totalCost": "101561"
					},
					"external": {
						"getMoneyToContract()": "infinite",
						"owner()": "2345",
						"withdrawMoney(uint256)": "infinite"
					}
				},
				"methodIdentifiers": {
					"getMoneyToContract()": "03232b73",
					"owner()": "8da5cb5b",
					"withdrawMoney(uint256)": "54876921"
				}
			},
			"storageLayout": {
				"storage": [
					{
						"astId": 3,
						"contract": "contracts/Project3SmartWallet.sol:Consumer",
						"label": "owner",
						"offset": 0,
						"slot": "0",
						"type": "t_address_payable"
					}
				],
				"types": {
					"t_address_payable": {
						"encoding": "inplace",
						"label": "address payable",
						"numberOfBytes": "20"
					}
				}
			},
			"userdoc": {
				"kind": "user",
				"methods": {},
				"version": 1
			}
		}
	}
}