{
	"data": {
		"bytecode": {
			"linkReferences": {},
			"object": "608060405234801561000f575f80fd5b506101098061001d5f395ff3fe6080604052600436106025575f3560e01c8063ac1dddca146029578063d0e30db0146043575b5f80fd5b3480156033575f80fd5b506043603f36600460a8565b6045565b005b5f816001600160a01b0316600a620186a0906040515f60405180830381858888f193505050503d805f81146093576040519150601f19603f3d011682016040523d82523d5f602084013e6098565b606091505b505090508060a4575f80fd5b5050565b5f6020828403121560b7575f80fd5b81356001600160a01b038116811460cc575f80fd5b939250505056fea26469706673582212201a36bfa91851b05d0f66c5814b6bbb8367f0279a199db3591aee03e930753af964736f6c63430008170033",
			"opcodes": "PUSH1 0x80 PUSH1 0x40 MSTORE CALLVALUE DUP1 ISZERO PUSH2 0xF JUMPI PUSH0 DUP1 REVERT JUMPDEST POP PUSH2 0x109 DUP1 PUSH2 0x1D PUSH0 CODECOPY PUSH0 RETURN INVALID PUSH1 0x80 PUSH1 0x40 MSTORE PUSH1 0x4 CALLDATASIZE LT PUSH1 0x25 JUMPI PUSH0 CALLDATALOAD PUSH1 0xE0 SHR DUP1 PUSH4 0xAC1DDDCA EQ PUSH1 0x29 JUMPI DUP1 PUSH4 0xD0E30DB0 EQ PUSH1 0x43 JUMPI JUMPDEST PUSH0 DUP1 REVERT JUMPDEST CALLVALUE DUP1 ISZERO PUSH1 0x33 JUMPI PUSH0 DUP1 REVERT JUMPDEST POP PUSH1 0x43 PUSH1 0x3F CALLDATASIZE PUSH1 0x4 PUSH1 0xA8 JUMP JUMPDEST PUSH1 0x45 JUMP JUMPDEST STOP JUMPDEST PUSH0 DUP2 PUSH1 0x1 PUSH1 0x1 PUSH1 0xA0 SHL SUB AND PUSH1 0xA PUSH3 0x186A0 SWAP1 PUSH1 0x40 MLOAD PUSH0 PUSH1 0x40 MLOAD DUP1 DUP4 SUB DUP2 DUP6 DUP9 DUP9 CALL SWAP4 POP POP POP POP RETURNDATASIZE DUP1 PUSH0 DUP2 EQ PUSH1 0x93 JUMPI PUSH1 0x40 MLOAD SWAP2 POP PUSH1 0x1F NOT PUSH1 0x3F RETURNDATASIZE ADD AND DUP3 ADD PUSH1 0x40 MSTORE RETURNDATASIZE DUP3 MSTORE RETURNDATASIZE PUSH0 PUSH1 0x20 DUP5 ADD RETURNDATACOPY PUSH1 0x98 JUMP JUMPDEST PUSH1 0x60 SWAP2 POP JUMPDEST POP POP SWAP1 POP DUP1 PUSH1 0xA4 JUMPI PUSH0 DUP1 REVERT JUMPDEST POP POP JUMP JUMPDEST PUSH0 PUSH1 0x20 DUP3 DUP5 SUB SLT ISZERO PUSH1 0xB7 JUMPI PUSH0 DUP1 REVERT JUMPDEST DUP2 CALLDATALOAD PUSH1 0x1 PUSH1 0x1 PUSH1 0xA0 SHL SUB DUP2 AND DUP2 EQ PUSH1 0xCC JUMPI PUSH0 DUP1 REVERT JUMPDEST SWAP4 SWAP3 POP POP POP JUMP INVALID LOG2 PUSH5 0x6970667358 0x22 SLT KECCAK256 BYTE CALLDATASIZE 0xBF 0xA9 XOR MLOAD 0xB0 0x5D 0xF PUSH7 0xC5814B6BBB8367 CREATE 0x27 SWAP11 NOT SWAP14 0xB3 MSIZE BYTE 0xEE SUB 0xE9 ADDRESS PUSH22 0x3AF964736F6C63430008170033000000000000000000 "
		},
		"gasEstimates": {
			"creation": {
				"codeDepositCost": "53000",
				"executionCost": "103",
				"totalCost": "53103"
			},
			"external": {
				"deposit()": "95",
				"depositOnContractOne(address)": "infinite"
			}
		},
		"methodIdentifiers": {
			"deposit()": "d0e30db0",
			"depositOnContractOne(address)": "ac1dddca"
		}
	},
	"abi": [
		{
			"inputs": [],
			"name": "deposit",
			"outputs": [],
			"stateMutability": "payable",
			"type": "function"
		},
		{
			"inputs": [
				{
					"internalType": "address",
					"name": "_contractOne",
					"type": "address"
				}
			],
			"name": "depositOnContractOne",
			"outputs": [],
			"stateMutability": "nonpayable",
			"type": "function"
		}
	]
}