{
	"data": {
		"bytecode": {
			"linkReferences": {},
			"object": "608060405260025f556003600155348015610018575f80fd5b5060fb806100255f395ff3fe6080604052348015600e575f80fd5b5060043610603a575f3560e01c80638a054ac214603e578063b53b8d7a146058578063c3da42b8146060575b5f80fd5b604660015481565b60405190815260200160405180910390f35b605e6067565b005b60465f5481565b6001545f546074919060a7565b60021460a5575f54600154604051632d1f14f360e01b81526004810192909252602482015260440160405180910390fd5b565b5f8260c057634e487b7160e01b5f52601260045260245ffd5b50049056fea2646970667358221220b6abc88cc76434b1377742d6154536f06a432d369d7ee4eb706cc367f352dc9564736f6c63430008170033",
			"opcodes": "PUSH1 0x80 PUSH1 0x40 MSTORE PUSH1 0x2 PUSH0 SSTORE PUSH1 0x3 PUSH1 0x1 SSTORE CALLVALUE DUP1 ISZERO PUSH2 0x18 JUMPI PUSH0 DUP1 REVERT JUMPDEST POP PUSH1 0xFB DUP1 PUSH2 0x25 PUSH0 CODECOPY PUSH0 RETURN INVALID PUSH1 0x80 PUSH1 0x40 MSTORE CALLVALUE DUP1 ISZERO PUSH1 0xE JUMPI PUSH0 DUP1 REVERT JUMPDEST POP PUSH1 0x4 CALLDATASIZE LT PUSH1 0x3A JUMPI PUSH0 CALLDATALOAD PUSH1 0xE0 SHR DUP1 PUSH4 0x8A054AC2 EQ PUSH1 0x3E JUMPI DUP1 PUSH4 0xB53B8D7A EQ PUSH1 0x58 JUMPI DUP1 PUSH4 0xC3DA42B8 EQ PUSH1 0x60 JUMPI JUMPDEST PUSH0 DUP1 REVERT JUMPDEST PUSH1 0x46 PUSH1 0x1 SLOAD DUP2 JUMP JUMPDEST PUSH1 0x40 MLOAD SWAP1 DUP2 MSTORE PUSH1 0x20 ADD PUSH1 0x40 MLOAD DUP1 SWAP2 SUB SWAP1 RETURN JUMPDEST PUSH1 0x5E PUSH1 0x67 JUMP JUMPDEST STOP JUMPDEST PUSH1 0x46 PUSH0 SLOAD DUP2 JUMP JUMPDEST PUSH1 0x1 SLOAD PUSH0 SLOAD PUSH1 0x74 SWAP2 SWAP1 PUSH1 0xA7 JUMP JUMPDEST PUSH1 0x2 EQ PUSH1 0xA5 JUMPI PUSH0 SLOAD PUSH1 0x1 SLOAD PUSH1 0x40 MLOAD PUSH4 0x2D1F14F3 PUSH1 0xE0 SHL DUP2 MSTORE PUSH1 0x4 DUP2 ADD SWAP3 SWAP1 SWAP3 MSTORE PUSH1 0x24 DUP3 ADD MSTORE PUSH1 0x44 ADD PUSH1 0x40 MLOAD DUP1 SWAP2 SUB SWAP1 REVERT JUMPDEST JUMP JUMPDEST PUSH0 DUP3 PUSH1 0xC0 JUMPI PUSH4 0x4E487B71 PUSH1 0xE0 SHL PUSH0 MSTORE PUSH1 0x12 PUSH1 0x4 MSTORE PUSH1 0x24 PUSH0 REVERT JUMPDEST POP DIV SWAP1 JUMP INVALID LOG2 PUSH5 0x6970667358 0x22 SLT KECCAK256 0xB6 0xAB 0xC8 DUP13 0xC7 PUSH5 0x34B1377742 0xD6 ISZERO GASLIMIT CALLDATASIZE CREATE PUSH11 0x432D369D7EE4EB706CC367 RETURN MSTORE 0xDC SWAP6 PUSH5 0x736F6C6343 STOP ADDMOD OR STOP CALLER "
		},
		"gasEstimates": {
			"creation": {
				"codeDepositCost": "50200",
				"executionCost": "44308",
				"totalCost": "94508"
			},
			"external": {
				"c()": "2303",
				"d()": "2260",
				"divide()": "8712"
			}
		},
		"methodIdentifiers": {
			"c()": "c3da42b8",
			"d()": "8a054ac2",
			"divide()": "b53b8d7a"
		}
	},
	"abi": [
		{
			"inputs": [
				{
					"internalType": "uint256",
					"name": "a",
					"type": "uint256"
				},
				{
					"internalType": "uint256",
					"name": "b",
					"type": "uint256"
				}
			],
			"name": "NewError",
			"type": "error"
		},
		{
			"inputs": [],
			"name": "c",
			"outputs": [
				{
					"internalType": "uint256",
					"name": "",
					"type": "uint256"
				}
			],
			"stateMutability": "view",
			"type": "function"
		},
		{
			"inputs": [],
			"name": "d",
			"outputs": [
				{
					"internalType": "uint256",
					"name": "",
					"type": "uint256"
				}
			],
			"stateMutability": "view",
			"type": "function"
		},
		{
			"inputs": [],
			"name": "divide",
			"outputs": [],
			"stateMutability": "view",
			"type": "function"
		}
	]
}