{
	"data": {
		"bytecode": {
			"linkReferences": {},
			"object": "608060405234801561000f575f80fd5b506102058061001d5f395ff3fe608060405234801561000f575f80fd5b5060043610610029575f3560e01c8063e35b02971461002d575b5f80fd5b610047600480360381019061004291906100ba565b61005e565b604051610055929190610107565b60405180910390f35b5f80828461006c919061015b565b9150828461007a919061018e565b90509250929050565b5f80fd5b5f819050919050565b61009981610087565b81146100a3575f80fd5b50565b5f813590506100b481610090565b92915050565b5f80604083850312156100d0576100cf610083565b5b5f6100dd858286016100a6565b92505060206100ee858286016100a6565b9150509250929050565b61010181610087565b82525050565b5f60408201905061011a5f8301856100f8565b61012760208301846100f8565b9392505050565b7f4e487b71000000000000000000000000000000000000000000000000000000005f52601160045260245ffd5b5f61016582610087565b915061017083610087565b92508282019050808211156101885761018761012e565b5b92915050565b5f61019882610087565b91506101a383610087565b92508282026101b181610087565b915082820484148315176101c8576101c761012e565b5b509291505056fea26469706673582212200b558a2502eb211ca44aa59d4136bb4726d4f75a1ef748e4322a115ca8386c8c64736f6c63430008170033",
			"opcodes": "PUSH1 0x80 PUSH1 0x40 MSTORE CALLVALUE DUP1 ISZERO PUSH2 0xF JUMPI PUSH0 DUP1 REVERT JUMPDEST POP PUSH2 0x205 DUP1 PUSH2 0x1D PUSH0 CODECOPY PUSH0 RETURN INVALID PUSH1 0x80 PUSH1 0x40 MSTORE CALLVALUE DUP1 ISZERO PUSH2 0xF JUMPI PUSH0 DUP1 REVERT JUMPDEST POP PUSH1 0x4 CALLDATASIZE LT PUSH2 0x29 JUMPI PUSH0 CALLDATALOAD PUSH1 0xE0 SHR DUP1 PUSH4 0xE35B0297 EQ PUSH2 0x2D JUMPI JUMPDEST PUSH0 DUP1 REVERT JUMPDEST PUSH2 0x47 PUSH1 0x4 DUP1 CALLDATASIZE SUB DUP2 ADD SWAP1 PUSH2 0x42 SWAP2 SWAP1 PUSH2 0xBA JUMP JUMPDEST PUSH2 0x5E JUMP JUMPDEST PUSH1 0x40 MLOAD PUSH2 0x55 SWAP3 SWAP2 SWAP1 PUSH2 0x107 JUMP JUMPDEST PUSH1 0x40 MLOAD DUP1 SWAP2 SUB SWAP1 RETURN JUMPDEST PUSH0 DUP1 DUP3 DUP5 PUSH2 0x6C SWAP2 SWAP1 PUSH2 0x15B JUMP JUMPDEST SWAP2 POP DUP3 DUP5 PUSH2 0x7A SWAP2 SWAP1 PUSH2 0x18E JUMP JUMPDEST SWAP1 POP SWAP3 POP SWAP3 SWAP1 POP JUMP JUMPDEST PUSH0 DUP1 REVERT JUMPDEST PUSH0 DUP2 SWAP1 POP SWAP2 SWAP1 POP JUMP JUMPDEST PUSH2 0x99 DUP2 PUSH2 0x87 JUMP JUMPDEST DUP2 EQ PUSH2 0xA3 JUMPI PUSH0 DUP1 REVERT JUMPDEST POP JUMP JUMPDEST PUSH0 DUP2 CALLDATALOAD SWAP1 POP PUSH2 0xB4 DUP2 PUSH2 0x90 JUMP JUMPDEST SWAP3 SWAP2 POP POP JUMP JUMPDEST PUSH0 DUP1 PUSH1 0x40 DUP4 DUP6 SUB SLT ISZERO PUSH2 0xD0 JUMPI PUSH2 0xCF PUSH2 0x83 JUMP JUMPDEST JUMPDEST PUSH0 PUSH2 0xDD DUP6 DUP3 DUP7 ADD PUSH2 0xA6 JUMP JUMPDEST SWAP3 POP POP PUSH1 0x20 PUSH2 0xEE DUP6 DUP3 DUP7 ADD PUSH2 0xA6 JUMP JUMPDEST SWAP2 POP POP SWAP3 POP SWAP3 SWAP1 POP JUMP JUMPDEST PUSH2 0x101 DUP2 PUSH2 0x87 JUMP JUMPDEST DUP3 MSTORE POP POP JUMP JUMPDEST PUSH0 PUSH1 0x40 DUP3 ADD SWAP1 POP PUSH2 0x11A PUSH0 DUP4 ADD DUP6 PUSH2 0xF8 JUMP JUMPDEST PUSH2 0x127 PUSH1 0x20 DUP4 ADD DUP5 PUSH2 0xF8 JUMP JUMPDEST SWAP4 SWAP3 POP POP POP JUMP JUMPDEST PUSH32 0x4E487B7100000000000000000000000000000000000000000000000000000000 PUSH0 MSTORE PUSH1 0x11 PUSH1 0x4 MSTORE PUSH1 0x24 PUSH0 REVERT JUMPDEST PUSH0 PUSH2 0x165 DUP3 PUSH2 0x87 JUMP JUMPDEST SWAP2 POP PUSH2 0x170 DUP4 PUSH2 0x87 JUMP JUMPDEST SWAP3 POP DUP3 DUP3 ADD SWAP1 POP DUP1 DUP3 GT ISZERO PUSH2 0x188 JUMPI PUSH2 0x187 PUSH2 0x12E JUMP JUMPDEST JUMPDEST SWAP3 SWAP2 POP POP JUMP JUMPDEST PUSH0 PUSH2 0x198 DUP3 PUSH2 0x87 JUMP JUMPDEST SWAP2 POP PUSH2 0x1A3 DUP4 PUSH2 0x87 JUMP JUMPDEST SWAP3 POP DUP3 DUP3 MUL PUSH2 0x1B1 DUP2 PUSH2 0x87 JUMP JUMPDEST SWAP2 POP DUP3 DUP3 DIV DUP5 EQ DUP4 ISZERO OR PUSH2 0x1C8 JUMPI PUSH2 0x1C7 PUSH2 0x12E JUMP JUMPDEST JUMPDEST POP SWAP3 SWAP2 POP POP JUMP INVALID LOG2 PUSH5 0x6970667358 0x22 SLT KECCAK256 SIGNEXTEND SSTORE DUP11 0x25 MUL 0xEB 0x21 SHR LOG4 0x4A 0xA5 SWAP14 COINBASE CALLDATASIZE 0xBB SELFBALANCE 0x26 0xD4 0xF7 GAS 0x1E 0xF7 BASEFEE 0xE4 ORIGIN 0x2A GT 0x5C 0xA8 CODESIZE PUSH13 0x8C64736F6C6343000817003300 "
		},
		"gasEstimates": {
			"creation": {
				"codeDepositCost": "103400",
				"executionCost": "151",
				"totalCost": "103551"
			},
			"external": {
				"calculateValues(uint256,uint256)": "infinite"
			}
		},
		"methodIdentifiers": {
			"calculateValues(uint256,uint256)": "e35b0297"
		}
	},
	"abi": [
		{
			"inputs": [
				{
					"internalType": "uint256",
					"name": "a",
					"type": "uint256"
				},
				{
					"internalType": "uint256",
					"name": "b",
					"type": "uint256"
				}
			],
			"name": "calculateValues",
			"outputs": [
				{
					"internalType": "uint256",
					"name": "sum",
					"type": "uint256"
				},
				{
					"internalType": "uint256",
					"name": "product",
					"type": "uint256"
				}
			],
			"stateMutability": "pure",
			"type": "function"
		}
	]
}