{
	"data": {
		"bytecode": {
			"linkReferences": {},
			"object": "60806040526064600155348015610014575f80fd5b506104e3806100225f395ff3fe60806040526004361061007a575f3560e01c8063813784481161004d57806381378448146100ea578063853828b614610114578063b69ef8a81461011e578063cccb4ec7146101485761007a565b806309c61d611461007e5780632f081d2d1461009a5780635683fe52146100a45780635da4a1d3146100ce575b5f80fd5b610098600480360381019061009391906102fe565b610164565b005b6100a26101cb565b005b3480156100af575f80fd5b506100b86101e4565b6040516100c59190610341565b60405180910390f35b6100e860048036038101906100e39190610384565b6101ea565b005b3480156100f5575f80fd5b506100fe6101f4565b60405161010b9190610341565b60405180910390f35b61011c6101fb565b005b348015610129575f80fd5b5061013261024d565b60405161013f9190610341565b60405180910390f35b610162600480360381019061015d91906102fe565b610252565b005b8073ffffffffffffffffffffffffffffffffffffffff166108fc600154606461018b6101f4565b61019591906103dc565b61019f919061044a565b90811502906040515f60405180830381858888f193505050501580156101c7573d5f803e3d5ffd5b5050565b345f808282546101db919061047a565b92505081905550565b60015481565b8060018190555050565b5f47905090565b5f3390508073ffffffffffffffffffffffffffffffffffffffff166108fc6102216101f4565b90811502906040515f60405180830381858888f19350505050158015610249573d5f803e3d5ffd5b5050565b5f5481565b8073ffffffffffffffffffffffffffffffffffffffff166108fc6102746101f4565b90811502906040515f60405180830381858888f1935050505015801561029c573d5f803e3d5ffd5b5050565b5f80fd5b5f73ffffffffffffffffffffffffffffffffffffffff82169050919050565b5f6102cd826102a4565b9050919050565b6102dd816102c3565b81146102e7575f80fd5b50565b5f813590506102f8816102d4565b92915050565b5f60208284031215610313576103126102a0565b5b5f610320848285016102ea565b91505092915050565b5f819050919050565b61033b81610329565b82525050565b5f6020820190506103545f830184610332565b92915050565b61036381610329565b811461036d575f80fd5b50565b5f8135905061037e8161035a565b92915050565b5f60208284031215610399576103986102a0565b5b5f6103a684828501610370565b91505092915050565b7f4e487b71000000000000000000000000000000000000000000000000000000005f52601160045260245ffd5b5f6103e682610329565b91506103f183610329565b92508282026103ff81610329565b91508282048414831517610416576104156103af565b5b5092915050565b7f4e487b71000000000000000000000000000000000000000000000000000000005f52601260045260245ffd5b5f61045482610329565b915061045f83610329565b92508261046f5761046e61041d565b5b828204905092915050565b5f61048482610329565b915061048f83610329565b92508282019050808211156104a7576104a66103af565b5b9291505056fea2646970667358221220fa1bc17e92b4abac657db0d858eae75bc1e74a1d6d13043f21bf7cd7c4fa596b64736f6c63430008160033",
			"opcodes": "PUSH1 0x80 PUSH1 0x40 MSTORE PUSH1 0x64 PUSH1 0x1 SSTORE CALLVALUE DUP1 ISZERO PUSH2 0x14 JUMPI PUSH0 DUP1 REVERT JUMPDEST POP PUSH2 0x4E3 DUP1 PUSH2 0x22 PUSH0 CODECOPY PUSH0 RETURN INVALID PUSH1 0x80 PUSH1 0x40 MSTORE PUSH1 0x4 CALLDATASIZE LT PUSH2 0x7A JUMPI PUSH0 CALLDATALOAD PUSH1 0xE0 SHR DUP1 PUSH4 0x81378448 GT PUSH2 0x4D JUMPI DUP1 PUSH4 0x81378448 EQ PUSH2 0xEA JUMPI DUP1 PUSH4 0x853828B6 EQ PUSH2 0x114 JUMPI DUP1 PUSH4 0xB69EF8A8 EQ PUSH2 0x11E JUMPI DUP1 PUSH4 0xCCCB4EC7 EQ PUSH2 0x148 JUMPI PUSH2 0x7A JUMP JUMPDEST DUP1 PUSH4 0x9C61D61 EQ PUSH2 0x7E JUMPI DUP1 PUSH4 0x2F081D2D EQ PUSH2 0x9A JUMPI DUP1 PUSH4 0x5683FE52 EQ PUSH2 0xA4 JUMPI DUP1 PUSH4 0x5DA4A1D3 EQ PUSH2 0xCE JUMPI JUMPDEST PUSH0 DUP1 REVERT JUMPDEST PUSH2 0x98 PUSH1 0x4 DUP1 CALLDATASIZE SUB DUP2 ADD SWAP1 PUSH2 0x93 SWAP2 SWAP1 PUSH2 0x2FE JUMP JUMPDEST PUSH2 0x164 JUMP JUMPDEST STOP JUMPDEST PUSH2 0xA2 PUSH2 0x1CB JUMP JUMPDEST STOP JUMPDEST CALLVALUE DUP1 ISZERO PUSH2 0xAF JUMPI PUSH0 DUP1 REVERT JUMPDEST POP PUSH2 0xB8 PUSH2 0x1E4 JUMP JUMPDEST PUSH1 0x40 MLOAD PUSH2 0xC5 SWAP2 SWAP1 PUSH2 0x341 JUMP JUMPDEST PUSH1 0x40 MLOAD DUP1 SWAP2 SUB SWAP1 RETURN JUMPDEST PUSH2 0xE8 PUSH1 0x4 DUP1 CALLDATASIZE SUB DUP2 ADD SWAP1 PUSH2 0xE3 SWAP2 SWAP1 PUSH2 0x384 JUMP JUMPDEST PUSH2 0x1EA JUMP JUMPDEST STOP JUMPDEST CALLVALUE DUP1 ISZERO PUSH2 0xF5 JUMPI PUSH0 DUP1 REVERT JUMPDEST POP PUSH2 0xFE PUSH2 0x1F4 JUMP JUMPDEST PUSH1 0x40 MLOAD PUSH2 0x10B SWAP2 SWAP1 PUSH2 0x341 JUMP JUMPDEST PUSH1 0x40 MLOAD DUP1 SWAP2 SUB SWAP1 RETURN JUMPDEST PUSH2 0x11C PUSH2 0x1FB JUMP JUMPDEST STOP JUMPDEST CALLVALUE DUP1 ISZERO PUSH2 0x129 JUMPI PUSH0 DUP1 REVERT JUMPDEST POP PUSH2 0x132 PUSH2 0x24D JUMP JUMPDEST PUSH1 0x40 MLOAD PUSH2 0x13F SWAP2 SWAP1 PUSH2 0x341 JUMP JUMPDEST PUSH1 0x40 MLOAD DUP1 SWAP2 SUB SWAP1 RETURN JUMPDEST PUSH2 0x162 PUSH1 0x4 DUP1 CALLDATASIZE SUB DUP2 ADD SWAP1 PUSH2 0x15D SWAP2 SWAP1 PUSH2 0x2FE JUMP JUMPDEST PUSH2 0x252 JUMP JUMPDEST STOP JUMPDEST DUP1 PUSH20 0xFFFFFFFFFFFFFFFFFFFFFFFFFFFFFFFFFFFFFFFF AND PUSH2 0x8FC PUSH1 0x1 SLOAD PUSH1 0x64 PUSH2 0x18B PUSH2 0x1F4 JUMP JUMPDEST PUSH2 0x195 SWAP2 SWAP1 PUSH2 0x3DC JUMP JUMPDEST PUSH2 0x19F SWAP2 SWAP1 PUSH2 0x44A JUMP JUMPDEST SWAP1 DUP2 ISZERO MUL SWAP1 PUSH1 0x40 MLOAD PUSH0 PUSH1 0x40 MLOAD DUP1 DUP4 SUB DUP2 DUP6 DUP9 DUP9 CALL SWAP4 POP POP POP POP ISZERO DUP1 ISZERO PUSH2 0x1C7 JUMPI RETURNDATASIZE PUSH0 DUP1 RETURNDATACOPY RETURNDATASIZE PUSH0 REVERT JUMPDEST POP POP JUMP JUMPDEST CALLVALUE PUSH0 DUP1 DUP3 DUP3 SLOAD PUSH2 0x1DB SWAP2 SWAP1 PUSH2 0x47A JUMP JUMPDEST SWAP3 POP POP DUP2 SWAP1 SSTORE POP JUMP JUMPDEST PUSH1 0x1 SLOAD DUP2 JUMP JUMPDEST DUP1 PUSH1 0x1 DUP2 SWAP1 SSTORE POP POP JUMP JUMPDEST PUSH0 SELFBALANCE SWAP1 POP SWAP1 JUMP JUMPDEST PUSH0 CALLER SWAP1 POP DUP1 PUSH20 0xFFFFFFFFFFFFFFFFFFFFFFFFFFFFFFFFFFFFFFFF AND PUSH2 0x8FC PUSH2 0x221 PUSH2 0x1F4 JUMP JUMPDEST SWAP1 DUP2 ISZERO MUL SWAP1 PUSH1 0x40 MLOAD PUSH0 PUSH1 0x40 MLOAD DUP1 DUP4 SUB DUP2 DUP6 DUP9 DUP9 CALL SWAP4 POP POP POP POP ISZERO DUP1 ISZERO PUSH2 0x249 JUMPI RETURNDATASIZE PUSH0 DUP1 RETURNDATACOPY RETURNDATASIZE PUSH0 REVERT JUMPDEST POP POP JUMP JUMPDEST PUSH0 SLOAD DUP2 JUMP JUMPDEST DUP1 PUSH20 0xFFFFFFFFFFFFFFFFFFFFFFFFFFFFFFFFFFFFFFFF AND PUSH2 0x8FC PUSH2 0x274 PUSH2 0x1F4 JUMP JUMPDEST SWAP1 DUP2 ISZERO MUL SWAP1 PUSH1 0x40 MLOAD PUSH0 PUSH1 0x40 MLOAD DUP1 DUP4 SUB DUP2 DUP6 DUP9 DUP9 CALL SWAP4 POP POP POP POP ISZERO DUP1 ISZERO PUSH2 0x29C JUMPI RETURNDATASIZE PUSH0 DUP1 RETURNDATACOPY RETURNDATASIZE PUSH0 REVERT JUMPDEST POP POP JUMP JUMPDEST PUSH0 DUP1 REVERT JUMPDEST PUSH0 PUSH20 0xFFFFFFFFFFFFFFFFFFFFFFFFFFFFFFFFFFFFFFFF DUP3 AND SWAP1 POP SWAP2 SWAP1 POP JUMP JUMPDEST PUSH0 PUSH2 0x2CD DUP3 PUSH2 0x2A4 JUMP JUMPDEST SWAP1 POP SWAP2 SWAP1 POP JUMP JUMPDEST PUSH2 0x2DD DUP2 PUSH2 0x2C3 JUMP JUMPDEST DUP2 EQ PUSH2 0x2E7 JUMPI PUSH0 DUP1 REVERT JUMPDEST POP JUMP JUMPDEST PUSH0 DUP2 CALLDATALOAD SWAP1 POP PUSH2 0x2F8 DUP2 PUSH2 0x2D4 JUMP JUMPDEST SWAP3 SWAP2 POP POP JUMP JUMPDEST PUSH0 PUSH1 0x20 DUP3 DUP5 SUB SLT ISZERO PUSH2 0x313 JUMPI PUSH2 0x312 PUSH2 0x2A0 JUMP JUMPDEST JUMPDEST PUSH0 PUSH2 0x320 DUP5 DUP3 DUP6 ADD PUSH2 0x2EA JUMP JUMPDEST SWAP2 POP POP SWAP3 SWAP2 POP POP JUMP JUMPDEST PUSH0 DUP2 SWAP1 POP SWAP2 SWAP1 POP JUMP JUMPDEST PUSH2 0x33B DUP2 PUSH2 0x329 JUMP JUMPDEST DUP3 MSTORE POP POP JUMP JUMPDEST PUSH0 PUSH1 0x20 DUP3 ADD SWAP1 POP PUSH2 0x354 PUSH0 DUP4 ADD DUP5 PUSH2 0x332 JUMP JUMPDEST SWAP3 SWAP2 POP POP JUMP JUMPDEST PUSH2 0x363 DUP2 PUSH2 0x329 JUMP JUMPDEST DUP2 EQ PUSH2 0x36D JUMPI PUSH0 DUP1 REVERT JUMPDEST POP JUMP JUMPDEST PUSH0 DUP2 CALLDATALOAD SWAP1 POP PUSH2 0x37E DUP2 PUSH2 0x35A JUMP JUMPDEST SWAP3 SWAP2 POP POP JUMP JUMPDEST PUSH0 PUSH1 0x20 DUP3 DUP5 SUB SLT ISZERO PUSH2 0x399 JUMPI PUSH2 0x398 PUSH2 0x2A0 JUMP JUMPDEST JUMPDEST PUSH0 PUSH2 0x3A6 DUP5 DUP3 DUP6 ADD PUSH2 0x370 JUMP JUMPDEST SWAP2 POP POP SWAP3 SWAP2 POP POP JUMP JUMPDEST PUSH32 0x4E487B7100000000000000000000000000000000000000000000000000000000 PUSH0 MSTORE PUSH1 0x11 PUSH1 0x4 MSTORE PUSH1 0x24 PUSH0 REVERT JUMPDEST PUSH0 PUSH2 0x3E6 DUP3 PUSH2 0x329 JUMP JUMPDEST SWAP2 POP PUSH2 0x3F1 DUP4 PUSH2 0x329 JUMP JUMPDEST SWAP3 POP DUP3 DUP3 MUL PUSH2 0x3FF DUP2 PUSH2 0x329 JUMP JUMPDEST SWAP2 POP DUP3 DUP3 DIV DUP5 EQ DUP4 ISZERO OR PUSH2 0x416 JUMPI PUSH2 0x415 PUSH2 0x3AF JUMP JUMPDEST JUMPDEST POP SWAP3 SWAP2 POP POP JUMP JUMPDEST PUSH32 0x4E487B7100000000000000000000000000000000000000000000000000000000 PUSH0 MSTORE PUSH1 0x12 PUSH1 0x4 MSTORE PUSH1 0x24 PUSH0 REVERT JUMPDEST PUSH0 PUSH2 0x454 DUP3 PUSH2 0x329 JUMP JUMPDEST SWAP2 POP PUSH2 0x45F DUP4 PUSH2 0x329 JUMP JUMPDEST SWAP3 POP DUP3 PUSH2 0x46F JUMPI PUSH2 0x46E PUSH2 0x41D JUMP JUMPDEST JUMPDEST DUP3 DUP3 DIV SWAP1 POP SWAP3 SWAP2 POP POP JUMP JUMPDEST PUSH0 PUSH2 0x484 DUP3 PUSH2 0x329 JUMP JUMPDEST SWAP2 POP PUSH2 0x48F DUP4 PUSH2 0x329 JUMP JUMPDEST SWAP3 POP DUP3 DUP3 ADD SWAP1 POP DUP1 DUP3 GT ISZERO PUSH2 0x4A7 JUMPI PUSH2 0x4A6 PUSH2 0x3AF JUMP JUMPDEST JUMPDEST SWAP3 SWAP2 POP POP JUMP INVALID LOG2 PUSH5 0x6970667358 0x22 SLT KECCAK256 STATICCALL SHL 0xC1 PUSH31 0x92B4ABAC657DB0D858EAE75BC1E74A1D6D13043F21BF7CD7C4FA596B64736F PUSH13 0x63430008160033000000000000 "
		},
		"gasEstimates": {
			"creation": {
				"codeDepositCost": "250200",
				"executionCost": "22398",
				"totalCost": "272598"
			},
			"external": {
				"balance()": "2468",
				"depozit()": "infinite",
				"getBalanceValue()": "334",
				"perventage()": "2470",
				"setPercentage(uint256)": "22558",
				"withdrawAll()": "infinite",
				"withdrawPercentageToAddress(address)": "infinite",
				"withdrawToOther(address)": "infinite"
			}
		},
		"methodIdentifiers": {
			"balance()": "b69ef8a8",
			"depozit()": "2f081d2d",
			"getBalanceValue()": "81378448",
			"perventage()": "5683fe52",
			"setPercentage(uint256)": "5da4a1d3",
			"withdrawAll()": "853828b6",
			"withdrawPercentageToAddress(address)": "09c61d61",
			"withdrawToOther(address)": "cccb4ec7"
		}
	},
	"abi": [
		{
			"inputs": [],
			"name": "balance",
			"outputs": [
				{
					"internalType": "uint256",
					"name": "",
					"type": "uint256"
				}
			],
			"stateMutability": "view",
			"type": "function"
		},
		{
			"inputs": [],
			"name": "depozit",
			"outputs": [],
			"stateMutability": "payable",
			"type": "function"
		},
		{
			"inputs": [],
			"name": "getBalanceValue",
			"outputs": [
				{
					"internalType": "uint256",
					"name": "",
					"type": "uint256"
				}
			],
			"stateMutability": "view",
			"type": "function"
		},
		{
			"inputs": [],
			"name": "perventage",
			"outputs": [
				{
					"internalType": "uint256",
					"name": "",
					"type": "uint256"
				}
			],
			"stateMutability": "view",
			"type": "function"
		},
		{
			"inputs": [
				{
					"internalType": "uint256",
					"name": "_percentage",
					"type": "uint256"
				}
			],
			"name": "setPercentage",
			"outputs": [],
			"stateMutability": "payable",
			"type": "function"
		},
		{
			"inputs": [],
			"name": "withdrawAll",
			"outputs": [],
			"stateMutability": "payable",
			"type": "function"
		},
		{
			"inputs": [
				{
					"internalType": "address payable",
					"name": "to",
					"type": "address"
				}
			],
			"name": "withdrawPercentageToAddress",
			"outputs": [],
			"stateMutability": "payable",
			"type": "function"
		},
		{
			"inputs": [
				{
					"internalType": "address payable",
					"name": "to",
					"type": "address"
				}
			],
			"name": "withdrawToOther",
			"outputs": [],
			"stateMutability": "payable",
			"type": "function"
		}
	]
}