{
	"data": {
		"bytecode": {
			"linkReferences": {},
			"object": "608060405234801561000f575f80fd5b505f80546001600160a01b031916331790556108998061002e5f395ff3fe608060405260043610610055575f3560e01c8063145381281461005e5780634d6ce1e5146100e75780635b6b431d146100fa57806382dec4801461010d5780638da5cb5b1461012057806399be33751461015657005b3661005c57005b005b348015610069575f80fd5b506100b3610078366004610771565b600160208181525f93845260408085209091529183529120805491810154600282015460039092015490916001600160a01b03908116911684565b6040805194855260208501939093526001600160a01b03918216928401929092521660608201526080015b60405180910390f35b61005c6100f5366004610799565b61018f565b61005c610108366004610799565b610349565b61005c61011b3660046107b0565b6105bb565b34801561012b575f80fd5b505f5461013e906001600160a01b031681565b6040516001600160a01b0390911681526020016100de565b348015610161575f80fd5b506101816101703660046107d6565b60026020525f908152604090205481565b6040519081526020016100de565b808034146101e45760405162461bcd60e51b815260206004820152601a60248201527f5468652076616c7565732073686f756c6420626520657175616c00000000000060448201526064015b60405180910390fd5b5f546001600160a01b0316331461020d5760405162461bcd60e51b81526004016101db906107ef565b34333110156102725760405162461bcd60e51b815260206004820152602b60248201527f596f752063616e6e6f74206465706f736974206d6f7265207468616e2077686160448201526a7420796f7520686176652160a81b60648201526084016101db565b335f90815260026020526040812080549161028c83610832565b9091555050335f818152600160208181526040808420600280845282862080548752919093528185203490819055815486528286209094018590558054855281852090920180546001600160a01b0319908116909617905590548352808320600301805430951685179055516108fc82150292818181858888f1935050505015801561031a573d5f803e3d5ffd5b5060405134907f6eab5bc43b55aaa4f54e4bd34037f8073f18af157c86b0a2646874a7b4dd4203905f90a25050565b808034146103995760405162461bcd60e51b815260206004820152601a60248201527f5468652076616c7565732073686f756c6420626520657175616c00000000000060448201526064016101db565b5f546001600160a01b031633146103c25760405162461bcd60e51b81526004016101db906107ef565b8147101561042e5760405162461bcd60e51b815260206004820152603360248201527f5468657265206973206e6f207375636820616d6f756e74206f66206d6f6e657960448201527220696e20736d61727420636f6e74726163742160681b60648201526084016101db565b5f60015b335f9081526002602052604090205481101561047657335f90815260016020908152604080832084845290915290205461046c908361084a565b9150600101610432565b50808311156104e15760405162461bcd60e51b815260206004820152603160248201527f596f752063616e6e6f74207769746864726177206d6f7265207468616e207768604482015270617420796f75206465706f73697465642160781b60648201526084016101db565b335f9081526002602052604081208054916104fb83610832565b9091555050335f8181526001602081815260408084206002808452828620805487529190935281852085905580548552818520909301889055825484528084209091018054306001600160a01b0319918216179091559154835280832060030180549092168417909155516108fc86150291869190818181858888f1935050505015801561058b573d5f803e3d5ffd5b5060405183907fc883f0a337643c38737954ca97943dc4b675f45ecde5a2f450f55371875641e3905f90a2505050565b5f546001600160a01b031633146105e45760405162461bcd60e51b81526004016101db906107ef565b806106315760405162461bcd60e51b815260206004820152601e60248201527f596f752073686f756c6420626520737572652061626f7574207468697321000060448201526064016101db565b5f60015b335f9081526002602052604090205481101561067957335f90815260016020908152604080832084845290915290205461066f908361084a565b9150600101610635565b50335f90815260026020526040812080549161069483610832565b9091555050335f81815260016020818152604080842060028084528286208054875291909352818520859055805485528185209093018690558254845280842090910180546001600160a01b031990811630179091559154835280832060030180549092168417909155514780156108fc0292909190818181858888f19350505050158015610725573d5f803e3d5ffd5b50604051821515907f1423ca3ba940e845379011b2f84bcd1f727e6fd3cf5af7ad9d6390975b9898bf905f90a25050565b80356001600160a01b038116811461076c575f80fd5b919050565b5f8060408385031215610782575f80fd5b61078b83610756565b946020939093013593505050565b5f602082840312156107a9575f80fd5b5035919050565b5f602082840312156107c0575f80fd5b813580151581146107cf575f80fd5b9392505050565b5f602082840312156107e6575f80fd5b6107cf82610756565b6020808252601590820152742cb7ba9030b932903737ba103a34329037bbb732b960591b604082015260600190565b634e487b7160e01b5f52601160045260245ffd5b5f600182016108435761084361081e565b5060010190565b8082018082111561085d5761085d61081e565b9291505056fea2646970667358221220705b69ad2e18b3e1cc72e48de87f86cddf44f2e57546ea8059bf22503a256e4364736f6c63430008170033",
			"opcodes": "PUSH1 0x80 PUSH1 0x40 MSTORE CALLVALUE DUP1 ISZERO PUSH2 0xF JUMPI PUSH0 DUP1 REVERT JUMPDEST POP PUSH0 DUP1 SLOAD PUSH1 0x1 PUSH1 0x1 PUSH1 0xA0 SHL SUB NOT AND CALLER OR SWAP1 SSTORE PUSH2 0x899 DUP1 PUSH2 0x2E PUSH0 CODECOPY PUSH0 RETURN INVALID PUSH1 0x80 PUSH1 0x40 MSTORE PUSH1 0x4 CALLDATASIZE LT PUSH2 0x55 JUMPI PUSH0 CALLDATALOAD PUSH1 0xE0 SHR DUP1 PUSH4 0x14538128 EQ PUSH2 0x5E JUMPI DUP1 PUSH4 0x4D6CE1E5 EQ PUSH2 0xE7 JUMPI DUP1 PUSH4 0x5B6B431D EQ PUSH2 0xFA JUMPI DUP1 PUSH4 0x82DEC480 EQ PUSH2 0x10D JUMPI DUP1 PUSH4 0x8DA5CB5B EQ PUSH2 0x120 JUMPI DUP1 PUSH4 0x99BE3375 EQ PUSH2 0x156 JUMPI STOP JUMPDEST CALLDATASIZE PUSH2 0x5C JUMPI STOP JUMPDEST STOP JUMPDEST CALLVALUE DUP1 ISZERO PUSH2 0x69 JUMPI PUSH0 DUP1 REVERT JUMPDEST POP PUSH2 0xB3 PUSH2 0x78 CALLDATASIZE PUSH1 0x4 PUSH2 0x771 JUMP JUMPDEST PUSH1 0x1 PUSH1 0x20 DUP2 DUP2 MSTORE PUSH0 SWAP4 DUP5 MSTORE PUSH1 0x40 DUP1 DUP6 KECCAK256 SWAP1 SWAP2 MSTORE SWAP2 DUP4 MSTORE SWAP2 KECCAK256 DUP1 SLOAD SWAP2 DUP2 ADD SLOAD PUSH1 0x2 DUP3 ADD SLOAD PUSH1 0x3 SWAP1 SWAP3 ADD SLOAD SWAP1 SWAP2 PUSH1 0x1 PUSH1 0x1 PUSH1 0xA0 SHL SUB SWAP1 DUP2 AND SWAP2 AND DUP5 JUMP JUMPDEST PUSH1 0x40 DUP1 MLOAD SWAP5 DUP6 MSTORE PUSH1 0x20 DUP6 ADD SWAP4 SWAP1 SWAP4 MSTORE PUSH1 0x1 PUSH1 0x1 PUSH1 0xA0 SHL SUB SWAP2 DUP3 AND SWAP3 DUP5 ADD SWAP3 SWAP1 SWAP3 MSTORE AND PUSH1 0x60 DUP3 ADD MSTORE PUSH1 0x80 ADD JUMPDEST PUSH1 0x40 MLOAD DUP1 SWAP2 SUB SWAP1 RETURN JUMPDEST PUSH2 0x5C PUSH2 0xF5 CALLDATASIZE PUSH1 0x4 PUSH2 0x799 JUMP JUMPDEST PUSH2 0x18F JUMP JUMPDEST PUSH2 0x5C PUSH2 0x108 CALLDATASIZE PUSH1 0x4 PUSH2 0x799 JUMP JUMPDEST PUSH2 0x349 JUMP JUMPDEST PUSH2 0x5C PUSH2 0x11B CALLDATASIZE PUSH1 0x4 PUSH2 0x7B0 JUMP JUMPDEST PUSH2 0x5BB JUMP JUMPDEST CALLVALUE DUP1 ISZERO PUSH2 0x12B JUMPI PUSH0 DUP1 REVERT JUMPDEST POP PUSH0 SLOAD PUSH2 0x13E SWAP1 PUSH1 0x1 PUSH1 0x1 PUSH1 0xA0 SHL SUB AND DUP2 JUMP JUMPDEST PUSH1 0x40 MLOAD PUSH1 0x1 PUSH1 0x1 PUSH1 0xA0 SHL SUB SWAP1 SWAP2 AND DUP2 MSTORE PUSH1 0x20 ADD PUSH2 0xDE JUMP JUMPDEST CALLVALUE DUP1 ISZERO PUSH2 0x161 JUMPI PUSH0 DUP1 REVERT JUMPDEST POP PUSH2 0x181 PUSH2 0x170 CALLDATASIZE PUSH1 0x4 PUSH2 0x7D6 JUMP JUMPDEST PUSH1 0x2 PUSH1 0x20 MSTORE PUSH0 SWAP1 DUP2 MSTORE PUSH1 0x40 SWAP1 KECCAK256 SLOAD DUP2 JUMP JUMPDEST PUSH1 0x40 MLOAD SWAP1 DUP2 MSTORE PUSH1 0x20 ADD PUSH2 0xDE JUMP JUMPDEST DUP1 DUP1 CALLVALUE EQ PUSH2 0x1E4 JUMPI PUSH1 0x40 MLOAD PUSH3 0x461BCD PUSH1 0xE5 SHL DUP2 MSTORE PUSH1 0x20 PUSH1 0x4 DUP3 ADD MSTORE PUSH1 0x1A PUSH1 0x24 DUP3 ADD MSTORE PUSH32 0x5468652076616C7565732073686F756C6420626520657175616C000000000000 PUSH1 0x44 DUP3 ADD MSTORE PUSH1 0x64 ADD JUMPDEST PUSH1 0x40 MLOAD DUP1 SWAP2 SUB SWAP1 REVERT JUMPDEST PUSH0 SLOAD PUSH1 0x1 PUSH1 0x1 PUSH1 0xA0 SHL SUB AND CALLER EQ PUSH2 0x20D JUMPI PUSH1 0x40 MLOAD PUSH3 0x461BCD PUSH1 0xE5 SHL DUP2 MSTORE PUSH1 0x4 ADD PUSH2 0x1DB SWAP1 PUSH2 0x7EF JUMP JUMPDEST CALLVALUE CALLER BALANCE LT ISZERO PUSH2 0x272 JUMPI PUSH1 0x40 MLOAD PUSH3 0x461BCD PUSH1 0xE5 SHL DUP2 MSTORE PUSH1 0x20 PUSH1 0x4 DUP3 ADD MSTORE PUSH1 0x2B PUSH1 0x24 DUP3 ADD MSTORE PUSH32 0x596F752063616E6E6F74206465706F736974206D6F7265207468616E20776861 PUSH1 0x44 DUP3 ADD MSTORE PUSH11 0x7420796F75206861766521 PUSH1 0xA8 SHL PUSH1 0x64 DUP3 ADD MSTORE PUSH1 0x84 ADD PUSH2 0x1DB JUMP JUMPDEST CALLER PUSH0 SWAP1 DUP2 MSTORE PUSH1 0x2 PUSH1 0x20 MSTORE PUSH1 0x40 DUP2 KECCAK256 DUP1 SLOAD SWAP2 PUSH2 0x28C DUP4 PUSH2 0x832 JUMP JUMPDEST SWAP1 SWAP2 SSTORE POP POP CALLER PUSH0 DUP2 DUP2 MSTORE PUSH1 0x1 PUSH1 0x20 DUP2 DUP2 MSTORE PUSH1 0x40 DUP1 DUP5 KECCAK256 PUSH1 0x2 DUP1 DUP5 MSTORE DUP3 DUP7 KECCAK256 DUP1 SLOAD DUP8 MSTORE SWAP2 SWAP1 SWAP4 MSTORE DUP2 DUP6 KECCAK256 CALLVALUE SWAP1 DUP2 SWAP1 SSTORE DUP2 SLOAD DUP7 MSTORE DUP3 DUP7 KECCAK256 SWAP1 SWAP5 ADD DUP6 SWAP1 SSTORE DUP1 SLOAD DUP6 MSTORE DUP2 DUP6 KECCAK256 SWAP1 SWAP3 ADD DUP1 SLOAD PUSH1 0x1 PUSH1 0x1 PUSH1 0xA0 SHL SUB NOT SWAP1 DUP2 AND SWAP1 SWAP7 OR SWAP1 SSTORE SWAP1 SLOAD DUP4 MSTORE DUP1 DUP4 KECCAK256 PUSH1 0x3 ADD DUP1 SLOAD ADDRESS SWAP6 AND DUP6 OR SWAP1 SSTORE MLOAD PUSH2 0x8FC DUP3 ISZERO MUL SWAP3 DUP2 DUP2 DUP2 DUP6 DUP9 DUP9 CALL SWAP4 POP POP POP POP ISZERO DUP1 ISZERO PUSH2 0x31A JUMPI RETURNDATASIZE PUSH0 DUP1 RETURNDATACOPY RETURNDATASIZE PUSH0 REVERT JUMPDEST POP PUSH1 0x40 MLOAD CALLVALUE SWAP1 PUSH32 0x6EAB5BC43B55AAA4F54E4BD34037F8073F18AF157C86B0A2646874A7B4DD4203 SWAP1 PUSH0 SWAP1 LOG2 POP POP JUMP JUMPDEST DUP1 DUP1 CALLVALUE EQ PUSH2 0x399 JUMPI PUSH1 0x40 MLOAD PUSH3 0x461BCD PUSH1 0xE5 SHL DUP2 MSTORE PUSH1 0x20 PUSH1 0x4 DUP3 ADD MSTORE PUSH1 0x1A PUSH1 0x24 DUP3 ADD MSTORE PUSH32 0x5468652076616C7565732073686F756C6420626520657175616C000000000000 PUSH1 0x44 DUP3 ADD MSTORE PUSH1 0x64 ADD PUSH2 0x1DB JUMP JUMPDEST PUSH0 SLOAD PUSH1 0x1 PUSH1 0x1 PUSH1 0xA0 SHL SUB AND CALLER EQ PUSH2 0x3C2 JUMPI PUSH1 0x40 MLOAD PUSH3 0x461BCD PUSH1 0xE5 SHL DUP2 MSTORE PUSH1 0x4 ADD PUSH2 0x1DB SWAP1 PUSH2 0x7EF JUMP JUMPDEST DUP2 SELFBALANCE LT ISZERO PUSH2 0x42E JUMPI PUSH1 0x40 MLOAD PUSH3 0x461BCD PUSH1 0xE5 SHL DUP2 MSTORE PUSH1 0x20 PUSH1 0x4 DUP3 ADD MSTORE PUSH1 0x33 PUSH1 0x24 DUP3 ADD MSTORE PUSH32 0x5468657265206973206E6F207375636820616D6F756E74206F66206D6F6E6579 PUSH1 0x44 DUP3 ADD MSTORE PUSH19 0x20696E20736D61727420636F6E747261637421 PUSH1 0x68 SHL PUSH1 0x64 DUP3 ADD MSTORE PUSH1 0x84 ADD PUSH2 0x1DB JUMP JUMPDEST PUSH0 PUSH1 0x1 JUMPDEST CALLER PUSH0 SWAP1 DUP2 MSTORE PUSH1 0x2 PUSH1 0x20 MSTORE PUSH1 0x40 SWAP1 KECCAK256 SLOAD DUP2 LT ISZERO PUSH2 0x476 JUMPI CALLER PUSH0 SWAP1 DUP2 MSTORE PUSH1 0x1 PUSH1 0x20 SWAP1 DUP2 MSTORE PUSH1 0x40 DUP1 DUP4 KECCAK256 DUP5 DUP5 MSTORE SWAP1 SWAP2 MSTORE SWAP1 KECCAK256 SLOAD PUSH2 0x46C SWAP1 DUP4 PUSH2 0x84A JUMP JUMPDEST SWAP2 POP PUSH1 0x1 ADD PUSH2 0x432 JUMP JUMPDEST POP DUP1 DUP4 GT ISZERO PUSH2 0x4E1 JUMPI PUSH1 0x40 MLOAD PUSH3 0x461BCD PUSH1 0xE5 SHL DUP2 MSTORE PUSH1 0x20 PUSH1 0x4 DUP3 ADD MSTORE PUSH1 0x31 PUSH1 0x24 DUP3 ADD MSTORE PUSH32 0x596F752063616E6E6F74207769746864726177206D6F7265207468616E207768 PUSH1 0x44 DUP3 ADD MSTORE PUSH17 0x617420796F75206465706F736974656421 PUSH1 0x78 SHL PUSH1 0x64 DUP3 ADD MSTORE PUSH1 0x84 ADD PUSH2 0x1DB JUMP JUMPDEST CALLER PUSH0 SWAP1 DUP2 MSTORE PUSH1 0x2 PUSH1 0x20 MSTORE PUSH1 0x40 DUP2 KECCAK256 DUP1 SLOAD SWAP2 PUSH2 0x4FB DUP4 PUSH2 0x832 JUMP JUMPDEST SWAP1 SWAP2 SSTORE POP POP CALLER PUSH0 DUP2 DUP2 MSTORE PUSH1 0x1 PUSH1 0x20 DUP2 DUP2 MSTORE PUSH1 0x40 DUP1 DUP5 KECCAK256 PUSH1 0x2 DUP1 DUP5 MSTORE DUP3 DUP7 KECCAK256 DUP1 SLOAD DUP8 MSTORE SWAP2 SWAP1 SWAP4 MSTORE DUP2 DUP6 KECCAK256 DUP6 SWAP1 SSTORE DUP1 SLOAD DUP6 MSTORE DUP2 DUP6 KECCAK256 SWAP1 SWAP4 ADD DUP9 SWAP1 SSTORE DUP3 SLOAD DUP5 MSTORE DUP1 DUP5 KECCAK256 SWAP1 SWAP2 ADD DUP1 SLOAD ADDRESS PUSH1 0x1 PUSH1 0x1 PUSH1 0xA0 SHL SUB NOT SWAP2 DUP3 AND OR SWAP1 SWAP2 SSTORE SWAP2 SLOAD DUP4 MSTORE DUP1 DUP4 KECCAK256 PUSH1 0x3 ADD DUP1 SLOAD SWAP1 SWAP3 AND DUP5 OR SWAP1 SWAP2 SSTORE MLOAD PUSH2 0x8FC DUP7 ISZERO MUL SWAP2 DUP7 SWAP2 SWAP1 DUP2 DUP2 DUP2 DUP6 DUP9 DUP9 CALL SWAP4 POP POP POP POP ISZERO DUP1 ISZERO PUSH2 0x58B JUMPI RETURNDATASIZE PUSH0 DUP1 RETURNDATACOPY RETURNDATASIZE PUSH0 REVERT JUMPDEST POP PUSH1 0x40 MLOAD DUP4 SWAP1 PUSH32 0xC883F0A337643C38737954CA97943DC4B675F45ECDE5A2F450F55371875641E3 SWAP1 PUSH0 SWAP1 LOG2 POP POP POP JUMP JUMPDEST PUSH0 SLOAD PUSH1 0x1 PUSH1 0x1 PUSH1 0xA0 SHL SUB AND CALLER EQ PUSH2 0x5E4 JUMPI PUSH1 0x40 MLOAD PUSH3 0x461BCD PUSH1 0xE5 SHL DUP2 MSTORE PUSH1 0x4 ADD PUSH2 0x1DB SWAP1 PUSH2 0x7EF JUMP JUMPDEST DUP1 PUSH2 0x631 JUMPI PUSH1 0x40 MLOAD PUSH3 0x461BCD PUSH1 0xE5 SHL DUP2 MSTORE PUSH1 0x20 PUSH1 0x4 DUP3 ADD MSTORE PUSH1 0x1E PUSH1 0x24 DUP3 ADD MSTORE PUSH32 0x596F752073686F756C6420626520737572652061626F75742074686973210000 PUSH1 0x44 DUP3 ADD MSTORE PUSH1 0x64 ADD PUSH2 0x1DB JUMP JUMPDEST PUSH0 PUSH1 0x1 JUMPDEST CALLER PUSH0 SWAP1 DUP2 MSTORE PUSH1 0x2 PUSH1 0x20 MSTORE PUSH1 0x40 SWAP1 KECCAK256 SLOAD DUP2 LT ISZERO PUSH2 0x679 JUMPI CALLER PUSH0 SWAP1 DUP2 MSTORE PUSH1 0x1 PUSH1 0x20 SWAP1 DUP2 MSTORE PUSH1 0x40 DUP1 DUP4 KECCAK256 DUP5 DUP5 MSTORE SWAP1 SWAP2 MSTORE SWAP1 KECCAK256 SLOAD PUSH2 0x66F SWAP1 DUP4 PUSH2 0x84A JUMP JUMPDEST SWAP2 POP PUSH1 0x1 ADD PUSH2 0x635 JUMP JUMPDEST POP CALLER PUSH0 SWAP1 DUP2 MSTORE PUSH1 0x2 PUSH1 0x20 MSTORE PUSH1 0x40 DUP2 KECCAK256 DUP1 SLOAD SWAP2 PUSH2 0x694 DUP4 PUSH2 0x832 JUMP JUMPDEST SWAP1 SWAP2 SSTORE POP POP CALLER PUSH0 DUP2 DUP2 MSTORE PUSH1 0x1 PUSH1 0x20 DUP2 DUP2 MSTORE PUSH1 0x40 DUP1 DUP5 KECCAK256 PUSH1 0x2 DUP1 DUP5 MSTORE DUP3 DUP7 KECCAK256 DUP1 SLOAD DUP8 MSTORE SWAP2 SWAP1 SWAP4 MSTORE DUP2 DUP6 KECCAK256 DUP6 SWAP1 SSTORE DUP1 SLOAD DUP6 MSTORE DUP2 DUP6 KECCAK256 SWAP1 SWAP4 ADD DUP7 SWAP1 SSTORE DUP3 SLOAD DUP5 MSTORE DUP1 DUP5 KECCAK256 SWAP1 SWAP2 ADD DUP1 SLOAD PUSH1 0x1 PUSH1 0x1 PUSH1 0xA0 SHL SUB NOT SWAP1 DUP2 AND ADDRESS OR SWAP1 SWAP2 SSTORE SWAP2 SLOAD DUP4 MSTORE DUP1 DUP4 KECCAK256 PUSH1 0x3 ADD DUP1 SLOAD SWAP1 SWAP3 AND DUP5 OR SWAP1 SWAP2 SSTORE MLOAD SELFBALANCE DUP1 ISZERO PUSH2 0x8FC MUL SWAP3 SWAP1 SWAP2 SWAP1 DUP2 DUP2 DUP2 DUP6 DUP9 DUP9 CALL SWAP4 POP POP POP POP ISZERO DUP1 ISZERO PUSH2 0x725 JUMPI RETURNDATASIZE PUSH0 DUP1 RETURNDATACOPY RETURNDATASIZE PUSH0 REVERT JUMPDEST POP PUSH1 0x40 MLOAD DUP3 ISZERO ISZERO SWAP1 PUSH32 0x1423CA3BA940E845379011B2F84BCD1F727E6FD3CF5AF7AD9D6390975B9898BF SWAP1 PUSH0 SWAP1 LOG2 POP POP JUMP JUMPDEST DUP1 CALLDATALOAD PUSH1 0x1 PUSH1 0x1 PUSH1 0xA0 SHL SUB DUP2 AND DUP2 EQ PUSH2 0x76C JUMPI PUSH0 DUP1 REVERT JUMPDEST SWAP2 SWAP1 POP JUMP JUMPDEST PUSH0 DUP1 PUSH1 0x40 DUP4 DUP6 SUB SLT ISZERO PUSH2 0x782 JUMPI PUSH0 DUP1 REVERT JUMPDEST PUSH2 0x78B DUP4 PUSH2 0x756 JUMP JUMPDEST SWAP5 PUSH1 0x20 SWAP4 SWAP1 SWAP4 ADD CALLDATALOAD SWAP4 POP POP POP JUMP JUMPDEST PUSH0 PUSH1 0x20 DUP3 DUP5 SUB SLT ISZERO PUSH2 0x7A9 JUMPI PUSH0 DUP1 REVERT JUMPDEST POP CALLDATALOAD SWAP2 SWAP1 POP JUMP JUMPDEST PUSH0 PUSH1 0x20 DUP3 DUP5 SUB SLT ISZERO PUSH2 0x7C0 JUMPI PUSH0 DUP1 REVERT JUMPDEST DUP2 CALLDATALOAD DUP1 ISZERO ISZERO DUP2 EQ PUSH2 0x7CF JUMPI PUSH0 DUP1 REVERT JUMPDEST SWAP4 SWAP3 POP POP POP JUMP JUMPDEST PUSH0 PUSH1 0x20 DUP3 DUP5 SUB SLT ISZERO PUSH2 0x7E6 JUMPI PUSH0 DUP1 REVERT JUMPDEST PUSH2 0x7CF DUP3 PUSH2 0x756 JUMP JUMPDEST PUSH1 0x20 DUP1 DUP3 MSTORE PUSH1 0x15 SWAP1 DUP3 ADD MSTORE PUSH21 0x2CB7BA9030B932903737BA103A34329037BBB732B9 PUSH1 0x59 SHL PUSH1 0x40 DUP3 ADD MSTORE PUSH1 0x60 ADD SWAP1 JUMP JUMPDEST PUSH4 0x4E487B71 PUSH1 0xE0 SHL PUSH0 MSTORE PUSH1 0x11 PUSH1 0x4 MSTORE PUSH1 0x24 PUSH0 REVERT JUMPDEST PUSH0 PUSH1 0x1 DUP3 ADD PUSH2 0x843 JUMPI PUSH2 0x843 PUSH2 0x81E JUMP JUMPDEST POP PUSH1 0x1 ADD SWAP1 JUMP JUMPDEST DUP1 DUP3 ADD DUP1 DUP3 GT ISZERO PUSH2 0x85D JUMPI PUSH2 0x85D PUSH2 0x81E JUMP JUMPDEST SWAP3 SWAP2 POP POP JUMP INVALID LOG2 PUSH5 0x6970667358 0x22 SLT KECCAK256 PUSH17 0x5B69AD2E18B3E1CC72E48DE87F86CDDF44 CALLCODE 0xE5 PUSH22 0x46EA8059BF22503A256E4364736F6C63430008170033 "
		},
		"gasEstimates": {
			"creation": {
				"codeDepositCost": "440200",
				"executionCost": "24706",
				"totalCost": "464906"
			},
			"external": {
				"": "182",
				"Deposit(uint256)": "infinite",
				"WidhtrawAll(bool)": "infinite",
				"Withdraw(uint256)": "infinite",
				"owner()": "2401",
				"transactionCount(address)": "2604",
				"transactions(address,uint256)": "9038"
			}
		},
		"methodIdentifiers": {
			"Deposit(uint256)": "4d6ce1e5",
			"WidhtrawAll(bool)": "82dec480",
			"Withdraw(uint256)": "5b6b431d",
			"owner()": "8da5cb5b",
			"transactionCount(address)": "99be3375",
			"transactions(address,uint256)": "14538128"
		}
	},
	"abi": [
		{
			"inputs": [],
			"stateMutability": "nonpayable",
			"type": "constructor"
		},
		{
			"anonymous": false,
			"inputs": [
				{
					"indexed": true,
					"internalType": "uint256",
					"name": "amount",
					"type": "uint256"
				}
			],
			"name": "EDeposit",
			"type": "event"
		},
		{
			"anonymous": false,
			"inputs": [
				{
					"indexed": true,
					"internalType": "uint256",
					"name": "amount",
					"type": "uint256"
				}
			],
			"name": "EWithdraw",
			"type": "event"
		},
		{
			"anonymous": false,
			"inputs": [
				{
					"indexed": true,
					"internalType": "bool",
					"name": "sure",
					"type": "bool"
				}
			],
			"name": "EWithdrawAll",
			"type": "event"
		},
		{
			"stateMutability": "payable",
			"type": "fallback"
		},
		{
			"inputs": [
				{
					"internalType": "uint256",
					"name": "amount",
					"type": "uint256"
				}
			],
			"name": "Deposit",
			"outputs": [],
			"stateMutability": "payable",
			"type": "function"
		},
		{
			"inputs": [
				{
					"internalType": "bool",
					"name": "sure",
					"type": "bool"
				}
			],
			"name": "WidhtrawAll",
			"outputs": [],
			"stateMutability": "payable",
			"type": "function"
		},
		{
			"inputs": [
				{
					"internalType": "uint256",
					"name": "amount",
					"type": "uint256"
				}
			],
			"name": "Withdraw",
			"outputs": [],
			"stateMutability": "payable",
			"type": "function"
		},
		{
			"inputs": [],
			"name": "owner",
			"outputs": [
				{
					"internalType": "address",
					"name": "",
					"type": "address"
				}
			],
			"stateMutability": "view",
			"type": "function"
		},
		{
			"inputs": [
				{
					"internalType": "address",
					"name": "",
					"type": "address"
				}
			],
			"name": "transactionCount",
			"outputs": [
				{
					"internalType": "uint256",
					"name": "idOfTransaction",
					"type": "uint256"
				}
			],
			"stateMutability": "view",
			"type": "function"
		},
		{
			"inputs": [
				{
					"internalType": "address",
					"name": "",
					"type": "address"
				},
				{
					"internalType": "uint256",
					"name": "idOfTransaction",
					"type": "uint256"
				}
			],
			"name": "transactions",
			"outputs": [
				{
					"internalType": "uint256",
					"name": "depositedAmount",
					"type": "uint256"
				},
				{
					"internalType": "uint256",
					"name": "withdrawedAmount",
					"type": "uint256"
				},
				{
					"internalType": "address",
					"name": "from",
					"type": "address"
				},
				{
					"internalType": "address",
					"name": "to",
					"type": "address"
				}
			],
			"stateMutability": "view",
			"type": "function"
		},
		{
			"stateMutability": "payable",
			"type": "receive"
		}
	]
}