{
	"data": {
		"bytecode": {
			"linkReferences": {},
			"object": "6080604052607b5f553480156012575f80fd5b5060aa8061001f5f395ff3fe6080604052348015600e575f80fd5b50600436106030575f3560e01c806306540f7e146034578063e492fd8414604d575b5f80fd5b603b5f5481565b60405190815260200160405180910390f35b605c6058366004605e565b5f55565b005b5f60208284031215606d575f80fd5b503591905056fea26469706673582212203b89f4721154af2774dcc9acd308a5b6be3bdbd5c0914a172356a277cef605c364736f6c63430008170033",
			"opcodes": "PUSH1 0x80 PUSH1 0x40 MSTORE PUSH1 0x7B PUSH0 SSTORE CALLVALUE DUP1 ISZERO PUSH1 0x12 JUMPI PUSH0 DUP1 REVERT JUMPDEST POP PUSH1 0xAA DUP1 PUSH2 0x1F PUSH0 CODECOPY PUSH0 RETURN INVALID PUSH1 0x80 PUSH1 0x40 MSTORE CALLVALUE DUP1 ISZERO PUSH1 0xE JUMPI PUSH0 DUP1 REVERT JUMPDEST POP PUSH1 0x4 CALLDATASIZE LT PUSH1 0x30 JUMPI PUSH0 CALLDATALOAD PUSH1 0xE0 SHR DUP1 PUSH4 0x6540F7E EQ PUSH1 0x34 JUMPI DUP1 PUSH4 0xE492FD84 EQ PUSH1 0x4D JUMPI JUMPDEST PUSH0 DUP1 REVERT JUMPDEST PUSH1 0x3B PUSH0 SLOAD DUP2 JUMP JUMPDEST PUSH1 0x40 MLOAD SWAP1 DUP2 MSTORE PUSH1 0x20 ADD PUSH1 0x40 MLOAD DUP1 SWAP2 SUB SWAP1 RETURN JUMPDEST PUSH1 0x5C PUSH1 0x58 CALLDATASIZE PUSH1 0x4 PUSH1 0x5E JUMP JUMPDEST PUSH0 SSTORE JUMP JUMPDEST STOP JUMPDEST PUSH0 PUSH1 0x20 DUP3 DUP5 SUB SLT ISZERO PUSH1 0x6D JUMPI PUSH0 DUP1 REVERT JUMPDEST POP CALLDATALOAD SWAP2 SWAP1 POP JUMP INVALID LOG2 PUSH5 0x6970667358 0x22 SLT KECCAK256 EXTCODESIZE DUP10 DELEGATECALL PUSH19 0x1154AF2774DCC9ACD308A5B6BE3BDBD5C0914A OR 0x23 JUMP LOG2 PUSH24 0xCEF605C364736F6C63430008170033000000000000000000 "
		},
		"gasEstimates": {
			"creation": {
				"codeDepositCost": "34000",
				"executionCost": "22190",
				"totalCost": "56190"
			},
			"external": {
				"myUint()": "2259",
				"setMyUint(uint256)": "22309"
			}
		},
		"methodIdentifiers": {
			"myUint()": "06540f7e",
			"setMyUint(uint256)": "e492fd84"
		}
	},
	"abi": [
		{
			"inputs": [],
			"name": "myUint",
			"outputs": [
				{
					"internalType": "uint256",
					"name": "",
					"type": "uint256"
				}
			],
			"stateMutability": "view",
			"type": "function"
		},
		{
			"inputs": [
				{
					"internalType": "uint256",
					"name": "myNewUint",
					"type": "uint256"
				}
			],
			"name": "setMyUint",
			"outputs": [],
			"stateMutability": "nonpayable",
			"type": "function"
		}
	]
}